:040000000DEF28F0E8
:080008005DEF00F000000000B4
:100010000000000000000000046ED8CF05F0E0CF23
:1000200006F00001E9CF0CF0EACF07F0E1CF08F0CD
:10003000E2CF09F0D9CF0AF0DACF0BF0F3CF12F00C
:10004000F4CF13F0FACF14F0FBCF15F000C00EF090
:1000500001C00FF002C010F003C011F0F2AA34EF9B
:1000600000F0F2B439EF01F09DA03AEF00F09EB03D
:1000700065EF01F00EC000F00FC001F010C002F0FB
:1000800011C003F00CC0E9FF07C0EAFF078E08C0EB
:10009000E1FF09C0E2FF0AC0D9FF0BC0DAFF12C0BE
:1000A000F3FF13C0F4FF14C0FAFF15C0FBFF0450A8
:1000B00006C0E0FF05C0D8FF1000176ED8CF18F0BB
:1000C000E0CF19F00001E9CF1FF0EACF1AF0E1CF3D
:1000D0001BF0E2CF1CF0D9CF1DF0DACF1EF0F3CF2A
:1000E00025F0F4CF26F0FACF27F0FBCF28F000C0A0
:1000F00021F001C022F002C023F003C024F09DAA29
:1001000085EF00F09EBA02EF01F021C000F022C09E
:1001100001F023C002F024C003F01FC0E9FF1AC0A1
:10012000EAFF1A8E1BC0E1FF1CC0E2FF1DC0D9FF11
:100130001EC0DAFF25C0F3FF26C0F4FF27C0FAFF78
:1001400028C0FBFF175019C0E0FF18C0D8FF1000EF
:100150004C49515549444F532041000000000000D4
:100160000000000043415543484F000000000000DC
:100170000000000000000000494E535452554D4508
:100180004E54414C00000000000000004C49515505
:1001900049444F53204200000000000000000000CE
:1001A0004C494252450000000000000000000000E1
:1001B00000000000544553540000000000000000FF
:1001C0000000000000000000484F52412059204626
:1001D000454348410000000000000000434C4156E8
:1001E00045000000000000000000000000000000CA
:1001F00000000000000000000000000000000000FF
:10020000000000009EAAFED7AECF38F3030138519C
:10021000650803E1010E366F466A362D0AD0036A7F
:1002200046503B0FE96E000E0320EA6E38C3EFFF25
:10023000462A4650090802E2466A366B465210E1E9
:100240003B5065080BE13C3C09D03D3C07D0435294
:1002500005E1443C03D0050E376F02D00A0E376F1C
:100260003A51140802E18C8095909E9A000185EF26
:1002700000F0D76AD66A03016A2BD8B46B2B000151
:10028000A0AD20D0030150531AE14F51050817E3E8
:100290006B515A5D07E303E16A51595D03E38C88B2
:1002A000959802D08C9895986B51E90807E2FF0A5F
:1002B00003E16A515F0802E26B6B6A6B02D08C88C3
:1002C00095980001F2943AEF00F09E0ECF6E580E12
:1002D000CE6E0301472BD8B4482B492BD8B44A2BF8
:1002E0004B2BD8B44C2B4D2BD8B44E2B0001A2ADC8
:1002F00005D003016C2BD8B46D2B0001A3A105D050
:1003000003016E2BD8B46F2B0001938E81AE04D005
:10031000AE2BD8B4AF2B02D0AF6BAE6B938A81AA51
:1003200004D0B02BD8B4B12B02D0B16BB06B938496
:1003300081B404D0B22BD8B4B32B02D0B36BB26B60
:100340000301322D1ED04E510001AB5D0CE308E1DC
:10035000AA5103014D5DD8A002D0000104D00001D4
:100360008B94949402D08B849494AD5103014E5D90
:1003700008E305E10001AC5103014D5D02E34E6B62
:100380004D6B485304E14751C708D8B08ED02FA514
:1003900001D0672B312B0001A0A309D003013551F7
:1003A000465DD8A002D0000102D0462B06D0030142
:1003B0003551465D02E32F87466B0001A0A30AD0AA
:1003C000A0B508D0A42BD8B4A52B0301702BD8B4AA
:1003D000712B00019FAF05D0A0B103D0A62BD8B4DC
:1003E000A72BA0A903D0A82BD8B4A92B0301486B35
:1003F000476B0001A38F0301512BD8B4522B00018E
:10040000A0A529D0A0BB27D0B4BF05D0B451000807
:1004100002E2B40720D0B5BF07D0B551000804E20E
:10042000B507090EB46F17D0B6BF09D0B651000892
:1004300006E2B607050EB56F090EB46F0CD0B7BF54
:100440000AD0B751000807E2B707090EB66F050ECC
:10045000B56F090EB46FA0A727D0BEBF05D0BE519F
:10046000000802E2BE0720D0BFBF07D0BF5100087E
:1004700004E2BF07090EBE6F17D0C0BF09D0C0513C
:10048000000806E2C007050EBF6F090EBE6F0CD054
:10049000C1BF0AD0C151000807E2C107090EC06FF1
:1004A000050EBF6F090EBE6F03019E9000013AEF6B
:1004B00000F070616765204269656E76656E6964FB
:1004C0006100626B636D643D30007061676520435D
:1004D0006C61766500007061676520456D657267C7
:1004E000656E63696100626B636D643D30007061CD
:1004F000676520436C617665000074302E747874F3
:100500003D22257522007661302E76616C3D3100EA
:1005100074302E7478743D2225752575220076611D
:10052000302E76616C3D320074302E7478743D222A
:1005300025752575257522007661302E76616C3D16
:10054000330074302E7478743D2225752575257519
:10055000257522007661302E76616C3D3400743052
:100560002E7478743D2222007061676520436C61AF
:100570007665436F727265637461000070616765D0
:1005800020436C6176654261640070616765204359
:100590006F6E6669670070616765204D656E7550A6
:1005A00072696E636970616C0000706167652043F9
:1005B0006C6176650000746974756C6F2E74787464
:1005C0003D22436C617665204E75657661220000A0
:1005D00070616765204D656E755072696E636970F4
:1005E000616C0000746974756C6F2E7478743D22B0
:1005F000436C617665204E756576612200007061FE
:100600006765204D656E755072696E636970616CC7
:10061000000070616765204D656E755072696E638C
:100620006970616C0000746974756C6F2E747874F5
:100630003D22436C617665204E756576612200002F
:10064000646F6576656E74730000746974756C6FA1
:100650002E7478743D22436C617665204163747515
:10066000616C2200646F6576656E74730000746956
:1006700074756C6F2E7478743D22436C61766520BE
:100680005465636E69636F220000646F6576656E02
:1006900074730000746974756C6F2E7478743D22E5
:1006A000496E677265736520436F6E74726173651E
:1006B000F16122007061676520436C617665436F6C
:1006C00072726563746100007061676520436C61DC
:1006D0007665426164007061676520436F6E66698C
:1006E000670070616765204D656E755072696E6355
:1006F0006970616C00007061676520436C617665AC
:100700000000746974756C6F2E7478743D22436CAC
:10071000617665204E7565766122000070616765BF
:10072000204D656E755072696E636970616C000072
:10073000746974756C6F2E7478743D22436C6176A5
:1007400065204E7565766122000070616765204DF9
:10075000656E755072696E636970616C00006665E4
:100760006368612E7478743D22543A25332E3166C5
:10077000B0432046656368613A253032752F2530D5
:1007800032752F32302530327520486F72613A2031
:10079000253032753A253032753A253032752200CF
:1007A0007061676520436C61766500007061676504
:1007B00020436C6176650000706167652046656363
:1007C0006861000070616765205465737400706132
:1007D0006765204369636C6F506572736F6E61006B
:1007E00070616765204E6976656C000070616765B1
:1007F000204E6976656C0000706167652046756EF5
:1008000063696F6E616D69656E746F0070616765B5
:100810002046756E63696F6E616D69656E746F00F9
:1008200062632E7069633D25750062642E70696392
:100830003D25750062692E7069633D257500626310
:100840002E706963323D2575000062642E70696305
:10085000323D2575000062692E706963323D257551
:100860000000746578746F702E7478743D2225735F
:10087000220062632E7069633D25750062642E70EC
:1008800069633D25750062692E7069633D257500B9
:1008900062632E706963323D2575000062642E70BC
:1008A0006963323D2575000062692E706963323DCF
:1008B00025750000746578746F702E7478743D220D
:1008C0002573220062632E7069633D2575006264A2
:1008D0002E7069633D25750062692E7069633D2540
:1008E000750062632E706963323D25750000626495
:1008F0002E706963323D2575000062692E70696350
:10090000323D25750000746578746F702E747874AC
:100910003D222573220074746974756C6F2E74788F
:10092000743D2253454C454343494F4E4520535552
:10093000204349434C4F22007061676520436C613E
:100940007665000066656368612E7478743D225494
:100950003A25332E3166B0432046656368613A25F7
:100960003032752F253032752F32302530327520D8
:10097000486F72613A20253032753A253032753A27
:1009800025303275220070616765204369636C6FA2
:10099000506572736F6E6100747365636573742E56
:1009A00070636F3D363535333500746D696E657330
:1009B000742E70636F3D3000747365636573742EBD
:1009C00070636F3D3000746D696E6573742E706373
:1009D0006F3D363535333500746D696E6573742E31
:1009E0007478743D2225303275220000747365637B
:1009F0006573742E7478743D2225303275220000A0
:100A000066656368612E7478743D22543A25332EEE
:100A10003166B0432046656368613A253032752FF0
:100A2000253032752F32302530327520486F726193
:100A30003A20253032753A253032753A25303275F4
:100A4000220070616765204369636C6F5065727343
:100A50006F6E6100746D696E7365632E70636F3DB8
:100A60003000747365637365632E70636F3D363554
:100A700035333500746D696E7365632E70636F3D39
:100A8000363535333500747365637365632E706373
:100A90006F3D3000746D696E7365632E7478743DBC
:100AA0002225303275220000747365637365632EEE
:100AB0007478743D222530327522000066656368C3
:100AC000612E7478743D22543A25332E3166B0433A
:100AD0002046656368613A253032752F25303275BE
:100AE0002F32302530327520486F72613A20253020
:100AF00032753A253032753A2530327522007061F0
:100B00006765204369636C6F506572736F6E610037
:100B10007473657474656D2E7478743D222530335A
:100B20007522000066656368612E7478743D2254F6
:100B30003A25332E3166B0432046656368613A2515
:100B40003032752F253032752F32302530327520F6
:100B5000486F72613A20253032753A253032753A45
:100B600025303275220070616765204369636C6FC0
:100B7000506572736F6E6100706167652046756EB7
:100B800063696F6E616D69656E746F00746E69760E
:100B9000656C2E7478743D22254C752200006231FC
:100BA0002E62636F3D323031360062312E62636FE8
:100BB0003D3633343838000062302E62636F3D3288
:100BC0003031360062302E62636F3D363334383850
:100BD000000062322E62636F3D3230313600623285
:100BE0002E62636F3D3633343838000062332E6234
:100BF000636F3D323031360062332E62636F3D36B3
:100C000033343838000062382E62636F3D32303141
:100C1000360062382E62636F3D3633343838000058
:100C200062392E62636F3D323031360062392E6296
:100C3000636F3D363334383800006231302E6263E2
:100C40006F3D3230313600006231302E62636F3DCD
:100C50003633343838006231322E62636F3D3230C1
:100C6000313600006231322E62636F3D36333438E4
:100C700038006231362E62636F3D3230313600000B
:100C80006231362E62636F3D36333438380062315C
:100C9000372E62636F3D3230313600006231372EBD
:100CA00062636F3D3633343838006231332E7478E6
:100CB000743D22414443303A25332E3066220000F1
:100CC0006231342E7478743D22414443313A2533E5
:100CD0002E30662200006231352E7478743D224138
:100CE000323A25332E3066202530334C75220000F1
:100CF0006231382E7478743D2241333A25332E30D8
:100D000066202530334C752200006232302E747814
:100D1000743D2254313A25332E3166220000706131
:100D20006765204D656E755072696E636970616CA0
:100D3000000070616765204D656E755072696E6365
:100D40006970616C000074686F72612E7478743D14
:100D50002225303275220000746D696E75746F73D0
:100D60002E7478743D2225303275220074646961D6
:100D70002E7478743D22253032752200746D6573AF
:100D80002E7478743D2225303275220074796561A5
:100D9000722E7478743D222530327522000066650B
:100DA0006368612E7478743D22543A25332E31667F
:100DB000B0432046656368613A253032752F25308F
:100DC00032752F32302530327520486F72613A20EB
:100DD000253032753A253032753A25303275220089
:100DE0006369636C6F2E7478743D224349434C4FA2
:100DF000205025303275220074656D702E74787421
:100E00003D2225752200746573742E7478743D221A
:100E1000253032753A2530327522000074736563CF
:100E20002E7478743D22253032753A253032752281
:100E30000000646573666F6775652E7478743D2273
:100E4000257522006369636C6F2E7478743D2243AC
:100E500049434C4F20502D2D220074656D702E7427
:100E600078743D222D2D2200746573742E7478746D
:100E70003D222D2D3A2D2D220000747365632E74B2
:100E800078743D222D2D3A2D2D2200006465736665
:100E90006F6775652E7478743D222D2D220063696D
:100EA000636C6F2E7478743D224349434C4F20503D
:100EB00025303275220074656D702E7478743D2271
:100EC00025752200746573742E7478743D22253064
:100ED00032753A25303275220000747365632E74C2
:100EE00078743D22253032753A2530327522000063
:100EF000646573666F6775652E7478743D22257519
:100F0000220070616765204D656E755072696E6371
:100F10006970616C0000706167652054656D706573
:100F20007261747572610000706167652054696553
:100F30006D706F457374000070616765205469655A
:100F40006D706F536563000070616765204E697650
:100F5000656C0000706167652046756E63696F6E31
:100F6000616D69656E746F0070616765204D656EB7
:100F7000755072696E636970616C000070616765BD
:100F800020436C61766500007432662E7478743D7F
:100F90002225752200007433662E7478743D222554
:100FA000732200007432662E7478743D22257522F7
:100FB00000007433662E7478743D22506572736F2E
:100FC0006E616C697A61646F220046756E63696F49
:100FD0006E616D69656E746F2E7434662E747874EC
:100FE0003D222050617261646120646520456D6519
:100FF0007267656E63696122000046756E63696F92
:101000006E616D69656E746F2E7435662E747874BA
:101010003D222043616E63656C61646F22004675FA
:101020006E63696F6E616D69656E746F2E74346680
:101030002E7478743D22205075657274612041626F
:10104000696572746122000046756E63696F6E6136
:101050006D69656E746F2E7435662E7478743D22DA
:10106000205061757361646F220046756E63696F0D
:101070006E616D69656E746F2E7434662E7478744B
:101080003D22205469656D706F204C6C656E616403
:101090006F22000046756E63696F6E616D69656EE3
:1010A000746F2E7435662E7478743D222043616E01
:1010B00063656C61646F220046756E63696F6E6173
:1010C0006D69656E746F2E7434662E7478743D226B
:1010D000205465726D6F737461746F2200004675E1
:1010E0006E63696F6E616D69656E746F2E743566BF
:1010F0002E7478743D222043616E63656C61646F69
:10110000220046756E63696F6E616D69656E746FFE
:101110002E7434662E7478743D2220536F6272658B
:1011200074656D7065726174757261220000467538
:101130006E63696F6E616D69656E746F2E7435666E
:101140002E7478743D222043616E63656C61646F18
:10115000220046756E63696F6E616D69656E746FAE
:101160002E7434662E7478743D22205469656D7037
:101170006F2050726F6C6F6E6761646F22004675EE
:101180006E63696F6E616D69656E746F2E7435661E
:101190002E7478743D222043616E63656C61646FC8
:1011A000220046756E63696F6E616D69656E746F5E
:1011B0002E7434662E7478743D2220536F627265EB
:1011C0005072657369F36E22000046756E63696F35
:1011D0006E616D69656E746F2E7435662E747874E9
:1011E0003D222043616E63656C61646F2200467529
:1011F0006E63696F6E616D69656E746F2E743466AF
:101200002E7478743D22204572726F722043696398
:101210006C6F220046756E63696F6E616D69656EF5
:10122000746F2E7435662E7478743D222043616E7F
:1012300063656C61646F220046756E63696F6E61F1
:101240006D69656E746F2E7434662E7478743D22E9
:10125000204E696E67756E61220046756E63696F18
:101260006E616D69656E746F2E7435662E74787458
:101270003D22204E6976656C2042616A6F22000033
:1012800046756E63696F6E616D69656E746F2E74FD
:1012900034662E7478743D22204E696E67756E61D7
:1012A000220046756E63696F6E616D69656E746F5D
:1012B0002E7435662E7478743D222043616C656E01
:1012C00074616E646F22000046756E63696F6E61B3
:1012D0006D69656E746F2E7434662E7478743D2259
:1012E000204E696E67756E61220046756E63696F88
:1012F0006E616D69656E746F2E7435662E747874C8
:101300003D222046696E616C697A61646F2200003B
:1013100046756E63696F6E616D69656E746F2E746C
:1013200034662E7478743D22204E696E67756E6146
:10133000220046756E63696F6E616D69656E746FCC
:101340002E7435662E7478743D2220446573707255
:1013500065737572697A616E646F220046756E639B
:10136000696F6E616D69656E746F2E7434662E746C
:1013700078743D22204E696E67756E612200467555
:101380006E63696F6E616D69656E746F2E7435661C
:101390002E7478743D222046696E616C697A6164AE
:1013A0006F22000046756E63696F6E616D69656ED0
:1013B000746F2E7434662E7478743D22204E696EDC
:1013C00067756E61220046756E63696F6E616D6947
:1013D000656E746F2E7435662E7478743D222053BA
:1013E0006563616E646F220046756E63696F6E613E
:1013F0006D69656E746F2E7434662E7478743D2238
:10140000204E696E67756E61220046756E63696F66
:101410006E616D69656E746F2E7435662E747874A6
:101420003D2220446573707265737572697A616ECE
:10143000646F220046756E63696F6E616D69656EDB
:10144000746F2E7434662E7478743D22204E696E4B
:1014500067756E61220046756E63696F6E616D69B6
:10146000656E746F2E7435662E7478743D22204537
:1014700073746572696C697A616E646F220061646D
:10148000642031342C302C25312E30660000743627
:10149000662E7478743D2225332E3166B0432200C7
:1014A00046756E63696F6E616D69656E746F2E74DB
:1014B00037662E7478743D222530334C756B50613D
:1014C000220046756E63696F6E616D69656E746F3B
:1014D0002E743132662E7478743D223030306B5069
:1014E0006122000046756E63696F6E616D69656E9D
:1014F000746F2E7439662E7478743D2225303375DE
:10150000220046756E63696F6E616D69656E746FFA
:101510002E743130662E7478743D22253032752257
:10152000000046756E63696F6E616D69656E746FFC
:101530002E743133662E7478743D22253032752234
:10154000000046756E63696F6E616D69656E746FDC
:101550002E743131662E7478743D22253032752216
:10156000000046756E63696F6E616D69656E746FBC
:101570002E743136662E7478743D222530327522F1
:10158000000066656368612E7478743D2246656369
:1015900068613A253032752F253032752F3230256B
:1015A00030327520202020486F72613A2025303279
:1015B000753A253032752200436F6E6669672E7466
:1015C00032632E7478743D2250726F706F7263694B
:1015D0006F6E616C22007433632E7478743D222523
:1015E000322E30662200436F6E6669672E74326356
:1015F0002E7478743D224465726976617469766FE1
:1016000022007433632E7478743D22257522000005
:10161000436F6E6669672E7432632E7478743D2250
:10162000496E74656772616C22007433632E74783E
:10163000743D222575220000436F6E6669672E7423
:1016400032632E7478743D22546369636C6F220098
:101650007433632E7478743D2225322E3066220056
:10166000436F6E6669672E7432632E7478743D2200
:10167000416A75737465202B22007433632E74786D
:10168000743D222575220000436F6E6669672E74D3
:1016900032632E7478743D22416A75737465202D0F
:1016A00022007433632E7478743D22257522000065
:1016B000436F6E6669672E7432632E7478743D22B0
:1016C0004D656469612200007433632E7478743D43
:1016D000222575220000436F6E6669672E7432639F
:1016E0002E7478743D225250543130304222000022
:1016F0007433632E7478743D2225322E31662200B5
:10170000436F6E6669672E7432632E7478743D225F
:10171000545472616D70612200007433632E7478CA
:10172000743D2225303275220000436F6E66696772
:101730002E7432632E7478743D224369636C6F7328
:1017400022007433632E7478743D222530354C7535
:10175000220070616765204D656E755072696E6319
:101760006970616C000066656368612E7478743D11
:101770002246656368613A253032752F253032750F
:101780002F32302530327520202020486F72613A88
:1017900020253032753A253032752200030EEA6E6C
:1017A000E10EE96EEF500DE0060E016E006A002EAC
:1017B000FED7012EFBD77B0E006E002EFED7EF2E3C
:1017C000F3D7000C8E0E006EE2C301F0E1C302F00D
:1017D000036A015209E102C001F0026A080E005ECC
:1017E000015202E1006A08D0D89001BE04D002364E
:1017F00001360006F9D7019E000C0301D151D8B47F
:10180000A5D0DD6FD551D8B4A1D0DD5F05E37F0E43
:10181000DD27D8B09BD006D0810EDD5FD8A096D052
:10182000D8B494D0DDC300F0016A026A036ADC6BAD
:10183000D2C3DBF3DB8FD3C3DAF3D4C3D9F3190EEE
:10184000DD6FD851D95F0DE2010EDA5F0AE2DB5F8E
:1018500008E2DC5F06E2DC2BDB2BDA2BD851D92740
:1018600028D0D751DA5F12E2010EDB5F0FE2DC5FB6
:101870000DE2DC2BDB2BD751DA27D851D92719E31E
:10188000DA2B17E1DB2B15E1DC2B13D0D6518009C5
:10189000DB5F0EE2010EDC5F0BE2DC2BD651800930
:1018A000DB27D751DA27E9E3DB2BE7E1DC2BE5D7B0
:1018B0000380DD2F01D00BD0D890D937DA37DB3752
:1018C000DC37D890033602360136DE37BAD7DEA1D0
:1018D00006D0D890013202320332DE3302D0000645
:1018E00035E0DEBF1ED0D890D937DA37DB37DC37AA
:1018F000D851D95F07E2010EDA5F04E2DB5F02E252
:10190000DC5F1AE3D751DA5F05E2010EDB5F02E22A
:10191000DC5F12E3D6518009DB5F03E2010EDC5F7E
:101920000BE3032A09E1022A07E1012A05E1002A63
:101930000DE0013202320332D2C3DDF3D651DD1B9A
:10194000DDAF02D0018E06D0019E04D0006A016A8C
:10195000026A036A0001000C800ED8A202D00301C3
:10196000E61B0301EB6BEC6BE2C3EAF3E651EA1B07
:10197000E151D8B4DFD0E96F006EE551D8B4E3D0BF
:10198000E95FD8B483D03EE3E6C3EFF3EF8FE7C35C
:10199000EEF3E8C3EDF3EC6BD890EF33EE33ED33B9
:1019A000EC33E92FF8D7EAAF03D0EB81E0D0EB912D
:1019B000E991EB89030EEA6EE40EE96EEBD0EB9948
:1019C000EABF0AD0E9A113D0EF33EE33ED33EC33A5
:1019D000002AD8B4C7D00BD0EFBF0CD0D890EC37CA
:1019E000ED37EE37EF370006D8B4BCD0F5D7EB8D26
:1019F0006DD0EB9DE2C3EAF3E2AF02D0EF8FABD044
:101A0000EF9FA9D0E5C3E9F3E5C300F0E151E95F39
:101A1000E2C3EFF3EF8FE3C3EEF3E4C3EDF3EC6B5C
:101A2000D890EF33EE33ED33EC33E92FF8D7EAAF4C
:101A300003D0EB839CD0EB93E991EB8B030EEA6E22
:101A4000E80EE96EA7D0EB9BEABF0AD0E9A113D05C
:101A5000EF33EE33ED33EC33002AD8B483D00BD020
:101A6000EFBF0CD0D890EC37ED37EE37EF370006EC
:101A7000D8B478D0F5D7EB8F29D0EB9FE6C3EAF343
:101A8000E6AF02D0EF8F67D0EF9F65D0E6C3EFF3EC
:101A9000EF8FE7C3EEF3E8C3EDF3EAAF04D0EF9FB7
:101AA000EB8565D0EB95EC6BE991030EEA6EE40EE5
:101AB000E96E70D0EABF1CD0E2C3EAF3E9A106D018
:101AC000EF33EE33ED33EC33002A4CE0ECAF0BD0C8
:101AD000ED2B09E1EE2B07E1EF2B05E1EF33EE33C0
:101AE000ED33002A3FE0EBBD84D7EBBFC6D71CD057
:101AF000800EEF1BEFAF04D03AD0E6C3EAF30AD072
:101B0000E2C3EAF3EF5306E1EE5304E1ED5302E1E1
:101B1000006A21D0EFBF08D0D890EC37ED37EE3710
:101B2000EF37002EF7D71ED0EAAF02D0EF8F13D0D9
:101B3000EF9F11D0E5C300F0E6C3EFF3E7C3EEF388
:101B4000E8C3EDF308D0E1C300F0E2C3EFF3E3C371
:101B5000EEF3E4C3EDF3EFC301F0EEC302F0EDC327
:101B600003F034D0006A016A026A036A2FD0EC6B7A
:101B7000ED1FEE1FEF1FEC1FEC2B05E1ED2B03E13A
:101B8000EE2B01E1EF2BEBB112D7EBB354D7EBB552
:101B900089D7B3D7EF50ED2705E3EE2B03E1EF2B09
:101BA000D8B4E981ED52EF50EE2703E3EF2BD8B420
:101BB000E981ED52EF50EFBE01D0800AEF27D8B097
:101BC000E981EBB9FCD6EBBB3ED774D70001000C22
:101BD000F2CFCCF3F29CF29EAA6AA96AA69CA69EBA
:101BE000A680A8500301CCBDF28CCCBFF28E0001C0
:101BF000B96F0A0E0301E16F0001D0DDF2CFCCF323
:101C0000F29CF29EAA6A010EA96EA69CA69EA680D0
:101C1000A8500301CCBDF28CCCBFF28E0001BA6F8C
:101C20000A0E0301E16F0001B9DDF2CFCCF3F29CA3
:101C3000F29EAA6A020EA96EA69CA69EA680A85035
:101C40000301CCBDF28CCCBFF28E0001BB6F0A0E3B
:101C50000301E16F0001A2DDF2CFCCF3F29CF29E12
:101C6000AA6A030EA96EA69CA69EA680A850030190
:101C7000CCBDF28CCCBFF28E0001BC6F0A0E03010A
:101C8000E16F00018BDDF2CFCCF3F29CF29EAA6AE9
:101C9000040EA96EA69CA69EA680A8500301CCBDEA
:101CA000F28CCCBFF28E0001C26F0A0E0301E16F0D
:101CB000000174DDF2CFCCF3F29CF29EAA6A050E0D
:101CC000A96EA69CA69EA680A8500301CCBDF28C4E
:101CD000CCBFF28E0001C36F0A0E0301E16F000159
:101CE0005DDDF2CFCCF3F29CF29EAA6A060EA96EDD
:101CF000A69CA69EA680A8500301CCBDF28CCCBFAA
:101D0000F28E0001C46F0A0E0301E16F000146DD8F
:101D1000F2CFCCF3F29CF29EAA6A070EA96EA69CA3
:101D2000A69EA680A8500301CCBDF28CCCBFF28E3B
:101D30000001C56F0A0E0301E16F00012FDDF2CF34
:101D4000CCF3F29CF29EAA6A080EA96EA69CA69EEF
:101D5000A680A8500301CCBDF28CCCBFF28E416F9F
:101D60000A0EE16F00011ADDF2CFCCF3F29CF29E75
:101D7000AA6A090EA96EA69CA69EA680A850030179
:101D8000CCBDF28CCCBFF28E506B4F6F0A0EE16F60
:101D9000000104DDF2CFCCF3F29CF29EAA6A0A0E97
:101DA000A96EA69CA69EA680A8500301CCBDF28C6D
:101DB000CCBFF28E5F6F0A0EE16F0001EFDCF2CF55
:101DC000CCF3F29CF29EAA6A0B0EA96EA69CA69E6C
:101DD000A680A8500301CCBDF28CCCBFF28E606F00
:101DE0000A0EE16F0001DADCF2CFCCF3F29CF29E36
:101DF000AA6A0C0EA96EA69CA69EA680A8500301F6
:101E0000CCBDF28CCCBFF28E616F0A0EE16F000187
:101E1000C5DCF2CFCCF3F29CF29EAA6A0D0EA96E3D
:101E2000A69CA69EA680A8500301CCBDF28CCCBF78
:101E3000F28E626F0A0EE16F0001B0DCF2CFCCF3DC
:101E4000F29CF29EAA6A140EA96EA69CA69EA6807B
:101E5000A8500301CCBDF28CCCBFF28EE26BE16FD7
:101E60000001B0DC03C0FBF202C0FAF201C0F9F2DB
:101E700000C0F8F20A0E0301E16F00018FDCF2CF1F
:101E8000CCF3F29CF29EAA6A150EA96EA69CA69EA1
:101E9000A680A8500301CCBDF28CCCBFF28E02010B
:101EA000D06F0A0E0301E16F000178DCF2CFCCF3B2
:101EB000F29CF29EAA6A160EA96EA69CA69EA68009
:101EC000A8500301CCBDF28CCCBFF28E0201D16FC1
:101ED0000A0E0301E16F000161DCF2CFCCF3F29C4A
:101EE000F29EAA6A180EA96EA69CA69EA680A8506D
:101EF0000301CCBDF28CCCBFF28E0201D26F0A0E70
:101F00000301E16F00014ADCF2CFCCF3F29CF29EB8
:101F1000AA6A190EA96EA69CA69EA680A8500301C7
:101F2000CCBDF28CCCBFF28EE26BE16F00014ADCDB
:101F300003C0E3F202C0E2F201C0E1F200C0E0F24D
:101F40000A0E0301E16F000129DCF2CFCCF3F29C11
:101F5000F29EAA6A1A0EA96EA69CA69EA680A850FA
:101F60000301CCBDF28CCCBFF28E2C6F0A0EE16F58
:101F7000000114DCF2CFCCF3F29CF29EAA6A1B0E95
:101F8000A96EA69CA69EA680A8500301CCBDF28C8B
:101F9000CCBFF28E2D6F0A0EE16F0001CEEC0BF07C
:101FA000F2CFCCF3F29CF29EAA6A1D0EA96EA69CFB
:101FB000A69EA680A8500301CCBDF28CCCBFF28EA9
:101FC000E26BE16F0001E2EC0BF003C0B1F202C082
:101FD000B0F201C0AFF200C0AEF2B1C2D4F3B0C2F1
:101FE000D3F3AFC2D2F3AEC2D1F30301D86BD76B38
:101FF000200ED66F820ED56F0001FDEC0BF003C0F2
:10200000B1F202C0B0F201C0AFF200C0AEF20A0EEF
:102010000301E16F0001CEEC0BF0F2CFCCF3F29CA8
:10202000F29EAA6A1C0EA96EA69CA69EA680A85027
:102030000301CCBDF28CCCBFF28EE26BE16F0001EC
:10204000E2EC0BF0D89203C0E4F302C0E3F301C06A
:10205000E2F300C0E1F3B1C2E8F3B0C2E7F3AFC20C
:10206000E6F3AEC2E5F378DC03C0A9F202C0A8F241
:1020700001C0A7F200C0A6F20A0E0301E16F000141
:10208000CEEC0BF0F2CFCCF3F29CF29EAA6A1F0EBC
:10209000A96EA69CA69EA680A8500301CCBDF28C7A
:1020A000CCBFF28ECD6FF2CFCEF3F29CF29EAA6A35
:1020B0001E0EA96EA69CA69EA680A850CEBDF28C30
:1020C000CEBFF28ECF6FCDC303F0CF51E16F03C00F
:1020D000E2F30001E2EC0BF003C0B5F202C0B4F28F
:1020E00001C0B3F200C0B2F20A0E0301E16F0001B9
:1020F000CEEC0BF0F2CFCCF3F29CF29EAA6A210E4A
:10210000A96EA69CA69EA680A8500301CCBDF28C09
:10211000CCBFF28EE26BE16F0001E2EC0BF003C08A
:10212000B1F202C0B0F201C0AFF200C0AEF2B1C273
:10213000D4F3B0C2D3F3AFC2D2F3AEC2D1F3030132
:10214000D86BD76B200ED66F820ED56F0001FDECD9
:102150000BF003C0B1F202C0B0F201C0AFF200C098
:10216000AEF20A0E0301E16F0001CEEC0BF0F2CFEC
:10217000CCF3F29CF29EAA6A200EA96EA69CA69EA3
:10218000A680A8500301CCBDF28CCCBFF28EE26BCE
:10219000E16F0001E2EC0BF0D89203C0E4F302C05F
:1021A000E3F301C0E2F300C0E1F3B1C2E8F3B0C26F
:1021B000E7F3AFC2E6F3AEC2E5F3ACEC0CF003C05C
:1021C000ADF202C0ACF201C0ABF200C0AAF20A0E3E
:1021D0000301E16F0001CEEC0BF0F2CFCCF3F29CE7
:1021E000F29EAA6A250EA96EA69CA69EA680A8505D
:1021F0000301CCBDF28CCCBFF28E3E6F0A0EE16FB4
:102200000001CEEC0BF0F2CFCCF3F29CF29EAA6A66
:10221000260EA96EA69CA69EA680A8500301CCBD42
:10222000F28CCCBFF28E3F6F0A0EE16F0001CEEC54
:102230000BF03FC358F33EC357F30A0E0301E16F9F
:102240000001CEEC0BF0F2CFCCF3F29CF29EAA6A26
:10225000270EA96EA69CA69EA680A8500301CCBD01
:10226000F28CCCBFF28E0201D36F0A0E0301E16F34
:102270000001CEEC0BF0F2CFCCF3F29CF29EAA6AF6
:10228000280EA96EA69CA69EA680A8500301CCBDD0
:10229000F28CCCBFF28E336F0A0EE16F0001CEECF0
:1022A0000BF0F2CFCCF3F29CF29EAA6A290EA96E33
:1022B000A69CA69EA680A8500301CCBDF28CCCBFE4
:1022C000F28E346F0A0EE16F0001CEEC0BF0F2CF0C
:1022D000CCF3F29CF29EAA6A2A0EA96EA69CA69E38
:1022E000A680A8500301CCBDF28CCCBFF28E826FC9
:1022F0000A0EE16F0001CEEC0BF0F2CFCCF3F29CB2
:10230000F29EAA6A2B0EA96EA69CA69EA680A85035
:102310000301CCBDF28CCCBFF28E836F0A0EE16F4D
:102320000001CEEC0BF0F2CFCCF3F29CF29EAA6A45
:102330002C0EA96EA69CA69EA680A8500301CCBD1B
:10234000F28CCCBFF28E846F0A0EE16F0001CEECEE
:102350000BF0F2CFCCF3F29CF29EAA6A2D0EA96E7E
:10236000A69CA69EA680A8500301CCBDF28CCCBF33
:10237000F28E856F3D6B3D510308D8A09CD23D5134
:102380000A0DF350CD6BCC6FA40ECC25E96E030E75
:10239000CD21EA6E3D51080DF350640FCE6FF2CFA0
:1023A000CFF3F29CF29EAA6ACEC3A9FFA69CA69E7A
:1023B000A680A850CFBDF28CCFBFF28EEF6E3D51FC
:1023C0000A0DF350CD6BCC6F010ECC25016E000EC3
:1023D000CD21036E0150A40FE96E030E0320EA6EB7
:1023E0003D51080DF350650FCE6FF2CFCFF3F29C45
:1023F000F29EAA6ACEC3A9FFA69CA69EA680A8505C
:10240000CFBDF28CCFBFF28EEF6E3D510A0DF3506F
:10241000CD6BCC6F090ECC25016E000ECD21036E65
:102420000150A40FE96E030E0320EA6E3D51080D22
:10243000F350660FCE6FF2CFCFF3F29CF29EAA6AF2
:10244000CEC3A9FFA69CA69EA680A850CFBDF28CA5
:10245000CFBFF28EEF6E3D510A0DF350CD6BCC6FB6
:10246000030ECC25016E000ECD21036E0150A40F8A
:10247000E96E030E0320EA6E3D51080DF350670F1D
:10248000CE6FF2CFCFF3F29CF29EAA6ACEC3A9FF21
:10249000A69CA69EA680A850CFBDF28CCFBFF28E80
:1024A000EF6E3D510A0DF350CD6BCC6F040ECC2571
:1024B000016E000ECD21036E0150A40FE96E030ED4
:1024C0000320EA6E3D51080DF350680FCE6FF2CF36
:1024D000CFF3F29CF29EAA6ACEC3A9FFA69CA69E49
:1024E000A680A850CFBDF28CCFBFF28EEF6E3D51CB
:1024F0000A0DF350CD6BCC6F050ECC25016E000E8E
:10250000CD21036E0150A40FE96E030E0320EA6E85
:102510003D51080DF350690FCE6FF2CFCFF3F29C0F
:10252000F29EAA6ACEC3A9FFA69CA69EA680A8502A
:10253000CFBDF28CCFBFF28EEF6E3D510A0DF3503E
:10254000CD6BCC6F060ECC25016E000ECD21036E37
:102550000150A40FE96E030E0320EA6E3D51080DF1
:10256000F3506A0FCE6FF2CFCFF3F29CF29EAA6ABD
:10257000CEC3A9FFA69CA69EA680A850CFBDF28C74
:10258000CFBFF28EEF6E3D510A0DF350CD6BCC6F85
:10259000080ECC25016E000ECD21036E0150A40F54
:1025A000E96E030E0320EA6E3D51080DF3506B0FE8
:1025B000CE6FF2CFCFF3F29CF29EAA6ACEC3A9FFF0
:1025C000A69CA69EA680A850CFBDF28CCFBFF28E4F
:1025D000EF6E3D510A0DF350CD6BCC6FA40ECC25A0
:1025E000E96E030ECD21EA6EEF5086080EE33D51F1
:1025F0000A0DF350CD6BCC6FA40ECC25E96E030E03
:10260000CD21EA6EEF5068080DE33D510A0DF350FD
:10261000CD6BCC6FA40ECC25E96E030ECD21EA6EF6
:10262000790EEF6E3D510A0DF350CD6BCC6F090E54
:10263000CC25016E000ECD21036E0150A40FE96E72
:10264000030E0320EA6EEF503B0812E23D510A0DE3
:10265000F350CD6BCC6F090ECC25016E000ECD2151
:10266000036E0150A40FE96E030E0320EA6EEF6AB9
:102670003D510A0DF350CD6BCC6F030ECC25016E8E
:10268000000ECD21036E0150A40FE96E030E03204E
:10269000EA6EEF503B0812E23D510A0DF350CD6B4C
:1026A000CC6F030ECC25016E000ECD21036E0150C0
:1026B000A40FE96E030E0320EA6EEF6A3D510A0D86
:1026C000F350CD6BCC6F040ECC25016E000ECD21E6
:1026D000036E0150A40FE96E030E0320EA6EEF5063
:1026E0003B0812E23D510A0DF350CD6BCC6F040E46
:1026F000CC25016E000ECD21036E0150A40FE96EB2
:10270000030E0320EA6EEF6A3D510A0DF350CD6BC4
:10271000CC6F030ECC25016E000ECD21036E01504F
:10272000A40FE96E030E0320EA6EEF503B0812E29D
:102730003D510A0DF350CD6BCC6F030ECC25016ECD
:10274000000ECD21036E0150A40FE96E030E03208D
:10275000EA6EEF6A3D510A0DF350CD6BCC6F050E5A
:10276000CC25016E000ECD21036E0150A40FE96E41
:10277000030E0320EA6EEF503B0812E23D510A0DB2
:10278000F350CD6BCC6F050ECC25016E000ECD2124
:10279000036E0150A40FE96E030E0320EA6EEF6A88
:1027A0003D510A0DF350CD6BCC6F060ECC25016E5A
:1027B000000ECD21036E0150A40FE96E030E03201D
:1027C000EA6EEF500F0813E23D510A0DF350CD6B46
:1027D000CC6F060ECC25016E000ECD21036E01508C
:1027E000A40FE96E030E0320EA6E040EEF6E3D5156
:1027F0000A0DF350CD6BCC6F070ECC25016E000E89
:10280000CD21036E0150A40FE96E030E0320EA6E82
:10281000EF50640814E33D510A0DF350CD6BCC6FBB
:10282000070ECC25016E000ECD21036E0150A40FC2
:10283000E96E030E0320EA6EEF50090813E33D51E1
:102840000A0DF350CD6BCC6F070ECC25016E000E38
:10285000CD21036E0150A40FE96E030E0320EA6E32
:10286000190EEF6E3D510A0DF350CD6BCC6F080E73
:10287000CC25016E000ECD21036E0150A40FE96E30
:10288000030E0320EA6EEF50060813E23D510A0DD5
:10289000F350CD6BCC6F080ECC25016E000ECD2110
:1028A000036E0150A40FE96E030E0320EA6E060EBC
:1028B000EF6E3D2B60D50001E8EF2BF00301D66BE6
:1028C000D65107080DE3D890D53302E28C9401D09D
:1028D0008C84959495928C8295928C92D62BF0D77D
:1028E0000001000C95968C86D3C3D5F3E7DFD4C3E3
:1028F000D5F3E4DF95968C96000C95968C86D0C324
:10290000D5F3DCDF9584100E006E002EFED700009C
:102910000301D16BD151070815E3958483B402D02C
:10292000D89001D0D880D23395928C82210E006E3F
:10293000002EFED795928C92210E006E002EFED7AF
:10294000D12BE8D795968C96D2C301F00001000CEC
:1029500095968C96210E006E002EFED795928C9245
:102960008E0E0301D36FD46B0001BCDF900E030108
:10297000D36FA40ED46F0001B5DF810E0301D06FB9
:102980000001BBDF01C0CCF30301CC51800B06E09A
:10299000800ED36FD46B0001A5DF03010001EAEFC5
:1029A0002BF0D1C3D8F30301D551D81BD8AF05D034
:1029B000D894D890D1BFD8802FD0D1C3D8F3D4C366
:1029C000D9F3D051D95F06E0D8AF26D0D850010A4C
:1029D000D86E22D0D5C3D9F3D151D95F06E0D8AF94
:1029E0001BD0D850010AD86E17D0D6C3D9F3D25114
:1029F000D95F06E0D8AF10D0D850010AD86E0CD0FD
:102A0000D7C3D9F3D351D95F06E0D8AF05D0D8509A
:102A1000010AD86E01D0D8900001000C006A016A4A
:102A20000301CE51D890CFB1002600320132CFB38E
:102A3000002600320132CFB5002600320132CFB776
:102A4000002600320132CFB9002600320132CFBB5E
:102A5000002600320132CFBD002600320132CFBF46
:102A60000026003201320001000CB9BF03D0B95179
:102A7000090803E3B9BF01D01CD0B96BAA6AA96ADF
:102A8000A86AA69CA69EA684F250006EF29CF29EB6
:102A90000F01550EA76EAA0EA76EA682A6B2FED78C
:102AA000A6940050F2120A0E0301E16F0001CEEC71
:102AB0000BF0BABF03D0BA51090803E3BABF01D083
:102AC0001DD0BA6BAA6A010EA96EA86AA69CA69E22
:102AD000A684F250006EF29CF29E0F01550EA76E76
:102AE000AA0EA76EA682A6B2FED7A6940050F21236
:102AF0000A0E0301E16F0001CEEC0BF0BBBF03D067
:102B0000BB51090803E3BBBF01D01DD0BB6BAA6A50
:102B1000020EA96EA86AA69CA69EA684F250006E1C
:102B2000F29CF29E0F01550EA76EAA0EA76EA6820A
:102B3000A6B2FED7A6940050F2120A0E0301E16F6E
:102B40000001CEEC0BF0BCBF03D0BC51090803E37D
:102B5000BCBF01D01DD0BC6BAA6A030EA96EA86AC7
:102B6000A69CA69EA684F250006EF29CF29E0F01D7
:102B7000550EA76EAA0EA76EA682A6B2FED7A69481
:102B80000050F2120A0E0301E16F0001CEEC0BF0CF
:102B9000C2BF03D0C251090803E3C2BF01D01DD098
:102BA000C26BAA6A040EA96EA86AA69CA69EA684F9
:102BB000F250006EF29CF29E0F01550EA76EAA0E07
:102BC000A76EA682A6B2FED7A6940050F2120A0EF5
:102BD0000301E16F0001CEEC0BF0C3BF03D0C35182
:102BE000090803E3C3BF01D01DD0C36BAA6A050E59
:102BF000A96EA86AA69CA69EA684F250006EF29CBE
:102C0000F29E0F01550EA76EAA0EA76EA682A6B25F
:102C1000FED7A6940050F2120A0E0301E16F0001E4
:102C2000CEEC0BF0C4BF03D0C451090803E3C4BF0A
:102C300001D01DD0C46BAA6A060EA96EA86AA69C14
:102C4000A69EA684F250006EF29CF29E0F01550ED5
:102C5000A76EAA0EA76EA682A6B2FED7A6940050B3
:102C6000F2120A0E0301E16F0001CEEC0BF0C5BFBA
:102C700003D0C551090803E3C5BF01D01DD0C56B02
:102C8000AA6A070EA96EA86AA69CA69EA684F25000
:102C9000006EF29CF29E0F01550EA76EAA0EA76E53
:102CA000A682A6B2FED7A6940050F2120A0E030125
:102CB000E16F0001CEEC0BF003014151860820E2E8
:102CC000860E416FAA6A080EA96E860EA86EA69C93
:102CD000A69EA684F250006EF29CF29E0F01550E45
:102CE000A76EAA0EA76EA682A6B2FED7A694005023
:102CF000F2120A0E0301E16F0001CEEC0BF00301AA
:102D0000505303E14F51060821E2506B030E4F6F01
:102D1000AA6A090EA96E030EA86EA69CA69EA6849A
:102D2000F250006EF29CF29E0F01550EA76EAA0E95
:102D3000A76EA682A6B2FED7A6940050F2120A0E83
:102D40000301E16F0001CEEC0BF003015FBF03D084
:102D50005F51090803E35FBF01D01ED05F6BAA6A11
:102D60000A0EA96EA86AA69CA69EA684F250006EC2
:102D7000F29CF29E0F01550EA76EAA0EA76EA682B8
:102D8000A6B2FED7A6940050F2120A0E0301E16F1C
:102D90000001CEEC0BF0030160BF03D060510908C5
:102DA00003E360BF01D01ED0606BAA6A0B0EA96E50
:102DB000A86AA69CA69EA684F250006EF29CF29E83
:102DC0000F01550EA76EAA0EA76EA682A6B2FED759
:102DD000A6940050F2120A0E0301E16F0001CEEC3E
:102DE0000BF0030161BF03D06151090803E361BF28
:102DF00001D01ED0616BAA6A0C0EA96EA86AA69CAF
:102E0000A69EA684F250006EF29CF29E0F01550E13
:102E1000A76EAA0EA76EA682A6B2FED7A6940050F1
:102E2000F2120A0E0301E16F0001CEEC0BF0030178
:102E300062BF03D06251090803E362BF01D01ED014
:102E4000626BAA6A0D0EA96EA86AA69CA69EA684AD
:102E5000F250006EF29CF29E0F01550EA76EAA0E64
:102E6000A76EA682A6B2FED7A6940050F2120A0E52
:102E70000301E16F0001CEEC0BF00301D36BD26BC9
:102E8000400ED16F820ED06FFBC2D7F3FAC2D6F3D9
:102E9000F9C2D5F3F8C2D4F3000183DD24E30201C3
:102EA000FB6BFA6B400EF96F820EF86FAA6A140E74
:102EB000A96E0C0EA86EA69CA69EA684F250006E6B
:102EC000F29CF29E0F01550EA76EAA0EA76EA68267
:102ED000A6B2FED7A6940050F2120A0E0301E16FCB
:102EE0000001CEEC0BF00201D0510A081EE2D06BBB
:102EF000AA6A150EA96EA86AA69CA69EA684F25080
:102F0000006EF29CF29E0F01550EA76EAA0EA76EE0
:102F1000A682A6B2FED7A6940050F2120A0E0301B2
:102F2000E16F0001CEEC0BF00201D1510A081EE264
:102F3000D16BAA6A160EA96EA86AA69CA69EA68444
:102F4000F250006EF29CF29E0F01550EA76EAA0E73
:102F5000A76EA682A6B2FED7A6940050F2120A0E61
:102F60000301E16F0001CEEC0BF00201D2515008D9
:102F70001FE2500ED26FAA6A180EA96E500EA86EEC
:102F8000A69CA69EA684F250006EF29CF29E0F01B3
:102F9000550EA76EAA0EA76EA682A6B2FED7A6945D
:102FA0000050F2120A0E0301E16F0001CEEC0BF0AB
:102FB0000301D36BD26B200ED16F820ED06FE3C2B0
:102FC000D7F3E2C2D6F3E1C2D5F3E0C2D4F30001F5
:102FD000E8DC24E30201E36BE26B200EE16F820E7A
:102FE000E06FAA6A190EA96E0A0EA86EA69CA69E8C
:102FF000A684F250006EF29CF29E0F01550EA76E51
:10300000AA0EA76EA682A6B2FED7A6940050F21210
:103010000A0E0301E16F0001CEEC0BF00301E26B3D
:103020002CC3E1F30001E2EC0BF00301D36BD26B94
:10303000D16B800ED06F03C0D7F302C0D6F301C0AE
:10304000D5F300C0D4F30001ACDC20E3010E030192
:103050002C6FAA6A1A0EA96E010EA86EA69CA69ED7
:10306000A684F250006EF29CF29E0F01550EA76EE0
:10307000AA0EA76EA682A6B2FED7A6940050F212A0
:103080000A0E0301E16F0001CEEC0BF00301E26BCD
:103090002DC3E1F30001E2EC0BF00301D36BD26B23
:1030A000200ED16F830ED06F03C0D7F302C0D6F3CA
:1030B00001C0D5F300C0D4F3000173DC20E30F0E90
:1030C00003012D6FAA6A1B0EA96E0F0EA86EA69C97
:1030D000A69EA684F250006EF29CF29E0F01550E41
:1030E000A76EAA0EA76EA682A6B2FED7A69400501F
:1030F000F2120A0E0301E16F0001CEEC0BF00301A6
:10310000D36BD26B480ED16F840ED06FA9C2D7F3A8
:10311000A8C2D6F3A7C2D5F3A6C2D4F3000141DCFE
:1031200043E3CD0E0201A96FCC0EA86F200EA76F4E
:10313000840EA66FAA6A1C0EA96E280EA86EA69C05
:10314000A69EA684F250006EF29CF29E0F01550ED0
:10315000A76EAA0EA76EA682A6B2FED7A6940050AE
:10316000F2120A0E0301E16F0001CEEC0BF0AA6A25
:103170001D0EA96E020EA86EA69CA69EA684F250F5
:10318000006EF29CF29E0F01550EA76EAA0EA76E5E
:10319000A682A6B2FED7A6940050F2120A0E030130
:1031A000E16F0001CEEC0BF00301D36BD26B480E44
:1031B000D16F8B0ED06FB5C2D7F3B4C2D6F3B3C202
:1031C000D5F3B2C2D4F30001D1EC14F042E3020112
:1031D000B56BC00EB46F410EB36F8B0EB26FAA6A9F
:1031E0001E0EA96E380EA86EA69CA69EA684F2504E
:1031F000006EF29CF29E0F01550EA76EAA0EA76EEE
:10320000A682A6B2FED7A6940050F2120A0E0301BF
:10321000E16F0001CEEC0BF0AA6A1F0EA96E180E2A
:10322000A86EA69CA69EA684F250006EF29CF29E0A
:103230000F01550EA76EAA0EA76EA682A6B2FED7E4
:10324000A6940050F2120A0E0301E16F0001CEECC9
:103250000BF00301D36BD26BD16B800ED06FADC27C
:10326000D7F3ACC2D6F3ABC2D5F3AAC2D4F30001F4
:10327000D1EC14F03FE30201AD6BAC6BAB6B7E0E97
:10328000AA6FAA6A200EA96EA86AA69CA69EA6840A
:10329000F250006EF29CF29E0F01550EA76EAA0E20
:1032A000A76EA682A6B2FED7A6940050F2120A0E0E
:1032B0000301E16F0001CEEC0BF0AA6A210EA96EAA
:1032C000050EA86EA69CA69EA684F250006EF29CE7
:1032D000F29E0F01550EA76EAA0EA76EA682A6B289
:1032E000FED7A6940050F2120A0E0301E16F00010E
:1032F000CEEC0BF003015851E9083FE2FF0A03E16D
:10330000575160083AE2586B576BAA6A250EA96EAE
:10331000A86AA69CA69EA684F250006EF29CF29E1D
:103320000F01550EA76EAA0EA76EA682A6B2FED7F3
:10333000A6940050F2120A0E0301E16F0001CEECD8
:103340000BF0AA6A260EA96EA86AA69CA69EA68461
:10335000F250006EF29CF29E0F01550EA76EAA0E5F
:10336000A76EA682A6B2FED7A6940050F2120A0E4D
:103370000301E16F0001CEEC0BF00201D3516408B0
:103380001FE2500ED36FAA6A270EA96E500EA86EC8
:10339000A69CA69EA684F250006EF29CF29E0F019F
:1033A000550EA76EAA0EA76EA682A6B2FED7A69449
:1033B0000050F2120A0E0301E16F0001CEEC0BF097
:1033C00003013351010820E2010E336FAA6A280E6F
:1033D000A96E010EA86EA69CA69EA684F250006E51
:1033E000F29CF29E0F01550EA76EAA0EA76EA68242
:1033F000A6B2FED7A6940050F2120A0E0301E16FA6
:103400000001CEEC0BF0030134511E0820E2020E45
:10341000346FAA6A290EA96E020EA86EA69CA69EFB
:10342000A684F250006EF29CF29E0F01550EA76E1C
:10343000AA0EA76EA682A6B2FED7A6940050F212DC
:103440000A0E0301E16F0001CEEC0BF00301845181
:103450000A080AE182C3CEF3FF0ECF6F00010EEC23
:1034600015F001C082F3030185510A080AE183C304
:10347000CEF3FF0ECF6F00010EEC15F001C083F309
:1034800003010001F2EF2BF00900F55211E0F6CF35
:10349000CDF3F7CFCEF3F8CFCFF3F5509EA8FED7FC
:1034A000AD6ECDC3F6FFCEC3F7FFCFC3F8FFECD7A9
:1034B000000C9EA8FED7AD6E000C100E006E002E04
:1034C000FED70000FF0EF5DF100E006E002EFED7B7
:1034D0000000FF0EEEDF100E006E002EFED7000083
:1034E000FF0EE7DF100E006E002EFED70000000C6E
:1034F0008C9895988C9C959C8C9095908B849494AA
:103500000301326B0001000C0301CD35006E003663
:10351000FC0E001600C001F0C250C30B0010C26EBA
:10352000010EE16F0001CEEC0BF0C282C2B2FED7F9
:10353000C4CFE2F3C3CFE1F30001E2EC0BF003C030
:10354000D1F302C0D0F301C0CFF300C0CEF3CEC39D
:1035500000F0CFC301F0D0C302F0D1C303F0000CE0
:103560000301CD51CF03F3CF01F0F4CF00F0D0032E
:10357000F3500026CE51CF03F3500020026E00011D
:10358000000C0301E551D8B471D0006EE951D8B4F4
:103590006DD0002604E3810E002668E204D07F0E81
:1035A000005E64E363E0E6C3EDF3EA51ED1BE68FF2
:1035B000EA8FE851EC03F4CFEFF3E751EB03F4CFDC
:1035C00003F0F3CFEEF3EC03F350EF27F450EE23C8
:1035D000000E0322E851EB03F350EF27F450EE23E3
:1035E000000E026A03220222E651EC03F350EE279A
:1035F000F4500322000E0222E651EB03F35003269F
:10360000F4500222000E016A0122E851EA03F3504D
:10361000EE27F4500322000E02220122E751EA03B2
:10362000F3500326F4500222000E0122E651EA0371
:10363000F3500226F4500122002A01BE05D0EE37D5
:103640000336023601360006000EEEAF0AD0032A1A
:1036500002220122015005E1025003E1035001E181
:10366000002AEDBF018EEDAF019E04D0006A016A11
:10367000026A036A0001000C0201EF6BEE6BED6B56
:10368000EC6B0301CD6B00013FDF03C0DBF202C036
:10369000DAF201C0D9F200C0D8F2DBC2D4F3DAC248
:1036A000D3F3D9C2D2F3D8C2D1F3B80E0301D86F85
:1036B0009E0ED76F550ED66F850ED56F0001FDECAF
:1036C0000BF003C0DBF202C0DAF201C0D9F200C095
:1036D000D8F2D892DBC2E4F3DAC2E3F3D9C2E2F360
:1036E000D8C2E1F3330E0301E86FE76F6F0EE66FA8
:1036F000820EE56F0001ACEC0CF003C0DBF202C0FF
:10370000DAF201C0D9F200C0D8F20301D46BC00EC6
:10371000D36F7F0ED26F880ED16FDBC2D8F3DAC2BF
:10372000D7F3D9C2D6F3D8C2D5F30001FDEC0BF024
:1037300000C0CDF301C0CEF302C0CFF303C0D0F37D
:10374000D88203C0E4F302C0E3F301C0E2F300C097
:10375000E1F30301E86BE76BE66B7F0EE56F0001B9
:10376000ACEC0CF0B9C2D4F3B8C2D3F3B7C2D2F305
:10377000B6C2D1F303C0D8F302C0D7F301C0D6F369
:1037800000C0D5F3FDEC0BF003C0DFF202C0DEF2A7
:1037900001C0DDF200C0DCF2010E0301CC5D0201CC
:1037A000CF5D02E001E3CF6B0301CE6BCFC2CDF35F
:1037B000D06B040ECF6F0001D3DE0150C60FE96E4F
:1037C000000E0220EA6EDCC2EFFFDDC2ECFFDEC2BB
:1037D000ECFFDFC2ECFF0201CF2BCE6B0301CC511B
:1037E0000201CE5D3FE20301CE6BCEC2CDF3D06BC2
:1037F000040ECF6F0001B4DE02C003F00150C60F0B
:10380000E96E000E0220EA6EEFCF00F0ECCF01F07F
:10381000ECCF02F0ECCF03F0EACFCEF3E9CFCDF35B
:10382000D892EFC2E4F3EEC2E3F3EDC2E2F3ECC2EE
:10383000E1F303C0E8F302C0E7F301C0E6F300C020
:10384000E5F3ACEC0CF0CEC3EAFFCDC3E9FF03C057
:10385000EFF202C0EEF201C0EDF200C0ECF20201A4
:10386000CE2BBCD70301E26BCCC3E1F30001E2EC49
:103870000BF0EFC2D4F3EEC2D3F3EDC2D2F3ECC23D
:10388000D1F303C0D8F302C0D7F301C0D6F300C010
:10389000D5F3FDEC0BF003C0EFF202C0EEF201C075
:1038A000EDF200C0ECF2EFC2E8F3EEC2E7F3EDC2D6
:1038B000E6F3ECC2E5F3EFC2ECF3EEC2EBF3EDC2DC
:1038C000EAF3ECC2E9F35DDE00C0CDF301C0CEF354
:1038D00002C0CFF303C0D0F303C0E8F302C0E7F3A4
:1038E00001C0E6F300C0E5F323C3ECF322C3EBF31E
:1038F00021C3EAF320C3E9F344DE00C0CDF301C0E5
:10390000CEF302C0CFF303C0D0F3EFC2E8F3EEC2B0
:10391000E7F3EDC2E6F3ECC2E5F327C3ECF326C30D
:10392000EBF325C3EAF324C3E9F32BDED892D0C32B
:10393000E4F3CFC3E3F3CEC3E2F3CDC3E1F303C0BB
:10394000E8F302C0E7F301C0E6F300C0E5F3ACEC36
:103950000CF000C0CDF301C0CEF302C0CFF303C022
:10396000D0F3D89203C0E4F302C0E3F301C0E2F362
:1039700000C0E1F32BC3E8F32AC3E7F329C3E6F35E
:1039800028C3E5F3ACEC0CF003C0F3F202C0F2F292
:1039900001C0F1F200C0F0F20301E26BD0C2E1F32A
:1039A0000001E2EC0BF000C0CDF301C0CEF302C089
:1039B000CFF303C0D0F30301E26BD1C2E1F3000106
:1039C000E2EC0BF0D882D0C3E4F3CFC3E3F3CEC371
:1039D000E2F3CDC3E1F303C0E8F302C0E7F301C0B3
:1039E000E6F300C0E5F3ACEC0CF0D892F3C2E4F3DC
:1039F000F2C2E3F3F1C2E2F3F0C2E1F303C0E8F391
:103A000002C0E7F301C0E6F300C0E5F3ACEC0CF054
:103A100003C0F3F202C0F2F201C0F1F200C0F0F212
:103A2000F0C200F0F1C201F0F2C202F0F3C203F002
:103A3000000C030137510508D8A4AFD03BC030F0CB
:103A40003CC031F03DC032F03EC033F03FC034F0F6
:103A500040C035F041C036F042C037F043C038F0C6
:103A600044C039F0332C07D03A6B3A513C5D02E048
:103A70003AC33CF391D03350020808E1010E3A6F8B
:103A80003A513C5D02E03AC33CF386D03350030820
:103A900008E1020E3A6F3A513C5D02E03AC33CF352
:103AA0007BD03350040808E1030E3A6F3A513C5D75
:103AB00002E03AC33CF370D03350050808E1040E2D
:103AC0003A6F3A513C5D02E03AC33CF365D0335063
:103AD000060808E1050E3A6F3A513C5D02E03AC330
:103AE0003CF35AD03350070808E1060E3A6F3A51BA
:103AF0003C5D02E03AC33CF34FD03350080808E184
:103B0000070E3A6F3A513C5D02E03AC33CF344D0B1
:103B10003350090808E1080E3A6F3A513C5D02E063
:103B20003AC33CF339D033500F0801E135D033505C
:103B30001A0808E1140E3A6F3A513C5D02E03AC3AC
:103B40003CF32AD033501B0808E10F0E3A6F3A516C
:103B50003C5D02E03AC33CF31FD033501C0808E13F
:103B6000100E3A6F3A513C5D02E03AC33CF314D078
:103B700033502C0808E1640E3A6F3A513C5D02E084
:103B80003AC33CF309D03350CC0806E1F00E3A6F4B
:103B90003C51F00801E0FF0006D0396B39510908AB
:103BA00002E3392BFBD7000186EF2CF08E0E006E5E
:103BB0000301E151005EE2C302F0E3C301F0028EB3
:103BC000005209E0D890025202E1015204E00232B0
:103BD0000132002EF7D7E2AF05D0011E021E012AE6
:103BE000D8B4022A0001000C1BC3E4F31AC3E3F3A8
:103BF00019C3E2F318C3E1F3D9DF01C064F01BC3BA
:103C0000E4F31AC3E3F319C3E2F318C3E1F3CEDF1D
:103C10000301E26B01C0E1F30001E2EC0BF0D8829A
:103C20001BC3E4F31AC3E3F319C3E2F318C3E1F3CC
:103C300003C0E8F302C0E7F301C0E6F300C0E5F318
:103C4000ACEC0CF000C0E1F301C0E2F302C0E3F31E
:103C500003C0E4F303C0E8F302C0E7F301C0E6F3F6
:103C600000C0E5F30301EC6BEB6B200EEA6F820EF4
:103C7000E96F000186DC03C0E4F302C0E3F301C096
:103C8000E2F300C0E1F392DF01C065F053C366F0D8
:103C9000000154C367F0000155C368F0000156C32A
:103CA00069F00001E7C2E4F3E6C2E3F3E5C2E2F340
:103CB000E4C2E1F37BDF01500A0DF3CF6AF0948296
:103CC0006B6B82B26B2B94806C6B82B06C2B938A83
:103CD0006D6B81AA6D2B938C6E6B81AC6E2B938E6A
:103CE0006F6B81AE6F2BEBC2E4F3EAC2E3F3E9C280
:103CF000E2F3E8C2E1F35ADF01C070F040C371F0B3
:103D000080C372F07BC373F07AC374F079C375F02B
:103D10007CC376F07DC377F07EC378F081C379F001
:103D20007A6B57C37BF0000158C37CF0000102EFAF
:103D30001FF0080E016E050E006E002EFED78B964A
:103D40009496060E006E002EFED70301E5378B9881
:103D5000D8B09488D8A09498948682A6FED7012ED5
:103D600001D002D00001E7D7050E006E002EFED76D
:103D70008B96949600009488060E006E002EFED757
:103D8000060E006E002EFED7948682A6FED7016A2C
:103D9000060E006E002EFED782B801808B96949698
:103DA0008B9894980001000C9488050E006E002EEC
:103DB000FED79486060E006E002EFED78B98949840
:103DC000050E006E002EFED78B969496E2C3E5F3A7
:103DD000B0DFE3C3E5F3ADDFE4C3E5F3AADF949816
:103DE0000000948682A6FED7050E006E002EFED738
:103DF00000D000009488050E006E002EFED71CEF48
:103E00001FF0F2D603013D6B3D51180818E3B00EC8
:103E10000001856F036A03013D51640FE96E000ED6
:103E20000320EA6EEFCFE1F385C0E2F33DC3E3F395
:103E3000E1C3E4F30001B8D703013D2BE5D700014E
:103E4000000C0201C56BC46BC36BC26B020E030195
:103E5000CD6F000184EC1AF003C00BF302C00AF32B
:103E600001C009F300C008F30BC3D4F30AC3D3F3B2
:103E700009C3D2F308C3D1F30301D86BC00ED76FC7
:103E80007F0ED66F880ED56F0001FDEC0BF000C0E1
:103E9000CDF301C0CEF302C0CFF303C0D0F3D8827C
:103EA00003C0E4F302C0E3F301C0E2F300C0E1F3B6
:103EB0000A0E0301E86FD70EE76F230EE66F7A0E46
:103EC000E56F0001ACEC0CF000C0CDF301C0CEF307
:103ED00002C0CFF303C0D0F303C0D4F302C0D3F3C6
:103EE00001C0D2F300C0D1F31FC3D8F31EC3D7F370
:103EF0001DC3D6F31CC3D5F3FDEC0BF003C00FF3C9
:103F000002C00EF301C00DF300C00CF30FC3D3F3D6
:103F10000EC3D2F30DC3D1F30CC3D0F30301D76B9F
:103F2000D66BD56BD46B0001D1EC14F005E3030123
:103F30000F6B0E6B0D6B0C6B010E0301CC5D635DA3
:103F400002E001E3636B6351040DF350036A060F53
:103F5000E96E020E0320EA6E0CC3EFFF0DC3ECFF07
:103F60000EC3ECFF0FC3ECFF632B646B010ECC5D43
:103F7000645D01E038E26451040DF350036A060FFA
:103F8000E96E020E0320EA6EEFCF00F0ECCF01F0F5
:103F9000ECCF02F0ECCF03F0EACFCEF3E9CFCDF3D4
:103FA000D892C5C2E4F3C4C2E3F3C3C2E2F3C2C20F
:103FB000E1F303C0E8F302C0E7F301C0E6F300C099
:103FC000E5F30001ACEC0CF0CEC3EAFFCDC3E9FF92
:103FD00003C0C5F202C0C4F201C0C3F200C0C2F205
:103FE0000301642BC3D7E26BCCC3E1F30001E2EC25
:103FF0000BF0C5C2D4F3C4C2D3F3C3C2D2F3C2C25E
:10400000D1F303C0D8F302C0D7F301C0D6F300C088
:10401000D5F3FDEC0BF003C0C5F202C0C4F201C041
:10402000C3F200C0C2F2C2C200F0C3C201F0C4C2F7
:1040300002F0C5C203F007EF2DF00201CD6BCC6B8F
:10404000CB6BCA6B030E0301CD6F000184EC1AF039
:1040500003C013F302C012F301C011F300C010F348
:1040600013C3D4F312C3D3F311C3D2F310C3D1F3E8
:104070000301D86BC00ED76F7F0ED66F880ED56F39
:104080000001FDEC0BF000C0CDF301C0CEF302C087
:10409000CFF303C0D0F3D88203C0E4F302C0E3F34C
:1040A00001C0E2F300C0E1F30A0E0301E86FD70E8E
:1040B000E76F230EE66F7A0EE56F0001ACEC0CF0B3
:1040C00000C0CDF301C0CEF302C0CFF303C0D0F3E4
:1040D00003C0D4F302C0D3F301C0D2F300C0D1F3C4
:1040E0001FC3D8F31EC3D7F31DC3D6F31CC3D5F328
:1040F000FDEC0BF003C017F302C016F301C015F37B
:1041000000C014F317C3D3F316C3D2F315C3D1F30E
:1041100014C3D0F30301D76BD66BD56BD46B0001FE
:10412000D1EC14F005E30301176B166B156B146BE0
:10413000010E0301CC5D655D02E001E3656B655135
:10414000040DF350036A560FE96E020E0320EA6E67
:1041500014C3EFFF15C3ECFF16C3ECFF17C3ECFF4E
:10416000652B666B010ECC5D665D01E038E2665141
:10417000040DF350036A560FE96E020E0320EA6E37
:10418000EFCF00F0ECCF01F0ECCF02F0ECCF03F07A
:10419000EACFCEF3E9CFCDF3D892CDC2E4F3CCC2CF
:1041A000E3F3CBC2E2F3CAC2E1F303C0E8F302C017
:1041B000E7F301C0E6F300C0E5F30001ACEC0CF05E
:1041C000CEC3EAFFCDC3E9FF03C0CDF202C0CCF2FB
:1041D00001C0CBF200C0CAF20301662BC3D7E26B69
:1041E000CCC3E1F30001E2EC0BF0CDC2D4F3CCC2BE
:1041F000D3F3CBC2D2F3CAC2D1F303C0D8F302C007
:10420000D7F301C0D6F300C0D5F3FDEC0BF003C02B
:10421000CDF202C0CCF201C0CBF200C0CAF2CAC2D9
:1042200000F0CBC201F0CCC202F0CDC203F01BEF14
:104230002DF0D1C3D2F30301D239006E0F0E001658
:1042400000500A0DF3CFD1F3D239006EF00E0016F4
:104250000050003A0F0E00160050D127D1C301F0D4
:104260000001000C03016F512D080AE2FF0A03E16F
:104270006E51E00805E26F6B6E6B0001A3910301C4
:10428000CC2D2AD0938081A009D0938281A206D020
:10429000938481A403D0938681B602D00001A381C8
:1042A0000001A3B115D0A28D03016D5303E16C5140
:1042B000C8080CE26D6B6C6B0001A27FA2AF03D04B
:1042C0008C80959002D08C909590030104D00001D1
:1042D0008C90959003012CD0CC51020829E1938059
:1042E00081A009D0938281A206D0938481A403D0B7
:1042F000938681B602D0150E696F0001A28D03016D
:104300006951130813E36D5303E16C5164080DE226
:104310006D6B6C6B0001A27FA2AF03D08C80959077
:1043200002D08C9095900301692B02D08C909590CF
:104330000001000C306A316A326A336A346A356AC5
:10434000366A376A386A396A3B6A3C6A3D6A3E6A4D
:104350003F6A406A416A426A436A446ABDEF2DF08F
:104360000900F6CFD1F3F7CFD2F3F8CFD3F3F5505E
:104370009EA8FED7AD6ED1C3F6FFD2C3F7FFD3C35D
:10438000F8FF0301D02F01D002D00001E9D70001CE
:10439000000C0301D751016AD65D03E2D6C300F0D9
:1043A0000CD0006A080ED86FD6370036D751005CA3
:1043B000D8B0006E0136D82FF7D70001000C01509D
:1043C000CEC3D6F3640E0301D76F0001E2DF00C055
:1043D000CEF30150300E08E10301CFA30ED0CFB7CA
:1043E0000CD0CFB9200E04D00301CF97CF99CF8145
:1043F000012601509EA8FED7AD6ECEC3D6F30A0E9D
:10440000D76F0001C6DF00C0CEF30150300E08E1C7
:104410000301CFB70BD0CFA109D0CFB9200E000137
:10442000012601509EA8FED7AD6E0301300ECE27A7
:10443000CE519EA8FED7AD6E0001000C0301DD51E8
:10444000B608DD6F036ADEC3E1F3DE8FD890DE339A
:10445000DF33E0330332023201320032DD2FF6D790
:10446000E1AF0BD0001E011E021E031E002AD8B4AD
:10447000012AD8B4022AD8B4032A0001ACEF22F0F2
:10448000006A016A026A036A0301E56BE66BE76B87
:10449000E86BE451E311E211E1112CE0200EE96F29
:1044A000D890DD37DE37DF37E037E537E637E737F7
:1044B000E837E451E85D08E1E351E75D05E1E251E9
:1044C000E65D02E1E151E55D0FE3E151E55FE251B7
:1044D000D8A0E23DE65FE351D8A0E33DE75FE451B9
:1044E000D8A0E43DE85FD8800036013602360336B6
:1044F000E92FD6D7030EEA6EE50EE96E0001000C37
:10450000E9500301D56FD451D76F1CE0D3C3E8F352
:10451000D2C3E7F3D1C3E6F3D0C3E5F3EC6BEB6BA7
:10452000200EEA6F820EE96F0001C1EC1AF003C0A1
:10453000D3F302C0D2F301C0D1F300C0D0F3030122
:10454000D72FE4D7D3C3E0F3D2C3DFF3D1C3DEF375
:10455000D0C3DDF3000172D703C0D3F302C0D2F39E
:1045600001C0D1F300C0D0F30301D3AF0DD0D50704
:10457000D58BD01FD11FD21FD31FD02BD8B4D12B96
:10458000D8B4D22BD8B4D32B3B0EDC6F9A0EDB6F92
:10459000CA0EDA6FD96B0A0ED76FD451D8B4D52BA7
:1045A000D3C3E0F3D2C3DFF3D1C3DEF3D0C3DDF373
:1045B000DCC3E4F3DBC3E3F3DAC3E2F3D9C3E1F32F
:1045C00000015EDF0150EFCFD0F3ECCFD1F3ECCFA1
:1045D000D2F3ECCFD3F3005213E10301D429D75D1A
:1045E000D8A402D000010CD0D5510DE00F0BD75D3F
:1045F00001E03CE2D5BF3AD0D5BD05D0200E31D088
:10460000200E0301D517D5AB0DD0D59BD451D8A41E
:10461000D5070050D56F2D0E9EA8FED7AD6ED55193
:10462000006ED56BD451D75D0BE10050D56F2E0EC7
:104630009EA8FED7AD6ED551006E200ED517000E88
:10464000300ED5AB0ED0D59BD451D8A4D507005091
:10465000D56F2D0E9EA8FED7AD6ED551006ED56BD1
:10466000300E002600509EA8FED7AD6EDCC3E0F3EE
:10467000DBC3DFF3DAC3DEF3D9C3DDF3E46BE36B53
:10468000E26B0A0EE16F0001FBDE03C0DCF302C047
:10469000DBF301C0DAF300C0D9F30301D72F80D7D1
:1046A0000001000CD6C3B9F0D7C3BAF0D8C3BBF031
:1046B000D9C3BCF0DAC3C2F0DBC3C3F0DCC3C4F0BF
:1046C000DDC3C5F0E0C341F30301456B0001A39DC9
:1046D0000301DEA103D00001A38D0301DFC340F37A
:1046E000332D0ED00F0E816F000101EC1FF0640E10
:1046F0000301E16F0001CEEC0BF00A0E0301816FA4
:10470000B9C0B4F0BAC0B5F0BBC0B6F0BCC0B7F029
:10471000BDC0B8F0C2C0BEF0C3C0BFF0C4C0C0F0DE
:10472000C5C0C1F00001000CEACFD8F3E9CFD7F340
:104730000301D139F009D36FD327E20FD46F320FC1
:10474000D66FD1510F0BD427D427D627E90FD56FB9
:10475000D527D527D0390F0BD527D627D537D6372C
:10476000D61FD637D0510F0BD627D337070ED26FAF
:104770000A0ED507D627FDE3D407D527FDE3D307D7
:10478000D427FDE3D207D327FDE3030EEA6ED20E52
:10479000E96E070ED715D79DE926D60EE95CD8B489
:1047A000D78DEF50006E08E1D7BD06D0D7B90CD039
:1047B000D7B702D0200E03D0D787D799300E002666
:1047C00000509EA8FED7AD6EEE50D7ADE6D70001E3
:1047D000000C016A026A006A036A0301D05102E117
:1047E000CF5118E0100ED16FD890CD37CE370036AC
:1047F0000336D051035C02E1CF51005C07E3CF5197
:10480000005ED8A00306D051035ED8800136023680
:10481000D12FEAD7000123EF24F00301CC51030B81
:1048200009E1CCC3D6F3640ED76F0001B2DD0052AC
:1048300018E10301CE6BCCC3CDF3010ED06F900E07
:10484000CF6F0001C6D700C0CDF3030103C0CEF384
:10485000CD5305E1CE53D8A402D0000102D0000E02
:1048600002D0010E0301016E0001000CD2C3D6F389
:104870000A0E0301D76F00018CDD01C0D3F30301E1
:10488000D3510A0DF350D25DD46FD339006EF00EC0
:1048900000160050D411016E0001000CCCC3D2F3FD
:1048A000E5DF01C0D2F3860E0301D36F01C0D4F35C
:1048B000000172EC14F0CDC3D2F3D8DF01C0D2F303
:1048C000880E0301D36F01C0D4F3000172EC14F021
:1048D000CEC3D2F3CBDF01C0D2F38C0E0301D36F72
:1048E00001C0D4F3000172EC14F0CFC3D2F3BEDFE9
:1048F00001C0D2F38A0E0301D36F01C0D4F30001CB
:1049000072EC14F0D0C3D2F3B1DF01C0D2F3840E45
:104910000301D36F01C0D4F3000172EC14F0D1C3D2
:10492000D2F3A4DF01C0D2F3820E0301D36F01C022
:10493000D4F3000172EC14F00301D26B000196DF96
:1049400001C0D2F3800E0301D36F01C0D4F3000184
:1049500072EC14F0DDEF43F003017A510C0802E22F
:104960000A0E7A6F7B511F0802E2100E7B6F79519D
:10497000630802E2120E796F7C51180802E20B0EF6
:104980007C6F7D513B0802E21E0E7D6F7A5102085A
:1049900015E179C3CCF3000140DF015208E00301C7
:1049A0007B511D0802E21D0E7B6F07D00001030141
:1049B0007B511C0802E21C0E7B6F15D07A51070850
:1049C00009E37A51010B05E17B511E0802E21E0E3C
:1049D0007B6F09D07A51010B010805E17B511E085C
:1049E00002E21E0E7B6F00012BEF45F00301D46B3A
:1049F000D56BD3C3D6F30A0ED76F0001CADC01C052
:104A0000D4F30301D4510A0DF3CFD4F3D451D35DC1
:104A1000D56FD5C301F00001000C03016851040DEE
:104A2000F350036ABA0FE96E020E0320EA6EF0C279
:104A3000EFFFF1C2ECFFF2C2ECFFF3C2ECFF682B18
:104A4000685101081EE2686BD882C1C2E4F3C0C29B
:104A5000E3F3BFC2E2F3BEC2E1F3BDC2E8F3BCC2FE
:104A6000E7F3BBC2E6F3BAC2E5F30001ACEC0CF02D
:104A700003C0C9F202C0C8F201C0C7F200C0C6F24A
:104A80000301000180EF25F00301E26B2DC3E1F388
:104A90000001E2EC0BF003C0D4F302C0D3F301C079
:104AA000D2F300C0D1F30301D86BD76BD66B800E65
:104AB000D56F0001FDEC0BF000C0CCF301C0CDF3CD
:104AC00002C0CEF303C0CFF30301E26B31C3E1F3C5
:104AD0000001E2EC0BF0CFC3D3F3CEC3D2F3CDC3CE
:104AE000D1F3CCC3D0F303C0D7F302C0D6F301C0D7
:104AF000D5F300C0D4F3D1EC14F001E203E18DD77B
:104B00000301316B0301E26B41C3E1F30001E2EC0D
:104B10000BF0D89203C3E4F302C3E3F301C3E2F35F
:104B200000C3E1F303C0E8F302C0E7F301C0E6F31A
:104B300000C0E5F3ACEC0CF000C0CCF301C0CDF349
:104B400002C0CEF303C0CFF3D88203C0E4F302C0A7
:104B5000E3F301C0E2F300C0E1F31BC3E8F31AC3BF
:104B6000E7F319C3E6F318C3E5F3ACEC0CF003C0AC
:104B7000EBF202C0EAF201C0E9F200C0E8F2030180
:104B8000D36BD26BD16B7F0ED06FEBC2D7F3EAC27F
:104B9000D6F3E9C2D5F3E8C2D4F30001D1EC14F0A6
:104BA000D8A013D1EBC2D3F3EAC2D2F3E9C2D1F356
:104BB000E8C2D0F30301D76BD66B700ED56F820EAF
:104BC000D46F0001D1EC14F0D8A0FFD0C9C2D3F348
:104BD000C8C2D2F3C7C2D1F3C6C2D0F39A0E030142
:104BE000D76F990ED66F190ED56F7D0ED46F000159
:104BF000D1EC14F0D8A0E9D0E7C2D3F3E6C2D2F3E7
:104C0000E5C2D1F3E4C2D0F30301D76BD66BD56B09
:104C1000810ED46F0001D1EC14F0D8A0D4D00301E0
:104C20002F852D51675DD8A0CCD0676BC9C2D3F357
:104C3000C8C2D2F3C7C2D1F3C6C2D0F3D76BD66B0A
:104C4000800ED56F7E0ED46F0001D1EC14F038E3E6
:104C50000301E26B2CC3E1F30001E2EC0BF0D8920C
:104C600003C0E4F302C0E3F301C0E2F300C0E1F3E8
:104C7000CD0E0301E86FCC0EE76F4C0EE66F7C0E95
:104C8000E56F0001ACEC0CF0D892FBC2E4F3FAC281
:104C9000E3F3F9C2E2F3F8C2E1F303C0E8F302C0C0
:104CA000E7F301C0E6F300C0E5F3ACEC0CF003C0A1
:104CB000FBF202C0FAF201C0F9F200C0F8F280D0B3
:104CC000C9C2D3F3C8C2D2F3C7C2D1F3C6C2D0F3AC
:104CD000CD0E0301D76FCC0ED66FD56F7B0ED46F80
:104CE0000001D1EC14F038E30301E26B2CC3E1F3D3
:104CF0000001E2EC0BF0D88203C0E4F302C0E3F35E
:104D000001C0E2F300C0E1F3CD0E0301E86FCC0E69
:104D1000E76F4C0EE66F7C0EE56F0001ACEC0CF01B
:104D2000D892FBC2E4F3FAC2E3F3F9C2E2F3F8C2A9
:104D3000E1F303C0E8F302C0E7F301C0E6F300C00B
:104D4000E5F3ACEC0CF003C0FBF202C0FAF201C0D8
:104D5000F9F200C0F8F234D00301E26B2CC3E1F3A6
:104D60000001E2EC0BF0D88203C0E4F302C0E3F3ED
:104D700001C0E2F300C0E1F30301E86BE76BE66B0F
:104D80007E0EE56F0001ACEC0CF0D892FBC2E4F3B0
:104D9000FAC2E3F3F9C2E2F3F8C2E1F303C0E8F3C5
:104DA00002C0E7F301C0E6F300C0E5F3ACEC0CF0A1
:104DB00003C0FBF202C0FAF201C0F9F200C0F8F23F
:104DC000030103D0000103012F95EBC2D3F3EAC224
:104DD000D2F3E9C2D1F3E8C2D0F39A0E0301D76F40
:104DE000990ED66FD56F7D0ED46F0001D1EC14F003
:104DF00008E3FFC2FBF2FEC2FAF2FDC2F9F2FCC206
:104E0000F8F2FBC2D3F3FAC2D2F3F9C2D1F3F8C27B
:104E1000D0F30301D76BD66BD56B7F0ED46F000137
:104E2000D1EC14F006E30201FB6BFA6BF96B7F0E19
:104E3000F86FEBC2D3F3EAC2D2F3E9C2D1F3E8C20E
:104E4000D0F30301D76BD66BD56BD46B0001D1ECDB
:104E500014F006E30201EB6BEA6BE96BE86B00010F
:104E6000EBC2E8F3EAC2E7F3E9C2E6F3E8C2E5F32E
:104E7000FBC2ECF3FAC2EBF3F9C2EAF3F8C2E9F3CE
:104E8000C1EC1AF003C0F7F202C0F6F201C0F5F26D
:104E900000C0F4F20301E26B41C3E1F30001E2EC74
:104EA0000BF003C0D3F302C0D2F301C0D1F300C0B2
:104EB000D0F3F7C2D7F3F6C2D6F3F5C2D5F3F4C2F6
:104EC000D4F3D1EC14F00FE30301E26B41C3E1F33F
:104ED0000001E2EC0BF003C0F7F202C0F6F201C0F1
:104EE000F5F200C0F4F2F7C2D3F3F6C2D2F3F5C282
:104EF000D1F3F4C2D0F30301D76BD66BD56BD46B6F
:104F00000001D1EC14F005E30201F76BF66BF56BD1
:104F1000F46B0301E26B41C3E1F30001E2EC0BF03F
:104F2000F7C2D4F3F6C2D3F3F5C2D2F3F4C2D1F38D
:104F300003C0D8F302C0D7F301C0D6F300C0D5F345
:104F4000FDEC0BF003C007F302C006F301C005F34C
:104F500000C004F307C3E8F306C3E7F305C3E6F3B1
:104F600004C3E5F3E3C2ECF3E2C2EBF3E1C2EAF31C
:104F7000E0C2E9F3C1EC1AF003C0E7F202C0E6F2C6
:104F800001C0E5F200C0E4F2E7C2D4F3E6C2D3F315
:104F9000E5C2D2F3E4C2D1F30A0E0301D86FD70EF3
:104FA000D76F230ED66F770ED56F0001FDEC0BF097
:104FB00003C0E4F302C0E3F301C0E2F300C0E1F395
:104FC000D6EC1DF002C0ABF001C0AAF0E3C2D4F3EE
:104FD000E2C2D3F3E1C2D2F3E0C2D1F30A0E03017D
:104FE000D86FD70ED76F230ED66F770ED56F00010F
:104FF000FDEC0BF003C0E4F302C0E3F301C0E2F305
:1050000000C0E1F3D6EC1DF002C0ADF001C0ACF081
:10501000010E0301326F0001000CF86AF1949F90B9
:105020009F8AD08E078EEA6AE96AB886080EAF6E4C
:10503000020EB06EA60EAC6E900EAB6E466A476A5C
:10504000486A626B636B846B856B866B9F919F93E1
:105050009F959F979F999F9B9F9D9F9FA091A09396
:10506000A095A097A099A09BA09DA09FA191A1937E
:10507000A195A197A199A19BA19DA19FA291A29366
:10508000A295A297A299A29BA29DA29FA391A3934E
:10509000A395A397A399A39BA56BA46BA76BA66BE2
:1050A000A96BA86BAB6BAA6BAD6BAC6BAF6BAE6B4C
:1050B000B16BB06BB36BB26B9A0E0201A96F990E14
:1050C000A86F0D0EA76F860EA66FAD6BAC6BAB6BAA
:1050D0007E0EAA6FB16BB06BAF6BAE6BB56BB46B82
:1050E000480EB36F850EB26FB96B300EB86F540EA9
:1050F000B76F8B0EB66FC56BC46BC36BC26BC96BDE
:10510000C86BC76BC66BCD6BCC6BCB6BCA6BCE6BF6
:10511000CF6BD06BD16B140ED26FD36BD46BD56BBE
:10512000D66BD76BDB6BDA6BD96BD86BE36BE26B4F
:10513000200EE16F820EE06FE76BE66BE56BE46BD0
:10514000EB6BEA6BE96BE86BEF6BEE6BED6BEC6BAB
:10515000F36BF26BF16BF06BF76BF66BF56BF46B5B
:10516000FB6BFA6B480EF96F830EF86FFF6BFE6BEB
:10517000200EFD6F830EFC6F0301036B026B016B4E
:105180007F0E006F076B066B056B046B0B6B0A6B76
:10519000096B086B0F6B0E6B0D6B0C6B136B126B4B
:1051A000116B106B176B166B156B146B1B6B1A6BFB
:1051B000196B186B4A0E1F6F880E1E6F280E1D6F1D
:1051C000750E1C6FE00E236F2D0E226F100E216FD7
:1051D000750E206FFF0E276F210E266F150E256F9F
:1051E000800E246F820E2B6F120E2A6FF40E296F21
:1051F000860E286F2C6B2D6B2E6B0001A39DA39F39
:1052000003012F912F932F952F972F99306B316B8F
:10521000326B010E336F020E346F356B010E366F39
:10522000376B386B396B3A6B3B6BF00E3C6F3D6BF9
:105230003E6B3F6B406B416B010E426F436F446BA3
:10524000456B466B486B476B4A6B496B4C6B4B6BC2
:105250004E6B4D6B506B4F6B526B516B546B536B72
:10526000566B556B586B576B5A6B596B636B646B12
:10527000656B666B676B686B696B6B6B6A6B6D6B91
:105280006C6B6F6B6E6B716B706B120E726F090EC5
:10529000736F0D0E746F756B766B776B786B796BC4
:1052A0007A6B7B6B7C6B7D6B7E6B7F6B806B816BBA
:1052B000826B836B846B856BC150C00B0F09C16E11
:1052C000070EB46E2A6A2B6A0001876B030E886F83
:1052D000896F060E8A6F010E8B6F040E8C6F060E9F
:1052E0008D6F020E8E6F050E8F6F906B030E916F98
:1052F000050E926F936B030E946F040E956F966B71
:10530000020E976F050E986F996B030E9A6F060E3B
:105310009B6F010E9C6F040E9D6F060E9E6FB46B0B
:10532000B56BB66BB76BB86BB96BBA6BBB6BBC6B61
:10533000BD6BBE6BBF6BC06BC16BC26BC36BC46B11
:10534000C56BC66BC76BC86BC96BCA6BCB6BCC6BC1
:10535000CD6BCE6BCF6BD06BD16BD26BD36BD46B71
:10536000D56BD66BD76BD86BD96BDA6BDB6BDC6B21
:10537000DD6BDE6BDF6BE06BE16BE26BE36BE46BD1
:10538000E56BE66BE76BE86BE96BEA6BEB6BEC6B81
:10539000ED6BEE6BEF6BF06BF16BF26BF36BF46B31
:1053A000F56BF66BF76BF86BF96BFA6BFB6BFC6BE1
:1053B000FD6BFE6BFF6B0101006B016B026B036BFE
:1053C000046B056B066B076B086B096B0A6B0B6B49
:1053D0000C6B0D6B0E6B0F6B106B116B126B136BF9
:1053E000146B156B166B176B186B196B1A6B1B6BA9
:1053F0001C6B1D6B1E6B1F6B206B216B226B236B59
:10540000246B256B266B276B286B296B2A6B2B6B08
:105410002C6B2D6B2E6B2F6B306B316B326B336BB8
:10542000346B356B366B376B386B396B3A6B3B6B68
:105430003C6B3D6B3E6B3F6B406B416B426B436B18
:10544000446B456B466B476B486B496B4A6B4B6BC8
:105450004C6B4D6B4E6B4F6B506B516B526B536B78
:10546000546B556B566B576B586B596B5A6B5B6B28
:105470005C6B5D6B5E6B5F6B606B616B626B636BD8
:10548000646B656B666B676B686B696B6A6B6B6B88
:105490006C6B6D6B6E6B6F6B706B716B726B736B38
:1054A000746B756B766B776B786B796B7A6B7B6BE8
:1054B0007C6B7D6B7E6B7F6B806B816B826B836B98
:1054C000846B856B866B876B886B896B8A6B8B6B48
:1054D0008C6B8D6B8E6B8F6B906B916B926B936BF8
:1054E000946B956B966B976B986B996B9A6B9B6BA8
:1054F0009C6B9D6B9E6B9F6BA06BA16BA26BA36B58
:10550000A46BA56BA66BA76BA86BA96BAA6BAB6B07
:10551000AC6BAD6BAE6BAF6BB06BB16BB26BB36BB7
:10552000B46BB56BB66BB76BB86BB96BBA6BBB6B67
:10553000BC6BBD6BBE6BBF6BC06BC16BC26BC36B17
:10554000C46BC56BC66BC76BC86BC96BCA6BCB6BC7
:10555000CC6BCD6BCE6BCF6BD06BD16BD26BD36B77
:10556000D46BD56BD66BD76BD86BD96BDA6BDB6B27
:10557000DC6BDD6BDE6BDF6BE06BE16BE26BE36BD7
:10558000E46BE56BE66BE76BE86BE96BEA6BEB6B87
:10559000EC6BED6BEE6BEF6BF06BF16BF26BF36B37
:1055A000F46BF56BF66BF76BF86BF96BFA6BFB6BE7
:1055B000FC6BFD6BFE6BFF6B0201006B016B026B02
:1055C000036B046B056B066B076B086B096B0A6B4F
:1055D0000B6B0C6B0D6B0E6B0F6B106B116B126BFF
:1055E000136B146B156B166B176B186B196B1A6BAF
:1055F0001B6B1C6B1D6B1E6B1F6B206B216B226B5F
:10560000236B246B256B266B276B286B296B2A6B0E
:105610002B6B2C6B2D6B2E6B2F6B306B316B326BBE
:10562000336B346B356B366B376B386B396B3A6B6E
:105630003B6B3C6B3D6B3E6B3F6B406B416B426B1E
:10564000436B446B456B466B476B486B496B4A6BCE
:105650004B6B4C6B4D6B4E6B4F6B506B516B526B7E
:10566000536B546B556B566B576B586B596B5A6B2E
:105670005B6B5C6B5D6B5E6B5F6B606B616B626BDE
:10568000636B646B656B666B676B686B696B6A6B8E
:105690006B6B6C6B6D6B6E6B6F6B706B716B726B3E
:1056A000736B746B756B766B776B786B796B7A6BEE
:1056B0007B6B7C6B7D6B7E6B7F6B806B816B826B9E
:1056C000836B846B856B866B876B886B896B8A6B4E
:1056D0008B6B8C6B8D6B8E6B8F6B906B916B926BFE
:1056E000936B946B956B966B976B986B996B9A6BAE
:1056F0009B6B9C6B9D6B9E6B9F6BA06BA16BA26B5E
:10570000A36BA46BA56BBA6BBB6BBC6BBD6BBE6BA9
:10571000BF6BC06BC16B03015B6B5C6B5D6B5E6BE6
:105720005F6B606B616B626B190E866F100E876F1B
:10573000160E886F180E896F170E8A6F1C0E8B6FEE
:10574000140E8C6F2E0E8D6F8E6B8F6B906B916B1A
:10575000926B936B946B220E956F240E966F120EC4
:10576000976F210E986F200E996F260E9A6F130E69
:105770009B6F110E9C6F9D6B9E6B9F6BA06BA16BC3
:10578000A26BA36B0001866B86510F080AE3036AC4
:105790008651640FE96E000E0320EA6EEF6A862BD5
:1057A000F3D7C80ED56EF28A850ECD6E9D80C1509E
:1057B000C00B0B09C16EC050C00B0209C06EC08E79
:1057C000C280F19E9D8AD180C00EF212E8EF0DF0EA
:1057D000A8EF14F0010E0301E16F0001CEEC0BF015
:1057E00035EF15F0030134513C0DF3CF35F3B20E14
:1057F000F66E040EF76E000EF86E000144EC1AF01F
:105800005DEC1AF0C20EF66E040EF76E000EF86E26
:1058100044EC1AF05DEC1AF0060E0301CC6FFA0EA0
:10582000E16F0001CEEC0BF00301CC2FF8D7CA0ECC
:10583000F66E040EF76E000EF86E000144EC1AF0DE
:105840005DEC1AF078EC1AF0010E0301336F3D6B3A
:105850000201D25103013D5D10E2D2C2CCF300013E
:105860003CEC1BF003C01BF302C01AF301C019F398
:1058700000C018F303013D2BEBD7938081B043D0D8
:10588000938281B240D0938481B43DD0938681B617
:105890003AD0AA6A250EA96EA86AA69CA69EA684DE
:1058A000F250006EF29CF29E0F01550EA76EAA0EEA
:1058B000A76EA682A6B2FED7A6940050F212140ECE
:1058C0000301E16F0001CEEC0BF0AA6A260EA96E6F
:1058D000A86AA69CA69EA684F250006EF29CF29E38
:1058E0000F01550EA76EAA0EA76EA682A6B2FED70E
:1058F000A6940050F212140E0301E16F0001CEECE9
:105900000BF0FF000301000119EF1DF001EC1FF087
:10591000010E0301E16F0001CEEC0BF00400A0A525
:1059200002D0A0AB05D0B40E0301356F04D0000146
:105930003C0E0301356F0001A1B52BD00301D36BE1
:10594000D26B700ED16F840ED06F1BC3D7F31AC306
:10595000D6F319C3D5F318C3D4F30001D1EC14F076
:1059600003E38C8A959A15D01BC3D3F31AC3D2F3E1
:1059700019C3D1F318C3D0F30301D76BD66B5C0EF8
:10598000D56F840ED46F0001D1EC14F002E38C9A31
:10599000959A948082B012D0A96BA86B0301326BE8
:1059A0007151020806E303E17051570802E3000158
:1059B000A0910001A099A96BA86B09D0A089A95357
:1059C00003E1A851020803E2A099A0819F9F03016F
:1059D0004A51180803E22F814A6B496B4C5304E18A
:1059E0004B511308D8B09AD0D2C2CCF300013CEC92
:1059F0001BF003C01BF302C01AF301C019F300C06F
:105A000018F30A0E0301CC6F000121EF1FF003C051
:105A1000E4F302C0E3F301C0E2F300C0E1F3D6EC2B
:105A20001DF002C054F301C053F30A0E0301CC6F02
:105A300000011DEF20F003C0E4F302C0E3F301C056
:105A4000E2F300C0E1F3D6EC1DF002C056F301C052
:105A500055F3870E0301D06F00017DEC14F001C0F7
:105A6000CCF301C0D1F319EC21F001C074F3890E1D
:105A70000301D06F00017DEC14F001C0CCF301C034
:105A8000D1F319EC21F001C073F38D0E0301D06F37
:105A900000017DEC14F001C0CCF301C0D1F319EC8E
:105AA00021F001C072F38B0E0301D06F00017DEC79
:105AB00014F001C0CCF301C0D1F319EC21F001C006
:105AC00078F3850E0301D06F00017DEC14F001C066
:105AD000CCF301C0D1F319EC21F001C075F3830EB2
