:040000002FEF08F0E6
:08000800046ED8CF05F0E0CF33
:1000100006F00001E9CF0CF0EACF07F0E1CF08F0DD
:10002000E2CF09F0D9CF0AF0DACF0BF0F3CF12F01C
:10003000F4CF13F0FACF14F000C00EF001C00FF0AF
:1000400002C010F003C011F09DA02AEF00F09EB096
:100050008EEF01F00EC000F00FC001F010C002F0F2
:1000600011C003F00CC0E9FF07C0EAFF078E08C00B
:10007000E1FF09C0E2FF0AC0D9FF0BC0DAFF12C0DE
:10008000F3FF13C0F4FF14C0FAFF045006C0E0FFF2
:1000900005C0D8FF10001F0E956EFF0E936E838C67
:1000A0000000838E000081CF6FF0839E0D0E006EE6
:1000B000002EFED7000E936E6FC001F0000C1F0ED5
:1000C000956E000E936E839AE6DF01C06FF001BE5D
:1000D000FBD76DA1839A6DB1838A0000839C0000D9
:1000E000839E6EC081FF0000838E00D0839E0D0E24
:1000F000006E002EFED7000C6B6B6AC017F06953C0
:1001000003E1010E696F00D06A5322E06A2D06D028
:10011000800E6B6F010E695D6B271AD06A51020861
:1001200006E1400E6B6F010E695D6B2711D06A51BD
:10013000030806E1140E6B6F010E695D6B2708D092
:100140006A51040805E1540E6B6F010E695D6B275F
:100150006B5180096C6F6D6B6E6FB1DF000C695174
:10016000016A685D03E268C000F00CD0006A080E06
:100170006A6F683700366951005CD8B0006E01368E
:100180006A2FF7D7000CEA6A690EE96EEF500EE0AD
:10019000010E016E006A002EFED7012EFBD74A0E1B
:1001A000006E002EFED700D0EF2EF2D7000C685163
:1001B0000C0A05E0060A0BE0020A1CE020D06D6B79
:1001C000010E6E6F7CDF020E696FDDDF1ED0172A15
:1001D0001750000803E31750040806E3010E696F87
:1001E00017C06AF089DF05D0176A010E696F6A6F60
:1001F00083DF0BD06D6B100E6E6F61DF06D0010ECA
:100200006D6F68C06EF05BDF00D0000C200E63A93C
:10021000300E646F62C000F062AF07D0001E002A8B
:1002200000C062F02D0E646F638F015062C068F0F1
:10023000640E696F94DF00C062F0300E0124656FB8
:1002400062C068F00A0E696F8ADF300E0024676FA3
:10025000300E0124666F64C000F063A702D063AF64
:10026000639563B90BD063AF22D063B520D000C0D3
:1002700065F063B31CD000C066F019D0300E655D28
:1002800016E100C065F0200E646F63A704D063958B
:10029000638363AF6393300E665D09E100C066F06F
:1002A000200E656F63A7F7D7639363AF639163A570
:1002B00003D064C068F07BDF63A303D065C068F03F
:1002C00076DF63A103D066C068F071DF67C068F0B5
:1002D0006EDF000C62516319800B656F62AF02D054
:1002E000621F622B63AF02D0631F632B6351016AED
:1002F000625D03E262C000F00CD0006A080E646F19
:10030000623700366351005CD8B0006E0136642F4E
:10031000F7D765AF02D0011E012A000CCF0ECF6EB9
:100320004C0ECE6E222A22501408D8A4CCD0226AB9
:10033000242C2CD0415213E1425211E143520FE1DF
:1003400044520DE1246A205207E1010E286EF29C0E
:10035000F29EF2BEFDD702D0010E236E17D04406E6
:1003600044BE01D013D0090E446E430643BE01D0F3
:100370000DD0050E436E420642BE01D007D0090ED5
:10038000426E410641BE01D001D0416A232C2BD0E0
:10039000899A929A45520EE146520CE147520AE17F
:1003A000485208E1236A010E296EF29CF29EF2BEC9
:1003B000FDD719D08B809490480648BE01D013D049
:1003C000090E486E470647BE01D00DD0050E476E98
:1003D000460646BE01D007D0090E466E450645BE0C
:1003E00001D001D0456A1F50020835E16D6B0C0E3B
:1003F0006E6F65DE080E696F040E6A6F7DDE41C0A8
:1004000062F01F0E636F02DF42C062F01F0E636F67
:10041000FDDE3A0E686FCBDE43C062F01F0E636FE5
:10042000F5DE44C062F01F0E636FF0DE18C062F0AC
:10043000020E636F4FDF005006E0140E696F010E6D
:100440006A6F5ADE04D0010E696F6A6F55DE6D6BFC
:100450000F0E6E6F34DE1F50030835E16D6B0C0E0E
:100460006E6F2DDE080E696F040E6A6F45DE45C0A3
:1004700062F01F0E636FCADE46C062F01F0E636F2C
:10048000C5DE3A0E686F93DE47C062F01F0E636FE1
:10049000BDDE48C062F01F0E636FB8DE18C062F0A8
:1004A000020E636F17DF005006E0140E696F010E35
:1004B0006A6F22DE04D0010E696F6A6F1DDE6D6BFC
:1004C0000F0E6E6FFCDD9E902AEF00F02D204D6523
:1004D0006E75202D202020203E3E000053454C45C7
:1004E0004343494F4E204445204349434C4F00006D
:1004F00020534F4C49444F530000204C495155491B
:10050000444F530050524F4345534F200000534F28
:100510004C49444F53004C49515549444F530000F6
:10052000542E204553544552494C495A4143494F52
:100530004E0050524F4345534F20534F4C49444F68
:1005400053005449454D504F2044452053454341A5
:10055000444F000050524F4345534F204C49515592
:1005600049444F5300004445535052455355524956
:100570005A414E444F0044455350524553555249F9
:100580005A4143494F4E0000454E2052414D504183
:1005900000004553544552494C495A414E444F007E
:1005A000534543414E444F0043414C454E54414E08
:1005B000444F000043414D4152410000494E4943E0
:1005C0004941522050524F4752414D410000212194
:1005D0002050415241444120204445202121000027
:1005E000212120454D455247454E43494120212177
:1005F00000004155544F434C415645203535204C61
:100600004954524F532E00004155544F4D415449C7
:10061000434100004A5020494E474C4F42414C0054
:100620005245462E204A5041442035352E0054690B
:10063000656D706F2064652052616D7061004D6959
:100640006E75746F733A2569000050524F434553DD
:100650004F0046494E414C495A41444F00001F0E3D
:10066000956E000E936E839E839C839A166AF2BEEB
:10067000168EF29E0F0E696F86DD16BEF28E536ADD
:100680005350020815E3166AF2BE168EF29E6D6B89
:10069000380E6E6F14DD16BEF28E166AF2BE168E1E
:1006A000F29E050E696F6FDD16BEF28E532AE8D7F3
:1006B000166AF2BE168EF29E6D6B0C0E6E6FFFDC2C
:1006C00016BEF28E166AF2BE168EF29E6D6B060E86
:1006D0006E6FF5DC16BEF28E166AF2BE168EF29EB4
:1006E0006D6B010E6E6FEBDC16BEF28E166AF2BEFB
:1006F000168EF29E6D6B020E6E6FE1DC16BEF28EF0
:10070000176A99EF08F00900F55212E0F6CF54F09D
:10071000F7CF55F0166AF2BE168EF29EF5CF68F04E
:1007200046DD16BEF28E54C0F6FF55C0F7FFEBD77C
:10073000000C0900F6CF54F0F7CF55F0166AF2BE60
:10074000168EF29EF5CF68F032DD16BEF28E54C0E2
:10075000F6FF55C0F7FF532EECD79BEF09F0166A52
:10076000F2BE168EF29E6D6B0C0E6E6FA8DC16BE7E
:10077000F28E166AF2BE168EF29E6D6B010E6E6FD1
:100780009EDC16BEF28E166AF2BE168EF29E070E22
:10079000696F010E6A6FB0DC16BEF28ECC0EF66E7B
:1007A000040EF76EB0DF5350010A0CE0030A69E053
:1007B000010AD8B4F4D0070AD8B47AD1010AD8B45F
:1007C000D1D120D3166AF2BE168EF29E020E696F48
:1007D0006A6F92DC16BEF28EDC0EF66E040EF76EB9
:1007E00092DF166AF2BE168EF29E050E696F030E38
:1007F0006A6F82DC16BEF28E202C0CD0166AF2BE16
:10080000168EF29E050E696F030E6A6F75DC16BEBA
:10081000F28E0BD0166AF2BE168EF29E050E696F2E
:10082000040E6A6F69DC16BEF28E166AF2BE168E70
:10083000F29E010E6D6F7E0E6E6F41DC16BEF28E63
:10084000166AF2BE168EF29E060E696F030E6A6F6E
:1008500053DC16BEF28EF00EF66E040EF76E53DF0A
:10086000166AF2BE168EF29E060E696F040E6A6F4D
:1008700043DC16BEF28EFA0EF66E040EF76E43DF00
:10088000C2D2010E1E6E166AF2BE168EF29E010EC6
:10089000696F6A6F31DC16BEF28E166AF2BE168E72
:1008A000F29E3C0E686F83DC16BEF28E166AF2BEB4
:1008B000168EF29E3C0E686F7ADC16BEF28E166AB9
:1008C000F2BE168EF29E030E696F020E6A6F14DC82
:1008D00016BEF28E040EF66E050EF76E14DF202C97
:1008E00006D00E0EF66E050EF76E0DDF05D0160E55
:1008F000F66E050EF76E07DF166AF2BE168EF29ED2
:10090000020E696F030E6A6F7CEC00F016BEF28E69
:10091000200EF66E050EF76EF6DE166AF2BE168E25
:10092000F29E080E696F040E6A6F7CEC00F016BE32
:10093000F28E166AF2BE168EF29E41C062F01F0E53
:10094000636F64DC16BEF28E166AF2BE168EF29EDD
:1009500042C062F01F0E636F59DC16BEF28E166A3B
:10096000F2BE168EF29E3A0E686F21DC16BEF28E33
:10097000166AF2BE168EF29E43C062F01F0E636FBF
:1009800045DC16BEF28E166AF2BE168EF29E44C08A
:1009900062F01F0E636F3ADC16BEF28E34D2050E83
:1009A0001E6E166AF2BE168EF29E010E696F6A6F97
:1009B0007CEC00F016BEF28E166AF2BE168EF29E27
:1009C0003C0E686FD7EC00F016BEF28E166AF2BECF
:1009D000168EF29E3C0E686FD7EC00F016BEF28EBB
:1009E000166AF2BE168EF29E030E696F020E6A6FD1
:1009F0007CEC00F016BEF28E320EF66E050EF76E2F
:100A000082DE166AF2BE168EF29E030E696F6A6F60
:100A10007CEC00F016BEF28E420EF66E050EF76EFE
:100A200072DE166AF2BE168EF29E080E696F040E12
:100A30006A6F7CEC00F016BEF28E166AF2BE168E5D
:100A4000F29E45C062F01F0E636F06EC01F016BE09
:100A5000F28E166AF2BE168EF29E46C062F01F0E2D
:100A6000636F06EC01F016BEF28E166AF2BE168EA9
:100A7000F29E3A0E686FD7EC00F016BEF28E166A40
:100A8000F2BE168EF29E47C062F01F0E636F06EC38
:100A900001F016BEF28E166AF2BE168EF29E48C0A5
:100AA00062F01F0E636F06EC01F016BEF28EABD142
:100AB000166AF2BE168EF29E010E696F6A6F7CECAA
:100AC00000F016BEF28E166AF2BE168EF29E3C0E34
:100AD000686FD7EC00F016BEF28E166AF2BE168E64
:100AE000F29E3C0E686FD7EC00F016BEF28E166ACE
:100AF000F2BE168EF29E030E696F020E6A6F7CECD8
:100B000000F016BEF28E540EF66E050EF76EFBDD8B
:100B1000166AF2BE168EF29E030E696F6A6F7CEC47
:100B200000F016BEF28E282C06D0660EF66E050E6C
:100B3000F76EE9DD05D0760EF66E050EF76EE3DD95
:100B4000166AF2BE168EF29E070E696F040E6A6F69
:100B50007CEC00F016BEF28E880EF66E050EF76E77
:100B6000D2DD51D1166AF2BE168EF29E010E696F69
:100B70006A6F7CEC00F016BEF28E166AF2BE168E1C
:100B8000F29E3C0E686FD7EC00F016BEF28E166A2D
:100B9000F2BE168EF29E3C0E686FD7EC00F016BEC9
:100BA000F28E166AF2BE168EF29E130E696F010E59
:100BB0006A6F7CEC00F016BEF28E166AF2BE168EDC
:100BC000F29E200E686FD7EC00F016BEF28E166A09
:100BD000F2BE168EF29E200E686FD7EC00F016BEA5
:100BE000F28E1D52D8B48BD024521DE0166AF2BE8C
:100BF000168EF29E6D6B010E6E6F5FEC00F016BEEE
:100C0000F28E166AF2BE168EF29E050E696F020E05
:100C10006A6F7CEC00F016BEF28E920EF66E050E38
:100C2000F76E71DD4CD023521DE0166AF2BE168EAF
:100C3000F29E6D6B010E6E6F5FEC00F016BEF28ED1
:100C4000166AF2BE168EF29E080E696F020E6A6F69
:100C50007CEC00F016BEF28EA00EF66E050EF76E5E
:100C600052DD2DD0166AF2BE168EF29E6D6B010E0D
:100C70006E6F5FEC00F016BEF28E166AF2BE168E34
:100C8000F29E060E696F020E6A6F7CEC00F016BED3
:100C9000F28EA80EF66E050EF76E35DD166AF2BE00
:100CA000168EF29E080E696F030E6A6F7CEC00F0E0
:100CB00016BEF28EB40EF66E050EF76E24DD166AC1
:100CC000F2BE168EF29E010E696F6A6F7CEC00F028
:100CD00016BEF28E166AF2BE168EF29E3C0E686F3B
:100CE000D7EC00F016BEF28E166AF2BE168EF29E99
:100CF0003C0E686FD7EC00F016BEF28E82D0166AFA
:100D0000F2BE168EF29E030E696F020E6A6F7CECC5
:100D100000F016BEF28EBC0EF66E050EF76EF3DC1A
:100D2000166AF2BE168EF29E0A0E696F030E6A6F85
:100D30007CEC00F016BEF28E166AF2BE168EF29EA3
:100D40004F0E686FD7EC00F016BEF28E166AF2BE38
:100D5000168EF29E4E0E686FD7EC00F016BEF28E25
:100D6000166AF2BE168EF29E0A0E696F040E6A6F44
:100D70007CEC00F016BEF28E166AF2BE168EF29E63
:100D80004F0E686FD7EC00F016BEF28E166AF2BEF8
:100D9000168EF29E460E686FD7EC00F016BEF28EED
:100DA000166AF2BE168EF29E460E686FD7EC00F001
:100DB00016BEF28E1D2C0DD0166AF2BE168EF29E55
:100DC000080E696F030E6A6F7CEC00F016BEF28E9F
:100DD0000CD0166AF2BE168EF29E080E696F040ED3
:100DE0006A6F7CEC00F016BEF28E166AF2BE168EAA
:100DF000F29E010E6D6F7E0E6E6F5FEC00F016BE00
:100E0000F28E01D000D0000C8B8E949E8B8094903B
:100E10003E6A1D6A296A246A236A010E496E4A6E77
:100E2000286A186A1B6E1C6E1D6A1E6A1F6E216A74
:100E3000899A929AF29CF29EF2BEFDD7166AF2BE91
:100E4000168EF29E6D6B0C0E6E6F5FEC00F016BE90
:100E5000F28E166AF2BE168EF29E6D6B010E6E6FEA
:100E60005FEC00F016BEF28E166AF2BE168EF29E8F
:100E7000030E696F020E6A6F7CEC00F016BEF28EF4
:100E8000CE0EF66E050EF76E3EDC166AF2BE168EBC
:100E9000F29E030E696F6A6F7CEC00F016BEF28E54
:100EA000E00EF66E050EF76E2EDC928280B20DD04B
:100EB000928080A005D08B8494948B8C949C04D0D9
:100EC0008B9494948B9C949CF0D7F2CF53F0F29E29
:100ED000A96AA69CA69EA680A85053BEF28E416E1B
:100EE000166AF2BE168EF29E190E696FC3EC00F000
:100EF00016BEF28EF2CF53F0F29E010EA96EA69CA2
:100F0000A69EA680A85053BEF28E426E166AF2BE0E
:100F1000168EF29E190E696FC3EC00F016BEF28EAB
:100F2000F2CF53F0F29E020EA96EA69CA69EA6805A
:100F3000A85053BEF28E436E166AF2BE168EF29E13
:100F4000190E696FC3EC00F016BEF28EF2CF53F0AB
:100F5000F29E030EA96EA69CA69EA680A85053BE24
:100F6000F28E446E166AF2BE168EF29E190E696FEC
:100F7000C3EC00F016BEF28EF2CF53F0F29E040ED8
:100F8000A96EA69CA69EA680A85053BEF28E456E62
:100F9000166AF2BE168EF29E190E696FC3EC00F04F
:100FA00016BEF28EF2CF53F0F29E050EA96EA69CED
:100FB000A69EA680A85053BEF28E466E166AF2BE5A
:100FC000168EF29E190E696FC3EC00F016BEF28EFB
:100FD000F2CF53F0F29E060EA96EA69CA69EA680A6
:100FE000A85053BEF28E476E166AF2BE168EF29E5F
:100FF000190E696FC3EC00F016BEF28EF2CF53F0FB
:10100000F29E070EA96EA69CA69EA680A85053BE6F
:10101000F28E486E166AF2BE168EF29E190E696F37
:10102000C3EC00F016BEF28E1FC053F0AFEC03F01D
:10103000166AF2BE168EF29E010E696F6A6F7CEC24
:1010400000F016BEF28E166AF2BE168EF29E6D6B20
:101050000F0E6E6F5FEC00F016BEF28E000CF86A99
:10106000D09E078EEA6AE96A186A196A010E1B6E39
:101070001C6E1D6A1E6A1F6E206E216A226A236A18
:10108000246A256A266A276A286A296A3E6A3F6AAC
:10109000406A496E4A6E4C6A4B6A4E6A4D6AC1504C
:1010A000C00B0F09C16E070EB46E050E2A6E2B6AB7
:1010B0002C6A2D6A2E6A2F6A306A316A326A080EEB
:1010C000336E050E346E080E356E090E366E0B0E3D
:1010D000376E0C0E386E080E396E090E3A6E0B0E16
:1010E0003B6E0C0E3C6E080E3D6E010E416E426A68
:1010F000436A446A456E466A476A486A010E516E01
:10110000946A8B6A000E936E1F0E926E000E946EA0
:101110001F0E956E946A8B6A8B9E949EC290C150EE
:10112000C00B0F09C16E030E006E002EFED72FEF0D
:1011300003F0166AF2BE168EF29E6D6B020E6E6F93
:101140005FEC00F016BEF28E166AF2BE168EF29EAC
:101150006D6B010E6E6F5FEC00F016BEF28E166ABC
:10116000F2BE168EF29E010E696F6A6F7CEC00F083
:1011700016BEF28EF20EF66E050EF76E83EC03F0DD
:10118000166AF2BE168EF29E060E696F020E6A6F26
:101190007CEC00F016BEF28E080EF66E060EF76EB0
:1011A00083EC03F0166AF2BE168EF29E060E696F8D
:1011B000030E6A6F7CEC00F016BEF28E140EF66E13
:1011C000060EF76E83EC03F0166AF2BE168EF29EE0
:1011D000050E696F040E6A6F7CEC00F016BEF28E8D
:1011E000200EF66E060EF76E83EC03F0F2CF53F08E
:1011F000F29E140EA96EA69CA69EA680A85053BE71
:10120000F28E406E040E536E166AF2BE168EF29E79
:10121000FA0E696FC3EC00F016BEF28E532EF4D7AF
:10122000958483A495D0958083A092D0166AF2BE4F
:10123000168EF29E0C0E686FD7EC00F016BEF28E82
:10124000040E536E166AF2BE168EF29EFA0E696F87
:10125000C3EC00F016BEF28E532EF4D7958483A40F
:1012600021D0402A166AF2BE168EF29E280E696FB1
:10127000C3EC00F016BEF28E140EA96E40C0A8FF9B
:10128000A69CA69EA684F250006EF29E0F01550EFB
:10129000A76EAA0EA76EA682A6B2FED7A69400508D
:1012A000F2120001958683A621D04006166AF2BE8E
:1012B000168EF29E280E696FC3EC00F016BEF28EF9
:1012C000140EA96E40C0A8FFA69CA69EA684F2504C
:1012D000006EF29E0F01550EA76EAA0EA76EA68293
:1012E000A6B2FED7A6940050F2120001166AF2BE12
:1012F000168EF29E030E696F010E6A6F7CEC00F091
:1013000016BEF28E2E0EF66E060EF76E83EC03F00E
:10131000166AF2BE168EF29E030E696F6A6F7CEC3F
:1013200000F016BEF28E3E0EF66E060EF76E080E3A
:10133000536E99EF03F0166AF2BE168EF29E40C00D
:1013400062F01F0E636F06EC01F016BEF28E86D7B8
:10135000196A1950090813E3928280B202D054DD51
:1013600002D08B9E949E166AF2BE168EF29E640E7A
:10137000696FC3EC00F016BEF28E192AEAD7F2CFDD
:1013800053F0F29EA96AA69CA69EA680A85053BEC2
:10139000F28E416E166AF2BE168EF29E190E696FBB
:1013A000C3EC00F016BEF28EF2CF53F0F29E010EA7
:1013B000A96EA69CA69EA680A85053BEF28E426E31
:1013C000166AF2BE168EF29E190E696FC3EC00F01B
:1013D00016BEF28EF2CF53F0F29E020EA96EA69CBC
:1013E000A69EA680A85053BEF28E436E166AF2BE29
:1013F000168EF29E190E696FC3EC00F016BEF28EC7
:10140000F2CF53F0F29E030EA96EA69CA69EA68074
:10141000A85053BEF28E446E166AF2BE168EF29E2D
:10142000190E696FC3EC00F016BEF28EF2CF53F0C6
:10143000F29E040EA96EA69CA69EA680A85053BE3E
:10144000F28E456E166AF2BE168EF29E190E696F06
:10145000C3EC00F016BEF28EF2CF53F0F29E050EF2
:10146000A96EA69CA69EA680A85053BEF28E466E7C
:10147000166AF2BE168EF29E190E696FC3EC00F06A
:1014800016BEF28EF2CF53F0F29E060EA96EA69C07
:10149000A69EA680A85053BEF28E476E166AF2BE74
:1014A000168EF29E190E696FC3EC00F016BEF28E16
:1014B000F2CF53F0F29E070EA96EA69CA69EA680C0
:1014C000A85053BEF28E486E166AF2BE168EF29E79
:1014D000190E696FC3EC00F016BEF28E899A929ACB
:1014E0008B9C949C166AF2BE168EF29E6D6B010E5A
:1014F0006E6F5FEC00F016BEF28E526AD890183014
:10150000010F1F6E1FC053F0AFEC03F0166AF2BE5E
:10151000168EF29E010E696F6A6F7CEC00F016BEAB
:10152000F28E166AF2BE168EF29E6D6B0F0E6E6F05
:101530005FEC00F016BEF28E850ECD6E9D80CF0E54
:10154000CF6E370ECE6E958083A02DD1166AF2BE77
:10155000168EF29E500E696FC3EC00F016BEF28E2E
:101560001C2C4ED01850050802E1070E186E1850BA
:10157000030804E1205202E1050E186E182A18BE75
:1015800005D01850090802E2090E186ED8901830DC
:10159000010F1F6E166AF2BE168EF29E18C062F020
:1015A000020E636F6AEC01F016BEF28E00500DE081
:1015B000166AF2BE168EF29E140E696F010E6A6FE5
:1015C0007CEC00F016BEF28E1AD01FC053F0AFECC8
:1015D00003F0166AF2BE168EF29E010E696F6A6FF4
:1015E0007CEC00F016BEF28E166AF2BE168EF29EEB
:1015F0006D6B0F0E6E6F5FEC00F016BEF28ED3D0E7
:101600001F2C1DD0010E1C6E186E536EAFEC03F034
:10161000166AF2BE168EF29E140E696F010E6A6F84
:101620007CEC00F016BEF28E166AF2BE168EF29EAA
:101630006D6B0F0E6E6F5FEC00F016BEF28E1F50DA
:10164000020844E11E2A1E50040820E2010E1C6E0E
:10165000030E186E020E536EAFEC03F0166AF2BE64
:10166000168EF29E140E696F010E6A6F7CEC00F00C
:1016700016BEF28E166AF2BE168EF29E6D6B0F0EBD
:101680006E6F5FEC00F016BEF28E20D0036A1E5023
:10169000340FE96E000E0320EA6EEFCF53F0166AA6
:1016A000F2BE168EF29E53C069F0040E6A6F7CEC97
:1016B00000F016BEF28E166AF2BE168EF29E6D6BAA
:1016C0000F0E6E6F5FEC00F016BEF28E1F50030817
:1016D00044E11E2A1E50080820E2010E1C6E050E71
:1016E000186E030E536EAFEC03F0166AF2BE168E40
:1016F000F29E140E696F010E6A6F7CEC00F016BE4C
:10170000F28E166AF2BE168EF29E6D6B0F0E6E6F23
:101710005FEC00F016BEF28E20D0036A1E50340F2C
:10172000E96E000E0320EA6EEFCF53F0166AF2BEA8
:10173000168EF29E53C069F0040E6A6F7CEC00F0C6
:1017400016BEF28E166AF2BE168EF29E6D6B0F0EEC
:101750006E6F5FEC00F016BEF28E1F50050823E19D
:10176000212C02D0010E1D6E010E1C6E090E186E8A
:10177000050E536EAFEC03F0166AF2BE168EF29EA3
:10178000140E696F010E6A6F7CEC00F016BEF28ECB
:10179000166AF2BE168EF29E6D6B0F0E6E6F5FECC8
:1017A00000F016BEF28E958283A224D1166AF2BE94
:1017B000168EF29E500E696FC3EC00F016BEF28ECC
:1017C0001C2C4BD01850060802E1040E186E18505D
:1017D000080804E1202C02D0060E186E180618BE68
:1017E00001D001D0186AD8901830010F1F6E166A08
:1017F000F2BE168EF29E18C062F0020E636F6AECA3
:1018000001F016BEF28E00501CE01FC053F0AFEC8A
:1018100003F0166AF2BE168EF29E140E696F010E68
:101820006A6F7CEC00F016BEF28E166AF2BE168E5F
:10183000F29E6D6B0F0E6E6F5FEC00F016BEF28EB7
:101840000BD0166AF2BE168EF29E010E696F6A6F99
:101850007CEC00F016BEF28ECDD01F2C1CD0010EF9
:101860001C6E186A536EAFEC03F0166AF2BE168E49
:10187000F29E010E696F6A6F7CEC00F016BEF28E6C
:10188000166AF2BE168EF29E6D6B0F0E6E6F5FECD7
:1018900000F016BEF28E1F50020841E11E061E52D5
:1018A0001EE1010E1C6E020E186E536EAFEC03F0BB
:1018B000166AF2BE168EF29E010E696F6A6F7CEC9C
:1018C00000F016BEF28E166AF2BE168EF29E6D6B98
:1018D0000F0E6E6F5FEC00F016BEF28E20D0036A22
:1018E0001E50340FE96E000E0320EA6EEFCF53F066
:1018F000166AF2BE168EF29E53C069F0040E6A6F2D
:101900007CEC00F016BEF28E166AF2BE168EF29EC7
:101910006D6B0F0E6E6F5FEC00F016BEF28E1F50F7
:10192000030843E11E061E5004081FE1010E1C6E51
:10193000040E186E030E536EAFEC03F0166AF2BE7F
:10194000168EF29E010E696F6A6F7CEC00F016BE77
:10195000F28E166AF2BE168EF29E6D6B0F0E6E6FD1
:101960005FEC00F016BEF28E20D0036A1E50340FDA
:10197000E96E000E0320EA6EEFCF53F0166AF2BE56
:10198000168EF29E53C069F0040E6A6F7CEC00F074
:1019900016BEF28E166AF2BE168EF29E6D6B0F0E9A
:1019A0006E6F5FEC00F016BEF28E1F50050822E14C
:1019B000212C02D0010E1D6E010E1C6E080E186E39
:1019C000050E536EAFEC03F0166AF2BE168EF29E51
:1019D000010E696F6A6F7CEC00F016BEF28E166A1B
:1019E000F2BE168EF29E6D6B0F0E6E6F5FEC00F006
:1019F00016BEF28E958683A6DAD21D52D8A4D7D20F
:101A0000166AF2BE168EF29E500E696FC3EC00F09D
:101A100016BEF28E1F2C02D11C2CA8D0202C53D025
:101A2000030E1C6E166AF2BE168EF29E6D6B0C0EC5
:101A30006E6F5FEC00F016BEF28E166AF2BE168E66
:101A4000F29E050E696F030E6A6F7CEC00F016BE05
:101A5000F28E166AF2BE168EF29E010E6D6F7E0E2B
:101A60006E6F5FEC00F016BEF28E166AF2BE168E36
:101A7000F29E050E696F040E6A6F7CEC00F016BED4
:101A8000F28E166AF2BE168EF29E200E686FD7ECAA
:101A900000F016BEF28E166AF2BE168EF29E050E8B
:101AA000696F030E6A6F7CEC00F016BEF28E166A48
:101AB000F2BE168EF29E6D6B0F0E6E6F5FEC00F035
:101AC00016BEF28E52D0040E1C6E166AF2BE168E30
:101AD000F29E6D6B0C0E6E6F5FEC00F016BEF28E18
:101AE000166AF2BE168EF29E050E696F040E6A6FBC
:101AF0007CEC00F016BEF28E166AF2BE168EF29ED6
:101B0000010E6D6F7E0E6E6F5FEC00F016BEF28EF2
:101B1000166AF2BE168EF29E050E696F030E6A6F8C
:101B20007CEC00F016BEF28E166AF2BE168EF29EA5
:101B3000200E686FD7EC00F016BEF28E166AF2BE69
:101B4000168EF29E050E696F040E6A6F7CEC00F033
:101B500016BEF28E166AF2BE168EF29E6D6B0F0ED8
:101B60006E6F5FEC00F016BEF28E58D01C2A1C502F
:101B7000040803E2040E1C6E51D0206A166AF2BEFD
:101B8000168EF29E6D6B0C0E6E6F5FEC00F016BE43
:101B9000F28E166AF2BE168EF29E050E696F040E64
:101BA0006A6F7CEC00F016BEF28E166AF2BE168EDC
:101BB000F29E010E6D6F7E0E6E6F5FEC00F016BE32
:101BC000F28E166AF2BE168EF29E050E696F030E35
:101BD0006A6F7CEC00F016BEF28E166AF2BE168EAC
:101BE000F29E200E686FD7EC00F016BEF28E166AD9
:101BF000F2BE168EF29E050E696F040E6A6F7CECC3
:101C000000F016BEF28E166AF2BE168EF29E6D6B54
:101C10000F0E6E6F5FEC00F016BEF28E1F500208C2
:101C2000D8A487D0166AF2BE168EF29E6D6B0C0E8B
:101C30006E6F5FEC00F016BEF28E036A1E50340F1A
:101C4000E96E000E0320EA6EEFCF53F0166AF2BE83
:101C5000168EF29E53C069F0040E6A6F7CEC00F0A1
:101C600016BEF28E1C2C01D02CD0010E1E5C036A15
:101C7000410FE96E000E0320EA6EEF06010E1E5CB6
:101C8000036A410FE96E000E0320EA6EEFBE01D039
:101C900018D01E5003080BE1010E1E5C036A410FB1
:101CA000E96E000E0320EA6E050EEF6E0AD0010EFB
:101CB0001E5C036A410FE96E000E0320EA6E090EF6
:101CC000EF6E040E1C6E010E1E5C036A410FE96E7E
:101CD000000E0320EA6EEFCF53F0166AF2BE168EA6
:101CE000F29E53C062F01F0E636F06EC01F016BE49
:101CF000F28E036A1E50340FE96E000E0320EA6E66
:101D0000EFCF53F0166AF2BE168EF29E53C069F002
:101D1000040E6A6F7CEC00F016BEF28E166AF2BEFC
:101D2000168EF29E6D6B0F0E6E6F5FEC00F016BE9E
:101D3000F28E1F500308D8A487D0166AF2BE168E02
:101D4000F29E6D6B0C0E6E6F5FEC00F016BEF28EA5
:101D5000036A1E50340FE96E000E0320EA6EEFCFC7
:101D600053F0166AF2BE168EF29E53C069F0040E4E
:101D70006A6F7CEC00F016BEF28E1C2C01D02CD0C9
:101D8000050E1E5C036A450FE96E000E0320EA6E25
:101D9000EF06050E1E5C036A450FE96E000E032078
:101DA000EA6EEFBE01D018D01E5007080BE1050EF9
:101DB0001E5C036A450FE96E000E0320EA6E050EF5
:101DC000EF6E0AD0050E1E5C036A450FE96E000E29
:101DD0000320EA6E090EEF6E040E1C6E050E1E5CEB
:101DE000036A450FE96E000E0320EA6EEFCF53F051
:101DF000166AF2BE168EF29E53C062F01F0E636F1B
:101E000006EC01F016BEF28E036A1E50340FE96E26
:101E1000000E0320EA6EEFCF53F0166AF2BE168E64
:101E2000F29E53C069F0040E6A6F7CEC00F016BE9F
:101E3000F28E166AF2BE168EF29E6D6B0F0E6E6FEC
:101E40005FEC00F016BEF28E1F500508D8A4AFD08C
:101E50001C2C55D01D5252E1040E1C6E166AF2BEA7
:101E6000168EF29E6D6B0C0E6E6F5FEC00F016BE60
:101E7000F28E166AF2BE168EF29E080E696F040E7E
:101E80006A6F7CEC00F016BEF28E166AF2BE168EF9
:101E9000F29E010E6D6F7E0E6E6F5FEC00F016BE4F
:101EA000F28E166AF2BE168EF29E080E696F030E4F
:101EB0006A6F7CEC00F016BEF28E166AF2BE168EC9
:101EC000F29E200E686FD7EC00F016BEF28E166AF6
:101ED000F2BE168EF29E080E696F040E6A6F7CECDD
:101EE00000F016BEF28E166AF2BE168EF29E6D6B72
:101EF0000F0E6E6F5FEC00F016BEF28E58D01C2AEB
:101F00001C50040803E2040E1C6E51D0216A166AAC
:101F1000F2BE168EF29E6D6B0C0E6E6F5FEC00F0D3
:101F200016BEF28E166AF2BE168EF29E080E696F0B
:101F3000040E6A6F7CEC00F016BEF28E166AF2BEDA
:101F4000168EF29E010E6D6F7E0E6E6F5FEC00F0CE
:101F500016BEF28E166AF2BE168EF29E080E696FDB
:101F6000030E6A6F7CEC00F016BEF28E166AF2BEAB
:101F7000168EF29E200E686FD7EC00F016BEF28E21
:101F8000166AF2BE168EF29E080E696F040E6A6F14
:101F90007CEC00F016BEF28E166AF2BE168EF29E31
:101FA0006D6B0F0E6E6F5FEC00F016BEF28E9584B7
:101FB00083A4EED2166AF2BE168EF29E500E696FA0
:101FC000C3EC00F016BEF28E1F2C57D01C50040834
:101FD00054E1030E1C6E010E206E166AF2BE168EC0
:101FE000F29E6D6B0C0E6E6F5FEC00F016BEF28E03
:101FF000166AF2BE168EF29E050E696F030E6A6FA8
:102000007CEC00F016BEF28E166AF2BE168EF29EC0
:10201000010E6D6F7E0E6E6F5FEC00F016BEF28EDD
:10202000166AF2BE168EF29E050E696F040E6A6F76
:102030007CEC00F016BEF28E166AF2BE168EF29E90
:10204000200E686FD7EC00F016BEF28E166AF2BE54
:10205000168EF29E050E696F030E6A6F7CEC00F01F
:1020600016BEF28E166AF2BE168EF29E6D6B0F0EC3
:102070006E6F5FEC00F016BEF28E1F500208D8A4FF
:1020800094D01C2C01D091D0166AF2BE168EF29E0E
:102090006D6B0C0E6E6F5FEC00F016BEF28E036A75
:1020A0001E50340FE96E000E0320EA6EEFCF53F09E
:1020B000166AF2BE168EF29E53C069F0040E6A6F65
:1020C0007CEC00F016BEF28E010E1E5C036A410F1E
:1020D000E96E000E0320EA6EEF2A1E50030817E196
:1020E000010E1E5C036A410FE96E000E0320EA6ECA
:1020F000EFBE0CD0EF50050809E2010E1E5C036A2A
:10210000410FE96E000E0320EA6EEF6A16D0010E51
:102110001E5C036A410FE96E000E0320EA6EEFBEFB
:102120000CD0EF50090809E2010E1E5C036A410F52
:10213000E96E000E0320EA6EEF6A040E1C6E010EBB
:102140001E5C036A410FE96E000E0320EA6EEFCFBA
:1021500053F0166AF2BE168EF29E53C062F01F0E46
:10216000636F06EC01F016BEF28E036A1E50340F48
:10217000E96E000E0320EA6EEFCF53F0166AF2BE4E
:10218000168EF29E53C069F0040E6A6F7CEC00F06C
:1021900016BEF28E166AF2BE168EF29E6D6B0F0E92
:1021A0006E6F5FEC00F016BEF28E1F500308D8A4CD
:1021B00094D01C2C01D091D0166AF2BE168EF29EDD
:1021C0006D6B0C0E6E6F5FEC00F016BEF28E036A44
:1021D0001E50340FE96E000E0320EA6EEFCF53F06D
:1021E000166AF2BE168EF29E53C069F0040E6A6F34
:1021F0007CEC00F016BEF28E050E1E5C036A450FE5
:10220000E96E000E0320EA6EEF2A1E50070817E160
:10221000050E1E5C036A450FE96E000E0320EA6E90
:10222000EFBE0CD0EF50050809E2050E1E5C036AF4
:10223000450FE96E000E0320EA6EEF6A16D0050E18
:102240001E5C036A450FE96E000E0320EA6EEFBEC6
:102250000CD0EF50090809E2050E1E5C036A450F19
:10226000E96E000E0320EA6EEF6A040E1C6E050E86
:102270001E5C036A450FE96E000E0320EA6EEFCF85
:1022800053F0166AF2BE168EF29E53C062F01F0E15
:10229000636F06EC01F016BEF28E036A1E50340F17
:1022A000E96E000E0320EA6EEFCF53F0166AF2BE1D
:1022B000168EF29E53C069F0040E6A6F7CEC00F03B
:1022C00016BEF28E166AF2BE168EF29E6D6B0F0E61
:1022D0006E6F5FEC00F016BEF28E1F500508D8A49A
:1022E00057D11C500408D8A453D1030E1C6E010E04
:1022F000216E166AF2BE168EF29E6D6B0C0E6E6F1C
:102300005FEC00F016BEF28E166AF2BE168EF29EDA
:10231000080E696F030E6A6F7CEC00F016BEF28E39
:10232000166AF2BE168EF29E010E6D6F7E0E6E6FF5
:102330005FEC00F016BEF28E166AF2BE168EF29EAA
:10234000080E696F040E6A6F7CEC00F016BEF28E08
:10235000166AF2BE168EF29E200E686FD7EC00F061
:1023600016BEF28E166AF2BE168EF29E080E696FC7
:10237000030E6A6F7CEC00F016BEF28E166AF2BE97
:10238000168EF29E6D6B0F0E6E6F5FEC00F016BE38
:10239000F28EA96A41C0A8FFA69CA69EA684F25010
:1023A000006EF29E0F01550EA76EAA0EA76EA682B2
:1023B000A6B2FED7A6940050F212166AF2BE168E8E
:1023C000F29E190E0001696FC3EC00F016BEF28E8A
:1023D000010EA96E42C0A8FFA69CA69EA684F2503C
:1023E000006EF29E0F01550EA76EAA0EA76EA68272
:1023F000A6B2FED7A6940050F212166AF2BE168E4E
:10240000F29E190E0001696FC3EC00F016BEF28E49
:10241000020EA96E43C0A8FFA69CA69EA684F250F9
:10242000006EF29E0F01550EA76EAA0EA76EA68231
:10243000A6B2FED7A6940050F212166AF2BE168E0D
:10244000F29E190E0001696FC3EC00F016BEF28E09
:10245000030EA96E44C0A8FFA69CA69EA684F250B7
:10246000006EF29E0F01550EA76EAA0EA76EA682F1
:10247000A6B2FED7A6940050F212166AF2BE168ECD
:10248000F29E190E0001696FC3EC00F016BEF28EC9
:10249000040EA96E45C0A8FFA69CA69EA684F25075
:1024A000006EF29E0F01550EA76EAA0EA76EA682B1
:1024B000A6B2FED7A6940050F212166AF2BE168E8D
:1024C000F29E190E0001696FC3EC00F016BEF28E89
:1024D000050EA96E46C0A8FFA69CA69EA684F25033
:1024E000006EF29E0F01550EA76EAA0EA76EA68271
:1024F000A6B2FED7A6940050F212166AF2BE168E4D
:10250000F29E190E0001696FC3EC00F016BEF28E48
:10251000060EA96E47C0A8FFA69CA69EA684F250F0
:10252000006EF29E0F01550EA76EAA0EA76EA68230
:10253000A6B2FED7A6940050F212166AF2BE168E0C
:10254000F29E190E0001696FC3EC00F016BEF28E08
:10255000070EA96E48C0A8FFA69CA69EA684F250AE
:10256000006EF29E0F01550EA76EAA0EA76EA682F0
:10257000A6B2FED7A6940050F212166AF2BE168ECC
:10258000F29E190E0001696FC3EC00F016BEF28EC8
:10259000928080A007D08B8494948B8C949C899A91
:1025A000929A04D08B9494948B9C949C1D520BE033
:1025B000010E3E6E516E928080B004D0235202E133
:1025C000898A929A02D08B9094903E2C5AD04B2AB2
:1025D000D8B44C2A4C50CA0813E2FF0A03E14B500E
:1025E000CE080EE24D2AD8B44E2A4C6A4B6A4E529F
:1025F00003E14D50630802E24E6A4D6A010E276EF8
:10260000512C3ED0928680A63BD0495239E0040E30
:10261000536E166AF2BE168EF29EFA0E696FC3EC06
:1026200000F016BEF28E532EF4D7928680A628D0E4
:10263000495226E0C00EF212516A010E256E246E38
:102640001C6E030E186E020E1F6E536EAFEC03F07D
:10265000166AF2BE168EF29E140E696F010E6A6F34
:102660007CEC00F016BEF28E166AF2BE168EF29E5A
:102670006D6B0F0E6E6F5FEC00F016BEF28E496A46
:1026800004D0F29CF29EF2BEFDD7928280B203D0BB
:1026900004EC07F002D08B9E949E295254E0899A54
:1026A000929A8B8294928B909490166AF2BE168EB8
:1026B000F29E6D6B0C0E6E6F5FEC00F016BEF28E2C
:1026C000166AF2BE168EF29E6D6B010E6E6F5FEC97
:1026D00000F016BEF28E166AF2BE168EF29E070E3D
:1026E000696F020E6A6F7CEC00F016BEF28E4A0E25
:1026F000F66E060EF76E83EC03F0166AF2BE168EC7
:10270000F29E060E696F030E6A6F7CEC00F016BE37
:10271000F28E520EF66E060EF76E83EC03F0928286
:1027200080A20DD0928080A005D08B8494948B8C55
:10273000949C04D08B9494948B9C949CF0D704EC40
:1027400007F08B929492282C7DD0040E1F6E1FC030
:1027500053F0AFEC03F0899A929A3F6A40503F5C85
:10276000D8B06DD0196A19501408D8A066D08B80E3
:102770009490506A50BE03D0505000082AE34F6A2C
:102780004FBE03D04F5000081FE3166AF2BE168EEC
:10279000F29E3E0E696FC3EC00F016BEF28E92827E
:1027A00080B202D004EC07F0928080A007D08B8426
:1027B00094948B8C949C899A929A04D08B94949440
:1027C0008B9C949C4F2ADCD71D5201E13BD0502AB0
:1027D000D1D78B909490506A50BE03D050500108CE
:1027E0002AE34F6A4FBE03D04F5003081FE3166A17
:1027F000F2BE168EF29E3E0E696FC3EC00F016BE5E
:10280000F28E928280B202D004EC07F0928080A017
:1028100007D08B8494948B8C949C899A929A04D040
:102820008B9494948B9C949C4F2ADCD71D5201E18D
:1028300009D0502AD1D7192A96D73F2A8FD7286A8C
:10284000010E296E4A5223E0235221E0010E1C6E34
:10285000050E186E030E1F6E536EAFEC03F0166A72
:10286000F2BE168EF29E140E696F010E6A6F7CEC3A
:1028700000F016BEF28E166AF2BE168EF29E6D6BD8
:102880000F0E6E6F5FEC00F016BEF28E4A6AA3EF79
:042890000AF0030047
:020000040030CA
:0E0000003FC03E1E008781000FC00FE00F4082
:00000001FF
;PIC18F4550
;CRC=937E  CREATED="27-jun-14 16:30"
