:0400000044EF41F098
:080008005DEF00F000000000B4
:100010000000000000000000046ED8CF05F0E0CF23
:1000200006F00001E9CF0CF0EACF07F0E1CF08F0CD
:10003000E2CF09F0D9CF0AF0DACF0BF0F3CF12F00C
:10004000F4CF13F0FACF14F0FBCF15F000C00EF090
:1000500001C00FF002C010F003C011F0F2AA34EF9B
:1000600000F0F2B4DBEF01F09DA03AEF00F09EB09B
:1000700007EF02F00EC000F00FC001F010C002F058
:1000800011C003F00CC0E9FF07C0EAFF078E08C0EB
:10009000E1FF09C0E2FF0AC0D9FF0BC0DAFF12C0BE
:1000A000F3FF13C0F4FF14C0FAFF15C0FBFF0450A8
:1000B00006C0E0FF05C0D8FF1000176ED8CF18F0BB
:1000C000E0CF19F00001E9CF1FF0EACF1AF0E1CF3D
:1000D0001BF0E2CF1CF0D9CF1DF0DACF1EF0F3CF2A
:1000E00025F0F4CF26F0FACF27F0FBCF28F000C0A0
:1000F00021F001C022F002C023F003C024F09DAA29
:1001000085EF00F09EBAA4EF01F021C000F022C0FC
:1001100001F023C002F024C003F01FC0E9FF1AC0A1
:10012000EAFF1A8E1BC0E1FF1CC0E2FF1DC0D9FF11
:100130001EC0DAFF25C0F3FF26C0F4FF27C0FAFF78
:1001400028C0FBFF175019C0E0FF18C0D8FF1000EF
:100150004C49515549444F532041000000000000D4
:100160000000000043415543484F000000000000DC
:100170000000000000000000494E535452554D4508
:100180004E54414C00000000000000004C49515505
:1001900049444F53204200000000000000000000CE
:1001A0004C494252450000000000000000000000E1
:1001B00000000000544553540000000000000000FF
:1001C0000000000000000000484F52412059204626
:1001D000454348410000000000000000434C4156E8
:1001E00045000000000000000000000000000000CA
:1001F0004441544F530041254C752E7478743D2270
:100200002D2D2D2D220041254C752E7478743D2204
:10021000506172616461220041254C752E747874BE
:100220003D22507565727461220041254C752E7413
:1002300078743D225465726D6F737461746F22001F
:1002400041254C752E7478743D22536F627265544B
:10025000220041254C752E7478743D225469656DD9
:10026000706F220041254C752E7478743D225072B7
:100270006573696F6E22000041254C752E74787489
:100280003D22455252204369636C6F220000412594
:100290004C752E7478743D224C6C656E61646F22CF
:1002A000000041254C752E7478743D224C6C656EAF
:1002B000616E646F220041254C752E7478743D2266
:1002C000566163696F22000041254C752E74787465
:1002D0003D2243616C656E22000041254C752E74F1
:1002E00078743D22446573666F6761220000412582
:1002F0004C752E7478743D2246696E616C697A6122
:10030000646F220041254C752E7478743D2253652C
:1003100063616E646F22000041254C752E74787401
:100320003D224573746572696C697A616E646F22EF
:10033000000041254C752E7478743D22456E66721E
:1003400069616E646F2200009EAAFED7AECF5AF399
:1003500003015A51650803E1010E586F466A582D92
:100360000AD0036A46503B0FE96E000E0320EA6E86
:100370005AC3EFFF462A4650090802E2466A586B04
:10038000465210E13B5065080BE13C3C09D03D3C36
:1003900007D0435205E1443C03D0050E596F02D00B
:1003A0000A0E596F5C51140802E18C8095909E9A58
:1003B000000185EF00F0D76AD66A0301932BD8B409
:1003C000942B0001A0AD20D0030171531AE17051AC
:1003D000050817E394517B5D07E303E193517A5DD0
:1003E00003E38C88959802D08C9895989451E908ED
:1003F00007E2FF0A03E193515F0802E2946B936BFB
:1004000002D08C8895980001F2943AEF00F09E0E8D
:10041000CF6E580ECE6E0301682BD8B4692B6A2BB1
:10042000D8B46B2B6C2BD8B46D2B6E2BD8B46F2B30
:10043000938E81AE04D09B2BD8B49C2B02D09C6BA6
:100440009B6B938A81AA04D09D2BD8B49E2B02D09B
:100450009E6B9D6B938481B404D0A72BD8B4A82B3A
:1004600002D0A86BA76B0001A3A305D00301952BB5
:10047000D8B4962B0001A3A904D00301972BD8B4BC
:10048000982B0301542D1ED06F510001AC5D0CE37D
:1004900008E1AB5103016E5DD8A002D0000104D089
:1004A00000018B94949402D08B849494AE510301F8
:1004B0006F5D08E305E10001AD5103016E5D02E3EC
:1004C0006F6B6E6B695304E16851C708D8B0A7D051
:1004D00051A701D0902B0001A1A104D00301802BD2
:1004E000D8B4812B0301532B0001A4AB05D0030129
:1004F0007C2BD8B47D2B0001A4AD05D003017E2B4D
:10050000D8B47F2B0001A0A309D003015751675D28
:10051000D8A002D0000102D0672B06D003015751AA
:10052000675D02E35189676B0001A0A30AD0A0B503
:1005300008D0A52BD8B4A62B0301992BD8B49A2B9D
:1005400000019FAF05D0A0B103D0A72BD8B4A82B32
:10055000A0A903D0A92BD8B4AA2BA4A903D0AF2B50
:10056000D8B4B02B0301696B686B5181722BD8B47E
:10057000732B0001A0A529D0A0BB27D0B1BF05D007
:10058000B151000802E2B10720D0B2BF07D0B2518A
:10059000000804E2B207090EB16F17D0B3BF09D04B
:1005A000B351000806E2B307050EB26F090EB16F32
:1005B0000CD0B4BF0AD0B451000807E2B407090E4A
:1005C000B36F050EB26F090EB16FA0A727D0BBBFE6
:1005D00005D0BB51000802E2BB0720D0BCBF07D04A
:1005E000BC51000804E2BC07090EBB6F17D0BDBFA9
:1005F00009D0BD51000806E2BD07050EBC6F090E0B
:10060000BB6F0CD0BEBF0AD0BE51000807E2BE07C8
:10061000090EBD6F050EBC6F090EBB6F03019E90E6
:1006200000013AEF00F070616765204269656E76FF
:10063000656E69646100626B636D643D300070617A
:10064000676520436C6176650000706167652045D1
:100650006D657267656E63696100626B636D643DB1
:1006600030007061676520436C617665000074300E
:100670002E7478743D22257522007661302E7661C5
:100680006C3D310074302E7478743D2225752575CB
:1006900022007661302E76616C3D320074302E740B
:1006A00078743D2225752575257522007661302EDA
:1006B00076616C3D330074302E7478743D2225755C
:1006C00025752575257522007661302E76616C3D85
:1006D000340074302E7478743D2222007061676596
:1006E00020436C617665436F7272656374610000CC
:1006F0007061676520436C6176654261640070617A
:10070000676520436F6E6669670070616765204D9D
:10071000656E755072696E636970616C000070611E
:10072000676520436C6176650000746974756C6F51
:100730002E7478743D22436C617665204E75657623
:100740006122000070616765204D656E75507269A9
:100750006E636970616C0000746974756C6F2E74DF
:1007600078743D22436C617665204E756576612212
:10077000000070616765204D656E755072696E632B
:100780006970616C000070616765204D656E755021
:1007900072696E636970616C0000746974756C6F66
:1007A0002E7478743D22436C617665204E756576B3
:1007B00061220000646F6576656E74730000746971
:1007C00074756C6F2E7478743D22436C617665206D
:1007D00041637475616C2200646F6576656E747335
:1007E0000000746974756C6F2E7478743D22436CCC
:1007F000617665205465636E69636F220000646FE3
:100800006576656E74730000746974756C6F2E7410
:1008100078743D22496E677265736520436F6E740C
:1008200072617365F16122007061676520436C61DC
:100830007665436F7272656374610000706167650D
:1008400020436C6176654261640070616765204396
:100850006F6E6669670070616765204D656E7550E3
:1008600072696E636970616C000070616765204336
:100870006C6176650000746974756C6F2E747874A1
:100880003D22436C617665204E75657661220000DD
:1008900070616765204D656E755072696E63697031
:1008A000616C0000746974756C6F2E7478743D22ED
:1008B000436C617665204E7565766122000070613B
:1008C0006765204D656E755072696E636970616C05
:1008D000000066656368612E7478743D22543A2581
:1008E000332E3166B0432046656368613A25303265
:1008F000752F253032752F32302530327520486FF4
:1009000072613A20253032753A253032753A2530F9
:10091000327522007061676520436C617665000066
:1009200070616765204369636C6F73007061676510
:1009300020436C61766500007061676520466563E1
:1009400068610000706167652054657374007061B0
:100950006765204369636C6F506572736F6E6100E9
:1009600070616765204E6976656C0000706167652F
:10097000204E6976656C0000706167652046756E73
:1009800063696F6E616D69656E746F007061676534
:100990002046756E63696F6E616D69656E746F0078
:1009A00062632E7069633D25750062642E70696311
:1009B0003D25750062692E7069633D25750062638F
:1009C0002E706963323D2575000062642E70696384
:1009D000323D2575000062692E706963323D2575D0
:1009E0000000746578746F702E7478743D222573DE
:1009F000220062632E7069633D25750062642E706B
:100A000069633D25750062692E7069633D25750037
:100A100062632E706963323D2575000062642E703A
:100A20006963323D2575000062692E706963323D4D
:100A300025750000746578746F702E7478743D228B
:100A40002573220062632E7069633D257500626420
:100A50002E7069633D25750062692E7069633D25BE
:100A6000750062632E706963323D25750000626413
:100A70002E706963323D2575000062692E706963CE
:100A8000323D25750000746578746F702E7478742B
:100A90003D222573220074746974756C6F2E74780E
:100AA000743D2253454C454343494F4E45205355D1
:100AB000204349434C4F22007061676520436C61BD
:100AC0007665000066656368612E7478743D225413
:100AD0003A25332E3166B0432046656368613A2576
:100AE0003032752F253032752F3230253032752057
:100AF000486F72613A20253032753A253032753AA6
:100B000025303275220070616765204369636C6F20
:100B1000506572736F6E6100747365636573742ED4
:100B200070636F3D363535333500746D696E6573AE
:100B3000742E70636F3D3000747365636573742E3B
:100B400070636F3D3000746D696E6573742E7063F1
:100B50006F3D363535333500746D696E6573742EAF
:100B60007478743D222530327522000074736563F9
:100B70006573742E7478743D22253032752200001E
:100B800066656368612E7478743D22543A25332E6D
:100B90003166B0432046656368613A253032752F6F
:100BA000253032752F32302530327520486F726112
:100BB0003A20253032753A253032753A2530327573
:100BC000220070616765204369636C6F50657273C2
:100BD0006F6E6100746D696E7365632E70636F3D37
:100BE0003000747365637365632E70636F3D3635D3
:100BF00035333500746D696E7365632E70636F3DB8
:100C0000363535333500747365637365632E7063F1
:100C10006F3D3000746D696E7365632E7478743D3A
:100C20002225303275220000747365637365632E6C
:100C30007478743D22253032752200006665636841
:100C4000612E7478743D2246656368613A253032BE
:100C5000752F253032752F32302530327520202007
:100C600020486F72613A20253032753A253032754E
:100C7000220070616765204369636C6F5065727311
:100C80006F6E61007473657474656D2E7478743D55
:100C9000222530337522000066656368612E747802
:100CA000743D22543A25332E3166B04320466563A5
:100CB00068613A253032752F253032752F32302554
:100CC00030327520486F72613A20253032753A25EE
:100CD0003032753A253032752200706167652043E5
:100CE00069636C6F506572736F6E610070616765E8
:100CF0002046756E63696F6E616D69656E746F0015
:100D0000746E6976656C2E7478743D22254C75225C
:100D1000000062312E62636F3D3230313600623145
:100D20002E62636F3D3633343838000062302E62F5
:100D3000636F3D323031360062302E62636F3D3674
:100D400033343838000062322E62636F3D32303106
:100D5000360062322E62636F3D363334383800001D
:100D600062342E62636F3D323031360062342E625F
:100D7000636F3D3633343838000062332E62636F60
:100D80003D323031360062332E62636F3D3633348C
:100D90003838000062382E62636F3D3230313600E1
:100DA00062382E62636F3D36333438380000623962
:100DB0002E62636F3D323031360062392E62636FCE
:100DC0003D363334383800006231302E62636F3D77
:100DD0003230313600006231302E62636F3D36337F
:100DE000343838006231322E62636F3D3230313632
:100DF00000006231322E62636F3D36333438380082
:100E00006231362E62636F3D32303136000062311E
:100E1000362E62636F3D3633343838006231372EF8
:100E200062636F3D3230313600006231372E6263CB
:100E30006F3D3633343838006231332E7478743D68
:100E400022414443303A25332E306622000062317D
:100E5000342E7478743D22414443313A25332E3088
:100E6000662200006231352E7478743D2241323A98
:100E700025332E3066202530334C75220000623138
:100E8000382E7478743D2241333A25332E30662053
:100E90002530334C752200006232302E7478743D58
:100EA0002254313A25332E31662200007061676585
:100EB000204D656E755072696E636970616C0000DB
:100EC00070616765204D656E755072696E636970FB
:100ED000616C000074686F72612E7478743D222515
:100EE000303275220000746D696E75746F732E74E4
:100EF00078743D22253032752200746469612E7445
:100F000078743D22253032752200746D65732E741D
:100F100078743D2225303275220074796561722E15
:100F20007478743D2225303275220000666563684E
:100F3000612E7478743D22543A25332E3166B043C5
:100F40002046656368613A253032752F2530327549
:100F50002F32302530327520486F72613A202530AB
:100F600032753A253032753A253032752200636980
:100F7000636C6F2E7478743D224349434C4F20506C
:100F800025303275220074656D702E7478743D22A0
:100F900025752200746573742E7478743D22253093
:100FA00032753A25303275220000747365632E74F1
:100FB00078743D22253032753A2530327522000092
:100FC000646573666F6775652E7478743D22257548
:100FD00022006369636C6F2E7478743D2243494329
:100FE0004C4F20502D2D220074656D702E74787436
:100FF0003D222D2D2200746573742E7478743D2269
:101000002D2D3A2D2D220000747365632E74787493
:101010003D222D2D3A2D2D220000646573666F67E9
:1010200075652E7478743D222D2D22006369636CE2
:101030006F2E7478743D224349434C4F2050253025
:101040003275220074656D702E7478743D2225759A
:101050002200746573742E7478743D2225303275C5
:101060003A25303275220000747365632E747874EB
:101070003D22253032753A253032752200006465F4
:1010800073666F6775652E7478743D22257522002E
:1010900070616765204D656E755072696E63697029
:1010A000616C0000706167652054656D70657261E8
:1010B00074757261000070616765205469656D70B8
:1010C0006F457374000070616765205469656D70C9
:1010D0006F536563000070616765204E6976656CCB
:1010E0000000706167652046756E63696F6E616DA3
:1010F00069656E746F0070616765204D656E75502F
:1011000072696E636970616C000068302E76616C84
:101110003D254C75000068312E76616C3D254C757F
:10112000000068312E76616C3D254C7500006830FA
:101130002E76616C3D254C75000074302E747874E9
:101140003D2221494D5052494D49454E444F21229F
:10115000000066656368612E7478743D2225303224
:10116000752F253032752F253032752200006369C6
:10117000636C6F2E7478743D222530327522000026
:1011800074302E7478743D224369636C6F20254C53
:10119000752200007573756172696F2E7478743DE5
:1011A000222D2D2D2200686F7261254C752E7478CA
:1011B000743D222530324C752E2020253032753A70
:1011C00025303275220054254C752E7478743D22DA
:1011D00025332E3166B0432200005063254C752E16
:1011E0007478743D222530334C756B5061220000B9
:1011F000507063254C752E7478743D222530334C25
:10120000756B5061220070616765204D656E755089
:1012100072696E636970616C00007061676520437C
:101220006C61766500007432662E7478743D2225F8
:10123000752200007433662E7478743D2225732263
:1012400000007432662E7478743D222575220000E9
:101250007433662E7478743D22506572736F6E61BC
:101260006C697A61646F220046756E63696F6E61A6
:101270006D69656E746F2E7434662E7478743D22B9
:101280002050617261646120646520456D657267FC
:10129000656E63696122000046756E63696F6E61F9
:1012A0006D69656E746F2E7435662E7478743D2288
:1012B0002043616E63656C61646F220046756E63E6
:1012C000696F6E616D69656E746F2E7434662E740D
:1012D00078743D22205075657274612041626965A1
:1012E00072746122000046756E63696F6E616D698C
:1012F000656E746F2E7435662E7478743D2220509E
:1013000061757361646F220046756E63696F6E610B
:101310006D69656E746F2E7434662E7478743D2218
:10132000205469656D706F204C6C656E61646F222E
:10133000000046756E63696F6E616D69656E746FEE
:101340002E7435662E7478743D222043616E636579
:101350006C61646F220046756E63696F6E616D69C2
:10136000656E746F2E7434662E7478743D2220542A
:1013700065726D6F737461746F22000046756E63E1
:10138000696F6E616D69656E746F2E7435662E744B
:1013900078743D222043616E63656C61646F220046
:1013A00046756E63696F6E616D69656E746F2E74DC
:1013B00034662E7478743D2220536F6272657465B2
:1013C0006D706572617475726122000046756E639E
:1013D000696F6E616D69656E746F2E7435662E74FB
:1013E00078743D222043616E63656C61646F2200F6
:1013F00046756E63696F6E616D69656E746F2E748C
:1014000034662E7478743D22205469656D706F20A7
:1014100050726F6C6F6E6761646F220046756E6309
:10142000696F6E616D69656E746F2E7435662E74AA
:1014300078743D222043616E63656C61646F2200A5
:1014400046756E63696F6E616D69656E746F2E743B
:1014500034662E7478743D2220536F627265507228
:10146000657369F36E22000046756E63696F6E6185
:101470006D69656E746F2E7435662E7478743D22B6
:101480002043616E63656C61646F220046756E6314
:10149000696F6E616D69656E746F2E7434662E743B
:1014A00078743D22204572726F72204369636C6FBD
:1014B000220046756E63696F6E616D69656E746F4B
:1014C0002E7435662E7478743D222043616E6365F8
:1014D0006C61646F220046756E63696F6E616D6941
:1014E000656E746F2E7434662E7478743D22204EAF
:1014F000696E67756E61220046756E63696F6E6115
:101500006D69656E746F2E7435662E7478743D2225
:10151000204E6976656C2042616A6F220000467534
:101520006E63696F6E616D69656E746F2E7434667B
:101530002E7478743D22204E696E67756E612200AC
:1015400046756E63696F6E616D69656E746F2E743A
:1015500035662E7478743D222043616C656E74612B
:101560006E646F22000046756E63696F6E616D690F
:10157000656E746F2E7434662E7478743D22204E1E
:10158000696E67756E61220046756E63696F6E6184
:101590006D69656E746F2E7435662E7478743D2295
:1015A0002046696E616C697A61646F22000046753D
:1015B0006E63696F6E616D69656E746F2E743466EB
:1015C0002E7478743D22204E696E67756E6122001C
:1015D00046756E63696F6E616D69656E746F2E74AA
:1015E00035662E7478743D2220446573707265737D
:1015F0007572697A616E646F220046756E63696FF9
:101600006E616D69656E746F2E7434662E747874B5
:101610003D22204E696E67756E61220046756E63CD
:10162000696F6E616D69656E746F2E7435662E74A8
:1016300078743D222046696E616C697A61646F221C
:10164000000046756E63696F6E616D69656E746FDB
:101650002E7434662E7478743D22204E696E677540
:101660006E61220046756E63696F6E616D69656EAD
:10167000746F2E7435662E7478743D222053656322
:10168000616E646F220046756E63696F6E616D698D
:10169000656E746F2E7434662E7478743D22204EFD
:1016A000696E67756E61220046756E63696F6E6163
:1016B0006D69656E746F2E7435662E7478743D2274
:1016C00020446573707265737572697A616E646FB8
:1016D000220046756E63696F6E616D69656E746F29
:1016E0002E7434662E7478743D22204E696E6775B0
:1016F0006E61220046756E63696F6E616D69656E1D
:10170000746F2E7435662E7478743D222045737480
:101710006572696C697A616E646F2200616464202D
:1017200031342C302C25312E306600007436662E74
:101730007478743D2225332E3166B04322004675FD
:101740006E63696F6E616D69656E746F2E74376656
:101750002E7478743D222530334C756B5061220015
:1017600046756E63696F6E616D69656E746F2E7418
:101770003132662E7478743D223030306B506122E5
:10178000000046756E63696F6E616D69656E746F9A
:101790002E7439662E7478743D22253033752200FC
:1017A00046756E63696F6E616D69656E746F2E74D8
:1017B0003130662E7478743D222530327522000057
:1017C00046756E63696F6E616D69656E746F2E74B8
:1017D0003133662E7478743D222530327522000034
:1017E00046756E63696F6E616D69656E746F2E7498
:1017F0003131662E7478743D222530327522000016
:1018000046756E63696F6E616D69656E746F2E7477
:101810003136662E7478743D2225303275220000F0
:1018200066656368612E7478743D224665636861FD
:101830003A253032752F253032752F32302530322F
:101840007520202020486F72613A20253032753A89
:10185000253032752200436F6E6669672E743263DD
:101860002E7478743D2250726F706F7263696F6E60
:10187000616C22007433632E7478743D2225322EFD
:1018800030662200436F6E6669672E7432632E7471
:1018900078743D224465726976617469766F2200BE
:1018A0007433632E7478743D222575220000436FD3
:1018B0006E6669672E7432632E7478743D22496EA9
:1018C00074656772616C22007433632E7478743DA2
:1018D000222575220000436F6E6669672E7432639D
:1018E0002E7478743D22546369636C6F22007433E4
:1018F000632E7478743D2225322E30662200436FA9
:101900006E6669672E7432632E7478743D22416A64
:1019100075737465202B22007433632E7478743DC4
:10192000222575220000436F6E6669672E7432634C
:101930002E7478743D22416A75737465202D2200DF
:101940007433632E7478743D222575220000436F32
:101950006E6669672E7432632E7478743D224D650D
:101960006469612200007433632E7478743D22250B
:1019700075220000436F6E6669672E7432632E74A1
:1019800078743D2250756C736F7320507572676167
:1019900022007433632E7478743D22253032752210
:1019A0000000436F6E6669672E7432632E7478741C
:1019B0003D22545472616D70612200007433632EB5
:1019C0007478743D2225303275220000436F6E66B4
:1019D00069672E7432632E7478743D224369636C98
:1019E0006F7322007433632E7478743D2225303572
:1019F0004C752200436F6E6669672E7432632E74D5
:101A000078743D2241746D6F7366657269636122FB
:101A100000007433632E7478743D222530327522B1
:101A2000000070616765204D656E755072696E6368
:101A30006970616C000066656368612E7478743D3E
:101A40002246656368613A253032752F253032753C
:101A50002F32302530327520202020486F72613AB5
:101A600020253032753A253032752200040EEA6E98
:101A7000630EE96EEF500DE0060E016E006A002E57
:101A8000FED7012EFBD77B0E006E002EFED7EF2E69
:101A9000F3D7000C8E0E006E60C401F05FC402F03C
:101AA000036A015209E102C001F0026A080E005EF9
:101AB000015202E1006A08D0D89001BE04D002367B
:101AC00001360006F9D7019E000C04015351D8B429
:101AD000A5D05F6F5751D8B4A1D05F5F05E37F0EEB
:101AE0005F27D8B09BD006D0810E5F5FD8A096D07C
:101AF000D8B494D05FC400F0016A026A036A5E6BD6
:101B000054C45DF45D8F55C45CF456C45BF4190E87
:101B10005F6F5A515B5F0DE2010E5C5F0AE25D5F31
:101B200008E25E5F06E25E2B5D2B5C2B5A515B2761
:101B300028D059515C5F12E2010E5D5F0FE25E5FDB
:101B40000DE25E2B5D2B59515C275A515B2719E33F
:101B50005C2B17E15D2B15E15E2B13D058518009EA
:101B60005D5F0EE2010E5E5F0BE25E2B5851800955
:101B70005D2759515C27E9E35D2BE7E15E2BE5D753
:101B800003805F2F01D00BD0D8905B375C375D3777
:101B90005E37D8900336023601366037BAD760A177
:101BA00006D0D890013202320332603302D00006F0
:101BB00035E060BF1ED0D8905B375C375D375E374D
:101BC0005A515B5F07E2010E5C5F04E25D5F02E277
:101BD0005E5F1AE359515C5F05E2010E5D5F02E250
:101BE0005E5F12E3585180095D5F03E2010E5E5FA4
:101BF0000BE3032A09E1022A07E1012A05E1002A91
:101C00000DE001320232033254C45FF458515F1BBD
:101C10005FAF02D0018E06D0019E04D0006A016A37
:101C2000026A036A0001000C800ED8A202D00401EF
:101C3000641B0401696B6A6B60C468F46451681BBF
:101C40005F51D8B4DFD0676F006E6351D8B4E3D072
:101C5000675FD8B483D03EE364C46DF46D8F65C410
:101C60006CF466C46BF46A6BD8906D336C336B3371
:101C70006A33672FF8D768AF03D06981E0D06991E4
:101C800067916989040EEA6E620EE96EEBD069997C
:101C900068BF0AD067A113D06D336C336B336A33DE
:101CA000002AD8B4C7D00BD06DBF0CD0D8906A37FB
:101CB0006B376C376D370006D8B4BCD0F5D7698D5B
:101CC0006DD0699D60C468F460AF02D06D8FABD0F9
:101CD0006D9FA9D063C467F463C400F05F51675F70
:101CE00060C46DF46D8F61C46CF462C46BF46A6B94
:101CF000D8906D336C336B336A33672FF8D768AF86
:101D000003D069839CD069936791698B040EEA6E56
:101D1000660EE96EA7D0699B68BF0AD067A113D091
:101D20006D336C336B336A33002AD8B483D00BD055
:101D30006DBF0CD0D8906A376B376C376D370006A3
:101D4000D8B478D0F5D7698F29D0699F64C468F476
:101D500064AF02D06D8F67D06D9F65D064C46DF4A1
:101D60006D8F65C46CF466C46BF468AF04D06D9F6E
:101D7000698565D069956A6B6791040EEA6E620E9B
:101D8000E96E70D068BF1CD060C468F467A106D04B
:101D90006D336C336B336A33002A4CE06AAF0BD07F
:101DA0006B2B09E16C2B07E16D2B05E16D336C3377
:101DB0006B33002A3FE069BD84D769BFC6D71CD00A
:101DC000800E6D1B6DAF04D03AD064C468F40AD0A5
:101DD00060C468F46D5306E16C5304E16B5302E197
:101DE000006A21D06DBF08D0D8906A376B376C3746
:101DF0006D37002EF7D71ED068AF02D06D8F13D08D
:101E00006D9F11D063C400F064C46DF465C46CF4BC
:101E100066C46BF408D05FC400F060C46DF461C4A4
:101E20006CF462C46BF46DC401F06CC402F06BC45A
:101E300003F034D0006A016A026A036A2FD06A6B29
:101E40006B1F6C1F6D1F6A1F6A2B05E16B2B03E173
:101E50006C2B01E16D2B69B112D769B354D769B509
:101E600089D7B3D7EF506B2705E36C2B03E16D2BBC
:101E7000D8B46781ED52EF506C2703E36D2BD8B4D3
:101E80006781ED52EF50EFBE01D0800A6D27D8B0C8
:101E9000678169B9FCD669BB3ED774D70001000CD5
:101EA000040165516703F3CF01F0F4CF00F068033C
:101EB000F350002666516703F3500020026E0001C4
:101EC000000CF2CF4AF4F29CF29EAA6AA96AA69C80
:101ED000A69EA680A85004014ABDF28C4ABFF28E8D
:101EE0000001B66F0A0E0401636F0001BFDDF2CF7F
:101EF0004AF4F29CF29EAA6A010EA96EA69CA69EC6
:101F0000A680A85004014ABDF28C4ABFF28E00019F
:101F1000B76F0A0E0401636F0001A8DDF2CF4AF427
:101F2000F29CF29EAA6A020EA96EA69CA69EA680AC
:101F3000A85004014ABDF28C4ABFF28E0001B86F6E
:101F40000A0E0401636F000191DDF2CF4AF4F29CA6
:101F5000F29EAA6A030EA96EA69CA69EA680A85011
:101F600004014ABDF28C4ABFF28E0001B96F0A0E1D
:101F70000401636F00017ADDF2CF4AF4F29CF29E15
:101F8000AA6A040EA96EA69CA69EA680A85004016B
:101F90004ABDF28C4ABFF28E0001BF6F0A0E0401E7
:101FA000636F000163DDF2CF4AF4F29CF29EAA6AED
:101FB000050EA96EA69CA69EA680A85004014ABD47
:101FC000F28C4ABFF28E0001C06F0A0E0401636FEB
:101FD00000014CDDF2CF4AF4F29CF29EAA6A060E92
:101FE000A96EA69CA69EA680A85004014ABDF28CAC
:101FF0004ABFF28E0001C16F0A0E0401636F000137
:1020000035DDF2CF4AF4F29CF29EAA6A070EA96E61
:10201000A69CA69EA680A85004014ABDF28C4ABF89
:10202000F28E0001C26F0A0E0401636F00011EDD13
:10203000F2CF4AF4F29CF29EAA6A080EA96EA69C00
:10204000A69EA680A85004014ABDF28C4ABFF28E1B
:102050000301626F0A0E0401636F000107DDF2CF16
:102060004AF4F29CF29EAA6A090EA96EA69CA69E4C
:10207000A680A85004014ABDF28C4ABFF28E03012B
:10208000716B706F0A0E0401636F0001EFDCF2CF19
:102090004AF4F29CF29EAA6A0A0EA96EA69CA69E1B
:1020A000A680A85004014ABDF28C4ABFF28E0301FB
:1020B000886F0A0E0401636F0001D8DCF2CF4AF486
:1020C000F29CF29EAA6A0B0EA96EA69CA69EA68002
:1020D000A85004014ABDF28C4ABFF28E0301896FF9
:1020E0000A0E0401636F0001C1DCF2CF4AF4F29CD6
:1020F000F29EAA6A0C0EA96EA69CA69EA680A85067
:1021000004014ABDF28C4ABFF28E03018A6F0A0EA7
:102110000401636F0001AADCF2CF4AF4F29CF29E44
:10212000AA6A0D0EA96EA69CA69EA680A8500401C0
:102130004ABDF28C4ABFF28E03018B6F0A0E040176
:10214000636F000193DCF2CF4AF4F29CF29EAA6A1C
:10215000140EA96EA69CA69EA680A85004014ABD96
:10216000F28C4ABFF28E606B5F6F000193DC03C09C
:1021700007F302C006F301C005F300C004F30A0E22
:102180000401636F000172DCF2CF4AF4F29CF29E0C
:10219000AA6A150EA96EA69CA69EA680A850040148
:1021A0004ABDF28C4ABFF28E0201D96F0A0E0401B9
:1021B000636F00015BDCF2CF4AF4F29CF29EAA6AE4
:1021C000160EA96EA69CA69EA680A85004014ABD24
:1021D000F28C4ABFF28E0201DA6F0A0E0401636FBD
:1021E000000144DCF2CF4AF4F29CF29EAA6A180E77
:1021F000A96EA69CA69EA680A85004014ABDF28C9A
:102200004ABFF28E0201DB6F0A0E0401636F000108
:102210002DDCF2CF4AF4F29CF29EAA6A190EA96E46
:10222000A69CA69EA680A85004014ABDF28C4ABF77
:10223000F28E606B5F6F00012DDC03C0EFF202C015
:10224000EEF201C0EDF200C0ECF20A0E0401636F81
:1022500000010CDCF2CF4AF4F29CF29EAA6A1A0E3C
:10226000A96EA69CA69EA680A85004014ABDF28C29
:102270004ABFF28E0301386F0A0E0401636F00013A
:1022800036EC0DF0F2CF4AF4F29CF29EAA6A1B0ED5
:10229000A96EA69CA69EA680A85004014ABDF28CF9
:1022A0004ABFF28E0301396F0A0E0401636F000109
:1022B00036EC0DF0F2CF4AF4F29CF29EAA6A1D0EA3
:1022C000A96EA69CA69EA680A85004014ABDF28CC9
:1022D0004ABFF28E606B5F6F00014AEC0DF003C0E5
:1022E000AEF202C0ADF201C0ACF200C0ABF2AEC2C1
:1022F00056F4ADC255F4ACC254F4ABC253F404016D
:102300005A6B596B200E586F820E576F000165ECA7
:102310000DF003C0AEF202C0ADF201C0ACF200C0DD
:10232000ABF20A0E0401636F000136EC0DF0F2CF40
:102330004AF4F29CF29EAA6A1C0EA96EA69CA69E66
:10234000A680A85004014ABDF28C4ABFF28E606B91
:102350005F6F00014AEC0DF0D89203C062F402C036
:1023600061F401C060F400C05FF4AEC266F4ADC2B7
:1023700065F4ACC264F4ABC263F456DC03C0A6F2ED
:1023800002C0A5F201C0A4F200C0A3F20A0E04012B
:10239000636F000136EC0DF0F2CF4AF4F29CF29E2E
:1023A000AA6A1F0EA96EA69CA69EA680A85004012C
:1023B0004ABDF28C4ABFF28E4B6FF2CF4CF4F29CC6
:1023C000F29EAA6A1E0EA96EA69CA69EA680A85082
:1023D0004CBDF28C4CBFF28E4D6F4BC403F04D518F
:1023E0005F6F03C060F400014AEC0DF003C0B2F26D
:1023F00002C0B1F201C0B0F200C0AFF20A0E040197
:10240000636F000136EC0DF0F2CF4AF4F29CF29EBD
:10241000AA6A210EA96EA69CA69EA680A8500401B9
:102420004ABDF28C4ABFF28E606B5F6F00014AECCE
:102430000DF003C0AEF202C0ADF201C0ACF200C0BC
:10244000ABF2AEC256F4ADC255F4ACC254F4ABC25A
:1024500053F404015A6B596B200E586F820E576F5C
:10246000000165EC0DF003C0AEF202C0ADF201C098
:10247000ACF200C0ABF20A0E0401636F000136EC4F
:102480000DF0F2CF4AF4F29CF29EAA6A200EA96ED9
:10249000A69CA69EA680A85004014ABDF28C4ABF05
:1024A000F28E606B5F6F00014AEC0DF0D89203C0B2
:1024B00062F402C061F401C060F400C05FF4AEC217
:1024C00066F4ADC265F4ACC264F4ABC263F414EC60
:1024D0000EF003C0AAF202C0A9F201C0A8F200C027
:1024E000A7F20A0E0401636F000136EC0DF0F2CF83
:1024F0004AF4F29CF29EAA6A250EA96EA69CA69E9C
:10250000A680A85004014ABDF28C4ABFF28E030196
:102510005F6F0A0E0401636F000136EC0DF0F2CF1D
:102520004AF4F29CF29EAA6A260EA96EA69CA69E6A
:10253000A680A85004014ABDF28C4ABFF28E030166
:10254000606F0A0E0401636F000136EC0DF060C38A
:1025500079F35FC378F30A0E0401636F000136EC70
:102560000DF0F2CF4AF4F29CF29EAA6A270EA96EF1
:10257000A69CA69EA680A85004014ABDF28C4ABF24
:10258000F28E0201DC6F0A0E0401636F000136EC6B
:102590000DF0F2CF4AF4F29CF29EAA6A280EA96EC0
:1025A000A69CA69EA680A85004014ABDF28C4ABFF4
:1025B000F28E0301556F0A0E0401636F000136ECC1
:1025C0000DF0F2CF4AF4F29CF29EAA6A290EA96E8F
:1025D000A69CA69EA680A85004014ABDF28C4ABFC4
:1025E000F28E0301566F0A0E0401636F000136EC90
:1025F0000DF0F2CF4AF4F29CF29EAA6A2A0EA96E5E
:10260000A69CA69EA680A85004014ABDF28C4ABF93
:10261000F28E0301BA6F0A0E0401636F000136ECFB
:102620000DF0F2CF4AF4F29CF29EAA6A2B0EA96E2C
:10263000A69CA69EA680A85004014ABDF28C4ABF63
:10264000F28E0301BB6F0A0E0401636F000136ECCA
:102650000DF0F2CF4AF4F29CF29EAA6A2C0EA96EFB
:10266000A69CA69EA680A85004014ABDF28C4ABF33
:10267000F28E0301BC6F0A0E0401636F000136EC99
:102680000DF0F2CF4AF4F29CF29EAA6A2D0EA96ECA
:10269000A69CA69EA680A85004014ABDF28C4ABF03
:1026A000F28E0301BD6F0A0E0401636F000136EC68
:1026B0000DF0F2CF4AF4F29CF29EAA6A2E0EA96E99
:1026C000A69CA69EA680A85004014ABDF28C4ABFD3
:1026D000F28E0301B96F0A0E0401636F000136EC3C
:1026E0000DF0F2CF4AF4F29CF29EAA6A2F0EA96E68
:1026F000A69CA69EA680A85004014ABDF28C4ABFA3
:10270000F28E03013C6FA46BA36BA453D8A4A3EF78
:1027100017F0A3510308D8A0A3EF17F0A4C366F4E1
:10272000A3C365F40401686B0A0E676F000150ECE7
:102730000FF002C04BF401C04AF4220E04014A25F6
:10274000E96E040E4B21EA6E0301A335026EA43537
:10275000036E0236033602360336F80E02160250B6
:10276000640F04014C6F000E03204D6FF2CF4EF446
:10277000F29CF29E4DC4AAFF4CC4A9FFA69CA69E43
:10278000A680A8504EBDF28C4EBFF28EEF6EA4C351
:1027900066F4A3C365F4686B0A0E676F000150EC22
:1027A0000FF002C04BF401C04AF4010E04014A25A7
:1027B000016E000E4B21036E0150220FE96E040ED4
:1027C0000320EA6E0301A335026EA435036E0236C0
:1027D000033602360336F80E02160250650F040166
:1027E0004C6F000E03204D6FF2CF4EF4F29CF29E20
:1027F0004DC4AAFF4CC4A9FFA69CA69EA680A850C3
:102800004EBDF28C4EBFF28EEF6EA4C366F4A3C32E
:1028100065F4686B0A0E676F000150EC0FF002C0A0
:102820004BF401C04AF4090E04014A25016E000E62
:102830004B21036E0150220FE96E040E0320EA6E55
:102840000301A335026EA435036E02360336023649
:102850000336F80E02160250660F04014C6F000E8C
:1028600003204D6FF2CF4EF4F29CF29E4DC4AAFFAE
:102870004CC4A9FFA69CA69EA680A8504EBDF28C73
:102880004EBFF28EEF6EA4C366F4A3C365F4686B0B
:102890000A0E676F000150EC0FF002C04BF401C04C
:1028A0004AF4030E04014A25016E000E4B21036E0B
:1028B0000150220FE96E040E0320EA6E0301A335D6
:1028C000026EA435036E0236033602360336F80E66
:1028D00002160250670F04014C6F000E03204D6F6B
:1028E000F2CF4EF4F29CF29E4DC4AAFF4CC4A9FF55
:1028F000A69CA69EA680A8504EBDF28C4EBFF28E1E
:10290000EF6EA4C366F4A3C365F4686B0A0E676F29
:10291000000150EC0FF002C04BF401C04AF4040E69
:1029200004014A25016E000E4B21036E0150220F57
:10293000E96E040E0320EA6E0301A335026EA4358E
:10294000036E0236033602360336F80E02160250C4
:10295000680F04014C6F000E03204D6FF2CF4EF450
:10296000F29CF29E4DC4AAFF4CC4A9FFA69CA69E51
:10297000A680A8504EBDF28C4EBFF28EEF6EA4C35F
:1029800066F4A3C365F4686B0A0E676F000150EC30
:102990000FF002C04BF401C04AF4050E04014A25B1
:1029A000016E000E4B21036E0150220FE96E040EE2
:1029B0000320EA6E0301A335026EA435036E0236CE
:1029C000033602360336F80E02160250690F040170
:1029D0004C6F000E03204D6FF2CF4EF4F29CF29E2E
:1029E0004DC4AAFF4CC4A9FFA69CA69EA680A850D1
:1029F0004EBDF28C4EBFF28EEF6EA4C366F4A3C33D
:102A000065F4686B0A0E676F000150EC0FF002C0AE
:102A10004BF401C04AF4060E04014A25016E000E73
:102A20004B21036E0150220FE96E040E0320EA6E63
:102A30000301A335026EA435036E02360336023657
:102A40000336F80E021602506A0F04014C6F000E96
:102A500003204D6FF2CF4EF4F29CF29E4DC4AAFFBC
:102A60004CC4A9FFA69CA69EA680A8504EBDF28C81
:102A70004EBFF28EEF6EA4C366F4A3C365F4686B19
:102A80000A0E676F000150EC0FF002C04BF401C05A
:102A90004AF4080E04014A25016E000E4B21036E14
:102AA0000150220FE96E040E0320EA6E0301A335E4
:102AB000026EA435036E0236033602360336F80E74
:102AC000021602506B0F04014C6F000E03204D6F75
:102AD000F2CF4EF4F29CF29E4DC4AAFF4CC4A9FF63
:102AE000A69CA69EA680A8504EBDF28C4EBFF28E2C
:102AF000EF6EA4C366F4A3C365F4686B0A0E676F38
:102B0000000150EC0FF002C04BF401C04AF4220E59
:102B100004010124E96E040E0220EA6EEF508608DB
:102B200018E3A4C366F4A3C365F4686B0A0E676F69
:102B3000000150EC0FF002C04BF401C04AF4220E29
:102B400004010124E96E040E0220EA6EEF506808C9
:102B500013E3A4C366F4A3C365F4686B0A0E676F3E
:102B6000000150EC0FF0220E04010124E96E040E66
:102B70000220EA6E790EEF6EA4C366F4A3C365F477
:102B8000686B0A0E676F000150EC0FF002C04BF447
:102B900001C04AF4090E04010124016E000E022056
:102BA000036E0150220FE96E040E0320EA6EEF500F
:102BB0003B081AE2A4C366F4A3C365F4686B0A0E6B
:102BC000676F000150EC0FF001C04AF4090E0401D8
:102BD0000124016E000E0220036E0150220FE96EE7
:102BE000040E0320EA6EEF6AA4C366F4A3C365F47F
:102BF000686B0A0E676F000150EC0FF002C04BF4D7
:102C000001C04AF4030E04010124016E000E0220EB
:102C1000036E0150220FE96E040E0320EA6EEF509E
:102C20003B081AE2A4C366F4A3C365F4686B0A0EFA
:102C3000676F000150EC0FF001C04AF4030E04016D
:102C40000124016E000E0220036E0150220FE96E76
:102C5000040E0320EA6EEF6AA4C366F4A3C365F40E
:102C6000686B0A0E676F000150EC0FF002C04BF466
:102C700001C04AF4040E04010124016E000E02207A
:102C8000036E0150220FE96E040E0320EA6EEF502E
:102C90003B081AE2A4C366F4A3C365F4686B0A0E8A
:102CA000676F000150EC0FF001C04AF4040E0401FC
:102CB0000124016E000E0220036E0150220FE96E06
:102CC000040E0320EA6EEF6AA4C366F4A3C365F49E
:102CD000686B0A0E676F000150EC0FF002C04BF4F6
:102CE00001C04AF4030E04010124016E000E02200B
:102CF000036E0150220FE96E040E0320EA6EEF50BE
:102D00003B081AE2A4C366F4A3C365F4686B0A0E19
:102D1000676F000150EC0FF001C04AF4030E04018C
:102D20000124016E000E0220036E0150220FE96E95
:102D3000040E0320EA6EEF6AA4C366F4A3C365F42D
:102D4000686B0A0E676F000150EC0FF002C04BF485
:102D500001C04AF4050E04010124016E000E022098
:102D6000036E0150220FE96E040E0320EA6EEF504D
:102D70003B081AE2A4C366F4A3C365F4686B0A0EA9
:102D8000676F000150EC0FF001C04AF4050E04011A
:102D90000124016E000E0220036E0150220FE96E25
:102DA000040E0320EA6EEF6AA4C366F4A3C365F4BD
:102DB000686B0A0E676F000150EC0FF002C04BF415
:102DC00001C04AF4060E04010124016E000E022027
:102DD000036E0150220FE96E040E0320EA6EEF50DD
:102DE0000F081BE2A4C366F4A3C365F4686B0A0E64
:102DF000676F000150EC0FF001C04AF4060E0401A9
:102E00000124016E000E0220036E0150220FE96EB4
:102E1000040E0320EA6E040EEF6EA4C366F4A3C38F
:102E200065F4686B0A0E676F000150EC0FF002C08A
:102E30004BF401C04AF4070E04010124016E000E98
:102E40000220036E0150220FE96E040E0320EA6E89
:102E5000EF5064081EE3A4C366F4A3C365F4686B73
:102E60000A0E676F000150EC0FF002C04BF401C076
:102E70004AF4070E04010124016E000E0220036EC5
:102E80000150220FE96E040E0320EA6EEF5009088C
:102E90001BE3A4C366F4A3C365F4686B0A0E676FF3
:102EA000000150EC0FF001C04AF4070E04010124A8
:102EB000016E000E0220036E0150220FE96E040E17
:102EC0000320EA6E190EEF6EA4C366F4A3C365F483
:102ED000686B0A0E676F000150EC0FF002C04BF4F4
:102EE00001C04AF4080E04010124016E000E022004
:102EF000036E0150220FE96E040E0320EA6EEF50BC
:102F000006081BE2A4C366F4A3C365F4686B0A0E4B
:102F1000676F000150EC0FF001C04AF4080E040185
:102F20000124016E000E0220036E0150220FE96E93
:102F3000040E0320EA6E060EEF6E0301A32BD8B435
:102F4000A42B85EF13F000016EEF45F00401546BE4
:102F5000545107080DE3D890533302E28C9401D00A
:102F60008C84959495928C8295928C92542BF0D768
:102F70000001000C95968C8651C453F4E7DF52C4CF
:102F800053F4E4DF95968C96000C95968C864EC48F
:102F900053F4DCDF9584100E006E002EFED7000087
:102FA00004014F6B4F51070815E3958483B402D099
:102FB000D89001D0D880503395928C82210E006E2B
:102FC000002EFED795928C92210E006E002EFED719
:102FD0004F2BE8D795968C9650C401F00001000C59
:102FE00095968C96210E006E002EFED795928C92AF
:102FF0008E0E0401516F526B0001BCDF900E040174
:10300000516FA40E526F0001B5DF810E04014E6FA7
:103010000001BBDF01C04AF404014A51800B06E005
:10302000800E516F526B0001A5DF0401000170EFAB
:1030300045F053C45AF4040157515A1B5AAF05D0F6
:10304000D894D89053BFD8802FD053C45AF456C4C4
:103050005BF452515B5F06E05AAF26D0D850010AAC
:10306000D86E22D057C45BF453515B5F06E05AAF71
:103070001BD0D850010AD86E17D058C45BF45451F5
:103080005B5F06E05AAF10D0D850010AD86E0CD062
:1030900059C45BF455515B5F06E05AAF05D0D85078
:1030A000010AD86E01D0D8900001000C006A016AB4
:1030B00004014C51D8904DB10026003201324DB37D
:1030C0000026003201324DB50026003201324DB7E4
:1030D0000026003201324DB90026003201324DBBCC
:1030E0000026003201324DBD0026003201324DBFB4
:1030F0000026003201320001000CB6BF03D0B651E9
:10310000090803E3B6BF01D01CD0B66BAA6AA96A4E
:10311000A86AA69CA69EA684F250006EF29CF29E1F
:103120000F01550EA76EAA0EA76EA682A6B2FED7F5
:10313000A6940050F2120A0E0401636F000136ECEF
:103140000DF0B7BF03D0B751090803E3B7BF01D0F3
:103150001DD0B76BAA6A010EA96EA86AA69CA69E8E
:10316000A684F250006EF29CF29E0F01550EA76EDF
:10317000AA0EA76EA682A6B2FED7A6940050F2129F
:103180000A0E0401636F000136EC0DF0B8BF03D0E6
:10319000B851090803E3B8BF01D01DD0B86BAA6AC3
:1031A000020EA96EA86AA69CA69EA684F250006E86
:1031B000F29CF29E0F01550EA76EAA0EA76EA68274
:1031C000A6B2FED7A6940050F2120A0E0401636F55
:1031D000000136EC0DF0B9BF03D0B951090803E383
:1031E000B9BF01D01DD0B96BAA6A030EA96EA86A37
:1031F000A69CA69EA684F250006EF29CF29E0F0141
:10320000550EA76EAA0EA76EA682A6B2FED7A694EA
:103210000050F2120A0E0401636F000136EC0DF04B
:10322000BFBF03D0BF51090803E3BFBF01D01DD00A
:10323000BF6BAA6A040EA96EA86AA69CA69EA68465
:10324000F250006EF29CF29E0F01550EA76EAA0E70
:10325000A76EA682A6B2FED7A6940050F2120A0E5E
:103260000401636F000136EC0DF0C0BF03D0C05104
:10327000090803E3C0BF01D01DD0C06BAA6A050EC8
:10328000A96EA86AA69CA69EA684F250006EF29C27
:10329000F29E0F01550EA76EAA0EA76EA682A6B2C9
:1032A000FED7A6940050F2120A0E0401636F0001CB
:1032B00036EC0DF0C1BF03D0C151090803E3C1BF13
:1032C00001D01DD0C16BAA6A060EA96EA86AA69C81
:1032D000A69EA684F250006EF29CF29E0F01550E3F
:1032E000A76EAA0EA76EA682A6B2FED7A69400501D
:1032F000F2120A0E0401636F000136EC0DF0C2BF3A
:1033000003D0C251090803E3C2BF01D01DD0C26B74
:10331000AA6A070EA96EA86AA69CA69EA684F25069
:10332000006EF29CF29E0F01550EA76EAA0EA76EBC
:10333000A682A6B2FED7A6940050F2120A0E04018D
:10334000636F000136EC0DF003016251860820E244
:10335000860E626FAA6A080EA96E860EA86EA69CDB
:10336000A69EA684F250006EF29CF29E0F01550EAE
:10337000A76EAA0EA76EA682A6B2FED7A69400508C
:10338000F2120A0E0401636F000136EC0DF0030126
:10339000715303E17051060821E2716B030E706FE7
:1033A000AA6A090EA96E030EA86EA69CA69EA68404
:1033B000F250006EF29CF29E0F01550EA76EAA0EFF
:1033C000A76EA682A6B2FED7A6940050F2120A0EED
:1033D0000401636F000136EC0DF0030188BF03D0D8
:1033E0008851090803E388BF01D01ED0886BAA6A00
:1033F0000A0EA96EA86AA69CA69EA684F250006E2C
:10340000F29CF29E0F01550EA76EAA0EA76EA68221
:10341000A6B2FED7A6940050F2120A0E0401636F02
:10342000000136EC0DF0030189BF03D08951090872
:1034300003E389BF01D01ED0896BAA6A0B0EA96E67
:10344000A86AA69CA69EA684F250006EF29CF29EEC
:103450000F01550EA76EAA0EA76EA682A6B2FED7C2
:10346000A6940050F2120A0E0401636F000136ECBC
:103470000DF003018ABF03D08A51090803E38ABF14
:1034800001D01ED08A6BAA6A0C0EA96EA86AA69CEF
:10349000A69EA684F250006EF29CF29E0F01550E7D
:1034A000A76EAA0EA76EA682A6B2FED7A69400505B
:1034B000F2120A0E0401636F000136EC0DF00301F5
:1034C0008BBF03D08B51090803E38BBF01D01DD004
:1034D0008B6BAA6A0D0EA96EA86AA69CA69EA684EE
:1034E000F250006EF29CF29E0F01550EA76EAA0ECE
:1034F000A76EA682A6B2FED7A6940050F2120A0EBC
:103500000401636F000136EC0DF00401556B546B40
:10351000400E536F820E526F07C359F406C358F41E
:1035200005C357F404C356F4000183DD24E303010B
:10353000076B066B400E056F820E046FAA6A140EAD
:10354000A96E0C0EA86EA69CA69EA684F250006ED4
:10355000F29CF29E0F01550EA76EAA0EA76EA682D0
:10356000A6B2FED7A6940050F2120A0E0401636FB1
:10357000000136EC0DF00201D95164081EE2D96B4E
:10358000AA6A150EA96EA86AA69CA69EA684F250E9
:10359000006EF29CF29E0F01550EA76EAA0EA76E4A
:1035A000A682A6B2FED7A6940050F2120A0E04011B
:1035B000636F000136EC0DF00201DA5164081EE27F
:1035C000DA6BAA6A160EA96EA86AA69CA69EA684A5
:1035D000F250006EF29CF29E0F01550EA76EAA0EDD
:1035E000A76EA682A6B2FED7A6940050F2120A0ECB
:1035F0000401636F000136EC0DF00201DB5150084D
:103600001FE2500EDB6FAA6A180EA96E500EA86E4C
:10361000A69CA69EA684F250006EF29CF29E0F011C
:10362000550EA76EAA0EA76EA682A6B2FED7A694C6
:103630000050F2120A0E0401636F000136EC0DF027
:103640000401556B546B200E536F820E526FEFC204
:1036500059F4EEC258F4EDC257F4ECC256F400012E
:10366000E8DC24E30201EF6BEE6B200EED6F820EBF
:10367000EC6FAA6A190EA96E0A0EA86EA69CA69EE9
:10368000A684F250006EF29CF29E0F01550EA76EBA
:10369000AA0EA76EA682A6B2FED7A6940050F2127A
:1036A0000A0E0401636F000136EC0DF00401606B3B
:1036B00038C35FF400014AEC0DF00401556B546B04
:1036C000536B800E526F03C059F402C058F401C00E
:1036D00057F400C056F40001ACDC20E3010E0301F6
:1036E000386FAA6A1A0EA96E010EA86EA69CA69E35
:1036F000A684F250006EF29CF29E0F01550EA76E4A
:10370000AA0EA76EA682A6B2FED7A6940050F21209
:103710000A0E0401636F000136EC0DF00401606BCA
:1037200039C35FF400014AEC0DF00401556B546B92
:10373000200E536F830E526F03C059F402C058F429
:1037400001C057F400C056F4000173DC20E30F0EF3
:103750000301396FAA6A1B0EA96E0F0EA86EA69CF4
:10376000A69EA684F250006EF29CF29E0F01550EAA
:10377000A76EAA0EA76EA682A6B2FED7A694005088
:10378000F2120A0E0401636F000136EC0DF0040121
:10379000556B546B480E536F840E526FA6C259F48A
:1037A000A5C258F4A4C257F4A3C256F4000141DCE8
:1037B00043E3CD0E0201A66FCC0EA56F200EA46FC1
:1037C000840EA36FAA6A1C0EA96E280EA86EA69C72
:1037D000A69EA684F250006EF29CF29E0F01550E3A
:1037E000A76EAA0EA76EA682A6B2FED7A694005018
:1037F000F2120A0E0401636F000136EC0DF0AA6AA2
:103800001D0EA96E020EA86EA69CA69EA684F2505E
:10381000006EF29CF29E0F01550EA76EAA0EA76EC7
:10382000A682A6B2FED7A6940050F2120A0E040198
:10383000636F000136EC0DF00401556B546B480EBC
:10384000536F8B0E526FB2C259F4B1C258F4B0C26A
:1038500057F4AFC256F4000119EC18F042E302012C
:10386000B26BC00EB16F410EB06F8B0EAF6FAA6A14
:103870001E0EA96E380EA86EA69CA69EA684F250B7
:10388000006EF29CF29E0F01550EA76EAA0EA76E57
:10389000A682A6B2FED7A6940050F2120A0E040128
:1038A000636F000136EC0DF0AA6A1F0EA96E180EA8
:1038B000A86EA69CA69EA684F250006EF29CF29E74
:1038C0000F01550EA76EAA0EA76EA682A6B2FED74E
:1038D000A6940050F2120A0E0401636F000136EC48
:1038E0000DF00401556B546B536B800E526FAAC2DE
:1038F00059F4A9C258F4A8C257F4A7C256F400015B
:1039000019EC18F03FE30201AA6BA96BA86B7E0EBD
:10391000A76FAA6A200EA96EA86AA69CA69EA68476
:10392000F250006EF29CF29E0F01550EA76EAA0E89
:10393000A76EA682A6B2FED7A6940050F2120A0E77
:103940000401636F000136EC0DF0AA6A210EA96E26
:10395000050EA86EA69CA69EA684F250006EF29C50
:10396000F29E0F01550EA76EAA0EA76EA682A6B2F2
:10397000FED7A6940050F2120A0E0401636F0001F4
:1039800036EC0DF003017951E9083FE2FF0A03E14B
:10399000785160083AE2796B786BAA6A250EA96EB5
:1039A000A86AA69CA69EA684F250006EF29CF29E87
:1039B0000F01550EA76EAA0EA76EA682A6B2FED75D
:1039C000A6940050F2120A0E0401636F000136EC57
:1039D0000DF0AA6A260EA96EA86AA69CA69EA684C9
:1039E000F250006EF29CF29E0F01550EA76EAA0EC9
:1039F000A76EA682A6B2FED7A6940050F2120A0EB7
:103A00000401636F000136EC0DF00201DC51640823
:103A10001FE2500EDC6FAA6A270EA96E500EA86E28
:103A2000A69CA69EA684F250006EF29CF29E0F0108
:103A3000550EA76EAA0EA76EA682A6B2FED7A694B2
:103A40000050F2120A0E0401636F000136EC0DF013
:103A500003015551010820E2010E556FAA6A280E94
:103A6000A96E010EA86EA69CA69EA684F250006EBA
:103A7000F29CF29E0F01550EA76EAA0EA76EA682AB
:103A8000A6B2FED7A6940050F2120A0E0401636F8C
:103A9000000136EC0DF0030156511E0820E2020E23
:103AA000566FAA6A290EA96E020EA86EA69CA69E43
:103AB000A684F250006EF29CF29E0F01550EA76E86
:103AC000AA0EA76EA682A6B2FED7A6940050F21246
:103AD0000A0E0401636F000136EC0DF00301B951C9
:103AE000640803E3B951310820E3480EB96FAA6AAC
:103AF0002E0EA96E480EA86EA69CA69EA684F25015
:103B0000006EF29CF29E0F01550EA76EAA0EA76ED4
:103B1000A682A6B2FED7A6940050F2120A0E0401A5
:103B2000636F000136EC0DF003013C511E0802E307
:103B30003C5320E10F0E3C6FAA6A2F0EA96E0F0EA8
:103B4000A86EA69CA69EA684F250006EF29CF29EE1
:103B50000F01550EA76EAA0EA76EA682A6B2FED7BB
:103B6000A6940050F2120A0E0401636F000136ECB5
:103B70000DF00301BC510A080BE1BAC34CF4FF0E6F
:103B800004014D6F000156EC18F001C0BAF30301B7
:103B9000BD510A080BE1BBC34CF4FF0E04014D6F8D
:103BA000000156EC18F001C0BBF30301000178EFEF
:103BB00045F00900F55211E0F6CF4BF4F7CF4CF485
:103BC000F8CF4DF4F5509EA8FED7AD6E4BC4F6FF6E
:103BD0004CC4F7FF4DC4F8FFECD7000C9EA8FED7ED
:103BE000AD6E000C100E006E002EFED70000FF0E12
:103BF000F5DF100E006E002EFED70000FF0EEEDF88
:103C0000100E006E002EFED70000FF0EE7DF100E34
:103C1000006E002EFED70000000C8C9895988C9CAE
:103C2000959C8C9095908B849494A4958C9A959A5D
:103C30000301546B0001000C04015335006E003683
:103C4000FC0E001600C001F0C250C30B0010C26E83
:103C5000010E636F000136EC0DF0C282C2B2FED7D6
:103C6000C4CF60F4C3CF5FF400014AEC0DF003C091
:103C700057F402C056F401C055F400C054F454C4C3
:103C800000F055C401F056C402F057C403F0000C14
:103C900004016351D8B471D0006E6751D8B46DD0AF
:103CA000002604E3810E002668E204D07F0E005E49
:103CB00064E363E064C46BF468516B1B648F688FCA
:103CC00066516A03F4CF6DF465516903F4CF03F0D4
:103CD000F3CF6CF46A03F3506D27F4506C23000E9D
:103CE000032266516903F3506D27F4506C23000ED4
:103CF000026A0322022264516A03F3506C27F450D3
:103D00000322000E022264516903F3500326F4508B
:103D10000222000E016A012266516803F3506C27EB
:103D2000F4500322000E0222012265516803F35071
:103D30000326F4500222000E012264516803F3505E
:103D40000226F4500122002A01BE05D06C3703364A
:103D5000023601360006000E6CAF0AD0032A02229A
:103D60000122015005E1025003E1035001E1002A64
:103D70006BBF018E6BAF019E04D0006A016A026ABC
:103D8000036A0001000C04014E6B4D6B4C6B4B6BD6
:103D9000526B516B506B4F6B0201FB6BFA6BF96B03
:103DA000F86B0401536B000147DF03C0E7F202C068
:103DB000E6F201C0E5F200C0E4F2E7C256F4E6C262
:103DC00055F4E5C254F4E4C253F4B80E04015A6F3A
:103DD0001E0E596F530E586F850E576F000165EC1C
:103DE0000DF003C0E7F202C0E6F201C0E5F200C048
:103DF000E4F2D892E7C262F4E6C261F4E5C260F48C
:103E0000E4C25FF4D70E0401666FA30E656F6C0EFB
:103E1000646F820E636F000114EC0EF003C0E7F2D2
:103E200002C0E6F201C0E5F200C0E4F20401566B04
:103E3000C00E556F7F0E546F880E536FE7C25AF451
:103E4000E6C259F4E5C258F4E4C257F4000165EC47
:103E50000DF000C053F401C054F402C055F403C087
:103E600056F4D88203C062F402C061F401C060F469
:103E700000C05FF40401666B656B646B7F0E636F5B
:103E8000000114EC0EF0B6C256F4B5C255F4B4C23B
:103E900054F4B3C253F403C05AF402C059F401C03D
:103EA00058F400C057F465EC0DF003C0EBF202C00B
:103EB000EAF201C0E9F200C0E8F2010E04014A5D35
:103EC0000201D85D02E001E3D86B0401666BD8C241
:103ED00065F4686B040E676F000150EC0FF0015041
:103EE000C30FE96E000E0220EA6EE8C2EFFFE9C2DE
:103EF000ECFFEAC2ECFFEBC2ECFF0201D82BD76B60
:103F000004014A510201D75D40E20401666BD7C249
:103F100065F4686B040E676F000150EC0FF002C08F
:103F200003F00150C30FE96E000E0220EA6EEFCFDE
:103F300000F0ECCF01F0ECCF02F0ECCF03F0EACFD1
:103F400054F4E9CF53F4D892FBC262F4FAC261F49C
:103F5000F9C260F4F8C25FF403C066F402C065F40D
:103F600001C064F400C063F414EC0EF054C4EAFF22
:103F700053C4E9FF03C0FBF202C0FAF201C0F9F238
:103F800000C0F8F20201D72BBBD70401606B4AC412
:103F90005FF400014AEC0DF0FBC256F4FAC255F48E
:103FA000F9C254F4F8C253F403C05AF402C059F4ED
:103FB00001C058F400C057F465EC0DF003C0FBF2EB
:103FC00002C0FAF201C0F9F200C0F8F2FBC266F4D6
:103FD000FAC265F4F9C264F4F8C263F4FBC26AF48D
:103FE000FAC269F4F9C268F4F8C267F451DE00C09D
:103FF00053F401C054F402C055F403C056F403C096
:1040000066F402C065F401C064F400C063F42FC319
:104010006AF42EC369F42DC368F42CC367F438DE48
:1040200000C053F401C054F402C055F403C056F468
:10403000FBC266F4FAC265F4F9C264F4F8C263F430
:1040400033C36AF432C369F431C368F430C367F42C
:104050001FDED89256C462F455C461F454C460F4AF
:1040600053C45FF403C066F402C065F401C064F495
:1040700000C063F414EC0EF000C053F401C054F41B
:1040800002C055F403C056F4D89203C062F402C0D3
:1040900061F401C060F400C05FF437C366F436C356
:1040A00065F435C364F434C363F414EC0EF003C058
:1040B000FFF202C0FEF201C0FDF200C0FCF20401FA
:1040C000606BD9C25FF400014AEC0DF003C04EF4FE
:1040D00002C04DF401C04CF400C04BF44EC456F481
:1040E0004DC455F44CC454F44BC453F404015A6BFE
:1040F000596B200E586F820E576F000165EC0DF062
:1041000003C04EF402C04DF401C04CF400C04BF4A7
:104110000401606BDAC25FF400014AEC0DF003C0E9
:1041200052F402C051F401C050F400C04FF452C424
:1041300056F451C455F450C454F44FC453F404011C
:104140005A6B596B200E586F820E576F000165EC49
:104150000DF003C052F402C051F401C050F400C08D
:104160004FF4D8824EC462F44DC461F44CC460F480
:104170004BC45FF452C466F451C465F450C464F493
:104180004FC463F414EC0EF0D892FFC262F4FEC286
:1041900061F4FDC260F4FCC25FF403C066F402C0C7
:1041A00065F401C064F400C063F414EC0EF003C0C5
:1041B000FFF202C0FEF201C0FDF200C0FCF2FCC240
:1041C00000F0FDC201F0FEC202F0FFC203F0000CDD
:1041D0000201CA6BC96BC86BC76B020E0401536F37
:1041E00000012ADD03C017F302C016F301C015F366
:1041F00000C014F317C356F416C355F415C354F492
:1042000014C353F404015A6BC00E596F7F0E586FDC
:10421000880E576F000165EC0DF000C04BF401C033
:104220004CF402C04DF403C04EF4D88203C062F4D3
:1042300002C061F401C060F400C05FF40A0E040122
:10424000666FD70E656F230E646F7A0E636F000181
:1042500014EC0EF000C04BF401C04CF402C04DF45D
:1042600003C04EF403C056F402C055F401C054F428
:1042700000C053F42BC35AF42AC359F429C358F489
:1042800028C357F465EC0DF003C01BF302C01AF30A
:1042900001C019F300C018F31BC355F41AC354F43A
:1042A00019C353F418C352F40401596B586B576B7C
:1042B000566B000119EC18F005E303011B6B1A6B38
:1042C000196B186B010E04014A5D03018C5D02E05D
:1042D00001E38C6B8C51040DF350036A030FE96EFC
:1042E000020E0320EA6E18C3EFFF19C3ECFF1AC3D6
:1042F000ECFF1BC3ECFF8C2B8D6B010E04014A5DA0
:1043000003018D5D01E038E28D51040DF350036A25
:10431000030FE96E020E0320EA6EEFCF00F0ECCF40
:1043200001F0ECCF02F0ECCF03F0EACF4CF4E9CF90
:104330004BF4D892CAC262F4C9C261F4C8C260F434
:10434000C7C25FF403C066F402C065F401C064F440
:1043500000C063F4000114EC0EF04CC4EAFF4BC43F
:10436000E9FF03C0CAF202C0C9F201C0C8F200C02E
:10437000C7F203018D2BC1D70401606B4AC45FF4FF
:1043800000014AEC0DF0CAC256F4C9C255F4C8C2C5
:1043900054F4C7C253F403C05AF402C059F401C024
:1043A00058F400C057F465EC0DF003C0CAF202C027
:1043B000C9F201C0C8F200C0C7F2C7C200F0C8C24B
:1043C00001F0C9C202F0CAC203F0000C8E0E006EEA
:1043D00004015F51005E60C402F061C401F0028E0E
:1043E000005209E0D890025202E1015204E0023288
:1043F0000132002EF7D760AF05D0011E021E012A40
:10440000D8B4022A0001000C0201D66BD56BD46B24
:10441000D36B030E0401536F00010EDC03C01FF3C6
:1044200002C01EF301C01DF300C01CF31FC356F4ED
:104430001EC355F41DC354F41CC353F404015A6B3A
:10444000C00E596F7F0E586F880E576F000165ECD4
:104450000DF000C04BF401C04CF402C04DF403C099
:104460004EF4D88203C062F402C061F401C060F46B
:1044700000C05FF40A0E0401666FD70E656F230E4D
:10448000646F7A0E636F000114EC0EF000C04BF401
:1044900001C04CF402C04DF403C04EF403C056F406
:1044A00002C055F401C054F400C053F42BC35AF4B5
:1044B0002AC359F429C358F428C357F465EC0DF006
:1044C00003C023F302C022F301C021F300C020F394
:1044D00023C355F422C354F421C353F420C352F42C
:1044E0000401596B586B576B566B000119EC18F0AF
:1044F00005E30301236B226B216B206B010E04018A
:104500004A5D03018E5D02E001E38E6B8E51040D66
:10451000F350036A530FE96E020E0320EA6E20C3C4
:10452000EFFF21C3ECFF22C3ECFF23C3ECFF8E2B74
:104530008F6B010E04014A5D03018F5D01E038E2DB
:104540008F51040DF350036A530FE96E020E0320DE
:10455000EA6EEFCF00F0ECCF01F0ECCF02F0ECCF41
:1045600003F0EACF4CF4E9CF4BF4D892D6C262F410
:10457000D5C261F4D4C260F4D3C25FF403C066F460
:1045800002C065F401C064F400C063F4000114ECDF
:104590000EF04CC4EAFF4BC4E9FF03C0D6F202C0E0
:1045A000D5F201C0D4F200C0D3F203018F2BC1D7E2
:1045B0000401606B4AC45FF400014AEC0DF0D6C2FE
:1045C00056F4D5C255F4D4C254F4D3C253F403C044
:1045D0005AF402C059F401C058F400C057F465EC15
:1045E0000DF003C0D6F202C0D5F201C0D4F200C073
:1045F000D3F2D3C200F0D4C201F0D5C202F0D6C2C9
:1046000003F0000C030159510508D8A4BAD03BC0EF
:1046100030F03CC031F03DC032F03EC033F03FC01E
:1046200034F040C035F041C036F042C037F043C0EE
:1046300038F044C039F0332C07D05C6B5C515E5DC0
:1046400002E05CC35EF39CD03350020808E1010E27
:104650005C6F5C515E5D02E05CC35EF391D03350F1
:10466000030808E1020E5C6F5C515E5D02E05CC312
:104670005EF386D03350040808E1030E5C6F5C5192
:104680005E5D02E05CC35EF37BD03350050808E159
:10469000040E5C6F5C515E5D02E05CC35EF370D043
:1046A0003350060808E1050E5C6F5C515E5D02E068
:1046B0005CC35EF365D03350070808E1060E5C6FFB
:1046C0005C515E5D02E05CC35EF35AD03350080873
:1046D00008E1070E5C6F5C515E5D02E05CC35EF357
:1046E0004FD03350090808E1080E5C6F5C515E5DE5
:1046F00002E05CC35EF344D033500D0808E10C0EB9
:104700005C6F5C515E5D02E05CC35EF339D0335098
:104710000F0801E135D033501A0808E1140E5C6F20
:104720005C515E5D02E05CC35EF32AD033501B082F
:1047300008E10F0E5C6F5C515E5D02E05CC35EF3EE
:104740001FD033501C0808E1100E5C6F5C515E5D99
:1047500002E05CC35EF314D033502C0808E1640E11
:104760005C6F5C515E5D02E05CC35EF309D0335068
:10477000CC0806E1F00E5C6F5E51F00801E0FF002E
:1047800006D05B6B5B51090802E35B2BFBD7000192
:10479000CCEF46F027C362F426C361F425C360F46E
:1047A00024C35FF413DE01C064F027C362F426C3A0
:1047B00061F425C360F424C35FF408DE0401606B78
:1047C00001C05FF400014AEC0DF0D88227C362F407
:1047D00026C361F425C360F424C35FF403C066F408
:1047E00002C065F401C064F400C063F414EC0EF080
:1047F00000C05FF401C060F402C061F403C062F461
:1048000003C066F402C065F401C064F400C063F440
:1048100004016A6B696B200E686F820E676F00017E
:1048200048EC1EF003C062F402C061F401C060F401
:1048300000C05FF4CBDD01C065F074C366F0000119
:1048400075C367F0000176C368F0000177C369F0B3
:104850000001F3C262F4F2C261F4F1C260F4F0C28A
:104860005FF4B4DD01500A0DF3CF6AF094806B6BF6
:1048700082B06B2B94826C6B82B26C2B938A6D6BC3
:1048800081AA6D2B938C6E6B81AC6E2B938E6F6BAC
:1048900081AE6F2BF7C262F4F6C261F4F5C260F428
:1048A000F4C25FF493DD01C070F061C371F0B7C36F
:1048B00072F0ABC373F0AAC374F0A9C375F0ACC3B4
:1048C00076F0ADC377F0AEC378F0B8C379F07A6B09
:1048D000A4B57A2B78C37BF0000179C37CF000018A
:1048E000AEEF24F0080E016E050E006E002EFED70E
:1048F0008B969496060E006E002EFED704016B3741
:104900008B98D8B09488D8A09498948682A6FED725
:10491000012E01D002D00001E7D7050E006E002E57
:10492000FED78B96949600009488060E006E002E9B
:10493000FED7060E006E002EFED7948682A6FED706
:10494000016A060E006E002EFED782B801808B969B
:1049500094968B9894980001000C1CD70301A46BCB
:10496000A36BA45344E1A351180841E3B00E000126
:10497000856F9488050E006E002EFED79486060E75
:10498000006E002EFED78B989498050E006E002EB8
:10499000FED78B96949685C06BF4A4DFA3C36BF40B
:1049A000A1DF04016B6B00019DDF640E0301A325F1
:1049B000E96E000EA421EA6EEFCF5FF45FC46BF4E2
:1049C000000190DF94980000948682A6FED7050E21
:1049D000006E002EFED700D000009488050E006EF9
:1049E000002EFED70301A32BD8B4A42BBAD7000105
:1049F000000C4FC450F404015039006E0F0E001625
:104A000000500A0DF3CF4FF45039006EF00E00162F
:104A10000050003A0F0E001600504F274FC401F00F
:104A20000001000C030198512D0809E2FF0A03E17F
:104A30009751E00804E2986B976B0001A399040179
:104A40004A2D2BD0938081A009D0938281A206D0D9
:104A5000938481A403D0938681B602D00001A389F8
:104A60000001A3B915D0A3830301965303E1955127
:104A7000C8080CE2966B956B0001A377A3A703D03F
:104A80008C80959002D08C909590030104D0000109
:104A90008C90959003012ED004014A5102082BE11D
:104AA000938081A009D0938281A206D0938481A4AF
:104AB00003D0938681B603D0150E0301926F0001D7
:104AC000A38303019251130813E3965303E1955115
:104AD00064080DE2966B956B0001A377A3A703D042
:104AE0008C80959002D08C9095900301922B02D0EF
:104AF0008C90959004010001000C306A316A326A92
:104B0000336A346A356A366A376A386A396A3B6AA0
:104B10003C6A3D6A3E6A3F6A406A416A426A436A49
:104B2000446ADFEF47F00900F6CF51F4F7CF52F4B3
:104B3000F8CF53F4F5509EA8FED7AD6E51C4F6FFE2
:104B400052C4F7FF53C4F8FF0401502F01D002D024
:104B50000001E9D70001000C04015551016A545DC0
:104B600003E254C400F00CD0006A080E566F5437AC
:104B700000365551005CD8B0006E0136562FF7D77D
:104B80000001000C015050C454F4640E0401556F30
:104B90000001E2DF00C050F40150300E08E10401D2
:104BA00051A30ED051B70CD051B9200E04D004013E
:104BB000519751995181012601509EA8FED7AD6EA3
:104BC00050C454F40A0E556F0001C6DF00C050F403
:104BD0000150300E08E1040151B70BD051A109D0AA
:104BE00051B9200E0001012601509EA8FED7AD6EDE
:104BF0000401300E502750519EA8FED7AD6E000123
:104C0000000C04015D51B6085D6F036A5EC461F477
:104C10005E8FD8905E335F336033033202320132ED
:104C200000325D2FF6D761AF0BD0001E011E021EB1
:104C3000031E002AD8B4012AD8B4022AD8B4032A01
:104C400000018FEF26F0006A016A026A036A04011C
:104C5000656B666B676B686B645163116211611100
:104C60002CE0200E696FD8905D375E375F37603774
:104C700065376637673768376451685D08E16351A7
:104C8000675D05E16251665D02E16151655D0FE3BB
:104C90006151655F6251D8A0623D665F6351D8A0E3
:104CA000633D675F6451D8A0643D685FD88000367B
:104CB000013602360336692FD6D7040EEA6E650E2A
:104CC000E96E0001000CE9500401556F5451576F13
:104CD0001CE053C466F452C465F451C464F450C477
:104CE00063F46A6B696B200E686F820E676F000158
:104CF00048EC1EF003C053F402C052F401C051F45A
:104D000000C050F40401572FE4D753C460F452C4D8
:104D10005FF451C45EF450C45DF4000172D703C067
:104D200053F402C052F401C051F400C050F4040125
:104D300053AF0DD05507558B501F511F521F531F96
:104D4000502BD8B4512BD8B4522BD8B4532B3B0E84
:104D50005C6F9A0E5B6FCA0E5A6F596B0A0E576FD3
:104D60005451D8B4552B53C460F452C45FF451C4A9
:104D70005EF450C45DF45CC464F45BC463F45AC470
:104D800062F459C461F400015EDF0150EFCF50F4CA
:104D9000ECCF51F4ECCF52F4ECCF53F4005213E1CA
:104DA00004015429575DD8A402D000010CD05551FC
:104DB0000DE00F0B575D01E03CE255BF3AD055BD09
:104DC00005D0200E31D0200E0401551755AB0DD063
:104DD000559B5451D8A455070050556F2D0E9EA8D1
:104DE000FED7AD6E5551006E556B5451575D0BE1BA
:104DF0000050556F2E0E9EA8FED7AD6E5551006E19
:104E0000200E5517000E300E55AB0ED0559B545149
:104E1000D8A455070050556F2D0E9EA8FED7AD6E35
:104E20005551006E556B300E002600509EA8FED7DF
:104E3000AD6E5CC460F45BC45FF45AC45EF459C4E4
:104E40005DF4646B636B626B0A0E616F0001FBDEE5
:104E500003C05CF402C05BF401C05AF400C059F412
:104E60000401572F80D70001000C016A026A006A12
:104E7000036A0401665102E1655118E0100E676F84
:104E8000D89063376437003603366651035C02E11D
:104E90006551005C07E36551005ED8A003066651CA
:104EA000035ED88001360236672FEAD70001000C76
:104EB0009488050E006E002EFED79486060E006EB6
:104EC000002EFED78B989498050E006E002EFED70C
:104ED0008B969496A00E04016B6F000103DD66C4EF
:104EE00069F404016A6B66C46BF40001FBDC65C401
:104EF0006BF4F8DC67C46BF4F5DC949800009486DE
:104F000082A6FED7050E006E002EFED700D0000050
:104F10009488050E006E002EFED7000C0401606B15
:104F20005F6B626B616B79C364F478C363F4666B27
:104F3000C80E656F000199DF02C060F401C05FF424
:104F400060C466F45FC465F40401686BC80E676FE3
:104F5000000150EC0FF001500301785D0401616F16
:104F60000250030179590401626F62C466F461C49E
:104F700065F4010E686F400E676F000150EC0FF092
:104F800002C064F401C063F402C066F401C065F4B9
:104F9000010E0401676F00018BDF050E0401636FD2
:104FA000000136EC0DF062C466F461C465F4010ED4
:104FB0000401686F400E676F000150EC0FF002C0F3
:104FC00003F00150010F0401636F000E0220646FB3
:104FD000666F63C465F4676B00016ADF050E040148
:104FE000636F000136EC0DF062C466F461C465F4D1
:104FF000010E0401686F400E676F000150EC0FF066
:1050000002C003F00150020F0401636F000E022082
:10501000646F666F63C465F4676B000149DF050E5A
:105020000401636F000136EC0DF062C466F461C4E4
:1050300065F4010E0401686F400E676F000150ECCB
:105040000FF002C003F00150030F0401636F000E64
:105050000220646F666F63C465F4676B000128DF2C
:10506000050E0401636F000136EC0DF062C466F4B6
:1050700061C465F4010E0401686F400E676F0001A2
:1050800050EC0FF002C003F00150040F0401636FF5
:10509000000E0220646F666F63C465F4676B0001E5
:1050A00007DF050E0401636F000136EC0DF003010C
:1050B000836B826B8353D8A4D4D182512208D8A0A9
:1050C000D0D162C466F461C465F4010E0401686F56
:1050D000400E676F000150EC0FF002C003F001506A
:1050E000050F0401636F000E0220646F83C366F432
:1050F00082C365F4686B090E676F000150EC0FF016
:1051000002C003F00150040163270250642364C409
:1051100066F463C465F4676B0001CADE050E040122
:10512000636F000136EC0DF062C466F461C465F48F
:10513000010E0401686F400E676F000150EC0FF024
:1051400002C003F00150060F0401636F000E02203D
:10515000646F83C366F482C365F4686B090E676F7E
:10516000000150EC0FF002C003F00150040163276E
:105170000250642364C466F463C465F4676B000181
:1051800097DE050E0401636F000136EC0DF062C47A
:1051900066F461C465F4010E0401686F400E676F28
:1051A000000150EC0FF002C003F00150070F0401A2
:1051B000636F000E0220646F83C366F482C365F4DC
:1051C000686B090E676F000150EC0FF002C003F02E
:1051D0000150040163270250642364C466F463C46D
:1051E00065F4676B000164DE050E0401636F000166
:1051F00036EC0DF062C466F461C465F4010E04017E
:10520000686F400E676F000150EC0FF002C003F0B2
:105210000150080F0401636F000E0220646F83C306
:1052200066F482C365F4686B090E676F000150EC89
:105230000FF002C003F00150040163270250642301
:1052400064C466F463C465F4676B000131DE050E67
:105250000401636F000136EC0DF062C466F461C4B2
:1052600065F4010E0401686F400E676F000150EC99
:105270000FF002C003F00150090F0401636F000E2C
:105280000220646F83C366F482C365F4686B090E01
:10529000676F000150EC0FF002C003F001500401F1
:1052A00063270250642364C466F463C465F4676BC7
:1052B0000001FEDD050E0401636F000136EC0DF008
:1052C00062C466F461C465F4010E0401686F400EA7
:1052D000676F000150EC0FF002C003F001500A0F9D
:1052E0000401636F000E0220646F83C366F482C3FF
:1052F00065F4686B090E676F000150EC0FF002C097
:1053000003F00150040163270250642364C466F46F
:1053100063C465F4676B0001CBDD050E0401636FA8
:10532000000136EC0DF062C466F461C465F4010E50
:105330000401686F400E676F000150EC0FF002C06F
:1053400003F001500B0F0401636F000E0220646F25
:1053500083C366F482C365F4686B090E676F00014E
:1053600050EC0FF002C003F001500401632702501B
:10537000642364C466F463C465F4676B000198DD5C
:10538000050E0401636F000136EC0DF062C466F493
:1053900061C465F4010E0401686F400E676F00017F
:1053A00050EC0FF002C003F001500C0F0401636FCA
:1053B000000E0220646F83C366F482C365F4686BD9
:1053C000090E676F000150EC0FF002C003F00150AE
:1053D000040163270250642364C466F463C465F463
:1053E000676B000165DD050E0401636F000136EC9B
:1053F0000DF062C466F461C465F4010E0401686FC7
:10540000400E676F000150EC0FF002C003F0015036
:105410000D0F0401636F000E0220646F83C366F4F6
:1054200082C365F4686B090E676F000150EC0FF0E2
:1054300002C003F00150040163270250642364C4D6
:1054400066F463C465F4676B000132DD050E040188
:10545000636F000136EC0DF00301822BD8B4832B6F
:1054600029D6836B826B00016AEF2AF054C4B6F030
:1054700055C4B7F056C4B8F057C4B9F058C4BFF01B
:1054800059C4C0F05AC4C1F05BC4C2F05EC462F338
:105490000301666B0001A49F04015CA103D000011D
:1054A000A48F04015DC461F3B6C0B1F0B7C0B2F01F
:1054B000B8C0B3F0B9C0B4F0BAC0B5F0BFC0BBF06B
:1054C000C0C0BCF0C1C0BDF0C2C0BEF00001A3B5F9
:1054D00002D024D5A3850F0E0301B86F0001ADECF7
:1054E00024F0640E0401636F000136EC0DF00A0E27
:1054F0000301B86F0001000CEACF58F4E9CF57F46C
:1055000004015139F009536F5327E20F546F320FE2
:10551000566F51510F0B542754275627E90F556FDB
:105520005527552750390F0B5527562755375637CE
:10553000561F563750510F0B56275337070E526FD1
:105540000A0E55075627FDE354075527FDE3530779
:105550005427FDE352075327FDE3040EEA6E520E73
:10556000E96E070E5715579DE926560EE95CD8B42B
:10557000578DEF50006E08E157BD06D057B90CD0DB
:1055800057B702D0200E03D057875799300E002608
:1055900000509EA8FED7AD6EEE5057ADE6D7000185
:1055A000000C04014A51030B0AE14AC454F4640E8E
:1055B000556F0001ACEC25F0005218E10401646B5A
:1055C0004AC463F4010E666F900E656F00014DDCF6
:1055D00000C04BF4040103C04CF44B5305E14C53A1
:1055E000D8A402D0000102D0000E02D0010E0401A6
:1055F000016E0001000C50C454F40A0E0401556FF2
:105600000001ACEC25F001C051F4040151510A0D28
:10561000F350505D526F5139006EF00E001600507D
:105620005211016E0001000C4AC450F4E4DF01C0C5
:1056300050F4860E0401516F01C052F40001BAEC1F
:1056400017F04BC450F4D7DF01C050F4880E0401AA
:10565000516F01C052F40001BAEC17F04CC450F481
:10566000CADF01C050F48C0E0401516F01C052F426
:105670000001BAEC17F04DC450F4BDDF01C050F486
:105680008A0E0401516F01C052F40001BAEC17F008
:105690004EC450F4B0DF01C050F4840E0401516FC9
:1056A00001C052F40001BAEC17F04FC450F4A3DF6C
:1056B00001C050F4820E0401516F01C052F4000188
:1056C000BAEC17F00401506B000195DF01C050F4F3
:1056D000800E0401516F01C052F40001BAEC17F0C2
:1056E0003AEF5EF00301B1510C0802E20A0EB16F0D
:1056F000B2511F0802E2100EB26FB051630802E20D
:10570000120EB06FB351180802E20B0EB36FB45112
:105710003B0802E21E0EB46FB151020815E1B0C39E
:105720004AF400013EDF015208E00301B2511D08B6
:1057300002E21D0EB26F07D000010301B2511C0836
:1057400002E21C0EB26F15D0B151070809E3B15146
:10575000010B05E1B2511E0802E21E0EB26F09D024
:10576000B151010B010805E1B2511E0802E21E0E03
:10577000B26F000189EF5FF00401526B536B51C4AB
:1057800054F40A0E556F0001ACEC25F001C052F440
:10579000040152510A0DF3CF52F45251515D536F2F
:1057A00053C401F00001000C080E0401536F00C047
:1057B00054F49488060E006E002EFED7948682A6BE
:1057C000FED782B8D88082A8D8900136050E006E28
:1057D000002EFED794968B96532FEBD79488060E07
:1057E000006E002EFED78B985451D8A494980000D8
:1057F000948682A6FED7050E006E002EFED78B96ED
:105800009496060E006E002EFED78B989498000199
:105810004BEF2CF09488050E006E002EFED7948678
:10582000060E006E002EFED78B989498050E006E23
:10583000002EFED78B969496A00E04016B6F00018C
:1058400072EC24F050C452F40401536B50C46BF456
:10585000000172EC24F04FC46BF472EC24F09488D5
:10586000050E006E002EFED79486060E006E002EEA
:10587000FED782A6FED78B989498050E006E002E58
:10588000FED78B969496A10E04016B6F000172EC0B
:1058900024F0006A89D701C051F4949800009486DE
:1058A00082A6FED7050E006E002EFED700D00000A7
:1058B0009488050E006E002EFED7040151C401F03D
:1058C0000001000C0401606B4EC45FF400014AEC5F
:1058D0000DF003C052F402C051F401C050F400C0F6
:1058E0004FF452C456F451C455F450C454F44FC448
:1058F00053F404015A6B596B200E586F820E576F88
:10590000000165EC0DF05FEF2EF0A0C366F49FC3BD
:1059100065F4010E0401686F400E676F000150ECE2
:105920000FF002C003F00150020F04014A6F000E95
:1059300002204B6F506F4AC44FF400016BDF01C06F
:10594000D0F30301D0511F0802E2010ED06FA0C3B3
:1059500066F49FC365F4010E0401686F400E676F23
:10596000000150EC0FF002C003F00150030F0401DE
:105970004A6F000E02204B6F506F4AC44FF4000173
:1059800049DF01C0D1F30301D1510C0802E2010E3D
:10599000D16FA0C366F49FC365F4010E0401686F64
:1059A000400E676F000150EC0FF002C003F0015091
:1059B000040F04014A6F000E02204B6F506F4AC45F
:1059C0004FF4000127DF01C0D2F30301D251630875
:1059D00002E2130ED26FA0C366F49FC365F4010EFA
:1059E0000401686F400E676F000150EC0FF002C0B9
:1059F00003F00150010F04014A6F000E02204B6FAB
:105A0000506F4AC44FF4000105DF01C0D4F3030115
:105A1000D451140802E2010ED46FA0C366F49FC3F0
:105A200065F4010E0401686F400E676F000150ECD1
:105A30000FF002C04BF401C04AF402C050F401C0A0
:105A40004FF4E8DE01C0D3F30301D3510A0802E2A8
:105A5000010ED36FA46BA36BA453D8A45AD3A35144
:105A60000608D8A056D30D0EA325016E040EA4215E
:105A7000036E01C04AF404014B6FA0C366F49FC3D8
:105A800065F4010E686F400E676F000150EC0FF077
:105A900002C04DF401C04CF40B0E04014C27000E63
:105AA0004D230301A351A12504014E6F0301A4510D
:105AB000A22104014F6F666F4EC465F4686B090E36
:105AC000676F000150EC0FF002C003F001500401B9
:105AD0004C2702504D234DC450F44CC44FF40001E8
