:04000000EEEF42F0ED
:080008005DEF00F000000000B4
:100010000000000000000000046ED8CF05F0E0CF23
:1000200006F00001E9CF0CF0EACF07F0E1CF08F0CD
:10003000E2CF09F0D9CF0AF0DACF0BF0F3CF12F00C
:10004000F4CF13F0FACF14F0FBCF15F000C00EF090
:1000500001C00FF002C010F003C011F0F2AA34EF9B
:1000600000F0F2B4EEEF02F09DA03AEF00F09EB087
:100070001AEF03F00EC000F00FC001F010C002F044
:1000800011C003F00CC0E9FF07C0EAFF078E08C0EB
:10009000E1FF09C0E2FF0AC0D9FF0BC0DAFF12C0BE
:1000A000F3FF13C0F4FF14C0FAFF15C0FBFF0450A8
:1000B00006C0E0FF05C0D8FF1000176ED8CF18F0BB
:1000C000E0CF19F00001E9CF1FF0EACF1AF0E1CF3D
:1000D0001BF0E2CF1CF0D9CF1DF0DACF1EF0F3CF2A
:1000E00025F0F4CF26F0FACF27F0FBCF28F000C0A0
:1000F00021F001C022F002C023F003C024F09DAA29
:1001000085EF00F09EBABCEF02F021C000F022C0E3
:1001100001F023C002F024C003F01FC0E9FF1AC0A1
:10012000EAFF1A8E1BC0E1FF1CC0E2FF1DC0D9FF11
:100130001EC0DAFF25C0F3FF26C0F4FF27C0FAFF78
:1001400028C0FBFF175019C0E0FF18C0D8FF1000EF
:100150004E4F20454E5655454C544F000000000070
:1001600000000000454E5655454C544F000000001D
:10017000000000000000000044454C2E204E4F209F
:10018000454E5655454C544F0000000044454C2EFA
:1001900020454E5655454C544F00000000000000CD
:1001A000424F5749452026204449434B0000000058
:1001B000000000005445535420564143494F00006D
:1001C00000000000000000004C49425245000000C1
:1001D00000000000000000000000000054455354DF
:1001E00020434F4D502E0000000000000000000092
:1001F000484F5241205920464543484100000000E5
:1002000000000000434C4156450000000000000083
:1002100000000000000000004441544F53004125FD
:10022000752E7478743D222D2D2D2D220000412530
:10023000752E7478743D22506172616461220000F1
:100240004125752E7478743D225075657274612253
:1002500000004125752E7478743D225465726D6FCF
:10026000737461746F2200004125752E7478743D9B
:1002700022536F627265542200004125752E7478F6
:10028000743D225469656D706F2200004125752E02
:100290007478743D2250726573696F6E2200412537
:1002A000752E7478743D22426F6D62612200412583
:1002B000752E7478743D224572722E2056616369E2
:1002C0006F2200004125752E7478743D224C6C65B8
:1002D0006E61646F22004125752E7478743D224C46
:1002E0006C656E616E646F2200004125752E747816
:1002F000743D22566163696F22004125752E747822
:10030000743D2243616C656E22004125752E747820
:10031000743D22446573666F676122004125752E26
:100320007478743D2246696E616C697A61646F22EB
:1003300000004125752E7478743D22536563616E0B
:10034000646F22004125752E7478743D22457374C4
:100350006572696C697A616E646F22004125752E41
:100360007478743D22456E667269616E646F220016
:1003700074322E7478743D224163746976616461CD
:1003800020503A2530334C646B506120543A25326A
:100390002E3166B0432200007061676520456D65AF
:1003A0007267656E6369610046756E63696F6E6141
:1003B0006D69656E746F2E7434662E7478743D2288
:1003C000204E696E67756E61220046756E63696FB7
:1003D0006E616D69656E746F2E7434662E747874F8
:1003E0003D22205265736572766F72696F20566187
:1003F00063696F22000066656368612E7478743DDE
:100400002250633A2530334C64206B506120507089
:100410003A2530334C75206B506120543A25322EEA
:100420003166B04320486F72613A253032753A2503
:100430003032753A25303275220066656368612E68
:100440007478743D22214155544F434C4156452008
:10045000505245535552495A4144412C204E4F2049
:1004600041425241204C4120505545525441212295
:10047000000066656368612E7478743D2250633AAB
:100480002530334C64206B50612050703A25303356
:100490004C75206B506120543A25322E3166B043A2
:1004A00020486F72613A253032753A253032753AFC
:1004B00025303275220066656368612E7478743D5C
:1004C00022214155544F434C4156452050524553EB
:1004D0005552495A4144412C204142524120434FF8
:1004E0004E2050524543415543494F4E2122000072
:1004F00066656368612E7478743D2250633A2530D6
:10050000334C64206B50612050703A2530334C7569
:10051000206B506120543A25322E3166B04320487A
:100520006F72613A253032753A253032753A25308E
:100530003275220066656368612E7478743D2250BE
:10054000633A2530334C64206B50612050703A255B
:1005500030334C75206B506120543A25322E316671
:10056000B04320486F72613A253032753A253032F7
:10057000753A2530327522009EAAFED7AECF3DF3E4
:1005800003013D51650803E1010E3B6F466A3B2DB7
:100590000AD0036A46503B0FE96E000E0320EA6E54
:1005A0003DC3EFFF462A4650090802E2466A3B6B0C
:1005B000465210E13B5065080BE13C3C09D03D3C04
:1005C00007D0435205E1443C03D0050E3C6F02D0F6
:1005D0000A0E3C6F9E9A000185EF00F0D76AD66A3A
:1005E00003017D2BD8B47E2B0001A0AF20D00301E6
:1005F00062531AE16151050817E37E51805D07E3FC
:1006000003E17D517F5D03E38B92949202D08B8254
:1006100094927E51E90807E2FF0A03E17D515F08E9
:1006200002E27E6B7D6B02D08B9294920001F29479
:100630003AEF00F09E0ECF6E580ECE6E03014F2B98
:10064000D8B4502B512BD8B4522B532BD8B4542B95
:10065000552BD8B4562B0001A2AB05D00301792B42
:10066000D8B47A2B0001A2AF04D003017B2BD8B4FD
:100670007C2B0301372D1ED056510001AE5D0CE3DB
:1006800008E1AD510301555DD8A002D0000104D0AE
:1006900000018D82969202D08D929692B051030104
:1006A000565D08E305E10001AF510301555D02E32A
:1006B000566B556B505304E14F51C708D8B072D0F8
:1006C00034A101D0732B362B0001A6A503D0B12B8A
:1006D000D8B4B22BA6A703D0B32BD8B4B42BA0A503
:1006E00009D003013A514B5DD8A002D0000102D0DD
:1006F0004B2B06D003013A514B5D02E334834B6B25
:100700000001A0A505D0A0B703D0A72BD8B4A82B73
:10071000A0A105D0A0B303D0A92BD8B4AA2BA0AB1D
:1007200003D0AB2BD8B4AC2BA5AF05D00301322B33
:10073000D8B4332B0001A4A105D00301652BD8B494
:10074000662B0001A4A305D00301632BD8B4642B4E
:100750000001A3AD04D00301302BD8B4312B030129
:10076000506B4F6B0001A68B0301592BD8B45A2B49
:100770000001A0A70BD0A0BD09D0B55302E0B5077A
:1007800005D0B65303E0B6073B0EB56FA0A909D05C
:10079000B75302E0B70705D0B85303E0B8073B0EE4
:1007A000B76F03019E9000013AEF00F0706167653A
:1007B000204269656E76656E69646100626B636D87
:1007C000643D30007061676520436C6176650000B0
:1007D000626B636D643D30007061676520436C61DE
:1007E0007665000074302E7478743D2225752200E1
:1007F0007661302E76616C3D310074302E747874E1
:100800003D222575257522007661302E76616C3D7E
:10081000320074302E7478743D2225752575257547
:1008200022007661302E76616C3D330074302E7478
:1008300078743D222575257525752575220076610C
:10084000302E76616C3D340074302E7478743D2205
:1008500022007061676520436C617665436F727238
:100860006563746100007061676520436C61766543
:10087000426164007061676520436F6E666967005E
:1008800070616765204D656E755072696E63697041
:10089000616C00007061676520436C6176650000E3
:1008A000746974756C6F2E7478743D22436C617634
:1008B00065204E7565766122000070616765204D88
:1008C000656E755072696E636970616C0000746961
:1008D00074756C6F2E7478743D22436C617665205C
:1008E0004E7565766122000070616765204D656E0A
:1008F000755072696E636970616C00007061676544
:10090000204D656E755072696E636970616C000090
:10091000746974756C6F2E7478743D22436C6176C3
:1009200065204E75657661220000646F6576656EA0
:1009300074730000746974756C6F2E7478743D2242
:10094000436C6176652041637475616C2200646F4D
:100950006576656E74730000746974756C6F2E74BF
:1009600078743D22436C617665205465636E6963DB
:100970006F220000646F6576656E747300007469A1
:1009800074756C6F2E7478743D22496E677265734E
:100990006520436F6E7472617365F161220070614E
:1009A000676520436C617665436F7272656374613D
:1009B00000007061676520436C6176654261640088
:1009C0007061676520436F6E666967007061676577
:1009D000204D656E755072696E636970616C0000C0
:1009E0007061676520436C61766500007469747599
:1009F0006C6F2E7478743D22436C617665204E7561
:100A000065766122000070616765204D656E7550E6
:100A100072696E636970616C0000746974756C6FE3
:100A20002E7478743D22436C617665204E75657630
:100A30006122000070616765204D656E75507269B6
:100A40006E636970616C00007061676520436C6162
:100A50007665000070616765204369636C6F7300A1
:100A60007061676520436C61766500007061676541
:100A70002046656368610000706167652054657396
:100A8000740070616765204369636C6F50657273B1
:100A90006F6E6100706167652046756E63696F6E89
:100AA000616D69656E746F00706167652046756E73
:100AB00063696F6E616D69656E746F007061676503
:100AC0002046756E63696F6E616D69656E746F0047
:100AD000706167652046756E63696F6E616D6965EB
:100AE0006E746F00706167652046756E63696F6E26
:100AF000616D69656E746F00706167652046756E23
:100B000063696F6E616D69656E746F0062632E70EC
:100B100069633D25750062642E7069633D2575002B
:100B200062692E7069633D25750062632E7069638A
:100B3000323D2575000062642E706963323D257573
:100B4000000062692E706963323D2575000074658E
:100B500078746F702E7478743D222573220062635E
:100B60002E7069633D25750062642E7069633D25B2
:100B7000750062692E7069633D25750062632E7091
:100B80006963323D2575000062642E706963323DF1
:100B90002575000062692E706963323D257500007D
:100BA000746578746F702E7478743D2225732200FA
:100BB00062632E7069633D25750062642E706963FF
:100BC0003D25750062692E7069633D25750062637D
:100BD0002E706963323D2575000062642E70696372
:100BE000323D2575000062692E706963323D2575BE
:100BF0000000746578746F702E7478743D222573CC
:100C0000220074746974756C6F2E7478743D22536D
:100C1000454C454343494F4E452053552043494396
:100C20004C4F22007061676520436C61766500005F
:100C300070616765204369636C6F506572736F6E96
:100C40006100747365636573742E70636F3D363530
:100C500035333500746D696E6573742E70636F3D46
:100C60003000747365636573742E70636F3D30007C
:100C7000746D696E6573742E70636F3D36353533F0
:100C80003500746D696E6573742E7478743D222519
:100C9000303275220000747365636573742E747846
:100CA000743D222530327522000070616765204353
:100CB00069636C6F506572736F6E6100746D696EFD
:100CC0007365632E70636F3D300074736563736585
:100CD000632E70636F3D363535333500746D696E44
:100CE0007365632E70636F3D36353533350074732D
:100CF00065637365632E70636F3D3000746D696E5C
:100D00007365632E7478743D22253032752200009D
:100D1000747365637365632E7478743D2225303275
:100D20007522000070616765204369636C6F5065D0
:100D300072736F6E61007473657474656D2E747870
:100D4000743D2225303375220000706167652043B1
:100D500069636C6F506572736F6E6100746E697653
:100D6000656C2E7478743D222530324C752200005B
:100D700062302E62636F3D323031360062302E6257
:100D8000636F3D3633343838000062312E62636F52
:100D90003D323031360062312E62636F3D3633347E
:100DA0003838000062322E62636F3D3230313600D7
:100DB00062322E62636F3D3633343838000062335E
:100DC0002E62636F3D323031360062332E62636FC4
:100DD0003D3633343838000062342E62636F3D3262
:100DE0003031360062342E62636F3D36333438382A
:100DF000000062352E62636F3D323031360062355D
:100E00002E62636F3D3633343838000062362E620E
:100E1000636F3D323031360062362E62636F3D368D
:100E200033343838000062372E62636F3D32303120
:100E3000360062372E62636F3D3633343838000037
:100E40006232312E62636F3D3230313600006232E1
:100E5000312E62636F3D3633343838006232322EC1
:100E600062636F3D3230313600006232322E62638F
:100E70006F3D3633343838006231362E62636F3D51
:100E80003230313600006231362E62636F3D3633C8
:100E90003438380062382E62636F3D3230313600AC
:100EA00062382E62636F3D36333438380000623961
:100EB0002E62636F3D323031360062392E62636FCD
:100EC0003D363334383800006231302E62636F3D76
:100ED0003230313600006231302E62636F3D36337E
:100EE000343838006231322E62636F3D3230313631
:100EF00000006231322E62636F3D36333438380081
:100F00006231372E62636F3D32303136000062311C
:100F1000372E62636F3D3633343838006232332EF9
:100F200062636F3D3230313600006232332E6263CD
:100F30006F3D3633343838006232352E62636F3D90
:100F40003230313600006232352E62636F3D363307
:100F5000343838006231332E7478743D2241444372
:100F6000303A25332E30662200006231342E7478F8
:100F7000743D22414443313A25332E30662200002D
:100F80006231352E7478743D2241353A25332E3046
:100F900066202530334C752200006231382E74787B
:100FA000743D2241343A25332E3066202530334CAF
:100FB000752200006231392E7478743D2225332E5B
:100FC00031662025332E316622006232302E74784D
:100FD000743D2225332E31662025332E31662200C2
:100FE00070616765204D656E755072696E636970DA
:100FF000616C000070616765204D656E75507269A7
:101000006E636970616C000074686F72612E747831
:10101000743D2225303275220000746D696E75743E
:101020006F732E7478743D222530327522007464FB
:1010300069612E7478743D22253032752200746DFA
:1010400065732E7478743D222530327522007479D0
:101050006561722E7478743D22253032752200004D
:101060006369636C6F2E7478743D224349434C4F1F
:10107000205025303275220074656D702E7478749E
:101080003D2225752200746573742E7478743D2298
:10109000253032753A25303275220000747365634D
:1010A0002E7478743D22253032753A2530327522FF
:1010B000000070756C736F732E7478743D22253048
:1010C00032752200766163696F2E7478743D222533
:1010D000303375206B50612200006369636C6F2EA2
:1010E0007478743D224349434C4F20502D2D2200EB
:1010F00074656D702E7478743D222D2D22007465F8
:1011000073742E7478743D222D2D3A2D2D220000FB
:10111000747365632E7478743D222D2D3A2D2D2223
:10112000000070756C736F732E7478743D222D2DD2
:101130002D220000766163696F2E7478743D222D34
:101140002D2D22006369636C6F2E7478743D2243E9
:1011500049434C4F205025303275220074656D7024
:101160002E7478743D2225752200746573742E7474
:1011700078743D22253032753A25303275220000D0
:10118000747365632E7478743D22253032753A2568
:1011900030327522000070756C736F732E74787422
:1011A0003D22253032752200766163696F2E747896
:1011B000743D2225303375206B5061220000706130
:1011C0006765204D656E755072696E636970616CFC
:1011D0000000706167652054656D7065726174759B
:1011E0007261000070616765205469656D706F45BC
:1011F0007374000070616765205469656D706F538A
:1012000065630000706167652050756C736F7300D3
:1012100070616765204E6976656C00007061676576
:101220002046756E63696F6E616D69656E746F00DF
:1012300070616765204369636C6F506572736F6E90
:1012400061007470756C736F732E7478743D222511
:101250007522000065737461646F2E7478743D228A
:101260002D2D2D2D220070616765204D656E755006
:1012700072696E636970616C000068302E76616C13
:101280003D25750068312E76616C3D25750068310D
:101290002E76616C3D25750068302E76616C3D259B
:1012A000750074302E7478743D2221494D50524996
:1012B0004D49454E444F2122000066656368612E0A
:1012C0007478743D22253032752F253032752F25E4
:1012D0003032752200006369636C6F2E7478743D40
:1012E000222530327522000074302E7478743D222D
:1012F0004369636C6F202530327522007573756108
:1013000072696F2E7478743D222D2D2D2200686F26
:10131000726125752E7478743D22253032752E2029
:1013200020253032753A2530327522005425752E2D
:101330007478743D2225332E3166B0432200506309
:1013400025752E7478743D222530334C756B5061B1
:10135000220050706325752E7478743D2225303339
:101360004C756B506122000070616765204D656EA1
:10137000755072696E636970616C000070616765B9
:1013800020436C61766500007432662E7478743D7B
:101390002225752200007433662E7478743D222550
:1013A000732200007432662E7478743D22257522F3
:1013B00000007433662E7478743D22506572736F2A
:1013C0006E616C697A61646F220046756E63696F45
:1013D0006E616D69656E746F2E7434662E747874E8
:1013E0003D222050617261646120646520456D6515
:1013F0007267656E63696122000046756E63696F8E
:101400006E616D69656E746F2E7435662E747874B6
:101410003D222043616E63656C61646F22004675F6
:101420006E63696F6E616D69656E746F2E7434667C
:101430002E7478743D22205075657274612041626B
:10144000696572746122000046756E63696F6E6132
:101450006D69656E746F2E7435662E7478743D22D6
:10146000205061757361646F220046756E63696F09
:101470006E616D69656E746F2E7434662E74787447
:101480003D22205469656D706F204C6C656E6164FF
:101490006F22000046756E63696F6E616D69656EDF
:1014A000746F2E7435662E7478743D222043616EFD
:1014B00063656C61646F220046756E63696F6E616F
:1014C0006D69656E746F2E7434662E7478743D2267
:1014D000205465726D6F737461746F2200004675DD
:1014E0006E63696F6E616D69656E746F2E743566BB
:1014F0002E7478743D222043616E63656C61646F65
:10150000220046756E63696F6E616D69656E746FFA
:101510002E7434662E7478743D2220536F62726587
:1015200074656D7065726174757261220000467534
:101530006E63696F6E616D69656E746F2E7435666A
:101540002E7478743D222043616E63656C61646F14
:10155000220046756E63696F6E616D69656E746FAA
:101560002E7434662E7478743D22205469656D7033
:101570006F2050726F6C6F6E6761646F22004675EA
:101580006E63696F6E616D69656E746F2E7435661A
:101590002E7478743D222043616E63656C61646FC4
:1015A000220046756E63696F6E616D69656E746F5A
:1015B0002E7434662E7478743D2220536F627265E7
:1015C00050726573696F6E22000046756E63696FB5
:1015D0006E616D69656E746F2E7435662E747874E5
:1015E0003D222043616E63656C61646F2200467525
:1015F0006E63696F6E616D69656E746F2E743466AB
:101600002E7478743D22204572726F7220426F6D85
:101610006261220046756E63696F6E616D69656E09
:10162000746F2E7435662E7478743D222043616E7B
:1016300063656C61646F220046756E63696F6E61ED
:101640006D69656E746F2E7434662E7478743D22E5
:10165000204572726F7220566163696F2200467571
:101660006E63696F6E616D69656E746F2E74356639
:101670002E7478743D222043616E63656C61646FE3
:10168000220046756E63696F6E616D69656E746F79
:101690002E7434662E7478743D22204E696E677500
:1016A0006E61220046756E63696F6E616D69656E6D
:1016B000746F2E7435662E7478743D22204C6C65E0
:1016C0006E61646F2047656E657261646F7222009F
:1016D00046756E63696F6E616D69656E746F2E74A9
:1016E00034662E7478743D22205265736572766F6D
:1016F00072696F20566163696F22000046756E63E0
:10170000696F6E616D69656E746F2E7435662E74C7
:1017100078743D22204C6C656E61646F2047656E65
:10172000657261646F72220046756E63696F6E61E7
:101730006D69656E746F2E7434662E7478743D22F4
:10174000204E696E67756E61220046756E63696F23
:101750006E616D69656E746F2E7435662E74787463
:101760003D222050726543616C656E74616E646FDA
:10177000220046756E63696F6E616D69656E746F88
:101780002E7435662E7478743D222050756C736FFC
:1017900020646520566163696F20257522004675B7
:1017A0006E63696F6E616D69656E746F2E743566F8
:1017B0002E7478743D222050756C736F20506F73B7
:1017C000697469766F202575220046756E63696FAE
:1017D0006E616D69656E746F2E7434662E747874E4
:1017E0003D22204E696E67756E61220046756E63FC
:1017F000696F6E616D69656E746F2E7435662E74D7
:1018000078743D222043616C656E74616E646F2252
:10181000000046756E63696F6E616D69656E746F09
:101820002E7434662E7478743D22204E696E67756E
:101830006E61220046756E63696F6E616D69656EDB
:10184000746F2E7435662E7478743D222046696E4E
:10185000616C697A61646F22000046756E63696F1E
:101860006E616D69656E746F2E7434662E74787453
:101870003D22204E696E67756E61220046756E636B
:10188000696F6E616D69656E746F2E7435662E7446
:1018900078743D2220446573707265737572697A3D
:1018A000616E646F220046756E63696F6E616D696B
:1018B000656E746F2E7434662E7478743D22204EDB
:1018C000696E67756E61220046756E63696F6E6141
:1018D0006D69656E746F2E7435662E7478743D2252
:1018E0002046696E616C697A61646F2200004675FA
:1018F0006E63696F6E616D69656E746F2E743466A8
:101900002E7478743D22204E696E67756E612200D8
:1019100046756E63696F6E616D69656E746F2E7466
:1019200035662E7478743D2220536563616E646F52
:10193000220046756E63696F6E616D69656E746FC6
:101940002E7434662E7478743D22204E696E67754D
:101950006E61220046756E63696F6E616D69656EBA
:10196000746F2E7435662E7478743D22204465732E
:10197000707265737572697A616E646F2200467564
:101980006E63696F6E616D69656E746F2E74346617
:101990002E7478743D22204E696E67756E61220048
:1019A00046756E63696F6E616D69656E746F2E74D6
:1019B00035662E7478743D22204573746572696CA7
:1019C000697A616E646F220046756E63696F6E613D
:1019D0006D69656E746F2E7434662E7478743D2252
:1019E000204E696E67756E61220046756E63696F81
:1019F0006E616D69656E746F2E7435662E747874C1
:101A00003D2220566163696F220046756E63696FDF
:101A10006E616D69656E746F2E7434662E747874A1
:101A20003D22204572726F72204369636C6F220001
:101A300046756E63696F6E616D69656E746F2E7445
:101A400035662E7478743D222046696E616C697A21
:101A500061646F22000046756E63696F6E616D6927
:101A6000656E746F2E7434662E7478743D22204E29
:101A7000696E67756E61220046756E63696F6E618F
:101A80006D69656E746F2E7435662E7478743D22A0
:101A9000204D616E74656E69656E646F205661637A
:101AA000696F220046756E63696F6E616D69656E60
:101AB000746F2E7434662E7478743D22204E696ED5
:101AC00067756E61220046756E63696F6E616D6940
:101AD000656E746F2E7435662E7478743D222046C0
:101AE000696E616C697A61646F22000046756E638D
:101AF000696F6E616D69656E746F2E7434662E74D5
:101B000078743D22204572726F72204369636C6F56
:101B1000220046756E63696F6E616D69656E746FE4
:101B20002E7435662E7478743D222046696E616C81
:101B3000697A61646F2200006164642031342C3062
:101B40002C25312E306600006164642031342C3144
:101B50002C25312E306600006164642031342C3233
:101B60002C25312E3066000074757365722E7478E2
:101B7000743D2225732200007436662E7478743DFD
:101B80002225332E3166B043220046756E63696F9D
:101B90006E616D69656E746F2E7437662E7478741D
:101BA0003D222530334C756B5061220046756E63C3
:101BB000696F6E616D69656E746F2E743132662E59
:101BC0007478743D222530334C756B5061220000CF
:101BD00046756E63696F6E616D69656E746F2E74A4
:101BE00039662E7478743D2225303375220046758F
:101BF0006E63696F6E616D69656E746F2E743966A0
:101C00002E7478743D222D2D2D22000046756E63B2
:101C1000696F6E616D69656E746F2E743130662EFA
:101C20007478743D222530327522000046756E634B
:101C3000696F6E616D69656E746F2E743133662ED7
:101C40007478743D222530327522000046756E632B
:101C5000696F6E616D69656E746F2E743131662EB9
:101C60007478743D222530327522000046756E630B
:101C7000696F6E616D69656E746F2E743136662E94
:101C80007478743D222530327522000066656368E1
:101C9000612E7478743D2246656368613A2530325E
:101CA000752F253032752F323025303275202020A7
:101CB00020486F72613A20253032753A25303275EE
:101CC0003A2530327522000070616765204D656EDF
:101CD000755072696E636970616C0000436F6E6667
:101CE00069672E7432632E7478743D2250726F705F
:101CF0006F7263696F6E616C22007433632E747847
:101D0000743D2225322E30662200436F6E6669676D
:101D10002E7432632E7478743D2244657269766144
:101D20007469766F22007433632E7478743D2225B3
:101D300075220000436F6E6669672E7432632E74DD
:101D400078743D22496E74656772616C2200743349
:101D5000632E7478743D222575220000436F6E66F1
:101D600069672E7432632E7478743D2254636963FC
:101D70006C6F22007433632E7478743D2225322EEA
:101D800030662200436F6E6669672E7432632E746C
:101D900078743D22416A75737465202B2200743378
:101DA000632E7478743D222575220000436F6E66A1
:101DB00069672E7432632E7478743D22416A75739C
:101DC0007465202D22007433632E7478743D2225AF
:101DD00075220000436F6E6669672E7432632E743D
:101DE00078743D22416A7573746532202B2200009D
:101DF0007433632E7478743D222575220000436F7E
:101E00006E6669672E7432632E7478743D22416A5F
:101E10007573746532202D2200007433632E74783C
:101E2000743D222575220000436F6E6669672E742B
:101E300032632E7478743D224D656469612200001E
:101E40007433632E7478743D222575220000436F2D
:101E50006E6669672E7432632E7478743D22545412
:101E600072616D70612200007433632E7478743D6A
:101E70002225303275220000436F6E6669672E742A
:101E800032632E7478743D224E6976656C20446509
:101E9000736622007433632E7478743D22253032C9
:101EA0004C752200436F6E6669672E7432632E7420
:101EB00078743D224369636C6F7322007433632E20
:101EC0007478743D222530354C752200436F6E6660
:101ED00069672E7432632E7478743D2241746D6F7D
:101EE000736665726963612200007433632E7478CF
:101EF000743D2225303375220000436F6E6669679A
:101F00002E7432632E7478743D22542E20417065F5
:101F100072747572612200007433632E7478743D9C
:101F2000222530337522000070616765204D656E93
:101F3000755072696E636970616C000066656368F4
:101F4000612E7478743D2246656368613A253032AB
:101F5000752F253032752F323025303275202020F4
:101F600020486F72613A20253032753A253032753B
:101F70002200070EEA6EE96AEF500DE0060E016ED0
:101F8000006A002EFED7012EFBD77B0E006E002EBE
:101F9000FED7EF2EF3D7000C8E0E006E01C701F0B6
:101FA00000C702F0036A015209E102C001F0026AAF
:101FB000080E005E015202E1006A08D0D89001BE0E
:101FC00004D0023601360006F9D7019E000C060146
:101FD000FA51D8B4BCD00701066F0601FE51D8B43F
:101FE000B6D00701065F07E37F0E0627D8A002D010
:101FF0000601ADD00AD0810E065FD8B002D006012E
:10200000A6D0D8A402D00601A2D006C700F0016A6B
:10201000026A036A056BFBC604F7048FFCC603F76C
:10202000FDC602F7190E066F0151025F0DE2010EA7
:10203000035F0AE2045F08E2055F06E2052B042B5A
:10204000032B015102272CD00051035F12E2010E35
:10205000045F0FE2055F0DE2052B042B00510327FF
:10206000015102271DE3032B1BE1042B19E1052B72
:1020700017D00601FF5180090701045F10E2010E2D
:10208000055F0DE2052B0601FF51800907010427BA
:1020900000510327E5E3042BE3E1052BE1D703809F
:1020A000062F01D00BD0D8900237033704370537FD
:1020B000D8900336023601360737B6D707A106D0C7
:1020C000D890013202320332073304D0002E02D0FE
:1020D00006013DD007BF20D0D89002370337043720
:1020E00005370151025F07E2010E035F04E2045F5E
:1020F00002E2055F1FE30051035F05E2010E045F8A
:1021000002E2055F17E30601FF5180090701045F42
:1021100003E2010E055F0EE3032A0CE1022A0AE145
:10212000012A08E1002AD8A402D0060110D0013209
:1021300002320332FBC606F70601FF510701061BF8
:1021400006AF02D0018E08D0019E06D00601006ABB
:10215000016A026A036A07010001000C800ED8A21E
:1021600002D00701051B07010A6B0B6B01C709F7BA
:102170000551091B0051D8B4DED0086F006E045120
:10218000D8B4E2D0085FD8B482D03EE305C70EF7DA
:102190000E8F06C70DF707C70CF70B6BD8900E33E1
:1021A0000D330C330B33082FF8D709AF03D00A8156
:1021B000DFD00A9108910A89070EEA6E030EE96ED4
:1021C000EAD00A9909BF0AD008A113D00E330D3303
:1021D0000C330B33002AD8B4C6D00BD00EBF0CD0B2
:1021E000D8900B370C370D370E370006D8B4BBD05C
:1021F000F5D70A8D6CD00A9D01C709F701AF02D04F
:102200000E8FAAD00E9FA8D004C708F704C700F00D
:102210000051085F01C70EF70E8F02C70DF703C705
:102220000CF70B6BD8900E330D330C330B33082F98
:10223000F8D709AF03D00A839BD00A9308910A8B81
:10224000070EEA6EE96EA7D00A9B09BF0AD008A163
:1022500013D00E330D330C330B33002AD8B483D094
:102260000BD00EBF0CD0D8900B370C370D370E3774
:102270000006D8B478D0F5D70A8F29D00A9F05C7B1
:1022800009F705AF02D00E8F67D00E9F65D005C746
:102290000EF70E8F06C70DF707C70CF709AF04D06E
:1022A0000E9F0A8565D00A950B6B0891070EEA6EA2
:1022B000030EE96E70D009BF1CD001C709F708A151
:1022C00006D00E330D330C330B33002A4CE00BAF2A
:1022D0000BD00C2B09E10D2B07E10E2B05E10E3382
:1022E0000D330C33002A3FE00ABD85D70ABFC6D79D
:1022F0001CD0800E0E1B0EAF04D03AD005C709F7D4
:102300000AD001C709F70E5306E10D5304E10C533F
:1023100002E1006A21D00EBF08D0D8900B370C37ED
:102320000D370E37002EF7D71ED009AF02D00E8F13
:1023300013D00E9F11D004C700F005C70EF706C7D3
:102340000DF707C70CF708D000C700F001C70EF75C
:1023500002C70DF703C70CF70EC701F00DC702F057
:102360000CC703F034D0006A016A026A036A2FD0F6
:102370000B6B0C1F0D1F0E1F0B1F0B2B05E10C2BE6
:1023800003E10D2B01E10E2B0AB113D70AB355D788
:102390000AB589D7B3D7EF500C2705E30D2B03E11E
:1023A0000E2BD8B40881ED52EF500D2703E30E2B0E
:1023B000D8B40881ED52EF50EFBE01D0800A0E274D
:1023C000D8B008810AB9FDD60ABB3ED774D7000140
:1023D000000C0601F851FA03F3CF01F0F4CF00F03E
:1023E000FB03F3500026F951FA03F3500020026E6C
:1023F0000001000C080E016E050E006E002EFED7C7
:102400008B969496060E006E002EFED707010137BC
:102410008B98D8B09488D8A09498948682A6FED73A
:10242000012E01D002D00001E7D7050E006E002E6C
:10243000FED78B96949600009488060E006E002EB0
:10244000FED7060E006E002EFED7948682A6FED71B
:10245000016A060E006E002EFED782B801808B96B0
:1024600094968B9894980001000C080E0601F76F63
:1024700000C0F8F69488060E006E002EFED79486F3
:1024800082A6FED782B8D88082A8D8900136050EE1
:10249000006E002EFED794968B96F72FEBD794887C
:1024A000060E006E002EFED78B98F851D8A4949893
:1024B0000000948682A6FED7050E006E002EFED781
:1024C0008B969496060E006E002EFED78B989498ED
:1024D0000001A8EF12F09488050E006E002EFED7C2
:1024E0009486060E006E002EFED78B989498050EEB
:1024F000006E002EFED78B969496A00E0701016FFA
:10250000000178DFF4C6F6F60601F76BF4C601F7B2
:10251000000170DFF3C601F76DDF9488050E006ED1
:10252000002EFED79486060E006E002EFED782A6E1
:10253000FED78B989498050E006E002EFED78B96D2
:102540009496A10E0701016F000154DF006A8DD738
:1025500001C0F5F694980000948682A6FED7050E79
:10256000006E002EFED700D000009488050E006E8D
:10257000002EFED70601F5C601F00001000C070190
:10258000016BF2C600F7000107DD03C0F6F602C0DA
:10259000F5F601C0F4F600C0F3F6F6C6FDF6F5C692
:1025A000FCF6F4C6FBF6F3C6FAF60701016B006B06
:1025B000200E0601FF6F820EFE6F000108DD000C89
:1025C000F5C6FCF60601F951FC1BFCAF05D0D8940A
:1025D000D890F5BFD8802FD0F5C6FCF6F8C6FDF62A
:1025E000F451FD5F06E0FCAF26D0D850010AD86E4A
:1025F00022D0F9C6FDF6F551FD5F06E0FCAF1BD019
:10260000D850010AD86E17D0FAC6FDF6F651FD5F14
:1026100006E0FCAF10D0D850010AD86E0CD0FBC633
:10262000FDF6F751FD5F06E0FCAF05D0D850010A7A
:10263000D86E01D0D8900001000CF2CFEEF6F29CDB
:10264000F29EAA6A0A0EA96EA69CA69EA680A85013
:102650000601EEBDF28CEEBFF28E03016B6F0A0E27
:102660000701006F000185DCF2CFEEF6F29CF29ECE
:10267000AA6A0B0EA96EA69CA69EA680A85006016B
:10268000EEBDF28CEEBFF28E03016C6F0A0E0701F5
:10269000006F00016EDCF2CFEEF6F29CF29EAA6AA9
:1026A0000C0EA96EA69CA69EA680A8500601EEBDA3
:1026B000F28CEEBFF28E03016D6F0A0E0701006F00
:1026C000000157DCF2CFEEF6F29CF29EAA6A0D0EE4
:1026D000A96EA69CA69EA680A8500601EEBDF28C0F
:1026E000EEBFF28E03016E6F0A0E0701006F00014C
:1026F00040DCF2CFEEF6F29CF29EAA6A120EA96EB0
:10270000A69CA69EA680A8500601EEBDF28CEEBF48
:10271000F28E0301246F0A0E0701006F000129DC0D
:10272000F2CFEEF6F29CF29EAA6A130EA96EA69C58
:10273000A69EA680A8500601EEBDF28CEEBFF28EDA
:102740000301256F0A0E0701006F000112DCF2CFB2
:10275000EEF6F29CF29EAA6A140EA96EA69CA69EA4
:10276000A680A8500601EEBDF28CEEBFF28E0701E6
:10277000016B006F000110DC03C0EFF202C0EEF24B
:1027800001C0EDF200C0ECF20A0E0701006F00017B
:10279000B9EC0FF0F2CFEEF6F29CF29EAA6A150E9B
:1027A000A96EA69CA69EA680A8500601EEBDF28C3E
:1027B000EEBFF28E04011C6F0A0E0701006F0001CC
:1027C000B9EC0FF0F2CFEEF6F29CF29EAA6A160E6A
:1027D000A96EA69CA69EA680A8500601EEBDF28C0E
:1027E000EEBFF28E04011D6F0A0E0701006F00019B
:1027F000B9EC0FF0F2CFEEF6F29CF29EAA6A170E39
:10280000A96EA69CA69EA680A8500601EEBDF28CDD
:10281000EEBFF28E0501806F0A0E0701006F000106
:10282000B9EC0FF0F2CFEEF6F29CF29EAA6A180E07
:10283000A96EA69CA69EA680A8500601EEBDF28CAD
:10284000EEBFF28E0501816F0A0E0701006F0001D5
:10285000B9EC0FF0F2CFEEF6F29CF29EAA6A190ED6
:10286000A96EA69CA69EA680A8500601EEBDF28C7D
:10287000EEBFF28E0201C66F0A0E0701006F000163
:10288000B9EC0FF0F2CFEEF6F29CF29EAA6A1A0EA5
:10289000A96EA69CA69EA680A8500601EEBDF28C4D
:1028A000EEBFF28E0701016B006F0001CCEC0FF060
:1028B00003C0D7F202C0D6F201C0D5F200C0D4F2F4
:1028C0000A0E0701006F0001B9EC0FF0F2CFEEF62F
:1028D000F29CF29EAA6A1B0EA96EA69CA69EA680DA
:1028E000A8500601EEBDF28CEEBFF28E0701016B1F
:1028F000006F0001CCEC0FF003C0A9F202C0A8F2F7
:1029000001C0A7F200C0A6F2A9C2FDF6A8C2FCF65B
:10291000A7C2FBF6A6C2FAF60701016B006B200EF8
:102920000601FF6F820EFE6F0001E7EC0FF003C09F
:10293000A9F202C0A8F201C0A7F200C0A6F20A0ED6
:102940000701006F0001B9EC0FF0F2CFEEF6F29C38
:10295000F29EAA6A1C0EA96EA69CA69EA680A850EE
:102960000601EEBDF28CEEBFF28E0701016B006F27
:102970000001CCEC0FF0D89203C003F702C002F7BD
:1029800001C001F700C000F7A9C207F7A8C206F707
:10299000A7C205F7A6C204F7AEEC10F003C011F40D
:1029A00002C010F401C00FF400C00EF40A0E0701BB
:1029B000006F0001B9EC0FF0F2CFEEF6F29CF29E40
:1029C000AA6A1D0EA96EA69CA69EA680A850060106
:1029D000EEBDF28CEEBFF28E0701016B006F0001BD
:1029E000CCEC0FF003C0A9F202C0A8F201C0A7F21C
:1029F00000C0A6F2A9C2FDF6A8C2FCF6A7C2FBF66B
:102A0000A6C2FAF60701016B006B200E0601FF6FEC
:102A1000820EFE6F0001E7EC0FF003C0A9F202C0C6
:102A2000A8F201C0A7F200C0A6F20A0E0701006FCB
:102A30000001B9EC0FF0F2CFEEF6F29CF29EAA6A1A
:102A40001E0EA96EA69CA69EA680A8500601EEBDED
:102A5000F28CEEBFF28E0701016B006F0001CCEC2F
:102A60000FF0D89203C003F702C002F701C001F7CC
:102A700000C000F7A9C207F7A8C206F7A7C205F76A
:102A8000A6C204F7AEEC10F003C075F502C074F5F1
:102A900001C073F500C072F50A0E0701006F000156
:102AA000B9EC0FF0F2CFEEF6F29CF29EAA6A1F0E7E
:102AB000A96EA69CA69EA680A8500601EEBDF28C2B
:102AC000EEBFF28E03012D6F0A0E0701006F0001A9
:102AD000B9EC0FF0F2CFEEF6F29CF29EAA6A200E4D
:102AE000A96EA69CA69EA680A8500601EEBDF28CFB
:102AF000EEBFF28E0201CB6F0A0E0701006F0001DC
:102B0000B9EC0FF0F2CFEEF6F29CF29EAA6A250E17
:102B1000A96EA69CA69EA680A8500601EEBDF28CCA
:102B2000EEBFF28E0301436F0A0E0701006F000132
:102B3000B9EC0FF0F2CFEEF6F29CF29EAA6A260EE6
:102B4000A96EA69CA69EA680A8500601EEBDF28C9A
:102B5000EEBFF28E0301446F0A0E0701006F000101
:102B6000B9EC0FF044C360F343C35FF30A0E0701EF
:102B7000006F0001B9EC0FF0F2CFEEF6F29CF29E7E
:102B8000AA6A270EA96EA69CA69EA680A85006013A
:102B9000EEBDF28CEEBFF28E0301276F0A0E070125
:102BA000006F0001B9EC0FF0F2CFEEF6F29CF29E4E
:102BB000AA6A280EA96EA69CA69EA680A850060109
:102BC000EEBDF28CEEBFF28E0301386F0A0E0701E4
:102BD000006F0001B9EC0FF0F2CFEEF6F29CF29E1E
:102BE000AA6A290EA96EA69CA69EA680A8500601D8
:102BF000EEBDF28CEEBFF28E0301396F0A0E0701B3
:102C0000006F0001B9EC0FF0F2CFEEF6F29CF29EED
:102C1000AA6A2A0EA96EA69CA69EA680A8500601A6
:102C2000EEBDF28CEEBFF28E0301906F0A0E07012B
:102C3000006F0001B9EC0FF0F2CFEEF6F29CF29EBD
:102C4000AA6A2B0EA96EA69CA69EA680A850060175
:102C5000EEBDF28CEEBFF28E0301916F0A0E0701FA
:102C6000006F0001B9EC0FF0030191BF05D0915145
:102C7000280802E2280E916FF2CFEEF6F29CF29E47
:102C8000AA6A2C0EA96EA69CA69EA680A850060134
:102C9000EEBDF28CEEBFF28E0301926F0A0E0701B9
:102CA000006F0001B9EC0FF0F2CFEEF6F29CF29E4D
:102CB000AA6A2D0EA96EA69CA69EA680A850060103
:102CC000EEBDF28CEEBFF28E0301936FF2CFEEF603
:102CD000F29CF29EAA6A2E0EA96EA69CA69EA680C3
:102CE000A8500601EEBDF28CEEBFF28E0301626BBE
:102CF000616F426B42510308D8A0E6D242510A0DDF
:102D0000F3500601EF6BEE6FC60EEE25E96E060E70
:102D1000EF21EA6E03014251080DF350640F0601E2
:102D2000F06FF2CFF1F6F29CF29EAA6AF0C6A9FF0C
:102D3000A69CA69EA680A850F1BDF28CF1BFF28E93
:102D4000EF6E030142510A0DF3500601EF6BEE6F77
:102D5000090EEE25016E000EEF21036E0150C60F25
:102D6000E96E060E0320EA6E03014251080DF3508E
:102D7000650F0601F06FF2CFF1F6F29CF29EAA6A9F
:102D8000F0C6A9FFA69CA69EA680A850F1BDF28C15
:102D9000F1BFF28EEF6E030142510A0DF3500601AE
:102DA000EF6BEE6F030EEE25016E000EEF21036E4A
:102DB0000150C60FE96E060E0320EA6E0301425170
:102DC000080DF350660F0601F06FF2CFF1F6F29C9A
:102DD000F29EAA6AF0C6A9FFA69CA69EA680A8504D
:102DE000F1BDF28CF1BFF28EEF6E030142510A0D7C
:102DF000F3500601EF6BEE6F040EEE25016E000E30
:102E0000EF21036E0150C60FE96E060E0320EA6E35
:102E100003014251080DF350670F0601F06FF2CF26
:102E2000F1F6F29CF29EAA6AF0C6A9FFA69CA69EA5
:102E3000A680A850F1BDF28CF1BFF28EEF6E0301B7
:102E400042510A0DF3500601EF6BEE6F050EEE25B1
:102E5000016E000EEF21036E0150C60FE96E060EE3
:102E60000320EA6E03014251080DF350680F06017A
:102E7000F06FF2CFF1F6F29CF29EAA6AF0C6A9FFBB
:102E8000A69CA69EA680A850F1BDF28CF1BFF28E42
:102E9000EF6E030142510A0DF3500601EF6BEE6F26
:102EA000060EEE25016E000EEF21036E0150C60FD7
:102EB000E96E060E0320EA6E03014251080DF3503D
:102EC000690F0601F06FF2CFF1F6F29CF29EAA6A4A
:102ED000F0C6A9FFA69CA69EA680A850F1BDF28CC4
:102EE000F1BFF28EEF6E030142510A0DF35006015D
:102EF000EF6BEE6F070EEE25016E000EEF21036EF5
:102F00000150C60FE96E060E0320EA6E030142511E
:102F1000080DF3506A0F0601F06FF2CFF1F6F29C44
:102F2000F29EAA6AF0C6A9FFA69CA69EA680A850FB
:102F3000F1BDF28CF1BFF28EEF6E030142510A0D2A
:102F4000F3500601EF6BEE6F080EEE25016E000EDA
:102F5000EF21036E0150C60FE96E060E0320EA6EE4
:102F600003014251080DF3506B0F0601F06FF2CFD1
:102F7000F1F6F29CF29EAA6AF0C6A9FFA69CA69E54
:102F8000A680A850F1BDF28CF1BFF28EEF6E030166
:102F900042510A0DF3500601EF6BEE6FC60EEE259F
:102FA000E96E060EEF21EA6EEF50860810E303018A
:102FB00042510A0DF3500601EF6BEE6FC60EEE257F
:102FC000E96E060EEF21EA6EEF5068080FE3030189
:102FD00042510A0DF3500601EF6BEE6FC60EEE255F
:102FE000E96E060EEF21EA6E790EEF6E0301425193
:102FF0000A0DF3500601EF6BEE6F090EEE25016E20
:10300000000EEF21036E0150C60FE96E060E03207D
:10301000EA6EEF503B0815E2030142510A0DF350EE
:103020000601EF6BEE6F090EEE25016E000EEF212B
:10303000036E0150C60FE96E060E0320EA6E010E04
:10304000EF6E030142510A0DF3500601EF6BEE6F74
:10305000030EEE25016E000EEF21036E0150C60F28
:10306000E96E060E0320EA6EEF503B0814E20301FE
:1030700042510A0DF3500601EF6BEE6F030EEE2581
:10308000016E000EEF21036E0150C60FE96E060EB1
:103090000320EA6EEF6A030142510A0DF350060164
:1030A000EF6BEE6F040EEE25016E000EEF21036E46
:1030B0000150C60FE96E060E0320EA6EEF503B0882
:1030C00015E2030142510A0DF3500601EF6BEE6F5A
:1030D000040EEE25016E000EEF21036E0150C60FA7
:1030E000E96E060E0320EA6E010EEF6E03014251F7
:1030F0000A0DF3500601EF6BEE6F030EEE25016E25
:10310000000EEF21036E0150C60FE96E060E03207C
:10311000EA6EEF503B0814E2030142510A0DF350EE
:103120000601EF6BEE6F030EEE25016E000EEF2130
:10313000036E0150C60FE96E060E0320EA6EEF6AB9
:10314000030142510A0DF3500601EF6BEE6F050EBD
:10315000EE25016E000EEF21036E0150C60FE96EE1
:10316000060E0320EA6EEF503B0814E203014251C1
:103170000A0DF3500601EF6BEE6F050EEE25016EA2
:10318000000EEF21036E0150C60FE96E060E0320FC
:10319000EA6EEF6A030142510A0DF3500601EF6B2C
:1031A000EE6F060EEE25016E000EEF21036E01504C
:1031B000C60FE96E060E0320EA6EEF50080815E20E
:1031C000030142510A0DF3500601EF6BEE6F060E3C
:1031D000EE25016E000EEF21036E0150C60FE96E61
:1031E000060E0320EA6E020EEF6E030142510A0D35
:1031F000F3500601EF6BEE6F070EEE25016E000E29
:10320000EF21036E0150C60FE96E060E0320EA6E31
:10321000EF50630816E3030142510A0DF350060113
:10322000EF6BEE6F070EEE25016E000EEF21036EC1
:103230000150C60FE96E060E0320EA6EEF50090832
:1032400015E3030142510A0DF3500601EF6BEE6FD7
:10325000070EEE25016E000EEF21036E0150C60F22
:10326000E96E060E0320EA6E190EEF6E030142515D
:103270000A0DF3500601EF6BEE6F080EEE25016E9E
:10328000000EEF21036E0150C60FE96E060E0320FB
:10329000EA6EEF50060815E2030142510A0DF350A1
:1032A0000601EF6BEE6F080EEE25016E000EEF21AA
:1032B000036E0150C60FE96E060E0320EA6E060E7D
:1032C000EF6E0301422B16D50601F96B4CC3F8F6DD
:1032D000010EFB6F400EFA6F0001E9EC11F002C025
:1032E00003F00150020F0601EE6F000E0220EF6F97
:1032F000F46FEEC6F3F600016BEC12F001C0F9F3C7
:103300000301F9511F0802E2010EF96F0601F96B82
:103310004CC3F8F6010EFB6F400EFA6F0001E9ECAA
:1033200011F002C003F00150030F0601EE6F000E12
:103330000220EF6FF46FEEC6F3F600016BEC12F0B3
:1033400001C0FAF30301FA510C0802E2010EFA6F10
:103350000601F96B4CC3F8F6010EFB6F400EFA6FD5
:103360000001E9EC11F002C003F00150040F060166
:10337000EE6F000E0220EF6FF46FEEC6F3F6000161
:103380006BEC12F001C0FBF30301FB51630802E296
:10339000130EFB6F0601F96B4CC3F8F6010EFB6FC1
:1033A000400EFA6F0001E9EC11F002C003F0015089
:1033B000010F0601EE6F000E0220EF6FF46FEEC6F4
:1033C000F3F600016BEC12F001C0FDF30301FD51B7
:1033D000140802E2010EFD6F0601F96B4CC3F8F60A
:1033E000010EFB6F400EFA6F0001E9EC11F002C014
:1033F000EFF601C0EEF602C0F4F601C0F3F66BEC96
:1034000012F001C0FCF30301FC510A0802E2010EB4
:10341000FC6F426B42510608D8A0A4D2036A425105
:10342000E40F016E030E032201C0EEF6060103C095
:10343000EFF6F96B4CC3F8F6010EFB6F400EFA6F16
:103440000001E9EC11F002C0F1F601C0F0F60B0E3C
:103450000601F027000EF123030142514D25090D0D
:10346000F3500601F027000EF123F1C6F4F6F0C682
:10347000F3F600016BEC12F0EFC6EAFFEEC6E9FFCF
:1034800001C0EFFF036A03014251E40FE96E030E2E
:103490000320EA6EEF50180808E2036A4251E40F75
:1034A000E96E030E0320EA6EEF6A036A4251EB0FE6
:1034B000016E030E032201C0EEF6060103C0EFF613
:1034C000F96B4CC3F8F6010EFB6F400EFA6F00016A
:1034D000E9EC11F002C0F1F601C0F0F60C0E0601A5
:1034E000F027000EF123030142514D25090DF35041
:1034F0000601F027000EF123F1C6F4F6F0C6F3F64C
:1035000000016BEC12F0EFC6EAFFEEC6E9FF01C066
:10351000EFFF036A03014251EB0FE96E030E032034
:10352000EA6EEF503B0808E2036A4251EB0FE96E86
:10353000030E0320EA6EEF6A4251040DF350036A52
:10354000AC0F016E030E032201C0EEF6060103C0AC
:10355000EFF6F96B4CC3F8F6010EFB6F400EFA6FF5
:103560000001E9EC11F002C0F1F601C0F0F6050E21
:103570000601F027000EF123030142514D25090DEC
:10358000F3500601F027000EF123F1C6F4F6F0C661
:10359000F3F600016BEC12F001C0F0F60601F96BD6
:1035A0004CC3F8F6010EFB6F400EFA6F0001E9EC18
:1035B00011F002C0F2F601C0F1F6060E0601F12785
:1035C000000EF223030142514D25090DF35006016F
:1035D000F127000EF223F2C6F4F6F1C6F3F600016D
:1035E0006BEC12F001C0F1F601C0F2F6BFEC12F084
:1035F00000C0F1F601C0F2F602C0F3F603C0F4F623
:103600000701016BF0C600F70001CCEC0FF0EACF28
:10361000F6F6E9CFF5F6D89203C003F702C002F739
:1036200001C001F700C000F7F4C607F7F3C606F7BC
:10363000F2C605F7F1C604F7AEEC10F0F6C6EAFFE5
:10364000F5C6E9FFEFC6EAFFEEC6E9FF00C0EFFFEF
:1036500001C0ECFF02C0ECFF03C0ECFF03014251CC
:10366000040DF350036AAC0FE96E030E0320EA6EFB
:10367000EFCFEEF6ECCFEFF6ECCFF0F6ECCFF1F6C5
:103680000601F76BF66B480EF56F860EF46FF1C608
:10369000FBF6F0C6FAF6EFC6F9F6EEC6F8F600014C
:1036A000E0EC12F00FE303014251040DF350036A02
:1036B000AC0FE96E030E0320EA6EEF6AEC6AEC6A67
:1036C000EC6A0001D89003014235036AC80F016E0D
:1036D000030E032201C0EEF6060103C0EFF6F96BFC
:1036E0004CC3F8F6010EFB6F400EFA6F0001E9ECD7
:1036F00011F002C0F1F601C0F0F6070E0601F02746
:10370000000EF123030142514D25090DF35006012E
:10371000F027000EF123F1C6F4F6F0C6F3F600012F
:103720006BEC12F001C0F0F60601F96B4CC3F8F631
:10373000010EFB6F400EFA6F0001E9EC11F002C0C0
:10374000F2F601C0F1F6080E0601F127000EF22391
:10375000030142514D25090DF3500601F127000EDA
:10376000F223F2C6F4F6F1C6F3F600016BEC12F0A8
:10377000EFC6EAFFEEC6E9FFF0C6ECFFED5201C06E
:10378000EFFFD89003014235036AC80FE96E030EBC
:103790000320EA6EECCFEFF6ED52EFCFEEF6060126
:1037A000EF51000812E2FF0A03E1EE51F4080DE2C6
:1037B000D89003014235036AC80FE96E030E032057
:1037C000EA6EEC6AED52EF6A0601D89003014235C9
:1037D000036AD60F016E030E032201C0EEF6060146
:1037E00003C0EFF6F96B4CC3F8F6010EFB6F400E09
:1037F000FA6F0001E9EC11F002C0F1F601C0F0F639
:10380000090E0601F027000EF123030142514D2558
:10381000090DF3500601F027000EF123F1C6F4F66E
:10382000F0C6F3F600016BEC12F001C0F0F60601F1
:10383000F96B4CC3F8F6010EFB6F400EFA6F0001F6
:10384000E9EC11F002C0F2F601C0F1F60A0E060131
:10385000F127000EF223030142514D25090DF350CB
:103860000601F127000EF223F2C6F4F6F1C6F3F6D4
:1038700000016BEC12F0EFC6EAFFEEC6E9FFF0C6FE
:10388000ECFFED5201C0EFFFD89003014235036A0F
:10389000D60FE96E030E0320EA6EECCFEFF6ED5281
:1038A000EFCFEEF60601EF51000812E2FF0A03E146
:1038B000EE51F4080DE2D89003014235036AD60FA9
:1038C000E96E030E0320EA6EEC6AED52EF6A060120
:1038D000036A03014251F20F016E030E032201C07D
:1038E000EEF6060103C0EFF6F96B4CC3F8F6010ED5
:1038F000FB6F400EFA6F0001E9EC11F002C0F1F627
:1039000001C0F0F60D0E0601F027000EF1230301B1
:1039100042514D25090DF3500601F027000EF12309
:10392000F1C6F4F6F0C6F3F600016BEC12F0EFC648
:10393000EAFFEEC6E9FF01C0EFFF036A030142514F
:10394000F20FE96E030E0320EA6EEF501E0808E244
:10395000036A4251F20FE96E030E0320EA6EEF6A2A
:10396000422B58D50001F1EF46F00601F86BF851F3
:1039700007080DE3D890F73302E28C9A01D08C8AC5
:10398000959A95988C8895988C98F82BF0D700018B
:10399000000C959C8C8CF5C6F7F6E7DFF6C6F7F6BB
:1039A000E4DF959C8C9C000C959C8C8CF4C6F7F6FF
:1039B000DCDF958A100E006E002EFED70000060197
:1039C000F56BF551070815E3958A83BA02D0D890B4
:1039D00001D0D880F63395988C88210E006E002E89
:1039E000FED795988C98210E006E002EFED7F52BF1
:1039F000E8D7959C8C9CF6C601F00001000C959CC4
:103A00008C9C210E006E002EFED795988C988E0E01
:103A10000601F56FF66B0001BCDF900E0601F56F35
:103A2000A40EF66F0001B5DF810E0601F46F0001F0
:103A3000BBDF01C0EEF60601EE51800B06E0800E02
:103A4000F56FF66B0001A5DF06010001F3EF46F00C
:103A5000006A016A0601EE51D890EFB100260032EB
:103A60000132EFB3002600320132EFB500260032FA
:103A70000132EFB7002600320132EFB900260032E2
:103A80000132EFBB002600320132EFBD00260032CA
:103A90000132EFBF0026003201320001000C0301A9
:103AA0006BBF03D06B51090803E36BBF01D01ED07D
:103AB0006B6BAA6A0A0EA96EA86AA69CA69EA6842B
:103AC000F250006EF29CF29E0F01550EA76EAA0EE8
:103AD000A76EA682A6B2FED7A6940050F2120A0ED6
:103AE0000701006F0001B9EC0FF003016CBF03D0B8
:103AF0006C51090803E36CBF01D01ED06C6BAA6A3D
:103B00000B0EA96EA86AA69CA69EA684F250006E13
:103B1000F29CF29E0F01550EA76EAA0EA76EA6820A
:103B2000A6B2FED7A6940050F2120A0E0701006F4B
:103B30000001B9EC0FF003016DBF03D06D5109080E
:103B400003E36DBF01D01ED06D6BAA6A0C0EA96E87
:103B5000A86AA69CA69EA684F250006EF29CF29ED5
:103B60000F01550EA76EAA0EA76EA682A6B2FED7AB
:103B7000A6940050F2120A0E0701006F0001B9EC82
:103B80000FF003016EBF03D06E51090803E36EBF4F
:103B900001D01DD06E6BAA6A0D0EA96EA86AA69CF4
:103BA000A69EA684F250006EF29CF29E0F01550E66
:103BB000A76EAA0EA76EA682A6B2FED7A694005044
:103BC000F2120A0E0701006F0001B9EC0FF00701B5
:103BD000016B24C300F70001CCEC0FF00601F76B7A
:103BE000F66BF56B810EF46F03C0FBF602C0FAF6BC
:103BF00001C0F9F600C0F8F60001E0EC12F020E395
:103C0000010E0301246FAA6A120EA96E010EA86E9E
:103C1000A69CA69EA684F250006EF29CF29E0F0116
:103C2000550EA76EAA0EA76EA682A6B2FED7A694C0
:103C30000050F2120A0E0701006F0001B9EC0FF0FC
:103C40000701016B25C300F70001CCEC0FF0060162
:103C5000F76BF66B200EF56F840EF46F03C0FBF666
:103C600002C0FAF601C0F9F600C0F8F60001E0EC77
:103C700012F020E30F0E0301256FAA6A130EA96E3E
:103C80000F0EA86EA69CA69EA684F250006EF29C13
:103C9000F29E0F01550EA76EAA0EA76EA682A6B2BF
:103CA000FED7A6940050F2120A0E0701006F000121
:103CB000B9EC0FF00601F76BF66B700EF56F830E23
:103CC000F46FEFC2FBF6EEC2FAF6EDC2F9F6ECC203
:103CD000F8F60001E0EC12F024E30201EF6BEE6B6A
:103CE000700EED6F830EEC6FAA6A140EA96E1E0E95
:103CF000A86EA69CA69EA684F250006EF29CF29E30
:103D00000F01550EA76EAA0EA76EA682A6B2FED709
:103D1000A6940050F2120A0E0701006F0001B9ECE0
:103D20000FF004011C5132081EE21C6BAA6A150E2A
:103D3000A96EA86AA69CA69EA684F250006EF29C6C
:103D4000F29E0F01550EA76EAA0EA76EA682A6B20E
:103D5000FED7A6940050F2120A0E0701006F000170
:103D6000B9EC0FF004011D5132081DE21D6BAA6A67
:103D7000160EA96EA86AA69CA69EA684F250006E96
:103D8000F29CF29E0F01550EA76EAA0EA76EA68298
:103D9000A6B2FED7A6940050F2120A0E0701006FD9
:103DA0000001B9EC0FF00501805132081EE2806B72
:103DB000AA6A170EA96EA86AA69CA69EA684F250AF
:103DC000006EF29CF29E0F01550EA76EAA0EA76E12
:103DD000A682A6B2FED7A6940050F2120A0E0701E0
:103DE000006F0001B9EC0FF00501815132081DE2AE
:103DF000816BAA6A180EA96EA86AA69CA69EA684C4
:103E0000F250006EF29CF29E0F01550EA76EAA0EA4
:103E1000A76EA682A6B2FED7A6940050F2120A0E92
:103E20000701006F0001B9EC0FF00201C651500804
:103E30001FE2280EC66FAA6A190EA96E280EA86E78
:103E4000A69CA69EA684F250006EF29CF29E0F01E4
:103E5000550EA76EAA0EA76EA682A6B2FED7A6948E
:103E60000050F2120A0E0701006F0001B9EC0FF0CA
:103E70000601F76BF66B200EF56F820EF46FD7C25A
:103E8000FBF6D6C2FAF6D5C2F9F6D4C2F8F60001AE
:103E9000E0EC12F024E30201D76BD66B200ED56F55
:103EA000820ED46FAA6A1A0EA96E0A0EA86EA69C7C
:103EB000A69EA684F250006EF29CF29E0F01550E53
:103EC000A76EAA0EA76EA682A6B2FED7A694005031
:103ED000F2120A0E0701006F0001B9EC0FF00601A3
:103EE000F76BF66BF56B800EF46F11C4FBF610C424
:103EF000FAF60FC4F9F60EC4F8F60001E0EC12F081
:103F00003FE30401116B106B0F6B7E0E0E6FAA6AFC
:103F10001C0EA96EA86AA69CA69EA684F250006EEE
:103F2000F29CF29E0F01550EA76EAA0EA76EA682F6
:103F3000A6B2FED7A6940050F2120A0E0701006F37
:103F40000001B9EC0FF0AA6A1B0EA96E050EA86E4F
:103F5000A69CA69EA684F250006EF29CF29E0F01D3
:103F6000550EA76EAA0EA76EA682A6B2FED7A6947D
:103F70000050F2120A0E0701006F0001B9EC0FF0B9
:103F80000601F76BF66BF56B800EF46F75C5FBF6EB
:103F900074C5FAF673C5F9F672C5F8F60001E0ECDF
:103FA00012F03FE30501756B746B736B7E0E726FDD
:103FB000AA6A1E0EA96EA86AA69CA69EA684F250A6
:103FC000006EF29CF29E0F01550EA76EAA0EA76E10
:103FD000A682A6B2FED7A6940050F2120A0E0701DE
:103FE000006F0001B9EC0FF0AA6A1D0EA96E050E54
:103FF000A86EA69CA69EA684F250006EF29CF29E2D
:104000000F01550EA76EAA0EA76EA682A6B2FED706
:10401000A6940050F2120A0E0701006F0001B9ECDD
:104020000FF003012D5164081FE2450E2D6FAA6A9F
:104030001F0EA96E450EA86EA69CA69EA684F250E1
:10404000006EF29CF29E0F01550EA76EAA0EA76E8F
:10405000A682A6B2FED7A6940050F2120A0E07015D
:10406000006F0001B9EC0FF00201CB5164081FE2B0
:10407000550ECB6FAA6A200EA96E550EA86EA69C8F
:10408000A69EA684F250006EF29CF29E0F01550E81
:10409000A76EAA0EA76EA682A6B2FED7A69400505F
:1040A000F2120A0E0701006F0001B9EC0FF00301D4
:1040B0006051E90840E2FF0A03E15F5160083BE21A
:1040C000606B5F6BAA6A250EA96EA86AA69CA69E65
:1040D000A684F250006EF29CF29E0F01550EA76E60
:1040E000AA0EA76EA682A6B2FED7A6940050F21220
:1040F0000A0E0701006F0001B9EC0FF0AA6A260E44
:10410000A96EA86AA69CA69EA684F250006EF29C98
:10411000F29E0F01550EA76EAA0EA76EA682A6B23A
:10412000FED7A6940050F2120A0E0701006F00019C
:10413000B9EC0FF0030192510A080AE190C3EEF6C0
:10414000FF0E0601EF6F000183DC01C090F3030155
:1041500093510A080AE191C3EEF6FF0E0601EF6FD4
:10416000000176DC01C091F303012751640820E2CD
:104170005A0E276FAA6A270EA96E5A0EA86EA69C21
:10418000A69EA684F250006EF29CF29E0F01550E80
:10419000A76EAA0EA76EA682A6B2FED7A69400505E
:1041A000F2120A0E0701006F0001B9EC0FF00301D3
:1041B000625303E16151060821E2626B030E616FF5
:1041C000AA6A2E0EA96E030EA86EA69CA69EA684B1
:1041D000F250006EF29CF29E0F01550EA76EAA0ED1
:1041E000A76EA682A6B2FED7A6940050F2120A0EBF
:1041F0000701006F0001B9EC0FF00301385101080D
:1042000020E2010E386FAA6A280EA96E010EA86E70
:10421000A69CA69EA684F250006EF29CF29E0F0110
:10422000550EA76EAA0EA76EA682A6B2FED7A694BA
:104230000050F2120A0E0701006F0001B9EC0FF0F6
:10424000030139511E0820E2020E396FAA6A290EB5
:10425000A96E020EA86EA69CA69EA684F250006EC1
:10426000F29CF29E0F01550EA76EAA0EA76EA682B3
:10427000A6B2FED7A6940050F2120A0E0701006FF4
:104280000001B9EC0FF003010001FBEF46F009005B
:10429000F55211E0F6CFEFF6F7CFF0F6F8CFF1F6E2
:1042A000F5509EA8FED7AD6EEFC6F6FFF0C6F7FF3D
:1042B000F1C6F8FFECD7000C9EA8FED7AD6E000C3F
:1042C000100E006E002EFED70000FF0EF5DF100E60
:1042D000006E002EFED70000FF0EEEDF100E006E07
:1042E000002EFED70000FF0EE7DF100E006E002E3E
:1042F000FED70000000C8B8294928C8695968C9E43
:10430000959E8D9296928C8495948C8695968B80B2
:1043100094908D9496948C8095908C8295920301C4
:10432000376B0001000C0601F435006E0036FC0E00
:10433000001600C001F0C250C30B0010C26E010E87
:104340000701006F0001B9EC0FF0C282C2B2FED7C4
:10435000C4CF01F7C3CF00F70001CCEC0FF003C0CE
:10436000F8F602C0F7F601C0F6F600C0F5F6F5C69D
:1043700000F0F6C601F0F7C602F0F8C603F0000C34
:1043800007010451D8B471D0006E0851D8B46DD073
:10439000002604E3810E002668E204D07F0E005E52
:1043A00064E363E005C70CF709510C1B058F098F07
:1043B00007510B03F4CF0EF706510A03F4CF03F0B5
:1043C000F3CF0DF70B03F3500E27F4500D23000E1F
:1043D000032207510A03F3500E27F4500D23000E59
:1043E000026A0322022205510B03F3500D27F450F9
:1043F0000322000E022205510A03F3500326F45053
:104400000222000E016A012207510903F3500D2711
:10441000F4500322000E0222012206510903F35038
:104420000326F4500222000E012205510903F35025
:104430000226F4500122002A01BE05D00D370336B2
:10444000023601360006000E0DAF0AD0032A022202
:104450000122015005E1025003E1035001E1002A6D
:104460000CBF018E0CAF019E04D0006A016A026A83
:10447000036A0001000C0201E36BE26BE16BE06B8D
:104480000601F96BF0C6F8F6010EFB6F640EFA6FC9
:104490000001E9EC11F001C0F2F6080E060101245A
:1044A000016E000E0220036E0150FE0F016E030E1E
:1044B000032201C0F2F603C0F3F6F0C6F4F60001E1
:1044C00032DFF3C6EAFFF2C6E9FF00C0EFFF01C02A
:1044D000ECFF02C0ECFF03C0ECFF0601F96BF0C675
:1044E000F8F6010EFB6F640EFA6F0001E9EC11F0B3
:1044F00001C0F2F6080E06010124016E000E022032
:10450000036E0150FE0F016E030E032201C0F2F68E
:1045100003C0F3F6F96BF0C6F8F6010EFB6F640EFC
:10452000FA6F0001E9EC11F001C0F4F6080E060183
:104530000124016E000E0220036E0150FE0FE96E91
:10454000030E0320EA6EEFCFF4F6ECCFF5F6ECCFD6
:10455000F6F6ECCFF7F6F96BF0C6F8F6010EFB6F46
:10456000640EFA6F0001E9EC11F002C0F9F601C027
:10457000F8F6600E06010124016E010E0220036EA2
:104580000150FE0FE96E030E0320EA6EEFCF00F03C
:10459000ECCF01F0ECCF02F0ECCF03F0F7C6FDF664
:1045A000F6C6FCF6F5C6FBF6F4C6FAF603C001F74C
:1045B00002C000F701C0FFF600C0FEF60001E7EC04
:1045C0000FF0F3C6EAFFF2C6E9FF00C0EFFF01C03B
:1045D000ECFF02C0ECFF03C0ECFF0601F96BF0C674
:1045E000F8F6010EFB6F640EFA6F0001E9EC11F0B2
:1045F00001C0F2F6080E06010124016E000E022031
:10460000036E0150FE0F016E030E032201C0F2F68D
:1046100003C0F3F6F96BF0C6F8F6010EFB6F640EFB
:10462000FA6F0001E9EC11F001C0F4F6080E060182
:104630000124016E000E0220036E0150FE0FE96E90
:10464000030E0320EA6EEFCFF4F6ECCFF5F6ECCFD5
:10465000F6F6ECCFF7F6EACFF9F6E9CFF8F6D8920E
:10466000F7C603F7F6C602F7F5C601F7F4C600F77A
:10467000C30E0701076FF50E066F6C0E056F820EF5
:10468000046F0001AEEC10F0F9C6EAFFF8C6E9FFCE
:10469000F3C6EAFFF2C6E9FF00C0EFFF01C0ECFF7E
:1046A00002C0ECFF03C0ECFF0601F96BF0C6F8F6A0
:1046B000010EFB6F640EFA6F0001E9EC11F001C00E
:1046C000F2F60C0E06010124016E000E0220036EAC
:1046D0000150FE0F016E030E032201C0F2F603C06B
:1046E000F3F6F96BF0C6F8F6010EFB6F640EFA6F85
:1046F0000001E9EC11F002C0F5F601C0F4F6080E75
:1047000006010124016E000E0220036E0150FE0F0F
:10471000E96E030E0320EA6EEFCF00F0ECCF01F05C
:10472000ECCF02F0ECCF03F0FD6BC00EFC6F7F0E00
:10473000FB6F880EFA6F03C001F702C000F701C0DB
:10474000FFF600C0FEF60001E7EC0FF000C0F4F643
:1047500001C0F5F602C0F6F603C0F7F6EACFF9F6A7
:10476000E9CFF8F6D88203C003F702C002F701C010
:1047700001F700C000F70701076B066B056B7F0EA2
:10478000046F0001AEEC10F0F9C6EAFFF8C6E9FFCD
:10479000ADC2FDF6ACC2FCF6ABC2FBF6AAC2FAF69D
:1047A00003C001F702C000F701C0FFF600C0FEF62B
:1047B000E7EC0FF0F3C6EAFFF2C6E9FF00C0EFFF37
:1047C00001C0ECFF02C0ECFF03C0ECFF0601F96B77
:1047D000F0C6F8F6010EFB6F640EFA6F0001E9EC0B
:1047E00011F002C0F3F601C0F2F6140E0601012426
:1047F000016E000E0220036E0150FE0FE96E030EE3
:104800000320EA6EEFCFF2F6010EF15DF25D1BE0E0
:104810001AE3F96BF0C6F8F6010EFB6F640EFA6F3F
:104820000001E9EC11F001C0F2F6140E06010124BA
:10483000016E000E0220036E0150FE0FE96E030EA2
:104840000320EA6EEF6AF96BF0C6F8F6010EFB6F13
:10485000640EFA6F0001E9EC11F002C0F3F601C03A
:10486000F2F6200E0601F227000EF323F96BF0C6D4
:10487000F8F6010EFB6F640EFA6F0001E9EC11F01F
:1048800002C0F5F601C0F4F6140E06010124016E13
:10489000000E0220036E0150FE0FE96E030E03208E
:1048A000EA6EF96BEFCFF8F6FB6B040EFA6F0001BE
:1048B000E9EC11F002C003F001500601F225016E8F
:1048C000F35103220150FE0F016E030E032201C0BB
:1048D000F2F603C0F3F6F96BF0C6F8F6010EFB6FC3
:1048E000640EFA6F0001E9EC11F002C0F5F601C0A8
:1048F000F4F60C0E06010124016E000E0220036E78
:104900000150FE0FE96E030E0320EA6EEFCF00F0B8
:10491000ECCF01F0ECCF02F0ECCF03F0F3C6EAFFEE
:10492000F2C6E9FF00C0EFFF01C0ECFF02C0ECFFE0
:1049300003C0ECFFF96BF0C6F8F6010EFB6F640ED6
:10494000FA6F0001E9EC11F001C0F2F6140E060155
:104950000124016E000E0220036E0150FE0FE96E6D
:10496000030E0320EA6EEF2AF96BF0C6F8F6010E8B
:10497000FB6F640EFA6F0001E9EC11F002C0F3F670
:1049800001C0F2F6150E06010124016E000E022090
:10499000036E0150FE0FE96E030E0320EA6EEF6A0C
:1049A000F96BF0C6F8F6010EFB6F640EFA6F0001AA
:1049B000E9EC11F002C0F3F601C0F2F6150E0601A3
:1049C0000124016E000E0220036E0150FE0FE96EFD
:1049D000030E0320EA6EF151EF5CD8B08FD0F96B73
:1049E000F0C6F8F6010EFB6F640EFA6F0001E9ECF9
:1049F00011F002C0F3F601C0F2F6200E0601F22714
:104A0000000EF323F96BF0C6F8F6010EFB6F640E8F
:104A1000FA6F0001E9EC11F002C0F5F601C0F4F6FE
:104A2000150E06010124016E000E0220036E0150D6
:104A3000FE0FE96E030E0320EA6EF96BEFCFF8F676
:104A4000FB6B040EFA6F0001E9EC11F002C003F0F9
:104A500001500601F225016EF35103220150FE0FB1
:104A6000E96E030E0320EA6EEFCF00F0ECCF01F009
:104A7000ECCF02F0ECCF03F0EACFF3F6E9CFF2F699
:104A8000D892E3C203F7E2C202F7E1C201F7E0C243
:104A900000F703C007F702C006F701C005F700C022
:104AA00004F70001AEEC10F0F3C6EAFFF2C6E9FF2E
:104AB00003C0E3F202C0E2F201C0E1F200C0E0F2A2
:104AC0000601F96BF0C6F8F6010EFB6F640EFA6F83
:104AD0000001E9EC11F002C0F3F601C0F2F6150E88
:104AE00006010124016E000E0220036E0150FE0F2C
:104AF000E96E030E0320EA6EEF2A52D70701016B1D
:104B0000F1C600F70001CCEC0FF0E3C2FDF6E2C203
:104B1000FCF6E1C2FBF6E0C2FAF603C001F702C000
:104B200000F701C0FFF600C0FEF6E7EC0FF003C08F
:104B3000E3F202C0E2F201C0E1F200C0E0F2E3C23F
:104B400007F7E2C206F7E1C205F7E0C204F7E3C2E5
:104B50000BF7E2C20AF7E1C209F7E0C208F710DC7E
:104B600000C0F2F601C0F3F602C0F4F603C0F5F699
:104B700003C007F702C006F701C005F700C004F73D
:104B80001BC30BF71AC30AF719C309F718C308F7B1
:104B9000C0EC21F000C0F2F601C0F3F602C0F4F65A
:104BA00003C0F5F6E3C207F7E2C206F7E1C205F774
:104BB000E0C204F71FC30BF71EC30AF71DC309F7B2
:104BC0001CC308F7C0EC21F0D892F5C603F7F4C671
:104BD00002F7F3C601F7F2C600F703C007F702C0F9
:104BE00006F701C005F700C004F7AEEC10F000C0F6
:104BF000F2F601C0F3F602C0F4F603C0F5F6D8925F
:104C000003C003F702C002F701C001F700C000F7BC
:104C100023C307F722C306F721C305F720C304F710
:104C2000AEEC10F003C0E7F202C0E6F201C0E5F21C
:104C300000C0E4F20601F96BF0C6F8F6010EFB6F56
:104C4000640EFA6F0001E9EC11F002C0F3F601C046
:104C5000F2F61E0E06010124016E000E0220036E04
:104C60000150FE0FE96E030E0320EA6EEF500701BC
:104C7000016B006F0001CCEC0FF000C0F2F601C038
:104C8000F3F602C0F4F603C0F5F60601F96BF0C6C0
:104C9000F8F6010EFB6F640EFA6F0001E9EC11F0FB
:104CA00002C0F7F601C0F6F61F0E06010124016EE0
:104CB000000E0220036E0150FE0FE96E030E03206A
:104CC000EA6EEF500701016B006F0001CCEC0FF0B2
:104CD000EACFF7F6E9CFF6F6D882F5C603F7F4C6C1
:104CE00002F7F3C601F7F2C600F703C007F702C0E8
:104CF00006F701C005F700C004F7AEEC10F0F7C6E8
:104D0000EAFFF6C6E9FFEACFF3F6E9CFF2F6D8926A
:104D1000E7C203F7E6C202F7E5C201F7E4C200F713
:104D200003C007F702C006F701C005F700C004F78B
:104D3000AEEC10F0F3C6EAFFF2C6E9FF03C0E7F2FB
:104D400002C0E6F201C0E5F200C0E4F2E4C200F005
:104D5000E5C201F0E6C202F0E7C203F0000C030175
:104D60003C510508D8A4C5D03BC030F03CC031F060
:104D70003DC032F03EC033F03FC034F040C035F0AB
:104D800041C036F042C037F043C038F044C039F07B
:104D9000332C07D03F6B3F51415D02E03FC341F3ED
:104DA000A7D03350020808E1010E3F6F3F51415D2B
:104DB00002E03FC341F39CD03350030808E1020EE8
:104DC0003F6F3F51415D02E03FC341F391D033500B
:104DD000040808E1030E3F6F3F51415D02E03FC30D
:104DE00041F386D03350050808E1040E3F6F3F5170
:104DF000415D02E03FC341F37BD03350060808E138
:104E0000050E3F6F3F51415D02E03FC341F370D05B
:104E10003350070808E1060E3F6F3F51415D02E045
:104E20003FC341F365D03350080808E1070E3F6FD8
:104E30003F51415D02E03FC341F35AD0335009086E
:104E400008E1080E3F6F3F51415D02E03FC341F36F
:104E50004FD033500A0808E1090E3F6F3F51415DC2
:104E600002E03FC341F344D033500D0808E10C0E7B
:104E70003F6F3F51415D02E03FC341F339D03350B2
:104E80000F0801E135D033501A0808E1140E3F6FC6
:104E90003F51415D02E03FC341F32AD033501B082C
:104EA00008E10F0E3F6F3F51415D02E03FC341F308
:104EB0001FD033501C0808E1100E3F6F3F51415D79
:104EC00002E03FC341F314D033502C0808E1640ED4
:104ED0003F6F3F51415D02E03FC341F309D0335082
:104EE000CC0806E1F00E3F6F4151F00801E0FF00F1
:104EF00006D03E6B3E51090802E33E2BFBD7000172
:104F0000CCEF47F08E0E006E07010051005E01C726
:104F100002F002C701F0028E005209E0D89002525E
:104F200002E1015204E002320132002EF7D701AF54
:104F300005D0011E021E012AD8B4022A0001000C6D
:104F40000FC303F70EC302F70DC301F70CC300F73D
:104F5000D9DF01C064F00FC303F70EC302F70DC31E
:104F600001F70CC300F7CEDF0701016B01C000F7AA
:104F70000001CCEC0FF0D8820FC303F70EC302F789
:104F80000DC301F70CC300F703C007F702C006F713
:104F900001C005F700C004F7AEEC10F000C000F748
:104FA00001C001F702C002F703C003F703C007F70F
:104FB00002C006F701C005F700C004F707010B6B3C
:104FC0000A6B200E096F820E086F0001C0EC21F001
:104FD00003C003F702C002F701C001F700C000F7E9
:104FE00091DF01C065F05BC366F000015CC367F050
:104FF00000015DC368F000015EC369F00001DBC21F
:1050000003F7DAC202F7D9C201F7D8C200F77ADF94
:1050100001500A0DF3CF6AF06B6BA5BD6B2B6C6B67
:10502000A5BB6C2B93886D6B81A86D2B938C6E6BDD
:1050300081AC6E2B938A6F6B81AA6F2BDFC203F753
:10504000DEC202F7DDC201F7DCC200F75BDF01C0A0
:1050500070F045C371F08EC372F083C373F082C3E6
:1050600074F081C375F084C376F085C377F086C38E
:1050700078F08FC379F05FC37AF0000160C37BF0F2
:10508000000144EF28F05CD70301426B425117083E
:1050900044E3B00E0001856F9488050E006E002E6B
:1050A000FED79486060E006E002EFED78B9894983D
:1050B000050E006E002EFED78B96949685C001F7E4
:1050C000FAEC11F042C301F7FAEC11F00701016BA1
:1050D0000001FAEC11F0036A03014251640FE96E1A
:1050E000000E0320EA6EEFCF00F700C701F70001C2
:1050F000FAEC11F094980000948682A6FED7050E73
:10510000006E002EFED700D000009488050E006EC1
:10511000002EFED70301422BB9D70001000C060177
:10512000EF510301525D0BE305E10601EE5103016E
:10513000515D05E30001A68D0301526B516B000127
:10514000F3EF47F00201B96BB86BB76BB66B050EA6
:105150000601F46F000193EC21F003C0FFF202C0DE
:10516000FEF201C0FDF200C0FCF2FFC2FDF6FEC27D
:10517000FCF6FDC2FBF6FCC2FAF60701016BC00E9D
:10518000006F7F0E0601FF6F880EFE6F0001E7ECD7
:105190000FF000C0F1F601C0F2F602C0F3F603C052
:1051A000F4F6D88203C003F702C002F701C001F78A
:1051B00000C000F70A0E0701076FD70E066F230E17
:1051C000056F7A0E046F0001AEEC10F000C0F1F62E
:1051D00001C0F2F602C0F3F603C0F4F603C0FDF618
:1051E00002C0FCF601C0FBF600C0FAF617C301F7D7
:1051F00016C300F715C3FFF614C3FEF6E7EC0FF075
:1052000003C003F302C002F301C001F300C000F3C6
:1052100003C3F7F602C3F6F601C3F5F600C3F4F6CE
:105220000601FB6BFA6BF96BF86B0001E0EC12F016
:1052300005E30301036B026B016B006B010E0601BA
:10524000F05D03016F5D02E001E36F6B6F51040DD0
:10525000F350036AFE0FE96E010E0320EA6E00C3ED
:10526000EFFF01C3ECFF02C3ECFF03C3ECFF6F2BA6
:10527000706B010E0601F05D0301705D01E038E224
:105280007051040DF350036AFE0FE96E010E032006
:10529000EA6EEFCF00F0ECCF01F0ECCF02F0ECCFF4
:1052A00003F0EACFF2F6E9CFF1F6D892B9C203F7EC
:1052B000B8C202F7B7C201F7B6C200F703C007F7DA
:1052C00002C006F701C005F700C004F70001AEEC0C
:1052D00010F0F2C6EAFFF1C6E9FF03C0B9F202C05E
:1052E000B8F201C0B7F200C0B6F20301702BC1D70B
:1052F0000701016BF0C600F70001CCEC0FF0B9C25A
:10530000FDF6B8C2FCF6B7C2FBF6B6C2FAF603C0A9
:1053100001F702C000F701C0FFF600C0FEF6E7EC9F
:105320000FF003C0B9F202C0B8F201C0B7F200C07A
:10533000B6F2B6C200F0B7C201F0B8C202F0B9C20C
:1053400003F0EEEF2AF00201C16BC06BBF6BBE6BC6
:10535000040E0601F46F000193EC21F003C007F383
:1053600002C006F301C005F300C004F307C3FDF655
:1053700006C3FCF605C3FBF604C3FAF60701016B8E
:10538000C00E006F7F0E0601FF6F880EFE6F0001DA
:10539000E7EC0FF000C0F1F601C0F2F602C0F3F640
:1053A00003C0F4F6D88203C003F702C002F701C0BD
:1053B00001F700C000F70A0E0701076FD70E066F4E
:1053C000230E056F7A0E046F0001AEEC10F000C0E2
:1053D000F1F601C0F2F602C0F3F603C0F4F603C022
:1053E000FDF602C0FCF601C0FBF600C0FAF617C3DA
:1053F00001F716C300F715C3FFF614C3FEF6E7EC7A
:105400000FF003C00BF302C00AF301C009F300C0A0
:1054100008F30BC3F7F60AC3F6F609C3F5F608C39B
:10542000F4F60601FB6BFA6BF96BF86B0001E0EC2C
:1054300012F005E303010B6B0A6B096B086B010E9D
:105440000601F05D0301715D02E001E3716B7151D2
:10545000040DF350036A4E0FE96E020E0320EA6E4C
:1054600008C3EFFF09C3ECFF0AC3ECFF0BC3ECFF5B
:10547000712B726B010E0601F05D0301725D01E09C
:1054800038E27251040DF350036A4E0FE96E020EBA
:105490000320EA6EEFCF00F0ECCF01F0ECCF02F08A
:1054A000ECCF03F0EACFF2F6E9CFF1F6D892C1C221
:1054B00003F7C0C202F7BFC201F7BEC200F703C0C4
:1054C00007F702C006F701C005F700C004F70001A6
:1054D000AEEC10F0F2C6EAFFF1C6E9FF03C0C1F27C
:1054E00002C0C0F201C0BFF200C0BEF20301722BC5
:1054F000C1D70701016BF0C600F70001CCEC0FF03B
:10550000C1C2FDF6C0C2FCF6BFC2FBF6BEC2FAF6CF
:1055100003C001F702C000F701C0FFF600C0FEF6AD
:10552000E7EC0FF003C0C1F202C0C0F201C0BFF24D
:1055300000C0BEF2BEC200F0BFC201F0C0C202F0A5
:10554000C1C203F000EF2BF0F5C6F6F60601F639FE
:10555000006E0F0E001600500A0DF3CFF5F6F63967
:10556000006EF00E00160050003A0F0E00160050AC
:10557000F527F5C601F00001000C0601EF5103010B
:10558000545DD8A0EED006E10601EE510301535D53
:10559000D8A0E7D00601F06BC6C2F1F600013BECE3
:1055A00022F003C00FF302C00EF301C00DF300C0E0
:1055B0000CF3010E0601F06FC6C2F1F600013BECE0
:1055C00022F003C013F302C012F301C011F300C0B4
:1055D00010F3050E0601F06F0001B4D503C003F708
:1055E00002C002F701C001F700C000F78BDC02C067
:1055F0005CF301C05BF3050E0601F06F0001A3D65A
:1056000003C003F702C002F701C001F700C000F7B2
:1056100079DC02C05EF301C05DF3870E0601F46F12
:105620000001D4EC1CF001C0F0F601C0F5F68CDFEF
:1056300001C083F3890E0601F46F0001D4EC1CF065
:1056400001C0F0F601C0F5F67FDF01C082F38D0ED8
:105650000601F46F0001D4EC1CF001C0F0F601C0AB
:10566000F5F672DF01C081F38B0E0601F46F0001C5
:10567000D4EC1CF001C0F0F601C0F5F665DF01C006
:1056800087F3850E0601F46F0001D4EC1CF001C015
:10569000F0F601C0F5F658DF01C084F3830E060171
:1056A000F46F0001D4EC1CF001C0F0F601C0F5F677
:1056B0004BDF01C085F3810E0601F46F0001D4ECCD
:1056C0001CF001C0F0F601C0F5F63EDF01C086F324
:1056D000030E0601F46F000193EC21F000C0F0F618
:1056E00001C0F1F602C0F2F603C0F3F603C0F7F60C
:1056F00002C0F6F601C0F5F600C0F4F60601FB6B39
:10570000FA6BF96B880EF86F0001E0EC12F002E31F
:10571000A58B01D0A59B020E0601F46F000193EC4E
:1057200021F000C0F0F601C0F1F602C0F2F603C0AD
:10573000F3F603C0F7F602C0F6F601C0F5F600C0B6
:10574000F4F60601FB6BFA6BF96B880EF86F00013B
:10575000E0EC12F002E3A58D01D0A59D0301546B8E
:10576000536B0001FAEF47F0030146517C082BE32D
:105770005E5306E15D51810803E38D82969222D04B
:105780005E5303E15D518C081DE28D9296920001FB
:10579000A3BF17D0A3AD15D0A38F938C81BC11D01C
:1057A0008B909490060E0601EE6FFA0E0701006FC3
:1057B0000001B9EC0FF00601EE2FF7D78B80949023
:1057C000000103012AD05E5306E15D51DB0803E3CB
:1057D0008D82969222D05E5303E15D51E6081DE270
:1057E0008D9296920001A3BF17D0A3AD15D0A38FC1
:1057F000938C81BC11D08B909490060E0601EE6FB5
:10580000FA0E0701006F0001B9EC0FF00601EE2F50
:10581000F7D78B809490000103010001000C8C8469
:105820009594A695A697B46BB36BB26BB16B000C55
:10583000B25303E1B15178080CE28C849594A6959B
:10584000A687B45303E1B3513B0802E2B26BB16BDC
:1058500006D08C949594A685A697B46BB36B000C78
:10586000A3BD07D0A0A305D07FDF8C869596D7DF98
:1058700007D0A3BD05D0A0B303D08C969596D8DFF2
:10588000A5BB05D0A58F0301376B08D00001A68109
:105890000301336B326B0001A59F0301335303E116
:1058A0003251030809E20001A59FA691AC6BAB6BD6
:1058B000A09BA0B701D0A0930001A6A10FD0A5ADD9
:1058C0000AD0A08BAC5303E1AB51000803E2A09BCC
:1058D000A083A09103D0A09BAC6BAB6BFEEF47F015
:1058E0000900F6CFF4F6F7CFF5F6F8CFF6F6F55057
:1058F0009EA8FED7AD6EF4C6F6FFF5C6F7FFF6C656
:10590000F8FF0601F32F01D002D00001E9D7000112
:10591000000CEACFF6F6E9CFF5F60601EFAF08D0B6
:10592000F58FF5A9F52BEE1FEF1FEE2BD8B4EF2B5B
:10593000EF39F009F16FF127E20FF26F320FF46FD8
:10594000EF510F0BF227F227F427E90FF36FF3273C
:10595000F327EE390F0BF327F427F337F437F41F4F
:10596000F437EE510F0BF427F137070EF06F0A0EE4
:10597000F307F427FDE3F207F327FDE3F107F2272E
:10598000FDE3F007F127FDE3060EEA6EF00EE96E87
:10599000070EF515F59DE906F51507E1F5B9E92AB4
:1059A000F5B903D0200E006E1CD0E926F40EE95C98
:1059B000D8B4F58DEF50006E08E1F5BD06D0F5B90D
:1059C00014D0F5B702D0200E0BD0F5AF06D02D0EB7
:1059D000006EED50F59DF59F04D0F587F599300EDA
:1059E000002600509EA8FED7AD6EEE50F5ADDED776
:1059F0000001000C07010051B608006F036A01C7DF
:105A000004F7018FD890013302330333033202329B
:105A100001320032002FF6D704AF0BD0001E011E5A
:105A2000021E031E002AD8B4012AD8B4022AD8B410
:105A3000032A000189EF2DF0006A016A026A036AF5
:105A40000701086B096B0A6B0B6B075106110511F7
:105A500004112CE0200E0C6FD8900037013702376C
:105A60000337083709370A370B3707510B5D08E151
:105A700006510A5D05E10551095D02E10451085D29
:105A80000FE30451085F0551D8A0053D095F065199
:105A9000D8A0063D0A5F0751D8A0073D0B5FD8800C
:105AA00000360136023603360C2FD6D7070EEA6EC3
:105AB000080EE96E0001000CE9500601F86FF7517D
:105AC000FA6F1DE0F6C607F7F5C606F7F4C605F748
:105AD000F3C604F707010B6B0A6B200E096F820EE9
