:0400000047EF0AF0CC
:08000800046ED8CF05F0E0CF33
:1000100006F00001E9CF0CF0EACF07F0E1CF08F0DD
:10002000E2CF09F0D9CF0AF0DACF0BF0F3CF12F01C
:10003000F4CF13F0FACF14F0FBCF15F000C00EF0A0
:1000400001C00FF002C010F003C011F09DA62CEF0C
:1000500000F09EB62EEF01F00EC000F00FC001F0D0
:1000600010C002F011C003F00CC0E9FF07C0EAFFA6
:10007000078E08C0E1FF09C0E2FF0AC0D9FF0BC02C
:10008000DAFF12C0F3FF13C0F4FF14C0FAFF15C06B
:10009000FBFF045006C0E0FF05C0D8FF100043413D
:1000A0004C454E54414D49454E544F000000000010
:1000B00000004E4F20454E5655454C544F5320316D
:1000C0003334000000004E4F20454E5655454C54E9
:1000D0004F532031323100000000454E5655454CFB
:1000E000544F532031333400000000000000454ECF
:1000F0005655454C544F532031323100000000001A
:100100000000454E5655454C544F20444F424C45F7
:10011000203100000000454E5655454C544F2044B8
:100120004F424C452032000000005052494F4E00D3
:100130000000000000000000000000000000424F2E
:100140005749452026204449434B00000000000049
:100150000000544553542044452046554741530020
:100160000000000000005445535420444520434FF4
:100170004D504F4E454E54455300484F5241205923
:10018000204645434841000041646D696E0000000F
:100190000000000000000000000000004F706572C9
:1001A00061646F7220310000000000000000000058
:1001B0004F70657261646F722032000000000000B1
:1001C000000000004F70657261646F7220330000A0
:1001D00000000000000000004F70657261646F72E3
:1001E0002034000000000000000000004F70657225
:1001F00061646F7220350000000000000000000004
:100200004F70657261646F7220360000000000005C
:10021000000000004F70657261646F72203700004B
:1002200000000000000000004F70657261646F7292
:100230002038000000000000000000005465636EDC
:1002400069636F00C95081C2C9FFC6889E96C7B056
:10025000FED7016AC6B8012A48EF01F0C7BA04D038
:100260000201646BC7B4648F02016451642B010105
:10027000F46FF45180080EE11A0E5524E96E020E57
:100280005620EA6EEFCF80F280C281F20001DAD709
:100290009DD00101C69C9EA6FED7C950C68802010A
:1002A0007F6F0101F42D03D07FC21DF08ED0F45179
:1002B000020807E17FC21EF01EC056F01DC055F0B7
:1002C00084D0F4510308D8A480D056520CE1555084
:1002D000270809E33F0E5524E96E020E5620EA6E08
:1002E0007FC2EFFF72D0565203E15550270816E245
:1002F000565214E15550880811E3280E555C02014E
:10030000806F000E5658816F640E8025E96E000ED6
:100310008121EA6E7FC2EFFF57D00101565203E1FF
:100320005550880816E2565214E15550EB0811E377
:10033000890E555C0201806F000E5658816FC80E01
:100340008025E96E000E8121EA6E7FC2EFFF3CD06E
:100350000101565203E15550EB0818E256500108CE
:1003600015E303E155504F0811E3EC0E555C020113
:10037000806F000E5658816F2C0E8025E96E010E9D
:100380008121EA6E7FC2EFFF1FD0010156500008A5
:100390001CE2FF0A03E15550500817E256500108CD
:1003A00014E303E15550680810E3510E555C020157
:1003B000806F010E5658816F900E8025E96E010EF8
:1003C0008121EA6E7FC2EFFF010100019E962CEFB2
:1003D00000F02020416A7573746F20466563686180
:1003E000207920686F7261200A00253032752D2532
:1003F0003032752D253032752020253032753A2562
:1004000030327520202530332E3166B04320202530
:1004100030334C756B5061200A00204155544F43D6
:100420004C415645204449474954414C20204A50AC
:1004300020494E474C4F42414C20200A0000204F9B
:1004400050455241444F523A5F5F5F5F5F5F5F5F6D
:100450005F5F5F5F5F5F5F5F5F5F5F5F5F5F0A0060
:1004600020204369636C6F20646520457374657256
:10047000696C697A6163696F6E202325303275205B
:100480000A00506572736F6E616C697A61646F20E7
:10049000253032750A004369636C6F20232530359F
:1004A0004C750A0046454348413A20253032752DA7
:1004B000253032752D25303275200A0020484F52E4
:1004C00041202054454D5020202020205043202002
:1004D00020202050502020200A00253032753A2557
:1004E000303275202530332E316625634320253088
:1004F000334C756B5061202530334C756B50612047
:100500000A00253032753A25303275202530332ED9
:100510003166256343202530334C756B50612025AF
:1005200030334C756B5061200A0020506172616459
:100530006120646520456D657267656E6369612041
:100540004163746976616461200A000020202020E4
:100550002020204369636C6F2043616E63656C618A
:10056000646F200A00002020205469656D706F20A0
:100570006465204C6C656E61646F2070726F6C6F87
:100580006E6761646F0A00002020202045413031F1
:10059000204369636C6F2043616E63656C61646FB7
:1005A000200A00002020202020205465726D6F73E7
:1005B0007461746F20416374697661646F0A00002E
:1005C0002020202045413032204369636C6F204356
:1005D000616E63656C61646F200A00005469656D2B
:1005E000706F2064652043616C656E74616D696530
:1005F0006E746F20457863657369766F0A002020FA
:10060000202045543031204369636C6F2043616E74
:1006100063656C61646F200A000020536F6272652D
:100620007061736F20656E206C612074656D7065FC
:100630007261747572610A002020202045543032A6
:10064000204369636C6F2043616E63656C61646F06
:10065000200A000020536F6272657061736F20651D
:100660006E206C612070726573696F6E0A002020C5
:10067000202045503031204369636C6F2043616E08
:1006800063656C61646F200A0000204572726F72AE
:1006900020656E20626F6D62612064652056616323
:1006A000696F0A00202020204556303120436963BD
:1006B0006C6F2043616E63656C61646F200A00009B
:1006C000205469656D706F20646520566163696FA1
:1006D00020457863657369766F0A0000202020202A
:1006E00045563032204369636C6F2043616E636509
:1006F0006C61646F200A00002020202020204369C4
:10070000636C6F2046696E616C697A61646F200A60
:10071000000020202020202020436F727265637427
:10072000616D656E7465200A0000202025303275E9
:100730003A2530327520202530332E3166B04320E3
:10074000202530334C756B506120200A000020209A
:1007500020204572726F7220456D70617175652041
:100760005075657274610A002020202045453031A3
:10077000204369636C6F2043616E63656C61646FD5
:10078000200A0000204155544F434C415645204417
:1007900049474954414C20204A5020494E474C4F2C
:1007A00042414C20200A0000204F50455241444F06
:1007B00052202025730A000020204369636C6F20BB
:1007C0006465204573746572696C697A6163696FE9
:1007D0006E202325303275200A00506572736F6ECB
:1007E000616C697A61646F20253032750A00436953
:1007F000636C6F20232530354C750A00464543480D
:10080000413A20253032752D253032752D25303274
:1008100075200A0020484F5241202054454D502059
:100820002020202050432020202020505020202015
:10083000416C0A00253032753A253032752025305A
:10084000332E3166256343202530334C756B506160
:10085000202530334C756B506120253032750A00ED
:10086000253032753A25303275202530332E3166E9
:10087000256343202530334C756B50612025303380
:100880004C756B506120253032750A002530327569
:100890003A25303275202530332E316625634320CA
:1008A0002530334C756B5061202530334C756B50BF
:1008B0006120253032750A00253032753A253032F4
:1008C00075202530332E3166256343202530334C87
:1008D000756B5061202530334C756B50612025308D
:1008E00032750A00496D70726573696F6E204669D2
:1008F0006E616C697A6164610A009EA8FED7AD6E74
:10090000000C020EEA6E660EE96EEF500DE0060E68
:10091000016E006A002EFED7012EFBD77B0E006E03
:10092000002EFED7EF2EF3D7000C8E0E006E6DC298
:1009300001F06CC202F0036A015209E102C001F049
:10094000026A080E005E015202E1006A08D0D890E7
:1009500001BE04D0023601360006F9D7019E000C14
:1009600002016C51D8B4A5D0786F7051D8B4A1D021
:10097000785F05E37F0E7827D8B09BD006D0810E34
:10098000785FD8A096D0D8B494D078C200F0016A2D
:10099000026A036A776B6DC276F2768F6EC275F269
:1009A0006FC274F2190E786F7351745F0DE2010E0D
:1009B000755F0AE2765F08E2775F06E2772B762BB7
:1009C000752B7351742728D07251755F12E2010E96
:1009D000765F0FE2775F0DE2772B762B72517527EA
:1009E0007351742719E3752B17E1762B15E1772BDB
:1009F00013D071518009765F0EE2010E775F0BE232
:100A0000772B71518009762772517527E9E3762B90
:100A1000E7E1772BE5D70380782F01D00BD0D89072
:100A20007437753776377737D89003360236013604
:100A30007937BAD779A106D0D89001320232033281
:100A4000793302D0000635E079BF1ED0D8907437D4
:100A50007537763777377351745F07E2010E755F2C
:100A600004E2765F02E2775F1AE37251755F05E296
:100A7000010E765F02E2775F12E371518009765FC3
:100A800003E2010E775F0BE3032A09E1022A07E183
:100A9000012A05E1002A0DE00132023203326DC263
:100AA00078F27151781B78AF02D0018E06D0019E8A
:100AB00004D0006A016A026A036A0001000C800E19
:100AC000D8A202D00201711B0201766B776B6DC256
:100AD00075F27151751B6C51D8B4DFD0746F006E14
:100AE0007051D8B4E3D0745FD8B483D03EE371C200
:100AF0007AF27A8F72C279F273C278F2776BD890F9
:100B00007A33793378337733742FF8D775AF03D0CE
:100B10007681E0D0769174917689020EEA6E6F0E3E
:100B2000E96EEBD0769975BF0AD074A113D07A33F1
:100B3000793378337733002AD8B4C7D00BD07ABF53
:100B40000CD0D8907737783779377A370006D8B411
:100B5000BCD0F5D7768D6DD0769D6DC275F26DAF38
:100B600002D07A8FABD07A9FA9D070C274F270C2D3
:100B700000F06C51745F6DC27AF27A8F6EC279F2B6
:100B80006FC278F2776BD8907A33793378337733D2
:100B9000742FF8D775AF03D076839CD07693749179
:100BA000768B020EEA6E730EE96EA7D0769B75BF48
:100BB0000AD074A113D07A33793378337733002A8B
:100BC000D8B483D00BD07ABF0CD0D8907737783791
:100BD00079377A370006D8B478D0F5D7768F29D010
:100BE000769F71C275F271AF02D07A8F67D07A9F0B
:100BF00065D071C27AF27A8F72C279F273C278F2DA
:100C000075AF04D07A9F768565D07695776B7491B1
:100C1000020EEA6E6F0EE96E70D075BF1CD06DC209
:100C200075F274A106D07A33793378337733002A9A
:100C30004CE077AF0BD0782B09E1792B07E17A2BC9
:100C400005E17A3379337833002A3FE076BD84D7E3
:100C500076BFC6D71CD0800E7A1B7AAF04D03AD0AC
:100C600071C275F20AD06DC275F27A5306E17953FA
:100C700004E1785302E1006A21D07ABF08D0D8900D
:100C80007737783779377A37002EF7D71ED075AF98
:100C900002D07A8F13D07A9F11D070C200F071C247
:100CA0007AF272C279F273C278F208D06CC200F0A4
:100CB0006DC27AF26EC279F26FC278F27AC201F036
:100CC00079C202F078C203F034D0006A016A026A85
:100CD000036A2FD0776B781F791F7A1F771F772BC6
:100CE00005E1782B03E1792B01E17A2B76B112D75C
:100CF00076B354D776B589D7B3D7EF50782705E3C5
:100D0000792B03E17A2BD8B47481ED52EF50792717
:100D100003E37A2BD8B47481ED52EF50EFBE01D0CB
:100D2000800A7A27D8B0748176B9FCD676BB3ED7D4
:100D300074D70001000C02016D6B40C26CF200011F
:100D4000F4DD03C038F002C037F001C036F000C057
:100D500035F002016D6B3FC26CF20001E6DD03C0AD
:100D600030F002C02FF001C02EF000C02DF038C0CE
:100D70006FF237C06EF236C06DF235C06CF2020110
:100D8000736B726B200E716F820E706F0001E8DD65
:100D9000D89230C06FF22FC06EF22EC06DF22DC00F
:100DA0006CF203C073F202C072F201C071F200C0B3
:100DB00070F285DE03C030F002C02FF001C02EF0CB
:100DC00000C02DF042C250F041C24FF044C252F078
:100DD00043C251F002016D6B45C26CF20001A5DD0A
:100DE00003C024F002C023F001C022F000C021F0B3
:100DF00046C263F047C21AF048C217F049C218F061
:100E00004AC219F002016D6B4BC26CF200018DDD1C
:100E100003C028F002C027F001C026F000C025F072
:100E20004CC240F04DC241F04EC244F04FC243F0BC
:100E300050C242F051C245F052C246F053C247F090
:100E400054C24AF055C24BF056C24CF04E980201C3
:100E500057B14E8858C257F059C258F05AC259F08B
:100E60005BC25AF05CC25BF05DC25CF05EC25DF0DA
:100E70005FC25EF060C25FF061C260F062C261F0AA
:100E800063C262F04CC054F04BC053F0000132EF2B
:100E90000BF03BC01AF21CC01BF239C01CF23CC064
:100EA0001DF23DC01EF23EC01FF23FC020F23BC00B
:100EB00021F22C0E0201226F20C023F2000139EF33
:100EC0000BF00900F55211E0F6CF66F2F7CF67F2AA
:100ED000F8CF68F2F5509EA8FED7AD6E66C2F6FF59
:100EE00067C2F7FF68C2F8FFECD7000C0201695136
:100EF000016A685D03E268C200F00CD0006A080E67
:100F00006A6F683700366951005CD8B0006E0136F0
:100F10006A2FF7D70001000C015066C268F2640E18
:100F20000201696F0001E2DF00C066F20150300E7D
:100F300008E1020167A30ED067B70CD067B9200E95
:100F400004D00201679767996781012601509EA826
:100F5000FED7AD6E66C268F20A0E696F0001C6DF89
:100F600000C066F20150300E08E1020167B70BD0F5
:100F700067A109D067B9200E0001012601509EA883
:100F8000FED7AD6E0201300E662766519EA8FED7D1
:100F9000AD6E0001000C02017251D8B471D0006E28
:100FA0007651D8B46DD0002604E3810E002668E2A5
:100FB00004D07F0E005E64E363E073C27AF277517F
:100FC0007A1B738F778F75517903F4CF7CF274514C
:100FD0007803F4CF03F0F3CF7BF27903F3507C274F
:100FE000F4507B23000E032275517803F3507C27C5
:100FF000F4507B23000E026A03220222735179030C
:10100000F3507B27F4500322000E02227351780321
:10101000F3500326F4500222000E016A012275519A
:101020007703F3507B27F4500322000E02220122A3
:1010300074517703F3500326F4500222000E01226C
:1010400073517703F3500226F4500122002A01BEA7
:1010500005D07B370336023601360006000E7BAF23
:101060000AD0032A02220122015005E1025003E1C5
:10107000035001E1002A7ABF018E7AAF019E04D0AD
:10108000006A016A026A036A0001BFEF08F0020108
:101090007251B608726F036A73C276F2738FD8907A
:1010A0007333743375330332023201320032722FDC
:1010B000F6D776AF0BD0001E011E021E031E002ABB
:1010C000D8B4012AD8B4022AD8B4032A0001D4EF34
:1010D00008F0006A016A026A036A02017A6B7B6B9C
:1010E0007C6B7D6B79517811771176112CE0200E95
:1010F0007E6FD89072377337743775377A377B378E
:101100007C377D3779517D5D08E178517C5D05E163
:1011100077517B5D02E176517A5D0FE376517A5F1C
:101120007751D8A0773D7B5F7851D8A0783D7C5F20
:101130007951D8A0793D7D5FD880003601360236DE
:1011400003367E2FD6D7020EEA6E7A0EE96E0001C4
:10115000000CE95002016A6F69516C6F1BE068C2B4
:1011600075F267C274F266C273F265C272F2796B8D
:10117000786B200E776F820E766F00010CD703C05C
:1011800068F202C067F201C066F200C065F20201B7
:101190006C2FE5D768C275F267C274F266C273F24B
:1011A00065C272F2000173D703C068F202C067F231
:1011B00001C066F200C065F2020168AF0DD06A0797
:1011C0006A8B651F661F671F681F652BD8B4662B67
:1011D000D8B4672BD8B4682B3B0E716F9A0E706F22
:1011E000CA0E6F6F6E6B0A0E6C6F6951D8B46A2BA2
:1011F00068C275F267C274F266C273F265C272F2B7
:1012000071C279F270C278F26FC277F26EC276F272
:1012100000015FDF0150EFCF65F2ECCF66F2ECCF5B
:1012200067F2ECCF68F2005213E1020169296C5DAC
:10123000D8A402D000010CD06A510DE00F0B6C5DF8
:1012400001E03CE26ABF3AD06ABD05D0200E31D041
:10125000200E02016A176AAB0DD06A9B6951D8A4AF
:101260006A0700506A6F2D0E9EA8FED7AD6E6A51B8
:10127000006E6A6B69516C5D0BE100506A6F2E0E57
:101280009EA8FED7AD6E6A51006E200E6A17000E42
:10129000300E6AAB0ED06A9B6951D8A46A07005021
:1012A0006A6F2D0E9EA8FED7AD6E6A51006E6A6BF6
:1012B000300E002600509EA8FED7AD6E71C275F2AA
:1012C00070C274F26FC273F26EC272F2796B786B95
:1012D000776B0A0E766F0001FCDE03C071F202C06C
:1012E00070F201C06FF200C06EF202016C2F80D765
:1012F0000001000C0900F6CF67F2F7CF68F2F8CFD3
:1013000069F2F5509EA8FED7AD6E67C2F6FF68C2BF
:10131000F7FF69C2F8FF0201662F01D002D0000179
:10132000E9D70001000CEACF6DF2E9CF6CF20201BF
:101330006639F009686F6827E20F696F320F6B6FCB
:1013400066510F0B692769276B27E90F6A6F6A27B8
:101350006A2765390F0B6A276B276A376B376B1F54
:101360006B3765510F0B6B276837070E676F0A0ED7
:101370006A076B27FDE369076A27FDE368076927AA
:10138000FDE367076827FDE3020EEA6E670EE96E6C
:10139000070E6C156C9DE9266B0EE95CD8B46C8D5C
:1013A000EF50006E08E16CBD06D06CB90CD06CB784
:1013B00002D0200E03D06C876C99300E00260050AE
:1013C0009EA8FED7AD6EEE506CADE6D70001000CC6
:1013D00002016D6B67C26CF2000195EC04F003C072
:1013E0006BF202C06AF201C069F200C068F26BC21F
:1013F0006FF26AC26EF269C26DF268C26CF20201EB
:10140000736B726B200E716F820E706F0001B0EC07
:1014100004F0000C66C26DF202016A516D1B6DAFE3
:1014200005D0D894D89066BFD8802FD066C26DF210
:1014300069C26EF265516E5F06E06DAF26D0D8507E
:10144000010AD86E22D06AC26EF266516E5F06E063
:101450006DAF1BD0D850010AD86E17D06BC26EF298
:1014600067516E5F06E06DAF10D0D850010AD86E9C
:101470000CD06CC26EF268516E5F06E06DAF05D0A5
:10148000D850010AD86E01D0D8900001000CF86A3B
:10149000D09E078EEA6AE96AB896400EAF6EA60E35
:1014A000AC6E900EAB6E94869488B00EC86E360EFD
:1014B000C66E176A186A196A1A6A1B6A1C6A1D6A5C
:1014C0001E6A1F6A206A246A236A226A216A286ABD
:1014D000276A266A256A2C6A2B6A2A6A296A306A70
:1014E0002F6A2E6A2D6A346A336A326A316A386A20
:1014F000376A366A356A396A3A6A3B6A3C6A3D6AD3
:101500003E6A3F6A406A416A426A436A446A456A7F
:10151000466A476A486A496A4A6A4B6A4C6A4D6A2F
:101520004E904E924E944E964E98506A4F6A526A22
:10153000516A546A536A566A556A576A586A596AB0
:101540005A6A5B6A5C6A5D6A5E6A5F6A606B616B5D
:10155000626B636BC150C00B0F09C16E070EB46E96
:10156000030E0201646F000E956E936EFF0E926E75
:101570008B8A949A8C8695968C8495948A9E939E59
:101580008A9C939C8A9A939A8A9893988A9693961F
:101590008A9493948A9293928A9093908C9E959E2B
:1015A0008C9C959C8C9A959A8C9895988C82959207
:1015B0008C8095909D86D180C00EF2128B8494947D
:1015C0001B0E00017DEC04F0100E006E002EFED705
:1015D0000000400E7DEC04F0100E006E002EFED7D1
:1015E00000000A0E7DEC04F0020E0201656FFA0E97
:1015F000666F000181EC04F00201652FF8D78B942F
:1016000094948A9E939E8B8A949A8C8695968C84C9
:1016100095948A9E939E8A9C939C8A9A939A8A9880
:1016200093988A9693968A9493948A9293928A90A6
:1016300093908C9E959E8C9C959C8C9A959A8C9858
:1016400095988C8295928C809590280E656FFA0EF5
:10165000666F000181EC04F00201652FF8D70001EC
:101660009BEF06F0010E0201666F000181EC04F0B1
:1016700010D40400632D03D08C92959202D08C82FA
:101680009592582C03D08B9A949A02D08B8A949A74
:10169000572C03D08C96959602D08C869596592C13
:1016A00003D08C94959402D08C8495945A2C1FD09E
:1016B00081BE1CD08A8E939E040E0201656FFA0EC5
:1016C000666F000181EC04F00201652FF8D78A9E55
:1016D000939E040E656FFA0E666F000181EC04F0B4
:1016E0000201652FF8D78A8E939E000102D08A9E50
:1016F000939E5B2C1FD081BC1CD08A8C939C040EC3
:101700000201656FFA0E666F000181EC04F00201C0
:10171000652FF8D78A9C939C040E656FFA0E666F4E
:10172000000181EC04F00201652FF8D78A8C939CAC
:10173000000102D08A9C939C5C2C05D08A8A939AE3
:101740008A88939804D08A9A939A8A9893985D2C61
:1017500005D08A8693968A84939404D08A96939629
:101760008A9493945E2C03D08A82939202D08A92B8
:1017700093925F2C03D08A80939002D08A909390AA
:10178000602D03D08C8E959E02D08C9E959E612DEF
:1017900003D08C8C959C02D08C9C959C622D03D0A0
:1017A0008C8A959A02D08C9A959A41500508D8A4B3
:1017B00097D04EB495D0200E9EA8FED7AD6E200EC9
:1017C0009EA8FED7AD6E0A0E9EA8FED7AD6E100E77
:1017D000006E002EFED70000D20EF66E030EF76EDE
:1017E000000EF86E61EC07F0100E006E002EFED7B2
:1017F000000044C066F2010E0201676F00018CEC2C
:1018000007F02D0E9EA8FED7AD6E43C066F2010E06
:101810000201676F00018CEC07F02D0E9EA8FED729
:10182000AD6E42C066F2010E0201676F00018CECE2
:1018300007F0200E9EA8FED7AD6E200E9EA8FED704
:10184000AD6E45C066F2010E0201676F00018CECBF
:1018500007F03A0E9EA8FED7AD6E46C066F2010EA6
:101860000201676F00018CEC07F0200E9EA8FED7E6
:10187000AD6E200E9EA8FED7AD6E420EE96E30C052
:1018800068F22FC067F22EC066F22DC065F2010E1D
:101890000201696F00015DDC0B0EF66E040EF76E3F
:1018A000000EF86E040E0201666F000123DD0A0EC1
:1018B000E96E50C066F24FC065F235DD140EF66E6B
:1018C000040EF76E000EF86E050E0201666F000141
:1018D00011DD100E006E002EFED700004E8404D0E5
:1018E0004150050801E04E944A500F08D8A449D150
:1018F0004EB247D14052D8B436D140501408D8A087
:1019000032D11A0EF66E040EF76E000EF86E61EC10
:1019100007F0100E006E002EFED700003E0EF66E91
:10192000040EF76E000EF86E61EC07F0100E006EFC
:10193000002EFED70000600EF66E040EF76E000E4D
:10194000F86E1B0E0201666F0001D4DC40C066F227
:10195000010E0201676F00018CEC07F0200E9EA8BB
:10196000FED7AD6E0A0E9EA8FED7AD6E100E006EAD
:10197000002EFED7000040500A0819E3010E405C1B
:10198000140DF350036A0201656F9E0EF66E000E91
:10199000F76E000EF86E6551F626000EF722000174
:1019A00061EC07F00A0E9EA8FED7AD6E17D0820E2E
:1019B000F66E040EF76E000EF86E0E0E0201666FE4
:1019C000000198DC40C066F2010E0201676F000161
:1019D0008CEC07F00A0E9EA8FED7AD6E100E006EBE
:1019E000002EFED70000960EF66E040EF76E000E67
:1019F000F86E070E0201666F00017CDC080EE96ECE
:101A000054C066F253C065F28EDC0A0E9EA8FED763
:101A1000AD6E100E006E002EFED70000A40EF66E06
:101A2000040EF76E000EF86E070E0201666F0001DD
:101A300061DC44C066F2010E0201676F00018CECAC
:101A400007F02D0E9EA8FED7AD6E43C066F2010EC4
:101A50000201676F00018CEC07F02D0E9EA8FED7E7
:101A6000AD6E42C066F2010E0201676F00018CECA0
:101A700007F0200E9EA8FED7AD6E0A0E9EA8FED7D8
:101A8000AD6E100E006E002EFED70000BC0EF66E7E
:101A9000040EF76E000EF86E61EC07F0100E006E8B
:101AA000002EFED7000045C066F2010E0201676FEE
:101AB00000018CEC07F03A0E9EA8FED7AD6E46C032
:101AC00066F2010E0201676F00018CEC07F0200E38
:101AD0009EA8FED7AD6E420EE96E30C068F22FC0F0
:101AE00067F22EC066F22DC065F2010E0201696F29
:101AF0000001A9EC08F0DF0E9EA8FED7AD6E430EE4
:101B00009EA8FED7AD6E200E9EA8FED7AD6E0A0E23
:101B1000E96E50C066F24FC065F205DCF30EF66E5A
:101B2000040EF76E000EF86E040E0201666F0001DF
:101B30007AEC09F00A0EE96E52C066F251C065F205
:101B400093EC09F0FC0EF66E040EF76E000EF86EC4
:101B5000050E0201666F00017AEC09F0100E006EAE
:101B6000002EFED70000040E0201656FFA0E666FAC
:101B7000000181EC04F00201652FF8D74E824E80FF
:101B800000014A50050862E14EB060D04EB65ED00A
:101B900045C066F2010E0201676F00018CEC07F090
:101BA0003A0E9EA8FED7AD6E46C066F2010E020147
:101BB000676F00018CEC07F0200E9EA8FED7AD6E7B
:101BC000420EE96E30C068F22FC067F22EC066F296
:101BD0002DC065F2010E0201696F0001A9EC08F049
:101BE000DF0E9EA8FED7AD6E430E9EA8FED7AD6E4B
:101BF000200E9EA8FED7AD6E0A0EE96E50C066F2AA
:101C00004FC065F293EC09F01B0EF66E050EF76EF1
:101C1000000EF86E040E0201666F00017AEC09F006
:101C20000A0EE96E52C066F251C065F293EC09F0FB
:101C3000240EF66E050EF76E000EF86E050E02010C
:101C4000666F00017AEC09F04E803FD14A501408CB
:101C500014E14EB612D02A0EF66E050EF76E000E87
:101C6000F86E61EC07F04C0EF66E050EF76E000E86
:101C7000F86E61EC07F04E8628D14A50150814E141
:101C80004EB612D0660EF66E050EF76E000EF86EAA
:101C900061EC07F0880EF66E050EF76E000EF86E1A
:101CA00061EC07F04E8611D14A50160814E14EB689
:101CB00012D0A40EF66E050EF76E000EF86E61ECF3
:101CC00007F0C00EF66E050EF76E000EF86E61ECB2
:101CD00007F04E86FAD04A50180814E14EB612D0DA
:101CE000DC0EF66E050EF76E000EF86E61EC07F076
:101CF000FE0EF66E050EF76E000EF86E61EC07F044
:101D00004E86E3D04A50170814E14EB612D01A0E90
:101D1000F66E060EF76E000EF86E61EC07F0380EE8
:101D2000F66E060EF76E000EF86E61EC07F04E864A
:101D3000CCD04A50190814E14EB612D0540EF66EAB
:101D4000060EF76E000EF86E61EC07F06E0EF66E82
:101D5000060EF76E000EF86E61EC07F04E86B5D0F9
:101D60004A501A0814E14EB612D08A0EF66E060ECC
:101D7000F76E000EF86E61EC07F0A40EF66E060E1C
:101D8000F76E000EF86E61EC07F04E869ED04A505A
:101D90001B0814E14EB612D0C00EF66E060EF76E9A
:101DA000000EF86E61EC07F0DC0EF66E060EF76EB4
:101DB000000EF86E61EC07F04E8687D04A501C0882
:101DC00068E14EB666D0F80EF66E060EF76E000E9F
:101DD000F86E61EC07F0120EF66E070EF76E000E4D
:101DE000F86E61EC07F0200E9EA8FED7AD6E200EB7
:101DF0009EA8FED7AD6E45C066F2010E0201676F68
:101E000000018CEC07F03A0E9EA8FED7AD6E46C0DE
:101E100066F2010E0201676F00018CEC07F0200EE4
:101E20009EA8FED7AD6E200E9EA8FED7AD6E420EC8
:101E3000E96E30C068F22FC067F22EC066F22DC086
:101E400065F2010E0201696F0001A9EC08F03D0E78
:101E5000F66E070EF76E000EF86E040E0201666F46
:101E600000017AEC09F00A0EE96E50C066F24FC02C
:101E700065F293EC09F0460EF66E070EF76E000E53
:101E8000F86E060E0201666F00017AEC09F04E86CC
:101E90001CD04A501D0814E14EB612D04E0EF66EFC
:101EA000070EF76E000EF86E61EC07F0680EF66E26
:101EB000070EF76E000EF86E61EC07F04E8605D047
:101EC0004A500A0802E14E904E924EA803D08B84ED
:101ED000949402D08B949494643D0CEF16F0653D7D
:101EE0000CEF16F0040E0201656FFA0E666F00012A
:101EF00081EC04F00201652FF8D7840EF66E070E10
:101F0000F76E000EF86E000161EC07F0100E006E27
:101F1000002EFED700006651140DF350036A020133
:101F2000656FA80EF66E070EF76E000EF86E0B0EBC
:101F3000666F00017AEC09F0880EF66E010EF76EFE
:101F4000000EF86E02016551F626000EF722000120
:101F500061EC07F00A0E9EA8FED7AD6E100E006E63
:101F6000002EFED70000010E675D0201656FB80EFE
:101F7000F66E070EF76E000EF86E1B0E666F000110
:101F80007AEC09F065C266F2010E0201676F00018A
:101F90008CEC07F0200E9EA8FED7AD6E0A0E9EA810
:101FA000FED7AD6E100E006E002EFED70000405022
:101FB0000A0819E3010E675D140DF350036A02016C
:101FC000656F9E0EF66E000EF76E000EF86E655190
:101FD000F626000EF722000161EC07F00A0E9EA81B
:101FE000FED7AD6E18D0DA0EF66E070EF76E000E45
:101FF000F86E0E0E0201666F00017AEC09F067C000
:1020000066F2010E0201676F00018CEC07F00A0E08
:102010009EA8FED7AD6E100E006E002EFED70000FB
:10202000EE0EF66E070EF76E000EF86E070E02014A
:10203000666F00017AEC09F0080EE96E54C066F292
:1020400053C065F293EC09F00A0E9EA8FED7AD6E60
:10205000100E006E002EFED70000FC0EF66E070E6E
:10206000F76E000EF86E070E0201666F00017AEC43
:1020700009F044C066F2010E0201676F00018CECAA
:1020800007F02D0E9EA8FED7AD6E43C066F2010E7E
:102090000201676F00018CEC07F02D0E9EA8FED7A1
:1020A000AD6E42C066F2010E0201676F00018CEC5A
:1020B00007F0200E9EA8FED7AD6E0A0E9EA8FED792
:1020C000AD6E100E006E002EFED70000140EF66EE0
:1020D000080EF76E000EF86E61EC07F0100E006E41
:1020E000002EFED700004D6A4D500908D8A056D1E9
:1020F0004D50090DF3500D0F036A640FE96E000E89
:102100000320EA6EEFCF3CF03C50190802E23C6A33
:1021100045D14D50090DF3500E0F036A640FE96E5F
:10212000000E0320EA6EEFCF3DF03D503B0802E287
:102130003D6A34D14D50090DF350090F036A640F05
:10214000E96E000E0320EA6EEFCF65F24D50090DE7
:10215000F3500A0F036A640FE96E000E0320EA6E63
:10216000EFCF66F265C250F066C24FF050500008E3
:1021700008E2FF0A03E14F50900803E2506A4F6AF9
:102180000DD14D50090DF3500B0F036A640FE96E2A
:10219000000E0320EA6EEFCF65F24D50090DF350AB
:1021A0000C0F036A640FE96E000E0320EA6EEFCF96
:1021B00066F265C252F066C251F05250000808E261
:1021C000FF0A03E15150900803E2526A516AE6D0D7
:1021D0004D50090DF350070F036A640FE96E000EAE
:1021E0000320EA6EEFCF65F24D50090DF350080F52
:1021F000036A640FE96E000E0320EA6EEFCF66F209
:1022000066C267F2E8EC09F000C066F201C067F24E
:1022100002C068F203C069F202016D6B65C26CF224
:10222000000195EC04F0EACF6BF2E9CF6AF2D892A4
:1022300003C06FF202C06EF201C06DF200C06CF21A
:1022400069C273F268C272F267C271F266C270F25A
:102250005FEC05F06BC2EAFF6AC2E9FF03C030F031
:1022600002C02FF001C02EF000C02DF00201686BFB
:10227000676B160E666F860E656F30C06CF22FC0EE
:102280006BF22EC06AF22DC069F200010AEC0AF06E
:1022900005E3306A2F6A2E6A2D6A80D04D50090DF1
:1022A000F3500F0F036A640FE96E000E0320EA6E0D
:1022B000EFCF1FF01F50140802E21F6A6FD03CC01E
:1022C00066F2010E0201676F00018CEC07F03A0E16
:1022D0009EA8FED7AD6E3DC066F2010E0201676F8B
:1022E00000018CEC07F0200E9EA8FED7AD6E420ECA
:1022F000E96E30C068F22FC067F22EC066F22DC0C2
:1023000065F2010E0201696F0001A9EC08F0DF0E11
:102310009EA8FED7AD6E430E9EA8FED7AD6E200ED2
:102320009EA8FED7AD6E0A0EE96E50C066F24FC091
:1023300065F293EC09F04D0EF66E080EF76E000E86
:10234000F86E040E0201666F00017AEC09F00A0EC5
:10235000E96E52C066F251C065F293EC09F0560E78
:10236000F66E080EF76E000EF86E040E0201666F30
:1023700000017AEC09F01FC066F2010E0201676FDE
:1023800000018CEC07F00A0E9EA8FED7AD6E100E71
:10239000006E002EFED700004D2AA6D64D6A4D5085
:1023A0000A08D8A055D14D50090DF350060F036A05
:1023B000C80FE96E000E0320EA6EEFCF3CF03C50F0
:1023C000190802E23C6A44D14D50090DF350070F41
:1023D000036AC80FE96E000E0320EA6EEFCF3DF0EE
:1023E0003D503B0802E23D6A33D14D50090DF35098
:1023F000020F036AC80FE96E000E0320EA6EEFCFEA
:1024000065F24D50090DF350030F036AC80FE96ED2
:10241000000E0320EA6EEFCF66F265C250F066C28E
:102420004FF05050000808E2FF0A03E14F509008B7
:1024300003E2506A4F6A0CD14D50090DF350040F5E
:10244000036AC80FE96E000E0320EA6EEFCF65F253
:102450004D50090DF350050F036AC80FE96E000EC9
:102460000320EA6EEFCF66F265C252F066C251F009
:102470005250000808E2FF0A03E15150900803E2BD
:10248000526A516AE5D04D50090DF350036AC80FE6
:10249000E96E000E0320EA6EEFCF65F24D50090D94
:1024A000F350010F036AC80FE96E000E0320EA6EB5
:1024B000EFCF66F266C267F2E8EC09F000C066F2A0
:1024C00001C067F202C068F203C069F202016D6BDD
:1024D00065C26CF2000195EC04F0EACF6BF2E9CF33
:1024E0006AF2D89203C06FF202C06EF201C06DF2C0
:1024F00000C06CF269C273F268C272F267C271F214
:1025000066C270F25FEC05F06BC2EAFF6AC2E9FFD7
:1025100003C030F002C02FF001C02EF000C02DF03B
:102520000201686B676B160E666F860E656F30C0B2
:102530006CF22FC06BF22EC06AF22DC069F200015E
:102540000AEC0AF005E3306A2F6A2E6A2D6A80D001
:102550004D50090DF350080F036AC80FE96E000EC5
:102560000320EA6EEFCF1FF01F50140802E21F6A2B
:102570006FD03CC066F2010E0201676F00018CEC67
:1025800007F03A0E9EA8FED7AD6E3DC066F2010E72
:102590000201676F00018CEC07F0200E9EA8FED7A9
:1025A000AD6E420EE96E30C068F22FC067F22EC0E9
:1025B00066F22DC065F2010E0201696F0001A9ECFF
:1025C00008F0DF0E9EA8FED7AD6E430E9EA8FED784
:1025D000AD6E200E9EA8FED7AD6E0A0EE96E50C0FD
:1025E00066F24FC065F293EC09F0790EF66E080EB4
:1025F000F76E000EF86E040E0201666F00017AECB1
:1026000009F00A0EE96E52C066F251C065F293EC11
:1026100009F0820EF66E080EF76E000EF86E040ECC
:102620000201666F00017AEC09F01FC066F2010E2C
:102630000201676F00018CEC07F00A0E9EA8FED71E
:10264000AD6E100E006E002EFED700004D2AA7D6EC
:102650004D6A4D500A08D8A055D14D50090DF35080
:10266000060F036A2C0FE96E010E0320EA6EEFCF0E
:102670003CF03C50190802E23C6A44D14D50090D2F
:10268000F350070F036A2C0FE96E010E0320EA6E68
:10269000EFCF3DF03D503B0802E23D6A33D14D5053
:1026A000090DF350020F036A2C0FE96E010E03208F
:1026B000EA6EEFCF65F24D50090DF350030F036A38
:1026C0002C0FE96E010E0320EA6EEFCF66F265C2B1
:1026D00050F066C24FF05050000808E2FF0A03E1D4
:1026E0004F50900803E2506A4F6A0CD14D50090DCB
:1026F000F350040F036A2C0FE96E010E0320EA6EFB
:10270000EFCF65F24D50090DF350050F036A2C0F02
:10271000E96E010E0320EA6EEFCF66F265C252F059
:1027200066C251F05250000808E2FF0A03E151501E
:10273000900803E2526A516AE5D04D50090DF350FA
:10274000036A2C0FE96E010E0320EA6EEFCF65F2EB
:102750004D50090DF350010F036A2C0FE96E010E65
:102760000320EA6EEFCF66F266C267F2E8EC09F08A
:1027700000C066F201C067F202C068F203C069F2ED
:1027800002016D6B65C26CF2000195EC04F0EACFBA
:102790006BF2E9CF6AF2D89203C06FF202C06EF218
:1027A00001C06DF200C06CF269C273F268C272F2CD
:1027B00067C271F266C270F25FEC05F06BC2EAFFAD
:1027C0006AC2E9FF03C030F002C02FF001C02EF052
:1027D00000C02DF00201686B676B160E666F860EE7
:1027E000656F30C06CF22FC06BF22EC06AF22DC044
:1027F00069F200010AEC0AF005E3306A2F6A2E6ADA
:102800002D6A80D04D50090DF350080F036A2C0F2C
:10281000E96E010E0320EA6EEFCF1FF01F5014087F
:1028200002E21F6A6FD03CC066F2010E0201676FC0
:1028300000018CEC07F03A0E9EA8FED7AD6E3DC0AD
:1028400066F2010E0201676F00018CEC07F0200EAA
:102850009EA8FED7AD6E420EE96E30C068F22FC062
:1028600067F22EC066F22DC065F2010E0201696F9B
:102870000001A9EC08F0DF0E9EA8FED7AD6E430E56
:102880009EA8FED7AD6E200E9EA8FED7AD6E0A0E96
:10289000E96E50C066F24FC065F293EC09F0A50EE8
:1028A000F66E080EF76E000EF86E040E0201666FEB
:1028B00000017AEC09F00A0EE96E52C066F251C0CE
:1028C00065F293EC09F0AE0EF66E080EF76E000E90
:1028D000F86E040E0201666F00017AEC09F01FC069
:1028E00066F2010E0201676F00018CEC07F00A0E20
:1028F0009EA8FED7AD6E100E006E002EFED7000013
:102900004D2AA7D64D6A4D500208D8A055D14D503A
:10291000090DF350060F036A900FE96E010E0320B4
:10292000EA6EEFCF3CF03C50190802E23C6A44D119
:102930004D50090DF350070F036A900FE96E010E19
:102940000320EA6EEFCF3DF03D503B0802E23D6AC6
:1029500033D14D50090DF350020F036A900FE96E09
:10296000010E0320EA6EEFCF65F24D50090DF350D2
:10297000030F036A900FE96E010E0320EA6EEFCF9A
:1029800066F265C250F066C24FF05050000808E28F
:10299000FF0A03E14F50900803E2506A4F6A0CD1DE
:1029A0004D50090DF350040F036A900FE96E010EAC
:1029B0000320EA6EEFCF65F24D50090DF350050F7D
:1029C000036A900FE96E010E0320EA6EEFCF66F204
:1029D00065C252F066C251F05250000808E2FF0A88
:1029E00003E15150900803E2526A516AE5D04D501C
:1029F000090DF350036A900FE96E010E0320EA6E91
:102A0000EFCF65F24D50090DF350010F036A900F9F
:102A1000E96E010E0320EA6EEFCF66F266C267F23E
:102A2000E8EC09F000C066F201C067F202C068F28B
:102A300003C069F202016D6B65C26CF2000195EC96
:102A400004F0EACF6BF2E9CF6AF2D89203C06FF2DA
:102A500002C06EF201C06DF200C06CF269C273F286
:102A600068C272F267C271F266C270F25FEC05F082
:102A70006BC2EAFF6AC2E9FF03C030F002C02FF068
:102A800001C02EF000C02DF00201686B676B160EBE
:102A9000666F860E656F30C06CF22FC06BF22EC071
:102AA0006AF22DC069F200010AEC0AF005E3306A0F
:102AB0002F6A2E6A2D6A80D04D50090DF350080FF1
:102AC000036A900FE96E010E0320EA6EEFCF1FF04C
:102AD0001F50140802E21F6A6FD03CC066F2010E5C
:102AE0000201676F00018CEC07F03A0E9EA8FED73A
:102AF000AD6E3DC066F2010E0201676F00018CEC05
:102B000007F0200E9EA8FED7AD6E420EE96E30C0D3
:102B100068F22FC067F22EC066F22DC065F2010E7A
:102B20000201696F0001A9EC08F0DF0E9EA8FED734
:102B3000AD6E430E9EA8FED7AD6E200E9EA8FED7AA
:102B4000AD6E0A0EE96E50C066F24FC065F293ECAE
:102B500009F0D10EF66E080EF76E000EF86E040E38
:102B60000201666F00017AEC09F00A0EE96E52C0AC
:102B700066F251C065F293EC09F0DA0EF66E080EBB
:102B8000F76E000EF86E040E0201666F00017AEC1B
:102B900009F01FC066F2010E0201676F00018CECA4
:102BA00007F00A0E9EA8FED7AD6E100E006E002E26
:102BB000FED700004D2AA7D6E40EF66E080EF76E7B
:102BC000000EF86E61EC07F0100E006E002EFED7BE
:102BD0000000200E9EA8FED7AD6E0A0E9EA8FED75E
:102BE000AD6E100E006E002EFED70000200E9EA8C7
:102BF000FED7AD6E200E9EA8FED7AD6E0A0E9EA823
:102C0000FED7AD6E100E006E002EFED70000050E32
:102C1000206E646B656B02D00A0E206E30EF0BF0F5
:022C20000300AF
:020000040030CA
:0E00000000021F1B0000B0003FC03FE03F4069
:00000001FF
;PIC18F4685
;CRC=C6AD  CREATED="22-ene.-20 12:30"
