:10000000A2EF20F06896000C046ED8CF05F0E0CF88
:1000100006F00001E9CF0CF0EACF07F0E1CF08F0DD
:10002000E2CF09F0D9CF0AF0DACF0BF0F3CF12F01C
:10003000F4CF13F0FACF14F000C00EF001C00FF0AF
:1000400002C010F003C011F09DA02AEF00F09EB096
:10005000F2EF11F0A0AA30EF00F0A1BAAEEF11F06C
:100060000EC000F00FC001F010C002F011C003F08C
:100070000CC0E9FF07C0EAFF078E08C0E1FF09C016
:10008000E2FF0AC0D9FF0BC0DAFF12C0F3FF13C0B2
:10009000F4FF14C0FAFF045006C0E0FF05C0D8FF0B
:1000A0001000F2CF0DF0F29EF76ABC0FF66E000E54
:1000B000F7220900F5500DBEF28E1200000000007C
:1000C0000000005F00000003000300143E143E1413
:1000D000242A7F2A1243330866613649552250008C
:1000E00005030000001C2241000041221C001408EE
:1000F0003E081408083E08080050300000080808B0
:100100000808006060000020100804023E514945C4
:100110003E0004027F00426151494622414949366E
:100120001814127F1027454545393E494949320187
:10013000017109073649494936264949493E003681
:100140003600000056360000081422410014141432
:100150001414004122140802015109063E41595568
:100160005E7E0909097E7F494949363E4141412267
:100170007F4141413E7F494949417F090909013E8B
:100180004141493A7F0808087F00417F41003040E3
:1001900040403F7F081422417F404040407F020C96
:1001A000027F7F0204087F3E4141413E7F090909E9
:1001B000061E2121215E7F0909097600F2CF0DF08C
:1001C000F29EF76AD60FF66E010EF7220900F5507F
:1001D0000DBEF28E1200264949493201017F01010C
:1001E0003F4040403F1F2040201F7F2010207F4184
:1001F000221C224107087008076151494543007FCE
:1002000041000002040810200000417F00040201A8
:100210000204404040404000010204002054545475
:10022000787F444444383844444444384444447F08
:10023000385454541804047E0505085454543C7F23
:100240000804047800447D40002040443D007F10B5
:1002500028440000417F40007C047804787C080436
:10026000047838444444387C1414140808141414D2
:100270007C007C080404485454542004043F444443
:100280003C4040207C1C2040201C3C4030403C44F2
:10029000281028440C5050503C4464544C440008EE
:1002A00036414100007F0000414136080002010252
:1002B0000402F2CF0DF0F29ECA0FF66E020EF72284
:1002C0000900F5500DBEF28E120000000000000083
:1002D000000000000000000000000000000000001E
:1002E000000000000000000000000000000000000E
:1002F000000000000000000000001FF0FFF8FFFCFD
:100300003FF000000000000000001000FFF8FFFCBC
:1003100000180000000000000000100000000000B5
:1003200000180000000000000000100000000000A5
:100330000018000000000000000010000000000095
:100340000018000000000000000010000000000085
:100350000018000000000000000010000000000075
:100360000018000000000000000010000000000065
:100370000018000000000000000010000000020053
:1003800000180000000000000000107E00FC0300C8
:1003900000180000000000000000103F83FC010076
:1003A00080180000000000000000103FFFFC0181E9
:1003B00080180000000000000000103FFFFC0083D8
:1003C00000180000000000000000107FFFFC00C3C8
:1003D000001800000000000000001007FFE00046C9
:1003E000001800000000000000001007FFE0007C83
:1003F000001000000000000000000007FFE0003CCB
:10040000000000000000000000000007FFE00018EE
:10041000000000000000000000000007FFE00018DE
:10042000000000000000000000000007FFE00038AE
:10043000000000000000000000001007FFE00E3C7C
:10044000781000000000000000001007FFE020040A
:10045000001800000000000000001007FFE020C3AB
:10046000001800000000000000001007FFE02082DC
:10047000001800000000000000001007FFE02081CD
:10048000001800000000000000001007FFE020003E
:10049000881800000000000000001007FFE00C00BA
:1004A00060180000000000000000100000000000C4
:1004B0000018000000000000000010000000000014
:1004C0000018000000000000000010000000000004
:1004D00000180000000000000000100000000000F4
:1004E00000180000000000000000100000000000E4
:1004F00000180000000000000000100000000000D4
:10050000001800000000000000001FFF3FFF8FFFE9
:1005100087F800000000000000000000000000005C
:1005200000000000000000000000000000000000CB
:1005300000000000000000000000000000000000BB
:1005400000000000000000000000000000000000AB
:10055000000000000000000000000000000000009B
:10056000000000000000000000000000000000008B
:10057000000000000000000000000000000000007B
:10058000000000000000000000000000000000006B
:10059000000000000000000000000000000000005B
:1005A000000000000000000000000000000000004B
:1005B000000000000000000000000000000000003B
:1005C000000000000000000000000000000000002B
:1005D000000000000000000000000000000000001B
:1005E000000000000000000000000000000000000B
:1005F00000000000000000000000000000000000FB
:1006000000000000000000000000000000000000EA
:1006100000000000000000000000000000000000DA
:1006200000000000000000000000000000000000CA
:1006300000000000000000000000000000000000BA
:1006400000000000000000000000000000000000AA
:10065000000000000000000000000000000000009A
:10066000000000000000000000000000000000008A
:10067000000000000000000000000000000000007A
:10068000000000000000000000000000000000006A
:10069000000000000000000000000000000000005A
:1006A000000000000000000000000000000000004A
:1006B000000000000000000000000000000000003A
:1006C00000000000000000000000F2CF0DF0F29EDC
:1006D000E20FF66E060EF7220900F5500DBEF28EFF
:1006E00012000000000000000000000000000000F8
:1006F00000000000000000000000000000000000FA
:1007000000000000000000000000000000000000E9
:1007100000000000000000000000000000000000D9
:1007200000003FBFEFF9F8000000000000000000EB
:100730000000303FEFF8040000000000000000005F
:100740000000300000000400000000000000000075
:100750000000300000000400000000000000000065
:1007600000003000068004000000000000000000CF
:10077000000030003680040000000000000000008F
:1007800000003000B68004000000000000000000FF
:1007900000003000B68004000000000000000000EF
:1007A00000003000FF800400000000000000000096
:1007B00000003000FFE00400000000000000000026
:1007C00000002000FF80000000000000000000008A
:1007D00000000000FF80000000000000000000009A
:1007E00000002000FF80000000000000000000006A
:1007F00000003000FF800400000000000000000046
:1008000000003001FFC004000000000000000000F4
:1008100000003001FFC004000000000000000000E4
:100820000000300000000400000000000000000094
:100830000000300000000400000000000000000084
:100840000000300000000400000000000000000074
:100850000000300000000400000000000000000064
:1008600000003FCFF9FE7C00000000000000000007
:1008700000003FEFF9FE7C000000000000000000D7
:100880000000000000000000000000000000000068
:100890000000000000000000000000000000000058
:1008A0000000000000000000000000000000000048
:1008B0000000000000000000000000000000000038
:100AE0000000F2CF0DF0F29EFA0FF66E0A0EF7221A
:100AF0000900F5500DBEF28E12000000000000004B
:100B0000000000000000000000007E7FDFFBF80016
:100B1000000000000000000000004000000008008D
:100B2000000000000000000000004000000008007D
:100B3000000000000000000000004003FFE008008B
:100B400000000000000000000000400200600800FB
:100B5000000000000000000000004003FFE008006B
:100B6000000000000000000000004000808008003D
:100B7000000000000000000000004000C0800800ED
:100B8000000000000000000000004000808008001D
:100B9000000000000000000000004000808008000D
:100BA0000000000000000000000040008080000005
:100BB0000000000000000000000000018040000074
:100BC00000000000000000000000000300600000C2
:100BD000000000000000000000004002006008006B
:100BE00000000000000000000000400E003008007F
:100BF00000000000000000000000400C0018080089
:100C0000000000000000000000004018000C080078
:100C10000000000000000000000040101F840800D9
:100C200000000000000000000000401FFFFC080062
:100C3000000000000000000000004000000008006C
:100C4000000000000000000000004000000008005C
:100C5000000000000000000000007FDFFBFEF80045
:100C60000000000000000000000000000000000084
:100C70000000000000000000000000000000000074
:100C80000000000000000000000000000000000064
:100C90000000000000000000000000000000000054
:100EF00000000000000000000000F2CF0DF0F29EA4
:100F0000120FF66E0F0EF7220900F5500DBEF28E8D
:100F1000120007FC7FF9FFF1FF0000000000000055
:100F2000000007FC7FF9FFF3FF80000000000000D5
:100F3000000006000000000001800000000000002A
:100F4000000006003FFFFF000180000000000000DD
:100F5000000006003FFFFF000180000000000000CD
:100F6000000006003F003F0001800000000000007C
:100F700000000600030020000180000000000000C7
:100F800000000600030020000180000000000000B7
:100F900000000600030020000180000000000000A7
:100FA0000000060003002000018000000000000097
:100FB0000000060003002000018000000000000087
:100FC000000006000300380001800000000000005F
:100FD0000000060003000C0001800000000000007B
:100FE000000006000E000300018000000000000069
:100FF00000000600180001800180000000000000D1
:1010000000000400300000C00000000000000000EC
:101010000000000030000060000000000000000040
:101020000000000070000030000000000000000020
:1010300000000403FFFFFFFC0000000000000000B0
:1010400000000603FFFFFFFE01800000000000001B
:101050000000060FFFFFFFFE0180000000000000FF
:101060000000060FFFFFFFFC0180000000000000F1
:101070000000060FFFFFFFFC0180000000000000E1
:101080000000060FFFFFFFFC0180000000000000D1
:1010900000000600FFFFFFE00180000000000000EC
:1010A000000006007FFFFFE001800000000000005C
:1010B00000000600000000000180000000000000A9
:1010C0000000060000000000018000000000000099
:1010D0000000060000000000018000000000000089
:1010E0000000060000000000018000000000000079
:1010F000000007FF9FFF9FFE3F80000000000000F0
:10110000000007FF9FFF9FFE3F80000000000000DF
:1011100000000000000000000000000000000000CF
:1011200000000000000000000000000000000000BF
:1011300000000000000000000000000000000000AF
:10114000000000000000000000000000000000009F
:10115000000000000000000000000000000000008F
:10116000000000000000000000000000000000007F
:10117000000000000000000000000000000000006F
:10118000000000000000000000000000000000005F
:10119000000000000000000000000000000000004F
:1011A000000000000000000000000000000000003F
:1011B000000000000000000000000000000000002F
:1011C000000000000000000000000000000000001F
:1011D000000000000000000000000000000000000F
:1011E00000000000000000000000000000000000FF
:1011F00000000000000000000000000000000000EF
:1012000000000000000000000000000000000000DE
:1012100000000000000000000000000000000000CE
:1012200000000000000000000000000000000000BE
:1012300000000000000000000000000000000000AE
:10124000000000000000000000000000000000009E
:10125000000000000000000000000000000000008E
:10126000000000000000000000000000000000007E
:10127000000000000000000000000000000000006E
:10128000000000000000000000000000000000005E
:10129000000000000000000000000000000000004E
:1012A000000000000000000000000000000000003E
:1012B000000000000000000000000000000000002E
:1012C000000000000000000000000000000000001E
:1012D000000000000000000000000000000000000E
:1012E00000000000000000000000000000000000FE
:1012F00000000000000000000000000000000000EE
:1013000000000000000000000000000000000000DD
:101310000000F2CF0DF0F29E2A0FF66E130EF722A8
:101320000900F5500DBEF28E120000000000000012
:1013300000000000000000000000000000000000AD
:10134000000000000000000000000000000000009D
:10135000000000000000000000000000000000008D
:10136000000000000000000000000000000000007D
:10137000000000000000000000000000000000006D
:10138000000000000000000000000000000000005D
:10139000000000000000000000000000000000004D
:1013A000000000000000000000000000000000003D
:1013B000000000000000000000000000000000002D
:1013C000000000000000000000000000000000001D
:1013D000000000000000000000000000000000000D
:1013E00000000000000000000000000000000000FD
:1013F00000000000000000000000000000000000ED
:1014000000000000000000000000000000000000DC
:1014100000000000000000000000080000000000C4
:10142000000000000000000000001C0000000000A0
:10143000000000000000000000003E00000000006E
:101440000000000000000000000008000000000094
:101450000000000000000000000008000000000084
:101460000000000000000000000008000000000074
:101470000000000000000000000008000001FFFF65
:10148000FE00000000000000000008000002000054
:101490000100000000000000000008000002000041
:1014A00000800000000000000000080000040000B0
:1014B00000400000000000000000080000080000DC
:1014C00000200000000000000000080000080000EC
:1014D00000100000000000000000080000100000E4
:1014E00000080000000000000000080000100000DC
:1014F00000080000000000000000080000200000BC
:10150000000400000000000000000800004000008F
:101510000002000000000000000008000040000081
:101520000001000000000000000008000080000032
:101530000000800000000000000008000100000022
:101540000000400000000000000008000100000052
:101550000000200000000000000008000200000061
:101560000000100000000000000008000200000061
:10157000000000000000000000000800040000005F
:10158000000000000000000000000800080000004B
:10159000000000000000000000000800080000003B
:1015A0000000000000000000000008001000000023
:1015B0000000000000000000000008002000000003
:1015C00000000000000000000000080020000000F3
:1015D00000000000000000000000080040000000C3
:1015E00000000000000000000000080040000000B3
:1015F0000000000000000000000008008000000063
:1016000000000000000000000000080100000000D1
:1016100000000000000000000000080100000000C1
:10162000000000000000000000000FFE00000000AD
:1016300000000000000000000000080000000000A2
:101640000000000000000000000008000000000092
:101650000000000000000000000008000000000082
:101660000000000000000000000008000000000072
:101670000000000200000000000008000000000060
:10168000000000030000000000003FFFFFFFFFFF1D
:10169000FFFFFFFF800000000000000000000000CE
:1016A0000000000300000000000000000000000037
:1016B0000000000200000000000000000000000028
:1016C000000000000000000000000000000000001A
:1016D000000000000000000000000000000000000A
:1016E00000000000000000000000000000000000FA
:1016F00000000000000000000000000000000000EA
:1017000000000000000000000000000000000000D9
:1017100000000000000000000000000000000000C9
:1017200000000000000000000000F76A3A0FF66EAB
:10173000170EF7220900F55012000002FFFFFFFF0D
:10174000FFFFFFFFFFFFFFFFFFFF07AE03D0F2CF5A
:101750000DF0F29EF76A6C0FF66E170EF722090075
:10176000F55007AE02D00DBEF28E120040002000F0
:101770000000000000000000000000000000000069
:10178000000000000000000000000000F76A9C0F4D
:10179000F66E170EF7220900F5501200090220001C
:1017A000010100C0320904000002FFFFFF0007052D
:1017B000810220000107050102200001F76ACC0F19
:1017C000F66E170EF7220900F55012000100F76AB5
:1017D000DE0FF66E170EF7220900F5501200120107
:1017E000100100000040D8040B00010001020001BC
:1017F000F76A000FF66E180EF7220900F550120076
:1018000000041400F76A140FF66E180EF722090090
:10181000F55012000403090410036A005000690027
:10182000630055007300620022034C0065006300F2
:1018300074006F007200200046004C0055004A0002
:101840004F0020004A0050002E006D92699468A459
:1018500002D06894FCD7BAEF11F0400E0401016F7A
:10186000040E036F100E026F880E006F046B040EDF
:10187000076F500E066F0001000C70A002D0EDDF64
:101880007090689AC3EF11F06A6A6892C9EF11F01C
:101890000301E291E1BFE281E19FE151100803E21F
:1018A000000E016E25D0E2A112D0036AE151F2CF01
:1018B000E3F3F29E000139DF0301E3BFF28EFF087C
:1018C00002E1000E01D0010E016E12D011D0036AA8
:1018D000E151F2CFE3F3F29E000127DF0301E3BF02
:1018E000F28EFF0802E1000E01D0010E016E00D061
:1018F0000001000C036A0301E051700FE96E0F0E46
:101900000320EA6EEF6AE0C3E1F30001C1DF015298
:1019100019E00301E051080DF350E26BE96E040E8B
:10192000E225EA6EEF6AE051080DF350E26BE16FD9
:10193000040EE127000EE223E1C3E9FF040EE225D5
:10194000EA6EEF6A0001000C010E0301DF6FDF5148
:101950000F0807E3DFC3E0F30001CCDF0301DF2B57
:10196000F6D70001000C0301D56BD5530AE1036AD9
:10197000D551210FE96E000E0320EA6EEF6AD52BD8
:10198000F4D7186A010E196E176A0001000C6A6A12
:10199000686A9F0E6B6E3D0E696E6E6AD5DFE3DF7F
:1019A000160E706E68A603D002EC00F0FBD76D989F
:1019B00054DF030E1C6ECFEF11F0698468986D82BE
:1019C000D5EF11F0689CDBEF11F0DAC31DF0000CCD
:1019D000FF0E1D6E000C0301D86B20523EE0D85163
:1019E0003F083BE31A50000A000105E0020A0FE03D
:1019F000010A19E024D0036A1F50F2CFDAF3F29EF5
:101A0000C5DE0301DABFF28ED96F000118D0036A78
:101A10001F50F2CFDAF3F29EF5DE0301DABFF28E49
:101A2000D96F00010CD0036A1F50F2CFDAF3F29E97
:101A3000CEDE0301DABFF28ED96F000100D01F2A7B
:101A400020060301D851D82B036A500FE96E040E0B
:101A50000320EA6ED9C3EFFFC0D7205204E1D8516A
:101A6000400801E0176AD8C3DAF30001AEDF000CCA
:101A70001F6A1A6A04011351010A000105E0030AF2
:101A800008E0010A09E023D0120E206E030E1A6E40
:101A900020D0200E206E1DD0020E1A6E036A0401A3
:101AA0001251F2CFD7F3F29E0001A2DE0301D7BF9D
:101AB000F28E1F6E036A1F50F2CFD7F3F29E000121
:101AC000A1DE0301D7BFF28E206E000102D080DFBD
:101AD0000CD00401175305E12050165D02E216C434
:101AE00020F0010E176E000176DFBAEF0EF0030151
:101AF000D75306E1040E1C6E000126DFDED0030181
:101B0000050E1C6E040EDA6F900ED96F010ED86FA1
:101B1000D8510F08D8A0D1D0D8C3E0F30001EADE35
:101B20000301DB6B036AD851F2CFDFF3F29E0001B1
:101B3000FCDD0301DFBFF28EFF085BE0040EDB6F0C
:101B4000D890D835036AF2CFDFF3F29E0001FDDDB5
:101B50000900F5CF03F00301DFBFF28EDC6F03C095
:101B6000DDF3D851080DF350E06BDF6F010EDF2578
:101B7000016E000EE021036E01C0E9FF040E032494
:101B8000EA6EDCC3EFFFD851080DF350E06BDF6F56
:101B9000020EDF25016E000EE021036E01C0E9FF99
:101BA000040E0324EA6EDAC3ECFFED52D9C3EFFF53
:101BB000D890D835036AF2CFDFF3F29E0001C5DD7D
:101BC0000900F5CF03F00301DFBFF28ED9270350E0
:101BD000DA23880EDE6FDDB1DE81DDB3DE83D8511E
:101BE000080DF350E06BE96E040EE025EA6EDEC3EB
:101BF000EFFF036AD851F2CFDFF3F29E000195DDCB
:101C00000301DFBFF28EFF083BE0DB83D851080DF4
:101C1000F350E06BDF6F040EDF27000EE023020EAF
:101C2000DF25016E000EE021036E01C0E9FF040E06
:101C30000324EA6EDAC3ECFFED52D9C3EFFFD8906C
:101C4000D835036AF2CFDFF3F29E00017EDD090092
:101C5000F5CF03F00301DFBFF28ED9270350DA235B
:101C6000D851080DF350E06BDF6F040EDF27000E34
:101C7000E023DFC3E9FF040EE025EA6E400EEF6EBD
:101C8000DB51060802E10E0EDB6F036AD851F2CF7A
:101C9000DFF3F29E000149DD0301DFBFF28E010890
:101CA000D8A4DB89036AD851700FE96E0F0E0320A8
:101CB000EA6EDBC3EFFFD82B2BD70001B2EF0EF09B
:101CC00004011151000A00010DE0010A15E0020AA9
:101CD00020E0060A2AE0030A31E00E0A31E0010A98
:101CE00037E046D019C050F40401516B020E0301D5
:101CF000DA6F00016ADE3ED00401122D07D0010E1A
:101D000019160301DA6B000160DE02D0000160DE0B
:101D100031D00401122D06D019820301DA6B0001C3
:101D200054DE02D0000154DE25D0020E176E12C41C
:101D30001EF00301DA6B000148DE1CD099D61AD0E0
:101D400018C050F4010E0301DA6F00013EDE12D01C
:101D50000401125101080AE312C418F012C4D7F3A7
:101D60000001C5D60301DA6B00012FDE000102D0AD
:101D70002FDE00D0D0EF0FF018C0D7F304011151BF
:101D8000000A000105E00A0A0CE0010A31E045D032
:101D90000401506B516B020E0301DA6F000115DE76
:101DA0003ED00301D75321E0010ED75D036AF2CF85
:101DB000D8F3F29E000102DD0301D8BFF28E016E5E
:101DC0000401145DD8A002D003010FD0036A14519E
:101DD000210FE96E000E0320EA6EEFCF50F4010EE2
:101DE0000301DA6F0001F1DD02D00001F1DD17D04F
:101DF0000301D7530FE0036A04011451210FE96E68
:101E0000000E0320EA6E12C4EFFF0301DA6B00013B
:101E1000DCDD02D00001DCDD02D0DADD00D0D0EF65
:101E20000FF00301D891D7BFD881D79FD8A111D087
:101E3000D751080DF350DA6BD96F040ED927000E75
:101E4000DA23D9C3E9FF040EDA25EA6E880EEF6EB5
:101E500009D0D751080DF350DA6BE96E040EDA257C
:101E6000EA6EEF6A000199EF0FF00301D891D7BF36
:101E7000D881D79FD8A111D0D751080DF350DA6B74
:101E8000D96F040ED927000EDA23D9C3E9FF040E57
:101E9000DA25EA6E840EEF6E0AD0D751080DF350A2
:101EA000DA6BE96E040EDA25EA6E840EEF6E00013D
:101EB000A1EF0FF00301D891D7BFD881D79FD8A148
:101EC00011D0D751080DF350DB6BDA6F040EDA270F
:101ED000000EDB23DAC3E9FF040EDB25EA6EEFCF49
:101EE000D9F30AD0D751080DF350DB6BE96E040E1D
:101EF000DB25EA6EEFCFD9F3D9AF02D0D9B502D046
:101F0000000E01D0010E016E0001ADEF0FF014C400
:101F1000E1F3BEDC01522EE004011151010A00017F
:101F200005E0020A0BE0030A11E022D014C4D7F343
:101F300078D70301DA6B000148DD1CD014C4D7F355
:101F400094D70301DA6B000140DD14D00401506B1B
:101F5000516B14C4D7F30001ADD7015203E0010E59
:101F60000401506F020E0301DA6F00012EDD02D072
:101F70002FDD00D0D0EF0FF0176A040110517F0B56
:101F8000000A000105E0010A05E0030A05E006D0A9
:101F900097D606D0F1D604D0BAD702D019DD00D03A
:101FA0000DEF11F00301D751080DF350DD6BE96E11
:101FB000040EDD25EA6EEFCFD9F3D851020806E111
:101FC000D9AD02D0D86B02D0010ED86FD85103081A
:101FD00013E1840ED96FD751080DF350DD6BDC6F20
:101FE000040EDC27000EDD23DCC3E9FF040EDD2533
:101FF000EA6E840EEF6E07D0D82D03D0C80ED96FCD
:1020000002D0880ED96FD890D735036AF2CFDCF3AF
:10201000F29E0001A5EC0BF00900F5CF03F00301DF
:10202000DCBFF28EDA6F03C0DBF3D751080DF3503B
:10203000DD6BDC6F010EDC25016E000EDD21036E11
:1020400001C0E9FF040E0324EA6EDAC3EFFFDBB13F
:10205000D981DBB3D983D751080DF350DD6BE96E1D
:10206000040EDD25EA6ED9C3EFFF0001000C036A00
:102070000301DC51700FE96E0F0E0320EA6EEF5280
:1020800012E0DC51080DF350DE6BDD6F040EDD272E
:10209000000EDE23DDC3E9FF040EDE25EA6EEFCF7E
:1020A000DDF3DDAF02D0000E01D0010E016E0001A4
:1020B000000CD7C3DCF3DBDF015264E00301D7512E
:1020C000080DF350DD6BDC6F040EDC27000EDD2302
:1020D000010EDC25016E000EDD21036E01C0E9FF5B
:1020E000040E0324EA6ED8C3EFFFDA51020817E1A9
:1020F000D751080DF350DD6BDC6F040EDC27000EAA
:10210000DD23DCC3E9FF040EDD25EA6EEFCFDBF350
:10211000DBAD02D0DA6B02D0010EDA6F13D0DA51E8
:10212000040810E1D751080DF350DD6BE96E040E81
:10213000DD25EA6EEFCFDBF3DBAD03D0010EDA6F06
:1021400001D0DA6BDA2D03D0C80EDB6F02D0880E17
:10215000DB6FD9B1DB81D9B3DB83D751080DF350E5
:10216000DD6BDC6F040EDC27000EDD23DCC3E9FF32
:10217000040EDD25EA6EDBC3EFFF010E016E05D014
:1021800000D00001000E016E03010001000C0301EC
:10219000D75300E10001000CD8C36EFF0301D853F0
:1021A00003E0040E1C6E02D0020E1C6E0001DEEF76
:1021B00010F0186A176A1EC0D8F3EED7EEEF10F0D1
:1021C0000301D7530CE1172C04D0000104DC06D026
:1021D00003011750020803E10001EBD703010001DE
:1021E000000C1B300301D56FD533D5331F0ED51727
:1021F0001B524FE1040100513C0B0301D66F430E0B
:10220000040100170301D651340825E104010451EB
:10221000800B01E0046B0001AFD66D981D3C07D028
:102220000301D76B030ED86F0001BCDE12D003018F
:10223000D76B020ED86F0001B5DE1D50FE0809E015
:102240000301D76BD96B1DC0D8F3040EDA6F000100
:1022500030DF1DD00301D65104081AE1D76B00010D
:1022600096DF0301D76B020ED86F00019BDE1D5075
:10227000FE080CE01D3C01D009D00301D76BD96BDF
:102280001DC0D8F3010EDA6F000113DF00D0030187
:1022900062D01B50040818E1430E04010417FF0E1E
:1022A0001D6E0301D76B00018BDF1D3C01D00AD0EE
:1022B0000301D76BD96B1DC0D8F3020EDA6F000192
:1022C000F8DE00D047D003011BB41DD0D551080D56
:1022D000F350D86B016E040ED825036ED551080D4E
:1022E000F350DA6BE96E040EDA25EA6EEF50430B19
:1022F00003C0EAFF01C0E9FFEF6ED5C3D7F30001C9
:1023000046DF28D00301D551080DF350D86BD76FA5
:10231000040ED727000ED823D7C301F0040ED8250A
:10232000036ED551080DF350DA6BD96F040ED9271F
:10233000000EDA23D9C3E9FF040EDA25EA6EEF5066
:10234000430B03C0EAFFD7C3E9FFEF6ED5C3D7F352
:10235000000136DF03010001E7EF11F0A19A1C52E2
:1023600001E13ED068523CE068A404D069A402D0E8
:1023700025EF0CF06DA201D033D068AA04D069AA71
:1023800002D03DEF0CF068A204D069A202D044EF65
:102390000CF068A004D069A002D0C7EF0CF068A8C8
:1023A00004D069A802D0DDEF0CF068AC04D069ACB1
:1023B00002D0E2EF0CF00301D46B68A60AD069A644
:1023C00008D06CCF1BF0000102EC00F00AD702D05D
:1023D000030105D00301D451D42B0308EEE2000120
:1023E00030EF00F0B10ECF6EDA0ECE6E0201032B8D
:1023F000D8B4042B052BD8B4062B092BD8B40A2B40
:1024000013510F5D0CE11451105D09E11551115D7F
:1024100006E11651125D03E1005301E10287055107
:10242000280805E1065303E1066B056B028F035193
:10243000C80849E1045347E1046B036B028D27513F
:102440001D0803E21F83276B02D01F93272B02A5D1
:102450001CD00F2B0FBF05D00F51090802E20F6BE4
:10246000102B10BF05D01051050802E2106B112B84
:1024700011BF05D01151090802E2116B122B12BFD6
:1024800004D01251050801E2126B02A71CD0172BD1
:1024900017BF05D01751090802E2176B182B18BF98
:1024A00005D01851050802E2186B192B19BF05D089
:1024B0001951090802E2196B1A2B1ABF04D01A51DC
:1024C000050801E21A6B9E90000130EF00F0030E48
:1024D000EA6EA30EE96EEF500EE00F0E016E006A79
:1024E000002EFED7012EFBD78F0E006E002EFED7DA
:1024F0000000EF2EF2D7000C8E0E006EA4C301F088
:10250000A3C302F0036A015209E102C001F0026AAA
:10251000080E005E015202E1006A08D0D89001BEA8
:1025200004D0023601360006F9D7019E000C0301E3
:102530009E35006E0036FC0E001600C001F0C25041
:10254000C30B0010C26E0A0EA36F0001C0DFC2826F
:10255000C2B2FED7C4CFA4F3C3CFA3F30001CCDF34
:1025600003C0A2F302C0A1F301C0A0F300C09FF317
:102570009FC300F0A0C301F0A1C302F0A2C303F007
:10258000000C6D6A696A080E6F6E94503009030181
:10259000946E1C6A166AF2BE168EF29E0001B3ECAF
:1025A0000CF016BEF28ED6EF12F0EBD7FBEF12F066
:1025B000166AF2BE168EF29EB3EC0CF016BEF28EC8
:1025C0006D6A140E6F6E696A6D86010E1C6EECEFFB
:1025D00012F06DB601D0ECD71C2C0BD06DBA09D01F
:1025E000686A696AA08AC00EF212110E696E020E44
:1025F0001C6E000CDAD7EDDF1C500208FCE1B8EFCE
:1026000026F00301D25303E095988C8802D095966A
:102610008C86959C8C9C936AD3C38AFF0000959E00
:102620008C8E00D000D00000959E8C9E95968C9646
:1026300095988C980001000C0301A06BA05107082D
:1026400040E3959A8C9AD26B400ED36F0001D9DF8C
:10265000010E0301D26F400ED36F0001D2DF0301E0
:10266000A051B809A26FD26BD36F0001CADF03017A
:10267000A051B809A26F010ED26FA2C3D3F300011B
:10268000C0DF959A8C8A0301A16BA1513F0817E323
:102690009F51FF0DF3CFA2F3D26BA2C3D3F300017E
:1026A000B0DF03019F51FF0DF3CFA2F3010ED26FF4
:1026B000A2C3D3F30001A5DF0301A12BE6D7A02B12
:1026C000BDD70001000C949E8B8E959E8C9E959696
:1026D0008C9695988C98959A8C9A0301D26BC00E23
:1026E000D36F00018EDF010E0301D26FC00ED36FD6
:1026F000000187DF0301D26B400ED36F000181DF41
:10270000010E0301D26F400ED36F00017ADF030187
:10271000D26BB80ED36F000174DF010E0301D26FCC
:10272000B80ED36F00016DDF03019E2D0ED0D26B6A
:102730003F0ED36F000165DF010E0301D26F3F0E24
:10274000D36F00015EDF0DD00301D26B3E0ED36F5D
:10275000000157DF010E0301D26F3E0ED36F00015F
:1027600050DF03019F6B000167DFC0EF26F0FF0E13
:10277000936E959C8C8C0301D15303E095988C88C3
:1027800002D095968C860000959E8C8E00D000D04D
:10279000FF0E936E81CFD2F3959E8C9E95968C966C
:1027A00095988C98D2C301F00001000C0301CF91E1
:1027B000CB513F0803E2400ECB5FCF81959A8C9AB4
:1027C000CB9FCB8D000ECFB1010ED26FCBC3D3F315
:1027D000000117DF000E0301CFB1010ED06FCC3125
:1027E000006E003200321F0E00160050BF0BB809F9
:1027F000D16FD0C3D2F3D36F000103DF959A8C8AD7
:10280000000E0301CFB1010ED16F0001B0DF000E49
:102810000301CFB1010ED16F0001A9DF01C0CEF3DA
:102820000301CD2D0FD0CC51070BD06F010E006EE0
:10283000D051016E04E0D8900036012EFCD7005034
:10284000CE130FD0CC51070BD06F010E006ED051BC
:10285000016E04E0D8900036012EFCD70050FF0A2C
:10286000CE17959A8C9A000ECFB1010ED26FCBC3C2
:10287000D3F30001C6DE959A8C8A000E0301CFB116
:10288000010ED26FCEC3D3F30001BBDE000CB1C387
:1028900003F00301B0C3E9FFB1C3EAFFEF52D8B4BC
:1028A000D0D0B1C303F0B0C3E9FFB1C3EAFFEF502A
:1028B000520827E3B1C303F0B0C3E9FFB1C3EAFF95
:1028C000200EEF5C050DF350036ABD6F030EEA6E38
:1028D000B80EE96EC16BBDC3C0F3F2CFBEF3F29E7A
:1028E000050E016EF76ABD51000151EC00F00A00BF
:1028F0000900F5CFEEFF012EFBD70301BEBFF28E1C
:1029000035D0B1C303F0B0C3E9FFB1C3EAFFEF5064
:102910007E0827E3B1C303F0B0C3E9FFB1C3EAFF08
:10292000530EEF5C050DF350036ABD6F030EEA6EA4
:10293000B80EE96EC16BBDC3C0F3F2CFBEF3F29E19
:10294000050E016EF76ABD510001DEEC00F00A00D1
:102950000900F5CFEEFF012EFBD70301BEBFF28EBB
:1029600005D0B86BB96BBA6BBB6BBC6BB1C303F072
:10297000B051E96E03C0EAFFEF500A0A000103E01C
:10298000070A09E00BD00301B251070DF350010F04
:10299000AF2750D000010301AE6B4CD00301B25100
:1029A000050DF350AE257F0806E2AE6BB251070D60
:1029B000F350010FAF27B46BB45104083BE3B56B80
:1029C000B551060833E3036AB451B80FE96E030E3C
:1029D0000320EA6EEFCFBDF3BDC300F0B551016E29
:1029E00004E0D8900032012EFCD700A01DD0B66BB9
:1029F000B251B65D19E2B76BB251B75D13E2B75190
:102A0000AE25BD6FB551B203F350AF25B625BE6FED
:102A1000BDC3CBF3CC6FB3C3CDF30001C7DE03015D
:102A2000B72BEAD7B62BE4D7B52BCAD7B42BB25104
:102A3000AE27C2D7B02BD8B4B12BAE2B000127D70D
:102A400003010001000C0301B351016AB25D03E20E
:102A5000B2C300F00CD0006A080EB46FB237003673
:102A6000B351005CD8B0006E0136B42FF7D7000127
:102A7000000C5DC2EAFF5CC2E9FF0301BBC3EFFFCC
:102A8000E92AD8B4EA2AEF6A02015C2BD8B45D2B9C
:102A90000001000C200E0301ADA9300EAE6FACC3D7
:102AA00000F0ACAF07D0001E002A00C0ACF32D0E22
:102AB000AE6FAD8F0150ACC3B2F3640EB36F0001C3
:102AC000C2DF00C0ACF3300E01240301AF6FACC312
:102AD000B2F30A0EB36F0001B6DF300E002403011B
:102AE000B16F300E0124B06FAEC300F0ADA702D0BD
:102AF000ADAFAD95ADB90BD0ADAF22D0ADB520D057
:102B000000C0AFF3ADB31CD000C0B0F319D0300E8D
:102B1000AF5D16E100C0AFF3200EAE6FADA704D0DD
:102B2000AD95AD83ADAFAD93300EB05D09E100C0A2
:102B3000B0F3200EAF6FADA7F7D7AD93ADAFAD91AA
:102B4000ADA505D0AEC3BBF3000193DF0301ADA378
:102B500005D0AFC3BBF300018CDF0301ADA104D0EE
:102B6000B0C3BBF3000185DFB1C3BBF3000181DF5C
:102B700009EF17F00150ACC3B2F3640E0301B36F59
:102B8000000161DF00C0ACF30150300E08E1030129
:102B9000ADA30FD0ADB70DD0ADB9200E04D0030159
:102BA000AD97AD99AD81012601C0BBF3000161DF96
:102BB0000301ACC3B2F30A0EB36F000144DF00C0DF
:102BC000ACF30150300E08E10301ADB70AD0ADA15E
:102BD00008D0ADB9200E0001012601C0BBF349DFCA
:102BE0000301300EAC27ACC3BBF3000142DF16EF8C
:102BF00017F0010E0301C46FC56FCA6BBB51BD5DF9
:102C0000CB6FCB51CBAF03D0000ED880CB55036A2E
:102C1000C26F03C0C3F3BC51BE5DCB6FCB51CBAF12
:102C200003D0000ED880CB55036AC06F03C0C1F338
:102C3000BB51BD5D02E2FF0EC46FBC51BE5D02E23E
:102C4000FF0EC56FC151C35D3BE303E1C051C25DDF
:102C500037E3D890C037C137C251C05D006EC35151
:102C6000C15900C0C6F3C76FC251C65DC86FC3511A
:102C7000C759C96FC35303E1CA51C25D20E3BBC347
:102C8000CBF3BCC3CCF3BFC3CDF300018FDD030195
:102C9000C7BF01D008D0C051C627C151C723C451F6
:102CA000BB25BB6F0AD0C851C627C951C723C45121
:102CB000BB25BB6FC551BC25BC6FCA2BDBD736D03B
:102CC000D890C237C337C051C25D006EC151C359DD
:102CD00000C0C6F3C76FC051C65DC86FC151C759A8
:102CE000C96FC15303E1CA51C05D20E3BBC3CBF33D
:102CF000BCC3CCF3BFC3CDF3000158DD0301C7BF94
:102D000001D008D0C251C627C351C723C551BC2525
:102D1000BC6F0AD0C851C627C951C723C451BB25AF
:102D2000BB6FC551BC25BC6FCA2BDBD70001000CA3
:102D30000301B4532EE0B251B05D05E2B0C3B7F366
:102D4000B2C3B8F304D0B2C3B7F3B0C3B8F3B3514E
:102D5000B15D05E2B1C3B9F3B3C3BAF304D0B3C3F1
:102D6000B9F3B1C3BAF3B751B85D12E3B9C3B6F35F
:102D7000B651BA5D0BE3B7C3CBF3B6C3CCF3B5C35F
:102D8000CDF3000113DD0301B62BF2D7B72BEBD740
:102D90002ED0B0C3BBF3B1C3BCF3B2C3BDF3B1C358
:102DA000BEF3B5C3BFF3000124DFB0C3BBF3B3C3AD
:102DB000BCF3B2C3BDF3B3C3BEF3B5C3BFF319DFF6
:102DC000B0C3BBF3B1C3BCF3B0C3BDF3B3C3BEF375
:102DD000B5C3BFF30EDFB2C3BBF3B1C3BCF3B2C321
:102DE000BDF3B3C3BEF3B5C3BFF303DF03010001FB
:102DF000000C0301A25103080DE3030E02015D6FF5
:102E0000A30E5C6F9FC3ACF31F0E0301AD6F0001F7
:102E100041D60CD0030E02015D6FA30E5C6F9FC301
:102E2000ACF31B0E0301AD6F0001A4D60301A25346
:102E30000EE1A0C3AEF3A1C3AFF3030EB16FA30EB7
:102E4000B06F010EB26FB36F000121DD0301A22D3F
:102E500021D0050EA025AC6F070EA125AD6FA0C334
:102E6000B0F3A1C3B1F3ACC3B2F3B36F010EB46F4F
:102E7000B56B00015DDFA0C3AEF3A1C3AFF3030EDA
:102E80000301B16FA30EB06F010EB26FB36F0001FB
:102E9000FEDC0301A251020821E1050EA025AC6F62
:102EA000070EA125AD6FA0C3B0F3A1C3B1F3ACC3AE
:102EB000B2F3B36F010EB46FB56F000139DFA0C379
:102EC000AEF3A1C3AFF3030E0301B16FA30EB06F56
:102ED000010EB26FB36B0001DADC0301A2510308EB
:102EE00022E1140EA025AC6F1C0EA125AD6FA0C36E
:102EF000B0F3A1C3B1F3ACC3B2F3B36F010EB46FBF
:102F0000B56B000115DFA0C3AEF3A1C3AFF3030E91
:102F10000301B16FA30EB06F020EB26F010EB36F5B
:102F20000001B5DC0301A251040821E1100EA02527
:102F3000AC6F070EA125AD6FA0C3B0F3A1C3B1F371
:102F4000ACC3B2F3B36F010EB46FB56F0001F0DE26
:102F5000A0C3AEF3A1C3AFF3030E0301B16FA30E81
:102F6000B06F010EB26FB36B000191DC0301A2518F
:102F7000050821E10C0EA025AC6F100EA125AD6F48
:102F8000A0C3B0F3A1C3B1F3ACC3B2F3B36F010EEE
:102F9000B46FB56F0001CCDEA0C3AEF3A1C3AFF335
:102FA000030E0301B16FA30EB06F020EB26FB36BCD
:102FB00000016DDC03010001000C03019F2D0DD009
:102FC000070EAE6FA0C3AFF3B16B810EB06F010EF1
:102FD000B26FB36F00015BDC03019F5102080DE18A
:102FE000070EAE6FA0C3AFF3B16B9D0EB06F010EB5
:102FF000B26FB36F00014BDC03019F5103080DE179
:10300000070EAE6FA0C3AFF3B16B880EB06F010EA9
:10301000B26FB36F00013BDC03019F5104080DE167
:10302000070EAE6FA0C3AFF3B16BB50EB06F010E5C
:10303000B26FB36F00012BDC03019F5105080DE156
:10304000070EAE6FA0C3AFF3B16BDA0EB06F010E17
:10305000B26FB36F00011BDC03019F5106080DE145
:10306000070EAE6FA0C3AFF3B16BE40EB06F010EED
:10307000B26FB36F00010BDC03019F5107080FE132
:10308000070EAE6FA0C3AFF3010EB16F0D0EB06FA0
:10309000010EB26FB36F000147EC14F003019F51B2
:1030A00008080FE1070EAE6FA0C3AFF3010EB16FBA
:1030B000180EB06F010EB26FB36F000147EC14F041
:1030C00003010001000C0301A251A403F3CF01F09E
:1030D000F4CF00F0A503F3500026A351A403F3504E
:1030E0000020026E0001000C03019E2D51D09F6B49
:1030F0009F513F084DE3A06BA0510F0847E3070E17
:10310000A16FA151800A7F083FE2A36B9FC3A2F386
:10311000A56B100EA46F0001D6DF02C0A3F301C09F
:10312000A2F30301A0510124016E000E0220036EE0
:103130000150F2CFA2F3F29E03C0F7FF000159EC59
:1031400001F00301A2BFF28EA26F070ED880A15535
:10315000A36FA2C300F0A351016E04E0D890003227
:10316000012EFCD700A00ED0A051080DF350A125D0
:10317000A26FCB6F9FC3CCF3010ECD6F0001D6ECD5
:1031800013F00301A107BDD7A02BB6D79F2BB0D753
:103190009E51020851E19F6B9F513F084DE3A06B88
:1031A000A0510F0847E3070EA16FA151800A7F08C5
:1031B0003FE2A36B9FC3A2F3A56B100EA46F0001A7
:1031C00082DF02C0A3F301C0A2F30301A0510124D6
:1031D000016E000E0220036E0150F2CFA2F3F29EA8
:1031E00003C0F7FF000165EC03F00301A2BFF28EFC
:1031F000A26F070ED880A155A36FA2C300F0A35100
:10320000016E04E0D8900032012EFCD700A00ED051
:10321000A051080DF350A125A26FCB6F9FC3CCF333
:10322000010ECD6F0001D6EC13F00301A107BDD74D
:10323000A02BB6D79F2BB0D79E51030851E19F6BAF
:103240009F513F084DE3A06BA0510F0847E3070EC5
:10325000A16FA151800A7F083FE2A36B9FC3A2F335
:10326000A56B100EA46F00012EDF02C0A3F301C0F6
:10327000A2F30301A0510124016E000E0220036E8F
:103280000150F2CFA2F3F29E03C0F7FF000171ECF0
:1032900005F00301A2BFF28EA26F070ED880A155E0
:1032A000A36FA2C300F0A351016E04E0D8900032D6
:1032B000012EFCD700A00ED0A051080DF350A1257F
:1032C000A26FCB6F9FC3CCF3010ECD6F0001D6EC84
:1032D00013F00301A107BDD7A02BB6D79F2BB0D702
:1032E0009E51040851E19F6B9F513F084DE3A06B35
:1032F000A0510F0847E3070EA16FA151800A7F0874
:103300003FE2A36B9FC3A2F3A56B100EA46F000155
:10331000DADE02C0A3F301C0A2F30301A05101242D
:10332000016E000E0220036E0150F2CFA2F3F29E56
:1033300003C0F7FF00017DEC07F00301A2BFF28E8E
:10334000A26F070ED880A155A36FA2C300F0A351AE
:10335000016E04E0D8900032012EFCD700A00ED000
:10336000A051080DF350A125A26FCB6F9FC3CCF3E2
:10337000010ECD6F0001D6EC13F00301A107BDD7FC
:10338000A02BB6D79F2BB0D79E51050851E19F6B5C
:103390009F513F084DE3A06BA0510F0847E3070E74
:1033A000A16FA151800A7F083FE2A36B9FC3A2F3E4
:1033B000A56B100EA46F000186DE02C0A3F301C04E
:1033C000A2F30301A0510124016E000E0220036E3E
:1033D0000150F2CFA2F3F29E03C0F7FF000189EC87
:1033E00009F00301A2BFF28EA26F070ED880A1558B
:1033F000A36FA2C300F0A351016E04E0D890003285
:10340000012EFCD700A00ED0A051080DF350A1252D
:10341000A26FCB6F9FC3CCF3010ECD6F0001D6EC32
:1034200013F00301A107BDD7A02BB6D79F2BB0D7B0
:103430000001000C006A016A0301A751D890A8B1ED
:10344000002600320132A8B3002600320132A8B5AE
:10345000002600320132A8B7002600320132A8B996
:10346000002600320132A8BB002600320132A8BD7E
:10347000002600320132A8BF0026003201320001CE
:10348000000C0301A36BA0C3A4F3010ED880A055C8
:10349000A56FA15365E0A3519E5DA66FA4519F2522
:1034A000A76FA3519E25A86FA4519F25A96FA6C3FE
:1034B000BBF3A7C3BCF3A8C3BDF3BE6FA2C3BFF3E6
:1034C0000001F9EC15F00301A3519E5DA66FA45114
:1034D0009F5DA76FA3519E25A86FA4519F5DA96F03
:1034E000A6C3BBF3A7C3BCF3A8C3BDF3BE6FA2C3FF
:1034F000BFF30001F9EC15F00301A4519E5DA66F26
:10350000A3519F25A76FA4519E25A86FA3519F2566
:10351000A96FA6C3BBF3A7C3BCF3A8C3BDF3BE6F1B
:10352000A2C3BFF30001F9EC15F00301A4519E5DA5
:10353000A66FA3519F5DA76FA4519E25A86FA351AD
:103540009F5DA96FA6C3BBF3A7C3BCF3A8C3BDF31C
:10355000BE6FA2C3BFF30001F9EC15F078D00301F0
:103560009E51A325A66F9F51A425A76FA6C3CBF399
:10357000CC6FA2C3CDF30001D6EC13F003019E5132
:10358000A425A66F9F51A325A76FA6C3CBF3CC6F2D
:10359000A2C3CDF30001D6EC13F00301A3519E5D4D
:1035A000A66F9F51A425A76FA6C3CBF3CC6FA2C370
:1035B000CDF30001D6EC13F00301A4519E5DA66F7C
:1035C0009F51A325A76FA6C3CBF3CC6FA2C3CDF3A6
:1035D0000001D6EC13F003019E51A425A66FA35160
:1035E0009F5DA76FA6C3CBF3CC6FA2C3CDF3000141
:1035F000D6EC13F003019E51A325A66FA4519F5D45
:10360000A76FA6C3CBF3CC6FA2C3CDF30001D6EC5A
:1036100013F00301A3519E5DA66FA4519F5DA76F98
:10362000A6C3CBF3CC6FA2C3CDF30001D6EC13F04D
:103630000301A4519E5DA66FA3519F5DA76FA6C312
:10364000CBF3CC6FA2C3CDF30001D6EC13F0030192
:10365000A5BF01D00ED0A351A32BA66F020EA76F5A
:10366000A6C3A8F30001E6DE0150030F0301A5275E
:1036700011D0A351A32BA66FA451A407A65DA66FDA
:10368000020EA76FA6C3A8F30001D4DE0150050FF8
:103690000301A527A351800A006EA451800A005C93
:1036A000D8B4F7D6D8A0F5D60001000C1850016E9A
:1036B00020EF33F0036A03019E51700FE96E0F0E85
:1036C0000320EA6EEF520DE09E51080DF350A06BFF
:1036D0009F6FE96E040EA025EA6EEFCF9FF39FAFB8
:1036E00002D0000E01D0010E016E000129EF33F06F
:1036F0000301A351080DF350AE6BAD6F020EAD2563
:10370000016E000EAE21036E01C0E9FF040E03241A
:10371000EA6EECCF03F0ED52EFCFA8F303C0A9F3AC
:10372000A351080DF350AE6BAD6F010EAD25016EC8
:10373000000EAE21036E01C0E9FF040E0324EA6E01
:10374000EF50036AAB6F03C0ACF3A351080DF35005
:10375000AE6BE96E040EAE25EA6EEFCFAAF3AAB106
:10376000AC81AAB3AC83AC51A75D08E303E1A651D9
:10377000AB5D04E2ACC3A7F3ABC3A6F3A5C3EAFFFA
:10378000A4C3E9FFA9C3E2FFA8C3E1FFA7C302F0F6
:10379000A6C301F0015202E0022A02D0025206E062
:1037A000E6CFEEFF012EFCD7022EFAD7A6C301F01A
:1037B000A7C302F00001E8EF1BF09EC3A3F3A0C370
:1037C000A5F39FC3A4F3A2C3A7F3A1C3A6F390D705
:1037D00002C0A2F301C0A1F3166AF2BE168EF29ED9
:1037E0009EC3D7F3020E0301D86F0001D2EC0FF095
:1037F00016BEF28E0301A1C301F0A2C302F00001C4
:1038000038EF33F08E0E006E03019E51005E9FC3B1
:1038100002F0A0C301F0028E005209E0D8900252DB
:1038200002E1015204E002320132002EF7D79FAFCD
:1038300005D0011E021E012AD8B4022A0001000C84
:10384000800ED8A202D00301AB1B0301B06BB16B99
:10385000A7C3AFF3AB51AF1BA651D8B4DFD0AE6F47
:10386000006EAA51D8B4E3D0AE5FD8B483D03EE3A3
:10387000ABC3B4F3B48FACC3B3F3ADC3B2F3B16BAA
:10388000D890B433B333B233B133AE2FF8D7AFAF30
:1038900003D0B081E0D0B091AE91B089030EEA6E52
:1038A000A90EE96EEBD0B099AFBF0AD0AEA113D08C
:1038B000B433B333B233B133002AD8B4C7D00BD04A
:1038C000B4BF0CD0D890B137B237B337B437000695
:1038D000D8B4BCD0F5D7B08D6DD0B09DA7C3AFF331
:1038E000A7AF02D0B48FABD0B49FA9D0AAC3AEF318
:1038F000AAC300F0A651AE5FA7C3B4F3B48FA8C3A8
:10390000B3F3A9C3B2F3B16BD890B433B333B233CA
:10391000B133AE2FF8D7AFAF03D0B0839CD0B09304
:10392000AE91B08B030EEA6EAD0EE96EA7D0B09BE0
:10393000AFBF0AD0AEA113D0B433B333B233B13377
:10394000002AD8B483D00BD0B4BF0CD0D890B137F4
:10395000B237B337B4370006D8B478D0F5D7B08FC4
:1039600029D0B09FABC3AFF3ABAF02D0B48F67D059
:10397000B49F65D0ABC3B4F3B48FACC3B3F3ADC3E2
:10398000B2F3AFAF04D0B49FB08565D0B095B16B42
:10399000AE91030EEA6EA90EE96E70D0AFBF1CD0D7
:1039A000A7C3AFF3AEA106D0B433B333B233B13350
:1039B000002A4CE0B1AF0BD0B22B09E1B32B07E1E9
:1039C000B42B05E1B433B333B233002A3FE0B0BDCA
:1039D00084D7B0BFC6D71CD0800EB41BB4AF04D000
:1039E0003AD0ABC3AFF30AD0A7C3AFF3B45306E1E9
:1039F000B35304E1B25302E1006A21D0B4BF08D04E
:103A0000D890B137B237B337B437002EF7D71ED0BE
:103A1000AFAF02D0B48F13D0B49F11D0AAC300F0BF
:103A2000ABC3B4F3ACC3B3F3ADC3B2F308D0A6C316
:103A300000F0A7C3B4F3A8C3B3F3A9C3B2F3B4C3EC
:103A400001F0B3C302F0B2C303F034D0006A016ADC
:103A5000026A036A2FD0B16BB21FB31FB41FB11F2C
:103A6000B12B05E1B22B03E1B32B01E1B42BB0B1D3
:103A700012D7B0B354D7B0B589D7B3D7EF50B22768
:103A800005E3B32B03E1B42BD8B4AE81ED52EF5074
:103A9000B32703E3B42BD8B4AE81ED52EF50EFBEA1
:103AA00001D0800AB427D8B0AE81B0B9FCD6B0BB83
:103AB0003ED774D70001000C0301BB51D8B471D0BC
:103AC000006EBF51D8B46DD0002604E3810E0026ED
:103AD00068E204D07F0E005E64E363E0BCC3C3F31E
:103AE000C051C31BBC8FC08FBE51C203F4CFC5F3FE
:103AF000BD51C103F4CF03F0F3CFC4F3C203F350BD
:103B0000C527F450C423000E0322BE51C103F35055
:103B1000C527F450C423000E026A03220222BC51BE
:103B2000C203F350C427F4500322000E0222BC51FA
:103B3000C103F3500326F4500222000E016A012251
:103B4000BE51C003F350C427F4500322000E0222DA
:103B50000122BD51C003F3500326F4500222000E8F
:103B60000122BC51C003F3500226F4500122002A66
:103B700001BE05D0C4370336023601360006000EFA
:103B8000C4AF0AD0032A02220122015005E10250EB
:103B900003E1035001E1002AC3BF018EC3AF019EC0
:103BA00004D0006A016A026A036A0001000C166A06
:103BB000F2BE168EF29E9EC3DCF337EC10F016BEFA
:103BC000F28E015248E003019E51080DF350A76B9D
:103BD000A66F040EA627000EA723020EA625016ECF
:103BE000000EA721036E01C0E9FF040E0324EA6E54
:103BF000ECCF03F0ED52EFCFA4F303C0A5F3A5C3C0
:103C0000EAFFA4C3E9FFA0C3E2FF9FC3E1FFA2C391
:103C100002F0A1C301F0015202E0022A02D00252D6
:103C200006E0E6CFEEFF012EFCD7022EFAD7166A89
:103C3000F2BE168EF29E9EC3D7F3A2C3D9F3A1C3E0
:103C4000D8F3A3C3DAF3000159EC10F016BEF28EDC
:103C5000015003D000D0000E016ED3EF34F0030109
:103C6000A251D8B4A5D0AE6FA651D8B4A1D0AE5F42
:103C700005E37F0EAE27D8B09BD006D0810EAE5F95
:103C8000D8A096D0D8B494D0AEC300F0016A026A2E
:103C9000036AAD6BA3C3ACF3AC8FA4C3ABF3A5C3F2
:103CA000AAF3190EAE6FA951AA5F0DE2010EAB5F28
:103CB0000AE2AC5F08E2AD5F06E2AD2BAC2BAB2BAA
:103CC000A951AA2728D0A851AB5F12E2010EAC5F20
:103CD0000FE2AD5F0DE2AD2BAC2BA851AB27A95184
:103CE000AA2719E3AB2B17E1AC2B15E1AD2B13D0B1
:103CF000A7518009AC5F0EE2010EAD5F0BE2AD2B68
:103D0000A7518009AC27A851AB27E9E3AC2BE7E129
:103D1000AD2BE5D70380AE2F01D00BD0D890AA37BA
:103D2000AB37AC37AD37D890033602360136AF37F4
:103D3000BAD7AFA106D0D890013202320332AF33E6
:103D400002D0000635E0AFBF1ED0D890AA37AB37FF
:103D5000AC37AD37A951AA5F07E2010EAB5F04E2B1
:103D6000AC5F02E2AD5F1AE3A851AB5F05E2010E62
:103D7000AC5F02E2AD5F12E3A7518009AC5F03E2E2
:103D8000010EAD5F0BE3032A09E1022A07E1012AD4
:103D900005E1002A0DE0013202320332A3C3AEF383
:103DA000A751AE1BAEAF02D0018E06D0019E04D04B
:103DB000006A016A026A036A0001000CA0C3A7F34B
:103DC0000301A451A71BA7AF05D0D894D890A0BFDA
:103DD000D8802FD0A0C3A7F3A3C3A8F39F51A85F97
:103DE00006E0A7AF26D0D850010AD86E22D0A4C3CF
:103DF000A8F3A051A85F06E0A7AF1BD0D850010AD6
:103E0000D86E17D0A5C3A8F3A151A85F06E0A7AF4D
:103E100010D0D850010AD86E0CD0A6C3A8F3A25176
:103E2000A85F06E0A7AF05D0D850010AD86E01D030
:103E3000D8900001000C0301BB51B608BB6F036AA8
:103E4000BCC3BFF3BC8FD890BC33BD33BE33033289
:103E5000023201320032BB2FF6D7BFAF0BD0001EAB
:103E6000011E021E031E002AD8B4012AD8B4022A59
:103E7000D8B4032A0001A8EF1FF0006A016A026AA1
:103E8000036A0301C36BC46BC56BC66BC251C1111E
:103E9000C011BF112CE0200EC76FD890BB37BC37C4
:103EA000BD37BE37C337C437C537C637C251C65D05
:103EB00008E1C151C55D05E1C051C45D02E1BF51DA
:103EC000C35D0FE3BF51C35FC051D8A0C03DC45F05
:103ED000C151D8A0C13DC55FC251D8A0C23DC65F87
:103EE000D8800036013602360336C72FD6D7030EE8
:103EF000EA6EC30EE96E0001000CE9500301B36FD6
:103F0000B251B56F1BE0B1C3BEF3B0C3BDF3AFC3D5
:103F1000BCF3AEC3BBF3C26BC16B200EC06F820E8D
:103F2000BF6F0001C9DD03C0B1F302C0B0F301C02F
:103F3000AFF300C0AEF30301B52FE5D7B1C3BEF3B5
:103F4000B0C3BDF3AFC3BCF3AEC3BBF3000173D7C3
:103F500003C0B1F302C0B0F301C0AFF300C0AEF3D1
:103F60000301B1AF0DD0B307B38BAE1FAF1FB01FAE
:103F7000B11FAE2BD8B4AF2BD8B4B02BD8B4B12B63
:103F80003B0EBA6F9A0EB96FCA0EB86FB76B0A0EB6
:103F9000B56FB251D8B4B32BB1C3BEF3B0C3BDF348
:103FA000AFC3BCF3AEC3BBF3BAC3C2F3B9C3C1F36F
:103FB000B8C3C0F3B7C3BFF300015FDF0150EFCF59
:103FC000AEF3ECCFAFF3ECCFB0F3ECCFB1F30052E4
:103FD00013E10301B229B55DD8A402D000010CD0D1
:103FE000B3510DE00F0BB55D01E044E2B3BF42D029
:103FF000B3BD05D0200E37D0200E0301B317B3ABED
:104000000FD0B39BB251D8A4B3070050B36F2D0E9D
:10401000BB6F000139EC15F00301B351006EB36BB7
:10402000B251B55D0DE10050B36F2E0EBB6F0001B4
:1040300039EC15F00301B351006E200EB317000EDA
:10404000300EB3AB10D0B39BB251D8A4B30700501D
:10405000B36F2D0EBB6F000139EC15F00301B351A6
:10406000006EB36B300E002600C0BBF3000139ECCC
:1040700015F00301BAC3BEF3B9C3BDF3B8C3BCF3B3
:10408000B7C3BBF3C26BC16BC06B0A0EBF6F00013D
:10409000F4DE03C0BAF302C0B9F301C0B8F300C044
:1040A000B7F30301B52F78D700016BEF20F0030EB3
:1040B00002015D6FA50E5C6F890EE96EA1C3B1F3BD
:1040C000A0C3B0F39FC3AFF39EC3AEF3010E0301D1
:1040D000B26F000112D7350E0301A225AE6F0F0E8D
:1040E000A325AF6FA2C3B0F3A3C3B1F3AEC3B2F3C2
:1040F000B36F010EB46FB56B000198EC16F0A2C35C
:10410000AEF3A3C3AFF3030E0301B16FA50EB06FFF
:10411000020EB26F010EB36F000147EC14F0000CF9
:10412000070E0301A025A16F9EC3B0F3A0C3B1F396
:104130009FC3B2F3B36F010EB46FB56B000198EC7F
:1041400016F0000CF86AD09E078EEA6AE96A1C6ACB
:10415000206A100E0101F56F200EF66F100EF76F3A
:104160000B0EF86F100EF96F030EFA6F100EFB6F47
:10417000FC6F200EFD6F240EFE6F080EFF6F020114
:10418000006B01910193019501970199019B019D9C
:10419000019F02910293046B036B066B056B086B26
:1041A000076B0A6B096B0C6B0F0E0B6F0E6B0D6BB5
:1041B000029502970299029B029D029F1F911F93F5
:1041C0001F951F971F991F9B790E206F216B226BE4
:1041D000236B246B256B266B276B2B6B2A6B296B50
:1041E000286B2F6B800E2E6F7A0E2D6F880E2C6F22
:1041F000376B366B200E356F820E346F3B6B3A6B2C
:10420000396B386B3F6B3E6B3D6B3C6B436B426B6A
:10421000416B406B476B466B456B446B4B6B4A6B1A
:10422000496B486B4F6B4E6B480E4D6F830E4C6F56
:10423000536B526B516B506B576B566B556B800EBB
:10424000546F5B6B5A6B596B586BC150C00B0F09A5
:10425000C16E070EB46E4A0E0001626F500E636F9E
:10426000200E646F490E656F6E0E666F670E676F86
:104270006C0E686F6F0E696F620E6A6F610E6B6F06
:104280006C0E6C6F6D6B410E6E6F750E6F6F740EF2
:10429000706F6F0E716F630E726F6C0E736F610EC5
:1042A000746F760E756F650E766F200E776F560EF3
:1042B000786F650E796F720E7A6F740E7B6F690E70
:1042C0007C6F630E7D6F610E7E6F6C0E7F6F806BF7
:1042D000540E816F200E826F650E836F730E846F94
:1042E000740E856F3D0E866F876B540E886F200E9F
:1042F000896F730E8A6F650E8B6F630E8C6F3D0E28
:104300008D6F8E6B340E8F6F300E906F200E916F0D
:104310004C0E926F690E936F740E946F720E956FC0
:104320006F0E966F730E976F986B3E0E996F9A6B28
:104330003C0E9B6F9C6B430E9D6F690E9E6F630ED0
:104340009F6F6C0EA06F6F0EA16F3F0EA26FA36BDD
:10435000540EA46FB00EA56F3A0EA66F310EA76F64
:10436000320EA86F310EA96FB00EAA6F430EAB6F5D
:10437000AC6B500EAD6F720EAE6F6F0EAF6F630E03
:10438000B06F650EB16F730EB26F6F0EB36FB46B1B
:10439000540EB56F650EB66F780EB76F740EB86FAA
:1043A000690EB96F6C0EBA6F2D0EBB6F490EBC6FE4
:1043B0006E0EBD6F730EBE6F740EBF6F720EC06F48
:1043C000750EC16F6D0EC26F650EC36F6E0EC46F3A
:1043D000740EC56F610EC66F6C0EC76FC86B430E4F
:1043E000C96F610ECA6F6C0ECB6F650ECC6F6E0E0F
:1043F000CD6F740ECE6F610ECF6F6E0ED06F640EE8
:10440000D16F6F0ED26FD36B4E0ED46F690ED56F16
:10441000760ED66F650ED76F6C0ED86FD96B500EB7
:10442000DA6F720EDB6F650EDC6F2D0EDD6F430EE3
:10443000DE6F690EDF6F630EE06F6C0EE16F6F0E63
:10444000E26FE36B490EE46F6E0EE56F730EE66F7D
:10445000740EE76F720EE86F750EE96F6D0EEA6FFE
:10446000650EEB6F6E0EEC6F740EED6F610EEE6FFE
:104470006C0EEF6F200EF06F530EF16F750EF26F32
:10448000610EF36F760EF46F650EF56FF66B450EE9
:10449000F76F730EF86F740EF96F650EFA6F720E88
:1044A000FB6F690EFC6F6C0EFD6F690EFE6F7A0E6E
:1044B000FF6F610E0101006F6E0E016F640E026FDF
:1044C0006F0E036F046B530E056F650E066F630E60
:1044D000076F610E086F6E0E096F640E0A6F6F0E24
:1044E0000B6F0C6B4C0E0D6F690E0E6F710E0F6F14
:1044F000750E106F690E116F640E126F6F0E136FD1
:10450000730E146F156B3A0E166F176B4C0E186FF7
:10451000690E196F620E1A6F720E1B6F650E1C6F9B
:104520001D6B540E1E6F3A0E1F6F310E206F320E30
:10453000216F310E226FB00E236F430E246F256B57
:10454000740E266F5F0E276F650E286F730E296F2E
:10455000740E2A6F3A0E2B6F320E2C6F350E2D6FA4
:104560006D0E2E6F2F6B740E306F5F0E316F730EEA
:10457000326F650E336F630E346F3A0E356F310E46
:10458000366F350E376F6D0E386F396B430E3A6FDD
:104590003B6B740E3C6F5F0E3D6F650E3E6F730E8E
:1045A0003F6F740E406F3A0E416F350E426F6D0EC5
:1045B000436F446B740E456F5F0E466F730E476F0B
:1045C000650E486F630E496F3A0E4A6F350E4B6F9A
:1045D0006D0E4C6F4D6B740E4E6F5F0E4F6F650E10
:1045E000506F730E516F740E526F3A0E536F310E3F
:1045F000546F350E556F6D0E566F576B440E586FD6
:10460000650E596F730E5A6F660E5B6F6F0E5C6F9F
:10461000670E5D6F750E5E6F650E5F6F200E606FCB
:104620004C0E616F650E626F6E0E636F740E646F79
:104630006F0E656F666B540E676F3A0E686F310EC2
:10464000696F320E6A6F310E6B6FB00E6C6F430E76
:104650006D6F6E6B740E6F6F5F0E706F650E716FA6
:10466000730E726F740E736F3A0E746F320E756F35
:10467000300E766F6D0E776F786B740E796F5F0EFC
:104680007A6F730E7B6F650E7C6F630E7D6F3A0ED3
:104690007E6F4E0E7F6F2F0E806F410E816F826B8B
:1046A0004F0E836F4B0E846F856B540E866F650EB5
:1046B000876F6D0E886F700E896F650E8A6F720E30
:1046C0008B6F610E8C6F740E8D6F750E8E6F720E08
:1046D0008F6F610E906F916B540E926F200E936FDF
:1046E000450E946F730E956F740E966F650E976FEF
:1046F000720E986F690E996F6C0E9A6F690E9B6FB0
:104700007A0E9C6F610E9D6F630E9E6F690E9F6F98
:104710006F0EA06F6E0EA16FA26B540EA36F200ED2
:10472000A46F530EA56F650EA66F630EA76F610E83
:10473000A86F640EA96F6F0EAA6FAB6B440EAC6FBF
:10474000650EAD6F730EAE6F660EAF6F6F0EB06F0E
:10475000670EB16F750EB26F650EB36F200EB46F3A
:10476000520EB56F610EB66F700EB76F690EB86FEF
:10477000640EB96F6F0EBA6FBB6B530EBC6F690ED0
:10478000BD6FBE6B4E0EBF6F6F0EC06FC16B460E1E
:10479000C26F690EC36F6E0EC46F610EC56F6C0E73
:1047A000C66F690EC76F7A0EC86F610EC96F640E4F
:1047B000CA6F6F0ECB6FCC6B500ECD6F610ECE6F8C
:1047C000720ECF6F610ED06F640ED16F610ED26F1B
:1047D000D36B450ED46F6D0ED56F650ED66F720E0E
:1047E000D76F670ED86F650ED96F6E0EDA6F630ED6
:1047F000DB6F690EDC6F610EDD6FDE6B550EDF6FF8
:104800006C0EE06F740EE16F690EE26F6D0EE36F78
:104810006F0EE46FE56B500EE66F750EE76F650E79
:10482000E86F720EE96F740EEA6F610EEB6FEC6B5E
:10483000410EED6F620EEE6F690EEF6F650EF06F59
:10484000720EF16F740EF26F610EF36FF46B020172
:104850000F6B106B116B126B136B146B156B166B6C
:10486000176B186B196B1A6B1B6B1C6B1D6B1E6B1C
:104870005C6B5D6B850ECD6E9D80C150C00B0E09CB
:10488000C16EC090C082C094C08EC28003019E6B76
:10489000000197EC12F0956A8C6A8B9494948B903B
:1048A00094908B9294928C9095908C9295928C94FB
:1048B0009594F2CF9EF3F29EA96AA69CA69EA6802E
:1048C000A85003019EBFF28E0201136FF2CF9EF338
:1048D000F29E010EA96EA69CA69EA680A85003017A
:1048E0009EBFF28E0201146FF2CF9EF3F29E020E73
:1048F000A96EA69CA69EA680A85003019EBFF28E1C
:104900000201156FF2CF9EF3F29E030EA96EA69CD4
:10491000A69EA680A85003019EBFF28E0201166FCC
:10492000F2CF9EF3F29E040EA96EA69CA69EA680D0
:10493000A85003019EBFF28E02011B6FF2CF9EF3BF
:10494000F29E050EA96EA69CA69EA680A850030105
:104950009EBFF28E02011C6FF2CF9EF3F29E060EF6
:10496000A96EA69CA69EA680A85003019EBFF28EAB
:1049700002011D6FF2CF9EF3F29E070EA96EA69C58
:10498000A69EA680A85003019EBFF28E02011E6F54
:10499000F2CF9EF3F29E080EA96EA69CA69EA6805C
:1049A000A85003019EBFF28E0201206FF2CF9EF34A
:1049B000F29E090EA96EA69CA69EA680A850030191
:1049C0009EBFF28E02010E6B0D6FF2CF9EF3F29E30
:1049D0000A0EA96EA69CA69EA680A85003019EBFA3
:1049E000F28EA46BA36F00017CEC12F003C04FF2B7
:1049F00002C04EF201C04DF200C04CF2F2CF9EF365
:104A0000F29E0B0EA96EA69CA69EA680A85003013E
:104A10009EBFF28EA46BA36F00017CEC12F003C06A
:104A200057F202C056F201C055F200C054F2F2CF64
:104A30009EF3F29E0C0EA96EA69CA69EA680A85080
:104A400003019EBFF28EA46BA36F00017CEC12F0F9
:104A500003C037F202C036F201C035F200C034F2B2
:104A6000F2CF9EF3F29E0D0EA96EA69CA69EA68086
:104A7000A85003019EBFF28E0201236FF2CF9EF376
:104A8000F29E0E0EA96EA69CA69EA680A8500301BB
:104A90009EBFF28E0201246FF2CF9EF3F29E0F0EA4
:104AA000A96EA69CA69EA680A85003019EBFF28E6A
:104AB000A46BA36F00017CEC12F003C053F202C0A0
:104AC00052F201C051F200C050F2F2CF9EF3F29EBA
:104AD000140EA96EA69CA69EA680A85003019EBF98
:104AE000F28E02010C6B0B6F5E6B5F6B606B616B28
:104AF000626B636B646B656B666B676B686B696B32
:104B00006A6B6B6B6C6B6D6B6E6B6F6B706B716BE1
:104B1000726B736B746B756B766B776B786B796B91
:104B20007A6B7B6B7C6B7D6B7E6B7F6B806B816B41
:104B3000826B836B846B856B866B876B886B896BF1
:104B40008A6B8B6B8C6B8D6B8E6B8F6B906B916BA1
:104B5000926B936B946B956B966B976B986B996B51
:104B60009A6B9B6B9C6B9D6B9E6B9F6BA06BA16B01
:104B7000A26BA36BA46BA56BA66BA76BA86BA96BB1
:104B8000AA6BAB6BAC6BAD6BAE6BAF6BB06BB16B61
:104B9000B26BB36BB46BB56BB66BB76BB86BB96B11
:104BA000BA6BBB6BBC6BBD6BBE6BBF6BC06BC16BC1
:104BB000C26BC36BC46BC56BC66BC76BC86BC96B71
:104BC000CA6BCB6BCC6BCD6BCE6BCF6BD06BD16B21
:104BD000D26BD36BD46BD56BD66BD76BD86BD96BD1
:104BE000DA6BDB6BDC6BDD6BDE6BDF6BE06BE16B81
:104BF000E26BE36BE46BE56BE66BE76BE86BE96B31
:104C0000EA6BEB6BEC6BED6BEE6BEF6BF06BF16BE0
:104C1000F26BF36BF46BF56BF66BF76BF86BF96B90
:104C2000FA6BFB6BFC6BFD6BFE6BFF6B0301006BA8
:104C3000016B026B036B046B056B066B076B086BF8
:104C4000096B0A6B0B6B0C6B0D6B0E6B0F6B106BA8
:104C5000116B126B136B146B156B166B176B186B58
:104C6000196B1A6B1B6B1C6B1D6B1E6B1F6B206B08
:104C7000216B226B236B246B256B266B276B286BB8
:104C8000296B2A6B2B6B2C6B2D6B2E6B2F6B306B68
:104C9000316B326B336B346B356B366B376B386B18
:104CA000396B3A6B3B6B3C6B3D6B3E6B3F6B406BC8
:104CB000416B426B436B446B456B466B476B486B78
:104CC000496B4A6B4B6B4C6B4D6B4E6B4F6B506B28
:104CD000516B526B536B546B556B566B576B586BD8
:104CE000596B5A6B5B6B5C6B5D6B5E6B5F6B606B88
:104CF000616B626B636B646B656B666B676B686B38
:104D0000696B6A6B6B6B6C6B6D6B6E6B6F6B706BE7
:104D1000716B726B736B746B756B766B776B786B97
:104D2000796B7A6B7B6B7C6B7D6B7E6B7F6B806B47
:104D3000816B826B836B846B856B866B876B886BF7
:104D4000896B8A6B8B6B8C6B8D6B8E6B8F6B906BA7
:104D5000916B926B936B946B956B966B976B986B57
:104D6000996B9A6B9B6B9C6B9D6B0001FAEF12F039
:104D7000E9EC12F0010E03019E6F000163EF13F0E6
:104D800003019F6B00011CEC13F00301AE6BAF6BD2
:104D9000B16B620EB06F020EB26F010EB36F000105
:104DA00047EC14F00A0E0301AE6F140EAF6FB16B37
:104DB0006E0EB06F010EB26FB36F000147EC14F0CE
:104DC0001E0E0301AE6F280EAF6FB16B8F0EB06F6A
:104DD000010EB26FB36F000147EC14F0080E03012F
:104DE0009E6FFA0EA36F000167EC12F003019E2F75
:104DF000F8D7928280A294D0928680A691D09F6BA1
:104E000000011CEC13F0080E03019E6FFA0EA36F55
:104E1000000167EC12F003019E2FF8D7928280A266
:104E20002AD002010B2BD8B40C2B280E0301A36F40
:104E3000000167EC12F0140EA96E0BC2A8FFA69C2D
:104E4000A69EA684F250006EF29E0F01550EA76E2C
:104E5000AA0EA76EA682A6B2FED7A6940050F212A2
:104E6000020E03019E6F960EA36F000167EC12F015
:104E700003019E2FF8D7928480A42BD002010B51FE
:104E8000D8B40C070B07280E0301A36F000167ECD1
:104E900012F0140EA96E0BC2A8FFA69CA69EA684B3
:104EA000F250006EF29E0F01550EA76EAA0EA76E6D
:104EB000A682A6B2FED7A6940050F212020E0301FB
:104EC0009E6F960EA36F000167EC12F003019E2FF8
:104ED000F8D7928680A617D0140EA96E0BC2A8FF31
:104EE000A69CA69EA684F250006EF29E0F01550E5F
:104EF000A76EAA0EA76EA682A6B2FED7A6940050F1
:104F0000F212FF0003010BC29FF3140EA06F280ED4
:104F1000A16F040EA26F0001F9EC16F003017ED719
:104F20009F6B00011CEC13F0968084B040D0640E9F
:104F30000301A36F000167EC12F0020102B327D056
:104F400003019F6B00011CEC13F0140E0301AE6F04
:104F5000AF6B010EB16FCD0EB06F020EB26F010ECE
:104F6000B36F000147EC14F00301AE6B280EAF6F76
:104F7000010EB16FD40EB06F020EB26F010EB36F9F
:104F8000000147EC14F0100E0101F56F02018B8453
:104F900094948B8094908C8295928B9294920283BD
:104FA000640E0301A36F000167EC12F0BDD7968079
:104FB00084A012D0020102A30ED003019F6B000156
:104FC0001CEC13F08B9494948B9094908C9295920B
:104FD00002010293FF000001968484B441D0640E64
:104FE0000301A36F000167EC12F002011FB928D082
:104FF00003019F6B00011CEC13F0140E0301AE6F54
:10500000AF6B010EB16FE60EB06F020EB26F010E04
:10501000B36F000147EC14F00F0E0301AE6F280EC2
:10502000AF6F010EB16FED0EB06F020EB26F010ED9
:10503000B36F000147EC14F0100E0101F56F02018F
:105040008B9494948B9094908C8495948B9294925E
:105050001F89640E0301A36F000167EC12F0BCD737
:10506000968484A411D002011FA90ED003019F6B66
:1050700000011CEC13F08B9494948B9094908C947E
:10508000959402011F99FF000101F5511008D8A461
:10509000D9D00F0E0301AE6FAF6BB16BAD0EB06F19
:1050A000020EB26F010EB36F000147EC14F0928252
:1050B00080A224D0020101BB20D0080E0101FB5FB9
:1050C000F95F010EF925FA6F0201018B1E0E030133
:1050D000A36F000167EC12F0080E0101F92503012E
:1050E0009E6FAE6BAF6FB16B990EB06F010EB26F6A
:1050F000B36B000147EC14F0020102D00201019BE6
:10510000928480A423D001BF20D0080E0101FB2788
:10511000F927010EF95DFA6F0201018F1E0E0301DE
:10512000A36F000167EC12F0080E0101F95D0301A5
:105130009E6FAE6BAF6FB16B990EB06F010EB26F19
:10514000B36B000147EC14F0020101D0019F100E77
:105150000101F625FB5D07E006E3F7C1FBF1FCC1A9
:10516000F9F1FBC1FCF1F751FB5D08E2100EF625E9
:10517000FB6F100EFD25F96FFBC1F9F1050E030160
:105180009F6FF7C1A0F30001DDEC17F0080E0101DD
:10519000F72503019E6F070E9F6F9EC3A0F30001CA
:1051A000DDEC17F0100E0101F72503019E6F060ECE
:1051B0009F6F9EC3A0F30001DDEC17F0180E0101F4
:1051C000F72503019E6F040E9F6F9EC3A0F300019D
:1051D000DDEC17F0200E0101F72503019E6F080E8C
:1051E0009F6F9EC3A0F30001DDEC17F00301AE6BCF
:1051F000F9C1AFF3B16B990EB06F010EB26FB36F1F
:10520000000147EC14F0928680A619D0020101BD7E
:1052100015D0018D010E0101FB25F56FF7C1FBF1E2
:10522000F7C1F9F11E0E0301A36F000167EC12F044
:1052300003019F6B00011CEC13F0020102D002017C
:10524000019D0101F5511108D8A4C7D0020E030138
:105250009E6F000174EC18F03F0E0301B06F280E32
:10526000B16F640EB26F350EB36F010EB46FB56FD0
:10527000000198EC16F04C0E0301AE6F2C0EAF6FD0
:10528000010EB16F830EB06F010EB26FB36B0001F0
:1052900047EC14F0050E03019F6F370EA06F00015D
:1052A000DDEC17F0350E0301AE6F0A0EAF6FB16B78
:1052B000A40EB06F010EB26FB36F000147EC14F093
:1052C000350E0301AE6F140EAF6F010EB16F3C0EC1
:1052D000B06F010EB26FB36F000147EC14F0350EE2
:1052E0000301AE6F1E0EAF6F010EB16F450EB06FB2
:1052F000010EB26FB36F000147EC14F0928A80AADE
:105300001ED0020102B11AD002811E0E0301A36F4A
:10531000000167EC12F0100E0101F56FF7C1FBF10F
:10532000F7C1F9F11E0E0301A36F000167EC12F043
:1053300003019F6B00011CEC13F0020102D002017B
:105340000291928680A647D001BD44D0018D640EA3
:105350000101F56FF7C1FBF1F7C1F9F11E0E030171
:10536000A36F000167EC12F003019F6B00011CECBE
:1053700013F0200E0101F66F100EF76FFC6F200E78
:10538000FD6F020101910183019501970199006B65
:105390000301AE6B370EAF6FB16BC90EB06F010E6C
:1053A000B26FB36F000147EC14F0790E0201206F69
:1053B0000F0E0301B06F120EB16F1E0EB26F350EDD
:1053C000B36FB46B010EB56F000198EC16F0C00E10
:1053D000F212020101D0019D0101F5511908D8A472
:1053E000A9D0040E03019E6F000174EC18F03F0E6B
:1053F0000301B06F280EB16F640EB26F350EB36F3C
:10540000010EB46FB56F000198EC16F04C0E03015D
:10541000AE6F2C0EAF6F010EB16F830EB06F010E29
:10542000B26FB36B000147EC14F0070E03019F6FDE
:10543000370EA06F0001DDEC17F03F0E0301AE6FD9
:105440000A0EAF6F010EB16F670EB06F010EB26F33
:10545000B36F000147EC14F03F0E0301AE6F140E62
:10546000AF6F010EB16F6F0EB06F010EB26FB36F01
:10547000000147EC14F03F0E0301AE6F1E0EAF6F3C
:10548000010EB16F790EB06F010EB26FB36F0001F4
:1054900047EC14F0928A80AA1ED0020102B11AD001
:1054A00002811E0E0301A36F000167EC12F0100EC3
:1054B0000101F56FF7C1FBF1F7C1F9F11E0E030110
:1054C000A36F000167EC12F003019F6B00011CEC5D
:1054D00013F0020102D002010291928680A628D028
:1054E00001BD25D0018D5A0E0101F56FF7C1FBF109
:1054F000F7C1F9F11E0E0301A36F000167EC12F072
:1055000003019F6B00011CEC13F0200E0101F66FEC
:10551000100EF76FFC6F200EFD6F020101910193D9
:10552000019501870199010E006F790E206F01D05E
:10553000019D0101F5512108D8A4A9D0030E030152
:105540009E6F000174EC18F03F0E0301B06F280E3F
:10555000B16F640EB26F350EB36F010EB46FB56FDD
:10556000000198EC16F04C0E0301AE6F2C0EAF6FDD
:10557000010EB16F830EB06F010EB26FB36B0001FD
:1055800047EC14F0060E03019F6F370EA06F000169
:10559000DDEC17F03F0E0301AE6F0A0EAF6F010E88
:1055A000B16F670EB06F010EB26FB36F000147ECC1
:1055B00014F03F0E0301AE6F140EAF6F010EB16F0A
:1055C0004E0EB06F010EB26FB36F000147EC14F0D6
:1055D0003F0E0301AE6F1E0EAF6F010EB16F790E5D
:1055E000B06F010EB26FB36F000147EC14F0928AF6
:1055F00080AA1ED0020102B11AD002811E0E030140
:10560000A36F000167EC12F0100E0101F56FF7C1F6
:10561000FBF1F7C1F9F11E0E0301A36F000167EC66
:1056200012F003019F6B00011CEC13F0020102D089
:1056300002010291928680A628D001BD25D0018D5D
:105640005A0E0101F56FF7C1FBF1F7C1F9F11E0E1A
:105650000301A36F000167EC12F003019F6B0001CF
:105660001CEC13F0200E0101F66F100EF76FFC6FAB
:10567000200EFD6F020101910193018501970199AF
:10568000010E006F790E206F01D0019D0101F551CF
:105690002908D8A4C8D0010E03019E6F000174EC44
:1056A00018F03F0E0301B06F280EB16F640EB26F99
:1056B000350EB36F010EB46FB56F000198EC16F0A4
:1056C0004C0E0301AE6F2C0EAF6F010EB16F830E47
:1056D000B06F010EB26FB36B000147EC14F0040E13
:1056E00003019F6F370EA06F0001DDEC17F03F0E36
:1056F0000301AE6F0A0EAF6F010EB16F1E0EB06FD9
:10570000010EB26FB36F000147EC14F03F0E0301BE
:10571000AE6F140EAF6F010EB16F260EB06F010E9B
:10572000B26FB36F000147EC14F03F0E0301AE6F90
:105730001E0EAF6F010EB16F300EB06F010EB26F63
:10574000B36F000147EC14F0928A80AA1ED00201C8
:1057500002B11AD002811E0E0301A36F000167EC93
:1057600012F0100E0101F56FF7C1FBF1F7C1F9F16D
:105770001E0E0301A36F000167EC12F003019F6B83
:1057800000011CEC13F0020102D00201029192868A
:1057900080A647D001BD44D0018D640E0101F56F94
:1057A000F7C1FBF1F7C1F9F11E0E0301A36F000170
:1057B00067EC12F003019F6B00011CEC13F0200E4C
:1057C0000101F66F100EF76FFC6F200EFD6F0201E6
:1057D00001810193019501970199006B0301AE6B63
:1057E000370EAF6FB16BC90EB06F010EB26FB36FF2
:1057F000000147EC14F0790E0201206F0F0E030137
:10580000B06F120EB16F1E0EB26F350EB36FB46B68
:10581000010EB56F000198EC16F0C00EF2120201F5
:1058200001D0019D0101F5513108D8A447EF32F0B4
:105830000A0E0301AE6FAF6B010EB16F920EB06F27
:10584000010EB26FB36F000147EC14F0020120515A
:10585000860802E2690E206F2051680802E3860E76
:10586000206F928280A25FD001BB5AD0018B1E0EA6
:105870000301A36F000167EC12F00101FE5124083F
:1058800006E1FF51080803E10201162B0101FE5158
:105890002A0806E1FF51080803E10201152B010166
:1058A000FE51360806E1FF51080803E10201142BFE
:1058B0000101FE513C0806E1FF51080803E1020125
:1058C000132B0101FE51240806E1FF51280803E1D2
:1058D00002011E2B0101FE512A0806E1FF51280892
:1058E00003E102011D2B0101FE51360806E1FF51C3
:1058F000280803E102011C2B0101FE513C0806E1CE
:10590000FF51280803E102011B2B0101FF51180878
:1059100002E1010EF86FFF51380803E10201202B6C
:10592000010103D00201019B0101928480A45ED099
:10593000020101BF59D0018F1E0E0301A36F0001A8
:1059400067EC12F00101FE51240806E1FF5108083E
:1059500003E1020116070101FE512A0806E1FF5189
:10596000080803E1020115070101FE51360806E1AE
:10597000FF51080803E1020114070101FE513C0830
:1059800006E1FF51080803E1020113070101FE517E
:10599000240806E1FF51280803E102011E07010166
:1059A000FE512A0806E1FF51280803E102011D0704
:1059B0000101FE51360806E1FF51280803E102010A
:1059C0001C070101FE513C0806E1FF51280803E1D4
:1059D00002011B070101FF51180801E1F86BFF519B
:1059E000380803E102012007010103D00201019FF1
:1059F0000101FE51240834E1FF51080831E116C2CB
:105A00009FF3240E0301A06F080EA16F020EA26F78
:105A10000001F9EC16F015C29FF32A0E0301A06FE6
:105A2000080EA16F010EA26F0001F9EC16F014C26E
:105A30009FF3360E0301A06F080EA16F010EA26F37
:105A40000001F9EC16F013C29FF33C0E0301A06FA6
:105A5000080EA16F010EA26F0001F9EC16F0010112
:105A6000FE512A0834E1FF51080831E116C29FF3C4
:105A7000240E0301A06F080EA16F010EA26F00019A
:105A8000F9EC16F015C29FF32A0E0301A06F080E61
:105A9000A16F020EA26F0001F9EC16F014C29FF381
:105AA000360E0301A06F080EA16F010EA26F000158
:105AB000F9EC16F013C29FF33C0E0301A06F080E21
:105AC000A16F010EA26F0001F9EC16F00101FE5169
:105AD000360834E1FF51080831E116C29FF3240E65
:105AE0000301A06F080EA16F010EA26F0001F9EC77
:105AF00016F015C29FF32A0E0301A06F080EA16FC6
:105B0000010EA26F0001F9EC16F014C29FF3360EDD
:105B10000301A06F080EA16F020EA26F0001F9EC45
:105B200016F013C29FF33C0E0301A06F080EA16F85
:105B3000010EA26F0001F9EC16F00101FE513C08C4
:105B400034E1FF51080831E116C29FF3240E03012E
:105B5000A06F080EA16F010EA26F0001F9EC16F004
:105B600015C29FF32A0E0301A06F080EA16F010E4C
:105B7000A26F0001F9EC16F014C29FF3360E030178
:105B8000A06F080EA16F010EA26F0001F9EC16F0D4
:105B900013C29FF33C0E0301A06F080EA16F020E0B
:105BA000A26F0001F9EC16F00101FF51080830E086
:105BB00016C29FF3240E0301A06F080EA16F010E01
:105BC000A26F0001F9EC16F015C29FF32A0E030133
:105BD000A06F080EA16F010EA26F0001F9EC16F084
:105BE00014C29FF3360E0301A06F080EA16F010EC1
:105BF000A26F0001F9EC16F013C29FF33C0E0301F3
:105C0000A06F080EA16F010EA26F0001F9EC16F053
:105C10000F0E0301AE6F110EAF6F010EB16FAC0E20
:105C2000B06F010EB26FB36F000147EC14F00101C9
:105C3000FF51180846E1F82D21D0300E0301B06F56
:105C4000190EB16F3B0EB26F200EB36F010EB46F21
:105C5000B56F000198EC16F0300E0301AE6F190E0F
:105C6000AF6F010EB16FBC0EB06F010EB26FB36BB0
:105C7000000147EC14F00201006B21D0300E03014B
:105C8000B06F190EB16F3B0EB26F200EB36F010EE5
:105C9000B46FB56F000198EC16F0300E0301AE6FD3
:105CA000190EAF6F010EB16FBF0EB06F010EB26F64
:105CB000B36B000147EC14F0010E0201006F40D0FD
:105CC0000101F82D1FD0300E0301B06F190EB16F16
:105CD0003B0EB26F200EB36F010EB46FB56B0001B7
:105CE00098EC16F0300E0301AE6F190EAF6F010E77
:105CF000B16FBC0EB06F010EB26FB36F000147EC15
:105D000014F01ED0300E0301B06F190EB16F3B0EB0
:105D1000B26F200EB36F010EB46FB56B000198EC3B
:105D200016F0300E0301AE6F190EAF6F010EB16F9A
:105D3000BF0EB06F010EB26FB36F000147EC14F0ED
:105D40000101FE513C0807E2FF51270804E3240E3D
:105D5000FE6F100EFF27FE51230807E3FF512808AE
:105D600004E3240EFE6F080EFF6F300E0301AE6FCA
:105D7000080EAF6F010EB16F160EB06F010EB26F4D
:105D8000B36F000147EC14F0300E0301AE6F2A0E22
:105D9000AF6F010EB16F160EB06F010EB26FB36F21
:105DA000000147EC14F01E0E0301AE6F220EAF6F20
:105DB000010EB16FA30EB06F010EB26FB36F000191
:105DC00047EC14F01EC29FF3240E0301A06F2A0EAD
:105DD000A16F010EA26F0001F9EC16F01DC29FF336
:105DE0002A0E0301A06FA16F010EA26F0001F9EC52
:105DF00016F01CC29FF3360E0301A06F2A0EA16F8E
:105E0000010EA26F0001F9EC16F01BC29FF33C0ECD
:105E10000301A06F2A0EA16F010EA26F0001F9EC21
:105E200016F00101FF512808D8A4E4D0F82DD9D0EC
:105E3000FE51240830E11EC29FF3240E0301A06F1F
:105E40002A0EA16F020EA26F0001F9EC16F01DC21E
:105E50009FF32A0E0301A06FA16F010EA26F000134
:105E6000F9EC16F01CC29FF3360E0301A06F2A0E48
:105E7000A16F010EA26F0001F9EC16F01BC29FF397
:105E80003C0E0301A06F2A0EA16F010EA26F00014C
:105E9000F9EC16F00101FE512A0830E11EC29FF311
:105EA000240E0301A06F2A0EA16F010EA26F000144
:105EB000F9EC16F01DC29FF32A0E0301A06FA16F2B
:105EC000020EA26F0001F9EC16F01CC29FF3360E11
:105ED0000301A06F2A0EA16F010EA26F0001F9EC61
:105EE00016F01BC29FF33C0E0301A06F2A0EA16F98
:105EF000010EA26F0001F9EC16F00101FE51360807
:105F000030E11EC29FF3240E0301A06F2A0EA16F81
:105F1000010EA26F0001F9EC16F01DC29FF32A0ECC
:105F20000301A06FA16F010EA26F0001F9EC16F042
:105F30001CC29FF3360E0301A06F2A0EA16F020E42
:105F4000A26F0001F9EC16F01BC29FF33C0E030197
