:04000000EFEF27F007
:080008005DEF00F000000000B4
:100010000000000000000000046ED8CF05F0E0CF23
:1000200006F00001E9CF0CF0EACF07F0E1CF08F0CD
:10003000E2CF09F0D9CF0AF0DACF0BF0F3CF12F00C
:10004000F4CF13F0FACF14F0FBCF15F000C00EF090
:1000500001C00FF002C010F003C011F0F2AA34EF9B
:1000600000F0F2B439EF01F09DA03AEF00F09EB03D
:1000700065EF01F00EC000F00FC001F010C002F0FB
:1000800011C003F00CC0E9FF07C0EAFF078E08C0EB
:10009000E1FF09C0E2FF0AC0D9FF0BC0DAFF12C0BE
:1000A000F3FF13C0F4FF14C0FAFF15C0FBFF0450A8
:1000B00006C0E0FF05C0D8FF1000176ED8CF18F0BB
:1000C000E0CF19F00001E9CF1FF0EACF1AF0E1CF3D
:1000D0001BF0E2CF1CF0D9CF1DF0DACF1EF0F3CF2A
:1000E00025F0F4CF26F0FACF27F0FBCF28F000C0A0
:1000F00021F001C022F002C023F003C024F09DAA29
:1001000085EF00F09EBA02EF01F021C000F022C09E
:1001100001F023C002F024C003F01FC0E9FF1AC0A1
:10012000EAFF1A8E1BC0E1FF1CC0E2FF1DC0D9FF11
:100130001EC0DAFF25C0F3FF26C0F4FF27C0FAFF78
:1001400028C0FBFF175019C0E0FF18C0D8FF1000EF
:100150004C49515549444F532041000000000000D4
:100160000000000043415543484F000000000000DC
:100170000000000000000000494E535452554D4508
:100180004E54414C00000000000000004C49515505
:1001900049444F53204200000000000000000000CE
:1001A0004C494252450000000000000000000000E1
:1001B00000000000544553540000000000000000FF
:1001C0000000000000000000484F52412059204626
:1001D000454348410000000000000000434C4156E8
:1001E00045000000000000000000000000000000CA
:1001F00000000000000000000000000000000000FF
:10020000000000009EAAFED7AECF32F303013251A8
:10021000650803E1010E306F466A302D0AD0036A8B
:1002200046503B0FE96E000E0320EA6E32C3EFFF2B
:10023000462A4650090802E2466A306B465210E1EF
:100240003B5065080BE13C3C09D03D3C07D0435294
:1002500005E1443C03D0050E316F02D00A0E316F28
:100260003451140802E18C8095909E9A000185EF2C
:1002700000F0D76AD66A0301642BD8B4652B00015D
:10028000A0AD20D003014A531AE14951050817E3F4
:100290006551545D07E303E16451535D03E38C88CA
:1002A000959802D08C9895986551E90807E2FF0A65
:1002B00003E164515F0802E2656B646B02D08C88D5
:1002C00095980001F2943AEF00F09E0ECF6E580E12
:1002D000CE6E0301412BD8B4422B432BD8B4442B10
:1002E000452BD8B4462B472BD8B4482B0001A2ADE0
:1002F00005D00301662BD8B4672B0001A3A104D05D
:100300000301682BD8B4692B03012C2D1ED0485152
:100310000001AB5D0CE308E1AA510301475DD8A0E1
:1003200002D0000104D000018B94949402D08B84FD
:100330009494AD510301485D08E305E10001AC511F
:100340000301475D02E3486B476B425304E14151AF
:10035000C708D8B08ED029A501D0612B2B2B000166
:10036000A0A309D003012F51405DD8A002D0000105
:1003700002D0402B06D003012F51405D02E32987B4
:10038000406B0001A0A30AD0A0B508D0A42BD8B41C
:10039000A52B03016A2BD8B46B2B00019FAF05D0AE
:1003A000A0B103D0A62BD8B4A72BA0A903D0A82B0B
:1003B000D8B4A92B0301426B416B0001A38F030149
:1003C0004B2BD8B44C2B0001A0A529D0A0BB27D023
:1003D000AEBF05D0AE51000802E2AE0720D0AFBFDD
:1003E00007D0AF51000804E2AF07090EAE6F17D077
:1003F000B0BF09D0B051000806E2B007050EAF6FDC
:10040000090EAE6F0CD0B1BF0AD0B151000807E29F
:10041000B107090EB06F050EAF6F090EAE6FA0A742
:1004200027D0B8BF05D0B851000802E2B80720D0E5
:10043000B9BF07D0B951000804E2B907090EB86F77
:1004400017D0BABF09D0BA51000806E2BA07050EA4
:10045000B96F090EB86F0CD0BBBF0AD0BB510008F2
:1004600007E2BB07090EBA6F050EB96F090EB86F28
:1004700003019E9000013AEF00F070616765204231
:1004800069656E76656E69646100626B636D643D7B
:1004900030007061676520436C61766500007061B3
:1004A000676520456D657267656E63696100626BA3
:1004B000636D643D30007061676520436C617665F3
:1004C000000074302E7478743D2225752200766108
:1004D000302E76616C3D310074302E7478743D227C
:1004E0002575257522007661302E76616C3D3200CF
:1004F00074302E7478743D2225752575257522007B
:100500007661302E76616C3D330074302E747874D1
:100510003D22257525752575257522007661302EBD
:1005200076616C3D340074302E7478743D22220064
:100530007061676520436C617665436F72726563B5
:10054000746100007061676520436C61766542618B
:1005500064007061676520436F6E66696700706153
:100560006765204D656E755072696E636970616C68
:1005700000007061676520436C61766500007469F6
:1005800074756C6F2E7478743D22436C61766520AF
:100590004E7565766122000070616765204D656E5D
:1005A000755072696E636970616C0000746974756E
:1005B0006C6F2E7478743D22436C617665204E75A5
:1005C00065766122000070616765204D656E75502B
:1005D00072696E636970616C000070616765204DBF
:1005E000656E755072696E636970616C0000746944
:1005F00074756C6F2E7478743D22436C617665203F
:100600004E75657661220000646F6576656E747361
:100610000000746974756C6F2E7478743D22436C9D
:100620006176652041637475616C2200646F657644
:10063000656E74730000746974756C6F2E747874D1
:100640003D22436C617665205465636E69636F2259
:100650000000646F6576656E74730000746974756C
:100660006C6F2E7478743D22496E677265736520D5
:10067000436F6E7472617365F1612200706167652A
:1006800020436C617665436F72726563746100002C
:100690007061676520436C617665426164007061DA
:1006A000676520436F6E6669670070616765204DFE
:1006B000656E755072696E636970616C000070617F
:1006C000676520436C6176650000746974756C6FB2
:1006D0002E7478743D22436C617665204E75657684
:1006E0006122000070616765204D656E755072690A
:1006F0006E636970616C0000746974756C6F2E7440
:1007000078743D22436C617665204E756576612272
:10071000000070616765204D656E755072696E638B
:100720006970616C000066656368612E7478743D61
:1007300022543A25332E3166B04320466563686102
:100740003A253032752F253032752F323025303230
:100750007520486F72613A20253032753A25303263
:10076000753A2530327522007061676520436C61EF
:10077000766500007061676520436C6176650000F6
:100780007061676520466563686100007061676538
:1007900020546573740070616765204369636C6FF2
:1007A000506572736F6E610070616765204E697687
:1007B000656C000070616765204E6976656C0000AD
:1007C000706167652046756E63696F6E616D6965FE
:1007D0006E746F00706167652046756E63696F6E39
:1007E000616D69656E746F0062632E7069633D258B
:1007F000750062642E7069633D25750062692E7014
:1008000069633D25750062632E706963323D25750D
:10081000000062642E706963323D257500006269D4
:100820002E706963323D25750000746578746F70B1
:100830002E7478743D222573220062632E706963E2
:100840003D25750062642E7069633D2575006269FF
:100850002E7069633D25750062632E706963323DB9
:100860002575000062642E706963323D25750000B5
:1008700062692E706963323D257500007465787475
:100880006F702E7478743D222573220062632E707F
:1008900069633D25750062642E7069633D257500AE
:1008A00062692E7069633D25750062632E7069630D
:1008B000323D2575000062642E706963323D2575F6
:1008C000000062692E706963323D25750000746511
:1008D00078746F702E7478743D22257322007474BE
:1008E0006974756C6F2E7478743D2253454C454382
:1008F00043494F4E45205355204349434C4F220016
:100900007061676520436C617665000066656368A9
:10091000612E7478743D22543A25332E3166B043EB
:100920002046656368613A253032752F253032756F
:100930002F32302530327520486F72613A202530D1
:1009400032753A253032753A2530327522007061A1
:100950006765204369636C6F506572736F6E6100E9
:10096000747365636573742E70636F3D363535330C
:100970003500746D696E6573742E70636F3D300061
:10098000747365636573742E70636F3D3000746DAE
:10099000696E6573742E70636F3D3635353335007F
:1009A000746D696E6573742E7478743D22253032CF
:1009B00075220000747365636573742E7478743DDA
:1009C000222530327522000066656368612E7478D6
:1009D000743D22543A25332E3166B0432046656378
:1009E00068613A253032752F253032752F32302527
:1009F00030327520486F72613A20253032753A25C1
:100A00003032753A253032752200706167652043B7
:100A100069636C6F506572736F6E6100746D696E9F
:100A20007365632E70636F3D300074736563736527
:100A3000632E70636F3D363535333500746D696EE6
:100A40007365632E70636F3D3635353335007473CF
:100A500065637365632E70636F3D3000746D696EFE
:100A60007365632E7478743D222530327522000040
:100A7000747365637365632E7478743D2225303218
:100A80007522000066656368612E7478743D225497
:100A90003A25332E3166B0432046656368613A25B6
:100AA0003032752F253032752F3230253032752097
:100AB000486F72613A20253032753A253032753AE6
:100AC00025303275220070616765204369636C6F61
:100AD000506572736F6E61007473657474656D2E0A
:100AE0007478743D22253033752200006665636892
:100AF000612E7478743D22543A25332E3166B0430A
:100B00002046656368613A253032752F253032758D
:100B10002F32302530327520486F72613A202530EF
:100B200032753A253032753A2530327522007061BF
:100B30006765204369636C6F506572736F6E610007
:100B4000706167652046756E63696F6E616D69657A
:100B50006E746F00746E6976656C2E7478743D22C5
:100B6000254C7522000062312E62636F3D323031B8
:100B7000360062312E62636F3D3633343838000000
:100B800062302E62636F3D323031360062302E6249
:100B9000636F3D3633343838000062322E62636F43
:100BA0003D323031360062322E62636F3D3633346F
:100BB0003838000062332E62636F3D3230313600C8
:100BC00062332E62636F3D3633343838000062384A
:100BD0002E62636F3D323031360062382E62636FB1
:100BE0003D3633343838000062392E62636F3D324F
:100BF0003031360062392E62636F3D363334383817
:100C000000006231302E62636F3D323031360000B9
:100C10006231302E62636F3D3633343838006231D2
:100C2000322E62636F3D3230313600006231322E37
:100C300062636F3D3633343838006231362E62637A
:100C40006F3D3230313600006231362E62636F3DC7
:100C50003633343838006231372E62636F3D3230BC
:100C6000313600006231372E62636F3D36333438DF
:100C700038006231332E7478743D22414443303A57
:100C800025332E30662200006231342E7478743D94
:100C900022414443313A25332E306622000062312E
:100CA000352E7478743D2241323A25332E30662039
:100CB0002530334C752200006231382E7478743D33
:100CC0002241333A25332E3066202530334C7522AD
:100CD00000006232302E7478743D2254313A25334C
:100CE0002E316622000070616765204D656E75507B
:100CF00072696E636970616C000070616765204D98
:100D0000656E755072696E636970616C000074681D
:100D10006F72612E7478743D222530327522000086
:100D2000746D696E75746F732E7478743D222530FE
:100D300032752200746469612E7478743D22253006
:100D400032752200746D65732E7478743D222530DF
:100D50003275220074796561722E7478743D222593
:100D600030327522000066656368612E7478743DC8
:100D700022543A25332E3166B043204665636861BC
:100D80003A253032752F253032752F3230253032EA
:100D90007520486F72613A20253032753A2530321D
:100DA000753A2530327522006369636C6F2E747852
:100DB000743D224349434C4F205025303275220068
:100DC00074656D702E7478743D22257522007465EB
:100DD00073742E7478743D22253032753A25303282
:100DE00075220000747365632E7478743D2225307B
:100DF00032753A25303275220000646573666F677C
:100E000075652E7478743D22257522006369636CC4
:100E10006F2E7478743D224349434C4F20502D2D42
:100E2000220074656D702E7478743D222D2D220081
:100E3000746573742E7478743D222D2D3A2D2D22F5
:100E40000000747365632E7478743D222D2D3A2D45
:100E50002D220000646573666F6775652E74787463
:100E60003D222D2D22006369636C6F2E7478743DD2
:100E7000224349434C4F205025303275220074657F
:100E80006D702E7478743D2225752200746573741C
:100E90002E7478743D22253032753A253032752211
:100EA0000000747365632E7478743D2225303275AA
:100EB0003A25303275220000646573666F67756588
:100EC0002E7478743D222575220070616765204D6F
:100ED000656E755072696E636970616C0000706157
:100EE00067652054656D706572617475726100008C
:100EF00070616765205469656D706F45737400009B
:100F000070616765205469656D706F53656300009B
:100F100070616765204E6976656C00007061676579
:100F20002046756E63696F6E616D69656E746F00E2
:100F300070616765204D656E755072696E6369708A
:100F4000616C00007061676520436C61766500002C
:100F50007432662E7478743D222575220000743335
:100F6000662E7478743D2225732200007432662E3A
:100F70007478743D2225752200007433662E7478CF
:100F8000743D22506572736F6E616C697A61646F33
:100F9000220046756E63696F6E616D69656E746F70
:100FA0002E7434662E7478743D2220506172616410
:100FB0006120646520456D657267656E63696122B5
:100FC000000046756E63696F6E616D69656E746F62
:100FD0002E7435662E7478743D222043616E6365ED
:100FE0006C61646F220046756E63696F6E616D6936
:100FF000656E746F2E7434662E7478743D222050A2
:1010000075657274612041626965727461220000C5
:1010100046756E63696F6E616D69656E746F2E746F
:1010200035662E7478743D22205061757361646F4B
:10103000220046756E63696F6E616D69656E746FCF
:101040002E7434662E7478743D22205469656D7058
:101050006F204C6C656E61646F22000046756E6394
:10106000696F6E616D69656E746F2E7435662E746E
:1010700078743D222043616E63656C61646F220069
:1010800046756E63696F6E616D69656E746F2E74FF
:1010900034662E7478743D22205465726D6F7374BB
:1010A00061746F22000046756E63696F6E616D69D1
:1010B000656E746F2E7435662E7478743D222043ED
:1010C000616E63656C61646F220046756E63696F63
:1010D0006E616D69656E746F2E7434662E747874EB
:1010E0003D2220536F62726574656D706572617424
:1010F00075726122000046756E63696F6E616D697D
:10110000656E746F2E7435662E7478743D2220439C
:10111000616E63656C61646F220046756E63696F12
:101120006E616D69656E746F2E7434662E7478749A
:101130003D22205469656D706F2050726F6C6F6E28
:101140006761646F220046756E63696F6E616D69D9
:10115000656E746F2E7435662E7478743D2220434C
:10116000616E63656C61646F220046756E63696FC2
:101170006E616D69656E746F2E7434662E7478744A
:101180003D2220536F6272655072657369F36E225F
:10119000000046756E63696F6E616D69656E746F90
:1011A0002E7435662E7478743D222043616E63651B
:1011B0006C61646F220046756E63696F6E616D6964
:1011C000656E746F2E7434662E7478743D222045DB
:1011D00072726F72204369636C6F220046756E6392
:1011E000696F6E616D69656E746F2E7435662E74ED
:1011F00078743D222043616E63656C61646F2200E8
:1012000046756E63696F6E616D69656E746F2E747D
:1012100034662E7478743D22204E696E67756E6157
:10122000220046756E63696F6E616D69656E746FDD
:101230002E7435662E7478743D22204E6976656C66
:101240002042616A6F22000046756E63696F6E61AD
:101250006D69656E746F2E7434662E7478743D22D9
:10126000204E696E67756E61220046756E63696F08
:101270006E616D69656E746F2E7435662E74787448
:101280003D222043616C656E74616E646F220000C4
:1012900046756E63696F6E616D69656E746F2E74ED
:1012A00034662E7478743D22204E696E67756E61C7
:1012B000220046756E63696F6E616D69656E746F4D
:1012C0002E7435662E7478743D222046696E616CEA
:1012D000697A61646F22000046756E63696F6E61A2
:1012E0006D69656E746F2E7434662E7478743D2249
:1012F000204E696E67756E61220046756E63696F78
:101300006E616D69656E746F2E7435662E747874B7
:101310003D2220446573707265737572697A616EDF
:10132000646F220046756E63696F6E616D69656EEC
:10133000746F2E7434662E7478743D22204E696E5C
:1013400067756E61220046756E63696F6E616D69C7
:10135000656E746F2E7435662E7478743D22204647
:10136000696E616C697A61646F22000046756E6314
:10137000696F6E616D69656E746F2E7434662E745C
:1013800078743D22204E696E67756E612200467545
:101390006E63696F6E616D69656E746F2E7435660C
:1013A0002E7478743D2220536563616E646F220051
:1013B00046756E63696F6E616D69656E746F2E74CC
:1013C00034662E7478743D22204E696E67756E61A6
:1013D000220046756E63696F6E616D69656E746F2C
:1013E0002E7435662E7478743D22204465737072B5
:1013F00065737572697A616E646F220046756E63FB
:10140000696F6E616D69656E746F2E7434662E74CB
:1014100078743D22204E696E67756E6122004675B4
:101420006E63696F6E616D69656E746F2E7435667B
:101430002E7478743D22204573746572696C697AE4
:10144000616E646F22006164642031342C302C257D
:10145000312E306600007436662E7478743D222575
:10146000332E3166B043220046756E63696F6E613C
:101470006D69656E746F2E7437662E7478743D22B4
:101480002530334C756B5061220046756E63696F71
:101490006E616D69656E746F2E743132662E74786C
:1014A000743D223030306B506122000046756E630F
:1014B000696F6E616D69656E746F2E7439662E7416
:1014C00078743D2225303375220046756E63696F4E
:1014D0006E616D69656E746F2E743130662E74782E
:1014E000743D222530327522000046756E63696FA7
:1014F0006E616D69656E746F2E743133662E74780B
:10150000743D222530327522000046756E63696F86
:101510006E616D69656E746F2E743131662E7478EC
:10152000743D222530327522000046756E63696F66
:101530006E616D69656E746F2E743136662E7478C7
:10154000743D222530327522000066656368612E85
:101550007478743D2246656368613A253032752F90
:10156000253032752F32302530327520202020482A
:101570006F72613A20253032753A2530327522007B
:10158000436F6E6669672E7432632E7478743D22E1
:1015900050726F706F7263696F6E616C220074338A
:1015A000632E7478743D2225322E30662200436FFC
:1015B0006E6669672E7432632E7478743D224465BA
:1015C000726976617469766F22007433632E747861
:1015D000743D222575220000436F6E6669672E7484
:1015E00032632E7478743D22496E74656772616C43
:1015F00022007433632E7478743D22257522000016
:10160000436F6E6669672E7432632E7478743D2260
:10161000546369636C6F22007433632E7478743D75
:101620002225322E30662200436F6E6669672E7463
:1016300032632E7478743D22416A75737465202B71
:1016400022007433632E7478743D222575220000C5
:10165000436F6E6669672E7432632E7478743D2210
:10166000416A75737465202D22007433632E74787B
:10167000743D222575220000436F6E6669672E74E3
:1016800032632E7478743D224D65646961220000D6
:101690007433632E7478743D222575220000436FE5
:1016A0006E6669672E7432632E7478743D225250D0
:1016B00054313030422200007433632E7478743D0C
:1016C0002225322E31662200436F6E6669672E74C2
:1016D00032632E7478743D22545472616D706122AD
:1016E00000007433632E7478743D222530327522E5
:1016F0000000436F6E6669672E7432632E747874CF
:101700003D224369636C6F7322007433632E7478D7
:10171000743D222530354C75220070616765204D7F
:10172000656E755072696E636970616C0000666504
:101730006368612E7478743D2246656368613A255A
:101740003032752F253032752F32302530327520EA
:10175000202020486F72613A20253032753A2530BA
:1017600032752200030EEA6EDB0EE96EEF500DE0DB
:10177000060E016E006A002EFED7012EFBD77B0EEF
:10178000006E002EFED7EF2EF3D7000C8E0E006EEB
:10179000DCC301F0DBC302F0036A015209E102C0BD
:1017A00001F0026A080E005E015202E1006A08D0F0
:1017B000D89001BE04D0023601360006F9D7019E4A
:1017C000000C0301CB51D8B4A5D0D76FCF51D8B4FA
:1017D000A1D0D75F05E37F0ED727D8B09BD006D026
:1017E000810ED75FD8A096D0D8B494D0D7C300F0DC
:1017F000016A026A036AD66BCCC3D5F3D58FCDC319
:10180000D4F3CEC3D3F3190ED76FD251D35F0DE209
:10181000010ED45F0AE2D55F08E2D65F06E2D62B5E
:10182000D52BD42BD251D32728D0D151D45F12E25B
:10183000010ED55F0FE2D65F0DE2D62BD52BD1512D
:10184000D427D251D32719E3D42B17E1D52B15E197
:10185000D62B13D0D0518009D55F0EE2010ED65F92
:101860000BE2D62BD0518009D527D151D427E9E3FB
:10187000D52BE7E1D62BE5D70380D72F01D00BD0AE
:10188000D890D337D437D537D637D89003360236E9
:101890000136D837BAD7D8A106D0D8900132023253
:1018A0000332D83302D0000635E0D8BF1ED0D8901E
:1018B000D337D437D537D637D251D35F07E2010EAD
:1018C000D45F04E2D55F02E2D65F1AE3D151D45F60
:1018D00005E2010ED55F02E2D65F12E3D051800926
:1018E000D55F03E2010ED65F0BE3032A09E1022A6A
:1018F00007E1012A05E1002A0DE00132023203323C
:10190000CCC3D7F3D051D71BD7AF02D0018E06D0AE
:10191000019E04D0006A016A026A036A0001000C99
:10192000800ED8A202D00301E01B0301E56BE66B39
:10193000DCC3E4F3E051E41BDB51D8B4DFD0E36F48
:10194000006EDF51D8B4E3D0E35FD8B483D03EE378
:10195000E0C3E9F3E98FE1C3E8F3E2C3E7F3E66B41
:10196000D890E933E833E733E633E32FF8D7E4AF31
:1019700003D0E581E0D0E591E391E589030EEA6EBD
:10198000DE0EE96EEBD0E599E4BF0AD0E3A113D0F7
:10199000E933E833E733E633002AD8B4C7D00BD0B5
:1019A000E9BF0CD0D890E637E737E837E9370006CB
:1019B000D8B4BCD0F5D7E58D6DD0E59DDCC3E4F39C
:1019C000DCAF02D0E98FABD0E99FA9D0DFC3E3F34E
:1019D000DFC300F0DB51E35FDCC3E9F3E98FDDC374
:1019E000E8F3DEC3E7F3E66BD890E933E833E73397
:1019F000E633E32FF8D7E4AF03D0E5839CD0E5933B
:101A0000E391E58B030EEA6EE20EE96EA7D0E59B4B
:101A1000E4BF0AD0E3A113D0E933E833E733E63378
:101A2000002AD8B483D00BD0E9BF0CD0D890E637C9
:101A3000E737E837E9370006D8B478D0F5D7E58F2F
:101A400029D0E59FE0C3E4F3E0AF02D0E98F67D08F
:101A5000E99F65D0E0C3E9F3E98FE1C3E8F3E2C3AE
:101A6000E7F3E4AF04D0E99FE58565D0E595E66B43
:101A7000E391030EEA6EDE0EE96E70D0E4BF1CD077
:101A8000DCC3E4F3E3A106D0E933E833E733E6331C
:101A9000002A4CE0E6AF0BD0E72B09E1E82B07E189
:101AA000E92B05E1E933E833E733002A3FE0E5BD00
:101AB00084D7E5BFC6D71CD0800EE91BE9AF04D0A0
:101AC0003AD0E0C3E4F30AD0DCC3E4F3E95306E11F
:101AD000E85304E1E75302E1006A21D0E9BF08D0EE
:101AE000D890E637E737E837E937002EF7D71ED02A
:101AF000E4AF02D0E98F13D0E99F11D0DFC300F02B
:101B0000E0C3E9F3E1C3E8F3E2C3E7F308D0DBC3E2
:101B100000F0DCC3E9F3DDC3E8F3DEC3E7F3E9C3B8
:101B200001F0E8C302F0E7C303F034D0006A016AB1
:101B3000026A036A2FD0E66BE71FE81FE91FE61F62
:101B4000E62B05E1E72B03E1E82B01E1E92BE5B109
:101B500012D7E5B354D7E5B589D7B3D7EF50E72708
:101B600005E3E82B03E1E92BD8B4E381ED52EF5014
:101B7000E82703E3E92BD8B4E381ED52EF50EFBE41
:101B800001D0800AE927D8B0E381E5B9FCD6E5BBEE
:101B90003ED774D70001000CF2CFC6F3F29CF29E40
:101BA000AA6AA96AA69CA69EA680A8500301C6BDE3
:101BB000F28CC6BFF28E0001B36F0A0E0301DB6F19
:101BC0000001D0DDF2CFC6F3F29CF29EAA6A010EAC
:101BD000A96EA69CA69EA680A8500301C6BDF28C45
:101BE000C6BFF28E0001B46F0A0E0301DB6F000165
:101BF000B9DDF2CFC6F3F29CF29EAA6A020EA96E7C
:101C0000A69CA69EA680A8500301C6BDF28CC6BFA6
:101C1000F28E0001B56F0A0E0301DB6F0001A2DD39
:101C2000F2CFC6F3F29CF29EAA6A030EA96EA69C9E
:101C3000A69EA680A8500301C6BDF28CC6BFF28E38
:101C40000001B66F0A0E0301DB6F00018BDDF2CFDE
:101C5000C6F3F29CF29EAA6A040EA96EA69CA69EEA
:101C6000A680A8500301C6BDF28CC6BFF28E00014B
:101C7000BC6F0A0E0301DB6F000174DDF2CFC6F307
:101C8000F29CF29EAA6A050EA96EA69CA69EA6804C
:101C9000A8500301C6BDF28CC6BFF28E0001BD6F15
:101CA0000A0E0301DB6F00015DDDF2CFC6F3F29C8B
:101CB000F29EAA6A060EA96EA69CA69EA680A850B1
:101CC0000301C6BDF28CC6BFF28E0001BE6F0A0EC4
:101CD0000301DB6F000146DDF2CFC6F3F29CF29EFA
:101CE000AA6A070EA96EA69CA69EA680A85003010C
:101CF000C6BDF28CC6BFF28E0001BF6F0A0E030193
:101D0000DB6F00012FDDF2CFC6F3F29CF29EAA6AD0
:101D1000080EA96EA69CA69EA680A8500301C6BD6B
:101D2000F28CC6BFF28E3B6F0A0EDB6F00011ADD2C
:101D3000F2CFC6F3F29CF29EAA6A090EA96EA69C87
:101D4000A69EA680A8500301C6BDF28CC6BFF28E27
:101D50004A6B496F0A0EDB6F000104DDF2CFC6F358
:101D6000F29CF29EAA6A0A0EA96EA69CA69EA68066
:101D7000A8500301C6BDF28CC6BFF28E596F0A0E81
:101D8000DB6F0001EFDCF2CFC6F3F29CF29EAA6A91
:101D90000B0EA96EA69CA69EA680A8500301C6BDE8
:101DA000F28CC6BFF28E5A6F0A0EDB6F0001DADCCE
:101DB000F2CFC6F3F29CF29EAA6A0C0EA96EA69C04
:101DC000A69EA680A8500301C6BDF28CC6BFF28EA7
:101DD0005B6F0A0EDB6F0001C5DCF2CFC6F3F29C2D
:101DE000F29EAA6A0D0EA96EA69CA69EA680A85079
:101DF0000301C6BDF28CC6BFF28E5C6F0A0EDB6FAC
:101E00000001B0DCF2CFC6F3F29CF29EAA6A140E77
:101E1000A96EA69CA69EA680A8500301C6BDF28C02
:101E2000C6BFF28EDC6BDB6F0001B0DC03C0F5F2E5
:101E300002C0F4F201C0F3F200C0F2F20A0E030194
:101E4000DB6F00018FDCF2CFC6F3F29CF29EAA6A30
:101E5000150EA96EA69CA69EA680A8500301C6BD1D
:101E6000F28CC6BFF28E0201CA6F0A0E0301DB6F4D
:101E7000000178DCF2CFC6F3F29CF29EAA6A160E3D
:101E8000A96EA69CA69EA680A8500301C6BDF28C92
:101E9000C6BFF28E0201CB6F0A0E0301DB6F000199
:101EA00061DCF2CFC6F3F29CF29EAA6A180EA96E0C
:101EB000A69CA69EA680A8500301C6BDF28CC6BFF4
:101EC000F28E0201CC6F0A0E0301DB6F00014ADCC7
:101ED000F2CFC6F3F29CF29EAA6A190EA96EA69CD6
:101EE000A69EA680A8500301C6BDF28CC6BFF28E86
:101EF000DC6BDB6F00014ADC03C0DDF202C0DCF208
:101F000001C0DBF200C0DAF20A0E0301DB6F000150
:101F100029DCF2CFC6F3F29CF29EAA6A1A0EA96ED1
:101F2000A69CA69EA680A8500301C6BDF28CC6BF83
:101F3000F28E266F0A0EDB6F000114DCF2CFC6F3BF
:101F4000F29CF29EAA6A1B0EA96EA69CA69EA68073
:101F5000A8500301C6BDF28CC6BFF28E276F0A0ED1
:101F6000DB6F0001B2EC0BF0F2CFC6F3F29CF29EF5
:101F7000AA6A1D0EA96EA69CA69EA680A850030163
:101F8000C6BDF28CC6BFF28EDC6BDB6F0001C6EC07
:101F90000BF003C0ABF202C0AAF201C0A9F200C06C
:101FA000A8F2ABC2CEF3AAC2CDF3A9C2CCF3A8C2A9
:101FB000CBF30301D26BD16B200ED06F820ECF6FAB
:101FC0000001E1EC0BF003C0ABF202C0AAF201C0C9
:101FD000A9F200C0A8F20A0E0301DB6F0001B2EC07
:101FE0000BF0F2CFC6F3F29CF29EAA6A1C0EA96E09
:101FF000A69CA69EA680A8500301C6BDF28CC6BFB3
:10200000F28EDC6BDB6F0001C6EC0BF0D89203C0E4
:10201000DEF302C0DDF301C0DCF300C0DBF3ABC2D2
:10202000E2F3AAC2E1F3A9C2E0F3A8C2DFF378DCCD
:1020300003C0A3F202C0A2F201C0A1F200C0A0F24C
:102040000A0E0301DB6F0001B2EC0BF0F2CFC6F316
:10205000F29CF29EAA6A1F0EA96EA69CA69EA6805E
:10206000A8500301C6BDF28CC6BFF28EC76FF2CF77
:10207000C8F3F29CF29EAA6A1E0EA96EA69CA69EAA
:10208000A680A850C8BDF28CC8BFF28EC96FC7C366
:1020900003F0C951DB6F03C0DCF30001C6EC0BF0A9
:1020A00003C0AFF202C0AEF201C0ADF200C0ACF2AC
:1020B0000A0E0301DB6F0001B2EC0BF0F2CFC6F3A6
:1020C000F29CF29EAA6A210EA96EA69CA69EA680EC
:1020D000A8500301C6BDF28CC6BFF28EDC6BDB6F6D
:1020E0000001C6EC0BF003C0ABF202C0AAF201C0C3
:1020F000A9F200C0A8F2ABC2CEF3AAC2CDF3A9C226
:10210000CCF3A8C2CBF30301D26BD16B200ED06FFE
:10211000820ECF6F0001E1EC0BF003C0ABF202C006
:10212000AAF201C0A9F200C0A8F20A0E0301DB6FF7
:102130000001B2EC0BF0F2CFC6F3F29CF29EAA6A59
:10214000200EA96EA69CA69EA680A8500301C6BD1F
:10215000F28CC6BFF28EDC6BDB6F0001C6EC0BF0BD
:10216000D89203C0DEF302C0DDF301C0DCF300C08F
:10217000DBF3ABC2E2F3AAC2E1F3A9C2E0F3A8C267
:10218000DFF390EC0CF003C0A7F202C0A6F201C08E
:10219000A5F200C0A4F20A0E0301DB6F0001B2EC4D
:1021A0000BF0F2CFC6F3F29CF29EAA6A250EA96E3E
:1021B000A69CA69EA680A8500301C6BDF28CC6BFF1
:1021C000F28E386F0A0EDB6F0001B2EC0BF0F2CF2B
:1021D000C6F3F29CF29EAA6A260EA96EA69CA69E43
:1021E000A680A8500301C6BDF28CC6BFF28E396F1F
:1021F0000A0EDB6F0001B2EC0BF039C352F338C3A7
:1022000051F30A0E0301DB6F0001B2EC0BF0F2CFC9
:10221000C6F3F29CF29EAA6A270EA96EA69CA69E01
:10222000A680A8500301C6BDF28CC6BFF28E020183
:10223000CD6F0A0E0301DB6F0001B2EC0BF0F2CFA1
:10224000C6F3F29CF29EAA6A280EA96EA69CA69ED0
:10225000A680A8500301C6BDF28CC6BFF28E2D6FBA
:102260000A0EDB6F0001B2EC0BF0F2CFC6F3F29C6A
:10227000F29EAA6A290EA96EA69CA69EA680A850C8
:102280000301C6BDF28CC6BFF28E2E6F0A0EDB6F45
:102290000001B2EC0BF0F2CFC6F3F29CF29EAA6AF8
:1022A0002A0EA96EA69CA69EA680A8500301C6BDB4
:1022B000F28CC6BFF28E7C6F0A0EDB6F0001B2ECAF
:1022C0000BF0F2CFC6F3F29CF29EAA6A2B0EA96E17
:1022D000A69CA69EA680A8500301C6BDF28CC6BFD0
:1022E000F28E7D6F0A0EDB6F0001B2EC0BF0F2CFC5
:1022F000C6F3F29CF29EAA6A2C0EA96EA69CA69E1C
:10230000A680A8500301C6BDF28CC6BFF28E7E6FB8
:102310000A0EDB6F0001B2EC0BF0F2CFC6F3F29CB9
:10232000F29EAA6A2D0EA96EA69CA69EA680A85013
:102330000301C6BDF28CC6BFF28E7F6F376B37517B
:102340000308D8A09CD237510A0DF350C76BC66F53
:102350009E0EC625E96E030EC721EA6E3751080DA1
:10236000F350640FC86FF2CFC9F3F29CF29EAA6AD1
:10237000C8C3A9FFA69CA69EA680A850C9BDF28C82
:10238000C9BFF28EEF6E37510A0DF350C76BC66F9F
:10239000010EC625016E000EC721036E01509E0F6F
:1023A000E96E030E0320EA6E3751080DF350650FF6
:1023B000C86FF2CFC9F3F29CF29EAA6AC8C3A9FF04
:1023C000A69CA69EA680A850C9BDF28CC9BFF28E5D
:1023D000EF6E37510A0DF350C76BC66F090EC62555
:1023E000016E000EC721036E01509E0FE96E030EB1
:1023F0000320EA6E3751080DF350660FC86FF2CF15
:10240000C9F3F29CF29EAA6AC8C3A9FFA69CA69E25
:10241000A680A850C9BDF28CC9BFF28EEF6E3751AD
:102420000A0DF350C76BC66F030EC625016E000E72
:10243000C721036E01509E0FE96E030E0320EA6E62
:102440003751080DF350670FC86FF2CFC9F3F29CF4
:10245000F29EAA6AC8C3A9FFA69CA69EA680A85001
:10246000C9BDF28CC9BFF28EEF6E37510A0DF35021
:10247000C76BC66F040EC625016E000EC721036E22
:1024800001509E0FE96E030E0320EA6E3751080DCE
:10249000F350680FC86FF2CFC9F3F29CF29EAA6A9C
:1024A000C8C3A9FFA69CA69EA680A850C9BDF28C51
:1024B000C9BFF28EEF6E37510A0DF350C76BC66F6E
:1024C000050EC625016E000EC721036E01509E0F3A
:1024D000E96E030E0320EA6E3751080DF350690FC1
:1024E000C86FF2CFC9F3F29CF29EAA6AC8C3A9FFD3
:1024F000A69CA69EA680A850C9BDF28CC9BFF28E2C
:10250000EF6E37510A0DF350C76BC66F060EC62526
:10251000016E000EC721036E01509E0FE96E030E7F
:102520000320EA6E3751080DF3506A0FC86FF2CFDF
:10253000C9F3F29CF29EAA6AC8C3A9FFA69CA69EF4
:10254000A680A850C9BDF28CC9BFF28EEF6E37517C
:102550000A0DF350C76BC66F080EC625016E000E3C
:10256000C721036E01509E0FE96E030E0320EA6E31
:102570003751080DF3506B0FC86FF2CFC9F3F29CBF
:10258000F29EAA6AC8C3A9FFA69CA69EA680A850D0
:10259000C9BDF28CC9BFF28EEF6E37510A0DF350F0
:1025A000C76BC66F9E0EC625E96E030EC721EA6E85
:1025B000EF5086080EE337510A0DF350C76BC66F14
:1025C0009E0EC625E96E030EC721EA6EEF5068081D
:1025D0000DE337510A0DF350C76BC66F9E0EC6252B
:1025E000E96E030EC721EA6E790EEF6E37510A0DC0
:1025F000F350C76BC66F090EC625016E000EC721CA
:10260000036E01509E0FE96E030E0320EA6EEF5039
:102610003B0812E237510A0DF350C76BC66F090E23
:10262000C625016E000EC721036E01509E0FE96E94
:10263000030E0320EA6EEF6A37510A0DF350C76BA1
:10264000C66F030EC625016E000EC721036E015032
:102650009E0FE96E030E0320EA6EEF503B0812E274
:1026600037510A0DF350C76BC66F030EC625016EB6
:10267000000EC721036E01509E0FE96E030E03206A
:10268000EA6EEF6A37510A0DF350C76BC66F040E3E
:10269000C625016E000EC721036E01509E0FE96E24
:1026A000030E0320EA6EEF503B0812E237510A0D89
:1026B000F350C76BC66F040EC625016E000EC7210E
:1026C000036E01509E0FE96E030E0320EA6EEF6A5F
:1026D00037510A0DF350C76BC66F030EC625016E46
:1026E000000EC721036E01509E0FE96E030E0320FA
:1026F000EA6EEF503B0812E237510A0DF350C76BF8
:10270000C66F030EC625016E000EC721036E015071
:102710009E0FE96E030E0320EA6EEF6A37510A0D31
:10272000F350C76BC66F050EC625016E000EC7219C
:10273000036E01509E0FE96E030E0320EA6EEF5008
:102740003B0812E237510A0DF350C76BC66F050EF6
:10275000C625016E000EC721036E01509E0FE96E63
:10276000030E0320EA6EEF6A37510A0DF350C76B70
:10277000C66F060EC625016E000EC721036E0150FE
:102780009E0FE96E030E0320EA6EEF500F0813E26E
:1027900037510A0DF350C76BC66F060EC625016E82
:1027A000000EC721036E01509E0FE96E030E032039
:1027B000EA6E040EEF6E37510A0DF350C76BC66F09
:1027C000070EC625016E000EC721036E01509E0F35
:1027D000E96E030E0320EA6EEF50640814E33751EC
:1027E0000A0DF350C76BC66F070EC625016E000EAB
:1027F000C721036E01509E0FE96E030E0320EA6E9F
:10280000EF50090813E337510A0DF350C76BC66F39
:10281000070EC625016E000EC721036E01509E0FE4
:10282000E96E030E0320EA6E190EEF6E37510A0DA2
:10283000F350C76BC66F080EC625016E000EC72188
:10284000036E01509E0FE96E030E0320EA6EEF50F7
:10285000060813E237510A0DF350C76BC66F080E16
:10286000C625016E000EC721036E01509E0FE96E52
:10287000030E0320EA6E060EEF6E372B60D50001C3
:10288000C6EF2BF00301D06BD05107080DE3D890B1
:10289000CF3302E28C9401D08C84959495928C82F3
:1028A00095928C92D02BF0D70001000C95968C86D7
:1028B000CDC3CFF3E7DFCEC3CFF3E4DF95968C969D
:1028C000000C95968C86CAC3CFF3DCDF9584100E7E
:1028D000006E002EFED700000301CB6BCB51070822
:1028E00015E3958483B402D0D89001D0D880CC333E
:1028F00095928C82210E006E002EFED795928C92BE
:10290000210E006E002EFED7CB2BE8D795968C9625
:10291000CCC301F00001000C95968C96210E006E40
:10292000002EFED795928C928E0E0301CD6FCE6B4A
:102930000001BCDF900E0301CD6FA40ECE6F00012D
:10294000B5DF810E0301CA6F0001BBDF01C0C6F312
:102950000301C651800B06E0800ECD6FCE6B0001E7
:10296000A5DF03010001C8EF2BF0CBC3D2F30301B5
:10297000CF51D21BD2AF05D0D894D890CBBFD8803E
:102980002FD0CBC3D2F3CEC3D3F3CA51D35F06E06B
:10299000D2AF26D0D850010AD86E22D0CFC3D3F3FD
:1029A000CB51D35F06E0D2AF1BD0D850010AD86E0E
:1029B00017D0D0C3D3F3CC51D35F06E0D2AF10D041
:1029C000D850010AD86E0CD0D1C3D3F3CD51D35F08
:1029D00006E0D2AF05D0D850010AD86E01D0D89009
:1029E0000001000C006A016A0301C851D890C9B106
:1029F000002600320132C9B3002600320132C9B5C7
:102A0000002600320132C9B7002600320132C9B9AE
:102A1000002600320132C9BB002600320132C9BD96
:102A2000002600320132C9BF002600320132000107
:102A3000000CB3BF03D0B351090803E3B3BF01D007
:102A40001CD0B36BAA6AA96AA86AA69CA69EA68493
:102A5000F250006EF29CF29E0F01550EA76EAA0E68
:102A6000A76EA682A6B2FED7A6940050F2120A0E56
:102A70000301DB6F0001B2EC0BF0B4BF03D0B45123
:102A8000090803E3B4BF01D01DD0B46BAA6A010EDC
:102A9000A96EA86AA69CA69EA684F250006EF29C1F
:102AA000F29E0F01550EA76EAA0EA76EA682A6B2C1
:102AB000FED7A6940050F2120A0E0301DB6F00014C
:102AC000B2EC0BF0B5BF03D0B551090803E3B5BFB5
:102AD00001D01DD0B56BAA6A020EA96EA86AA69C89
:102AE000A69EA684F250006EF29CF29E0F01550E37
:102AF000A76EAA0EA76EA682A6B2FED7A694005015
:102B0000F2120A0E0301DB6F0001B2EC0BF0B6BF4C
:102B100003D0B651090803E3B6BF01D01DD0B66B90
:102B2000AA6A030EA96EA86AA69CA69EA684F25065
:102B3000006EF29CF29E0F01550EA76EAA0EA76EB4
:102B4000A682A6B2FED7A6940050F2120A0E030186
:102B5000DB6F0001B2EC0BF0BCBF03D0BC51090825
:102B600003E3BCBF01D01DD0BC6BAA6A040EA96EE2
:102B7000A86AA69CA69EA684F250006EF29CF29EC5
:102B80000F01550EA76EAA0EA76EA682A6B2FED79B
:102B9000A6940050F2120A0E0301DB6F0001B2ECA2
:102BA0000BF0BDBF03D0BD51090803E3BDBF01D089
:102BB0001DD0BD6BAA6A050EA96EA86AA69CA69E2A
:102BC000A684F250006EF29CF29E0F01550EA76E85
:102BD000AA0EA76EA682A6B2FED7A6940050F21245
:102BE0000A0E0301DB6F0001B2EC0BF0BEBF03D095
:102BF000BE51090803E3BEBF01D01DD0BE6BAA6A57
:102C0000060EA96EA86AA69CA69EA684F250006E27
:102C1000F29CF29E0F01550EA76EAA0EA76EA68219
:102C2000A6B2FED7A6940050F2120A0E0301DB6F83
:102C30000001B2EC0BF0BFBF03D0BF51090803E3A2
:102C4000BFBF01D01DD0BF6BAA6A070EA96EA86ACC
:102C5000A69CA69EA684F250006EF29CF29E0F01E6
:102C6000550EA76EAA0EA76EA682A6B2FED7A69490
:102C70000050F2120A0E0301DB6F0001B2EC0BF000
:102C800003013B51860820E2860E3B6FAA6A080EBC
:102C9000A96E860EA86EA69CA69EA684F250006E13
:102CA000F29CF29E0F01550EA76EAA0EA76EA68289
:102CB000A6B2FED7A6940050F2120A0E0301DB6FF3
:102CC0000001B2EC0BF003014A5303E1495106083D
:102CD00021E24A6B030E496FAA6A090EA96E030E20
:102CE000A86EA69CA69EA684F250006EF29CF29E50
:102CF0000F01550EA76EAA0EA76EA682A6B2FED72A
:102D0000A6940050F2120A0E0301DB6F0001B2EC30
:102D10000BF0030159BF03D05951090803E359BF10
:102D200001D01ED0596BAA6A0A0EA96EA86AA69C89
:102D3000A69EA684F250006EF29CF29E0F01550EE4
:102D4000A76EAA0EA76EA682A6B2FED7A6940050C2
:102D5000F2120A0E0301DB6F0001B2EC0BF003016B
:102D60005ABF03D05A51090803E35ABF01D01ED0FD
:102D70005A6BAA6A0B0EA96EA86AA69CA69EA68488
:102D8000F250006EF29CF29E0F01550EA76EAA0E35
:102D9000A76EA682A6B2FED7A6940050F2120A0E23
:102DA0000301DB6F0001B2EC0BF003015BBF03D04A
:102DB0005B51090803E35BBF01D01ED05B6BAA6ABD
:102DC0000C0EA96EA86AA69CA69EA684F250006E60
:102DD000F29CF29E0F01550EA76EAA0EA76EA68258
:102DE000A6B2FED7A6940050F2120A0E0301DB6FC2
:102DF0000001B2EC0BF003015CBF03D05C51090889
:102E000003E35CBF01D01ED05C6BAA6A0D0EA96EF5
:102E1000A86AA69CA69EA684F250006EF29CF29E22
:102E20000F01550EA76EAA0EA76EA682A6B2FED7F8
:102E3000A6940050F2120A0E0301DB6F0001B2ECFF
:102E40000BF00301CD6BCC6B400ECB6F820ECA6FC3
:102E5000F5C2D1F3F4C2D0F3F3C2CFF3F2C2CEF392
:102E6000000183DD24E30201F56BF46B400EF36F88
:102E7000820EF26FAA6A140EA96E0C0EA86EA69CA2
:102E8000A69EA684F250006EF29CF29E0F01550E93
:102E9000A76EAA0EA76EA682A6B2FED7A694005071
:102EA000F2120A0E0301DB6F0001B2EC0BF002011B
:102EB000CA510A081EE2CA6BAA6A150EA96EA86A50
:102EC000A69CA69EA684F250006EF29CF29E0F0174
:102ED000550EA76EAA0EA76EA682A6B2FED7A6941E
:102EE0000050F2120A0E0301DB6F0001B2EC0BF08E
:102EF0000201CB510A081EE2CB6BAA6A160EA96E1C
:102F0000A86AA69CA69EA684F250006EF29CF29E31
:102F10000F01550EA76EAA0EA76EA682A6B2FED707
:102F2000A6940050F2120A0E0301DB6F0001B2EC0E
:102F30000BF00201CC5150081FE2500ECC6FAA6A70
:102F4000180EA96E500EA86EA69CA69EA684F250DE
:102F5000006EF29CF29E0F01550EA76EAA0EA76E90
:102F6000A682A6B2FED7A6940050F2120A0E030162
:102F7000DB6F0001B2EC0BF00301CD6BCC6B200ECC
:102F8000CB6F820ECA6FDDC2D1F3DCC2D0F3DBC2DD
:102F9000CFF3DAC2CEF30001E8DC24E30201DD6BFB
:102FA000DC6B200EDB6F820EDA6FAA6A190EA96E37
:102FB0000A0EA86EA69CA69EA684F250006EF29CF5
:102FC000F29E0F01550EA76EAA0EA76EA682A6B29C
:102FD000FED7A6940050F2120A0E0301DB6F000127
:102FE000B2EC0BF00301DC6B26C3DBF30001C6EC93
:102FF0000BF00301CD6BCC6BCB6B800ECA6F03C0A3
:10300000D1F302C0D0F301C0CFF300C0CEF3000172
:10301000ACDC20E3010E0301266FAA6A1A0EA96E2A
:10302000010EA86EA69CA69EA684F250006EF29C8D
:10303000F29E0F01550EA76EAA0EA76EA682A6B22B
:10304000FED7A6940050F2120A0E0301DB6F0001B6
:10305000B2EC0BF00301DC6B27C3DBF30001C6EC21
:103060000BF00301CD6BCC6B200ECB6F830ECA6FC0
:1030700003C0D1F302C0D0F301C0CFF300C0CEF340
:10308000000173DC20E30F0E0301276FAA6A1B0EF9
:10309000A96E0F0EA86EA69CA69EA684F250006E86
:1030A000F29CF29E0F01550EA76EAA0EA76EA68285
:1030B000A6B2FED7A6940050F2120A0E0301DB6FEF
:1030C0000001B2EC0BF00301CD6BCC6B480ECB6F63
:1030D000840ECA6FA3C2D1F3A2C2D0F3A1C2CFF3B0
:1030E000A0C2CEF3000141DC43E3CD0E0201A36F89
:1030F000CC0EA26F200EA16F840EA06FAA6A1C0EC8
:10310000A96E280EA86EA69CA69EA684F250006EFC
:10311000F29CF29E0F01550EA76EAA0EA76EA68214
:10312000A6B2FED7A6940050F2120A0E0301DB6F7E
:103130000001B2EC0BF0AA6A1D0EA96E020EA86E79
:10314000A69CA69EA684F250006EF29CF29E0F01F1
:10315000550EA76EAA0EA76EA682A6B2FED7A6949B
:103160000050F2120A0E0301DB6F0001B2EC0BF00B
:103170000301CD6BCC6B480ECB6F8B0ECA6FAFC209
:10318000D1F3AEC2D0F3ADC2CFF3ACC2CEF30001E7
:10319000B5EC14F042E30201AF6BC00EAE6F410E0E
:1031A000AD6F8B0EAC6FAA6A1E0EA96E380EA86E9C
:1031B000A69CA69EA684F250006EF29CF29E0F0181
:1031C000550EA76EAA0EA76EA682A6B2FED7A6942B
:1031D0000050F2120A0E0301DB6F0001B2EC0BF09B
:1031E000AA6A1F0EA96E180EA86EA69CA69EA6849B
:1031F000F250006EF29CF29E0F01550EA76EAA0EC1
:10320000A76EA682A6B2FED7A6940050F2120A0EAE
:103210000301DB6F0001B2EC0BF00301CD6BCC6B53
:10322000CB6B800ECA6FA7C2D1F3A6C2D0F3A5C2E2
:10323000CFF3A4C2CEF30001B5EC14F03FE30201DA
:10324000A76BA66BA56B7E0EA46FAA6A200EA96E53
:10325000A86AA69CA69EA684F250006EF29CF29EDE
:103260000F01550EA76EAA0EA76EA682A6B2FED7B4
:10327000A6940050F2120A0E0301DB6F0001B2ECBB
:103280000BF0AA6A210EA96E050EA86EA69CA69E3A
:10329000A684F250006EF29CF29E0F01550EA76EAE
:1032A000AA0EA76EA682A6B2FED7A6940050F2126E
:1032B0000A0E0301DB6F0001B2EC0BF00301525167
:1032C000E9083FE2FF0A03E1515160083AE2526B1C
:1032D000516BAA6A250EA96EA86AA69CA69EA68412
:1032E000F250006EF29CF29E0F01550EA76EAA0ED0
:1032F000A76EA682A6B2FED7A6940050F2120A0EBE
:103300000301DB6F0001B2EC0BF0AA6A260EA96E76
:10331000A86AA69CA69EA684F250006EF29CF29E1D
:103320000F01550EA76EAA0EA76EA682A6B2FED7F3
:10333000A6940050F2120A0E0301DB6F0001B2ECFA
:103340000BF00201CD5164081FE2500ECD6FAA6A46
:10335000270EA96E500EA86EA69CA69EA684F250BB
:10336000006EF29CF29E0F01550EA76EAA0EA76E7C
:10337000A682A6B2FED7A6940050F2120A0E03014E
:10338000DB6F0001B2EC0BF003012D51010820E2CC
:10339000010E2D6FAA6A280EA96E010EA86EA69CBA
:1033A000A69EA684F250006EF29CF29E0F01550E6E
:1033B000A76EAA0EA76EA682A6B2FED7A69400504C
:1033C000F2120A0E0301DB6F0001B2EC0BF00301F5
:1033D0002E511E0820E2020E2E6FAA6A290EA96E37
:1033E000020EA86EA69CA69EA684F250006EF29CC9
:1033F000F29E0F01550EA76EAA0EA76EA682A6B268
:10340000FED7A6940050F2120A0E0301DB6F0001F2
:10341000B2EC0BF003017E510A080AE17CC3C8F349
:10342000FF0EC96F0001F2EC14F001C07CF3030140
:103430007F510A080AE17DC3C8F3FF0EC96F00017E
:10344000F2EC14F001C07DF303010001D0EF2BF08A
:103450000900F55211E0F6CFC7F3F7CFC8F3F8CF64
:10346000C9F3F5509EA8FED7AD6EC7C3F6FFC8C31B
:10347000F7FFC9C3F8FFECD7000C9EA8FED7AD6ECE
:10348000000C100E006E002EFED70000FF0EF5DFC0
:10349000100E006E002EFED70000FF0EEEDF100EA5
:1034A000006E002EFED70000FF0EE7DF100E006E4C
:1034B000002EFED70000000C8C9895988C9C959C53
:1034C0008C9095908B84949403012C6B0001000CDC
:1034D0000301C735006E0036FC0E001600C001F077
:1034E000C250C30B0010C26E010EDB6F0001B2ECC4
:1034F0000BF0C282C2B2FED7C4CFDCF3C3CFDBF382
:103500000001C6EC0BF003C0CBF302C0CAF301C04C
:10351000C9F300C0C8F3C8C300F0C9C301F0CAC3EF
:1035200002F0CBC303F0000C0301C751C903F3CF72
:1035300001F0F4CF00F0CA03F3500026C851C903CC
:10354000F3500020026E0001000C0301DF51D8B4DB
:1035500071D0006EE351D8B46DD0002604E3810E23
:10356000002668E204D07F0E005E64E363E0E0C3FF
:10357000E7F3E451E71BE08FE48FE251E603F4CF79
:10358000E9F3E151E503F4CF03F0F3CFE8F3E60309
:10359000F350E927F450E823000E0322E251E5033B
:1035A000F350E927F450E823000E026A03220222B6
:1035B000E051E603F350E827F4500322000E022204
:1035C000E051E503F3500326F4500222000E016A95
:1035D0000122E251E403F350E827F4500322000EE5
:1035E00002220122E151E403F3500326F4500222A7
:1035F000000E0122E051E403F3500226F4500122B0
:10360000002A01BE05D0E83703360236013600062F
:10361000000EE8AF0AD0032A02220122015005E180
:10362000025003E1035001E1002AE7BF018EE7AF3A
:10363000019E04D0006A016A026A036A0001000C5C
:103640000201E96BE86BE76BE66B0301C76B0001F6
:103650003FDF03C0D5F202C0D4F201C0D3F200C0F4
:10366000D2F2D5C2CEF3D4C2CDF3D3C2CCF3D2C200
:10367000CBF3660E0301D26FD16F590ED06F850E5A
:10368000CF6F0001E1EC0BF003C0D5F202C0D4F221
:1036900001C0D3F200C0D2F2D892D5C2DEF3D4C2B8
:1036A000DDF3D3C2DCF3D2C2DBF31F0E0301E26F02
:1036B000850EE16F6F0EE06F820EDF6F000190EC00
:1036C0000CF003C0D5F202C0D4F201C0D3F200C0A6
:1036D000D2F20301CE6BC00ECD6F7F0ECC6F880E81
:1036E000CB6FD5C2D2F3D4C2D1F3D3C2D0F3D2C2FE
:1036F000CFF30001E1EC0BF000C0C7F301C0C8F349
:1037000002C0C9F303C0CAF3D88203C0DEF302C00B
:10371000DDF301C0DCF300C0DBF30301E26BE16B1E
:10372000E06B7F0EDF6F000190EC0CF0B3C2CEF3C4
:10373000B2C2CDF3B1C2CCF3B0C2CBF303C0D2F36B
:1037400002C0D1F301C0D0F300C0CFF3E1EC0BF025
:1037500003C0D9F202C0D8F201C0D7F200C0D6F23D
:10376000010E0301C65D0201C95D02E001E3C96B00
:103770000301C86BC9C2C7F3CA6B040EC96F00014D
:10378000D3DE0150C00FE96E000E0220EA6ED6C2F1
:10379000EFFFD7C2ECFFD8C2ECFFD9C2ECFF0201A9
:1037A000C92BC86B0301C6510201C85D3FE203018A
:1037B000C86BC8C2C7F3CA6B040EC96F0001B4DE80
:1037C00002C003F00150C00FE96E000E0220EA6E45
:1037D000EFCF00F0ECCF01F0ECCF02F0ECCF03F034
:1037E000EACFC8F3E9CFC7F3D892E9C2DEF3E8C263
:1037F000DDF3E7C2DCF3E6C2DBF303C0E2F302C0B1
:10380000E1F301C0E0F300C0DFF390EC0CF0C8C3BB
:10381000EAFFC7C3E9FF03C0E9F202C0E8F201C052
:10382000E7F200C0E6F20201C82BBCD70301DC6B53
:10383000C6C3DBF30001C6EC0BF0E9C2CEF3E8C26D
:10384000CDF3E7C2CCF3E6C2CBF303C0D2F302C0A0
:10385000D1F301C0D0F300C0CFF3E1EC0BF003C013
:10386000E9F202C0E8F201C0E7F200C0E6F2E9C204
:10387000E2F3E8C2E1F3E7C2E0F3E6C2DFF3E9C254
:10388000E6F3E8C2E5F3E7C2E4F3E6C2E3F35DDEA4
:1038900000C0C7F301C0C8F302C0C9F303C0CAF334
:1038A00003C0E2F302C0E1F301C0E0F300C0DFF3C4
:1038B0001DC3E6F31CC3E5F31BC3E4F31AC3E3F330
:1038C00044DE00C0C7F301C0C8F302C0C9F303C09F
:1038D000CAF3E9C2E2F3E8C2E1F3E7C2E0F3E6C209
:1038E000DFF321C3E6F320C3E5F31FC3E4F31EC3F4
:1038F000E3F32BDED892CAC3DEF3C9C3DDF3C8C33A
:10390000DCF3C7C3DBF303C0E2F302C0E1F301C0A1
:10391000E0F300C0DFF390EC0CF000C0C7F301C08F
:10392000C8F302C0C9F303C0CAF3D89203C0DEF3E0
:1039300002C0DDF301C0DCF300C0DBF325C3E2F31A
:1039400024C3E1F323C3E0F322C3DFF390EC0CF0D4
:1039500003C0EDF202C0ECF201C0EBF200C0EAF2EB
:103960000301DC6BCAC2DBF30001C6EC0BF000C044
:10397000C7F301C0C8F302C0C9F303C0CAF303010F
:10398000DC6BCBC2DBF30001C6EC0BF0D882CAC300
:10399000DEF3C9C3DDF3C8C3DCF3C7C3DBF303C085
:1039A000E2F302C0E1F301C0E0F300C0DFF390EC0A
:1039B0000CF0D892EDC2DEF3ECC2DDF3EBC2DCF327
:1039C000EAC2DBF303C0E2F302C0E1F301C0E0F3BB
:1039D00000C0DFF390EC0CF003C0EDF202C0ECF29B
:1039E00001C0EBF200C0EAF2EAC200F0EBC201F063
:1039F000ECC202F0EDC203F0000C030131510508E6
:103A0000D8A4AFD03BC030F03CC031F03DC032F064
:103A10003EC033F03FC034F040C035F041C036F016
:103A200042C037F043C038F044C039F0332C07D0DF
:103A3000346B3451365D02E034C336F391D03350E9
:103A4000020808E1010E346F3451365D02E034C3E0
:103A500036F386D03350030808E1020E346F345138
:103A6000365D02E034C336F37BD03350040808E1FE
:103A7000030E346F3451365D02E034C336F370D038
:103A80003350050808E1040E346F3451365D02E00E
:103A900034C336F365D03350060808E1050E346FA1
:103AA0003451365D02E034C336F35AD03350070840
:103AB00008E1060E346F3451365D02E034C336F34C
:103AC0004FD03350080808E1070E346F3451365D8B
:103AD00002E034C336F344D03350090808E1080E3D
:103AE000346F3451365D02E034C336F339D033508D
:103AF0000F0801E135D033501A0808E1140E346F75
:103B00003451365D02E034C336F32AD033501B08FB
:103B100008E10F0E346F3451365D02E034C336F3E2
:103B20001FD033501C0808E1100E346F3451365D3D
:103B300002E034C336F314D033502C0808E1640E8D
:103B4000346F3451365D02E034C336F309D033505C
:103B5000CC0806E1F00E346F3651F00801E0FF00AA
:103B600006D0336B3351090802E3332BFBD7000136
:103B700064EF2CF08E0E006E0301DB51005EDCC39F
:103B800002F0DDC301F0028E005209E0D89002522B
:103B900002E1015204E002320132002EF7D7DCAF1D
:103BA00005D0011E021E012AD8B4022A0001000C11
:103BB00015C3DEF314C3DDF313C3DCF312C3DBF36D
:103BC000D9DF01C064F015C3DEF314C3DDF313C302
:103BD000DCF312C3DBF3CEDF0301DC6B01C0DBF3EC
:103BE0000001C6EC0BF0D88215C3DEF314C3DDF37D
:103BF00013C3DCF312C3DBF303C0E2F302C0E1F34F
:103C000001C0E0F300C0DFF390EC0CF000C0DBF388
:103C100001C0DCF302C0DDF303C0DEF303C0E2F356
:103C200002C0E1F301C0E0F300C0DFF30301E66B83
:103C3000E56B200EE46F820EE36F000186DC03C0AB
:103C4000DEF302C0DDF301C0DCF300C0DBF392DF82
:103C500001C065F04DC366F000014EC367F000017E
:103C60004FC368F0000150C369F00001E1C2DEF308
:103C7000E0C2DDF3DFC2DCF3DEC2DBF37BDF015049
:103C80000A0DF3CF6AF094806B6B82B06B2B948239
:103C90006C6B82B26C2B938A6D6B81AA6D2B938CAB
:103CA0006E6B81AC6E2B938E6F6B81AE6F2BE5C20A
:103CB000DEF3E4C2DDF3E3C2DCF3E2C2DBF35ADF9E
:103CC00001C070F03AC371F07AC372F075C373F03B
:103CD00074C374F073C375F076C376F077C377F06E
:103CE00078C378F07BC379F07A6B51C37BF0000125
:103CF00052C37CF00001E6EF1EF0080E016E050EC7
:103D0000006E002EFED78B969496060E006E002E47
:103D1000FED70301DF378B98D8B09488D8A0949849
:103D2000948682A6FED7012E01D002D00001E7D7EB
:103D3000050E006E002EFED78B9694960000948898
:103D4000060E006E002EFED7060E006E002EFED769
:103D5000948682A6FED7016A060E006E002EFED75C
:103D600082B801808B9694968B9894980001000CF1
:103D70009488050E006E002EFED79486060E006E07
:103D8000002EFED78B989498050E006E002EFED75D
:103D90008B969496DCC3DFF3B0DFDDC3DFF3ADDFDA
:103DA000DEC3DFF3AADF94980000948682A6FED7D4
:103DB000050E006E002EFED700D000009488050E80
:103DC000006E002EFED700EF1FF0F2D60301376B16
:103DD0003751180818E3B00E0001856F036A03011C
:103DE0003751640FE96E000E0320EA6EEFCFDBF36C
:103DF00085C0DCF337C3DDF3DBC3DEF30001B8D7E6
:103E00000301372BE5D70001000C0201BF6BBE6B2D
:103E1000BD6BBC6B020E0301C76F000168EC1AF0AA
:103E200003C005F302C004F301C003F300C002F3B2
:103E300005C3CEF304C3CDF303C3CCF302C3CBF36A
:103E40000301D26BC00ED16F7F0ED06F880ECF6F83
:103E50000001E1EC0BF000C0C7F301C0C8F302C0E1
:103E6000C9F303C0CAF3D88203C0DEF302C0DDF396
:103E700001C0DCF300C0DBF30A0E0301E26FD70ED2
:103E8000E16F230EE06F7A0EDF6F000190EC0CF013
:103E900000C0C7F301C0C8F302C0C9F303C0CAF32E
:103EA00003C0CEF302C0CDF301C0CCF300C0CBF30E
:103EB00019C3D2F318C3D1F317C3D0F316C3CFF38A
:103EC000E1EC0BF003C009F302C008F301C007F3F3
:103ED00000C006F309C3CDF308C3CCF307C3CBF38B
:103EE00006C3CAF30301D16BD06BCF6BCE6B00015D
:103EF000B5EC14F005E30301096B086B076B066B67
:103F0000010E0301C65D5D5D02E001E35D6B5D5185
:103F1000040DF350036AE96E020E0324EA6E06C331
:103F2000EFFF07C3ECFF08C3ECFF09C3ECFF5D2BF9
:103F30005E6B010EC65D5E5D01E037E25E51040D11
:103F4000F350036AE96E020E0324EA6EEFCF00F02D
:103F5000ECCF01F0ECCF02F0ECCF03F0EACFC8F3E6
:103F6000E9CFC7F3D892BFC2DEF3BEC2DDF3BDC254
:103F7000DCF3BCC2DBF303C0E2F302C0E1F301C037
:103F8000E0F300C0DFF3000190EC0CF0C8C3EAFFDF
:103F9000C7C3E9FF03C0BFF202C0BEF201C0BDF259
:103FA00000C0BCF203015E2BC4D7DC6BC6C3DBF3DD
:103FB0000001C6EC0BF0BFC2CEF3BEC2CDF3BDC252
:103FC000CCF3BCC2CBF303C0D2F302C0D1F301C027
:103FD000D0F300C0CFF3E1EC0BF003C0BFF202C09E
:103FE000BEF201C0BDF200C0BCF2BCC200F0BDC256
:103FF00001F0BEC202F0BFC203F0E5EF2CF00201F7
:10400000C76BC66BC56BC46B030E0301C76F0001A2
:1040100068EC1AF003C00DF302C00CF301C00BF3FF
:1040200000C00AF30DC3CEF30CC3CDF30BC3CCF326
:104030000AC3CBF30301D26BC00ED16F7F0ED06FDA
:10404000880ECF6F0001E1EC0BF000C0C7F301C098
:10405000C8F302C0C9F303C0CAF3D88203C0DEF3B9
:1040600002C0DDF301C0DCF300C0DBF30A0E030184
:10407000E26FD70EE16F230EE06F7A0EDF6F000163
:1040800090EC0CF000C0C7F301C0C8F302C0C9F344
:1040900003C0CAF303C0CEF302C0CDF301C0CCF31A
:1040A00000C0CBF319C3D2F318C3D1F317C3D0F3B5
:1040B00016C3CFF3E1EC0BF003C011F302C010F311
:1040C00001C00FF300C00EF311C3CDF310C3CCF346
:1040D0000FC3CBF30EC3CAF30301D16BD06BCF6B0D
:1040E000CE6B0001B5EC14F005E30301116B106B0E
:1040F0000F6B0E6B010E0301C65D5F5D02E001E315
:104100005F6B5F51040DF350036A500FE96E020EAE
:104110000320EA6E0EC3EFFF0FC3ECFF10C3ECFFEA
:1041200011C3ECFF5F2B606B010EC65D605D01E0AB
:1041300038E26051040DF350036A500FE96E020E2D
:104140000320EA6EEFCF00F0ECCF01F0ECCF02F0ED
:10415000ECCF03F0EACFC8F3E9CFC7F3D892C7C2D8
:10416000DEF3C6C2DDF3C5C2DCF3C4C2DBF303C0B9
:10417000E2F302C0E1F301C0E0F300C0DFF30001AD
:1041800090EC0CF0C8C3EAFFC7C3E9FF03C0C7F255
:1041900002C0C6F201C0C5F200C0C4F20301602B28
:1041A000C3D7DC6BC6C3DBF30001C6EC0BF0C7C2A0
:1041B000CEF3C6C2CDF3C5C2CCF3C4C2CBF303C0A9
:1041C000D2F302C0D1F301C0D0F300C0CFF3E1ECD1
:1041D0000BF003C0C7F202C0C6F201C0C5F200C0B6
:1041E000C4F2C4C200F0C5C201F0C6C202F0C7C228
:1041F00003F0F9EF2CF0CBC3CCF30301CC39006E04
:104200000F0E001600500A0DF3CFCBF3CC39006E21
:10421000F00E00160050003A0F0E00160050CB278B
:10422000CBC301F00001000C030169512D080AE223
:10423000FF0A03E16851E00805E2696B686B000161
:10424000A3910301C62D2AD0938081A009D0938227
:1042500081A206D0938481A403D0938681B602D034
:104260000001A3810001A3B115D0A28D0301675302
:1042700003E16651C8080CE2676B666B0001A27F20
:10428000A2AF03D08C80959002D08C9095900301C2
:1042900004D000018C90959003012CD0C6510208E7
:1042A00029E1938081A009D0938281A206D09384D2
:1042B00081A403D0938681B602D0150E636F0001EE
:1042C000A28D03016351130813E3675303E16651A1
:1042D00064080DE2676B666B0001A27FA2AF03D09A
:1042E0008C80959002D08C9095900301632B02D026
:1042F0008C9095900001000C306A316A326A336A02
:10430000346A356A366A376A386A396A3B6A3C6A9F
:104310003D6A3E6A3F6A406A416A426A436A446A49
:104320009BEF2DF00900F6CFCBF3F7CFCCF3F8CF0E
:10433000CDF3F5509EA8FED7AD6ECBC3F6FFCCC330
:10434000F7FFCDC3F8FF0301CA2F01D002D000014F
:10435000E9D70001000C0301D151016AD05D03E2ED
:10436000D0C300F00CD0006A080ED26FD0370036F0
:10437000D151005CD8B0006E0136D22FF7D70001C2
:10438000000C0150C8C3D0F3640E0301D16F0001CB
:10439000E2DF00C0C8F30150300E08E10301C9A3F9
:1043A0000ED0C9B70CD0C9B9200E04D00301C997EB
:1043B000C999C981012601509EA8FED7AD6EC8C318
:1043C000D0F30A0ED16F0001C6DF00C0C8F3015060
:1043D000300E08E10301C9B70BD0C9A109D0C9B992
:1043E000200E0001012601509EA8FED7AD6E0301EC
:1043F000300EC827C8519EA8FED7AD6E0001000C34
:104400000301D751B608D76F036AD8C3DBF3D88F3F
:10441000D890D833D933DA33033202320132003242
:10442000D72FF6D7DBAF0BD0001E011E021E031ED6
:10443000002AD8B4012AD8B4022AD8B4032A000129
:104440008EEF22F0006A016A026A036A0301DF6BE1
:10445000E06BE16BE26BDE51DD11DC11DB112CE076
:10446000200EE36FD890D737D837D937DA37DF3710
:10447000E037E137E237DE51E25D08E1DD51E15D31
:1044800005E1DC51E05D02E1DB51DF5D0FE3DB5173
:10449000DF5FDC51D8A0DC3DE05FDD51D8A0DD3D21
:1044A000E15FDE51D8A0DE3DE25FD8800036013604
:1044B00002360336E32FD6D7030EEA6EDF0EE96E1F
:1044C0000001000CE9500301CF6FCE51D16F1CE009
:1044D000CDC3E2F3CCC3E1F3CBC3E0F3CAC3DFF354
:1044E000E66BE56B200EE46F820EE36F0001A5EC36
:1044F0001AF003C0CDF302C0CCF301C0CBF300C06F
:10450000CAF30301D12FE4D7CDC3DAF3CCC3D9F377
:10451000CBC3D8F3CAC3D7F3000172D703C0CDF31E
:1045200002C0CCF301C0CBF300C0CAF30301CDAF8E
:104530000DD0CF07CF8BCA1FCB1FCC1FCD1FCA2BCF
:10454000D8B4CB2BD8B4CC2BD8B4CD2B3B0ED66F54
:104550009A0ED56FCA0ED46FD36B0A0ED16FCE519F
:10456000D8B4CF2BCDC3DAF3CCC3D9F3CBC3D8F3B4
:10457000CAC3D7F3D6C3DEF3D5C3DDF3D4C3DCF3AC
:10458000D3C3DBF300015EDF0150EFCFCAF3ECCF02
:10459000CBF3ECCFCCF3ECCFCDF3005213E103011E
:1045A000CE29D15DD8A402D000010CD0CF510DE0AE
:1045B0000F0BD15D01E03CE2CFBF3AD0CFBD05D0BB
:1045C000200E31D0200E0301CF17CFAB0DD0CF9BE3
:1045D000CE51D8A4CF070050CF6F2D0E9EA8FED786
:1045E000AD6ECF51006ECF6BCE51D15D0BE100505F
:1045F000CF6F2E0E9EA8FED7AD6ECF51006E200E4F
:10460000CF17000E300ECFAB0ED0CF9BCE51D8A41B
:10461000CF070050CF6F2D0E9EA8FED7AD6ECF51A5
:10462000006ECF6B300E002600509EA8FED7AD6EF8
:10463000D6C3DAF3D5C3D9F3D4C3D8F3D3C3D7F3EE
:10464000DE6BDD6BDC6B0A0EDB6F0001FBDE03C093
:10465000D6F302C0D5F301C0D4F300C0D3F30301F5
:10466000D12F80D70001000CD0C3B3F0D1C3B4F078
:10467000D2C3B5F0D3C3B6F0D4C3BCF0D5C3BDF03C
:10468000D6C3BEF0D7C3BFF0DAC33BF303013F6B21
:104690000001A39D0301D8A103D00001A38D030154
:1046A000D9C33AF32D2D0ED00F0E7B6F0001E5EC30
:1046B0001EF0640E0301DB6F0001B2EC0BF00A0E7A
:1046C00003017B6FB3C0AEF0B4C0AFF0B5C0B0F0C3
:1046D000B6C0B1F0B7C0B2F0BCC0B8F0BDC0B9F060
:1046E000BEC0BAF0BFC0BBF00001000CEACFD2F3ED
:1046F000E9CFD1F30301CB39F009CD6FCD27E20F1C
:10470000CE6F320FD06FCB510F0BCE27CE27D027D5
:10471000E90FCF6FCF27CF27CA390F0BCF27D0276D
:10472000CF37D037D01FD037CA510F0BD027CD3756
:10473000070ECC6F0A0ECF07D027FDE3CE07CF2799
:10474000FDE3CD07CE27FDE3CC07CD27FDE3030E28
:10475000EA6ECC0EE96E070ED115D19DE926D00E7A
:10476000E95CD8B4D18DEF50006E08E1D1BD06D020
:10477000D1B90CD0D1B702D0200E03D0D187D199B6
:10478000300E002600509EA8FED7AD6EEE50D1AD83
:10479000E6D70001000C016A026A006A036A03019D
:1047A000CA5102E1C95118E0100ECB6FD890C7373B
:1047B000C83700360336CA51035C02E1C951005CB8
:1047C00007E3C951005ED8A00306CA51035ED88032
:1047D00001360236CB2FEAD7000105EF24F00301A2
:1047E000C651030B09E1C6C3D0F3640ED16F0001BB
:1047F000B2DD005218E10301C86BC6C3C7F3010E56
:10480000CA6F900EC96F0001C6D700C0C7F303017D
:1048100003C0C8F3C75305E1C853D8A402D00001B0
:1048200002D0000E02D0010E0301016E0001000C47
:10483000CCC3D0F30A0E0301D16F00018CDD01C09F
:10484000CDF30301CD510A0DF350CC5DCE6FCD39C0
:10485000006EF00E00160050CE11016E0001000C2B
:10486000C6C3CCF3E5DF01C0CCF3860E0301CD6FE8
:1048700001C0CEF3000156EC14F0C7C3CCF3D8DF6F
:1048800001C0CCF3880E0301CD6F01C0CEF300014F
:1048900056EC14F0C8C3CCF3CBDF01C0CCF38C0EC4
:1048A0000301CD6F01C0CEF3000156EC14F0C9C373
:1048B000CCF3BEDF01C0CCF38A0E0301CD6F01C083
:1048C000CEF3000156EC14F0CAC3CCF3B1DF01C043
:1048D000CCF3840E0301CD6F01C0CEF3000156EC82
:1048E00014F0CBC3CCF3A4DF01C0CCF3820E0301E0
:1048F000CD6F01C0CEF3000156EC14F00301CC6B78
:10490000000196DF01C0CCF3800E0301CD6F01C022
:10491000CEF3000156EC14F0BBEF43F003017451E9
:104920000C0802E20A0E746F75511F0802E2100EA5
:10493000756F7351630802E2120E736F7651180897
:1049400002E20B0E766F77513B0802E21E0E776F84
:104950007451020815E173C3C6F3000140DF015230
:1049600008E0030175511D0802E21D0E756F07D0A6
:104970000001030175511C0802E21C0E756F15D071
:104980007451070809E37451010B05E175511E08C4
:1049900002E21E0E756F09D07451010B010805E18A
:1049A00075511E0802E21E0E756F000109EF45F0F9
:1049B0000301CE6BCF6BCDC3D0F30A0ED16F0001D4
:1049C000CADC01C0CEF30301CE510A0DF3CFCEF302
:1049D000CE51CD5DCF6FCFC301F00001000C0301BC
:1049E0006251040DF350036AB40FE96E020E032006
:1049F000EA6EEAC2EFFFEBC2ECFFECC2ECFFEDC2E5
:104A0000ECFF622B625101081EE2626BD882BBC2CE
:104A1000DEF3BAC2DDF3B9C2DCF3B8C2DBF3B7C26E
:104A2000E2F3B6C2E1F3B5C2E0F3B4C2DFF30001D2
:104A300090EC0CF003C0C3F202C0C2F201C0C1F29C
:104A400000C0C0F20301000162EF25F00301DC6B3E
:104A500027C3DBF30001C6EC0BF003C0CEF302C0AA
:104A6000CDF301C0CCF300C0CBF30301D26BD16B0B
:104A7000D06B800ECF6F0001E1EC0BF000C0C6F3ED
:104A800001C0C7F302C0C8F303C0C9F30301DC6B64
:104A90002BC3DBF30001C6EC0BF0C9C3CDF3C8C3D5
:104AA000CCF3C7C3CBF3C6C3CAF303C0D1F302C070
:104AB000D0F301C0CFF300C0CEF3B5EC14F001E2A7
:104AC00003E18DD703012B6B0301DC6B3BC3DBF3ED
:104AD0000001C6EC0BF0D892FDC2DEF3FCC2DDF3A0
:104AE000FBC2DCF3FAC2DBF303C0E2F302C0E1F382
:104AF00001C0E0F300C0DFF390EC0CF000C0C6F39F
:104B000001C0C7F302C0C8F303C0C9F3D88203C011
:104B1000DEF302C0DDF301C0DCF300C0DBF315C33C
:104B2000E2F314C3E1F313C3E0F312C3DFF390EC39
:104B30000CF003C0E5F202C0E4F201C0E3F200C0F1
:104B4000E2F20301CD6BCC6BCB6B7F0ECA6FE5C27B
:104B5000D1F3E4C2D0F3E3C2CFF3E2C2CEF300015B
:104B6000B5EC14F0D8A013D1E5C2CDF3E4C2CCF378
:104B7000E3C2CBF3E2C2CAF30301D16BD06B700E78
:104B8000CF6F820ECE6F0001B5EC14F0D8A0FFD02D
:104B9000C3C2CDF3C2C2CCF3C1C2CBF3C0C2CAF30D
:104BA0009A0E0301D16F990ED06F190ECF6F7D0E43
:104BB000CE6F0001B5EC14F0D8A0E9D0E1C2CDF37E
:104BC000E0C2CCF3DFC2CBF3DEC2CAF30301D16B88
:104BD000D06BCF6B810ECE6F0001B5EC14F0D8A076
:104BE000D4D0030129852751615DD8A0CCD0616B59
:104BF000C3C2CDF3C2C2CCF3C1C2CBF3C0C2CAF3AD
:104C0000D16BD06B800ECF6F7E0ECE6F0001B5ECF6
:104C100014F038E30301DC6B26C3DBF30001C6ECC0
:104C20000BF0D89203C0DEF302C0DDF301C0DCF369
:104C300000C0DBF3CD0E0301E26FCC0EE16F4C0E32
:104C4000E06F7C0EDF6F000190EC0CF0D892F5C2A3
:104C5000DEF3F4C2DDF3F3C2DCF3F2C2DBF303C034
:104C6000E2F302C0E1F301C0E0F300C0DFF390EC37
:104C70000CF003C0F5F202C0F4F201C0F3F200C080
:104C8000F2F280D0C3C2CDF3C2C2CCF3C1C2CBF327
:104C9000C0C2CAF3CD0E0301D16FCC0ED06FCF6F5F
:104CA0007B0ECE6F0001B5EC14F038E30301DC6B32
:104CB00026C3DBF30001C6EC0BF0D88203C0DEF3A1
:104CC00002C0DDF301C0DCF300C0DBF3CD0E030155
:104CD000E26FCC0EE16F4C0EE06F7C0EDF6F0001D7
:104CE00090EC0CF0D892F5C2DEF3F4C2DDF3F3C21F
:104CF000DCF3F2C2DBF303C0E2F302C0E1F301C074
:104D0000E0F300C0DFF390EC0CF003C0F5F202C05A
:104D1000F4F201C0F3F200C0F2F234D00301DC6B14
:104D200026C3DBF30001C6EC0BF0D88203C0DEF330
:104D300002C0DDF301C0DCF300C0DBF30301E26B72
:104D4000E16BE06B7E0EDF6F000190EC0CF0D8920F
:104D5000F5C2DEF3F4C2DDF3F3C2DCF3F2C2DBF33F
:104D600003C0E2F302C0E1F301C0E0F300C0DFF3EF
:104D700090EC0CF003C0F5F202C0F4F201C0F3F2C3
:104D800000C0F2F2030103D0000103012995E5C23E
:104D9000CDF3E4C2CCF3E3C2CBF3E2C2CAF39A0E82
:104DA0000301D16F990ED06FCF6F7D0ECE6F0001D2
:104DB000B5EC14F008E3F9C2F5F2F8C2F4F2F7C268
:104DC000F3F2F6C2F2F2F5C2CDF3F4C2CCF3F3C2C1
:104DD000CBF3F2C2CAF30301D16BD06BCF6B7F0E62
:104DE000CE6F0001B5EC14F006E30201F56BF46B35
:104DF000F36B7F0EF26FE5C2CDF3E4C2CCF3E3C2F6
:104E0000CBF3E2C2CAF30301D16BD06BCF6BCE6B95
:104E10000001B5EC14F006E30201E56BE46BE36B13
:104E2000E26B0001E5C2E2F3E4C2E1F3E3C2E0F3C6
:104E3000E2C2DFF3F5C2E6F3F4C2E5F3F3C2E4F352
:104E4000F2C2E3F3A5EC1AF003C0F1F202C0F0F2F3
:104E500001C0EFF200C0EEF20301DC6B3BC3DBF3F9
:104E60000001C6EC0BF003C0CDF302C0CCF301C0CF
:104E7000CBF300C0CAF3F1C2D1F3F0C2D0F3EFC25A
:104E8000CFF3EEC2CEF3B5EC14F00FE30301DC6B0D
:104E90003BC3DBF30001C6EC0BF003C0F1F202C030
:104EA000F0F201C0EFF200C0EEF2F1C2CDF3F0C2B9
:104EB000CCF3EFC2CBF3EEC2CAF30301D16BD06BDC
:104EC000CF6BCE6B0001B5EC14F005E30201F16B82
:104ED000F06BEF6BEE6B0301DC6B3BC3DBF30001AC
:104EE000C6EC0BF0F1C2CEF3F0C2CDF3EFC2CCF3BF
:104EF000EEC2CBF303C0D2F302C0D1F301C0D0F3B2
:104F000000C0CFF3E1EC0BF003C001F302C000F3EB
:104F100001C0FFF200C0FEF201C3E2F300C3E1F3FF
:104F2000FFC2E0F3FEC2DFF3DDC2E6F3DCC2E5F36D
:104F3000DBC2E4F3DAC2E3F3A5EC1AF003C0E1F25A
:104F400002C0E0F201C0DFF200C0DEF2E1C2CEF347
:104F5000E0C2CDF3DFC2CCF3DEC2CBF30A0E030115
:104F6000D26FD70ED16F230ED06F770ECF6F0001A7
:104F7000E1EC0BF003C0DEF302C0DDF301C0DCF3B3
:104F800000C0DBF3BAEC1DF002C0ABF001C0AAF028
:104F9000DDC2CEF3DCC2CDF3DBC2CCF3DAC2CBF39D
:104FA0000A0E0301D26FD70ED16F230ED06F770E8A
:104FB000CF6F0001E1EC0BF003C0DEF302C0DDF3C4
:104FC00001C0DCF300C0DBF3BAEC1DF002C0ADF0B1
:104FD00001C0ACF0010E03012C6F0001000CF86A57
:104FE000F1949F909F8AD08E078EEA6AE96AB8860C
:104FF000080EAF6E020EB06EA60EAC6E900EAB6ECB
:10500000466A476A486A626B636B846B856B866B22
:105010009F919F939F959F979F999F9B9F9D9F9FD8
:10502000A091A093A095A097A099A09BA09DA09FC0
:10503000A191A193A195A197A199A19BA19DA19FA8
:10504000A291A293A295A297A299A29BA29DA29F90
:10505000A391A393A395A397A399A39BA56BA46BDB
:10506000A76BA66BA96BA86BAB6BAA6BAD6BAC6B9C
:105070009A0E0201A36F990EA26F0D0EA16F860EFC
:10508000A06FA76BA66BA56B7E0EA46FAB6BAA6B14
:10509000A96BA86BAF6BAE6B480EAD6F850EAC6F96
:1050A000B36B300EB26F540EB16F8B0EB06FBF6B1F
:1050B000BE6BBD6BBC6BC36BC26BC16BC06BC76B94
:1050C000C66BC56BC46BC86BC96BCA6BCB6B140E5C
:1050D000CC6FCD6BCE6BCF6BD06BD16BD56BD46BF4
:1050E000D36BD26BDD6BDC6B200EDB6F820EDA6F65
:1050F000E16BE06BDF6BDE6BE56BE46BE36BE26B4C
:10510000E96BE86BE76BE66BED6BEC6BEB6BEA6BFB
:10511000F16BF06BEF6BEE6BF56BF46B480EF36FAE
:10512000830EF26FF96BF86B200EF76F830EF66F3C
:10513000FD6BFC6BFB6B7F0EFA6F0301016B006B69
:105140000201FF6BFE6B0301056B046B036B026BCB
:10515000096B086B076B066B0D6B0C6B0B6B0A6BAB
:10516000116B106B0F6B0E6B156B146B136B126B5B
:105170004A0E196F880E186F280E176F750E166F6E
:10518000E00E1D6F2D0E1C6F100E1B6F750E1A6F2B
:10519000FF0E216F210E206F150E1F6F800E1E6FE8
:1051A000820E256F120E246FF40E236F860E226F6F
:1051B000266B276B286B0001A39DA39F03012991F8
:1051C00029932995299729992A6B2B6B2C6B010E12
:1051D0002D6F020E2E6F2F6B010E306F316B326B05
:1051E000336B346B356BF00E366F376B386B396B56
:1051F0003A6B3B6B010E3C6F3D6F3E6B3F6B406B00
:10520000426B416B446B436B466B456B486B476B22
:105210004A6B496B4C6B4B6B4E6B4D6B506B4F6BD2
:10522000526B516B546B536B5D6B5E6B5F6B606B62
:10523000616B626B636B656B646B676B666B696BF1
:10524000686B6B6B6A6B120E6C6F090E6D6F0D0ED7
:105250006E6F6F6B706B716B726B736B746B756B66
:10526000766B776B786B796B7A6B7B6B7C6B7D6B1A
:105270007E6B7F6BC150C00B0F09C16E070EB46E01
:105280002A6A2B6A0001876B030E886F896F060EEE
:105290008A6F010E8B6F040E8C6F060E8D6F020EDF
:1052A0008E6F050E8F6F906B030E916F050E926FD0
:1052B000936B030E946F040E956F966B020E976FAF
:1052C000050E986F996B030E9A6F060E9B6F010E79
:1052D0009C6F040E9D6F060E9E6FAE6BAF6BB06B36
:1052E000B16BB26BB36BB46BB56BB66BB76BB86BC2
:1052F000B96BBA6BBB6BBC6BBD6BBE6BBF6BC06B72
:10530000C16BC26BC36BC46BC56BC66BC76BC86B21
:10531000C96BCA6BCB6BCC6BCD6BCE6BCF6BD06BD1
:10532000D16BD26BD36BD46BD56BD66BD76BD86B81
:10533000D96BDA6BDB6BDC6BDD6BDE6BDF6BE06B31
:10534000E16BE26BE36BE46BE56BE66BE76BE86BE1
:10535000E96BEA6BEB6BEC6BED6BEE6BEF6BF06B91
:10536000F16BF26BF36BF46BF56BF66BF76BF86B41
:10537000F96BFA6BFB6BFC6BFD6BFE6BFF6B01015A
:10538000006B016B026B036B046B056B066B076BA9
:10539000086B096B0A6B0B6B0C6B0D6B0E6B0F6B59
:1053A000106B116B126B136B146B156B166B176B09
:1053B000186B196B1A6B1B6B1C6B1D6B1E6B1F6BB9
:1053C000206B216B226B236B246B256B266B276B69
:1053D000286B296B2A6B2B6B2C6B2D6B2E6B2F6B19
:1053E000306B316B326B336B346B356B366B376BC9
:1053F000386B396B3A6B3B6B3C6B3D6B3E6B3F6B79
:10540000406B416B426B436B446B456B466B476B28
:10541000486B496B4A6B4B6B4C6B4D6B4E6B4F6BD8
:10542000506B516B526B536B546B556B566B576B88
:10543000586B596B5A6B5B6B5C6B5D6B5E6B5F6B38
:10544000606B616B626B636B646B656B666B676BE8
:10545000686B696B6A6B6B6B6C6B6D6B6E6B6F6B98
:10546000706B716B726B736B746B756B766B776B48
:10547000786B796B7A6B7B6B7C6B7D6B7E6B7F6BF8
:10548000806B816B826B836B846B856B866B876BA8
:10549000886B896B8A6B8B6B8C6B8D6B8E6B8F6B58
:1054A000906B916B926B936B946B956B966B976B08
:1054B000986B996B9A6B9B6B9C6B9D6B9E6B9F6BB8
:1054C000A06BA16BA26BA36BA46BA56BA66BA76B68
:1054D000A86BA96BAA6BAB6BAC6BAD6BAE6BAF6B18
:1054E000B06BB16BB26BB36BB46BB56BB66BB76BC8
:1054F000B86BB96BBA6BBB6BBC6BBD6BBE6BBF6B78
:10550000C06BC16BC26BC36BC46BC56BC66BC76B27
:10551000C86BC96BCA6BCB6BCC6BCD6BCE6BCF6BD7
:10552000D06BD16BD26BD36BD46BD56BD66BD76B87
:10553000D86BD96BDA6BDB6BDC6BDD6BDE6BDF6B37
:10554000E06BE16BE26BE36BE46BE56BE66BE76BE7
:10555000E86BE96BEA6BEB6BEC6BED6BEE6BEF6B97
:10556000F06BF16BF26BF36BF46BF56BF66BF76B47
:10557000F86BF96BFA6BFB6BFC6BFD6BFE6BFF6BF7
:105580000201006B016B026B036B046B056B066B16
:10559000076B086B096B0A6B0B6B0C6B0D6B0E6B5F
:1055A0000F6B106B116B126B136B146B156B166B0F
:1055B000176B186B196B1A6B1B6B1C6B1D6B1E6BBF
:1055C0001F6B206B216B226B236B246B256B266B6F
:1055D000276B286B296B2A6B2B6B2C6B2D6B2E6B1F
:1055E0002F6B306B316B326B336B346B356B366BCF
:1055F000376B386B396B3A6B3B6B3C6B3D6B3E6B7F
:105600003F6B406B416B426B436B446B456B466B2E
:10561000476B486B496B4A6B4B6B4C6B4D6B4E6BDE
:105620004F6B506B516B526B536B546B556B566B8E
:10563000576B586B596B5A6B5B6B5C6B5D6B5E6B3E
:105640005F6B606B616B626B636B646B656B666BEE
:10565000676B686B696B6A6B6B6B6C6B6D6B6E6B9E
:105660006F6B706B716B726B736B746B756B766B4E
:10567000776B786B796B7A6B7B6B7C6B7D6B7E6BFE
:105680007F6B806B816B826B836B846B856B866BAE
:10569000876B886B896B8A6B8B6B8C6B8D6B8E6B5E
:1056A0008F6B906B916B926B936B946B956B966B0E
:1056B000976B986B996B9A6B9B6B9C6B9D6B9E6BBE
:1056C0009F6BB46BB56BB66BB76BB86BB96BBA6BE2
:1056D000BB6B0301556B566B576B586B596B5A6B11
:1056E0005B6B5C6B190E806F100E816F160E826FF4
:1056F000180E836F170E846F1C0E856F140E866F45
:105700002E0E876F886B896B8A6B8B6B8C6B8D6BA6
:105710008E6B220E8F6F240E906F120E916F210EE2
:10572000926F200E936F260E946F130E956F110ECD
:10573000966F976B986B996B9A6B9B6B9C6B9D6B41
:105740000001866B86510F080AE3036A8651640FD5
:10575000E96E000E0320EA6EEF6A862BF3D7C80EBF
:10576000D56EF28A850ECD6E9D80C150C00B0B099F
:10577000C16EC050C00B0209C06EC08EC280F19EC7
:105780009D8AD180C00EF212CCEF0DF08CEF14F098
:10579000010E0301DB6F0001B2EC0BF019EF15F005
:1057A00003012E513C0DF3CF2FF37A0EF66E040E4B
:1057B000F76E000EF86E000128EC1AF041EC1AF0BA
:1057C0008A0EF66E040EF76E000EF86E28EC1AF0D4
:1057D00041EC1AF0060E0301C66FFA0EDB6F0001F2
:1057E000B2EC0BF00301C62FF8D7920EF66E040E42
:1057F000F76E000EF86E000128EC1AF041EC1AF07A
:105800005CEC1AF0010E03012D6F376B0201CC51D5
:105810000301375D10E2CCC2C6F3000120EC1BF09F
:1058200003C015F302C014F301C013F300C012F358
:105830000301372BEBD7938081B043D0938281B2A1
:1058400040D0938481B43DD0938681B63AD0AA6A81
:10585000250EA96EA86AA69CA69EA684F250006E8C
:10586000F29CF29E0F01550EA76EAA0EA76EA6829D
:10587000A6B2FED7A6940050F212140E0301DB6FFD
:105880000001B2EC0BF0AA6A260EA96EA86AA69CCB
:10589000A69EA684F250006EF29CF29E0F01550E59
:1058A000A76EAA0EA76EA682A6B2FED7A694005037
:1058B000F212140E0301DB6F0001B2EC0BF0FF00DB
:1058C00003010001FDEF1CF0E5EC1EF0010E0301E9
:1058D000DB6F0001B2EC0BF00400A0A502D0A0AB7E
:1058E00005D0B40E03012F6F04D000013C0E03015C
:1058F0002F6F0001A1B52BD00301CD6BCC6B700EC7
:10590000CB6F840ECA6F15C3D1F314C3D0F313C386
:10591000CFF312C3CEF30001B5EC14F003E38C8A8D
:10592000959A15D015C3CDF314C3CCF313C3CBF3A1
:1059300012C3CAF30301D16BD06B5C0ECF6F840E20
:10594000CE6F0001B5EC14F002E38C9A959A948224
:1059500082B212D0A96BA86B03012C6B6B510208A9
:1059600006E303E16A51570802E30001A091000138
:10597000A099A96BA86B09D0A089A95303E1A851EC
:10598000020803E2A099A0819F9F030144511808D7
:1059900003E22981446B436B465304E145511308EC
:1059A000D8B09AD0CCC2C6F3000120EC1BF003C0E3
:1059B00015F302C014F301C013F300C012F30A0E72
:1059C0000301C66F000105EF1FF003C0DEF302C044
:1059D000DDF301C0DCF300C0DBF3BAEC1DF002C064
:1059E0004EF301C04DF30A0E0301C66F0001FFEF35
:1059F0001FF003C0DEF302C0DDF301C0DCF300C022
:105A0000DBF3BAEC1DF002C050F301C04FF3870E78
:105A10000301CA6F000161EC14F001C0C6F301C0BC
:105A2000CBF3FBEC20F001C06EF3890E0301CA6FCB
:105A3000000161EC14F001C0C6F301C0CBF3FBEC34
:105A400020F001C06DF38D0E0301CA6F000161ECFF
:105A500014F001C0C6F301C0CBF3FBEC20F001C091
:105A60006CF38B0E0301CA6F000161EC14F001C0EE
:105A7000C6F301C0CBF3FBEC20F001C072F3850E3E
:105A80000301CA6F000161EC14F001C0C6F301C04C
:105A9000CBF3FBEC20F001C06FF3830E0301CA6F60
:105AA000000161EC14F001C0C6F301C0CBF3FBECC4
:105AB00020F001C070F3810E0301CA6F000161EC98
:105AC00014F001C0C6F301C0CBF3FBEC20F001C021
:105AD00071F30301466B456B938E81AE2ED00001AE
