:10000000C4EF12F0F76A140FF66E000EF722090023
:10001000F5501200000000000000005F0000000327
:10002000000300143E143E14242A7F2A124333088E
:10003000666136495522500005030000001C22412C
:10004000000041221C0014083E081408083E08085D
:100050000050300000080808080800606000002018
:10006000100804023E5149453E0004027F004261EF
:1000700051494622414949361814127F10274545F7
:1000800045393E4949493201017109073649494913
:1000900036264949493E00363600000056360000F3
:1000A00008142241001414141414004122140802EC
:1000B000015109063E4159555E7E0909097E7F4975
:1000C0004949363E414141227F4141413E7F4949B4
:1000D00049417F090909013E4141493A7F08080821
:1000E0007F00417F4100304040403F7F0814224163
:1000F0007F404040407F020C027F7F0204087F3E29
:100100004141413E7F090909061E2121215E7F09E7
:1001100009097600F76A240FF66E010EF72209002E
:10012000F5501200264949493201017F01013F4043
:1001300040403F1F2040201F7F2010207F41221C75
:10014000224107087008076151494543007F41007B
:100150000002040810200000417F00040201020494
:100160004040404040000102040020545454787F35
:10017000444444383844444444384444447F385424
:1001800054541804047E0505085454543C7F080454
:10019000047800447D40002040443D007F10284406
:1001A0000000417F40007C047804787C08040478D7
:1001B00038444444387C14141408081414147C0083
:1001C0007C080404485454542004043F44443C40F4
:1001D00040207C1C2040201C3C4030403C442810E7
:1001E00028440C5050503C4464544C440008364160
:1001F0004100007F00004141360800020102040274
:100200000E0FF66E020EF7220900F55012000000E4
:1002100000000000000000000000000000000000DE
:1002200000000000000000000000000000000000CE
:1002300000000000000000000000000000000000BE
:1002400000000000000000000000000000000000AE
:10025000000000000000000000000000000000009E
:10026000000000000000000000000000000000008E
:10027000000000000000000000000000000000007E
:10028000000000000000000000000000000000006E
:10029000000000000000000000000000000000005E
:1002A000000000000000000000000000000000004E
:1002B000000000000000000000000000000000003E
:1002C000000000000000000000000000000000002E
:1002D000000000000000000000000000000000001E
:1002E000000000000000000000000000000000000E
:1002F00000000000000000000000000000000800F6
:1003000000000000000000000000000000001C00D1
:1003100000000000000000000000000000003E009F
:1003200000000000000000000000000000000800C5
:1003300000000000000000000000000000000800B5
:1003400000000000000000000000000000000800A5
:100350000000000000000000000000000000080095
:100360000001FFFFFE000000000000000000080088
:100370000002000001000000000000000000080072
:1003800000020000008000000000000000000800E3
:100390000004000000400000000000000000080011
:1003A000000800000020000000000000000008001D
:1003B000000800000010000000000000000008001D
:1003C000001000000008000000000000000008000D
:1003D00000100000000800000000000000000800FD
:1003E00000200000000400000000000000000800E1
:1003F00000400000000200000000000000000800B3
:1004000000400000000100000000000000000800A3
:1004100000800000000080000000000000000800D4
:100420000100000000004000000000000000080083
:100430000100000000002000000000000000080093
:100440000200000000001000000000000000080092
:100450000200000000000000000000000000080092
:100460000400000000000000000000000000080080
:10047000080000000000000000000000000008006C
:10048000080000000000000000000000000008005C
:100490001000000000000000000000000000080044
:1004A0002000000000000000000000000000080024
:1004B0002000000000000000000000000000080014
:1004C00040000000000000000000000000000800E4
:1004D00040000000000000000000000000000800D4
:1004E0008000000000000000000000000000080183
:1004F00000000000000000000000000000000801F3
:1005000000000000000000000000000000000FFEDE
:1005100000000000000000000000000000000800D3
:1005200000000000000000000000000000000800C3
:1005300000000000000000000000000000000800B3
:1005400000000000000000000000000000000800A3
:100550000000000000000002000000000000080091
:1005600000000000000000030000000000003FFF4A
:10057000FFFFFFFFFFFFFFFF800000000000000003
:100580000000000000000003000000000000000068
:100590000000000000000002000000000000000059
:1005A000000000000000000000000000000000004B
:1005B000000000000000000000000000000000003B
:1005C000000000000000000000000000000000002B
:1005D000000000000000000000000000000000001B
:1005E000000000000000000000000000000000000B
:1005F00000000000000000000000000000000000FB
:100600000000000000000000000000000000F76A89
:100610001E0FF66E060EF7220900F55012003A0082
:10062000F76A300FF66E060EF7220900F550120039
:100630004A5020496E676C6F62616C00F76A4C0F1C
:10064000F66E060EF7220900F55012004175746F20
:10065000636C61766520566572746963616C000035
:10066000F76A700FF66E060EF7220900F5501200B9
:1006700020313530204C6974726F73202000F76A86
:100680008E0FF66E060EF7220900F5501200436C2D
:1006900061766500F76AA40FF66E060EF722090070
:1006A000F5501200436F7272656374610000F76A5F
:1006B000BE0FF66E060EF7220900F5501200496EC5
:1006C000636F7272656374610000F76ADA0FF66E29
:1006D000060EF7220900F55012004D656E75205088
:1006E00072696E636970616C0000F76AFA0FF66EEA
:1006F000060EF7220900F550120043617563686F1A
:100700000000F76A120FF66E070EF7220900F55087
:1007100012004C69717569646F730000F76A2C0FE1
:10072000F66E070EF7220900F5501200496E737439
:1007300072756D656E74616C20537561766500002D
:10074000F76A500FF66E070EF7220900F5501200F7
:1007500054657874696C206520496E737472756D88
:10076000656E74616C00F76A760FF66E070EF722FD
:100770000900F5501200506572736F6E616C697AF2
:1007800061646F00F76A940FF66E070EF722090096
:10079000F550120043616D62696F20436C617665AC
:1007A0000000F76AB20FF66E070EF7220900F55047
:1007B000120054656D70657261747572613A313200
:1007C00031204300F76AD40FF66E070EF7220900B6
:1007D000F5501200542E204573746572696C697A65
:1007E0006163696F6E3A32356D00F76AFA0FF66E23
:1007F000070EF7220900F5501200542E20536563AE
:1008000061646F3D2031356D0000F76A1A0FF66E96
:10081000080EF7220900F550120043616C656E74F2
:10082000616E646F0000F76A360FF66E080EF722ED
:100830000900F550120054206573743A0000F76AFD
:100840004E0FF66E080EF7220900F55012005420E4
:100850007365633A0000F76A660FF66E080EF722BA
:100860000900F55012004300F76A780FF66E080E83
:10087000F7220900F5501200542E2045737465725A
:10088000696C697A6163696F6E3A32306D00F76A3C
:100890009E0FF66E080EF7220900F5501200542E36
:1008A0002053656361646F3D204E2F410000F76A5D
:1008B000BE0FF66E080EF7220900F5501200496EC1
:1008C000732E2053756176650000F76ADA0FF66EB5
:1008D000080EF7220900F5501200542E20457374BB
:1008E0006572696C697A6163696F6E3A31356D0062
:1008F000F76A000FF66E090EF7220900F550120094
:10090000546578202620496E7300F76A1A0FF66E38
:10091000090EF7220900F5501200542E205365638A
:1009200061646F3D2031306D0000F76A3A0FF66E5A
:10093000090EF7220900F550120050726F636573BB
:100940006F20506572736F6E616C697A61646F00BD
:10095000F76A600FF66E090EF7220900F5501200D3
:10096000542E204573746572696C697A6163696F8E
:100970006E00F76A820FF66E090EF7220900F55035
:100980001200542E2053656361646F00F76A9C0F58
:10099000F66E090EF7220900F550120054656D70CD
:1009A0006572617475726100F76AB80FF66E090EB0
:1009B000F7220900F55012004E6976656C206465D7
:1009C00020646573666F67756500F76ADA0FF66E07
:1009D000090EF7220900F5501200436F6E74696E1C
:1009E00075617200F76AF40FF66E090EF7220900BE
:1009F000F5501200436C617665204E756576610096
:100A0000F76A100FF66E0A0EF7220900F550120071
:100A1000542E2045737465722E00F76A2A0FF66E05
:100A20000A0EF7220900F550120020536563616435
:100A30006F00F76A420FF66E0A0EF7220900F550B2
:100A4000120020446573666F67756500F76A5C0F76
:100A5000F66E0A0EF7220900F55012005349000005
:100A6000F76A700FF66E0A0EF7220900F5501200B1
:100A70004E4F0000F76A840FF66E0A0EF722090047
:100A8000F55012004573746572696C697A616E6421
:100A90006F00F76AA20FF66E0A0EF7220900F550F2
:100AA00012004572726F723A455430310000F76A95
:100AB000BE0FF66E0A0EF7220900F55012004572BD
:100AC000726F723A455430320000F76ADA0FF66EF0
:100AD0000A0EF7220900F55012004C6C656E616E2B
:100AE000646F0000F76AF40FF66E0A0EF722090031
:100AF000F55012004572726F723A45413031000074
:100B0000F76A100FF66E0B0EF7220900F55012006F
:100B1000446573707265737572697A616E646F0093
:100B2000F76A300FF66E0B0EF7220900F55012002F
:100B3000536563616E646F00F76A480FF66E0B0EC3
:100B4000F7220900F550120050756572746120415A
:100B50006269657274610000F76A680FF66E0B0EC9
:100B6000F7220900F55012004369636C6F20466953
:100B70006E616C697A61646F0000F76A8A0FF66EC5
:100B80000B0EF7220900F55012002020215061724F
:100B9000616461210000F76AA60FF66E0B0EF72262
:100BA0000900F55012002021416374697661646187
:100BB000210005013E5303E095968C8602D095985E
:100BC0008C88959C8C9C936A3FC58AFF100E006EA2
:100BD000002EFED70000959E8C8E540E006E002EC7
:100BE000FED700D0959E8C9E95988C9895968C9665
:100BF0000001000C05012C6B0A0E2B6F020E2E6FEC
:100C00000A0E2D6F2951FF0DF3CF2AF5306B2F6B94
:100C1000305101081AE32CC503F02B512B2BD8B40B
:100C20002C2BE96E03C0EAFF2AC5EFFF2EC503F0A7
:100C30002D512D2BD8B42E2BE96E03C0EAFF2AC507
:100C4000EFFF2F2BD8B4302BE3D70001000C0501A8
:100C50003A6B0A0E396F020E3C6F0A0E3B6F376B10
:100C6000375107084EE3959A8C9A3E6B400E3F6FC2
:100C700000019FDF010E05013E6F400E3F6F000136
:100C800098DF05013751B8093D6F3E6B3F6F00019A
:100C900090DF05013751B8093D6F010E3E6F3DC52C
:100CA0003FF5000186DF959A8C8A0501386B385133
:100CB0003F0825E33AC503F03951392BD8B43A2B14
:100CC000E96E03C0EAFFEFCF3DF53E6B3DC53FF552
:100CD00000016FDF05013CC503F03B513B2BD8B44D
:100CE0003C2BE96E03C0EAFFEFCF3DF5010E3E6FEE
:100CF0003DC53FF500015DDF0501382BD8D7372B07
:100D0000AFD70001000C95948C84959E8C9E95988D
:100D10008C9895968C96959A8C9A05013E6BC00E90
:100D20003F6F000146DF010E05013E6FC00E3F6FB1
:100D300000013FDF05013E6B400E3F6F000139DFD0
:100D4000010E05013E6F400E3F6F000132DF0501CD
:100D50003E6BB80E3F6F00012CDF010E05013E6FA8
:100D6000B80E3F6F000125DF0501282D0ED03E6B28
:100D70003F0E3F6F00011DDF010E05013E6F3F0E6C
:100D80003F6F000116DF0DD005013E6B3E0E3F6F39
:100D900000010FDF010E05013E6F3E0E3F6F0001A7
:100DA00008DF0501296B000125DF51DFD0EF13F0CB
:100DB00005015B6B56315A6F5A335A331F0E5A175F
:100DC0005A375B375A375B375A375B375A375B3797
:100DD0005A375B375A375B37C00E5A1755515A2767
:100DE000000E5B2355513F080DE20A0E5A255C6F39
:100DF000020E5B215D6F400E5C5D586F000E5D5909
:100E0000596F06D00A0E5A25586F000E5B21596F94
:100E1000575315E059C503F058C5E9FF59C5EAFF16
:100E20005651070B5C6F010E006E5C51016E04E0C1
:100E3000D8900036012EFCD70050EF1215D059C5BE
:100E400003F058C5E9FF59C5EAFF5651070B5C6F1F
:100E5000010E006E5C51016E04E0D8900036012E48
:100E6000FCD70050FF0AEF160001000C3CC503F050
:100E700005013BC5E9FF3CC5EAFFEF52D8B4D0D02D
:100E80003CC503F03BC5E9FF3CC5EAFFEF50520803
:100E900027E33CC503F03BC5E9FF3CC5EAFF200E54
:100EA000EF5C050DF350036A486F050EEA6E430EC2
:100EB000E96E4C6B48C54BF5F2CF49F5F29E050E35
:100EC000016EF76A4851000102EC00F00A000900C7
:100ED000F5CFEEFF012EFBD7050149BFF28E35D0CD
:100EE0003CC503F03BC5E9FF3CC5EAFFEF507E0877
:100EF00027E33CC503F03BC5E9FF3CC5EAFF530EC1
:100F0000EF5C050DF350036A486F050EEA6E430E61
:100F1000E96E4C6B48C54BF5F2CF49F5F29E050ED4
:100F2000016EF76A485100018AEC00F00A000900DE
:100F3000F5CFEEFF012EFBD7050149BFF28E05D09C
:100F4000436B446B456B466B476B3CC503F03B51B1
:100F5000E96E03C0EAFFEF500A0A000103E0070A46
:100F600009E00BD005013D51070DF350010F3A2761
:100F700050D000010501396B4CD005013D51050DE4
:100F8000F35039257F0806E2396B3D51070DF350C8
:100F9000010F3A273F6B3F5104083BE3406B405140
:100FA000060833E3036A3F51430FE96E050E032041
:100FB000EA6EEFCF48F548C500F04051016E04E0FD
:100FC000D8900032012EFCD700A01DD0416B3D51BE
:100FD000415D19E2426B3D51425D13E242513925B8
:100FE000486F40513D03F3503A254125496F48C5AC
:100FF00055F5566F3EC557F50001DADE0501422B67
:10100000EAD7412BE4D7402BCAD73F2B3D51392794
:10101000C2D73B2BD8B43C2B392B000127D7050175
:101020000001000C010E05014E6F4F6F546B4551CE
:10103000475D556F555155AF03D0000ED8805555BB
:10104000036A4C6F03C04DF54651485D556F5551CD
:1010500055AF03D0000ED8805555036A4A6F03C0C0
:101060004BF54551475D02E2FF0E4E6F4651485D1C
:1010700002E2FF0E4F6F4B514D5D3BE303E14A51DE
:101080004C5D37E3D8904A374B374C514A5D006E80
:101090004D514B5900C050F5516F4C51505D526F3E
:1010A0004D515159536F4D5303E154514C5D20E361
:1010B00045C555F546C556F549C557F5000178DED5
:1010C000050151BF01D008D04A5150274B5151233F
:1010D0004E514525456F0AD0525150275351512347
:1010E0004E514525456F4F514625466F542BDBD752
:1010F00036D0D8904C374D374A514C5D006E4B512D
:101100004D5900C050F5516F4A51505D526F4B51CF
:101110005159536F4B5303E154514A5D20E345C588
:1011200055F546C556F549C557F5000141DE05019F
:1011300051BF01D008D04C5150274D5151234F5130
:101140004625466F0AD052515027535151234E51D4
:101150004525456F4F514625466F542BDBD700017F
:10116000000C05013E532EE03C513A5D05E23AC5C4
:1011700041F53CC542F504D03CC541F53AC542F5C0
:101180003D513B5D05E23BC543F53DC544F504D00B
:101190003DC543F53BC544F54151425D12E343C5AE
:1011A00040F54051445D0BE341C555F540C556F54A
:1011B0003FC557F50001FCDD0501402BF2D7412B5F
:1011C000EBD72ED03AC545F53BC546F53CC547F5AE
:1011D0003BC548F53FC549F5000124DF3AC545F553
:1011E0003DC546F53CC547F53DC548F53FC549F504
:1011F00019DF3AC545F53BC546F53AC547F53DC546
:1012000048F53FC549F50EDF3CC545F53BC546F5FC
:101210003CC547F53DC548F53FC549F503DF050128
:101220000001000C050128C501F029C503F028C5FF
:101230002EF529C52FF5050EEA6E080EE96E29C5B3
:10124000E2FF28C5E1FFE752E6CFEEFFFCE12C51BB
:10125000020814E1010E2A252E6F010E2B252F6F97
:101260002EC539F53A6F050E3C6F080E3B6F2DC544
:101270003DF5010E3E6F0001F9DD05012C2D25D055
:101280002D51080DF3502B252E6F3A6B2BC53BF5D6
:101290007F0E3C6F2EC53DF5010E3E6F3F6F000186
:1012A00060DF010E05012A252E6F010E2B252F6F01
:1012B0002EC539F53A6F050E3C6F080E3B6F2DC5F4
:1012C0003DF53E6B0001D2DD05012C5325E12D518A
:1012D000080DF3502B252E6F3A6B2BC53BF57F0E77
:1012E0003C6F2EC53DF5010E3E6F3F6B000139DFAF
:1012F000010E05012A252E6F010E2B252F6F2EC5FD
:1013000039F53A6F050E3C6F080E3B6F2DC53DF564
:10131000010E3E6F0001AADD000199DC000C050EF4
:10132000EA6E290EE96EEF500EE0010E016E006AC2
:10133000002EFED7012EFBD74A0E006E002EFED7E0
:1013400000D0EF2EF2D7000C05013E51016A3D5D41
:1013500003E23DC500F00CD0006A080E3F6F3D3738
:1013600000363E51005CD8B0006E01363F2FF7D7F3
:101370000001000C27C5EAFF26C5E9FF050145C5A8
:10138000EFFFE92AD8B4EA2AEF6A262BD8B4272B34
:101390000001000C200E050138A9300E396F37C549
:1013A00000F037AF07D0001E002A00C037F52D0E21
:1013B000396F388F015037C53DF5640E3E6F00011F
:1013C000C3DF00C037F5300E012405013A6F37C581
:1013D0003DF50A0E3E6F0001B7DF300E0024050117
:1013E0003C6F300E01243B6F39C500F038A702D0A6
:1013F00038AF389538B90BD038AF22D038B520D0B7
:1014000000C03AF538B31CD000C03BF519D0300EFF
:101410003A5D16E100C03AF5200E396F38A704D0C6
:101420003895388338AF3893300E3B5D09E100C002
:101430003BF5200E3A6F38A7F7D7389338AF38917D
:1014400038A505D039C545F5000194DF050138A35D
:1014500005D03AC545F500018DDF050138A104D05E
:101460003BC545F5000186DF3CC545F5000182DF3F
:1014700045EF0AF0050E0501276F2E0E266F2AC5CF
:1014800037F51F0E386F000185D705012D2D27D0A8
:10149000120E2B25376F180E2C25386F2BC53AF5F9
:1014A0002CC53BF537C53CF53D6F010E3E6F3F6FD8
:1014B000000157DE020E05012B25376F010E2C258A
:1014C000386F37C539F53A6F050E3C6F2E0E3B6FFE
:1014D000020E3D6F3E6B0001C9DC26D00501120EE5
:1014E0002B25376F180E2C25386F2BC53AF52CC5D8
:1014F0003BF537C53CF53D6F3E6B3F6B000131DE80
:10150000020E05012B25376F010E2C25386F37C5CC
:1015100039F53A6F050E3C6F2E0E3B6F020E3D6F94
:10152000010E3E6F0001A2DC000C300E04016D259F
:10153000B46F300E6E25B56F300E6F25B66F300E5E
:101540007025B76F300E7125B86F300E7225B96FE8
:10155000300E7325BA6F300E7425BB6F300E7525B3
:10156000BC6F300E8A25C06F300E7C25BD6F0D0E0E
:10157000C16F7B6B7B510D0808E30C0E0501296FD1
:101580000001CDDE04017B2BF5D70001000C8E0E8F
:10159000006E29C501F028C502F0036A015209E175
:1015A00002C001F0026A080E005E015202E1006A08
:1015B00008D0D89001BE04D0023601360006F9D713
:1015C000019E000C05012C51D8B4A5D0386F3051C4
:1015D000D8B4A1D0385F05E37F0E3827D8B09BD0B0
:1015E00006D0810E385FD8A096D0D8B494D038C534
:1015F00000F0016A026A036A376B2DC536F5368F33
:101600002EC535F52FC534F5190E386F3351345FBB
:101610000DE2010E355F0AE2365F08E2375F06E24F
:10162000372B362B352B3351342728D03251355FA9
:1016300012E2010E365F0FE2375F0DE2372B362BD9
:10164000325135273351342719E3352B17E1362B27
:1016500015E1372B13D031518009365F0EE2010EB0
:10166000375F0BE2372B315180093627325135274E
:10167000E9E3362BE7E1372BE5D70380382F01D09C
:101680000BD0D8903437353736373737D8900336C4
:10169000023601363937BAD739A106D0D89001328F
:1016A00002320332393302D0000635E039BF1ED092
:1016B000D89034373537363737373351345F07E210
:1016C000010E355F04E2365F02E2375F1AE3325102
:1016D000355F05E2010E365F02E2375F12E33151FA
:1016E0008009365F03E2010E375F0BE3032A09E14D
:1016F000022A07E1012A05E1002A0DE00132023247
:1017000003322DC538F53151381B38AF02D0018E68
:1017100006D0019E04D0006A016A026A036A0001D1
:1017200016EF0DF0800ED8A202D00501311B050185
:10173000366B376B2DC535F53151351B2C51D8B46F
:10174000DFD0346F006E3051D8B4E3D0345FD8B4FA
:1017500083D03EE331C53AF53A8F32C539F533C50A
:1017600038F5376BD8903A33393338333733342F31
:10177000F8D735AF03D03681E0D036913491368931
:10178000050EEA6E2F0EE96EEBD0369935BF0AD002
:1017900034A113D03A33393338333733002AD8B42D
:1017A000C7D00BD03ABF0CD0D8903737383739373D
:1017B0003A370006D8B4BCD0F5D7368D6DD0369DFB
:1017C0002DC535F52DAF02D03A8FABD03A9FA9D0B9
:1017D00030C534F530C500F02C51345F2DC53AF5D5
:1017E0003A8F2EC539F52FC538F5376BD8903A3377
:1017F000393338333733342FF8D735AF03D0368306
:101800009CD036933491368B050EEA6E330EE96E1A
:10181000A7D0369B35BF0AD034A113D03A33393321
:1018200038333733002AD8B483D00BD03ABF0CD02A
:10183000D8903737383739373A370006D8B478D0A8
:10184000F5D7368F29D0369F31C535F531AF02D067
:101850003A8F67D03A9F65D031C53AF53A8F32C595
:1018600039F533C538F535AF04D03A9F368565D0A4
:101870003695376B3491050EEA6E2F0EE96E70D0F7
:1018800035BF1CD02DC535F534A106D03A333933D8
:1018900038333733002A4CE037AF0BD0382B09E10F
:1018A000392B07E13A2B05E13A3339333833002A33
:1018B0003FE036BD84D736BFC6D71CD0800E3A1B5A
:1018C0003AAF04D03AD031C535F50AD02DC535F53B
:1018D0003A5306E1395304E1385302E1006A21D05A
:1018E0003ABF08D0D8903737383739373A37002ED3
:1018F000F7D71ED035AF02D03A8F13D03A9F11D010
:1019000030C500F031C53AF532C539F533C538F583
:1019100008D02CC500F02DC53AF52EC539F52FC5D8
:1019200038F53AC501F039C502F038C503F034D0B6
:10193000006A016A026A036A2FD0376B381F391FA9
:101940003A1F371F372B05E1382B03E1392B01E113
:101950003A2B36B112D736B354D736B589D7B3D769
:10196000EF50382705E3392B03E13A2BD8B4348103
:10197000ED52EF50392703E33A2BD8B43481ED52BE
:10198000EF50EFBE01D0800A3A27D8B0348136B983
:10199000FCD636BB3ED774D70001000C300E0401D4
:1019A000C25D5E6F300EC35D5F6F300EC45D606FF1
:1019B000300EC55D616F300EC65D626F300EC75D63
:1019C0000501296B286F0001E2DD03C091F402C01C
:1019D00090F401C08FF400C08EF4300E0401C85D95
:1019E000686F300EC95D696F300ECB5D766F050193
:1019F000296B76C428F50001CADD00C028F501C0B6
:101A000029F502C02AF503C02BF503C02FF502C04B
:101A10002EF501C02DF500C02CF50501336B326B9E
:101A2000200E316F820E306F0001CCD5D89291C458
:101A30002FF590C42EF58FC42DF58EC42CF503C060
:101A400033F502C032F501C031F500C030F56ADE71
:101A500003C091F402C090F401C08FF400C08EF472
:101A6000000C05012C512E03F3CF01F0F4CF00F050
:101A70002F03F35000262D512E03F3500020026E49
:101A800000015DEF0DF005012851050851E1296BBA
:101A900029513F084DE32A6B2A510F0847E3070EEF
:101AA0002B6F2B51800A7F083FE22D6B29C52CF547
:101AB0002F6B100E2E6F0001D4D702C02DF501C080
:101AC0002CF505012A510124016E000E0220036E3F
:101AD0000150F2CF2CF5F29E03C0F7FF000100EC9D
:101AE00001F005012CBFF28E2C6F070ED8802B550C
:101AF0002D6F2CC500F02D51016E04E0D8900032FE
:101B0000012EFCD700A00ED02A51080DF3502B2532
:101B10002C6F556F29C556F5010E576F0001D8EC93
:101B200006F005012B07BDD72A2BB6D7292BB0D736
:101B30000001000C006A016A05013151D89032B1F0
:101B400000260032013232B300260032013232B5B3
:101B500000260032013232B700260032013232B99B
:101B600000260032013232BB00260032013232BD83
:101B700000260032013232BF00260032013200015D
:101B8000000C05012D6B2AC52EF5010ED8802A55B3
:101B90002F6F2B5365E02D51285D306F2E51292575
:101BA000316F2D512825326F2E512925336F30C5C5
:101BB00045F531C546F532C547F5486F2CC549F5A1
:101BC000000112EC08F005012D51285D306F2E51F7
:101BD000295D316F2D512825326F2E51295D336FCC
:101BE00030C545F531C546F532C547F5486F2CC5BA
:101BF00049F5000112EC08F005012E51285D306F07
:101C00002D512925316F2E512825326F2D5129252F
:101C1000336F30C545F531C546F532C547F5486FD8
:101C20002CC549F5000112EC08F005012E51285D84
:101C3000306F2D51295D316F2E512825326F2D5176
:101C4000295D336F30C545F531C546F532C547F5D9
:101C5000486F2CC549F5000112EC08F078D0050159
:101C600028512D25306F29512E25316F30C555F55E
:101C7000566F2CC557F50001D8EC06F00501285128
:101C80002E25306F29512D25316F30C555F5566FF2
:101C90002CC557F50001D8EC06F005012D51285D43
:101CA000306F29512E25316F30C555F5566F2CC533
:101CB00057F50001D8EC06F005012E51285D306F74
:101CC00029512D25316F30C555F5566F2CC557F567
:101CD0000001D8EC06F0050128512E25306F2D515A
:101CE000295D316F30C555F5566F2CC557F500018C
:101CF000D8EC06F0050128512D25306F2E51295DB5
:101D0000316F30C555F5566F2CC557F50001D8EC2D
:101D100006F005012D51285D306F2E51295D316F80
:101D200030C555F5566F2CC557F50001D8EC06F0B7
:101D300005012E51285D306F2D51295D316F30C561
:101D400055F5566F2CC557F50001D8EC06F0050186
:101D50002FBF01D00ED02D512D2B306F020E316FC1
:101D600030C532F50001E6DE0150030F05012F27D3
:101D700011D02D512D2B306F2E512E07305D306F2D
:101D8000020E316F30C532F50001D4DE0150050F6F
:101D900005012F272D51800A006E2E51800A005C0C
:101DA000D8B4F7D6D8A0F5D60001000C015037C53D
:101DB0003DF5640E05013E6F0001A4EC09F000C082
:101DC00037F50150300E08E1050138A310D038B7BF
:101DD0000ED038B9200E04D00501389738993881D3
:101DE000012601C045F50001BAEC09F0050137C52F
:101DF0003DF50A0E3E6F0001A4EC09F000C037F576
:101E00000150300E08E1050138B70BD038A109D0D8
:101E100038B9200E0001012601C045F5BAEC09F0E1
:101E20000501300E372737C545F50001BAEC09F03A
:101E3000000C05012C51020838E1050E276F2E0E0B
:101E4000266F29C537F5030E386F0001AFDF050196
:101E50002D51120DF3502A25376F2D51080DF350D7
:101E60002B25386F2AC53AF52BC53BF537C53CF510
:101E70003D6F010E3E6F3F6F0001B1EC08F0010EA7
:101E800005012A25376F010E2B25386F37C539F527
:101E90003A6F050E3C6F2E0E3B6F2DC53DF53E6B28
:101EA000000136EC07F068D00501050E276F2E0EF5
:101EB000266F29C537F51B0E386F000177DF050146
:101EC0002C2D2CD02D51050DF3502A25376F2D5177
:101ED000080DF3502B25386F2AC53AF52BC53BF575
:101EE00037C53CF53D6F010E3E6F3F6F0001B1EC11
:101EF00008F0010E05012A25376F010E2B25386FDA
:101F000037C539F53A6F050E3C6F2E0E3B6F2DC568
:101F10003DF53E6B000136EC07F005012C532DE139
:101F20002D51050DF3502A25376F2D51080DF35013
:101F30002B25386F2AC53AF52BC53BF537C53CF53F
:101F40003D6F010E3E6F3F6B0001B1EC08F0010EDA
:101F500005012A25376F010E2B25386F37C539F556
:101F60003A6F050E3C6F2E0E3B6F2DC53DF5010EF1
:101F70003E6F000136EC07F00501000127EC06F08A
:101F8000000C99C429F5240E05012A6F2B6B2C6BCC
:101F9000010E2D6F00014DDF98C429F52A0E0501B1
:101FA0002A6F2B6B2C6B010E2D6F000142DF050E8B
:101FB000EA6E080EE96EF2CF28F5F29E000E07ECED
:101FC00003F00A000900F550EE6E0009FBE105017F
:101FD00028BFF28E050E296F080E286F310E2A6F6A
:101FE0002B6B020E2C6F010E2D6F000112EC09F00D
:101FF00097C429F5360E05012A6F2B6B2C6B010E49
:102000002D6F000116DF96C429F53C0E05012A6FDD
:102010002B6B2C6B010E2D6F00010BDFA1C429F57A
:10202000240E05012A6F080E2B6F2C6B010E2D6FED
:102030000001FFDEA0C429F52A0E05012A6F080E53
:102040002B6F2C6B010E2D6F0001F3DE050EEA6E77
:10205000080EE96EF2CF28F5F29E000E07EC03F0B1
:102060000A000900F550EE6E0009FBE1050128BFEA
:10207000F28E050E296F080E286F310E2A6F080E9A
:102080002B6F020E2C6F010E2D6F000112EC09F068
:102090009FC429F5360E05012A6F080E2B6F2C6B95
:1020A000010E2D6F0001C5DE9EC429F53C0E050111
:1020B0002A6F080E2B6F2C6B010E2D6F0001B9DEFD
:1020C000000C070E05012A252B6F28C53AF52AC5F5
:1020D0003BF529C53CF53D6F010E3E6F3F6B00019E
:1020E000B1EC08F0000C05014551D8B471D0006E78
:1020F0004951D8B46DD0002604E3810E002668E271
:1021000004D07F0E005E64E363E046C54DF54A519E
:102110004D1B468F4A8F48514C03F4CF4FF5475122
:102120004B03F4CF03F0F3CF4EF54C03F3504F279E
:10213000F4504E23000E032248514B03F3504F2717
:10214000F4504E23000E026A0322022246514C0331
:10215000F3504E27F4500322000E022246514B0347
:10216000F3500326F4500222000E016A0122485166
:102170004A03F3504E27F4500322000E022201229C
:1021800047514A03F3500326F4500222000E012265
:1021900046514A03F3500226F4500122002A01BEA0
:1021A00005D04E370336023601360006000E4EAF1C
:1021B0000AD0032A02220122015005E1025003E164
:1021C000035001E1002A4DBF018E4DAF019E04D0A6
:1021D000006A016A026A036A000167EF11F00501F3
:1021E0004551B608456F036A46C549F5468FD890F4
:1021F0004633473348330332023201320032452F2F
:10220000F6D749AF0BD0001E011E021E031E002A86
:10221000D8B4012AD8B4022AD8B4032A00017CEF2A
:1022200011F0006A016A026A036A05014D6B4E6B88
:102230004F6B506B4C514B114A1149112CE0200E41
:10224000516FD89045374637473748374D374E3767
:102250004F3750374C51505D08E14B514F5D05E110
:102260004A514E5D02E149514D5D0FE349514D5FC9
:102270004A51D8A04A3D4E5F4B51D8A04B3D4F5FCD
:102280004C51D8A04C3D505FD88000360136023604
:102290000336512FD6D7050EEA6E4D0EE96E0001BA
:1022A000000CE95005013D6F3C513F6F1BE03BC501
:1022B00048F53AC547F539C546F538C545F54C6B7F
:1022C0004B6B200E4A6F820E496F00010CD703C082
:1022D0003BF502C03AF501C039F500C038F50501FB
:1022E0003F2FE5D73BC548F53AC547F539C546F513
:1022F00038C545F5000173D703C03BF502C03AF578
:1023000001C039F500C038F505013BAF0DD03D07E0
:102310003D8B381F391F3A1F3B1F382BD8B4392B40
:10232000D8B43A2BD8B43B2B3B0E446F9A0E436F74
:10233000CA0E426F416B0A0E3F6F3C51D8B43D2B21
:102340003BC548F53AC547F539C546F538C545F5A5
:1023500044C54CF543C54BF542C54AF541C549F561
:1023600000015FDF0150EFCF38F5ECCF39F5ECCF4E
:102370003AF5ECCF3BF5005213E105013C293F5DF6
:10238000D8A402D000010CD03D510DE00F0B3F5DF1
:1023900001E044E23DBF42D03DBD05D0200E37D024
:1023A000200E05013D173DAB0FD03D9B3C51D8A4FD
:1023B0003D0700503D6F2D0E456F0001BAEC09F04E
:1023C00005013D51006E3D6B3C513F5D0DE10050FC
:1023D0003D6F2E0E456F0001BAEC09F005013D512D
:1023E000006E200E3D17000E300E3DAB10D03D9B11
:1023F0003C51D8A43D0700503D6F2D0E456F0001A4
:10240000BAEC09F005013D51006E3D6B300E00261F
:1024100000C045F50001BAEC09F0050144C548F5D6
:1024200043C547F542C546F541C545F54C6B4B6B79
:102430004A6B0A0E496F0001F4DE03C044F502C086
:1024400043F501C042F500C041F505013F2F78D7A3
:1024500000013EEF12F0050E0501276F2F0E266FCB
:10246000020EE96E2BC53BF52AC53AF529C539F5AB
:1024700028C538F5010E3C6F000113D705012E5118
:102480001B0DF3502C25386F2E51080DF3502D25C0
:10249000396F2CC53AF52DC53BF538C53CF53D6F78
:1024A000010E3E6F3F6B0001B1EC08F02CC539F511
:1024B0002DC53AF5050E05013C6F2F0E3B6F2EC55D
:1024C0003DF5010E3E6F000136EC07F0A7EF2EF050
:1024D0008E0E006E05012851005E29C502F02AC546
:1024E00001F0028E005209E0D890025202E101523E
:1024F00004E002320132002EF7D729AF05D0011EC9
:10250000021E012AD8B4022A0001000C29C530F5A8
:1025100005012D51301B30AF05D0D894D89029BF7C
:10252000D8802FD029C530F52CC531F52851315F21
:1025300006E030AF26D0D850010AD86E22D02DC583
:1025400031F52951315F06E030AF1BD0D850010A78
:10255000D86E17D02EC531F52A51315F06E030AF65
:1025600010D0D850010AD86E0CD02FC531F52B51A0
:10257000315F06E030AF05D0D850010AD86E01D0E7
:10258000D890000147EF30F0F86AD09EEA6AE96A15
:1025900004015E6B010E5F6F606B616B626B636B5E
:1025A000646B656B666B676B686B696B6A916A934A
:1025B0006A956A976A896A9B6A9D6A9F6B916B9319
:1025C0006B956B976B996B9B6B9D6B9F6C916C93F1
:1025D0006C956C976C996C9B6C9D6D6B6E6B6F6B57
:1025E000706B716B726B736B746B756B766B776BF7
:1025F000786F796B7A6B7B6B7C6B7D6B7E6F7F6B9F
:10260000806B816B836B826B856B846B876B866B56
:10261000896B0F0E886F8B6B8A6B8D6B8C6B916BDC
:10262000906B8F6B8E6BD76BD66BD56BD46BDB6B74
:10263000200EDA6F410ED96F8B0ED86FE36BE26B11
:10264000200EE16F820EE06FE76BE66BE56BE46BEB
:10265000EB6BEA6BE96BE86BEF6BEE6BED6BEC6BC6
:10266000F36BF26BF16BF06BF76BF66BF56BF46B76
:10267000FB6BFA6B480EF96F830EF86FFF6BFE6B06
:10268000200EFD6F830EFC6F0501036B026B016B67
:10269000006B076B066B056B046BC150C00B0F0919
:1026A000C16E070EB46E046A056A6B0E04010A6FF0
:1026B000500E0B6F610E0C6F0D6B0E6B0F6B106B72
:1026C000116B126B136B146B156B166B176B186B0E
:1026D000196B1A6B1B6B1C6B1D6B1E6B1F6B206BBE
:1026E000216B226B236B246B256B266B276B286B6E
:1026F000296B2A6B2B6B2C6B2D6B2E6B2F6B306B1E
:10270000316B326B336B346B356B366B376B386BCD
:10271000396B3A6B3B6B3C6B3D6B3E6B3F6B406B7D
:10272000416B426B436B446B456B466B476B486B2D
:10273000496B4A6B4B6B4C6B4D6B4E6B4F6B506BDD
:10274000516B526B536B546B556B566B576B586B8D
:10275000596B5A6B5B6B5C6B5D6B926B936B946BA1
:10276000956B966B976B986B996B9A6B9B6B9C6B4D
:102770009D6B9E6B9F6BA06BA16BA26BA36BA46BFD
:10278000A56BA66BA76BA86BA96BD16BD26BD36B38
:102790000501266B276B010E286F000183EF06F001
:1027A0000501296B0001FAEC05F0050EEA6E080E32
:1027B000E96EF2CF28F5F29E000E10EC03F00A004D
:1027C0000900F550EE6E0009FBE1050128BFF28E0D
:1027D000050E296F080E286F2A6B2B6B2C6B020ECF
:1027E0002D6F000112EC09F0050EEA6E080EE96E7D
:1027F000F2CF28F5F29E000E1EEC03F00A0009004D
:10280000F550EE6E0009FBE1050128BFF28E050EC2
:10281000296F080E286F2A6B140E2B6F2C6B010E7C
:102820002D6F000112EC09F0050EEA6E080EE96E3C
:10283000F2CF28F5F29E000E30EC03F00A000900FA
:10284000F550EE6E0009FBE1050128BFF28E050E82
:10285000296F080E286F2A6B230E2B6F2C6B020E2C
:102860002D6F000112EC09F0040E0501286FFA0E1D
:10287000296F00018FEC09F00501282FF8D7040E0D
:10288000286FFA0E296F00018FEC09F00501282F3F
:10289000F8D7296B0001FAEC05F0A2C42AF5140E52
:1028A00005012B6F1E0E2C6F010E2D6F00013AECEF
:1028B0000AF0A3C42AF5280E05012B6F1E0E2C6FFB
:1028C0002D6B00013AEC0AF0A4C42AF53C0E050178
:1028D0002B6F1E0E2C6F2D6B00013AEC0AF0A5C475
:1028E0002AF5500E05012B6F1E0E2C6F2D6B00016B
:1028F0003AEC0AF095EC0AF0020E0501286FFA0E88
:10290000296F00018FEC09F00501282FF8D700018D
:10291000CEEC0CF0020E0501286FFA0E296F0001B3
:102920008FEC09F00501282FF8D7010E04015F6F25
:10293000000127EC06F004016BA707D00001CEECE4
:102940000CF095EC0AF004016B977753D8A4CAD227
:10295000050EEA6E080EE96EF2CF28F5F29E000E23
:1029600000013FEC03F00A000900F550EE6E00098B
:10297000FBE1050128BFF28E050E296F080E286FB6
:102980001E0E2A6F2B6B010E2C6F020E2D6F000195
:1029900012EC09F0928A80AA6BD004016AB167D068
:1029A0006A811E0E0501296F00018FEC09F0010EEE
:1029B00004017B6F7B5104085AE37B51785D3BE156
:1029C000010E7B5D036AA20FE96E040E0320EA6E1E
:1029D000EF2A010E7B5D036AA20FE96E040E03204D
:1029E000EA6EEFBE0CD0EF50090809E2010E7B5DE4
:1029F000036AA20FE96E040E0320EA6EEF6A010E6D
:102A00007B5D036AA20FE96E040E0320EA6EEFCF2E
:102A100028F57B51140DF3CF29F5050128C52AF5BA
:102A200029C52BF51E0E2C6F010E2D6F00013AECFF
:102A30000AF01AD00401010E7B5D036AA20FE96E51
:102A4000040E0320EA6EEFCF28F57B51140DF3CF6F
:102A500029F5050128C52AF529C52BF51E0E2C6F71
:102A60002D6B00013AEC0AF004017B2BA3D702D0B6
:102A700004016A91968084A069D06AB566D06A859F
:102A80001E0E0501296F00018FEC09F0010E0401F3
:102A90007B6F7B51040859E37B51785D3AE1010E6D
:102AA0007B5D036AA20FE96E040E0320EA6EEF0657
:102AB000010E7B5D036AA20FE96E040E0320EA6E2D
:102AC000EFBE01D00AD0010E7B5D036AA20FE96E52
:102AD000040E0320EA6E090EEF6E010E7B5D036AA1
:102AE000A20FE96E040E0320EA6EEFCF28F57B51AA
:102AF000140DF3CF29F5050128C52AF529C52BF5B5
:102B00001E0E2C6F010E2D6F00013AEC0AF01AD048
:102B10000401010E7B5D036AA20FE96E040E03201F
:102B2000EA6EEFCF28F57B51140DF3CF29F505019F
:102B300028C52AF529C52BF51E0E2C6F2D6B00011B
:102B40003AEC0AF004017B2BA4D701D06A95968257
:102B500084A24CD06AB349D06A831E0E0501296F46
:102B600000018FEC09F00401782B010E7B6F7B5183
:102B700004083BE37B51785D1CE1010E7B5D036A39
:102B8000A20FE96E040E0320EA6EEFCF28F57B5109
:102B9000140DF3CF29F5050128C52AF529C52BF514
:102BA0001E0E2C6F010E2D6F00013AEC0AF01AD0A8
:102BB0000401010E7B5D036AA20FE96E040E03207F
:102BC000EA6EEFCF28F57B51140DF3CF29F50501FF
:102BD00028C52AF529C52BF51E0E2C6F2D6B00017B
:102BE0003AEC0AF004017B2BC2D701D06A937851EA
:102BF0000408D8B077D10501296B0001FAEC05F083
:102C0000040E0401786FA251030873E1A351080870
:102C100070E1A45109086DE1A55102086AE10A0EAC
:102C2000A96EA86AA69CA69EA684F250006EF29E8B
:102C30000F01550EA76EAA0EA76EA682A6B2FED7EA
:102C4000A6940050F212140E0501296F00018FECBA
:102C500009F00B0EA96EA86AA69CA69EA684F25047
:102C6000006EF29E0F01550EA76EAA0EA76EA682E9
:102C7000A6B2FED7A6940050F212140E0501296FD9
:102C800000018FEC09F00C0EA96EA86AA69CA69E06
:102C9000A684F250006EF29E0F01550EA76EAA0E8A
:102CA000A76EA682A6B2FED7A6940050F212140E0A
:102CB0000501296F00018FEC09F00D0EA96EA86ABD
:102CC000A69CA69EA684F250006EF29E0F01550EA1
:102CD000A76EAA0EA76EA682A6B2FED7A694005033
:102CE000F212140E0501296F00018FEC09F0FF00AC
:102CF0000401A651A25D68E1A751A35D65E1A85159
:102D0000A45D62E1A951A55D5FE10501296B0001A8
:102D1000FAEC05F0050EEA6E080EE96EF2CF28F522
:102D2000F29E000E3FEC03F00A000900F550EE6E33
:102D30000009FBE1050128BFF28E050E296F080E80
:102D4000286F1E0E2A6F2B6B2C6B020E2D6F00014D
:102D500012EC09F0050EEA6E080EE96EF2CF28F5C6
:102D6000F29E000E4AEC03F00A000900F550EE6EE8
:102D70000009FBE1050128BFF28E050E296F080E40
:102D8000286F0F0E2A6F1E0E2B6F2C6B020E2D6FED
:102D9000000112EC09F0010E0401776F000127EC2D
:102DA00006F0040E0501286FFA0E296F00018FEC62
:102DB00009F00501282FF8D7296B0001FAEC05F07E
:102DC000010E0401786F8ED00501296B0001FAEC29
:102DD00005F0050EEA6E080EE96EF2CF28F5F29EB8
:102DE000000E3FEC03F00A000900F550EE6E0009FA
:102DF000FBE1050128BFF28E050E296F080E286F32
:102E00001E0E2A6F2B6B2C6B020E2D6F000112EC25
:102E100009F0050EEA6E080EE96EF2CF28F5F29E73
:102E2000000E57EC03F00A000900F550EE6E0009A1
:102E3000FBE1050128BFF28E050E296F080E286FF1
:102E40002A6B1E0E2B6F2C6B020E2D6F000112ECE5
:102E500009F00401776B000127EC06F0040E050170
:102E6000286FFA0E296F00018FEC09F00501282F59
:102E7000F8D7296B0001FAEC05F0010E0401786F18
:102E8000A26BA36BA46BA56BA2C42AF5140E05015B
:102E90002B6F1E0E2C6F010E2D6F00013AEC0AF005
:102EA000A3C42AF5280E05012B6F1E0E2C6F2D6B67
:102EB00000013AEC0AF0A4C42AF53C0E05012B6F80
:102EC0001E0E2C6F2D6B00013AEC0AF0A5C42AF5FA
:102ED000500E05012B6F1E0E2C6F2D6B00013AEC6E
:102EE0000AF00401772D1AD26AA9DBD17E510608B7
:102EF00002E2010E7E6F7E5302E1060E7E6F050E2A
:102F0000EA6E080EE96EF2CF28F5F29E000E00017F
:102F100065EC03F00A000900F550EE6E0009FBE1D4
:102F2000050128BFF28E050E296F080E286F1E0EB0
:102F30002A6F2B6B010E2C6F2D6F000112EC09F024
:102F400004017E2D23D0050EEA6E080EE96EF2CF45
:102F500028F5F29E000E000175EC03F00A0009004E
:102F6000F550EE6E0009FBE1050128BFF28E050E5B
:102F7000296F080E286F2A6B0A0E2B6F010E2C6F1B
:102F80002D6F000112EC09F022D00401050EEA6E4B
:102F9000080EE96EF2CF28F5F29E000E000175ECE6
:102FA00003F00A000900F550EE6E0009FBE105018F
:102FB00028BFF28E050E296F080E286F2A6B0A0EA5
:102FC0002B6F2C6B010E2D6F000112EC09F0040128
:102FD0007E51020823E1050EEA6E080EE96EF2CF7B
:102FE00028F5F29E000E000181EC03F00A000900B2
:102FF000F550EE6E0009FBE1050128BFF28E050ECB
:10300000296F080E286F2A6B130E2B6F010E2C6F81
:103010002D6F000112EC09F022D00401050EEA6EBA
:10302000080EE96EF2CF28F5F29E000E000181EC49
:1030300003F00A000900F550EE6E0009FBE10501FE
:1030400028BFF28E050E296F080E286F2A6B130E0B
:103050002B6F2C6B010E2D6F000112EC09F0040197
:103060007E51030823E1050EEA6E080EE96EF2CFE9
:1030700028F5F29E000E00018EEC03F00A00090014
:10308000F550EE6E0009FBE1050128BFF28E050E3A
:10309000296F080E286F2A6B1C0E2B6F010E2C6FE8
:1030A0002D6F000112EC09F022D00401050EEA6E2A
:1030B000080EE96EF2CF28F5F29E000E00018EECAC
:1030C00003F00A000900F550EE6E0009FBE105016E
:1030D00028BFF28E050E296F080E286F2A6B1C0E72
:1030E0002B6F2C6B010E2D6F000112EC09F0040107
:1030F0007E51040823E1050EEA6E080EE96EF2CF58
:1031000028F5F29E000E0001A0EC03F00A00090071
:10311000F550EE6E0009FBE1050128BFF28E050EA9
:10312000296F080E286F2A6B250E2B6F010E2C6F4E
:103130002D6F000112EC09F022D00401050EEA6E99
:10314000080EE96EF2CF28F5F29E000E0001A0EC09
:1031500003F00A000900F550EE6E0009FBE10501DD
:1031600028BFF28E050E296F080E286F2A6B250ED8
:103170002B6F2C6B010E2D6F000112EC09F0040176
:103180007E51050823E1050EEA6E080EE96EF2CFC6
:1031900028F5F29E000E0001B3EC03F00A000900CE
:1031A000F550EE6E0009FBE1050128BFF28E050E19
:1031B000296F080E286F2A6B2E0E2B6F010E2C6FB5
:1031C0002D6F000112EC09F022D00401050EEA6E09
:1031D000080EE96EF2CF28F5F29E000E0001B3EC66
:1031E00003F00A000900F550EE6E0009FBE105014D
:1031F00028BFF28E050E296F080E286F2A6B2E0E3F
:103200002B6F2C6B010E2D6F000112EC09F00401E5
:103210007E51060823E1050EEA6E080EE96EF2CF34
:1032200028F5F29E000E0001C2EC03F00A0009002E
:10323000F550EE6E0009FBE1050128BFF28E050E88
:10324000296F080E286F2A6B370E2B6F010E2C6F1B
:103250002D6F000112EC09F022D00401050EEA6E78
:10326000080EE96EF2CF28F5F29E000E0001C2ECC6
:1032700003F00A000900F550EE6E0009FBE10501BC
:1032800028BFF28E050E296F080E286F2A6B370EA5
:103290002B6F2C6B010E2D6F000112EC09F0040155
:1032A0006A99928A80AA0DD06AB10AD06A811E0EEC
:1032B0000501296F00018FEC09F004017E076A897E
:1032C00001D06A91968084A00DD06AB50AD06A8533
:1032D0001E0E0501296F00018FEC09F004017E2B01
:1032E0006A8901D06A95968284A217D06AB314D0F5
:1032F0006A831E0E0501296F00018FEC09F0030E91
:1033000004017E25776F010E7E6F0501296B000198
:10331000FAEC05F004016A8901D06A937751040838
:10332000D8A495D16AA9AAD0020E0501286F000180
:1033300043EC0DF0050EEA6E080EE96EF2CF28F5AB
:10334000F29E000E75EC03F00A000900F550EE6ED7
:103350000009FBE1050128BFF28E050E296F080E5A
:10336000286F140E2A6F2B6B010E2C6F020E2D6F1F
:10337000000112EC09F0050EEA6E080EE96EF2CFBC
:1033800028F5F29E000E75EC03F00A000900F550D6
:10339000EE6E0009FBE1050128BFF28E050E296FD4
:1033A000080E286F070E2A6F370E2B6F2C6B010E3D
:1033B0002D6F000112EC09F0050EEA6E080EE96EA1
:1033C000F2CF28F5F29E000ED1EC03F00A000900BE
:1033D000F550EE6E0009FBE1050128BFF28E050EE7
:1033E000296F080E286F2A6B1A0E2B6F2C6B010E9B
:1033F0002D6F000112EC09F0050EEA6E080EE96E61
:10340000F2CF28F5F29E000EE2EC03F00A0009006C
:10341000F550EE6E0009FBE1050128BFF28E050EA6
:10342000296F080E286F2A6B240E2B6F2C6B010E50
:103430002D6F000112EC09F0050EEA6E080EE96E20
:10344000F2CF28F5F29E000EF5EC03F00A00090019
:10345000F550EE6E0009FBE1050128BFF28E050E66
:10346000296F080E286F2A6B2E0E2B6F2C6B010E06
:103470002D6F000112EC09F004016A99968484A46E
:1034800010D01E0E0501296F00018FEC09F0010E0E
:103490000401776F0501296B0001FAEC05F00401C6
:1034A0006A89968284A2D3D0966B976B050E986F2B
:1034B000020E996F6A899E6B9F6B050EA06F010EBD
:1034C000A16F896B886B5A0E7C6F140E776F776FC4
:1034D0000F0E05013A6F120E3B6F1E0E3C6F350E3C
:1034E0003D6F3E6B010E3F6F0001B1EC08F004012F
:1034F000806BC00EF2120501296B0001FAEC05F099
:10350000050EEA6E080EE96EF2CF28F5F29E000E67
:1035100005EC04F00A000900F550EE6E0009FBE12D
:10352000050128BFF28E050E296F080E286F2A6B41
:10353000370E2B6F020E2C6F010E2D6F000112EC57
:1035400009F00F0E05013A6F120E3B6F1E0E3C6F15
:10355000350E3D6F3E6B010E3F6F0001B1EC08F080
:10356000050E0501286F000143EC0DF0050EEA6E13
:10357000080EE96EF2CF28F5F29E000E13EC04F06F
:103580000A000900F550EE6E0009FBE1050128BFB5
:10359000F28E050E296F080E286F2A6B2B6B020E18
:1035A0002C6F010E2D6F000112EC09F0050EEA6E72
:1035B000080EE96EF2CF28F5F29E000E1FEC04F023
:1035C0000A000900F550EE6E0009FBE1050128BF75
:1035D000F28E050E296F080E286F2A6B2B6F020ED4
:1035E0002C6F010E2D6F000112EC09F05F0E05012A
:1035F000286F280E296F020E2A6F2B6B010E2C6F7D
:103600000001C1EC0DF0050EEA6E080EE96EF2CF76
:1036100028F5F29E000E2BEC04F00A000900F5508C
:10362000EE6E0009FBE1050128BFF28E050E296F41
:10363000080E286F660E2A6F280E2B6F020E2C6F55
:103640002D6F000112EC09F0C1EC0FF0040177516D
:103650000508D8A4E2D06AA9ABD0040E0501286FF2
:10366000000143EC0DF0050EEA6E080EE96EF2CF94
:1036700028F5F29E000E81EC03F00A000900F550D7
:10368000EE6E0009FBE1050128BFF28E050E296FE1
:10369000080E286F140E2A6F2B6B010E2C6F020E72
:1036A0002D6F000112EC09F0050EEA6E080EE96EAE
:1036B000F2CF28F5F29E000E81EC03F00A0009001B
:1036C000F550EE6E0009FBE1050128BFF28E050EF4
:1036D000296F080E286F070E2A6F370E2B6F020E08
:1036E0002C6F010E2D6F000112EC09F0050EEA6E31
:1036F000080EE96EF2CF28F5F29E000ED1EC03F031
:103700000A000900F550EE6E0009FBE1050128BF33
:10371000F28E050E296F080E286F2A6B1A0E2B6F7A
:103720002C6B010E2D6F000112EC09F0050EEA6EF4
:10373000080EE96EF2CF28F5F29E000E34EC04F08C
:103740000A000900F550EE6E0009FBE1050128BFF3
:10375000F28E050E296F080E286F2A6B240E2B6F30
:103760002C6B010E2D6F000112EC09F0050EEA6EB4
:10377000080EE96EF2CF28F5F29E000E47EC04F039
:103780000A000900F550EE6E0009FBE1050128BFB3
:10379000F28E050E296F080E286F2A6B2E0E2B6FE6
:1037A0002C6B010E2D6F000112EC09F004016A99D7
:1037B000968484A410D01E0E0501296F00018FECA1
:1037C00009F0010E0401776F0501296B0001FAEC85
:1037D00005F004016A89968284A21FD0966B976BCC
:1037E000986B020E996F6A8B6A899E6B9F6BA06BB8
:1037F000A16B790E7C6F0E0E776F040E0501286F9A
:10380000AF0E296F00018FEC09F00501282FF8D7C2
:10381000296B0001FAEC05F0040177510608D8A4E1
:10382000E2D06AA9AAD0030E0501286F000143EC7B
:103830000DF0050EEA6E080EE96EF2CF28F5F29E45
:10384000000E57EC04F00A000900F550EE6E000976
:10385000FBE1050128BFF28E050E296F080E286FC7
:103860002A6B2B6B010E2C6F020E2D6F000112ECD8
:1038700009F0050EEA6E080EE96EF2CF28F5F29E09
:10388000000E8EEC03F00A000900F550EE6E000900
:10389000FBE1050128BFF28E050E296F080E286F87
:1038A000070E2A6F370E2B6F020E2C6F010E2D6F35
:1038B000000112EC09F0050EEA6E080EE96EF2CF77
:1038C00028F5F29E000ED1EC03F00A000900F55035
:1038D000EE6E0009FBE1050128BFF28E050E296F8F
:1038E000080E286F2A6B1A0E2B6F2C6B010E2D6F92
:1038F000000112EC09F0050EEA6E080EE96EF2CF37
:1039000028F5F29E000E65EC04F00A000900F5505F
:10391000EE6E0009FBE1050128BFF28E050E296F4E
:10392000080E286F2A6B240E2B6F2C6B010E2D6F47
:10393000000112EC09F0050EEA6E080EE96EF2CFF6
:1039400028F5F29E000E47EC04F00A000900F5503D
:10395000EE6E0009FBE1050128BFF28E050E296F0E
:10396000080E286F2A6B2E0E2B6F2C6B010E2D6FFD
:10397000000112EC09F004016A99968484A410D025
:103980001E0E0501296F00018FEC09F0010E0401E4
:10399000776F0501296B0001FAEC05F004016A89D3
:1039A000968284A220D0966B976B050E986F010EBD
:1039B000996F6A8B6A899E6B9F6BA06BA16B790E66
:1039C0007C6F0E0E776F040E0501286FAF0E296F06
:1039D00000018FEC09F00501282FF8D7296B0001B1
:1039E000FAEC05F0040177510708D8A49ED16AA922
:1039F000A9D0010E0501286F000143EC0DF0050E62
:103A0000EA6E080EE96EF2CF28F5F29E000E78EC11
:103A100004F00A000900F550EE6E0009FBE1050113
:103A200028BFF28E050E296F080E286F2A6B2B6BAC
:103A3000010E2C6F020E2D6F000112EC09F0050E25
:103A4000EA6E080EE96EF2CF28F5F29E000EA0ECA9
:103A500003F00A000900F550EE6E0009FBE10501D4
:103A600028BFF28E050E296F080E286F2A6B370EBD
:103A70002B6F020E2C6F010E2D6F000112EC09F05E
:103A8000050EEA6E080EE96EF2CF28F5F29E000EE2
:103A9000D1EC03F00A000900F550EE6E0009FBE1DD
:103AA000050128BFF28E050E296F080E286F2A6BBC
:103AB0001A0E2B6F2C6B010E2D6F000112EC09F00A
:103AC000050EEA6E080EE96EF2CF28F5F29E000EA2
:103AD000E2EC03F00A000900F550EE6E0009FBE18C
:103AE000050128BFF28E050E296F080E286F2A6B7C
:103AF000240E2B6F2C6B010E2D6F000112EC09F0C0
:103B0000050EEA6E080EE96EF2CF28F5F29E000E61
:103B100085EC04F00A000900F550EE6E0009FBE1A7
:103B2000050128BFF28E050E296F080E286F2A6B3B
:103B30002E0E2B6F2C6B010E2D6F000112EC09F075
:103B400004016A99968484A410D01E0E0501296F81
:103B500000018FEC09F0010E0401776F0501296B5C
:103B60000001FAEC05F004016A89968284A2DDD096
:103B7000966B976B050E986F020E996F6A899E6B14
:103B80009F6BA06B010EA16F790E7C6F140E776F87
:103B9000040E0501286FAF0E296F00018FEC09F0AC
:103BA0000501282FF8D7140E0401776F0F0E0501B9
:103BB0003A6F120E3B6F1E0E3C6F350E3D6F3E6B23
:103BC000010E3F6F0001B1EC08F00401806BC00EE4
:103BD000F2120501296B0001FAEC05F0050EEA6E00
:103BE000080EE96EF2CF28F5F29E000E05EC04F007
:103BF0000A000900F550EE6E0009FBE1050128BF3F
:103C0000F28E050E296F080E286F2A6B370E2B6F68
:103C1000020E2C6F010E2D6F000112EC09F00F0E39
:103C200005013A6F120E3B6F1E0E3C6F350E3D6F55
:103C30003E6B010E3F6F0001B1EC08F0050E05016F
:103C4000286F000143EC0DF0050EEA6E080EE96ED8
:103C5000F2CF28F5F29E000E13EC04F00A000900E2
:103C6000F550EE6E0009FBE1050128BFF28E050E4E
:103C7000296F080E286F2A6B2B6B020E2C6F010E1A
:103C80002D6F000112EC09F0050EEA6E080EE96EC8
:103C9000F2CF28F5F29E000E1FEC04F00A00090096
:103CA000F550EE6E0009FBE1050128BFF28E050E0E
:103CB000296F080E286F2A6B2B6F020E2C6F010ED6
:103CC0002D6F000112EC09F05F0E0501286F280E20
:103CD000296F020E2A6F2B6B010E2C6F0001C1ECB5
:103CE0000DF0050EEA6E080EE96EF2CF28F5F29E91
:103CF000000E2BEC04F00A000900F550EE6E0009EE
:103D0000FBE1050128BFF28E050E296F080E286F12
:103D1000660E2A6F280E2B6F020E2C6F2D6F00017E
:103D200012EC09F0C1EC0FF0040177510808D8A497
:103D3000EED16AA992D17E51050802E2010E7E6F92
:103D40007E5302E1050E7E6F050EEA6E080EE96EE7
:103D5000F2CF28F5F29E000E000195EC04F00A0067
:103D60000900F550EE6E0009FBE1050128BFF28E57
:103D7000050E296F080E286F2A6B2B6B010E2C6F16
:103D80002D6F000112EC09F004017E2D23D0050EE9
:103D9000EA6E080EE96EF2CF28F5F29E000E0001E1
:103DA000A8EC04F00A000900F550EE6E0009FBE1F2
:103DB000050128BFF28E050E296F080E286F2A6BA9
:103DC0000A0E2B6F010E2C6F2D6F000112EC09F003
:103DD00022D00401050EEA6E080EE96EF2CF28F536
:103DE000F29E000E0001A8EC04F00A000900F55054
:103DF000EE6E0009FBE1050128BFF28E050E296F6A
:103E0000080E286F2A6B0A0E2B6F2C6B010E2D6F7C
:103E1000000112EC09F004017E51020823E1050EB5
:103E2000EA6E080EE96EF2CF28F5F29E000E000150
:103E3000B9EC04F00A000900F550EE6E0009FBE150
:103E4000050128BFF28E050E296F080E286F2A6B18
:103E5000140E2B6F010E2C6F2D6F000112EC09F068
:103E600022D00401050EEA6E080EE96EF2CF28F5A5
:103E7000F29E000E0001B9EC04F00A000900F550B2
:103E8000EE6E0009FBE1050128BFF28E050E296FD9
:103E9000080E286F2A6B140E2B6F2C6B010E2D6FE2
:103EA000000112EC09F004017E51030823E1050E24
:103EB000EA6E080EE96EF2CF28F5F29E000E0001C0
:103EC000C6EC04F00A000900F550EE6E0009FBE1B3
:103ED000050128BFF28E050E296F080E286F2A6B88
:103EE0001E0E2B6F010E2C6F2D6F000112EC09F0CE
:103EF00022D00401050EEA6E080EE96EF2CF28F515
:103F0000F29E000E0001C6EC04F00A000900F55014
:103F1000EE6E0009FBE1050128BFF28E050E296F48
:103F2000080E286F2A6B1E0E2B6F2C6B010E2D6F47
:103F3000000112EC09F004017E51040823E1050E92
:103F4000EA6E080EE96EF2CF28F5F29E000E00012F
:103F5000D4EC04F00A000900F550EE6E0009FBE114
:103F6000050128BFF28E050E296F080E286F2A6BF7
:103F7000280E2B6F010E2C6F2D6F000112EC09F033
:103F800022D00401050EEA6E080EE96EF2CF28F584
:103F9000F29E000E0001D4EC04F00A000900F55076
:103FA000EE6E0009FBE1050128BFF28E050E296FB8
:103FB000080E286F2A6B280E2B6F2C6B010E2D6FAD
:103FC000000112EC09F004017E51050823E1050E01
:103FD000EA6E080EE96EF2CF28F5F29E000E00019F
:103FE000E5EC04F00A000900F550EE6E0009FBE173
:103FF000050128BFF28E050E296F080E286F2A6B67
:10400000320E2B6F010E2C6F2D6F000112EC09F098
:1040100022D00401050EEA6E080EE96EF2CF28F5F3
:10402000F29E000E0001E5EC04F00A000900F550D4
:10403000EE6E0009FBE1050128BFF28E050E296F27
:10404000080E286F2A6B320E2B6F2C6B010E2D6F12
:10405000000112EC09F004016A99928A80AA0DD03D
:104060006AB10AD06A811E0E0501296F00018FEC2A
:1040700009F004017E076A8901D06A91968084A0C4
:104080000DD06AB50AD06A851E0E0501296F0001A0
:104090008FEC09F004017E2B6A8901D06A95968223
:1040A00084A21CD06AB319D06A83020E0501286F5E
:1040B000960E296F00018FEC09F00501282FF8D723
:1040C0000A0E04017E25776F010E7E6F0501296BB4
:1040D0000001FAEC05F004016A8901D06A93968424
:1040E00084A415D0040E0501286FAF0E296F0001BE
:1040F0008FEC09F00501282FF8D7010E0401776F26
:104100000501296B0001FAEC05F004016A89775179
:104110000908D8A45AD2050EEA6E080EE96EF2CF4D
:1041200028F5F29E000E00013FEC03F00A000900A2
:10413000F550EE6E0009FBE1050128BFF28E050E79
:10414000296F080E286F1E0E2A6F2B6B010E2C6F25
:10415000020E2D6F000112EC09F00401782D2FD012
:10416000A2C42AF5140E05012B6F1E0E2C6F010E32
:104170002D6F00013AEC0AF0A3C42AF5280E0501C0
:104180002B6F1E0E2C6F2D6B00013AEC0AF0A4C4AD
:104190002AF53C0E05012B6F1E0E2C6F2D6B0001B6
:1041A0003AEC0AF0A5C42AF5500E05012B6F1E0E3D
:1041B0002C6F2D6B00013AEC0AF095D00401785178
:1041C00002082FE1A2C42AF5140E05012B6F1E0E62
:1041D0002C6F2D6B00013AEC0AF0A3C42AF5280ECF
:1041E00005012B6F1E0E2C6F010E2D6F00013AEC96
:1041F0000AF0A4C42AF53C0E05012B6F1E0E2C6F8D
:104200002D6B00013AEC0AF0A5C42AF5500E050109
:104210002B6F1E0E2C6F2D6B00013AEC0AF063D051
:104220000401785103082FE1A2C42AF5140E0501F8
:104230002B6F1E0E2C6F2D6B00013AEC0AF0A3C4FD
:104240002AF5280E05012B6F1E0E2C6F2D6B000119
:104250003AEC0AF0A4C42AF53C0E05012B6F1E0EA1
:104260002C6F010E2D6F00013AEC0AF0A5C42AF55F
:10427000500E05012B6F1E0E2C6F2D6B00013AECBA
:104280000AF031D00401785104082EE1A2C42AF5C5
:10429000140E05012B6F1E0E2C6F2D6B00013AECD6
:1042A0000AF0A3C42AF5280E05012B6F1E0E2C6FF1
:1042B0002D6B00013AEC0AF0A4C42AF53C0E05016E
:1042C0002B6F1E0E2C6F2D6B00013AEC0AF0A5C46B
:1042D0002AF5500E05012B6F1E0E2C6F010E2D6F4F
:1042E00000013AEC0AF00401928A80AA34D06AB143
:1042F00031D06A811E0E0501296F00018FEC09F093
:10430000010E04017B6F7B51040824E37B51785D2F
:104310001FE1010E7B5D036AA20FE96E040E03200C
:10432000EA6EEF2A010E7B5D036AA20FE96E040EAE
:104330000320EA6EEFBE0CD0EF50090809E2010E2F
:104340007B5D036AA20FE96E040E0320EA6EEF6A3A
:104350007B2BD9D701D06A91968084A033D06AB5DF
:1043600030D06A851E0E0501296F00018FEC09F01F
:10437000010E04017B6F7B51040823E37B51785DC0
:104380001EE1010E7B5D036AA20FE96E040E03209D
:10439000EA6EEF06010E7B5D036AA20FE96E040E62
:1043A0000320EA6EEFBE01D00AD0010E7B5D036AE6
:1043B000A20FE96E040E0320EA6E090EEF6E7B2B4E
:1043C000DAD701D06A95968284A211D06AB30ED052
:1043D0006A83020E0501286F960E296F00018FEC8B
:1043E00009F00501282FF8D70401782B01D06A9332
:1043F000968484A414D0040E0501286FAF0E296F93
:1044000000018FEC09F00501282FF8D7010E0401F7
:10441000776F0501296B0001FAEC05F00401785172
:104420000408D8B0D2D00501296B0001FAEC05F0E0
:104430000401A651A25D68E1A751A35D65E1A85101
:10444000A45D62E1A951A55D5FE10501296B000151
:10445000FAEC05F0050EEA6E080EE96EF2CF28F5CB
:10446000F29E000E3FEC03F00A000900F550EE6EDC
:104470000009FBE1050128BFF28E050E296F080E29
:10448000286F1E0E2A6F2B6B2C6B020E2D6F0001F6
:1044900012EC09F0050EEA6E080EE96EF2CF28F56F
:1044A000F29E000E4AEC03F00A000900F550EE6E91
:1044B0000009FBE1050128BFF28E050E296F080EE9
:1044C000286F0F0E2A6F1E0E2B6F2C6B020E2D6F96
:1044D000000112EC09F05B0E0401776F000127EC7C
:1044E00006F0040E0501286FFA0E296F00018FEC0B
:1044F00009F00501282FF8D7296B0001FAEC05F027
:10450000010E0401786F61D00501296B0001FAECFE
:1045100005F0050EEA6E080EE96EF2CF28F5F29E60
:10452000000E3FEC03F00A000900F550EE6E0009A2
:10453000FBE1050128BFF28E050E296F080E286FDA
:104540001E0E2A6F2B6B2C6B020E2D6F000112ECCE
:1045500009F0050EEA6E080EE96EF2CF28F5F29E1C
:10456000000E57EC03F00A000900F550EE6E00094A
:10457000FBE1050128BFF28E050E296F080E286F9A
:104580002A6B1E0E2B6F2C6B020E2D6F000112EC8E
:1045900009F0010E0401776F000127EC06F0040E0C
:1045A0000501286FFA0E296F00018FEC09F0050153
:1045B000282FF8D7296B0001FAEC05F0010E040151
:1045C000786FA26BA36BA46BA56B77515B08D8A423
:1045D000ECD1050EEA6E080EE96EF2CF28F5F29ED8
:1045E000000E0001F2EC04F00A000900F550EE6E36
:1045F0000009FBE1050128BFF28E050E296F080EA8
:10460000286F2A6B2B6B010E2C6F020E2D6F000191
:1046100012EC09F00401782D2FD0A6C42AF5140E4F
:1046200005012B6F1E0E2C6F010E2D6F00013AEC51
:104630000AF0A7C42AF5280E05012B6F1E0E2C6F59
:104640002D6B00013AEC0AF0A8C42AF53C0E0501D6
:104650002B6F1E0E2C6F2D6B00013AEC0AF0A9C4D3
:104660002AF5500E05012B6F1E0E2C6F2D6B0001CD
:104670003AEC0AF095D00401785102082FE1A6C463
:104680002AF5140E05012B6F1E0E2C6F2D6B0001E9
:104690003AEC0AF0A7C42AF5280E05012B6F1E0E6E
:1046A0002C6F010E2D6F00013AEC0AF0A8C42AF518
:1046B0003C0E05012B6F1E0E2C6F2D6B00013AEC8A
:1046C0000AF0A9C42AF5500E05012B6F1E0E2C6F9F
:1046D0002D6B00013AEC0AF063D004017851030815
:1046E0002FE1A6C42AF5140E05012B6F1E0E2C6FA8
:1046F0002D6B00013AEC0AF0A7C42AF5280E05013B
:104700002B6F1E0E2C6F2D6B00013AEC0AF0A8C423
:104710002AF53C0E05012B6F1E0E2C6F010E2D6F1E
:1047200000013AEC0AF0A9C42AF5500E05012B6FDE
:104730001E0E2C6F2D6B00013AEC0AF031D00401F3
:10474000785104082EE1A6C42AF5140E05012B6F3A
:104750001E0E2C6F2D6B00013AEC0AF0A7C42AF54F
:10476000280E05012B6F1E0E2C6F2D6B00013AECED
:104770000AF0A8C42AF53C0E05012B6F1E0E2C6F03
:104780002D6B00013AEC0AF0A9C42AF5500E050180
:104790002B6F1E0E2C6F010E2D6F00013AEC0AF0EC
:1047A0000401928A80AA34D06AB131D06A811E0E87
:1047B0000501296F00018FEC09F0010E04017B6FE8
:1047C0007B51040824E37B51785D1FE1010E7B5D82
:1047D000036AA60FE96E040E0320EA6EEF2A010EAB
:1047E0007B5D036AA60FE96E040E0320EA6EEFBE3E
:1047F0000CD0EF50090809E2010E7B5D036AA60F99
:10480000E96E040E0320EA6EEF6A7B2BD9D701D044
:104810006A91968084A033D06AB530D06A851E0E26
:104820000501296F00018FEC09F0010E04017B6F77
:104830007B51040823E37B51785D1EE1010E7B5D13
:10484000036AA60FE96E040E0320EA6EEF06010E5E
:104850007B5D036AA60FE96E040E0320EA6EEFBECD
:1048600001D00AD0010E7B5D036AA60FE96E040E2B
:104870000320EA6E090EEF6E7B2BDAD701D06A9522
:10488000968284A211D06AB30ED06A83020E05010B
:10489000286F960E296F00018FEC09F00501282F73
:1048A000F8D70401782B01D06A93968484A414D09D
:1048B000040E0501286FAF0E296F00018FEC09F07F
:1048C0000501282FF8D7010E0401776F0501296B28
:1048D0000001FAEC05F004017851040866E2010ECB
:1048E0007E6F786F0A0EA96EA6C4A8FFA69CA69E2E
:1048F000A684F250006EF29E0F01550EA76EAA0E0E
:10490000A76EA682A6B2FED7A6940050F2120B0E96
:10491000A96EA7C4A8FFA69CA69EA684F250006E0E
:10492000F29E550EA76EAA0EA76EA682A6B2FED75D
:10493000A6940050F2120C0EA96EA8C4A8FFA69C63
:10494000A69EA684F250006EF29E550EA76EAA0E89
:10495000A76EA682A6B2FED7A6940050F2120D0E44
:10496000A96EA9C4A8FFA69CA69EA684F250006EBC
:10497000F29E550EA76EAA0EA76EA682A6B2FED70D
:10498000A6940050F212040E0501286FFA0E296F4A
:1049900000018FEC09F00501282FF8D7296B0001E1
:1049A000FAEC05F0010E0401776F77510B08D8A4DB
:1049B00080D16AA9C5D0785302E1040E786F050E44
:1049C000EA6E080EE96EF2CF28F5F29E000E0001A5
:1049D00000EC05F00A000900F550EE6E0009FBE15D
:1049E000050128BFF28E050E296F080E286F2A6B6D
:1049F0002B6B010E2C6F020E2D6F000112EC09F0D3
:104A00000401785104080FE199C429F5140E050139
:104A10002A6F280E2B6F010E2C6F020E2D6F0001D6
:104A200019EC0FF00DD099C429F5140E05012A6F69
:104A3000280E2B6F2C6B020E2D6F000119EC0FF05E
:104A40000401785103080EE198C429F5280E0501E8
:104A50002A6F2B6F010E2C6F020E2D6F000119ECC7
:104A60000FF00CD098C429F5280E05012A6F2B6F82
:104A70002C6B020E2D6F000119EC0FF00401785120
:104A800002080FE197C429F5460E05012A6F280E8A
:104A90002B6F010E2C6F020E2D6F000119EC0FF021
:104AA0000DD097C429F5460E05012A6F280E2B6FED
:104AB0002C6B020E2D6F000119EC0FF00401782D04
:104AC0000FD096C429F55A0E05012A6F280E2B6FB8
:104AD000010E2C6F020E2D6F000119EC0FF00DD09E
:104AE00096C429F55A0E05012A6F280E2B6F2C6BE0
:104AF000020E2D6F000119EC0FF0050EEA6E080E84
:104B0000E96EF2CF28F5F29E000E07EC03F00A00E2
:104B10000900F550EE6E0009FBE1050128BFF28E99
:104B2000050E296F080E286F3C0E2A6F2A0E2B6F78
:104B3000020E2C6F2D6F000112EC09F004016A992E
:104B4000928A80AA1ED0010E785D036A960FE96EE4
:104B5000040E0320EA6EEFBE03D0EF50080811E305
:104B60001E0E0501296F00018FEC09F0010E0401F2
:104B7000785D036A960FE96E040E0320EA6EEF2A51
:104B80006A89968084A01ED0010E785D036A960F14
:104B9000E96E040E0320EA6EEFBE14D0EF50000859
:104BA00011E21E0E0501296F00018FEC09F0010EC4
:104BB0000401785D036A960FE96E040E0320EA6E25
:104BC000EF066A89968284A209D01E0E0501296F1C
:104BD00000018FEC09F0040178076A89968484A4A7
:104BE00068D0040E0501286FAF0E296F00018FEC0D
:104BF00009F00501282FF8D7080E0401776F050189
:104C0000296B0001FAEC05F0010E04017E6F6A8940
:104C1000A96A96C4A8FFA69CA69EA684F250006E20
:104C2000F29E0F01550EA76EAA0EA76EA682A6B21F
:104C3000FED7A6940050F212010EA96E97C4A8FFE9
:104C4000A69CA69EA684F250006EF29E550EA76EFC
:104C5000AA0EA76EA682A6B2FED7A6940050F212A4
:104C6000020EA96E98C4A8FFA69CA69EA684F2CFA9
:104C700000F0F29E550EA76EAA0EA76EA682A6B2EF
:104C8000FED7A6940050F212030EA96E99C4A8FF95
:104C9000A69CA69EA684F2CF00F0F29E550EA76EAB
:104CA000AA0EA76EA682A6B2FED7A6940050F21254
:104CB000040177510C08D8A481D16AA9C5D07853D2
:104CC00002E1040E786F050EEA6E080EE96EF2CF6F
:104CD00028F5F29E000E00010DEC05F00A00090017
:104CE000F550EE6E0009FBE1050128BFF28E050EBE
:104CF000296F080E286F2A6B2B6B010E2C6F020E8A
:104D00002D6F000112EC09F00401785104080FE145
:104D1000A1C429F5140E05012A6F280E2B6F010E70
:104D20002C6F020E2D6F000119EC0FF00DD0A1C4F5
:104D300029F5140E05012A6F280E2B6F2C6B020E1D
:104D40002D6F000119EC0FF00401785103080EE1FA
:104D5000A0C429F5280E05012A6F2B6F010E2C6FB8
:104D6000020E2D6F000119EC0FF00CD0A0C429F534
:104D7000280E05012A6F2B6F2C6B020E2D6F000180
:104D800019EC0FF00401785102080FE19FC429F5D6
:104D9000460E05012A6F280E2B6F010E2C6F020E96
:104DA0002D6F000119EC0FF00DD09FC429F5460EB0
:104DB00005012A6F280E2B6F2C6B020E2D6F000140
:104DC00019EC0FF00401782D0FD09EC429F55A0E6E
:104DD00005012A6F280E2B6F010E2C6F020E2D6F0E
:104DE000000119EC0FF00DD09EC429F55A0E0501F3
:104DF0002A6F280E2B6F2C6B020E2D6F000119EC01
:104E00000FF0050EEA6E080EE96EF2CF28F5F29E5D
:104E1000000E07EC03F00A000900F550EE6E0009E1
:104E2000FBE1050128BFF28E050E296F080E286FE1
:104E30003C0E2A6F2A0E2B6F020E2C6F2D6F000175
:104E400012EC09F004016A99928A80AA1ED0010E20
:104E5000785D036A9E0FE96E040E0320EA6EEFBED2
:104E600003D0EF50080811E31E0E0501296F000161
:104E70008FEC09F0010E0401785D036A9E0FE96E64
:104E8000040E0320EA6EEF2A6A89968084A01ED061
:104E9000010E785D036A9E0FE96E040E0320EA6E30
:104EA000EFBE14D0EF50000811E21E0E0501296F6D
:104EB00000018FEC09F0010E0401785D036A9E0F7A
:104EC000E96E040E0320EA6EEF066A89968284A2D8
:104ED00009D01E0E0501296F00018FEC09F00401B5
:104EE00078076A89968484A469D0040E0501286F26
:104EF000AF0E296F00018FEC09F00501282FF8D7BC
:104F0000080E0401776F0501296B0001FAEC05F02A
:104F1000010E04017E6F6A89040EA96E9EC4A8FF6B
:104F2000A69CA69EA684F250006EF29E0F01550E1E
:104F3000A76EAA0EA76EA682A6B2FED7A6940050B0
:104F4000F212050EA96E9FC4A8FFA69CA69EA68479
:104F5000F250006EF29E550EA76EAA0EA76EA682A4
:104F6000A6B2FED7A6940050F212060EA96EA0C4F7
:104F7000A8FFA69CA69EA684F2CF00F0F29E550E36
:104F8000A76EAA0EA76EA682A6B2FED7A694005060
:104F9000F212070EA96EA1C4A8FFA69CA69EA68425
:104FA000F2CF00F0F29E550EA76EAA0EA76EA68253
:104FB000A6B2FED7A6940050F212040177510D0854
:104FC000D8A49BD06AA933D00501296B0001FAEC63
:104FD00005F0050EEA6E080EE96EF2CF28F5F29E96
:104FE000000EC6EC04F00A000900F550EE6E000950
:104FF000FBE1050128BFF28E050E296F080E286F10
:105000002A6B2B6B010E2C6F020E2D6F000112EC20
:1050100009F07CC429F51E0E05012A6F2B6F2C6B3D
:10502000030E2D6F000119EC0FF004016A99928AAA
:1050300080AA19D07C51850816E37C5163080AE3E5
:10504000640E7C6F0501296F00018FEC09F00401EB
:105050006A8909D01E0E0501296F00018FEC09F045
:1050600004017C2B6A89968084A00CD07C5169084D
:1050700009E21E0E0501296F00018FEC09F0040101
:105080007C076A89968284A208D01E0E0501296FCA
:1050900000018FEC09F004016A89968484A42DD064
:1050A000040E0501286FAF0E296F00018FEC09F087
:1050B0000501282FF8D7080E0401776F0501296B29
:1050C0000001FAEC05F0010E04017E6F6A89080EFA
:1050D000A96E7CC4A8FFA69CA69EA684F250006E72
:1050E000F29E0F01550EA76EAA0EA76EA682A6B25B
:1050F000FED7A6940050F212040177510E08D8A4EE
:1051000070D16AA930D0050EEA6E080EE96EF2CFB2
:1051100028F5F29E000E000119EC05F00A000900C6
:10512000F550EE6E0009FBE1050128BFF28E050E79
:10513000296F080E286F2A6B2B6B010E2C6F020E45
:105140002D6F000112EC09F08AC429F5320E050119
:105150002A6F280E2B6F2C6B020E2D6F000119EC9D
:105160000FF004016A99928A80AA10D08B530EE145
:105170008A5105080BE31E0E0501296F00018FEC13
:1051800009F004018A2BD8B48B2B6A89968084A0FD
:1051900011D08B5303E18A5101080CE21E0E050168
:1051A000296F00018FEC09F004018A51D8B48B07F4
:1051B0008A076A896AABDDD0968284A2D9D0090EAB
:1051C000A96E8AC4A8FFA69CA69EA684F250006E73
:1051D000F29E0F01550EA76EAA0EA76EA682A6B26A
:1051E000FED7A6940050F212140E0401776F0F0E32
:1051F00005013A6F120E3B6F1E0E3C6F350E3D6F70
:105200003E6B010E3F6F0001B1EC08F00401806BB2
:10521000C00EF2120501296B0001FAEC05F0050E33
:10522000EA6E080EE96EF2CF28F5F29E000E05EC4C
:1052300004F00A000900F550EE6E0009FBE10501DB
:1052400028BFF28E050E296F080E286F2A6B370EC5
:105250002B6F020E2C6F010E2D6F000112EC09F066
:105260000F0E05013A6F120E3B6F1E0E3C6F350E8E
:105270003D6F3E6B010E3F6F0001B1EC08F0050E73
:105280000501286F000143EC0DF0050EEA6E080ED3
:10529000E96EF2CF28F5F29E000E13EC04F00A003E
:1052A0000900F550EE6E0009FBE1050128BFF28E02
:1052B000050E296F080E286F2A6B2B6B020E2C6FC0
:1052C000010E2D6F000112EC09F0050EEA6E080EBA
:1052D000E96EF2CF28F5F29E000E1FEC04F00A00F2
:1052E0000900F550EE6E0009FBE1050128BFF28EC2
:1052F000050E296F080E286F2A6B2B6F020E2C6F7C
:10530000010E2D6F000112EC09F05F0E0501286FF0
:10531000280E296F020E2A6F2B6B010E2C6F0001D5
:10532000C1EC0DF0050EEA6E080EE96EF2CF28F51D
:10533000F29E000E2BEC04F00A000900F550EE6E10
:105340000009FBE1050128BFF28E050E296F080E4A
:10535000286F660E2A6F280E2B6F020E2C6F2D6F92
:10536000000112EC09F0C1EC0FF095EC0AF0040119
:1053700038D0968484A435D08B5305E18A51050832
:1053800002E36A8B01D06A9B040E0501286FAF0E01
:10539000296F00018FEC09F00501282FF8D7080EBE
:1053A0000401776F0501296B0001FAEC05F0010E8D
:1053B00004017E6F6A89090EA96E8AC4A8FFA69CA3
:1053C000A69EA684F250006EF29E0F01550EA76EA7
:1053D000AA0EA76EA682A6B2FED7A6940050F2121D
:1053E000040177510F08D8A49DD16AA9B2D0050E47
:1053F000EA6E080EE96EF2CF28F5F29E000E00016B
:10540000E5EC04F00A000900F550EE6E0009FBE13E
:10541000050128BFF28E050E296F080E286F2A6B32
:105420002B6B010E2C6F020E2D6F000112EC09F098
:1054300004017E51020845E1050EEA6E080EE96E90
:10544000F2CF28F5F29E000E000126EC05F00A00CE
:105450000900F550EE6E0009FBE1050128BFF28E50
:10546000050E296F080E286F320E2A6F190E2B6F4A
:10547000010E2C6F020E2D6F000112EC09F0050ECB
:10548000EA6E080EE96EF2CF28F5F29E000E30ECBF
:1054900005F00A000900F550EE6E0009FBE1050178
:1054A00028BFF28E050E296F080E286F320E2A6F64
:1054B0002D0E2B6F2C6B020E2D6F000112EC09F0DC
:1054C00004017E2D45D0050EEA6E080EE96EF2CF7E
:1054D00028F5F29E000E000126EC05F00A000900F6
:1054E000F550EE6E0009FBE1050128BFF28E050EB6
:1054F000296F080E286F320E2A6F190E2B6F2C6B36
:10550000020E2D6F000112EC09F0050EEA6E080E76
:10551000E96EF2CF28F5F29E000E30EC05F00A009D
:105520000900F550EE6E0009FBE1050128BFF28E7F
:10553000050E296F080E286F320E2A6F2D0E2B6F65
:10554000010E2C6F020E2D6F000112EC09F0040108
:105550006A99928A80AA05D07E51010801E37E2BC8
:105560006A89968084A005D07E51010801E27E07F9
:105570006A89968284A2BBD07E510208D8A4A0D0AA
:10558000140E776F0F0E05013A6F120E3B6F1E0E51
:105590003C6F350E3D6F3E6B010E3F6F0001B1EC6D
:1055A00008F00401806BC00EF2120501296B0001A6
:1055B000FAEC05F0050EEA6E080EE96EF2CF28F55A
:1055C000F29E000E05EC04F00A000900F550EE6EA4
:1055D0000009FBE1050128BFF28E050E296F080EB8
:1055E000286F2A6B370E2B6F020E2C6F010E2D6F5A
:1055F000000112EC09F00F0E05013A6F120E3B6F1D
:105600001E0E3C6F350E3D6F3E6B010E3F6F00016D
:10561000B1EC08F0050E0501286F000143EC0DF018
:10562000050EEA6E080EE96EF2CF28F5F29E000E26
:1056300013EC04F00A000900F550EE6E0009FBE1DE
:10564000050128BFF28E050E296F080E286F2A6B00
:105650002B6B020E2C6F010E2D6F000112EC09F066
:10566000050EEA6E080EE96EF2CF28F5F29E000EE6
:105670001FEC04F00A000900F550EE6E0009FBE192
:10568000050128BFF28E050E296F080E286F2A6BC0
:105690002B6F020E2C6F010E2D6F000112EC09F022
:1056A000C1EC0FF004018B5305E18A51050802E3B8
:1056B0006A8B01D06A9B000195EC0AF019D00401B5
:1056C000040E0501286FAF0E296F00018FEC09F061
:1056D0000501282FF8D7080E0401776F0501296B03
:1056E0000001FAEC05F0010E04017E6F6A890001E9
:1056F000968484A418D0040E0501286FAF0E296F7C
:1057000000018FEC09F00501282FF8D7080E0401DD
:10571000776F0501296B0001FAEC05F0010E040119
:105720007E6F6A890001040177511408D8A430EF14
:1057300031F06BA594D05E2D92D05F2D90D07F512B
:105740000108D8A08CD06853D8A489D06953D8A4B4
:1057500086D07F533DE16BB93BD005013A6B370EE4
:105760003B6F7F0E3C6F3F0E3D6F010E3E6F3F6BF8
:105770000001B1EC08F0050EEA6E080EE96EF2CFFA
:1057800028F5F29E000E05EC04F00A000900F55021
:10579000EE6E0009FBE1050128BFF28E050E296FB0
:1057A000080E286F2A6B370E2B6F020E2C6F010E1E
:1057B0002D6F000112EC09F004016B896B9B6B9D4E
:1057C0006B9F6C916C936C956C976E6B010E756F03
:1057D0007F2D3ED06BBF3CD005013A6B370E3B6F3F
:1057E0007F0E3C6F3F0E3D6F010E3E6F3F6B000121
:1057F000B1EC08F0050EEA6E080EE96EF2CF28F55E
:10580000F29E000E3AEC05F00A000900F550EE6E2B
:105810000009FBE1050128BFF28E050E296F080E75
:10582000286F2A6B370E2B6F020E2C6F010E2D6F17
:10583000000112EC09F004016B996B9B6B9D6B8F5F
:105840006C916C936C956C976E6B706B010E756FB1
:10585000010E756F000195EC0AF028D20401756BFA
:105860006853D8B47ED0682D3BD06CBB39D00501CD
:105870003A6B370E3B6F7F0E3C6F3F0E3D6F010E54
:105880003E6F3F6B0001B1EC08F0050EEA6E080EAA
:10589000E96EF2CF28F5F29E000E49EC05F00A0001
:1058A0000900F550EE6E0009FBE1050128BFF28EFC
:1058B000050E296F080E286F2A6B370E2B6F020E0C
:1058C0002C6F010E2D6F000112EC09F004016B9991
:1058D0006B9B6B9D6B9F6C916C936C956C976C8BB9
:1058E000685102083DE17F6B806B6CBB39D00501CC
:1058F0003A6B370E3B6F7F0E3C6F3F0E3D6F010ED4
:105900003E6F3F6B0001B1EC08F0050EEA6E080E29
:10591000E96EF2CF28F5F29E000E57EC05F00A0072
:105920000900F550EE6E0009FBE1050128BFF28E7B
:10593000050E296F080E286F2A6B370E2B6F020E8B
:105940002C6F010E2D6F000112EC09F004016B9910
:105950006B9B6B9D6B9F6C916C936C956C976C8B38
:10596000A2D16C9B612D04D06BB502D06B857BD02E
:105970007F533DE16BBB3BD05E2D39D005013A6BC7
:10598000370E3B6F7F0E3C6F3F0E3D6F010E3E6F3B
:105990003F6B0001B1EC08F0050EEA6E080EE96EEF
:1059A000F2CF28F5F29E000E65EC05F00A00090022
:1059B000F550EE6E0009FBE1050128BFF28E050EE1
:1059C000296F080E286F2A6B370E2B6F020E2C6F73
:1059D000010E2D6F000112EC09F004016B996B8B25
:1059E0006B9D6B9F6C916C936C956C97756B692D2F
:1059F0003AD06CBD38D005013A6B370E3B6F7F0E45
:105A00003C6F3F0E3D6F010E3E6F3F6B0001B1ECEE
:105A100008F0050EEA6E080EE96EF2CF28F5F29E48
:105A2000000E72EC05F00A000900F550EE6E000958
:105A3000FBE1050128BFF28E050E296F080E286FC5
:105A40002A6B370E2B6F020E2C6F010E2D6F00018B
:105A500012EC09F004016B996B9D6B9F6C916C9338
:105A60006C956C976C8D7F510208D8A4E0D06BA523
:105A7000DED06AAB6FD06CB928D00501286B5A0E06
:105A8000296F380E2A6F000161EC10F0190E050124
:105A90003A6F120E3B6F3C0E3C6F1A0E3D6F3E6B21
:105AA0003F6B0001B1EC08F0370E05013A6F120EA2
:105AB0003B6F440E3C6F350E3D6F3E6B010E3F6FEA
:105AC0000001B1EC08F004016C896CB13FD0050114
:105AD0003A6B370E3B6F7F0E3C6F3F0E3D6F010EF2
