:10000000D1EF11F06896000C046ED8CF05F0E0CF68
:1000100006F00001E9CF0CF0EACF07F0E1CF08F0DD
:10002000E2CF09F0D9CF0AF0DACF0BF0F3CF12F01C
:10003000F4CF13F0FACF14F000C00EF001C00FF0AF
:1000400002C010F003C011F0F2AA2AEF00F0F2B4DF
:100050007CEF07F09DA030EF00F09EB0B3EF07F00B
:100060009DAA36EF00F09EBAF5EF06F0A0AA3CEF8D
:1000700000F0A1BA75EF06F00EC000F00FC001F05D
:1000800010C002F011C003F00CC0E9FF07C0EAFF86
:10009000078E08C0E1FF09C0E2FF0AC0D9FF0BC00C
:1000A000DAFF12C0F3FF13C0F4FF14C0FAFF0450CC
:1000B00006C0E0FF05C0D8FF1000F76ACA0FF66E51
:1000C000000EF7220900F55012000002FFFFFFFFAB
:1000D000FFFFFFFFFFFFFFFFFFFF07AE03D0F2CFE1
:1000E0000DF0F29EF76AFC0FF66E000EF722090083
:1000F000F55007AE02D00DBEF28E12004000200077
:1001000000000000000000000000000000000000EF
:10011000000000000000000000000000F76A2C0F43
:10012000F66E010EF7220900F550120009022000B8
:10013000010100C0320904000002FFFFFF000705B3
:10014000810220000107050102200001F76A5C0F0F
:10015000F66E010EF7220900F55012000100F76A51
:100160006E0FF66E010EF7220900F5501200120113
:10017000100100000040D8040B0001000102000142
:10018000F76A900FF66E010EF7220900F550120083
:1001900000041400F76AA40FF66E010EF72209009E
:1001A000F55012000403090410036A0050006900AE
:1001B000630055007300620022034C006500630079
:1001C00074006F007200200046004C0055004A0089
:1001D0004F0020004A0050002E006D92699468A4E0
:1001E00002D06894FCD781EF06F0400E0401016F45
:1001F000040E036F100E026F880E006F046B040E66
:10020000076F500E066F0001000C70A002D0EDDFEA
:100210007090689A8AEF06F06A6A689290EF06F02A
:100220000301119110BF1181109F1051100803E2BA
:10023000000E016E25D011A112D0036A1051F2CF29
:1002400012F3F29E000139DF030112BFF28EFF08A4
:1002500002E1000E01D0010E016E12D011D0036A2E
:100260001051F2CF12F3F29E000127DF030112BFFB
:10027000F28EFF0802E1000E01D0010E016E00D0E7
:100280000001000C036A03010F51700FE96E0F0E9D
:100290000320EA6EEF6A0FC310F30001C1DF0152C1
:1002A00019E003010F51080DF350116BE96E040EB4
:1002B0001125EA6EEF6A0F51080DF350116B106FA4
:1002C000040E1027000E112310C3E9FF040E1125A0
:1002D000EA6EEF6A0001000C010E03010E6F0E5171
:1002E0000F0807E30EC30FF30001CCDF03010E2B51
:1002F000F6D70001000C0301046B04530AE1036A02
:100300000451270FE96E000E0320EA6EEF6A042BFA
:10031000F4D71E6A010E1F6E1D6A0001000C6A6A86
:10032000686A9F0E6B6E3D0E696E6E6AD5DFE3DF05
:10033000160E706E68A602D065DEFCD76D9855DF8C
:10034000030E226E96EF06F0698468986D829CEF2A
:1003500006F0689CA2EF06F009C323F0000CFF0E24
:10036000236E000C0301076B26523EE007513F0845
:100370003BE32050000A000105E0020A0FE0010AF9
:1003800019E024D0036A2550F2CF09F3F29EC6DEAD
:10039000030109BFF28E086F000118D0036A2550CF
:1003A000F2CF09F3F29EF6DE030109BFF28E086F69
:1003B00000010CD0036A2550F2CF09F3F29ECFDE84
:1003C000030109BFF28E086F000100D0252A26061E
:1003D00003010751072B036A500FE96E040E032037
:1003E000EA6E08C3EFFFC0D7265204E10751400868
:1003F00001E01D6A07C309F30001AEDF000C256AA6
:10040000206A04011351010A000105E0030A08E013
:10041000010A09E023D0120E266E030E206E20D0B2
:10042000200E266E1DD0020E206E036A04011251AA
:10043000F2CF06F3F29E0001A3DE030106BFF28EA7
:10044000256E036A2550F2CF06F3F29E0001A2DE6C
:10045000030106BFF28E266E000102D080DF0CD0B1
:100460000401175305E12650165D02E216C426F07A
:10047000010E1D6E000176DF81EF03F003010653CC
:1004800006E1040E226E000127DFDED00301050E17
:10049000226E040E096F900E086F010E076F075150
:1004A0000F08D8A0D1D007C30FF30001EBDE030182
:1004B0000A6B036A0751F2CF0EF3F29E0001FDDDD5
:1004C00003010EBFF28EFF085BE0040E0A6FD890A6
:1004D0000735036AF2CF0EF3F29E0001FEDD09003C
:1004E000F5CF03F003010EBFF28E0B6F03C00CF3C8
:1004F0000751080DF3500F6B0E6F010E0E25016EA4
:10050000000E0F21036E01C0E9FF040E0324EA6E02
:100510000BC3EFFF0751080DF3500F6B0E6F020E68
:100520000E25016E000E0F21036E01C0E9FF040EBF
:100530000324EA6E09C3ECFFED5208C3EFFFD89025
:100540000735036AF2CF0EF3F29E0001C6DD090003
:10055000F5CF03F003010EBFF28E082703500923E5
:10056000880E0D6F0CB10D810CB30D830751080D72
:10057000F3500F6BE96E040E0F25EA6E0DC3EFFF0B
:10058000036A0751F2CF0EF3F29E000196DD0301DC
:100590000EBFF28EFF083BE00A830751080DF350AF
:1005A0000F6B0E6F040E0E27000E0F23020E0E258A
:1005B000016E000E0F21036E01C0E9FF040E03243B
:1005C000EA6E09C3ECFFED5208C3EFFFD890073580
:1005D000036AF2CF0EF3F29E00017FDD0900F5CF32
:1005E00003F003010EBFF28E0827035009230751C1
:1005F000080DF3500F6B0E6F040E0E27000E0F2325
:100600000EC3E9FF040E0F25EA6E400EEF6E0A518D
:10061000060802E10E0E0A6F036A0751F2CF0EF3CD
:10062000F29E00014ADD03010EBFF28E0108D8A43C
:100630000A89036A0751700FE96E0F0E0320EA6EF4
:100640000AC3EFFF072B2BD7000179EF03F004015A
:100650001151000A00010DE0010A15E0020A20E034
:10066000060A2AE0030A31E00E0A31E0010A37E007
:1006700046D01FC050F40401516B020E0301096FF4
:1006800000016ADE3ED00401122D07D0010E1F16B4
:100690000301096B000160DE02D0000160DE31D091
:1006A0000401122D06D01F820301096B000154DEE4
:1006B00002D0000154DE25D0020E1D6E12C424F0BB
:1006C0000301096B000148DE1CD099D61AD01EC068
:1006D00050F4010E0301096F00013EDE12D0040147
:1006E000125101080AE312C41EF012C406F30001FD
:1006F000C5D60301096B00012FDE000102D02FDEF9
:1007000000D097EF04F01EC006F304011151000A57
:10071000000105E00A0A0CE0010A31E045D00401BD
:10072000506B516B020E0301096F000115DE3ED0C4
:100730000301065321E0010E065D036AF2CF07F3C1
:10074000F29E000103DD030107BFF28E016E04017A
:10075000145DD8A002D003010FD0036A1451270FF3
:10076000E96E000E0320EA6EEFCF50F4010E030194
:10077000096F0001F1DD02D00001F1DD17D00301A6
:1007800006530FE0036A04011451270FE96E000EAF
:100790000320EA6E12C4EFFF0301096B0001DCDDE8
:1007A00002D00001DCDD02D0DADD00D097EF04F0EA
:1007B0000301079106BF0781069F07A111D00651CB
:1007C000080DF350096B086F040E0827000E09236B
:1007D00008C3E9FF040E0925EA6E880EEF6E09D002
:1007E0000651080DF350096BE96E040E0925EA6EF7
:1007F000EF6A000160EF04F00301079106BF078173
:10080000069F07A111D00651080DF350096B086F20
:10081000040E0827000E092308C3E9FF040E09256A
:10082000EA6E840EEF6E0AD00651080DF350096B84
:10083000E96E040E0925EA6E840EEF6E000168EF82
:1008400004F00301079106BF0781069F07A111D09D
:100850000651080DF3500A6B096F040E0927000EAC
:100860000A2309C3E9FF040E0A25EA6EEFCF08F355
:100870000AD00651080DF3500A6BE96E040E0A25E2
:10088000EA6EEFCF08F308AF02D008B502D0000E31
:1008900001D0010E016E000174EF04F014C410F3D6
:1008A000BFDC01522EE004011151010A000105E0F4
:1008B000020A0BE0030A11E022D014C406F378D731
:1008C0000301096B000148DD1CD014C406F394D762
:1008D0000301096B000140DD14D00401506B516B22
:1008E00014C406F30001ADD7015203E0010E040168
:1008F000506F020E0301096F00012EDD02D02FDDC3
:1009000000D097EF04F01D6A040110517F0B000A1C
:10091000000105E0010A05E0030A05E006D097D6CC
:1009200006D0F1D604D0BAD702D019DD00D0D4EF6A
:1009300005F003010651080DF3500C6BE96E040E2F
:100940000C25EA6EEFCF08F30751020806E108AD67
:1009500002D0076B02D0010E076F0751030813E1A5
:10096000840E086F0651080DF3500C6B0B6F040ECC
:100970000B27000E0C230BC3E9FF040E0C25EA6EB7
:10098000840EEF6E07D0072D03D0C80E086F02D07B
:10099000880E086FD8900635036AF2CF0BF3F29EEB
:1009A00000016DEC00F00900F5CF03F003010BBF6F
:1009B000F28E096F03C00AF30651080DF3500C6B59
:1009C0000B6F010E0B25016E000E0C21036E01C092
:1009D000E9FF040E0324EA6E09C3EFFF0AB10881A0
:1009E0000AB308830651080DF3500C6BE96E040E30
:1009F0000C25EA6E08C3EFFF0001000C036A030137
:100A00000B51700FE96E0F0E0320EA6EEF5212E0E9
:100A10000B51080DF3500D6B0C6F040E0C27000EDC
:100A20000D230CC3E9FF040E0D25EA6EEFCF0CF386
:100A30000CAF02D0000E01D0010E016E0001000CBF
:100A400006C30BF3DBDF015264E003010651080D1E
:100A5000F3500C6B0B6F040E0B27000E0C23010ED2
:100A60000B25016E000E0C21036E01C0E9FF040E80
:100A70000324EA6E07C3EFFF0951020817E106518C
:100A8000080DF3500C6B0B6F040E0B27000E0C239C
:100A90000BC3E9FF040E0C25EA6EEFCF0AF30AAD93
:100AA00002D0096B02D0010E096F13D0095104085E
:100AB00010E10651080DF3500C6BE96E040E0C2585
:100AC000EA6EEFCF0AF30AAD03D0010E096F01D031
:100AD000096B092D03D0C80E0A6F02D0880E0A6F69
:100AE00008B10A8108B30A830651080DF3500C6B54
:100AF0000B6F040E0B27000E0C230BC3E9FF040E33
:100B00000C25EA6E0AC3EFFF010E016E05D000D07E
:100B10000001000E016E03010001000C03010653E9
:100B200000E10001000C07C36EFF0301075303E05F
:100B3000040E226E02D0020E226E0001A5EF05F017
:100B40001E6A1D6A24C007F3EED7B5EF05F0030156
:100B500006530CE11D2C04D0000104DC06D0030177
:100B60001D50020803E10001EBD703010001000C56
:100B700021300301046F043304331F0E0417215284
:100B80004FE1040100513C0B0301056F430E0401CA
:100B9000001703010551340825E104010451800BBD
:100BA00001E0046B0001AFD66D98233C07D0030130
:100BB000066B030E076F0001BCDE12D00301066B4B
:100BC000020E076F0001B5DE2350FE0809E00301A5
:100BD000066B086B23C007F3040E096F000130DFBA
:100BE0001DD00301055104081AE1066B000196DFD0
:100BF0000301066B020E076F00019BDE2350FE0807
:100C00000CE0233C01D009D00301066B086B23C024
:100C100007F3010E096F000113DF00D0030162D05A
:100C20002150040818E1430E04010417FF0E236E3F
:100C30000301066B00018BDF233C01D00AD00301C6
:100C4000066B086B23C007F3020E096F0001F8DE84
:100C500000D047D0030121B41DD00451080DF3503A
:100C6000076B016E040E0725036E0451080DF35047
:100C7000096BE96E040E0925EA6EEF50430B03C0C1
:100C8000EAFF01C0E9FFEF6E04C306F3000146DF8F
:100C900028D003010451080DF350076B066F040EB2
:100CA0000627000E072306C301F0040E0725036E76
:100CB0000451080DF350096B086F040E0827000E4D
:100CC000092308C3E9FF040E0925EA6EEF50430B20
:100CD00003C0EAFF06C3E9FFEF6E04C306F3000199
:100CE00036DF03010001AEEF06F0A19A225201E1C6
:100CF0003ED068523CE068A404D069A402D0EDEF75
:100D000000F06DA201D033D068AA04D069AA02D045
:100D100005EF01F068A204D069A202D00CEF01F047
:100D200068A004D069A002D08FEF01F068A804D0B9
:100D300069A802D0A4EF01F068AC04D069AC02D07D
:100D4000A9EF01F00301036B68A60AD069A608D0D9
:100D50006CCF21F0000102EC00F00AD702D00301B1
:100D600005D003010351032B0308EEE200013CEF21
:100D700000F0030104C3E9FF05C3EAFFEFCF08F366
:100D800007C303F006C3E9FF07C3EAFFEF50085D9E
:100D900015E105C303F004C3E9FF03C0EAFFEF5206
:100DA00003E1000E016E1FD005C303F00451042BB4
:100DB000D8B4052B062BD8B4072BDCD705C303F01A
:100DC00004C3E9FF05C3EAFFEFCF08F307C303F04D
:100DD00006C3E9FF07C3EAFFEF50085D02E2FF0E1A
:100DE00001D0010E016E0001000C036A02010B51DB
:100DF000BC0FE96E020E0320EA6E9EAAFED7AECFAC
:100E0000EFFF0B510C081AE3036A0B51BC0FE96E9C
:100E1000020E0320EA6EEFCF03F30301056B03C359
:100E200004F3076B0D0E066F0001A3DF0152D8B467
:100E300002D0020103D002010B6B49D00B510D0807
:100E40003FE1036A0B51BC0FE96E020E0320EA6E0C
:100E5000EFCF03F30301056B03C304F3076B0D0E20
:100E6000066F000186DF0152D8B402D0020128D0FB
:100E70000BC20CF202010B6B3B830D6B010E0C25B8
:100E80000D5D1DE2036A0D51D50F016E020E0322A6
:100E9000030103C004F3036A02010D51BC0FE96EA4
:100EA000020E0320EA6EEFCF05F3030104C3EAFF4D
:100EB00001C0E9FF05C3EFFF02010D2BDFD707D00B
:100EC0000B510D0802E20B6B02D03B930B2B9E9A49
:100ED00000013CEF00F0030103510503F3CF01F0E3
:100EE000F4CF00F00603F350002604510503F3503D
:100EF0000020026E0001000CD76AD66A0201332B73
:100F0000D8B4342B165102082AE12551010827E2F2
:100F10008A909390270E0301046F060E036F32C26E
:100F200006F331C205F30001D6DF02C003F0015021
:100F300002013451025C07E303E13351015C03E336
:100F40008A82939202D08A9293923451E90807E2FE
:100F5000FF0A03E133515F0802E2346B336BF29412
:100F600000013CEF00F0150ECF6EA00ECE6E020118
:100F7000292BD8B42A2B2B2BD8B42C2B2D2BD8B41F
:100F80002E2B08AF03D0392BD8B43A2B2B51640841
:100F900005E12C5303E12C6B2B6B3B872A5303E1B8
:100FA0002951C7080EE22A6B296B3B85122B175378
:100FB00008E0352BD8B4362B08B903D0372BD8B47A
:100FC000382B9E9000013CEF00F0020EEA6EF00E0E
:100FD000E96EEF500EE00F0E016E006A002EFED794
:100FE000012EFBD78F0E006E002EFED70000EF2ED5
:100FF000F2D7000C8E0E006EF1C201F0F0C202F0CA
:10100000036A015209E102C001F0026A080E005EA3
:10101000015202E1006A08D0D89001BE04D0023625
:1010200001360006F9D7019E000C0201EB35006E77
:101030000036FC0E001600C001F0C250C30B0010B9
:10104000C26E010EF06F0001C0DFC282C2B2FED7D5
:10105000C4CFF1F2C3CFF0F20001CCDF03C0EFF256
:1010600002C0EEF201C0EDF200C0ECF2ECC200F002
:10107000EDC201F0EEC202F0EFC203F0000C6D6AA7
:10108000696A080E6F6E945030090201946E226AEC
:10109000166AF2BE168EF29E00017BEC01F016BEBF
:1010A000F28E54EF08F0EBD779EF08F0166AF2BE33
:1010B000168EF29E7BEC01F016BEF28E6D6A140E57
:1010C0006F6E696A6D86010E226E6AEF08F06DB66A
:1010D00001D0ECD7222C0BD06DBA09D0686A696AAE
:1010E000A08AC00EF212110E696E020E226E000C62
:1010F000DAD7EDDF22500208FCE116EF15F08E0E74
:10110000006E0201EA51005EEBC202F0ECC201F097
:10111000028E005209E0D890025202E1015204E02E
:1011200002320132002EF7D7EBAF05D0011E021EAE
:10113000012AD8B4022A0001000C9EA8FED7AD6E89
:10114000EBEF08F0300E02012125CA6F300E222588
:10115000CB6F300E2325CC6F000E08B5010E300F7B
:10116000CD6F300E2525CE6FAFC2EDF2AEC2ECF2E0
:10117000ADC2EBF2ACC2EAF20001C1DF300E0124D5
:101180000201CF6F300E1E25D06F300E1F25D16F9C
:10119000300E2825D26F8BC2EDF28AC2ECF289C2E2
:1011A000EBF288C2EAF20001AADF300E012402014C
:1011B000D36F0D0ED46F136B13510A0814E3036A37
:1011C0001351CA0FE96E020E0320EA6EEFCFEAF266
:1011D000EA510001B2D70A0E0201F06F0001F5DEFC
:1011E0000201132BE9D70001000C0201EF51D8B422
:1011F000A5D0FB6FF351D8B4A1D0FB5F05E37F0E00
:10120000FB27D8B09BD006D0810EFB5FD8A096D02C
:10121000D8B494D0FBC200F0016A026A036AFA6B88
:10122000F0C2F9F2F98FF1C2F8F2F2C2F7F2190E38
:10123000FB6FF651F75F0DE2010EF85F0AE2F95F0E
:1012400008E2FA5F06E2FA2BF92BF82BF651F727A2
:1012500028D0F551F85F12E2010EF95F0FE2FA5F54
:101260000DE2FA2BF92BF551F827F651F72719E380
:10127000F82B17E1F92B15E1FA2B13D0F451800963
:10128000F95F0EE2010EFA5F0BE2FA2BF4518009CE
:10129000F927F551F827E9E3F92BE7E1FA2BE5D730
:1012A0000380FB2F01D00BD0D890F737F837F937F0
:1012B000FA37D890033602360136FC37BAD7FCA18C
:1012C00006D0D890013202320332FC3302D000063D
:1012D00035E0FCBF1ED0D890F737F837F937FA372A
:1012E000F651F75F07E2010EF85F04E2F95F02E2F0
:1012F000FA5F1AE3F551F85F05E2010EF95F02E2C9
:10130000FA5F12E3F4518009F95F03E2010EFA5F1C
:101310000BE3032A09E1022A07E1012A05E1002A79
:101320000DE0013202320332F0C2FBF2F451FB1B3A
:10133000FBAF02D0018E06D0019E04D0006A016A84
:10134000026A036A0001000C800ED8A202D00201DA
:10135000F81B0201FD6BFE6BF4C2FCF2F851FC1BA2
:10136000F351D8B41ED1FB6F006EF751D8B423D11E
:10137000FB5FD8B4A0D04DE3F8C201F30301018FA5
:10138000F9C200F3FAC2FFF20201FE6BD89003012A
:10139000013300330201FF33FE33FB2FF6D7FCAFDE
:1013A00003D0FD8120D1FD91FB91FD89020EEA6EF3
:1013B000F60EE96E32D1FD99FCBF0CD0FBA11AD01C
:1013C0000301013300330201FF33FE33002AD8B496
:1013D00003D110D0030101BF10D0D8900201FE3715
:1013E000FF37030100370137002E02D00201F4D08D
:1013F000F2D70201FD8D86D0FD9DF4C2FCF2020100
:10140000F4AF03D00301018FDFD00301019FDCD0D3
:101410000201F7C2FBF2F7C200F0F351FB5FF4C226
:1014200001F30301018FF5C200F3F6C2FFF20201DE
:10143000FE6BD8900301013300330201FF33FE330A
:10144000FB2FF6D7FCAF03D0FD83CDD0FD93FB91EE
:10145000FD8B020EEA6EFA0EE96EDFD0FD9BFCBF3B
:101460000CD0FBA11AD00301013300330201FF337A
:10147000FE33002AD8B4B0D010D0030101BF10D081
:10148000D8900201FE37FF37030100370137002EE5
:1014900002D00201A1D0F2D70201FD8F33D0FD9F0F
:1014A000F8C2FCF20201F8AF03D00301018F8CD027
:1014B0000301019F89D0F8C201F30301018FF9C232
:1014C00000F3FAC2FFF20201FCAF06D00301019F54
:1014D0000201FD8588D0FD95FE6BFB91020EEA6E40
:1014E000F60EE96E9AD0FCBF27D0F4C2FCF2FBA145
:1014F00009D00301013300330201FF33FE33002A18
:10150000D8B46AD0FEAF13D0FF2B11E10301002B3A
:10151000D8B402D002010BD0012BD8B402D0020102
:1015200006D0013300330201FF33002A55E0FDBD30
:1015300063D7FDBFB4D72DD0800E0301011B01AFCF
:1015400006D0020150D0F8C2FCF213D00301F4C25D
:10155000FCF20153D8B402D002010BD00053D8B42E
:1015600002D0020106D00201FF5303E1006A030129
:101570002BD0030101AF02D002010BD0D8900201A1
:10158000FE37FF37030100370137002EF3D7020182
:1015900023D0FCAF03D00301018F16D00301019FBC
:1015A00013D0F7C200F0F8C201F3F9C200F3FAC297
:1015B000FFF2030109D0F3C200F0F4C201F3F5C257
:1015C00000F3F6C2FFF2030101C301F000C302F011
:1015D000FFC203F04DD00201006A016A026A036A89
:1015E000030146D00201FE6BFF1F0301001F011F14
:1015F0000201FE1FFE2B0AE1FF2B08E10301002B75
:10160000D8B402D0020102D0012B0201FDB1CBD629
:10161000FDB31CD7FDB55FD796D7EF50FF270CE37E
:101620000301002BD8B402D0020106D0012BD8A4AC
:1016300002D00201FB810201ED52EF5003010027AD
:1016400006E3012BD8A403D00201FB810301ED5274
:10165000EF50EFBE01D0800A0127D8A002D00201CE
:10166000FB810201FDB9A7D6FDBBF8D63CD703012B
:101670000001000C02012751040DF350036AF80F1A
:10168000E96E010E0320EA6E74C2EFFF75C2ECFF33
:1016900076C2ECFF77C2ECFF272B275101081DE231
:1016A000276BD882FFC1F6F2FEC1F5F2FDC1F4F25C
:1016B000FCC1F3F2FBC1FAF2FAC1F9F2F9C1F8F296
:1016C000F8C1F7F2000140DE03C007F202C006F2E3
:1016D00001C005F200C004F20201000121EF0CF08C
:1016E0000201736B726B716B706BEB6B00019DDCB5
:1016F00003C05BF202C05AF201C059F200C058F2B6
:101700005BC2F2F25AC2F1F259C2F0F258C2EFF2E1
:10171000850E0201F66FEB0EF56F140EF46F840E5A
:10172000F36F000162DD03C05BF202C05AF201C038
:1017300059F200C058F20201F16B50C2F0F2000100
:1017400059DCD8925FC2F6F25EC2F5F25DC2F4F2E5
:101750005CC2F3F203C0FAF202C0F9F201C0F8F27F
:1017600000C0F7F2F1DD00C0EBF201C0ECF202C004
:10177000EDF203C0EEF20201F26BC00EF16F7F0ECC
:10178000F06F880EEF6F5BC2F6F25AC2F5F259C2E3
:10179000F4F258C2F3F2000128DD00C0EFF201C0FC
:1017A000F0F202C0F1F203C0F2F2D88203C0F6F206
:1017B00002C0F5F201C0F4F200C0F3F20201FA6BCC
:1017C000F96BF86B7F0EF76F0001BEDDEEC2F2F22F
:1017D000EDC2F1F2ECC2F0F2EBC2EFF203C0F6F2AE
:1017E00002C0F5F201C0F4F200C0F3F2FEDC03C067
:1017F00063F202C062F201C061F200C060F2D882FE
:1018000063C2F6F262C2F5F261C2F4F260C2F3F2B0
:101810000201FA6BF96BF86B7E0EF76F000194DD35
:1018200003C063F202C062F201C061F200C060F264
:10183000010E0201EA5D4D5D05E004E34D6B000120
:1018400019D70201166AF2BE168EF29E0301046BCE
:101850004DC203F3066B040E056F00016BEC07F03D
:1018600016BEF28E0150680FE96E000E0220EA6E7D
:1018700060C2EFFF61C2ECFF62C2ECFF63C2ECFF2B
:1018800002014D2B4C6BEA514C5D45E2166AF2BEEB
:10189000168EF29E0301046B4CC203F3066B040E1A
:1018A000056F00016BEC07F016BEF28E02C003F06C
:1018B0000150680FE96E000E0220EA6EEFCF00F0D3
:1018C000ECCF01F0ECCF02F0ECCF03F0EACFECF27A
:1018D000E9CFEBF2D89273C2F6F272C2F5F271C29E
:1018E000F4F270C2F3F203C0FAF202C0F9F201C0DE
:1018F000F8F200C0F7F228DDECC2EAFFEBC2E9FF24
:1019000003C073F202C072F201C071F200C070F243
:1019100002014C2BB8D7F16BEAC2F0F20001FAECED
:1019200007F073C2F2F272C2F1F271C2F0F270C249
:10193000EFF203C0F6F202C0F5F201C0F4F200C00B
:10194000F3F253DC03C073F202C072F201C071F211
:1019500000C070F2D88273C2F6F272C2F5F271C2A0
:10196000F4F270C2F3F20201FA6BF96B480EF86FF1
:10197000850EF76F0001E8DC00C0EBF201C0ECF26D
:1019800002C0EDF203C0EEF203C0F2F202C0F1F2C7
:1019900001C0F0F200C0EFF2B80E0201F66F1E0EA9
:1019A000F56F450EF46F7D0EF36F00011EDC03C072
:1019B00077F202C076F201C075F200C074F2020143
:1019C000F16B4EC2F0F20001FAEC07F000C0EBF24E
:1019D00001C0ECF202C0EDF203C0EEF20201F16BC5
:1019E0004FC2F0F20001FAEC07F0D882EEC2F6F234
:1019F000EDC2F5F2ECC2F4F2EBC2F3F203C0FAF27C
:101A000002C0F9F201C0F8F200C0F7F29DDCD892F2
:101A100077C2F6F276C2F5F275C2F4F274C2F3F24E
:101A200003C0FAF202C0F9F201C0F8F200C0F7F206
:101A30008BDC03C077F202C076F201C075F200C001
:101A400074F274C200F075C201F076C202F077C27F
:101A500003F0000C1E50016E81EF15F0036A0201C5
:101A6000EA51700FE96E0F0E0320EA6EEF520DE09F
:101A7000EA51080DF350EC6BEB6FE96E040EEC25A8
:101A8000EA6EEFCFEBF2EBAF02D0000E01D0010E09
:101A9000016E00018AEF15F00201EF51080DF350BD
:101AA000FA6BF96F020EF925016E000EFA21036E32
:101AB00001C0E9FF040E0324EA6EECCF03F0ED52FF
:101AC000EFCFF4F203C0F5F2EF51080DF350FA6BCB
:101AD000F96F010EF925016E000EFA21036E01C0A7
:101AE000E9FF040E0324EA6EEF50036AF76F03C0A8
:101AF000F8F2EF51080DF350FA6BE96E040EFA2577
:101B0000EA6EEFCFF6F2F6B1F881F6B3F883F8514A
:101B1000F35D08E303E1F251F75D04E2F8C2F3F28A
:101B2000F7C2F2F2F1C2EAFFF0C2E9FFF5C2E2FF4A
:101B3000F4C2E1FFF3C202F0F2C201F0015202E08E
:101B4000022A02D0025206E0E6CFEEFF012EFCD7B9
:101B5000022EFAD7F2C201F0F3C202F00001BCEF8C
:101B60000DF0EAC2EFF2ECC2F1F2EBC2F0F2EEC21B
:101B7000F3F2EDC2F2F290D702C0EEF201C0EDF244
:101B8000166AF2BE168EF29EEAC206F3020E030138
:101B9000076F000199EC04F016BEF28E0201EDC24F
:101BA00001F0EEC202F0000199EF15F00201EE51D2
:101BB000D8B471D0006EF251D8B46DD0002604E3D1
:101BC000810E002668E204D07F0E005E64E363E0CD
:101BD000EFC2F6F2F351F61BEF8FF38FF151F503DD
:101BE000F4CFF8F2F051F403F4CF03F0F3CFF7F2AF
:101BF000F503F350F827F450F723000E0322F151B8
:101C0000F403F350F827F450F723000E026A03227E
:101C10000222EF51F503F350F727F4500322000E90
:101C20000222EF51F403F3500326F4500222000E77
:101C3000016A0122F151F303F350F727F450032214
:101C4000000E02220122F051F303F3500326F45058
:101C50000222000E0122EF51F303F3500226F4504A
:101C60000122002A01BE05D0F737033602360136BD
:101C70000006000EF7AF0AD0032A0222012201500B
:101C800005E1025003E1035001E1002AF6BF018E95
:101C9000F6AF019E04D0006A016A026A036A00017D
:101CA000000C166AF2BE168EF29EEAC20BF3FEEC30
:101CB00004F016BEF28E015248E00201EA51080D0E
:101CC000F350F36BF26F040EF227000EF323020EB3
:101CD000F225016E000EF321036E01C0E9FF040E30
:101CE0000324EA6EECCF03F0ED52EFCFF0F203C025
:101CF000F1F2F1C2EAFFF0C2E9FFECC2E2FFEBC28F
:101D0000E1FFEEC202F0EDC201F0015202E0022A50
:101D100002D0025206E0E6CFEEFF012EFCD7022EE3
:101D2000FAD7166AF2BE168EF29EEAC206F3EEC229
:101D300008F3EDC207F3EFC209F3000120EC05F050
:101D400016BEF28E015003D000D0000E016E22EFBD
:101D500019F0ECC2F3F20201F051F31BF3AF05D01E
:101D6000D894D890ECBFD8802FD0ECC2F3F2EFC259
:101D7000F4F2EB51F45F06E0F3AF26D0D850010A3D
:101D8000D86E22D0F0C2F4F2EC51F45F06E0F3AF6B
:101D90001BD0D850010AD86E17D0F1C2F4F2ED5121
:101DA000F45F06E0F3AF10D0D850010AD86E0CD023
:101DB000F2C2F4F2EE51F45F06E0F3AF05D0D85072
:101DC000010AD86E01D0D8900001000C0201036B0B
:101DD000026B016B006B010EEB6F000115EC08F05C
:101DE00003C097F202C096F201C095F200C094F2CF
:101DF00097C2F1F296C2F0F295C2EFF294C2EEF2FF
:101E00000A0E0201F56F280EF46F200EF36F770EA5
:101E1000F26F0001CBDE03C097F202C096F201C060
:101E200095F200C094F2D88297C2F6F296C2F5F20B
:101E300095C2F4F294C2F3F2CD0E0201FA6FCC0E09
:101E4000F96F4C0EF86F7C0EF76F0001A4EC09F0EF
:101E500000C0EBF201C0ECF202C0EDF203C0EEF202
:101E600003C0F2F202C0F1F201C0F0F200C0EFF2E2
:101E7000BBC2F6F2BAC2F5F2B9C2F4F2B8C2F3F2DA
:101E8000F5EC08F003C09BF202C09AF201C099F28F
:101E900000C098F29BC2EEF29AC2EDF299C2ECF247
:101EA00098C2EBF20201F26BF16BF06BEF6B000189
:101EB00050DF05E302019B6B9A6B996B986B010EE7
:101EC0000201EA5D105D02E001E3106B1051040DA8
:101ED000F350036AA80FE96E010E0320EA6E98C260
:101EE000EFFF99C2ECFF9AC2ECFF9BC2ECFF102BF4
:101EF000116B010EEA5D115D01E038E21151040D34
:101F0000F350036AA80FE96E010E0320EA6EEFCFCB
:101F100000F0ECCF01F0ECCF02F0ECCF03F0EACF11
:101F2000ECF2E9CFEBF2D89203C2F6F202C2F5F27C
:101F300001C2F4F200C2F3F203C0FAF202C0F9F2F5
:101F400001C0F8F200C0F7F20001A4EC09F0ECC205
:101F5000EAFFEBC2E9FF03C003F202C002F201C0D4
:101F600001F200C000F20201112BC3D7F16BEAC2EB
:101F7000F0F20001FAEC07F003C2F2F202C2F1F251
:101F800001C2F0F200C2EFF203C0F6F202C0F5F2B5
:101F900001C0F4F200C0F3F2F5EC08F003C003F264
:101FA00002C002F201C001F200C000F200C200F063
:101FB00001C201F002C202F003C203F038EF19F0CF
:101FC000D89287C2F6F286C2F5F285C2F4F284C2D4
:101FD000F3F2ABC2FAF2AAC2F9F2A9C2F8F2A8C2AD
:101FE000F7F2A4EC09F000C0EAF201C0EBF202C083
:101FF000ECF203C0EDF2D88203C0F6F202C0F5F2B3
:1020000001C0F4F200C0F3F2AFC2FAF2AEC2F9F2CC
:10201000ADC2F8F2ACC2F7F2A4EC09F003C06FF263
:1020200002C06EF201C06DF200C06CF2660E0201D9
:10203000EE6FED6FEC6F7E0EEB6F6FC2F2F26EC261
:10204000F1F26DC2F0F26CC2EFF2000182DE56E3F3
:102050006FC2EEF26EC2EDF26DC2ECF26CC2EBF248
:102060000201F26BF16B700EF06F820EEF6F0001E8
:1020700070DE44E307C2EEF206C2EDF205C2ECF2F6
:1020800004C2EBF29A0E0201F26F990EF16F190E73
:10209000F06F7D0EEF6F00015CDE30E36BC2EEF29D
:1020A0006AC2EDF269C2ECF268C2EBF20201F26BB5
:1020B000F16B100EF06F820EEF6F00014ADE1EE32F
:1020C0000201125113081BE2126BD8927FC2F6F282
:1020D0007EC2F5F27DC2F4F27CC2F3F2FA6BF96BC8
:1020E000F86B800EF76F0001A4EC09F003C07FF2DB
:1020F00002C07EF201C07DF200C07CF202016FC21C
:10210000EEF26EC2EDF26DC2ECF26CC2EBF29A0E20
:10211000F26F990EF16FF06F7D0EEF6F000119DE17
:1021200008E383C27FF282C27EF281C27DF280C266
:102130007CF27FC2EEF27EC2EDF27DC2ECF27CC296
:10214000EBF20201F26BF16BF06B7F0EEF6F0001AF
:1021500000DE06E302017F6B7E6B7D6B7F0E7C6F82
:102160006FC2EEF26EC2EDF26DC2ECF26CC2EBF237
:102170000201F26BF16BF06BEF6B0001EADD06E33D
:1021800002016F6B6E6B6D6B6C6B00016FC2F1F2D5
:102190006EC2F0F26DC2EFF26CC2EEF27FC2F5F2E7
:1021A0007EC2F4F27DC2F3F27CC2F2F2FFDC03C025
:1021B0007BF202C07AF201C079F200C078F2ABC2C1
:1021C000EEF2AAC2EDF2A9C2ECF2A8C2EBF27BC217
:1021D000F2F27AC2F1F279C2F0F278C2EFF2B9DD2E
:1021E00008E3ABC27BF2AAC27AF2A9C279F2A8C212
:1021F00078F27BC2EEF27AC2EDF279C2ECF278C2EA
:10220000EBF20201F26BF16BF06BEF6B0001A1DD01
:1022100006E302017B6B7A6B796B786B00017BC202
:10222000F2F27AC2F1F279C2F0F278C2EFF2ABC206
:10223000F6F2AAC2F5F2A9C2F4F2A8C2F3F2F5ECE2
:1022400008F000C0EAF201C0EBF202C0ECF203C0F9
:10225000EDF203C0F1F202C0F0F201C0EFF200C0F3
:10226000EEF267C2F5F266C2F4F265C2F3F264C23E
:10227000F2F29CDC03C06BF202C06AF201C069F2A8
:1022800000C068F26BC2F2F26AC2F1F269C2F0F207
:1022900068C2EFF20A0E0201F66FD70EF56F230E39
:1022A000F46F770EF36F0001F5EC08F003C0EDF268
:1022B00002C0ECF201C0EBF200C0EAF27FEC08F0E1
:1022C00002C003F0015002012E51025C07E303E15A
:1022D0002D51015C03E38A80939002D08A90939001
:1022E00067C2F2F266C2F1F265C2F0F264C2EFF2C6
:1022F0000A0EF66FD70EF56F230EF46F770EF36F9D
:102300000001F5EC08F003C0EDF202C0ECF201C0F0
:10231000EBF200C0EAF27FEC08F00250036E02011B
:102320002E5D06E303E101502D5D02E32E6B2D6B64
:102330000001BAEF19F0300E0201D55D156F300EB5
:10234000D65D166F300ED75D176F300ED85D186FE3
:10235000300ED95D196F300EDA5D1A6F300EDB5D0D
:102360001B6F300EDC5D1C6F300EDD5D1D6F300E9F
:10237000E15D316F326B300EDE5DF16BF06F0001AD
:10238000FAEC07F003C0ABF202C0AAF201C0A9F256
:1023900000C0A8F2300E0201DF5D286F00019BEF44
:1023A0001AF0F86AD09E078EEA6AE96AB886870E44
:1023B000AF6E130EB06EA60EAC6E900EAB6E226AB0
:1023C000266A0201036B026B016B006B076B066BE5
:1023D000056B046B08910893089508970899089B6A
:1023E000089D089F0991010E0A6F0B6B0C6B0D6B1A
:1023F0000E6B0F6B106B116B126B136B146B156BF9
:10240000166B176B186B196B1A6B1B6B1C6B1D6BA8
:102410001E6B1F6B206B216B226B236B246B256B58
:10242000266B276B286B2A6B296B2C6B2B6B2E6B07
:102430002D6B306B0F0E2F6F326B316B346B336B38
:10244000366B356B386B376B3A6B396B0993099583
:1024500009970999099B099D099F3B913B933B95DE
:102460003B973B993B9B3B9D4C6B4D6B4E6B4F6B36
:10247000506B516B526B536B546B556B566B020E1A
:10248000576F5B6B5A6B596B586B5F6BC00E5E6F0F
:10249000410E5D6F8B0E5C6F676B666B200E656F18
:1024A000820E646F6B6B6A6B696B686B6F6B6E6BC4
:1024B0006D6B6C6B736B726B716B706B776B766B38
:1024C000756B746B7B6B7A6B796B786B7F6B7E6BE8
:1024D000480E7D6F830E7C6F836B826B200E816F45
:1024E000830E806F876B866B856B846B8B6B8A6BBF
:1024F000896B886B8F6B8E6B8D6B8C6B936B926B18
:10250000916B906B976B966B956B946B9B6B9A6BC7
:10251000996B986B9F6B9E6B9D6B9C6BA36BA26B77
:10252000A16BA06BA76BA66BA56BA46BAB6BAA6B27
:10253000A96BA86BAF6BAE6BAD6BAC6BB36BB26BD7
:10254000B16BB06BB76BB66BB56BB46B5C0EBB6F3E
:10255000AA0EBA6F520EB96F770EB86FC150C00B8A
:102560000F09C16E070EB46E176A186A0001686B16
:10257000696B6A6B6B6B6C6B6D6B6E6B6F6B706B9F
:10258000716B726B736B746B756B766B776B786B4F
:10259000796B7A6B7B6B7C6B7D6B7E6B7F6B806BFF
:1025A000816B826B836B846B856B866B876B886BAF
:1025B000896B8A6B8B6B8C6B8D6B8E6B8F6B906B5F
:1025C000916B926B936B946B956B966B976B986B0F
:1025D000996B9A6B9B6B9C6B9D6B9E6B9F6BA06BBF
:1025E000A16BA26BA36BA46BA56BA66BA76BA86B6F
:1025F000A96BAA6BAB6BAC6BAD6BAE6BAF6BB06B1F
:10260000B16BB26BB36BB46BB56BB66BB76BB86BCE
:10261000B96BBA6BBB6BBC6BBD6BBE6BBF6BC06B7E
:10262000C16BC26BC36BC46BC56BC66BC76BC86B2E
:10263000C96BCA6BCB6BCC6BCD6BCE6BCF6BD06BDE
:10264000D16BD26BD36BD46BD56BD66BD76BD86B8E
:10265000D96BDA6BDB6BDC6BDD6BDE6BDF6BE06B3E
:10266000E16BE26BE36BE46BE56BE66BE76BE86BEE
:10267000E96BEA6BEB6BEC6BED6BEE6BEF6BF06B9E
:10268000F16BF26BF36BF46BF56BF66BF76BF86B4E
:10269000F96BFA6BFB6BFC6BFD6BFE6BFF6B010167
:1026A000006B016B026B036B046B056B066B076BB6
:1026B000086B096B0A6B0B6B0C6B0D6B0E6B0F6B66
:1026C000106B116B126B136B146B156B166B176B16
:1026D000186B196B1A6B1B6B1C6B1D6B1E6B1F6BC6
:1026E000206B216B226B236B246B256B266B276B76
:1026F000286B296B2A6B2B6B2C6B2D6B2E6B2F6B26
:10270000306B316B326B336B346B356B366B376BD5
:10271000386B396B3A6B3B6B3C6B3D6B3E6B3F6B85
:10272000406B416B426B436B446B456B466B476B35
:10273000486B496B4A6B4B6B4C6B4D6B4E6B4F6BE5
:10274000506B516B526B536B546B556B566B576B95
:10275000586B596B5A6B5B6B5C6B5D6B5E6B5F6B45
:10276000606B616B626B636B646B656B666B676BF5
:10277000686B696B6A6B6B6B6C6B6D6B6E6B6F6BA5
:10278000706B716B726B736B746B756B766B776B55
:10279000786B796B7A6B7B6B7C6B7D6B7E6B7F6B05
:1027A000806B816B826B836B846B856B866B876BB5
:1027B000886B896B8A6B8B6B8C6B8D6B8E6B8F6B65
:1027C000906B916B926B936B946B956B966B976B15
:1027D000986B996B9A6B9B6B9C6B9D6B9E6B9F6BC5
:1027E000A06BA16BA26BA36BA46BA56BA66BA76B75
:1027F000A86BA96BAA6BAB6BAC6BAD6BAE6BAF6B25
:10280000B06BB16BB26BB36BB46BB56BB66BB76BD4
:10281000B86BB96BBA6BBB6BBC6BBD6BBE6BBF6B84
:10282000C06BC16BC26BC36BC46BC56BC66BC76B34
:10283000C86BC96BCA6BCB6BCC6BCD6BCE6BCF6BE4
:10284000D06BD16BD26BD36BD46BD56BD66BD76B94
:10285000D86BD96BDA6BDB6BDC6BDD6BDE6BDF6B44
:10286000E06BE16BE26BE36BE46BE56BE66BE76BF4
:10287000E86BE96BEA6BEB6BEC6BED6BEE6BEF6BA4
:10288000F06BF16BF26BF36BF46BF56BF66BF76B54
:10289000F86BF96BFA6BFB6BFC6BFD6BFE6BFF6B04
:1028A00002013C6B3D6B3E6B3F6B406B416B426B7F
:1028B000436B446B456B466B476B486B496B4A6B8C
:1028C0004B6BE76BE86BE96B936A8A6A040EEA6FFD
:1028D000FA0EF06F0001E5EC07F00201EA2FF8D7DD
:1028E0009D8AC00EF212C80ED56EF28A850ECD6E8C
:1028F0009D80C150C00B0B09C16EC090C082C094B6
:10290000C08EC280EB6B000115EC08F0F2CFEAF24A
:10291000F29E0A0EA96EA69CA69EA680A850020151
:10292000EABFF28EF16BF06F0001FAEC07F003C022
:102930007FF202C07EF201C07DF200C07CF2F2CFD5
:10294000EAF2F29E0B0EA96EA69CA69EA680A85047
:102950000201EABFF28EF16BF06F0001FAEC07F0B2
:1029600003C087F202C086F201C085F200C084F283
:10297000F2CFEAF2F29E0C0EA96EA69CA69EA6804D
:10298000A8500201EABFF28EF16BF06F0001FAEC81
:1029900007F003C067F202C066F201C065F200C032
:1029A00064F2F2CFEAF2F29E0D0EA96EA69CA69EEC
:1029B000A680A8500201EABFF28E4E6FF2CFEAF273
:1029C000F29E0E0EA96EA69CA69EA680A850EABFF7
:1029D000F28E4F6FF2CFEAF2F29E0F0EA96EA69C16
:1029E000A69EA680A850EABFF28EF16BF06F0001A0
:1029F000FAEC07F003C083F202C082F201C081F258
:102A000000C080F2F2CFEAF2F29E140EA96EA69CEC
:102A1000A69EA680A8500201EABFF28E576F8A9246
:102A200093928A909390000178EF08F067EC08F099
:102A30000201216B226B236B246B256B266B00013B
:102A4000A2EC08F00201536B146B1451270810E339
:102A500057C2EAF2000170EC0BF003C0AFF202C003
:102A6000AEF201C0ADF200C0ACF20201142BEDD702
:102A7000958883A802D03BAB0AD008818A829392C2
:102A80008A9493948A909390166BF29A0CD008A132
:102A90000AD0060EEA6FFA0EF06F0001E5EC07F0BF
:102AA0000201EA2FF8D7958083B00BD0958883A8D0
:102AB00008D0089F3A6B396B8A8493948A909390DC
:102AC0001DD0958283A213D0958883A810D03A5147
:102AD00001080BE2FF0A03E13951570806E28A9424
:102AE0009394089F0885088901D0088F07D03A6B16
:102AF000396B089F175302E18A84939400012AEFEF
:102B00000DF00152D8B49ED3010E0201EA6F00010C
:102B10002EEF0DF00152D8B42BD1010E0201EA6F55
:102B2000EC6B480EEB6FEE6B200EED6F0001B1EF1A
:102B30000DF0482C44D00201F16B49C0F0F20001C5
:102B4000FAEC07F003C07FF202C07EF201C07DF212
:102B500000C07CF20201F16B4AC0F0F20001FAEC15
:102B600007F003C087F202C086F201C085F200C000
:102B700084F20201F16B4BC0F0F20001FAEC07F0B5
:102B800003C067F202C066F201C065F200C064F2E1
:102B90004DC057F20201F16B4EC0F0F20001FAECA9
:102BA00007F003C083F202C082F201C081F200C0CC
:102BB00080F24FC04EF252C04FF253C050F2542C2C
:102BC000C4D07FC2EDF27EC2ECF27DC2EBF27CC2D9
:102BD000EAF27FEC08F001C0EAF20A0EA96EEAC23E
:102BE000A8FFA69CA69EA684F250006EF29E0F013E
:102BF000550EA76EAA0EA76EA682A6B2FED7A69401
:102C00000050F21287C2EDF286C2ECF285C2EBF2FE
:102C100084C2EAF200017FEC08F001C0EAF20B0E78
:102C2000A96EEAC2A8FFA69CA69EA684F250006EDA
:102C3000F29E0F01550EA76EAA0EA76EA682A6B22F
:102C4000FED7A6940050F21267C2EDF266C2ECF213
:102C500065C2EBF264C2EAF200017FEC08F001C049
:102C6000EAF20C0EA96EEAC2A8FFA69CA69EA68454
:102C7000F250006EF29E0F01550EA76EAA0EA76EBF
:102C8000A682A6B2FED7A6940050F212140EA96E28
:102C900057C2A8FFA69CA69EA684F250006EF29E84
:102CA000550EA76EAA0EA76EA682A6B2FED7A69450
:102CB0000050F2120D0EA96E4EC2A8FFA69CA69E51
:102CC000A684F250006EF29E550EA76EAA0EA76E55
:102CD000A682A6B2FED7A6940050F2120E0EA96EDE
:102CE0004FC2A8FFA69CA69EA684F250006EF29E3C
:102CF000550EA76EAA0EA76EA682A6B2FED7A69400
:102D00000050F21283C2EDF282C2ECF281C2EBF209
:102D100080C2EAF200017FEC08F001C0EAF20F0E77
:102D2000A96EEAC2A8FFA69CA69EA684F250006ED9
:102D3000F29E0F01550EA76EAA0EA76EA682A6B22E
:102D4000FED7A6940050F2120001552C04D00201C7
:102D50003B8B03D0000102013B9B502C02D0088B1F
:102D600001D0089B512C02D0088D01D0089D000194
:102D7000AFC2B3F2AEC2B2F2ADC2B1F2ACC2B0F207
:102D8000B3C2EDF2B2C2ECF2B1C2EBF2B0C2EAF2FF
:102D90007FEC08F001C028F0780E296EB3C2EDF286
:102DA000B2C2ECF2B1C2EBF2B0C2EAF27FEC08F0D0
:102DB0000201F16B01C0F0F20001FAEC07F0D882D9
:102DC000B3C2F6F2B2C2F5F2B1C2F4F2B0C2F3F29B
:102DD00003C0FAF202C0F9F201C0F8F200C0F7F243
:102DE000A4EC09F003C08BF202C08AF201C089F2A0
:102DF00000C088F28BC2F1F28AC2F0F289C2EFF20F
:102E000088C2EEF20201F56BF46B200EF36F820EB6
:102E1000F26F0001D6EC0DF003C08BF202C08AF213
:102E200001C089F200C088F28BC2EDF28AC2ECF2D6
:102E300089C2EBF288C2EAF27FEC08F001C02AF006
:102E400063C2EDF262C2ECF261C2EBF260C2EAF27E
:102E50007FEC08F001C02BF0ABC2EDF2AAC2ECF29D
:102E6000A9C2EBF2A8C2EAF27FEC08F001C02CF094
:102E7000B7C2EDF2B6C2ECF2B5C2EBF2B4C2EAF2FE
:102E80007FEC08F001C02DF063C2EDF262C2ECF2FB
:102E900061C2EBF260C2EAF27FEC08F00201F16B72
:102EA00001C0F0F20001FAEC07F0D88263C2F6F23A
:102EB00062C2F5F261C2F4F260C2F3F203C0FAF248
:102EC00002C0F9F201C0F8F200C0F7F2A4EC09F078
:102ED00003C08FF202C08EF201C08DF200C08CF2EE
:102EE0008FC2F1F28EC2F0F28DC2EFF28CC2EEF21E
:102EF0000201F56BF46B200EF36F820EF26F00018E
:102F0000D6EC0DF003C08FF202C08EF201C08DF23C
:102F100000C08CF28FC2EDF28EC2ECF28DC2EBF2E9
:102F20008CC2EAF27FEC08F001C02EF024C22FF030
:102F300023C230F06BC2EDF26AC2ECF269C2EBF26E
:102F400068C2EAF27FEC08F001C031F06BC2EDF22A
:102F50006AC2ECF269C2EBF268C2EAF27FEC08F0F6
:102F60000201F16B01C0F0F20001FAEC07F0D88227
:102F70006BC2F6F26AC2F5F269C2F4F268C2F3F209
:102F800003C0FAF202C0F9F201C0F8F200C0F7F291
:102F9000A4EC09F003C093F202C092F201C091F2D6
:102FA00000C090F293C2F1F292C2F0F291C2EFF23D
:102FB00090C2EEF20201F56BF46B200EF36F820EFD
:102FC000F26F0001D6EC0DF003C093F202C092F252
:102FD00001C091F200C090F293C2EDF292C2ECF205
:102FE00091C2EBF290C2EAF27FEC08F001C032F03D
:102FF0006FC2EDF26EC2ECF26DC2EBF26CC2EAF29D
:103000007FEC08F001C033F06FC2EDF26EC2ECF25B
:103010006DC2EBF26CC2EAF27FEC08F00201F16BD8
:1030200001C0F0F20001FAEC07F0D8826FC2F6F2AC
:103030006EC2F5F26DC2F4F26CC2F3F203C0FAF2A2
:1030400002C0F9F201C0F8F200C0F7F2A4EC09F0F6
:1030500003C09FF202C09EF201C09DF200C09CF22C
:103060009FC2F1F29EC2F0F29DC2EFF29CC2EEF25C
:103070000201F56BF46B200EF36F820EF26F00010C
:10308000D6EC0DF003C09FF202C09EF201C09DF28B
:1030900000C09CF29FC2EDF29EC2ECF29DC2EBF228
:1030A0009CC2EAF27FEC08F001C034F007C2EDF2F6
:1030B00006C2ECF205C2EBF204C2EAF27FEC08F0C1
:1030C00001C035F007C2EDF206C2ECF205C2EBF228
:1030D00004C2EAF27FEC08F00201F16B01C0F0F2E9
:1030E0000001FAEC07F0D88207C2F6F206C2F5F248
:1030F00005C2F4F204C2F3F203C0FAF202C0F9F21C
:1031000001C0F8F200C0F7F2A4EC09F003C0A3F28A
:1031100002C0A2F201C0A1F200C0A0F2A3C2F1F26B
:10312000A2C2F0F2A1C2EFF2A0C2EEF20201F56B70
:10313000F46B200EF36F820EF26F0001D6EC0DF0EF
:1031400003C0A3F202C0A2F201C0A1F200C0A0F22B
:10315000A3C2EDF2A2C2ECF2A1C2EBF2A0C2EAF26B
:103160007FEC08F001C036F07FC2EDF27EC2ECF2D7
:103170007DC2EBF27CC2EAF27FEC08F001C037F0CE
:103180007FC2EDF27EC2ECF27DC2EBF27CC2EAF2CB
:103190007FEC08F00201F16B01C0F0F20001FAECE3
:1031A00007F0D8827FC2F6F27EC2F5F27DC2F4F259
:1031B0007CC2F3F203C0FAF202C0F9F201C0F8F2E5
:1031C00000C0F7F2A4EC09F003C0A7F202C0A6F217
:1031D00001C0A5F200C0A4F2A7C2F1F2A6C2F0F2AB
:1031E000A5C2EFF2A4C2EEF20201F56BF46B200E61
:1031F000F36F820EF26F0001D6EC0DF003C0A7F260
:1032000002C0A6F201C0A5F200C0A4F2A7C2EDF26E
:10321000A6C2ECF2A5C2EBF2A4C2EAF27FEC08F07F
:1032200001C038F021C239F0010E0201EA6FEC6BE7
:10323000280EEB6FEE6B200EED6F020EEF6F0001AC
:1032400051EF0EF002013BA71DD057C2EAF2000178
:1032500070EC0BF003C0AFF202C0AEF201C0ADF2F1
:1032600000C0ACF2050E0201EA6F0001E6EF0EF0BD
:1032700003C0B7F202C0B6F201C0B5F200C0B4F2AA
:1032800002013B9736511B0822E2FF0A03E1355148
:1032900020081DE253531BE1EE6BED6BEC6B800ECF
:1032A000EB6FB7C2F2F2B6C2F1F2B5C2F0F2B4C23D
:1032B000EFF20001A9EC0EF002E38A829392010E74
:1032C00002011E6F8A9493948A909390CBD01653E8
:1032D00031E1532D2FD0AFC2EEF2AEC2EDF2ADC24E
:1032E000ECF2ACC2EBF2F26BF16B5C0EF06F850EA0
:1032F000EF6F0001A9EC0EF016E20201EE6BED6B30
:10330000110EEC6F860EEB6FAFC2F2F2AEC2F1F2AD
:10331000ADC2F0F2ACC2EFF20001A9EC0EF0D8B0F1
:1033200002D0020107D0020E02011E6F8A9493940C
:103330008A909390385101080BE2FF0A03E137515C
:10334000D00806E2010E1F6F8A9493948A9093909E
:103350001D2D3CD0958A83AA39D0958883A836D074
:103360001F5334E11E5332E1958C83AC05D000012C
:10337000E0EF0FF003D002018A909390020108ABB6
:1033800003D08A82939202D08A929392958E83AED2
:103390001CD009B11AD0020EEA6FFA0EF06F0001CC
:1033A000E5EC07F00201EA2FF8D7958E83AE0DD039
:1033B000040EEA6FFA0EF06F0001E5EC07F002016F
:1033C000EA2FF8D78A929392098102D08A9093903B
:1033D000D882ABC2F6F2AAC2F5F2A9C2F4F2A8C230
:1033E000F3F2FA6BF96BF86B7F0EF76F0001A4EC48
:1033F00009F003C0EEF202C0EDF201C0ECF200C031
:10340000EBF2AFC2F2F2AEC2F1F2ADC2F0F2ACC278
:10341000EFF2A9EC0EF001E20AE1020156510308B5
:10342000D8B402D0000103D0010E536F566F0201D1
:10343000162D04D08A8293928A9093901651030895
:1034400011E1958883A80ED02551010803E38A92E3
:10345000939202D08A8293928A9093901D5103088E
:1034600001E1FF00958A216B83BA212B9588226B9D
:1034700083B8222B9580236B83B0232B9582246BFA
:1034800083B2242BAFC2EDF2AEC2ECF2ADC2EBF2CE
:10349000ACC2EAF200017FEC08F00201F16B01C05E
:1034A000F0F20001FAEC07F0D882AFC2F6F2AEC239
:1034B000F5F2ADC2F4F2ACC2F3F203C0FAF202C00C
:1034C000F9F201C0F8F200C0F7F2A4EC09F003C071
:1034D0008BF202C08AF201C089F200C088F28BC26E
:1034E000F1F28AC2F0F289C2EFF288C2EEF2020172
:1034F000F56BF46B200EF36F820EF26F0001D6ECC9
:103500000DF003C08BF202C08AF201C089F200C044
:1035100088F2B7C2EDF2B6C2ECF2B5C2EBF2B4C2B9
:10352000EAF27FEC08F001C025F202013BA307D0CC
:1035300000019BEF11F0A2EC08F002013B9338EF81
:0435400015F003007F
:020000040030CA
:0E00000020CE3E1E000781000FC00FE00F4013
:00000001FF
;PIC18F4550
;CRC=2EDF  CREATED="21-may-16 08:09"
