:04000000C7EF12F044
:08000800046ED8CF05F0E0CF33
:1000100006F00001E9CF0CF0EACF07F0E1CF08F0DD
:10002000E2CF09F0D9CF0AF0DACF0BF0F3CF12F01C
:10003000F4CF13F0FACF14F0FBCF15F000C00EF0A0
:1000400001C00FF002C010F003C011F0F2AA2CEFB3
:1000500000F0F2B4BEEF00F09DA032EF00F09EB0D1
:1000600012EF01F00EC000F00FC001F010C002F05E
:1000700011C003F00CC0E9FF07C0EAFF078E08C0FB
:10008000E1FF09C0E2FF0AC0D9FF0BC0DAFF12C0CE
:10009000F3FF13C0F4FF14C0FAFF15C0FBFF0450B8
:1000A00006C0E0FF05C0D8FF1000F2CF0DF0F29EB1
:1000B000F76AC80FF66E000EF722000EF86E090000
:1000C000F5500DBEF28E1200280C0106312D46614E
:1000D0007374203133340000322D46617374203143
:1000E00032310000332D572E4472792031333400E1
:1000F000342D572E4472792031323100352D536C16
:100100006F7720203132310045562045786861757F
:10011000737420004556204C6C656E61646F20003E
:10012000536F6C656E6F696465202000526573695A
:100130007374656E6369610042757A7A6572202016
:1001400020202000535720507565727461202000D4
:100150005357205265736572766120005465726D45
:100160006F737461746F20004E6976656C54616EB4
:10017000717565004F4646004F4E2000D76AD66A1B
:100180000201422BD8B4432B19AE1ED035531AE1CD
:100190003451050817E343513D5D07E303E1425144
:1001A0003C5D03E38B80949002D08B9094904351FC
:1001B000E90807E2FF0A03E142515F0802E2436BEC
:1001C000426B02D08B809490F294000132EF00F0E9
:1001D0008A9893988A8A939A530E006E002EFED7BF
:1001E000938081B002D01A8201D01A92938281B298
:1001F00002D01A8801D01A988A9A939A8A8893987A
:10020000530E006E002EFED7938081B002D01A8666
:1002100001D01A96938281B202D01A8401D01A9426
:1002200022EF01F09E0ECF6E580ECE6E02012E2BE5
:10023000D8B42F2B302BD8B4312B322BD8B4332B4E
:100240000001C6D70201252D15D03351235C07E3E9
:1002500003E12250325D03E28D84969402D08D94A6
:1002600096942550335D06E303E12450325D02E3AA
:10027000336B326B2F5303E12E51C7083CE21BAAAC
:1002800001D0402B242B19A405D019B603D01C2A69
:10029000D8B41D2A1BAC01D0262B19A005D019B249
:1002A00003D01E2AD8B41F2A19AA03D0202AD8B4F2
:1002B000212A2F6B2E6B1B88362BD8B4372B19A60F
:1002C0000DD019BC0BD00101C75302E0C70705D000
:1002D000C85303E0C8073B0EC76F020119A80BD033
:1002E0000101CB5302E0CB0705D0CC5303E0CC0790
:1002F0003B0ECB6F02019E90000132EF00F02020F8
:10030000204175746F636C617665202020200000A9
:100310002020547574746E61756572204A502020D7
:1003200000004C6F6164696E672E2E2E2E00253002
:100330003375B04320453D253032756D20533D2542
:100340003032750053542E42590054657374204363
:100350006F6D706F6E656E7465730000434F44453A
:100360003A253033750053746554656D7020202034
:1003700025303375200053746554696D6520202045
:100380002530337520004472792054696D65202032
:10039000202530337520000053746554656D70203E
:1003A000202025303375200053746554696D652015
:1003B00020202530337520004472792054696D6502
:1003C000202020253033752000004578204D6F64B3
:1003D00065202020202530337520000053544F50D5
:1003E0002000444F4F52200046494C4C20005445B9
:1003F000524D2000534F4252450054494D45200074
:100400005052455320004C505245530057415445DB
:100410005200484541542000454E442020002020F1
:1004200020202000455848202000202020202000A7
:10043000454E4420200020202020200044525920F6
:100440002000455848202000202020202000535420
:1004500045522000436F6E66696775726163696F0C
:100460006E6573200000545472616D706100020E5D
:10047000EA6E7F0EE96EEF500DE0060E016E006A27
:10048000002EFED7012EFBD77B0E006E002EFED76E
:10049000EF2EF3D7000C02018039F00B006E0F0E27
:1004A00083140010836E00008384030E006E002E00
:1004B000FED783940001000C8390010E02017F6F30
:1004C0000001D5DF02017DA183907DB18380000012
:1004D0008392000083947E397F6F0F0E7F177FC257
:1004E00080F20001D8DF02017E510F0B7F6F806F19
:1004F0000001D1DF000C000E956E839083928394EF
:100500000F0E02017F6F0001B2DF010E02016C6F5E
:100510006C5103080CE3030E806F0001BCDF050E75
:1005200002017F6F0001A3DF02016C2BF1D7020EE5
:10053000806F0001B0DF02016C6B6C51030812E3A5
:10054000036A6C51F2CF6DF2F29E0001AEDD020142
:100550006DBFF28E6D6F7D6B7E6F0001ADDF0201AE
:100560006C2BEBD7000182EF15F08E0E006E73C27C
:1005700001F072C202F0036A015209E102C001F007
:10058000026A080E005E015202E1006A08D0D890AB
:1005900001BE04D0023601360006F9D7019E000CD8
:1005A000F2CF6CF2F29EAA6A140EA96EA69CA69EC9
:1005B000A680A85002016CBFF28E736B726F0001AF
:1005C000D4DF03C0F9F102C0F8F101C0F7F100C0B7
:1005D000F6F10A0E02017F6F000149DFF2CF6CF2E3
:1005E000F29EAA6A150EA96EA69CA69EA680A85089
:1005F00002016CBFF28E0101D26F0A0E02017F6F01
:10060000000135DFF2CF6CF2F29EAA6A160EA96ED7
:10061000A69CA69EA680A85002016CBFF28E010186
:10062000D36F0A0E02017F6F000121DFF2CF6CF25F
:10063000F29EAA6A180EA96EA69CA69EA680A85035
:1006400002016CBFF28E0101D46F0A0E02017F6FAE
:1006500000010DDFF2CF6CF2F29EAA6A1A0EA96EAB
:10066000A69CA69EA680A85002016CBFF28E1E6FAB
:100670000A0E7F6F0001FBDEF2CF6CF2F29EAA6AD7
:100680001B0EA96EA69CA69EA680A85002016CBF58
:10069000F28E1F6F0A0E7F6F0001E9DEF2CF6CF25F
:1006A000F29EAA6A250EA96EA69CA69EA680A850B8
:1006B00002016CBFF28E296F0A0E7F6F0001D7DE38
:1006C000F2CF6CF2F29EAA6A260EA96EA69CA69E96
:1006D000A680A85002016CBFF28E2A6F0A0E7F6FAF
:1006E0000001C5DE2AC23BF229C23AF20A0E02011B
:1006F0007F6F0001BCDEF2CF6CF2F29EAA6A270E79
:10070000A96EA69CA69EA680A85002016CBFF28E80
:100710000101D56F0A0E02017F6F0001A8DE020100
:10072000286B28510408D8A0C6D0036A2851580F56
:10073000E96E020E0320EA6E2851040DF350640F97
:100740006E6FF2CF6FF2F29EAA6A6EC2A9FFA69CEC
:10075000A69EA680A8506FBFF28EEF6E0A0E7F6F26
:10076000000185DE036A02012851580FE96E020E6E
:100770000320EA6EEF50890809E2036A2851580FF6
:10078000E96E020E0320EA6E790EEF6E036A2851BD
:100790005D0FE96E020E0320EA6E2851040DF3503E
:1007A000650F6E6FF2CF6FF2F29EAA6A6EC2A9FF5A
:1007B000A69CA69EA680A8506FBFF28EEF6E0A0E72
:1007C0007F6F000154DE036A020128515D0FE96E5C
:1007D000020E0320EA6EEF50630809E2036A285113
:1007E0005D0FE96E020E0320EA6E0A0EEF6E036AD9
:1007F0002851620FE96E020E0320EA6E2851040DA3
:10080000F350660F6E6FF2CF6FF2F29EAA6A6EC25D
:10081000A9FFA69CA69EA680A8506FBFF28EEF6E81
:100820000A0E7F6F000123DE036A02012851620F66
:10083000E96E020E0320EA6EEF50630809E2036AD4
:100840002851620FE96E020E0320EA6E030EEF6E6E
:10085000036A2851670FE96E020E0320EA6E2851E1
:10086000040DF350670F6E6FF2CF6FF2F29EAA6A1B
:100870006EC2A9FFA69CA69EA680A8506FBFF28E4E
:10088000EF6E0A0E7F6F0001F2DD036A020128514C
:10089000670FE96E020E0320EA6EEF50040809E2CA
:1008A000036A2851670FE96E020E0320EA6E010EFB
:1008B000EF6E282B36D7000197EF15F071C278F252
:1008C00002017551781B78AF05D0D894D89071BFCC
:1008D000D8802FD071C278F274C279F27051795FEA
:1008E00006E078AF26D0D850010AD86E22D075C263
:1008F00079F27151795F06E078AF1BD0D850010AC8
:10090000D86E17D076C279F27251795F06E078AF6F
:1009100010D0D850010AD86E0CD077C279F273513A
:10092000795F06E078AF05D0D850010AD86E01D0C3
:10093000D8900001000C0201736B726B200E716F76
:10094000830E706FF9C177F2F8C176F2F7C175F2D4
:10095000F6C174F20001B2DF22E30101F96BF86B1A
:10096000200EF76F820EF66FAA6A140EA96E0A0E99
:10097000A86EA69CA69EA684F250006EF29E0F0161
:10098000550EA76EAA0EA76EA682A6B2FED7A69493
:100990000050F2120A0E02017F6F000168DD0101B2
:1009A000D2510A081CE2D26BAA6A150EA96EA86A77
:1009B000A69CA69EA684F250006EF29E0F01550ED4
:1009C000A76EAA0EA76EA682A6B2FED7A694005066
:1009D000F2120A0E02017F6F000149DD0101D351BD
:1009E0000A081CE2D36BAA6A160EA96EA86AA69C16
:1009F000A69EA684F250006EF29E0F01550EA76EC1
:100A0000AA0EA76EA682A6B2FED7A6940050F21236
:100A10000A0E02017F6F00012ADD0101D451500846
:100A20001DE2500ED46FAA6A180EA96E500EA86E61
:100A3000A69CA69EA684F250006EF29E0F01550E53
:100A4000A76EAA0EA76EA682A6B2FED7A6940050E5
:100A5000F2120A0E02017F6F000109DD0201736BC1
:100A60001EC272F2000181DD0201736B726B200EF7
:100A7000716F820E706F03C077F202C076F201C010
:100A800075F200C074F2000119DF1EE3010E0201CD
:100A90001E6FAA6A1A0EA96E010EA86EA69CA69ECB
:100AA000A684F250006EF29E0F01550EA76EAA0E9C
:100AB000A76EA682A6B2FED7A6940050F2120A0E26
:100AC00002017F6F0001D3DC0201736B1FC272F25F
:100AD00000014BDD0201736B726B340E716F850E7A
:100AE000706F03C077F202C076F201C075F200C0E9
:100AF00074F20001E3DE1EE3140E02011F6FAA6A06
:100B00001B0EA96E140EA86EA69CA69EA684F2507B
:100B1000006EF29E0F01550EA76EAA0EA76EA6825A
:100B2000A6B2FED7A6940050F2120A0E02017F6F01
:100B300000019DDC02013B51E9083BE2FF0A03E1B1
:100B40003A51600836E23B6B3A6BAA6A250EA96EF1
:100B5000A86AA69CA69EA684F250006EF29E0F0183
:100B6000550EA76EAA0EA76EA682A6B2FED7A694B1
:100B70000050F2120A0E02017F6F000178DCAA6AAF
:100B8000260EA96EA86AA69CA69EA684F250006EA8
:100B9000F29E0F01550EA76EAA0EA76EA682A6B2F0
:100BA000FED7A6940050F2120A0E02017F6F0001D8
:100BB0005EDC0101D55164081EE2500ED56FAA6AB1
:100BC000270EA96E500EA86EA69CA69EA684F25073
:100BD000006EF29E0F01550EA76EAA0EA76EA6829A
:100BE000A6B2FED7A6940050F2120A0E02017F6F41
:100BF00000013DDC010100019FEF15F0010E020133
:100C00007B5DFC0F15E2040F000121EF06F0800E62
:100C100002017C6F0DD0C00E02017C6F09D0940ED2
:100C200002017C6F05D0D40E02017C6F01D002015D
:100C3000010E7A5D7C277D6B7CC27EF200013CDC7C
:100C4000000CF2CF0DF0F29EE824F76AF7366D0F34
:100C5000F66E0C0EF722000EF86EFB6E0A00F550D1
:100C6000FA6E0800F5500DBEF28EF96E0E0C160CE1
:100C70001E0C260C02017951F10802E1EE0E796F8B
:100C80007951B00802E1DF0E796F79510C0A000149
:100C900005E0060A12E0020A19E020D002017D6B8D
:100CA000010E7E6F000108DC010E176E020E0201BC
:100CB0007F6F000137EC02F01AD0172A010E0201F3
:100CC0007A6F17C07BF2000199DF11D002017D6BB2
:100CD000100E7E6F00015CEC02F009D0010E0201E3
:100CE0007D6F79C27EF200015CEC02F000D083904F
:100CF000000C0900F55210E0F6CF6DF2F7CF6EF25E
:100D0000F8CF6FF2F5CF79F2B5DF6DC2F6FF6EC2A4
:100D1000F7FF6FC2F8FFEDD7000C02016D35006ED2
:100D20000036FC0E001600C001F0C250C30B0010CC
:100D3000C26E010E7F6F000137EC02F0C282C2B2B8
:100D4000FED7C4CF73F2C3CF72F200010EDC03C032
:100D500071F202C070F201C06FF200C06EF26EC29A
:100D600000F06FC201F070C202F071C203F0000C1B
:100D700002017151D8B4A5D07D6F7551D8B4A1D0FE
:100D80007D5F05E37F0E7D27D8B09BD006D0810E16
:100D90007D5FD8A096D0D8B494D07DC200F0016A0F
:100DA000026A036A7C6B72C27BF27B8F73C27AF237
:100DB00074C279F2190E7D6F7851795F0DE2010EE0
:100DC0007A5F0AE27B5F08E27C5F06E27C2B7B2B8A
:100DD0007A2B7851792728D077517A5F12E2010E69
:100DE0007B5F0FE27C5F0DE27C2B7B2B77517A27B8
:100DF0007851792719E37A2B17E17B2B15E17C2BAE
:100E000013D0765180097B5F0EE2010E7C5F0BE20E
:100E10007C2B765180097B2777517A27E9E37B2B5E
:100E2000E7E17C2BE5D703807D2F01D00BD0D89054
:100E300079377A377B377C37D890033602360136DC
:100E40007E37BAD77EA106D0D89001320232033263
:100E50007E3302D0000635E07EBF1ED0D8907937B1
:100E60007A377B377C377851795F07E2010E7A5FFA
:100E700004E27B5F02E27C5F1AE377517A5F05E26E
:100E8000010E7B5F02E27C5F12E3765180097B5F9B
:100E900003E2010E7C5F0BE3032A09E1022A07E16A
:100EA000012A05E1002A0DE001320232033272C24A
:100EB0007DF276517D1B7DAF02D0018E06D0019E62
:100EC00004D0006A016A026A036A0001000C800E05
:100ED000D8A202D00201761B02017B6B7C6B72C22E
:100EE0007AF276517A1B7151D8B4DFD0796F006EE7
:100EF0007551D8B4E3D0795FD8B483D03EE376C2DD
:100F00007FF27F8F77C27EF278C27DF27C6BD890C1
:100F10007F337E337D337C33792FF8D77AAF03D09C
:100F20007B81E0D07B9179917B89020EEA6E740E11
:100F3000E96EEBD07B997ABF0AD079A113D07F33C9
:100F40007E337D337C33002AD8B4C7D00BD07FBF2B
:100F50000CD0D8907C377D377E377F370006D8B4E9
:100F6000BCD0F5D77B8D6DD07B9D72C27AF272AF0B
:100F700002D07F8FABD07F9FA9D075C279F275C2A6
:100F800000F07151795F72C27FF27F8F73C27EF27F
:100F900074C27DF27C6BD8907F337E337D337C339B
:100FA000792FF8D77AAF03D07B839CD07B9379914C
:100FB0007B8B020EEA6E780EE96EA7D07B9B7ABF20
:100FC0000AD079A113D07F337E337D337C33002A5E
:100FD000D8B483D00BD07FBF0CD0D8907C377D376E
:100FE0007E377F370006D8B478D0F5D77B8F29D0ED
:100FF0007B9F76C27AF276AF02D07F8F67D07F9FD9
:1010000065D076C27FF27F8F77C27EF278C27DF2A2
:101010007AAF04D07F9F7B8565D07B957C6B79917F
:10102000020EEA6E740EE96E70D07ABF1CD072C2E6
:101030007AF279A106D07F337E337D337C33002A68
:101040004CE07CAF0BD07D2B09E17E2B07E17F2BA1
:1010500005E17F337E337D33002A3FE07BBD84D7BB
:101060007BBFC6D71CD0800E7F1B7FAF04D03AD089
:1010700076C27AF20AD072C27AF27F5306E17E53C8
:1010800004E17D5302E1006A21D07FBF08D0D890EF
:101090007C377D377E377F37002EF7D71ED07AAF6B
:1010A00002D07F8F13D07F9F11D075C200F076C21F
:1010B0007FF277C27EF278C27DF208D071C200F072
:1010C00072C27FF273C27EF274C27DF27FC201F0FF
:1010D0007EC202F07DC203F034D0006A016A026A67
:1010E000036A2FD07C6B7D1F7E1F7F1F7C1F7C2B94
:1010F00005E17D2B03E17E2B01E17F2B7BB112D734
:101100007BB354D77BB589D7B3D7EF507D2705E3A1
:101110007E2B03E17F2BD8B47981ED52EF507E27EF
:1011200003E37F2BD8B47981ED52EF50EFBE01D0AD
:10113000800A7F27D8B079817BB9FCD67BBB3ED7AC
:1011400074D70001000C02016D516F03F3CF01F061
:10115000F4CF00F07003F35000266E516F03F3508C
:101160000020026E0001000C02017951D8B471D048
:10117000006E7D51D8B46DD0002604E3810E0026A8
:1011800068E204D07F0E005E64E363E07AC281F21D
:101190007E51811B7A8F7E8F7C518003F4CF83F246
:1011A0007B517F03F4CF03F0F3CF82F28003F3503F
:1011B0008327F4508223000E03227C517F03F350D7
:1011C0008327F4508223000E026A032202227A51FE
:1011D0008003F3508227F4500322000E02227A513A
:1011E0007F03F3500326F4500222000E016A01220D
:1011F0007C517E03F3508227F4500322000E02221A
:1012000001227B517E03F3500326F4500222000E8C
:1012100001227A517E03F3500226F4500122002A63
:1012200001BE05D082370336023601360006000EB5
:1012300082AF0AD0032A02220122015005E10250A6
:1012400003E1035001E1002A81BF018E81AF019EBD
:1012500004D0006A016A026A036A0001000C0101FD
:10126000ED6BEC6BEB6BEA6B02016D6B000155DD16
:1012700003C0D9F102C0D8F101C0D7F100C0D6F146
:10128000D9C174F2D8C173F2D7C172F2D6C171F26A
:10129000EC0E0201786FD10E776F590E766F850EC6
:1012A000756F000165DD03C0D9F102C0D8F101C03E
:1012B000D7F100C0D6F1D892D9C174F2D8C173F277
:1012C000D7C172F2D6C171F25C0E0201786F8F0E37
:1012D000776F6E0E766F820E756F0001F8DD03C0BA
:1012E000D9F102C0D8F101C0D7F100C0D6F1020196
:1012F000746BC00E736F7F0E726F880E716FD9C1E1
:1013000078F2D8C177F2D7C176F2D6C175F2000172
:101310002FDD00C06DF201C06EF202C06FF203C09B
:1013200070F2D88203C074F202C073F201C072F28C
:1013300000C071F20201786B776B766B7F0E756F70
:101340000001C5DD0201746BD00E736F540E726F15
:101350008B0E716F03C078F202C077F201C076F293
:1013600000C075F2000104DD03C0DDF102C0DCF154
:1013700001C0DBF100C0DAF1010E02016C5D010178
:10138000D15D02E001E3D16B02016E6BD1C16DF260
:10139000706B040E6F6F0001D6DE0150260FE96EF0
:1013A000000E0220EA6EDAC1EFFFDBC1ECFFDCC108
:1013B000ECFFDDC1ECFF0101D12BD06B02016C51C0
:1013C0000101D05D3EE202016E6BD0C16DF2706B27
:1013D000040E6F6F0001B7DE02C003F00150260F4C
:1013E000E96E000E0220EA6EEFCF00F0ECCF01F0C4
:1013F000ECCF02F0ECCF03F0EACF6EF2E9CF6DF262
:10140000D892EDC174F2ECC173F2EBC172F2EAC191
:1014100071F203C078F202C077F201C076F200C028
:1014200075F255DD6EC2EAFF6DC2E9FF03C0EDF152
:1014300002C0ECF101C0EBF100C0EAF10101D02BD8
:10144000BDD70201736B6CC272F20001B5EC02F001
:10145000EDC174F2ECC173F2EBC172F2EAC171F248
:1014600003C078F202C077F201C076F200C075F2D4
:101470007FDC03C0EDF102C0ECF101C0EBF100C074
:10148000EAF1EDC17CF2ECC17BF2EBC17AF2EAC188
:1014900079F2EDC180F2ECC17FF2EBC17EF2EAC1DC
:1014A0007DF262DE00C06DF201C06EF202C06FF22A
:1014B00003C070F203C07CF202C07BF201C07AF27A
:1014C00000C079F215C280F214C27FF213C27EF21C
:1014D00012C27DF249DE00C06DF201C06EF202C0A0
:1014E0006FF203C070F2EDC17CF2ECC17BF2EBC194
:1014F0007AF2EAC179F219C280F218C27FF217C2F9
:101500007EF216C27DF230DED89270C274F26FC2E3
:1015100073F26EC272F26DC271F203C078F202C051
:1015200077F201C076F200C075F2D1DC00C06DF236
:1015300001C06EF202C06FF203C070F2D89203C015
:1015400074F202C073F201C072F200C071F21DC2E7
:1015500078F21CC277F21BC276F21AC275F2B7DCBF
:1015600003C0F1F102C0F0F101C0EFF100C0EEF1F3
:101570000201736BD2C172F20001B5EC02F000C03F
:101580006DF201C06EF202C06FF203C070F2020190
:10159000736BD3C172F20001B5EC02F0D88270C255
:1015A00074F26FC273F26EC272F26DC271F203C056
:1015B00078F202C077F201C076F200C075F287DCE3
:1015C000D892F1C174F2F0C173F2EFC172F2EEC1C0
:1015D00071F203C078F202C077F201C076F200C067
:1015E00075F275DC03C0F1F102C0F0F101C0EFF15A
:1015F00000C0EEF1EEC100F0EFC101F0F0C102F069
:10160000F1C103F0000CAA6A140EA96E0A0EA86EAE
:10161000A69CA69EA684F250006EF29E0F01550E67
:10162000A76EAA0EA76EA682A6B2FED7A6940050F9
:10163000F2120A0E02017F6F000137EC02F0AA6A73
:10164000150EA96EA86AA69CA69EA684F250006EEE
:10165000F29E0F01550EA76EAA0EA76EA682A6B225
:10166000FED7A6940050F2120A0E02017F6F00010D
:1016700037EC02F0AA6A160EA96EA86AA69CA69E6E
:10168000A684F250006EF29E0F01550EA76EAA0EB0
:10169000A76EA682A6B2FED7A6940050F2120A0E3A
:1016A00002017F6F000137EC02F0AA6A1A0EA96EE0
:1016B000010EA86EA69CA69EA684F250006EF29E15
:1016C0000F01550EA76EAA0EA76EA682A6B2FED770
:1016D000A6940050F2120A0E02017F6F000137EC4F
:1016E00002F0AA6A1B0EA96E140EA86EA69CA69EF6
:1016F000A684F250006EF29E0F01550EA76EAA0E40
:10170000A76EA682A6B2FED7A6940050F2120A0EC9
:1017100002017F6F000137EC02F0AA6A270EA96E62
:101720004B0EA86EA69CA69EA684F250006EF29E5A
:101730000F01550EA76EAA0EA76EA682A6B2FED7FF
:10174000A6940050F2120A0E02017F6F000137ECDE
:1017500002F0AA6A250EA96EA86AA69CA69EA68477
:10176000F250006EF29E0F01550EA76EAA0EA76EE4
:10177000A682A6B2FED7A6940050F2120A0E02016B
:101780007F6F000137EC02F0AA6A260EA96EA86AE4
:10179000A69CA69EA684F250006EF29E0F01550EE6
:1017A000A76EAA0EA76EA682A6B2FED7A694005078
:1017B000F2120A0E02017F6F000137EC02F0020103
:1017C000286B28510408D8A0AED02851040DF3503E
:1017D000640F6C6F036A2851440FE96E020E0320F8
:1017E000EA6EEFCF6DF2AA6A6CC2A9FF6DC2A8FFC4
:1017F000A69CA69EA684F250006EF29E0F01550E86
:10180000A76EAA0EA76EA682A6B2FED7A694005017
:10181000F2120A0E02017F6F000137EC02F00201A2
:101820002851040DF350650F6C6F036A2851490F5E
:10183000E96E020E0320EA6EEFCF6DF2AA6A6CC267
:10184000A9FF6DC2A8FFA69CA69EA684F250006EBA
:10185000F29E0F01550EA76EAA0EA76EA682A6B223
:10186000FED7A6940050F2120A0E02017F6F00010B
:1018700037EC02F002012851040DF350660F6C6F33
:10188000036A28514E0FE96E020E0320EA6EEFCF75
:101890006DF2AA6A6CC2A9FF6DC2A8FFA69CA69EA3
:1018A000A684F250006EF29E0F01550EA76EAA0E8E
:1018B000A76EA682A6B2FED7A6940050F2120A0E18
:1018C00002017F6F000137EC02F002012851040D84
:1018D000F350670F6C6F036A2851530FE96E020EC5
:1018E0000320EA6EEFCF6DF2AA6A6CC2A9FF6DC247
:1018F000A8FFA69CA69EA684F250006EF29E0F0141
:10190000550EA76EAA0EA76EA682A6B2FED7A69403
:101910000050F2120A0E02017F6F000137EC02F054
:101920000201282B4ED78B889498040E6C6FFA0E08
:101930007F6F000137EC02F002016C2FF8D7FF0037
:101940000001FCEF15F00101C16BC06BBF6BBE6BFA
:10195000010E02016D6F00018DEC06F003C005F26F
:1019600002C004F201C003F200C002F205C27CF220
:1019700004C27BF203C27AF202C279F20201806BE6
:101980007F6B200E7E6F770E7D6F0001B4EC08F048
:1019900003C005F202C004F201C003F200C002F26B
:1019A000D88205C274F204C273F203C272F202C298
:1019B00071F2CD0E0201786FCC0E776F4C0E766F00
:1019C0007C0E756F000167EC07F000C06DF201C07E
:1019D0006EF202C06FF203C070F203C074F202C074
:1019E00073F201C072F200C071F211C278F210C23B
:1019F00077F20FC276F20EC275F2B8EC06F003C0B1
:101A000009F202C008F201C007F200C006F209C2E2
:101A100073F208C272F207C271F206C270F20201DA
:101A2000776B766B756B746B00015EEC04F005E30D
:101A30000201096B086B076B066B010E02016C5DFE
:101A40003E5D02E001E33E6B3E51040DF350036A3C
:101A5000660FE96E010E0320EA6E06C2EFFF07C2B1
:101A6000ECFF08C2ECFF09C2ECFF3E2B3F6B010EFE
:101A70006C5D3F5D01E038E23F51040DF350036AB5
:101A8000660FE96E010E0320EA6EEFCF00F0ECCF97
:101A900001F0ECCF02F0ECCF03F0EACF6EF2E9CF29
:101AA0006DF2D892C1C174F2C0C173F2BFC172F2BB
:101AB000BEC171F203C078F202C077F201C076F2C3
:101AC00000C075F2000167EC07F06EC2EAFF6DC25C
:101AD000E9FF03C0C1F102C0C0F101C0BFF100C005
:101AE000BEF102013F2BC3D7736B6CC272F20001CF
:101AF000B5EC02F0C1C174F2C0C173F2BFC172F2A1
:101B0000BEC171F203C078F202C077F201C076F272
:101B100000C075F2B8EC06F003C0C1F102C0C0F11C
:101B200001C0BFF100C0BEF1BEC100F0BFC101F0F5
:101B3000C0C102F0C1C103F04CEF16F08E0E006E72
:101B400002016C51005E6DC202F06EC201F0028EA5
:101B5000005209E0D890025202E1015204E0023240
:101B60000132002EF7D76DAF05D0011E021E012AEB
:101B7000D8B4022A0001000C02017251016A715DA1
:101B800003E271C200F00CD0006A080E736F713767
:101B900000367251005CD8B0006E0136732FF7D753
:101BA0000001000C01506FC271F2640E0201726FED
:101BB0000001E2DF00C06FF20150300E08E10201C7
:101BC00070A310D070B70ED070B9200E04D00201EF
:101BD000709770997081012601C079F200013AEC8A
:101BE00006F002016FC271F20A0E726F0001C4DFCB
:101BF00000C06FF20150300E08E1020170B70BD047
:101C000070A109D070B9200E0001012601C079F23F
:101C10003AEC06F00201300E6F276FC279F2000134
:101C20003AEC06F0000C0900F6CF70F2F7CF71F233
:101C3000F8CF72F2F5CF79F23AEC06F070C2F6FF07
:101C400071C2F7FF72C2F8FF02016F2F01D002D0FC
:101C50000001E9D70001000C02017951B608796F43
:101C6000036A7AC27DF27A8FD8907A337B337C33E1
:101C70000332023201320032792FF6D77DAF0BD01A
:101C8000001E011E021E031E002AD8B4012AD8B469
:101C9000022AD8B4032A0001BAEF0EF0006A016AE2
:101CA000026A036A0201816B826B836B846B8051D1
:101CB0007F117E117D112CE0200E856FD890793731
:101CC0007A377B377C378137823783378437805147
:101CD000845D08E17F51835D05E17E51825D02E113
:101CE0007D51815D0FE37D51815F7E51D8A07E3DA6
:101CF000825F7F51D8A07F3D835F8051D8A0803D17
:101D0000845FD8800036013602360336852FD6D759
:101D1000020EEA6E810EE96E0001000CE95002012C
:101D2000716F7051736F1CE06FC27CF26EC27BF2F8
:101D30006DC27AF26CC279F2806B7F6B200E7E6F7F
:101D4000820E7D6F0001B4EC08F003C06FF202C098
:101D50006EF201C06DF200C06CF20201732FE4D785
:101D60006FC27CF26EC27BF26DC27AF26CC279F203
:101D7000000172D703C06FF202C06EF201C06DF2B3
:101D800000C06CF202016FAF0DD07107718B6C1F38
:101D90006D1F6E1F6F1F6C2BD8B46D2BD8B46E2BBC
:101DA000D8B46F2B3B0E786F9A0E776FCA0E766F92
:101DB000756B0A0E736F7051D8B4712B6FC27CF2C1
:101DC0006EC27BF26DC27AF26CC279F278C280F296
:101DD00077C27FF276C27EF275C27DF200015EDFCD
:101DE0000150EFCF6CF2ECCF6DF2ECCF6EF2ECCF96
:101DF0006FF2005213E102017029735DD8A402D082
:101E000000010CD071510DE00F0B735D01E044E255
:101E100071BF42D071BD05D0200E37D0200E020117
:101E2000711771AB0FD0719B7051D8A4710700501E
:101E3000716F2D0E796F00013AEC06F002017151BD
:101E4000006E716B7051735D0DE10050716F2E0E5D
:101E5000796F00013AEC06F002017151006E200E1C
:101E60007117000E300E71AB10D0719B7051D8A459
:101E700071070050716F2D0E796F00013AEC06F07A
:101E800002017151006E716B300E002600C079F2B4
:101E900000013AEC06F0020178C27CF277C27BF2D4
:101EA00076C27AF275C279F2806B7F6B7E6B0A0E16
:101EB0007D6F0001F3DE03C078F202C077F201C04B
:101EC00076F200C075F20201732F78D70001000C82
:101ED000EACF74F2E9CF73F202016D39F0096F6F46
:101EE0006F27E20F706F320F726F6D510F0B7027FB
:101EF00070277227E90F716F712771276C390F0BEB
:101F00007127722771377237721F72376C510F0B3E
:101F100072276F37070E6E6F0A0E71077227FDE387
:101F200070077127FDE36F077027FDE36E076F27CA
:101F3000FDE3020EEA6E6E0EE96E070E7315739DD9
:101F4000E926720EE95CD8B4738DEF50006E08E19B
:101F500073BD06D073B916D073B702D0200E03D06C
:101F600073877399300E0026EACF6DF2E9CF6CF2D9
:101F700000C079F200013AEC06F06DC2EAFF6CC2D3
:101F8000E9FF0201EE5073ADDCD70001000C020145
:101F90004151040DF350036AB60FE96E010E0320A0
:101FA000EA6EEEC1EFFFEFC1ECFFF0C1ECFFF1C153
:101FB000ECFF412B415101081EE2416BD882BDC1AB
:101FC00074F2BCC173F2BBC172F2BAC171F2B9C191
:101FD00078F2B8C177F2B7C176F2B6C175F20001F6
:101FE00067EC07F003C0C5F102C0C4F101C0C3F142
:101FF00000C0C2F1020100013AEF10F00201736B60
:102000001FC272F20001B5EC02F003C074F202C00C
:1020100073F201C072F200C071F20201786B776B4B
:10202000766B800E756F0001B8EC06F000C06CF2A4
:1020300001C06DF202C06EF203C06FF20201736B59
:1020400024C272F20001B5EC02F06FC273F26EC2EC
:1020500072F26DC271F26CC270F203C077F202C00C
:1020600076F201C075F200C074F25EEC04F001E299
:1020700003E18DD70201246B0201736B2BC272F254
:102080000001B5EC02F0D89201C274F200C273F202
:10209000FFC172F2FEC171F203C078F202C077F2A2
:1020A00001C076F200C075F267EC07F000C06CF278
:1020B00001C06DF202C06EF203C06FF2D88203C09D
:1020C00074F202C073F201C072F200C071F20DC26C
:1020D00078F20CC277F20BC276F20AC275F267ECA4
:1020E00007F003C0E9F102C0E8F101C0E7F100C068
:1020F000E6F1660E0201736F726F716F7F0E706F83
:10210000E9C177F2E8C176F2E7C175F2E6C174F28F
:1021100000015EEC04F0D8A012D1E9C173F2E8C16D
:1021200072F2E7C171F2E6C170F20201776B766B71
:10213000700E756F820E746F00015EEC04F0D8A013
:10214000FED0C5C173F2C4C172F2C3C171F2C2C183
:1021500070F29A0E0201776F990E766F190E756FF5
:102160007D0E746F00015EEC04F0D8A0E8D0E5C1EC
:1021700073F2E4C172F2E3C171F2E2C170F20201E2
:10218000776B766B756B810E746F00015EEC04F0FB
:10219000D8A0D4D01B8A02011F51405DD8A0CCD05A
:1021A000406BC5C173F2C4C172F2C3C171F2C2C146
:1021B00070F2776B766B800E756F7E0E746F000118
:1021C0005EEC04F038E30201736B1EC272F2000190
:1021D000B5EC02F0D89203C074F202C073F201C0F1
:1021E00072F200C071F2CD0E0201786FCC0E776FE3
:1021F0004C0E766F7C0E756F000167EC07F0D8927D
:10220000F9C174F2F8C173F2F7C172F2F6C171F25A
:1022100003C078F202C077F201C076F200C075F216
:1022200067EC07F003C0F9F102C0F8F101C0F7F163
:1022300000C0F6F180D0C5C173F2C4C172F2C3C14F
:1022400071F2C2C170F2CD0E0201776FCC0E766FC3
:10225000756F7B0E746F00015EEC04F038E30201D1
:10226000736B1EC272F20001B5EC02F0D88203C09B
:1022700074F202C073F201C072F200C071F2CD0EAE
:102280000201786FCC0E776F4C0E766F7C0E756FF7
:10229000000167EC07F0D892F9C174F2F8C173F24B
:1022A000F7C172F2F6C171F203C078F202C077F2A0
:1022B00001C076F200C075F267EC07F003C0F9F1D7
:1022C00002C0F8F101C0F7F100C0F6F134D002010C
:1022D000736B1EC272F20001B5EC02F0D88203C02B
:1022E00074F202C073F201C072F200C071F2020116
:1022F000786B776B766B7E0E756F000167EC07F07D
:10230000D892F9C174F2F8C173F2F7C172F2F6C152
:1023100071F203C078F202C077F201C076F200C019
:1023200075F267EC07F003C0F9F102C0F8F101C0E3
:10233000F7F100C0F6F1020103D000011B9A02017F
:10234000E9C173F2E8C172F2E7C171F2E6C170F25D
:102350009A0E776F990E766F756F7D0E746F000110
:102360005EEC04F008E3FDC1F9F1FCC1F8F1FBC13A
:10237000F7F1FAC1F6F1F9C173F2F8C172F2F7C1DF
:1023800071F2F6C170F20201776B766B756B7F0E9E
:10239000746F00015EEC04F006E30101F96BF86B69
:1023A000F76B7F0EF66FE9C173F2E8C172F2E7C115
:1023B00071F2E6C170F20201776B766B756B746B2C
:1023C00000015EEC04F006E30101E96BE86BE76BEA
:1023D000E66B0001E9C17CF2E8C17BF2E7C17AF269
:1023E000E6C179F2F9C180F2F8C17FF2F7C17EF25D
:1023F000F6C17DF2B4EC08F003C0F5F102C0F4F1CF
:1024000001C0F3F100C0F2F10201736B2BC272F252
:102410000001B5EC02F003C073F202C072F201C019
:1024200071F200C070F2F5C177F2F4C176F2F3C137
:1024300075F2F2C174F25EEC04F00FE30201736B0B
:102440002BC272F20001B5EC02F003C0F5F102C03C
:10245000F4F101C0F3F100C0F2F1F5C173F2F4C17F
:1024600072F2F3C171F2F2C170F20201776B766B16
:10247000756B746B00015EEC04F005E30101F56B14
:10248000F46BF36BF26B0201736B2BC272F20001FF
:10249000B5EC02F0F5C174F2F4C173F2F3C172F25B
:1024A000F2C171F203C078F202C077F201C076F295
:1024B00000C075F2B8EC06F000C06CF201C06DF21D
:1024C00002C06EF203C06FF203C07CF202C07BF266
:1024D00001C07AF200C079F2E1C180F2E0C17FF27E
:1024E000DFC17EF2DEC17DF2B4EC08F003C0E5F19D
:1024F00002C0E4F101C0E3F100C0E2F1E5C174F211
:10250000E4C173F2E3C172F2E2C171F20A0E020198
:10251000786FD70E776F230E766F770E756F000189
:10252000B8EC06F003C06FF202C06EF201C06DF2AB
:1025300000C06CF29EEC0DF002C023F001C022F04E
:10254000E1C174F2E0C173F2DFC172F2DEC171F277
:102550000A0E0201786FD70E776F230E766F770E13
:10256000756F0001B8EC06F003C06FF202C06EF2A6
:1025700001C06DF200C06CF29EEC0DF002C025F0BF
:1025800001C024F0010E0201256F0001000CF86A61
:10259000D09E078EEA6AE96A1890189218941896E5
:1025A0001898189A189C189E1990199219941996AF
:1025B0001998199A199C199E1A901A921A941A9697
:1025C0001A981A9A1A9C1A9E1B901B921B941D6AA9
:1025D0001C6A1F6A1E6A216A206A236A226A256AA7
:1025E000246A0101C16BC06BBF6BBE6BC56BC46B52
:1025F000C36BC26B010EC66FC76BC86BC96BCA6B6E
:10260000CB6BCC6BCD6BCE6BCF6FD06BD16BD26BFA
:10261000D36B140ED46F550ED56FD96BD86BD76BA7
:10262000D66BE16BE06B200EDF6F820EDE6FE56B29
:10263000E46BE36BE26BE96BE86BE76BE66BED6B0E
:10264000EC6BEB6BEA6BF16BF06BEF6BEE6BF56BBE
:10265000F46BF36BF26BF96BF86B480EF76F830E4C
:10266000F66FFD6BFC6B200EFB6F830EFA6F0201A1
:10267000016B006B0101FF6B800EFE6F0201056BA9
:10268000046B036B026B096B086B076B066B0D6BBE
:102690000C6B0B6B0A6B5C0E116FAA0E106F520E57
:1026A0000F6F770E0E6FE00E156F2D0E146F100E5C
:1026B000136F750E126FFF0E196F210E186F150E26
:1026C000176F800E166F820E1D6F120E1C6FF40EA8
:1026D0001B6F860E1A6F1E6B1F6B206B216B010E1A
:1026E000226F1B961B981B9A1B9C236B246B256BDC
:1026F000266B276B286B296B2A6B2B6B2C6B2D6B36
:102700002F6B2E6B316B306B336B326B356B346FE1
:10271000376B366B396B386B3B6B3A6B3D6B3C6B95
:102720003E6B3F6B406B416B436B426BC150C00BC8
:102730000F09C16E070EB46E266A276A286A296AD5
:102740002A6A2B6A2C6A2D6A2E6A2F6A306A316ACD
:10275000326A336A346A356A366A376A386A396A7D
:102760003A6A3B6A3C6A3D6A3E6A3F6A406A416A2D
:10277000426A436A446A456A466A476A486A496ADD
:102780004A6A4B6A4C6A4D6A4E6A4F6A506A516A8D
:10279000526A536A546A556A566A576A586A596A3D
:1027A0005A6A5B6A5C6A5D6A5E6A5F6A0001606BB6
:1027B000616B626B636B646B656B666B676B686B9D
:1027C000696B6A6B6B6B6C6B6D6B6E6B6F6B706B4D
:1027D000716B726B736B746B756B766B776B786BFD
:1027E000796B7A6B7B6B7C6B7D6B7E6B7F6B806BAD
:1027F000816B826B836B846B856B866B876B886B5D
:10280000896B8A6B8B6B8C6B8D6B8E6B8F6B906B0C
:10281000916B926B936B946B956B966B976B986BBC
:10282000996B9A6B9B6B9C6B9D6B9E6B9F6BA06B6C
:10283000A16BA26BA36BA46BA56BA66BA76BA86B1C
:10284000A96BAA6BAB6BAC6BAD6BAE6BAF6BB06BCC
:10285000B16BB26BB36BB46BB56BB66BB76BB86B7C
:10286000B96BBA6BBB6BBC6BBD6BBE6BBF6BC06B2C
:10287000C16BC26BC36BC46BC56BC66BC76BC86BDC
:10288000C96BCA6BCB6BCC6BCD6BCE6BCF6BD06B8C
:10289000D16BD26BD36BD46BD56BD66BD76BD86B3C
:1028A000D96BDA6BDB6BDC6BDD6BDE6BDF6BE06BEC
:1028B000E16BE26BE36BE46BE56BE66BE76BE86B9C
:1028C000E96BEA6BEB6BEC6BED6BEE6BEF6BF06B4C
:1028D000F16BF26BF36BF46BF56BF66BF76BF86BFC
:1028E000F96BFA6BFB6BFC6BFD6BFE6BFF6B010115
:1028F000006B016B026B036B046B056B066B076B64
:10290000086B096B0A6B0B6B0C6B0D6B0E6B0F6B13
:10291000106B116B126B136B146B156B166B176BC3
:10292000186B196B1A6B1B6B1C6B1D6B1E6B1F6B73
:10293000206B216B226B236B246B256B266B276B23
:10294000286B296B2A6B2B6B2C6B2D6B2E6B2F6BD3
:10295000306B316B326B336B346B356B366B376B83
:10296000386B396B3A6B3B6B3C6B3D6B3E6B3F6B33
:10297000406B416B426B436B446B456B466B476BE3
:10298000486B496B4A6B4B6B4C6B4D6B4E6B4F6B93
:10299000506B516B526B536B546B556B566B576B43
:1029A000586B596B5A6B5B6B5C6B5D6B5E6B5F6BF3
:1029B000606B616B626B636B646B656B666B676BA3
:1029C000686B696B6A6B6B6B6C6B6D6B6E6B6F6B53
:1029D000706B716B726B736B746B756B766B776B03
:1029E000786B796B7A6B7B6B7C6B7D6B7E6B7F6BB3
:1029F000806B816B826B836B846B856B866B876B63
:102A0000886B896B8A6B8B6B8C6B8D6B8E6B8F6B12
:102A1000906B916B926B936B946B956B966B976BC2
:102A2000986B996B9A6B9B6B9C6B9D6B9E6B9F6B72
:102A3000A06BA16BA26BA36BA46BA56BA66BA76B22
:102A4000A86BA96BAA6BAB6BAC6BAD6BAE6BAF6BD2
:102A5000B06BB16BB26BB36BB46BB56BB66BB76B82
:102A6000B86BB96BBA6BBB6BBC6BBD6B860E0201EE
:102A7000446F790E456F860E466F790E476F486F2B
:102A8000030E496F0F0E4A6F0C0E4B6F1E0E4C6FEC
:102A90004D6F4E6B4F6B506F516F526B010E536FFA
:102AA000546F556F566F040E576F860E586F790E20
:102AB000596F860E5A6F790E5B6F5C6F030E5D6FF8
:102AC0000F0E5E6F0C0E5F6F1E0E606F616F626B9C
:102AD000636B646F656F666B010E676F686F696F1C
:102AE0006A6F040E6B6F8A9E939E8A9C939C8B8860
:102AF0009498640E7F6F000137EC02F08B989498E5
:102B00007BEF02F0F19EC80ED56EF28A850ECD6E77
:102B10009D80C150C00B0D09C16EC050C00B020991
:102B2000C06EC08EC280C00EF212D0EF02F0010E55
:102B300002017F6F000137EC02F09BEF04F0010E01
:102B400002017A6F7B6F0001FEEC05F0FE0EF66E5F
:102B5000020EF76E000EF86E79EC06F0010E02011F
:102B60007A6F020E7B6F0001FEEC05F0100EF66E20
:102B7000030EF76E000EF86E79EC06F00A0E0201F5
:102B80006C6FFA0E7F6F000137EC02F002016C2FC0
:102B9000F8D70C0E796F00013AEC06F00201286BB1
:102BA00028514F0810E3500E6C6F00012FEC09F014
:102BB00003C00DF202C00CF201C00BF200C00AF219
:102BC0000201282BEDD71AA618D00C0E796F000140
:102BD0003AEC06F0010E02017A6F020E7B6F0001E3
:102BE000FEEC05F0220EF66E030EF76E000EF86E88
:102BF00079EC06F003EF0BF00201938481B404D06A
:102C00001AA802D0640E276F928A80AA03D08A8CF9
:102C1000939C02D08A9C939C928880A803D08A8E31
:102C2000939E02D08A9E939E19B402D08D9201D0B9
:102C30008D829692010E7F6F000137EC02F0928434
:102C400080A407D0216A206A0201256B199A0CD052
:102C50000001215203E12050030804E2199A19826D
:102C6000199001D0198A0201315303E13051130840
:102C700024E2500E6C6F00012FEC09F003C00DF23E
:102C800002C00CF201C00BF200C00AF2050E0201F4
:102C90006C6F0001A3EF0CF003C06FF202C06EF284
:102CA00001C06DF200C06CF29EEC0DF002C039F272
:102CB00001C038F20201316B306B2753D8A474D1B4
:102CC0001AA608D00101C62B640E02017F6F000115
:102CD00037EC02F00101C651050802E2010EC66F91
:102CE0001AA268D0010E02017A6F020E7B6F0001FA
:102CF000FEEC05F0010E0101C65D036A580FE96E96
:102D0000020E0320EA6EEFCF6CF2010EC65D036A7D
:102D10005D0FE96E020E0320EA6EEFCF6DF2010E39
:102D2000C65D036A620FE96E020E0320EA6EEFCF02
:102D30006EF26CC26FF2030E0201706F0001D2ECF2
:102D40000DF0320EF66E030EF76E000EF86E050EE5
:102D500002016F6F000113EC0EF06DC26FF2010EF5
:102D60000201706F0001D2EC0DF03B0EF66E030E07
:102D7000F76E000EF86E040E02016F6F000113EC87
:102D80000EF06EC26FF2010E0201706F0001D2EC04
:102D90000DF00C0E02016C6FFA0E7F6F000137EC24
:102DA00002F002016C2FF8D70C0E796F00013AEC9B
:102DB00006F001018B849494010E02017A6F020ED9
:102DC0007B6F0001FEEC05F0020EE96E0DC26FF2A2
:102DD0000CC26EF20BC26DF20AC26CF2010E02015D
:102DE000706F00018EEC0EF0200E0201796F000171
:102DF0003AEC06F00D0E02017A6F020E7B6F0001B5
:102E0000FEEC05F00A0EE96E39C26DF238C26CF2C2
:102E100068EC0FF04B0E0201796F00013AEC06F0FE
:102E2000010E02017A6F7B6F0001FEEC05F0010ECE
:102E30000101C65D0C0DF350036A02016C6FCC0EEC
:102E4000F66E000EF76E000EF86E6C51F626000E50
:102E5000F722000179EC06F00C0E02017A6F010EE8
:102E60007B6F0001FEEC05F0440EF66E030EF76E6C
:102E7000000EF86E79EC06F0938481B471D0010EE7
:102E80000101C65D036A580FE96E020E0320EA6E67
:102E9000EFCF2BF20201010E0101C65D036A5D0F47
:102EA000E96E020E0320EA6EEFCFCAF1010EC65D95
:102EB000036A620FE96E020E0320EA6EEFCFCEF1D5
:102EC000C96BCD6BCAC1C8F1C9C1C7F1CEC1CCF1C4
:102ED000CDC1CBF1140E0201276F010E7A6F020EE5
:102EE0007B6F0001FEEC05F0080EE96E3BC26DF24F
:102EF0003AC26CF268EC0FF0200E0201796F00010B
:102F00003AEC06F0080E02016C6FFA0E7F6F0001BA
:102F100037EC02F002016C2FF8D7010E0101C65DFB
:102F2000036A670FE96E020E0320EA6EEF2C01D0F0
:102F300001D01B86270E02016E6F060E6D6F35C223
:102F400070F234C26FF20001A3EC08F002C03DF24F
:102F500001C03CF20C0E0201796F00013AEC06F060
:102F60001AA811D0938681B60ED0010E0201276FE8
:102F7000640E7F6F000137EC02F00C0E0201796FD6
:102F800000013AEC06F01AA40ED0020E0201276FDF
:102F9000640E7F6F000137EC02F00C0E0201796FB6
:102FA00000013AEC06F00201272D1CD21AA80FD01E
:102FB0000101CF2B0C0E0201796F00013AEC06F0F3
:102FC000640E02017F6F000137EC02F0020193866C
:102FD00081B60ED00101CF070C0E0201796F0001FE
:102FE0003AEC06F0640E02017F6F000137EC02F04C
:102FF0000101CF51090802E2010ECF6FCF5302E168
:10300000090ECF6F010E02017A6F7B6F0001FEEC9B
:1030100005F04A0EF66E030EF76E000EF86E79ECB0
:1030200006F0010E02017A6F020E7B6F0001FEECCA
:1030300005F0010E0101CF5D0C0DF350036A020192
:103040006C6F080EF66E010EF76E000EF86E6C5186
:10305000F626000EF722000179EC06F01AA61DD024
:103060000201276B020E6C6FFA0E7F6F000137ECC6
:1030700002F002016C2FF8D70C0E796F00013AECC8
:1030800006F08B9094908B9294928B9694968B945E
:1030900094948B9894988D9496940101CF2D34D06C
:1030A000938481B412D0020E02016C6FFA0E7F6F0E
:1030B000000137EC02F002016C2FF8D71A7A1ABA25
:1030C00002D08B9001D08B8094900D0E02017A6F0C
:1030D000020E7B6F0001FEEC05F0000E1ABA010E25
:1030E000040DF350036A02016C6F740EF66E010E4C
:1030F000F76E000EF86E6C51F626000EF7220001F6
:1031000079EC06F06DD10101CF5102083AE19384C8
:1031100081B418D0020E02016C6FFA0E7F6F0001AD
:1031200037EC02F002016C2FF8D71A7C1ABC02D0DF
:103130008B9201D08B8294921ABC02D08B9601D0D4
:103140008B8694960D0E02017A6F020E7B6F000142
:10315000FEEC05F0000E1ABC010E040DF350036ADC
:1031600002016C6F740EF66E010EF76E000EF86EB3
:103170006C51F626000EF722000179EC06F030D1F2
:103180000101CF51030834E1938481B412D0020EBF
:1031900002016C6FFA0E7F6F000137EC02F0020142
:1031A0006C2FF8D71A7E1ABE02D08B9401D08B8474
:1031B00094940D0E02017A6F020E7B6F0001FEECFB
:1031C00005F0000E1ABE010E040DF350036A020151
:1031D0006C6F740EF66E010EF76E000EF86E6C5189
:1031E000F626000EF722000179EC06F0F9D0010175
:1031F000CF51040834E1938481B412D0020E02014D
:103200006C6FFA0E7F6F000137EC02F002016C2F39
:10321000F8D71B701BB002D08D9401D08D8496948A
:103220000D0E02017A6F020E7B6F0001FEEC05F0BD
:10323000000E1BB0010E040DF350036A02016C6F07
:10324000740EF66E010EF76E000EF86E6C51F626D7
:10325000000EF722000179EC06F0C2D00101CF5137
:10326000050834E1938481B412D0020E02016C6F20
:10327000FA0E7F6F000137EC02F002016C2FF8D7D5
:103280001B721BB202D08B9801D08B8894980D0EC4
:1032900002017A6F020E7B6F0001FEEC05F0000E5A
:1032A0001BB2010E040DF350036A02016C6F740E21
:1032B000F66E010EF76E000EF86E6C51F626000EDB
:1032C000F722000179EC06F08BD00101CF510608FE
:1032D00020E10D0E02017A6F020E7B6F0001FEEC01
:1032E00005F09288000E80A8010E040DF350036AC9
:1032F00002016C6F740EF66E010EF76E000EF86E22
:103300006C51F626000EF722000179EC06F068D029
:103310000101CF51070820E10D0E02017A6F020E64
:103320007B6F0001FEEC05F0928A000E80AA010E70
:10333000040DF350036A02016C6F740EF66E010EF9
:10334000F76E000EF86E6C51F626000EF7220001A3
:1033500079EC06F045D00101CF51080820E10D0EAF
:1033600002017A6F020E7B6F0001FEEC05F092867F
:10337000000E80B6010E040DF350036A02016C6F5B
:10338000740EF66E010EF76E000EF86E6C51F62696
:10339000000EF722000179EC06F022D00101CF5196
:1033A00009081FE10D0E02017A6F020E7B6F00010A
:1033B000FEEC05F09284000E80A4010E040DF35083
:1033C000036A02016C6F740EF66E010EF76E000E4A
:1033D000F86E6C51F626000EF722000179EC06F02B
:1033E0000101020127510208D8A4CBEF1FF0010E02
:1033F0007A6F7B6F0001FEEC05F0010E0101C65DE6
:103400000C0DF350036A02016C6FCC0EF66E000EC9
:10341000F76E000EF86E6C51F626000EF7220001D2
:1034200079EC06F01BB45CD0010E02017A6F020E3B
:103430007B6F0001FEEC05F05C0EF66E030EF76E7E
:10344000000EF86E050E02016F6F000113EC0EF016
:1034500021C26FF2030E0201706F0001D2EC0DF079
:103460001AA807D00201212B640E7F6F000137ECF0
:1034700002F0938681B609D00201215301E02107B1
:10348000640E7F6F000137EC02F01AA427D002010E
:10349000212D08D01B840C0E796F00013AEC06F048
:1034A0001DD0020121510B0808E11B840C0E796F1D
:1034B00000013AEC06F012D002012151210808E186
:1034C0001B840C0E796F00013AEC06F007D0020164
:1034D000216B0C0E796F00013AEC06F0CAEF1FF079
:1034E0000201212D47D22251030802E2010E226F70
:1034F000222DC1D0010E0101C65D036A580FE96E8D
:10350000020E0320EA6EEF503B080AE3010EC65D8F
:10351000036A580FE96E020E0320EA6E3C0EEF6E4E
:10352000010EC65D036A580FE96E020E0320EA6EB3
:10353000EF5089080AE2010EC65D036A580FE96E72
:10354000020E0320EA6E890EEF6E010E02017A6F01
:10355000020E7B6F0001FEEC05F0010E0101C65D5D
:10356000036A580FE96E020E0320EA6EEFCF6CF289
:10357000660EF66E030EF76E000EF86E0A0E02016E
:103580006F6F000113EC0EF06CC26FF2030E0201BC
:10359000706F0001D2EC0DF0200E0201796F000176
:1035A0003AEC06F01AA810D0010E0101C65D036ABC
:1035B000580FE96E020E0320EA6EEF2A640E020134
:1035C0007F6F000137EC02F0938681B610D0010EB8
:1035D0000101C65D036A580FE96E020E0320EA6E10
:1035E000EF06640E02017F6F000137EC02F01AA4AF
:1035F00040D0010E0101C65D040DF350640F0201BD
:103600006C6F010E0101C65D036A580FE96E020E70
:103610000320EA6EEFCF6DF2AA6A6CC2A9FF6DC2F9
:10362000A8FFA69CA69EA684F250006EF29E0F01F3
:10363000550EA76EAA0EA76EA682A6B2FED7A694B6
:103640000050F212140E02017F6F000137EC02F0FD
:103650008B889498640E02017F6F000137EC02F0B2
:103660008B9894980201222B0C0E796F00013AEC92
:1036700006F07ED1020122510208D8A4C1D0010E69
:103680000101C65D036A5D0FE96E020E0320EA6E5A
:10369000EF5002080AE3010EC65D036A5D0FE96E92
:1036A000020E0320EA6E030EEF6E010EC65D036A82
:1036B0005D0FE96E020E0320EA6EEF5063080AE226
:1036C000010EC65D036A5D0FE96E020E0320EA6E0D
:1036D000630EEF6E010E02017A6F020E7B6F000126
:1036E000FEEC05F0010E0101C65D036A5D0FE96E97
:1036F000020E0320EA6EEFCF6CF2760EF66E030E2A
:10370000F76E000EF86E0A0E02016F6F000113ECE7
:103710000EF06CC26FF2030E0201706F0001D2EC6A
:103720000DF0200E0201796F00013AEC06F01AA8A4
:1037300010D0010E0101C65D036A5D0FE96E020E35
:103740000320EA6EEF2A640E02017F6F000137EC5E
:1037500002F0938681B610D0010E0101C65D036AA6
:103760005D0FE96E020E0320EA6EEF06640E0201A1
:103770007F6F000137EC02F01AA440D0010E010166
:10378000C65D040DF350650F02016C6F010E01015F
:10379000C65D036A5D0FE96E020E0320EA6EEFCF8D
:1037A0006DF2AA6A6CC2A9FF6DC2A8FFA69CA69E74
:1037B000A684F250006EF29E0F01550EA76EAA0E5F
:1037C000A76EA682A6B2FED7A6940050F212140EDF
:1037D00002017F6F000137EC02F08B889498640E31
:1037E00002017F6F000137EC02F08B989498020180
:1037F000222B0C0E796F00013AEC06F0B9D00201D1
:1038000022510308D8A4B5D0010E0101C65D036A98
:10381000620FE96E020E0320EA6EEF5063080AE2BF
:10382000010EC65D036A620FE96E020E0320EA6EA6
:10383000630EEF6E010E02017A6F020E7B6F0001C4
:10384000FEEC05F0010E0101C65D036A620FE96E30
:10385000020E0320EA6EEFCF6CF2860EF66E030EB8
:10386000F76E000EF86E0B0E02016F6F000113EC85
:103870000EF06CC26FF2030E0201706F0001D2EC09
:103880000DF0200E0201796F00013AEC06F01AA843
:1038900010D0010E0101C65D036A620FE96E020ECF
:1038A0000320EA6EEF2A640E02017F6F000137ECFD
:1038B00002F0938681B61AD0010E0101C65D036A3B
:1038C000620FE96E020E0320EA6EEF5209E0010E6C
:1038D000C65D036A620FE96E020E0320EA6EEF0610
:1038E000640E02017F6F000137EC02F01AA440D091
:1038F000010E0101C65D040DF350660F02016C6FED
:10390000010E0101C65D036A620FE96E020E03201B
:10391000EA6EEFCF6DF2AA6A6CC2A9FF6DC2A8FF72
:10392000A69CA69EA684F250006EF29E0F01550E34
:10393000A76EAA0EA76EA682A6B2FED7A6940050C6
:10394000F212140E02017F6F000137EC02F08B8837
:103950009498640E02017F6F000137EC02F08B989F
:1039600094980201222B0C0E796F00013AEC06F0BC
:10397000020111D321510B0804E021512108D8A4E0
:103980000AD32251040802E2010E226F222DC1D077
:10399000010E0101C65D036A580FE96E020E032095
:1039A000EA6EEF503B080AE3010EC65D036A580F4A
:1039B000E96E020E0320EA6E3C0EEF6E010EC65D4C
:1039C000036A580FE96E020E0320EA6EEF50890871
:1039D0000AE2010EC65D036A580FE96E020E03206B
:1039E000EA6E890EEF6E010E02017A6F020E7B6F96
:1039F0000001FEEC05F0010E0101C65D036A580FDF
:103A0000E96E020E0320EA6EEFCF6CF2980EF66EAE
:103A1000030EF76E000EF86E0A0E02016F6F0001C2
:103A200013EC0EF06CC26FF2030E0201706F000116
:103A3000D2EC0DF0200E0201796F00013AEC06F095
:103A40001AA810D0010E0101C65D036A580FE96E75
:103A5000020E0320EA6EEF2A640E02017F6F00015E
:103A600037EC02F0938681B610D0010E0101C65DDD
:103A7000036A580FE96E020E0320EA6EEF06640E29
:103A800002017F6F000137EC02F01AA440D0010E52
:103A90000101C65D040DF350640F02016C6F010E4D
:103AA0000101C65D036A580FE96E020E0320EA6E3B
:103AB000EFCF6DF2AA6A6CC2A9FF6DC2A8FFA69CE7
:103AC000A69EA684F250006EF29E0F01550EA76EC0
:103AD000AA0EA76EA682A6B2FED7A6940050F21236
:103AE000140E02017F6F000137EC02F08B8894986E
:103AF000640E02017F6F000137EC02F08B989498FE
:103B00000201222B0C0E796F00013AEC06F042D232
:103B1000020122510208D8A4C1D0010E0101C65DE4
:103B2000036A5D0FE96E020E0320EA6EEF50020891
:103B30000AE3010EC65D036A5D0FE96E020E032003
:103B4000EA6E030EEF6E010EC65D036A5D0FE96E4D
:103B5000020E0320EA6EEF5063080AE2010EC65D12
:103B6000036A5D0FE96E020E0320EA6E630EEF6ECC
:103B7000010E02017A6F020E7B6F0001FEEC05F070
:103B8000010E0101C65D036A5D0FE96E020E03209E
:103B9000EA6EEFCF6CF2A80EF66E030EF76E000E13
:103BA000F86E0A0E02016F6F000113EC0EF06CC28A
:103BB0006FF2030E0201706F0001D2EC0DF0200EC7
:103BC0000201796F00013AEC06F01AA810D0010E3C
:103BD0000101C65D036A5D0FE96E020E0320EA6E05
:103BE000EF2A640E02017F6F000137EC02F093862A
:103BF00081B610D0010E0101C65D036A5D0FE96E4A
:103C0000020E0320EA6EEF06640E02017F6F0001D0
:103C100037EC02F01AA440D0010E0101C65D040D7C
:103C2000F350650F02016C6F010E0101C65D036A5E
:103C30005D0FE96E020E0320EA6EEFCF6DF2AA6A05
:103C40006CC2A9FF6DC2A8FFA69CA69EA684F250D6
:103C5000006EF29E0F01550EA76EAA0EA76EA682E9
:103C6000A6B2FED7A6940050F212140E02017F6F86
:103C7000000137EC02F08B889498640E02017F6F8C
:103C8000000137EC02F08B9894980201222B0C0E65
:103C9000796F00013AEC06F07DD102012251030850
:103CA000D8A4B6D0010E0101C65D036A620FE96EA9
:103CB000020E0320EA6EEF5063080AE2010EC65DB1
:103CC000036A620FE96E020E0320EA6E630EEF6E66
:103CD000010E02017A6F020E7B6F0001FEEC05F00F
:103CE000010E0101C65D036A620FE96E020E032038
:103CF000EA6EEFCF6CF2B80EF66E030EF76E000EA2
:103D0000F86E0B0E02016F6F000113EC0EF06CC227
:103D10006FF2030E0201706F0001D2EC0DF0200E65
:103D20000201796F00013AEC06F01AA810D0010EDA
:103D30000101C65D036A620FE96E020E0320EA6E9E
:103D4000EF2A640E02017F6F000137EC02F09386C8
:103D500081B61AD0010E0101C65D036A620FE96ED9
:103D6000020E0320EA6EEF5209E0010EC65D036AFF
:103D7000620FE96E020E0320EA6EEF06640E020186
:103D80007F6F000137EC02F01AA440D0010E010150
:103D9000C65D040DF350660F02016C6F010E010148
:103DA000C65D036A620FE96E020E0320EA6EEFCF72
:103DB0006DF2AA6A6CC2A9FF6DC2A8FFA69CA69E5E
:103DC000A684F250006EF29E0F01550EA76EAA0E49
:103DD000A76EA682A6B2FED7A6940050F212140EC9
:103DE00002017F6F000137EC02F08B889498640E1B
:103DF00002017F6F000137EC02F08B98949802016A
:103E0000222B0C0E796F00013AEC06F0C3D00201B0
:103E100022510408D8A4BFD0010E0101C65D036A77
:103E2000670FE96E020E0320EA6EEF5004080AE203
:103E3000010EC65D036A670FE96E020E0320EA6E8B
:103E4000010EEF6E010EC65D036A670FE96E020E8A
:103E50000320EA6EEF520AE1010EC65D036A670FA6
:103E6000E96E020E0320EA6E040EEF6E010E0201EF
:103E70007A6F020E7B6F0001FEEC05F0010E01016E
:103E8000C65D036A670FE96E020E0320EA6EEFCF8C
:103E90006CF2CA0EF66E030EF76E000EF86E0B0E85
:103EA00002016F6F000113EC0EF06CC26FF2030E93
:103EB0000201706F0001D2EC0DF0200E0201796F4B
:103EC00000013AEC06F01AA810D0010E0101C65DFF
:103ED000036A670FE96E020E0320EA6EEF2A640E92
:103EE00002017F6F000137EC02F0938681B610D09B
:103EF000010E0101C65D036A670FE96E020E032021
:103F0000EA6EEF06640E02017F6F000137EC02F0EB
:103F10001AA440D0010E0101C65D040DF350670FD5
:103F200002016C6F010E0101C65D036A670FE96E45
:103F3000020E0320EA6EEFCF6DF2AA6A6CC2A9FFEF
:103F40006DC2A8FFA69CA69EA684F250006EF29EAB
:103F50000F01550EA76EAA0EA76EA682A6B2FED7B7
:103F6000A6940050F212140E02017F6F000137EC8C
:103F700002F08B889498640E02017F6F000137EC89
:103F800002F08B9894980201222B0C0E796F00019D
:103F90003AEC06F0020127511408D8A4BFEF24F030
:103FA0001D50140807E2FF0A03E11C50180802E242
:103FB000188001D018903951000806E2FF0A03E189
:103FC0003851040801E2188C736B2BC272F20001A5
:103FD000B5EC02F0D89203C074F202C073F201C0D3
:103FE00072F200C071F20201786B776B400E766F4F
:103FF000800E756F000167EC07F003C073F202C01A
:1040000072F201C071F200C070F20DC277F20CC200
:1040100076F20BC275F20AC274F25EEC04F001E3B0
:1040200018821F50010807E2FF0A03E11E505808DA
:1040300002E2188401D01894928680A632D0020140
:104040003953D8B402D000012CD038511308D8B05D
:1040500002D0000126D0020E6C6FFA0E7F6F0001B5
:1040600037EC02F002016C2FF8D7928680A618D0A8
:10407000395316E13851130813E3020E6C6FFA0E30
:104080007F6F000137EC02F002016C2FF8D79286A7
:1040900080A606D0395304E13851130801E318868D
:1040A0000001928880A804D019B801D0188801D0E6
:1040B0001898938481B402D01B8C03D01B9C0201FE
:1040C000266B02012651030801E2188A938681B605
:1040D0001AD019B418D0395316E13851020813E335
:1040E0008B8494948B889498280E6C6FFA0E7F6F53
:1040F000000137EC02F002016C2FF8D78B949494F6
:104100008B98949802D08B949494736B726B480E36
:10411000716F850E706F0DC277F20CC276F20BC212
:1041200075F20AC274F200015EEC04F012E30201BF
:104130003953D8B402D000010CD038510908D8B096
:1041400002D0000106D019AC02D0000102D0188EB6
:10415000000118B80ED018B60CD018B40AD018B296
:1041600008D018B006D018BA04D018BC02D018AEC7
:1041700004D118AA21D0199019948B8094908B9215
:1041800094928B9694968D9496941996199C199E58
:104190000201256B0C0E7A6F010E7B6F0001FEECA5
:1041A00005F0DC0EF66E030EF76E000EF86E79EC7D
:1041B00006F08D809690E0D018A81AD08D94969431
:1041C000199019940201256B8B9294928B96949678
:1041D0000C0E7A6F010E7B6F0001FEEC05F0E20E13
:1041E000F66E030EF76E000EF86E79EC06F0C4D092
:1041F00018A41ED08B9094908B9294928B96949648
:104200008D9496940201256B0C0E7A6F010E7B6FD4
:104210000001FEEC05F0E80EF66E030EF76E000EE0
:10422000F86E79EC06F0199019948D809690A4D0D0
:1042300018A621D002012C6B2D6B8B8094908B9251
:1042400094928B9694968D9496941996199C1994A1
:10425000256B0C0E7A6F010E7B6F0001FEEC05F0F2
:10426000EE0EF66E030EF76E000EF86E79EC06F0A9
:104270008D80969081D018A220D002012C6B2D6BDE
:104280008B8094908D949694256B8B9294928B96C0
:1042900094960C0E7A6F010E7B6F0001FEEC05F018
:1042A000F40EF66E030EF76E000EF86E79EC06F063
:1042B000199019948D8096905FD018A01ED08B8095
:1042C00094908D9496940201256B8B9294928B9688
:1042D00094960C0E7A6F010E7B6F0001FEEC05F0D8
:1042E000FA0EF66E030EF76E000EF86E79EC06F01D
:1042F000199019948D8096903FD018AC1ED08B8069
:1043000094908D9496940201256B8B9294928B9647
:1043100094960C0E7A6F010E7B6F0001FEEC05F097
:10432000000EF66E040EF76E000EF86E79EC06F0D5
:10433000199019948D8096901FD018AE1DD08B8047
:1043400094908D9496940201256B8B9294928B9607
:1043500094960C0E7A6F010E7B6F0001FEEC05F057
:10436000060EF66E040EF76E000EF86E79EC06F08F
:10437000199019948D809690AED219B21DD00C0E62
:1043800002017A6F010E7B6F0001FEEC05F00C0E4E
:10439000F66E040EF76E000EF86E79EC06F0020170
:1043A000236B1980256B8B8294928B8694968B80DD
:1043B0009490198491D200018B9294928B9694964A
:1043C0000201736B2BC272F20001B5EC02F000C067
:1043D0006CF201C06DF202C06EF203C06FF2D882BF
:1043E00003C074F202C073F201C072F200C071F235
:1043F0009A0E0201786F990E776F190E766F7D0E07
:10440000756F000167EC07F003C073F202C072F22F
:1044100001C071F200C070F20DC277F20CC276F2E8
:104420000BC275F20AC274F25EEC04F001E201E123
:1044300019860201736B2BC272F20001B5EC02F017
:1044400000C06CF201C06DF202C06EF203C06FF2E8
:10445000D88203C074F202C073F201C072F200C0CD
:1044600071F2660E0201786F776F766F7E0E756F50
:10447000000167EC07F00DC273F20CC272F20BC2BE
:1044800071F20AC270F203C077F202C076F201C084
:1044900075F200C074F25EEC04F003E319BC01D0C5
:1044A000199619B61AD0010E0201236F0001FEEC15
:1044B0000FF08B9094900C0E02017A6F010E7B6FBF
:1044C0000001FEEC05F0120EF66E040EF76E000E03
:1044D000F86E79EC06F01984FED11D6A1C6A0101A0
:1044E000C853D8A4C4D1C753D8A4C1D11BA6BBD02C
:1044F0000201256B3953D8A490D038511808D8A0A0
:104500008CD01998199E395366E13851010863E33C
:104510001AB05FD01A803A2BD8B43B2B3AC229F29A
:104520003BC22AF2AA6A250EA96E29C2A8FFA69C40
:10453000A69EA684F250006EF29E0F01550EA76E45
:10454000AA0EA76EA682A6B2FED7A6940050F212BB
:10455000140E02017F6F000137EC02F0AA6A260EEA
:10456000A96E2AC2A8FFA69CA69EA684F250006E41
:10457000F29E0F01550EA76EAA0EA76EA682A6B2D6
:10458000FED7A6940050F212140E02017F6F0001B4
:1045900037EC02F00201286B285103081AE38B88DC
:1045A0009498040E6C6FFA0E7F6F000137EC02F0E6
:1045B00002016C2FF8D78B989498040E6C6FFA0E4A
:1045C0007F6F000137EC02F002016C2FF8D7282B27
:1045D000E3D78B8094900C0E7A6F010E7B6F0001F5
:1045E000FEEC05F0180EF66E040EF76E000EF86E77
:1045F00079EC06F0070E02017A6F020E7B6F000164
:10460000FEEC05F01E0EF66E040EF76E000EF86E50
:1046100079EC06F0199425D00201198C198E236BC0
:104620008D9496940C0E7A6F010E7B6F0001FEEC58
:1046300005F0240EF66E040EF76E000EF86E79EC9F
:1046400006F0070E02017A6F020E7B6F0001FEEC8E
:1046500005F02A0EF66E040EF76E000EF86E79EC79
:1046600006F003D101018B8094908D949694020101
:10467000256B236B3953D8A4D2D038510108D8A068
:10468000CED00101CC53D8A495D0CB53D8A492D08E
:104690008B949494198819941AB060D01A800201EE
:1046A0003A2BD8B43B2B3AC229F23BC22AF2AA6A6F
:1046B000250EA96E29C2A8FFA69CA69EA684F2502C
:1046C000006EF29E0F01550EA76EAA0EA76EA6826F
:1046D000A6B2FED7A6940050F212140E02017F6F0C
:1046E000000137EC02F0AA6A260EA96E2AC2A8FFC2
:1046F000A69CA69EA684F250006EF29E0F01550E57
:10470000A76EAA0EA76EA682A6B2FED7A6940050E8
:10471000F212140E02017F6F000137EC02F0020169
:10472000286B285103081AE38B889498040E6C6F49
:10473000FA0E7F6F000137EC02F002016C2FF8D700
:104740008B989498040E6C6FFA0E7F6F000137EC13
:1047500002F002016C2FF8D7282BE3D7080E0201D4
:104760006C6FFA0E7F6F000137EC02F002016C2FC4
:10477000F8D70C0E7A6F010E7B6F0001FEEC05F08E
:10478000300EF66E040EF76E000EF86E79EC06F041
:10479000070E02017A6F020E7B6F0001FEEC05F03E
:1047A000360EF66E040EF76E000EF86E79EC06F01B
:1047B00034D0010119880C0E02017A6F010E7B6F53
:1047C0000001FEEC05F03C0EF66E040EF76E000ED6
:1047D000F86E79EC06F0070E02017A6F020E7B6F1D
:1047E0000001FEEC05F0CCC16FF2010E0201706F0A
:1047F0000001D2EC0DF03A0E0201796F00013AECA3
:1048000006F0CBC16FF2010E0201706F0001D2EC15
:104810000DF08B8094908B84949427D00201198C96
:104820000C0E7A6F010E7B6F0001FEEC05F0420E5C
:10483000F66E040EF76E000EF86E79EC06F00201CB
:10484000236B8D949694256B070E7A6F020E7B6F07
:104850000001FEEC05F0480EF66E040EF76E000E39
:10486000F86E79EC06F08B80949035D001010C0E37
:1048700002017A6F010E7B6F0001FEEC05F04E0E17
:10488000F66E040EF76E000EF86E79EC06F0010E6F
:104890000201236F0001FEEC0FF0070E02017A6F98
:1048A000020E7B6F0001FEEC05F0C8C16FF2010E35
:1048B0000201706F0001D2EC0DF03A0E0201796F27
:1048C00000013AEC06F0C7C16FF2010E0201706FF1
:1048D0000001D2EC0DF002011BA851D01B98010E73
:1048E0007A6F020E7B6F0001FEEC05F0020EE96E9E
:1048F0000DC26FF20CC26EF20BC26DF20AC26CF204
:10490000010E0201706F00018EEC0EF0200E02010C
:10491000796F00013AEC06F00D0E02017A6F020E7B
:104920007B6F0001FEEC05F00A0EE96E39C26DF2F4
:1049300038C26CF268EC0FF04B0E0201796F000187
:104940003AEC06F0010E02017A6F7B6F0001FEEC7B
:1049500005F0010E0101C65D0C0DF350036A020162
:104960006C6FCC0EF66E000EF76E000EF86E6C518A
:10497000F626000EF722000179EC06F0020127511D
:104980006408D8A415EF29F01AA20DD0202B640ECC
:104990007F6F000137EC02F00C0E0201796F00010D
:1049A0003AEC06F002011AA4CFD0020E6C6FFA0E98
:1049B0007F6F000137EC02F002016C2FF8D71AA4C8
:1049C000C3D0F9C16FF2F8C16EF2F7C16DF2F6C152
:1049D0006CF200019EEC0DF001C06CF2AA6A140E9C
:1049E000A96E6CC2A8FFA69CA69EA684F250006E7B
:1049F000F29E0F01550EA76EAA0EA76EA682A6B252
:104A0000FED7A6940050F2120A0E02017F6F000139
:104A100037EC02F0AA6A150EA96ED2C1A8FFA69CB7
:104A2000A69EA684F250006EF29E0F01550EA76E50
:104A3000AA0EA76EA682A6B2FED7A6940050F212C6
:104A40000A0E02017F6F000137EC02F0AA6A160E0F
:104A5000A96ED3C1A8FFA69CA69EA684F250006EA4
:104A6000F29E0F01550EA76EAA0EA76EA682A6B2E1
:104A7000FED7A6940050F2120A0E02017F6F0001C9
:104A800037EC02F0AA6A1A0EA96E1EC2A8FFA69CF5
:104A9000A69EA684F250006EF29E0F01550EA76EE0
:104AA000AA0EA76EA682A6B2FED7A6940050F21256
:104AB0000A0E02017F6F000137EC02F0AA6A1B0E9A
:104AC000A96E1FC2A8FFA69CA69EA684F250006EE7
:104AD000F29E0F01550EA76EAA0EA76EA682A6B271
:104AE000FED7A6940050F2120A0E02017F6F000159
:104AF00037EC02F0AA6A270EA96ED5C1A8FFA69CC2
:104B0000A69EA684F250006EF29E0F01550EA76E6F
:104B1000AA0EA76EA682A6B2FED7A6940050F212E5
:104B20000A0E02017F6F000137EC02F08B88949827
:104B3000040E02016C6FFA0E7F6F000137EC02F079
:104B400002016C2FF8D7FF002051060802E2010E87
:104B5000206F205302E1060E206F010E7A6F7B6FEB
:104B60000001FEEC05F0540EF66E040EF76E000E1A
:104B7000F86E79EC06F00201202D9ED0010E7A6FBE
:104B8000020E7B6F0001FEEC05F0500E0201796F02
:104B900000013AEC06F00A0E02017A6F020E7B6FFA
:104BA0000001FEEC05F0410EE96EF9C16FF2F8C1AB
:104BB0006EF2F7C16DF2F6C16CF20201706B00018A
:104BC0008EEC0EF01AA820D0640E02017F6F000157
:104BD00037EC02F0D892F9C174F2F8C173F2F7C160
:104BE00072F2F6C171F20201786B776B766B7F0E11
:104BF000756F000167EC07F003C0F9F102C0F8F12E
:104C000001C0F7F100C0F6F1938681B620D0640EA2
:104C100002017F6F000137EC02F0D882F9C174F213
:104C2000F8C173F2F7C172F2F6C171F20201786B4A
:104C3000776B766B7F0E756F000167EC07F003C032
:104C4000F9F102C0F8F101C0F7F100C0F6F102017C
:104C5000736B726B700E716F830E706FF9C177F2A8
:104C6000F8C176F2F7C175F2F6C174F200015EEC9C
:104C700004F007E30101F96BF86B700EF76F830E18
:104C8000F66FF9C173F2F8C172F2F7C171F2F6C1B1
:104C900070F20201776B766B756B7F0E746F00019B
:104CA0005EEC04F007E30101F96BF86BF76B7F0E24
:104CB000F66F0001B9D2020120510208D8A483D0B6
:104CC000010E7A6F020E7B6F0001FEEC05F0440EC0
:104CD0000201796F00013AEC06F00A0E02017A6FC8
:104CE000020E7B6F0001FEEC05F01FC26FF2010E99
:104CF0000201706F0001D2EC0DF01AA82BD0640EE7
:104D000002017F6F000137EC02F00201736B1FC2DA
:104D100072F20001B5EC02F0D89203C074F202C046
:104D200073F201C072F200C071F20201786B776B0E
:104D3000766B7F0E756F000167EC07F003C06FF2B2
:104D400002C06EF201C06DF200C06CF29EEC0DF07C
:104D500001C01FF2938681B62BD0640E02017F6FD3
:104D6000000137EC02F00201736B1FC272F2000106
:104D7000B5EC02F0D88203C074F202C073F201C035
:104D800072F200C071F20201786B776B766B7F0E66
:104D9000756F000167EC07F003C06FF202C06EF29E
:104DA00001C06DF200C06CF29EEC0DF001C01FF26C
:104DB00002011F51500802E2500E1F6F1F5302E103
:104DC000010E1F6F30D220510308D8A483D0010EEA
:104DD0007A6F020E7B6F0001FEEC05F0490E0201B6
:104DE000796F00013AEC06F00A0E02017A6F020EAA
:104DF0007B6F0001FEEC05F01EC26FF2010E020196
:104E0000706F0001D2EC0DF01AA82BD0640E0201D5
:104E10007F6F000137EC02F00201736B1EC272F269
:104E20000001B5EC02F0D89203C074F202C073F234
:104E300001C072F200C071F20201786B776B766B81
:104E40007F0E756F000167EC07F003C06FF202C0C0
:104E50006EF201C06DF200C06CF29EEC0DF001C06C
:104E60001EF2938681B62BD0640E02017F6F000183
:104E700037EC02F00201736B1EC272F20001B5EC56
:104E800002F0D88203C074F202C073F201C072F261
:104E900000C071F20201786B776B766B7F0E756FD5
:104EA000000167EC07F003C06FF202C06EF201C0B0
:104EB0006DF200C06CF29EEC0DF001C01EF202011A
:104EC0001E51030802E2030E1E6F1E5302E1010E83
:104ED0001E6FA9D120510408D8A487D0010E7A6F83
:104EE000020E7B6F0001FEEC05F0660EF66E040EFE
:104EF000F76E000EF86E79EC06F00A0E02017A6F7A
:104F0000020E7B6F0001FEEC05F0D5C16FF2010EC1
:104F10000201706F0001D2EC0DF01AA82BD0640EC4
:104F200002017F6F000137EC02F00201736BD5C103
:104F300072F20001B5EC02F0D89203C074F202C024
:104F400073F201C072F200C071F20201786B776BEC
:104F5000766B7F0E756F000167EC07F003C06FF290
:104F600002C06EF201C06DF200C06CF29EEC0DF05A
:104F700001C0D5F1938681B62BD0640E02017F6FFC
:104F8000000137EC02F00201736BD5C172F200012F
:104F9000B5EC02F0D88203C074F202C073F201C013
:104FA00072F200C071F20201786B776B766B7F0E44
:104FB000756F000167EC07F003C06FF202C06EF27C
:104FC00001C06DF200C06CF29EEC0DF001C0D5F195
:104FD0000101D551640802E2640ED56FD5514F0826
:104FE00002E3500ED56F1FD1020120510508D8A44D
:104FF0008CD0010E7A6F020E7B6F0001FEEC05F083
:10500000410E0201796F00013AEC06F06A0E0201CE
:10501000796F00013AEC06F02B0E0201796F000166
:105020003AEC06F00A0E02017A6F020E7B6F000165
:10503000FEEC05F0D2C16FF2010E0201706F0001AB
:10504000D2EC0DF01AA82BD0640E02017F6F000184
:1050500037EC02F00201736BD2C172F20001B5ECC1
:1050600002F0D89203C074F202C073F201C072F26F
:1050700000C071F20201786B776B766B7F0E756FF3
:10508000000167EC07F003C06FF202C06EF201C0CE
:105090006DF200C06CF29EEC0DF001C0D2F193866F
:1050A00081B62BD0640E02017F6F000137EC02F055
:1050B0000201736BD2C172F20001B5EC02F0D8822A
:1050C00003C074F202C073F201C072F200C071F248
:1050D0000201786B776B766B7F0E756F000167EC62
:1050E00007F003C06FF202C06EF201C06DF200C0A3
:1050F0006CF29EEC0DF001C0D2F10101D2510A0810
:1051000002E20A0ED26F8FD0020120510608D8A405
:105110008AD0010E7A6F020E7B6F0001FEEC05F063
:10512000410E0201796F00013AEC06F06A0E0201AD
:10513000796F00013AEC06F02D0E0201796F000143
:105140003AEC06F00A0E02017A6F020E7B6F000144
:10515000FEEC05F0D3C16FF2010E0201706F000189
:10516000D2EC0DF01AA82BD0640E02017F6F000163
:1051700037EC02F00201736BD3C172F20001B5EC9F
:1051800002F0D89203C074F202C073F201C072F24E
:1051900000C071F20201786B776B766B7F0E756FD2
:1051A000000167EC07F003C06FF202C06EF201C0AD
:1051B0006DF200C06CF29EEC0DF001C0D3F193864D
:1051C00081B62BD0640E02017F6F000137EC02F034
:1051D0000201736BD3C172F20001B5EC02F0D88208
:1051E00003C074F202C073F201C072F200C071F227
:1051F0000201786B776B766B7F0E756F000167EC41
:1052000007F003C06FF202C06EF201C06DF200C081
:105210006CF29EEC0DF001C0D3F10101D3510A08EC
:1052200002E20A0ED36F0001020104EF16F0030040
:020000040030CA
:0E00000000021F1E0000B0003FC03FE03F4066
:00000001FF
;PIC18F4685
;CRC=2341  CREATED="11-feb.-20 13:14"
