:04000000C1EF27F035
:080008005DEF00F000000000B4
:100010000000000000000000046ED8CF05F0E0CF23
:1000200006F00001E9CF0CF0EACF07F0E1CF08F0CD
:10003000E2CF09F0D9CF0AF0DACF0BF0F3CF12F00C
:10004000F4CF13F0FACF14F0FBCF15F000C00EF090
:1000500001C00FF002C010F003C011F0F2AA34EF9B
:1000600000F0F2B439EF01F09DA03AEF00F09EB03D
:1000700065EF01F00EC000F00FC001F010C002F0FB
:1000800011C003F00CC0E9FF07C0EAFF078E08C0EB
:10009000E1FF09C0E2FF0AC0D9FF0BC0DAFF12C0BE
:1000A000F3FF13C0F4FF14C0FAFF15C0FBFF0450A8
:1000B00006C0E0FF05C0D8FF1000176ED8CF18F0BB
:1000C000E0CF19F00001E9CF1FF0EACF1AF0E1CF3D
:1000D0001BF0E2CF1CF0D9CF1DF0DACF1EF0F3CF2A
:1000E00025F0F4CF26F0FACF27F0FBCF28F000C0A0
:1000F00021F001C022F002C023F003C024F09DAA29
:1001000085EF00F09EBA02EF01F021C000F022C09E
:1001100001F023C002F024C003F01FC0E9FF1AC0A1
:10012000EAFF1A8E1BC0E1FF1CC0E2FF1DC0D9FF11
:100130001EC0DAFF25C0F3FF26C0F4FF27C0FAFF78
:1001400028C0FBFF175019C0E0FF18C0D8FF1000EF
:100150004C49515549444F532041000000000000D4
:100160000000000043415543484F000000000000DC
:100170000000000000000000494E535452554D4508
:100180004E54414C00000000000000004C49515505
:1001900049444F53204200000000000000000000CE
:1001A0004C494252450000000000000000000000E1
:1001B00000000000544553540000000000000000FF
:1001C0000000000000000000484F52412059204626
:1001D000454348410000000000000000434C4156E8
:1001E00045000000000000000000000000000000CA
:1001F00000000000000000000000000000000000FF
:10020000000000009EAAFED7AECF32F303013251A8
:10021000650803E1010E306F466A302D0AD0036A8B
:1002200046503B0FE96E000E0320EA6E32C3EFFF2B
:10023000462A4650090802E2466A306B465210E1EF
:100240003B5065080BE13C3C09D03D3C07D0435294
:1002500005E1443C03D0050E316F02D00A0E316F28
:100260003451140802E18C8095909E9A000185EF2C
:1002700000F0D76AD66A0301642BD8B4652B00015D
:10028000A0AD20D003014A531AE14951050817E3F4
:100290006551545D07E303E16451535D03E38C88CA
:1002A000959802D08C9895986551E90807E2FF0A65
:1002B00003E164515F0802E2656B646B02D08C88D5
:1002C00095980001F2943AEF00F09E0ECF6E580E12
:1002D000CE6E0301412BD8B4422B432BD8B4442B10
:1002E000452BD8B4462B472BD8B4482B0001A2ADE0
:1002F00005D00301662BD8B4672B0001A3A104D05D
:100300000301682BD8B4692B03012C2D1ED0485152
:100310000001AB5D0CE308E1AA510301475DD8A0E1
:1003200002D0000104D000018B94949402D08B84FD
:100330009494AD510301485D08E305E10001AC511F
:100340000301475D02E3486B476B425304E14151AF
:10035000C708D8B089D029A501D0612B2B2B00016B
:10036000A0A309D003012F51405DD8A002D0000105
:1003700002D0402B06D003012F51405D02E32987B4
:10038000406B0001A0A305D0A0B503D0A42BD8B426
:10039000A52B9FAF05D0A0B103D0A62BD8B4A72B17
:1003A000A0A903D0A82BD8B4A92B0301426B416BA1
:1003B0000001A38F03014B2BD8B44C2B0001A0A547
:1003C00029D0A0BB27D0AEBF05D0AE51000802E2B5
:1003D000AE0720D0AFBF07D0AF51000804E2AF078F
:1003E000090EAE6F17D0B0BF09D0B051000806E2B9
:1003F000B007050EAF6F090EAE6F0CD0B1BF0AD0BB
:10040000B151000807E2B107090EB06F050EAF6FDA
:10041000090EAE6FA0A727D0B8BF05D0B85100080D
:1004200002E2B80720D0B9BF07D0B951000804E2F2
:10043000B907090EB86F17D0BABF09D0BA51000872
:1004400006E2BA07050EB96F090EB86F0CD0BBBF34
:100450000AD0BB51000807E2BB07090EBA6F050EB0
:10046000B96F090EB86F03019E9000013AEF00F0DA
:1004700070616765204269656E76656E69646100CA
:10048000626B636D643D30007061676520436C6131
:10049000766500007061676520456D657267656E01
:1004A00063696100626B636D643D30007061676514
:1004B00020436C617665000074302E7478743D22A0
:1004C000257522007661302E76616C3D31007430E6
:1004D0002E7478743D222575257522007661302EA4
:1004E00076616C3D320074302E7478743D2225752F
:1004F0002575257522007661302E76616C3D3300BE
:1005000074302E7478743D222575257525752575F2
:1005100022007661302E76616C3D340074302E748A
:1005200078743D2222007061676520436C617665B6
:10053000436F727265637461000070616765204388
:100540006C617665426164007061676520436F6E1F
:100550006669670070616765204D656E75507269E8
:100560006E636970616C00007061676520436C6147
:1005700076650000746974756C6F2E7478743D2212
:10058000436C617665204E7565766122000070616E
:100590006765204D656E755072696E636970616C38
:1005A0000000746974756C6F2E7478743D22436C0E
:1005B000617665204E756576612200007061676521
:1005C000204D656E755072696E636970616C0000D4
:1005D00070616765204D656E755072696E636970F4
:1005E000616C0000746974756C6F2E7478743D22B0
:1005F000436C617665204E75657661220000646FFC
:100600006576656E74730000746974756C6F2E7412
:1006100078743D22436C6176652041637475616C2A
:100620002200646F6576656E74730000746974757A
:100630006C6F2E7478743D22436C6176652054652E
:10064000636E69636F220000646F6576656E747314
:100650000000746974756C6F2E7478743D22496E55
:10066000677265736520436F6E7472617365F161C3
:1006700022007061676520436C617665436F72721A
:100680006563746100007061676520436C61766525
:10069000426164007061676520436F6E6669670040
:1006A00070616765204D656E755072696E63697023
:1006B000616C00007061676520436C6176650000C5
:1006C000746974756C6F2E7478743D22436C617616
:1006D00065204E7565766122000070616765204D6A
:1006E000656E755072696E636970616C0000746943
:1006F00074756C6F2E7478743D22436C617665203E
:100700004E7565766122000070616765204D656EEB
:10071000755072696E636970616C0000666563682C
:10072000612E7478743D2246656368613A253032E3
:10073000752F253032752F3230253032752020202C
:1007400020486F72613A20253032753A2530327573
:1007500022007061676520436C61766500007061FE
:10076000676520436C6176650000706167652046AF
:10077000656368610000706167652054657374008B
:1007800070616765204369636C6F506572736F6E4B
:10079000610070616765204E6976656C000070616C
:1007A0006765204E6976656C00007061676520465C
:1007B000756E63696F6E616D69656E746F007061EF
:1007C00067652046756E63696F6E616D69656E74ED
:1007D0006F0062632E7069633D25750062642E7040
:1007E00069633D25750062692E7069633D2575005A
:1007F00062632E706963323D2575000062642E705D
:100800006963323D2575000062692E706963323D6F
:1008100025750000746578746F702E7478743D22AD
:100820002573220062632E7069633D257500626442
:100830002E7069633D25750062692E7069633D25E0
:10084000750062632E706963323D25750000626435
:100850002E706963323D2575000062692E706963F0
:10086000323D25750000746578746F702E7478744D
:100870003D222573220062632E7069633D25750059
:1008800062642E7069633D25750062692E7069632C
:100890003D25750062632E706963323D2575000049
:1008A00062642E706963323D2575000062692E70A6
:1008B0006963323D25750000746578746F702E741D
:1008C00078743D222573220074746974756C6F2EE0
:1008D0007478743D2253454C454343494F4E45205F
:1008E0005355204349434C4F2200706167652043B4
:1008F0006C617665000066656368612E7478743D8E
:100900002246656368613A253032752F253032758D
:100910002F32302530327520202020486F72613A06
:1009200020253032753A25303275220070616765B6
:10093000204369636C6F506572736F6E61007473EE
:1009400065636573742E70636F3D363535333500DE
:10095000746D696E6573742E70636F3D30007473CF
:1009600065636573742E70636F3D3000746D696EDE
:100970006573742E70636F3D363535333500746D95
:10098000696E6573742E7478743D22253032752239
:100990000000747365636573742E7478743D22254A
:1009A00030327522000066656368612E7478743D8C
:1009B0002246656368613A253032752F25303275DD
:1009C0002F32302530327520202020486F72613A56
:1009D00020253032753A2530327522007061676506
:1009E000204369636C6F506572736F6E6100746D44
:1009F000696E7365632E70636F3D30007473656359
:100A00007365632E70636F3D363535333500746D15
:100A1000696E7365632E70636F3D3635353335000F
:100A2000747365637365632E70636F3D3000746D1E
:100A3000696E7365632E7478743D22253032752299
:100A40000000747365637365632E7478743D2225AA
:100A500030327522000066656368612E7478743DDB
:100A60002246656368613A253032752F253032752C
:100A70002F32302530327520202020486F72613AA5
:100A800020253032753A2530327522007061676555
:100A9000204369636C6F506572736F6E610074738D
:100AA000657474656D2E7478743D2225303375221B
:100AB000000066656368612E7478743D2246656344
:100AC00068613A253032752F253032752F32302546
:100AD00030327520202020486F72613A2025303254
:100AE000753A25303275220070616765204369636D
:100AF0006C6F506572736F6E610070616765204640
:100B0000756E63696F6E616D69656E746F00746E8A
:100B10006976656C2E7478743D22254C7522000030
:100B200062312E62636F3D323031360062312E62A7
:100B3000636F3D3633343838000062302E62636FA5
:100B40003D323031360062302E62636F3D363334D1
:100B50003838000062322E62636F3D323031360029
:100B600062322E62636F3D363334383800006233B0
:100B70002E62636F3D323031360062332E62636F16
:100B80003D3633343838000062382E62636F3D32B0
:100B90003031360062382E62636F3D363334383878
:100BA000000062392E62636F3D32303136006239A7
:100BB0002E62636F3D363334383800006231302E98
:100BC00062636F3D3230313600006231302E626335
:100BD0006F3D3633343838006231322E62636F3DF8
:100BE0003230313600006231322E62636F3D36336F
:100BF000343838006231362E62636F3D3230313620
:100C000000006231362E62636F3D3633343838006F
:100C10006231372E62636F3D32303136000062310F
:100C2000372E62636F3D3633343838006231332EED
:100C30007478743D22414443303A25332E30662285
:100C400000006231342E7478743D22414443313ABD
:100C500025332E30662200006231352E7478743DC3
:100C60002241323A25332E3066202530334C75220E
:100C700000006231382E7478743D2241333A2533B6
:100C80002E3066202530334C752200006232302E23
:100C90007478743D2254313A25332E316622000097
:100CA00070616765204D656E755072696E6369701D
:100CB000616C000070616765204D656E75507269EA
:100CC0006E636970616C000074686F72612E747875
:100CD000743D2225303275220000746D696E757482
:100CE0006F732E7478743D2225303275220074643F
:100CF00069612E7478743D22253032752200746D3E
:100D000065732E7478743D22253032752200747913
:100D10006561722E7478743D222530327522000090
:100D200066656368612E7478743D22466563686108
:100D30003A253032752F253032752F32302530323A
:100D40007520486F72613A20253032753A2530326D
:100D5000753A2530327522006369636C6F2E7478A2
:100D6000743D224349434C4F2050253032752200B8
:100D700074656D702E7478743D222575220074653B
:100D800073742E7478743D22253032753A253032D2
:100D900075220000747365632E7478743D222530CB
:100DA00032753A25303275220000646573666F67CC
:100DB00075652E7478743D22257522006369636C15
:100DC0006F2E7478743D224349434C4F20502D2D93
:100DD000220074656D702E7478743D222D2D2200D2
:100DE000746573742E7478743D222D2D3A2D2D2246
:100DF0000000747365632E7478743D222D2D3A2D96
:100E00002D220000646573666F6775652E747874B3
:100E10003D222D2D22006369636C6F2E7478743D22
:100E2000224349434C4F20502530327522007465CF
:100E30006D702E7478743D2225752200746573746C
:100E40002E7478743D22253032753A253032752261
:100E50000000747365632E7478743D2225303275FA
:100E60003A25303275220000646573666F677565D8
:100E70002E7478743D222575220070616765204DBF
:100E8000656E755072696E636970616C00007061A7
:100E900067652054656D70657261747572610000DC
:100EA00070616765205469656D706F4573740000EB
:100EB00070616765205469656D706F5365630000EC
:100EC00070616765204E6976656C000070616765CA
:100ED0002046756E63696F6E616D69656E746F0033
:100EE00070616765204D656E755072696E636970DB
:100EF000616C00007061676520436C61766500007D
:100F00007432662E7478743D222575220000743385
:100F1000662E7478743D2225732200007432662E8A
:100F20007478743D2225752200007433662E74781F
:100F3000743D22506572736F6E616C697A61646F83
:100F4000220046756E63696F6E616D69656E746FC0
:100F50002E7434662E7478743D2220506172616460
:100F60006120646520456D657267656E6369612205
:100F7000000046756E63696F6E616D69656E746FB2
:100F80002E7435662E7478743D222043616E63653D
:100F90006C61646F220046756E63696F6E616D6986
:100FA000656E746F2E7434662E7478743D222050F2
:100FB0007565727461204162696572746122000016
:100FC00046756E63696F6E616D69656E746F2E74C0
:100FD00035662E7478743D22205061757361646F9C
:100FE000220046756E63696F6E616D69656E746F20
:100FF0002E7434662E7478743D22205469656D70A9
:101000006F204C6C656E61646F22000046756E63E4
:10101000696F6E616D69656E746F2E7435662E74BE
:1010200078743D222043616E63656C61646F2200B9
:1010300046756E63696F6E616D69656E746F2E744F
:1010400034662E7478743D22205465726D6F73740B
:1010500061746F22000046756E63696F6E616D6921
:10106000656E746F2E7435662E7478743D2220433D
:10107000616E63656C61646F220046756E63696FB3
:101080006E616D69656E746F2E7434662E7478743B
:101090003D2220536F62726574656D706572617474
:1010A00075726122000046756E63696F6E616D69CD
:1010B000656E746F2E7435662E7478743D222043ED
:1010C000616E63656C61646F220046756E63696F63
:1010D0006E616D69656E746F2E7434662E747874EB
:1010E0003D22205469656D706F2050726F6C6F6E79
:1010F0006761646F220046756E63696F6E616D692A
:10110000656E746F2E7435662E7478743D2220439C
:10111000616E63656C61646F220046756E63696F12
:101120006E616D69656E746F2E7434662E7478749A
:101130003D2220536F6272655072657369F36E22AF
:10114000000046756E63696F6E616D69656E746FE0
:101150002E7435662E7478743D222043616E63656B
:101160006C61646F220046756E63696F6E616D69B4
:10117000656E746F2E7434662E7478743D2220452B
:1011800072726F72204369636C6F220046756E63E2
:10119000696F6E616D69656E746F2E7435662E743D
:1011A00078743D222043616E63656C61646F220038
:1011B00046756E63696F6E616D69656E746F2E74CE
:1011C00034662E7478743D22204E696E67756E61A8
:1011D000220046756E63696F6E616D69656E746F2E
:1011E0002E7435662E7478743D22204E6976656CB7
:1011F0002042616A6F22000046756E63696F6E61FE
:101200006D69656E746F2E7434662E7478743D2229
:10121000204E696E67756E61220046756E63696F58
:101220006E616D69656E746F2E7435662E74787498
:101230003D222043616C656E74616E646F22000014
:1012400046756E63696F6E616D69656E746F2E743D
:1012500034662E7478743D22204E696E67756E6117
:10126000220046756E63696F6E616D69656E746F9D
:101270002E7435662E7478743D222046696E616C3A
:10128000697A61646F22000046756E63696F6E61F2
:101290006D69656E746F2E7434662E7478743D2299
:1012A000204E696E67756E61220046756E63696FC8
:1012B0006E616D69656E746F2E7435662E74787408
:1012C0003D2220446573707265737572697A616E30
:1012D000646F220046756E63696F6E616D69656E3D
:1012E000746F2E7434662E7478743D22204E696EAD
:1012F00067756E61220046756E63696F6E616D6918
:10130000656E746F2E7435662E7478743D22204697
:10131000696E616C697A61646F22000046756E6364
:10132000696F6E616D69656E746F2E7434662E74AC
:1013300078743D22204E696E67756E612200467595
:101340006E63696F6E616D69656E746F2E7435665C
:101350002E7478743D2220536563616E646F2200A1
:1013600046756E63696F6E616D69656E746F2E741C
:1013700034662E7478743D22204E696E67756E61F6
:10138000220046756E63696F6E616D69656E746F7C
:101390002E7435662E7478743D2220446573707205
:1013A00065737572697A616E646F220046756E634B
:1013B000696F6E616D69656E746F2E7434662E741C
:1013C00078743D22204E696E67756E612200467505
:1013D0006E63696F6E616D69656E746F2E743566CC
:1013E0002E7478743D22204573746572696C697A35
:1013F000616E646F22006164642031342C302C25CE
:10140000312E306600007436662E7478743D2225C5
:10141000332E3166220046756E63696F6E616D69A9
:10142000656E746F2E7437662E7478743D22253085
:10143000334C756B5061220046756E63696F6E6147
:101440006D69656E746F2E743132662E7478743DDA
:10145000223030306B506122000046756E63696F38
:101460006E616D69656E746F2E7439662E74787452
:101470003D2225303375220046756E63696F6E61BB
:101480006D69656E746F2E743130662E7478743D9C
:10149000222530327522000046756E63696F6E61D9
:1014A0006D69656E746F2E743133662E7478743D79
:1014B000222530327522000046756E63696F6E61B9
:1014C0006D69656E746F2E743131662E7478743D5B
:1014D000222530327522000046756E63696F6E6199
:1014E0006D69656E746F2E743136662E7478743D36
:1014F000222530327522000066656368612E74789B
:10150000743D2246656368613A253032752F253077
:1015100032752F32302530327520202020486F72EE
:10152000613A20253032753A253032752200436FFA
:101530006E6669672E7432632E7478743D22507221
:101540006F706F7263696F6E616C22007433632E0B
:101550007478743D2225322E30662200436F6E6609
:1015600069672E7432632E7478743D224465726903
:1015700076617469766F22007433632E7478743DDB
:10158000222575220000436F6E6669672E743263F0
:101590002E7478743D22496E74656772616C220006
:1015A0007433632E7478743D222575220000436FD6
:1015B0006E6669672E7432632E7478743D225463AC
:1015C00069636C6F22007433632E7478743D222536
:1015D000322E30662200436F6E6669672E74326366
:1015E0002E7478743D22416A75737465202B220035
:1015F0007433632E7478743D222575220000436F86
:101600006E6669672E7432632E7478743D22416A67
:1016100075737465202D22007433632E7478743DC5
:10162000222575220000436F6E6669672E7432634F
:101630002E7478743D224D65646961220000743314
:10164000632E7478743D222575220000436F6E6608
:1016500069672E7432632E7478743D22525054316F
:101660003030422200007433632E7478743D22259A
:10167000322E31662200436F6E6669672E743263C4
:101680002E7478743D22545472616D706122000092
:101690007433632E7478743D222530327522000035
:1016A000436F6E6669672E7432632E7478743D22C0
:1016B0004369636C6F7322007433632E7478743DD6
:1016C000222530354C75220070616765204D656EAE
:1016D000755072696E636970616C0000666563685D
:1016E000612E7478743D2246656368613A25303214
:1016F000752F253032752F3230253032752020205D
:1017000020486F72613A20253032753A25303275A3
:101710002200030EEA6ED90EE96EEF500DE0060EC0
:10172000016E006A002EFED7012EFBD77B0E006EE5
:10173000002EFED7EF2EF3D7000C8E0E006EDAC30C
:1017400001F0D9C302F0036A015209E102C001F0BD
:10175000026A080E005E015202E1006A08D0D890C9
:1017600001BE04D0023601360006F9D7019E000CF6
:101770000301C951D8B4A5D0D56FCD51D8B4A1D0EB
:10178000D55F05E37F0ED527D8B09BD006D0810E5C
:10179000D55FD8A096D0D8B494D0D5C300F0016A54
:1017A000026A036AD46BCAC3D3F3D38FCBC3D2F319
:1017B000CCC3D1F3190ED56FD051D15F0DE2010E1C
:1017C000D25F0AE2D35F08E2D45F06E2D42BD32BC8
:1017D000D22BD051D12728D0CF51D25F12E2010EA7
:1017E000D35F0FE2D45F0DE2D42BD32BCF51D2279E
:1017F000D051D12719E3D22B17E1D32B15E1D42BEC
:1018000013D0CE518009D35F0EE2010ED45F0BE2FC
:10181000D42BCE518009D327CF51D227E9E3D32B44
:10182000E7E1D42BE5D70380D52F01D00BD0D8909A
:10183000D137D237D337D437D89003360236013672
:10184000D637BAD7D6A106D0D890013202320332A9
:10185000D63302D0000635E0D6BF1ED0D890D1379F
:10186000D237D337D437D051D15F07E2010ED25FE0
:1018700004E2D35F02E2D45F1AE3CF51D25F05E204
:10188000010ED35F02E2D45F12E3CE518009D35F31
:1018900003E2010ED45F0BE3032A09E1022A07E108
:1018A000012A05E1002A0DE0013202320332CAC3E7
:1018B000D5F3CE51D51BD5AF02D0018E06D0019EF7
:1018C00004D0006A016A026A036A0001000C800EFB
:1018D000D8A202D00301DE1B0301E36BE46BDAC381
:1018E000E2F3DE51E21BD951D8B4DFD0E16F006ED4
:1018F000DD51D8B4E3D0E15FD8B483D03EE3DEC39A
:10190000E7F3E78FDFC3E6F3E0C3E5F3E46BD890DA
:10191000E733E633E533E433E12FF8D7E2AF03D022
:10192000E381E0D0E391E191E389030EEA6EDC0EFE
:10193000E96EEBD0E399E2BF0AD0E1A113D0E7331F
:10194000E633E533E433002AD8B4C7D00BD0E7BF81
:101950000CD0D890E437E537E637E7370006D8B43F
:10196000BCD0F5D7E38D6DD0E39DDAC3E2F3DAAFF7
:1019700002D0E78FABD0E79FA9D0DDC3E1F3DDC391
:1019800000F0D951E15FDAC3E7F3E78FDBC3E6F399
:10199000DCC3E5F3E46BD890E733E633E533E433B7
:1019A000E12FF8D7E2AF03D0E3839CD0E393E1913A
:1019B000E38B030EEA6EE00EE96EA7D0E39BE2BF75
:1019C0000AD0E1A113D0E733E633E533E433002A4C
:1019D000D8B483D00BD0E7BF0CD0D890E437E5372C
:1019E000E637E7370006D8B478D0F5D7E38F29D0AB
:1019F000E39FDEC3E2F3DEAF02D0E78F67D0E79F5D
:101A000065D0DEC3E7F3E78FDFC3E6F3E0C3E5F3BA
:101A1000E2AF04D0E79FE38565D0E395E46BE19105
:101A2000030EEA6EDC0EE96E70D0E2BF1CD0DAC3A2
:101A3000E2F3E1A106D0E733E633E533E433002AED
:101A40004CE0E4AF0BD0E52B09E1E62B07E1E72BF7
:101A500005E1E733E633E533002A3FE0E3BD84D711
:101A6000E3BFC6D71CD0800EE71BE7AF04D03AD047
:101A7000DEC3E2F30AD0DAC3E2F3E75306E1E6534A
:101A800004E1E55302E1006A21D0E7BF08D0D89015
:101A9000E437E537E637E737002EF7D71ED0E2AF59
:101AA00002D0E78F13D0E79F11D0DDC300F0DEC373
:101AB000E7F3DFC3E6F3E0C3E5F308D0D9C300F0F2
:101AC000DAC3E7F3DBC3E6F3DCC3E5F3E7C301F016
:101AD000E6C302F0E5C303F034D0006A016A026A8B
:101AE000036A2FD0E46BE51FE61FE71FE41FE42B1A
:101AF00005E1E52B03E1E62B01E1E72BE3B112D78A
:101B0000E3B354D7E3B589D7B3D7EF50E52705E35F
:101B1000E62B03E1E72BD8B4E181ED52EF50E62745
:101B200003E3E72BD8B4E181ED52EF50EFBE01D0D3
:101B3000800AE727D8B0E181E3B9FCD6E3BB3ED702
:101B400074D70001000CF2CFC4F3F29CF29EAA6A93
:101B5000A96AA69CA69EA680A8500301C4BDF28CCB
:101B6000C4BFF28E0001B36F0A0E0301D96F0001EA
:101B7000D0DDF2CFC4F3F29CF29EAA6A010EA96EE8
:101B8000A69CA69EA680A8500301C4BDF28CC4BF2B
:101B9000F28E0001B46F0A0E0301D96F0001B9DDA6
:101BA000F2CFC4F3F29CF29EAA6A020EA96EA69C22
:101BB000A69EA680A8500301C4BDF28CC4BFF28EBD
:101BC0000001B56F0A0E0301D96F0001A2DDF2CF4B
:101BD000C4F3F29CF29EAA6A030EA96EA69CA69E6E
:101BE000A680A8500301C4BDF28CC4BFF28E0001D0
:101BF000B66F0A0E0301D96F00018BDDF2CFC4F37B
:101C0000F29CF29EAA6A040EA96EA69CA69EA680CD
:101C1000A8500301C4BDF28CC4BFF28E0001BC6F9A
:101C20000A0E0301D96F000174DDF2CFC4F3F29CF8
:101C3000F29EAA6A050EA96EA69CA69EA680A85032
:101C40000301C4BDF28CC4BFF28E0001BD6F0A0E49
:101C50000301D96F00015DDDF2CFC4F3F29CF29E67
:101C6000AA6A060EA96EA69CA69EA680A85003018D
:101C7000C4BDF28CC4BFF28E0001BE6F0A0E030118
:101C8000D96F000146DDF2CFC4F3F29CF29EAA6A3E
:101C9000070EA96EA69CA69EA680A8500301C4BDEF
:101CA000F28CC4BFF28E0001BF6F0A0E0301D96F20
:101CB00000012FDDF2CFC4F3F29CF29EAA6A080E57
:101CC000A96EA69CA69EA680A8500301C4BDF28C56
:101CD000C4BFF28E3B6F0A0ED96F00011ADDF2CF3E
:101CE000C4F3F29CF29EAA6A090EA96EA69CA69E57
:101CF000A680A8500301C4BDF28CC4BFF28E4A6B0B
:101D0000496F0A0ED96F000104DDF2CFC4F3F29CD3
:101D1000F29EAA6A0A0EA96EA69CA69EA680A8504C
:101D20000301C4BDF28CC4BFF28E596F0A0ED96F85
:101D30000001EFDCF2CFC4F3F29CF29EAA6A0B0E14
:101D4000A96EA69CA69EA680A8500301C4BDF28CD5
:101D5000C4BFF28E5A6F0A0ED96F0001DADCF2CFDF
:101D6000C4F3F29CF29EAA6A0C0EA96EA69CA69ED3
:101D7000A680A8500301C4BDF28CC4BFF28E5B6F75
:101D80000A0ED96F0001C5DCF2CFC4F3F29CF29EBB
:101D9000AA6A0D0EA96EA69CA69EA680A850030155
:101DA000C4BDF28CC4BFF28E5C6F0A0ED96F000105
:101DB000B0DCF2CFC4F3F29CF29EAA6A140EA96EB4
:101DC000A69CA69EA680A8500301C4BDF28CC4BFE9
:101DD000F28EDA6BD96F0001B0DC03C0F5F202C0FD
:101DE000F4F201C0F3F200C0F2F20A0E0301D96F5F
:101DF00000018FDCF2CFC4F3F29CF29EAA6A150EAA
:101E0000A96EA69CA69EA680A8500301C4BDF28C14
:101E1000C4BFF28E0201CA6F0A0E0301D96F00011E
:101E200078DCF2CFC4F3F29CF29EAA6A160EA96E79
:101E3000A69CA69EA680A8500301C4BDF28CC4BF78
:101E4000F28E0201CB6F0A0E0301D96F000161DC33
:101E5000F2CFC4F3F29CF29EAA6A180EA96EA69C59
:101E6000A69EA680A8500301C4BDF28CC4BFF28E0A
:101E70000201CC6F0A0E0301D96F00014ADCF2CFD8
:101E8000C4F3F29CF29EAA6A190EA96EA69CA69EA5
:101E9000A680A8500301C4BDF28CC4BFF28EDA6BD9
:101EA000D96F00014ADC03C0DDF202C0DCF201C0E0
:101EB000DBF200C0DAF20A0E0301D96F000129DC5F
:101EC000F2CFC4F3F29CF29EAA6A1A0EA96EA69CE7
:101ED000A69EA680A8500301C4BDF28CC4BFF28E9A
:101EE000266F0A0ED96F000114DCF2CFC4F3F29C06
:101EF000F29EAA6A1B0EA96EA69CA69EA680A8505A
:101F00000301C4BDF28CC4BFF28E276F0A0ED96FD5
:101F1000000189EC0BF0F2CFC4F3F29CF29EAA6AA6
:101F20001D0EA96EA69CA69EA680A8500301C4BD46
:101F3000F28CC4BFF28EDA6BD96F00019DEC0BF00E
:101F400003C0ABF202C0AAF201C0A9F200C0A8F21D
:101F5000ABC2CCF3AAC2CBF3A9C2CAF3A8C2C9F3DD
:101F60000301D06BCF6B200ECE6F820ECD6F0001C0
:101F7000B8EC0BF003C0ABF202C0AAF201C0A9F2A8
:101F800000C0A8F20A0E0301D96F000189EC0BF022
:101F9000F2CFC4F3F29CF29EAA6A1C0EA96EA69C14
:101FA000A69EA680A8500301C4BDF28CC4BFF28EC9
:101FB000DA6BD96F00019DEC0BF0D89203C0DCF313
:101FC00002C0DBF301C0DAF300C0D9F3ABC2E0F327
:101FD000AAC2DFF3A9C2DEF3A8C2DDF378DC03C036
:101FE000A3F202C0A2F201C0A1F200C0A0F20A0E48
:101FF0000301D96F000189EC0BF0F2CFC4F3F29C1E
:10200000F29EAA6A1F0EA96EA69CA69EA680A85044
:102010000301C4BDF28CC4BFF28EC56FF2CFC6F30C
:10202000F29CF29EAA6A1E0EA96EA69CA69EA6808F
:10203000A850C6BDF28CC6BFF28EC76FC5C303F0F1
:10204000C751D96F03C0DAF300019DEC0BF003C058
:10205000AFF202C0AEF201C0ADF200C0ACF20A0EA7
:102060000301D96F000189EC0BF0F2CFC4F3F29CAD
:10207000F29EAA6A210EA96EA69CA69EA680A850D2
:102080000301C4BDF28CC4BFF28EDA6BD96F0001BC
:102090009DEC0BF003C0ABF202C0AAF201C0A9F2A2
:1020A00000C0A8F2ABC2CCF3AAC2CBF3A9C2CAF358
:1020B000A8C2C9F30301D06BCF6B200ECE6F820E86
:1020C000CD6F0001B8EC0BF003C0ABF202C0AAF276
:1020D00001C0A9F200C0A8F20A0E0301D96F0001E5
:1020E00089EC0BF0F2CFC4F3F29CF29EAA6A200EA8
:1020F000A96EA69CA69EA680A8500301C4BDF28C22
:10210000C4BFF28EDA6BD96F00019DEC0BF0D89250
:1021100003C0DCF302C0DBF301C0DAF300C0D9F383
:10212000ABC2E0F3AAC2DFF3A9C2DEF3A8C2DDF3BB
:1021300067EC0CF003C0A7F202C0A6F201C0A5F242
:1021400000C0A4F20A0E0301D96F000189EC0BF064
:10215000F2CFC4F3F29CF29EAA6A250EA96EA69C49
:10216000A69EA680A8500301C4BDF28CC4BFF28E07
:10217000386F0A0ED96F000189EC0BF0F2CFC4F36F
:10218000F29CF29EAA6A260EA96EA69CA69EA68026
:10219000A8500301C4BDF28CC4BFF28E396F0A0E81
:1021A000D96F000189EC0BF039C352F338C351F3F6
:1021B0000A0E0301D96F000189EC0BF0F2CFC4F3D2
:1021C000F29CF29EAA6A270EA96EA69CA69EA680E5
:1021D000A8500301C4BDF28CC4BFF28E0201CD6FC2
:1021E0000A0E0301D96F000189EC0BF0F2CFC4F3A2
:1021F000F29CF29EAA6A280EA96EA69CA69EA680B4
:10220000A8500301C4BDF28CC4BFF28E2D6F0A0E1C
:10221000D96F000189EC0BF0F2CFC4F3F29CF29E6F
:10222000AA6A290EA96EA69CA69EA680A8500301A4
:10223000C4BDF28CC4BFF28E2E6F0A0ED96F00019E
:1022400089EC0BF0F2CFC4F3F29CF29EAA6A2A0E3C
:10225000A96EA69CA69EA680A8500301C4BDF28CC0
:10226000C4BFF28E7A6F0A0ED96F000189EC0BF0B1
:10227000F2CFC4F3F29CF29EAA6A2B0EA96EA69C22
:10228000A69EA680A8500301C4BDF28CC4BFF28EE6
:102290007B6F0A0ED96F000189EC0BF0F2CFC4F30B
:1022A000F29CF29EAA6A2C0EA96EA69CA69EA680FF
:1022B000A8500301C4BDF28CC4BFF28E7C6F0A0E1D
:1022C000D96F000189EC0BF0F2CFC4F3F29CF29EBF
:1022D000AA6A2D0EA96EA69CA69EA680A8500301F0
:1022E000C4BDF28CC4BFF28E7D6F376B37510308CB
:1022F000D8A09CD237510A0DF350C56BC46F9C0E09
:10230000C425E96E030EC521EA6E3751080DF3505E
:10231000640FC66FF2CFC7F3F29CF29EAA6AC6C3DF
:10232000A9FFA69CA69EA680A850C7BDF28CC7BFD9
:10233000F28EEF6E37510A0DF350C56BC46F010E6C
:10234000C425016E000EC521036E01509C0FE96E7D
:10235000030E0320EA6E3751080DF350650FC66F68
:10236000F2CFC7F3F29CF29EAA6AC6C3A9FFA69C4D
:10237000A69EA680A850C7BDF28CC7BFF28EEF6E96
:1023800037510A0DF350C56BC46F090EC425016E99
:10239000000EC521036E01509C0FE96E030E032051
:1023A000EA6E3751080DF350660FC66FF2CFC7F3D0
:1023B000F29CF29EAA6AC6C3A9FFA69CA69EA6800E
:1023C000A850C7BDF28CC7BFF28EEF6E37510A0D11
:1023D000F350C56BC46F030EC425016E000EC521FA
:1023E000036E01509C0FE96E030E0320EA6E375115
:1023F000080DF350670FC66FF2CFC7F3F29CF29E41
:10240000AA6AC6C3A9FFA69CA69EA680A850C7BD5F
:10241000F28CC7BFF28EEF6E37510A0DF350C56BC9
:10242000C46F040EC425016E000EC521036E015059
:102430009C0FE96E030E0320EA6E3751080DF3502E
:10244000680FC66FF2CFC7F3F29CF29EAA6AC6C3AA
:10245000A9FFA69CA69EA680A850C7BDF28CC7BFA8
:10246000F28EEF6E37510A0DF350C56BC46F050E37
:10247000C425016E000EC521036E01509C0FE96E4C
:10248000030E0320EA6E3751080DF350690FC66F33
:10249000F2CFC7F3F29CF29EAA6AC6C3A9FFA69C1C
:1024A000A69EA680A850C7BDF28CC7BFF28EEF6E65
:1024B00037510A0DF350C56BC46F060EC425016E6B
:1024C000000EC521036E01509C0FE96E030E032020
:1024D000EA6E3751080DF3506A0FC66FF2CFC7F39B
:1024E000F29CF29EAA6AC6C3A9FFA69CA69EA680DD
:1024F000A850C7BDF28CC7BFF28EEF6E37510A0DE0
:10250000F350C56BC46F080EC425016E000EC521C3
:10251000036E01509C0FE96E030E0320EA6E3751E3
:10252000080DF3506B0FC66FF2CFC7F3F29CF29E0B
:10253000AA6AC6C3A9FFA69CA69EA680A850C7BD2E
:10254000F28CC7BFF28EEF6E37510A0DF350C56B98
:10255000C46F9C0EC425E96E030EC521EA6EEF50D0
:1025600086080EE337510A0DF350C56BC46F9C0EFD
:10257000C425E96E030EC521EA6EEF5068080DE32D
:1025800037510A0DF350C56BC46F9C0EC425E96E1C
:10259000030EC521EA6E790EEF6E37510A0DF35026
:1025A000C56BC46F090EC425016E000EC521036EF4
:1025B00001509C0FE96E030E0320EA6EEF503B08BA
:1025C00012E237510A0DF350C56BC46F090EC425D2
:1025D000016E000EC521036E01509C0FE96E030EC3
:1025E0000320EA6EEF6A37510A0DF350C56BC46FD2
:1025F000030EC425016E000EC521036E01509C0F11
:10260000E96E030E0320EA6EEF503B0812E23751E9
:102610000A0DF350C56BC46F030EC425016E000E86
:10262000C521036E01509C0FE96E030E0320EA6E74
:10263000EF6A37510A0DF350C56BC46F040EC42501
:10264000016E000EC521036E01509C0FE96E030E52
:102650000320EA6EEF503B0812E237510A0DF350A7
:10266000C56BC46F040EC425016E000EC521036E38
:1026700001509C0FE96E030E0320EA6EEF6A37519A
:102680000A0DF350C56BC46F030EC425016E000E16
:10269000C521036E01509C0FE96E030E0320EA6E04
:1026A000EF503B0812E237510A0DF350C56BC46F6F
:1026B000030EC425016E000EC521036E01509C0F50
:1026C000E96E030E0320EA6EEF6A37510A0DF350EC
:1026D000C56BC46F050EC425016E000EC521036EC7
:1026E00001509C0FE96E030E0320EA6EEF503B0889
:1026F00012E237510A0DF350C56BC46F050EC425A5
:10270000016E000EC521036E01509C0FE96E030E91
:102710000320EA6EEF6A37510A0DF350C56BC46FA0
:10272000060EC425016E000EC521036E01509C0FDC
:10273000E96E030E0320EA6EEF500F0813E23751E3
:102740000A0DF350C56BC46F060EC425016E000E52
:10275000C521036E01509C0FE96E030E0320EA6E43
:10276000040EEF6E37510A0DF350C56BC46F070EA0
:10277000C425016E000EC521036E01509C0FE96E49
:10278000030E0320EA6EEF50640814E337510A0D7C
:10279000F350C56BC46F070EC425016E000EC52132
:1027A000036E01509C0FE96E030E0320EA6EEF509A
:1027B000090813E337510A0DF350C56BC46F070EB8
:1027C000C425016E000EC521036E01509C0FE96EF9
:1027D000030E0320EA6E190EEF6E37510A0DF35007
:1027E000C56BC46F080EC425016E000EC521036EB3
:1027F00001509C0FE96E030E0320EA6EEF500608AD
:1028000013E237510A0DF350C56BC46F080EC4258F
:10281000016E000EC521036E01509C0FE96E030E80
:102820000320EA6E060EEF6E372B60D5000196EF9F
:102830002BF00301CE6BCE5107080DE3D890CD33BA
:1028400002E28C9401D08C84959495928C8295921E
:102850008C92CE2BF0D70001000C95968C86CBC3C2
:10286000CDF3E7DFCCC3CDF3E4DF95968C96000C77
:1028700095968C86C8C3CDF3DCDF9584100E006E70
:10288000002EFED700000301C96BC951070815E3EC
:10289000958483B402D0D89001D0D880CA33959261
:1028A0008C82210E006E002EFED795928C92210E06
:1028B000006E002EFED7C92BE8D795968C96CAC31A
:1028C00001F00001000C95968C96210E006E002EF2
:1028D000FED795928C928E0E0301CB6FCC6B0001CC
:1028E000BCDF900E0301CB6FA40ECC6F0001B5DFEF
:1028F000810E0301C86F0001BBDF01C0C4F30301F7
:10290000C451800B06E0800ECB6FCC6B0001A5DFBD
:102910000301000198EF2BF0C9C3D0F30301CD519F
:10292000D01BD0AF05D0D894D890C9BFD8802FD0B5
:10293000C9C3D0F3CCC3D1F3C851D15F06E0D0AF47
:1029400026D0D850010AD86E22D0CDC3D1F3C951B8
:10295000D15F06E0D0AF1BD0D850010AD86E17D097
:10296000CEC3D1F3CA51D15F06E0D0AF10D0D8505A
:10297000010AD86E0CD0CFC3D1F3CB51D15F06E0A2
:10298000D0AF05D0D850010AD86E01D0D890000140
:10299000000C006A016A0301C651D890C7B1002635
:1029A00000320132C7B3002600320132C7B500261B
:1029B00000320132C7B7002600320132C7B9002603
:1029C00000320132C7BB002600320132C7BD0026EB
:1029D00000320132C7BF0026003201320001000C74
:1029E000B3BF03D0B351090803E3B3BF01D01CD078
:1029F000B36BAA6AA96AA86AA69CA69EA684F2508E
:102A0000006EF29CF29E0F01550EA76EAA0EA76EE5
:102A1000A682A6B2FED7A6940050F2120A0E0301B7
:102A2000D96F000189EC0BF0B4BF03D0B451090891
:102A300003E3B4BF01D01DD0B46BAA6A010EA96E26
:102A4000A86AA69CA69EA684F250006EF29CF29EF6
:102A50000F01550EA76EAA0EA76EA682A6B2FED7CC
:102A6000A6940050F2120A0E0301D96F000189ECFE
:102A70000BF0B5BF03D0B551090803E3B5BF01D0D2
:102A80001DD0B56BAA6A020EA96EA86AA69CA69E66
:102A9000A684F250006EF29CF29E0F01550EA76EB6
:102AA000AA0EA76EA682A6B2FED7A6940050F21276
:102AB0000A0E0301D96F000189EC0BF0B6BF03D0F9
:102AC000B651090803E3B6BF01D01DD0B66BAA6AA0
:102AD000030EA96EA86AA69CA69EA684F250006E5C
:102AE000F29CF29E0F01550EA76EAA0EA76EA6824B
:102AF000A6B2FED7A6940050F2120A0E0301D96FB7
:102B0000000189EC0BF0BCBF03D0BC51090803E302
:102B1000BCBF01D01DD0BC6BAA6A040EA96EA86A06
:102B2000A69CA69EA684F250006EF29CF29E0F0117
:102B3000550EA76EAA0EA76EA682A6B2FED7A694C1
:102B40000050F2120A0E0301D96F000189EC0BF05C
:102B5000BDBF03D0BD51090803E3BDBF01D01DD0E7
:102B6000BD6BAA6A050EA96EA86AA69CA69EA6843D
:102B7000F250006EF29CF29E0F01550EA76EAA0E47
:102B8000A76EA682A6B2FED7A6940050F2120A0E35
:102B90000301D96F000189EC0BF0BEBF03D0BE5119
:102BA000090803E3BEBF01D01DD0BE6BAA6A060EA2
:102BB000A96EA86AA69CA69EA684F250006EF29CFE
:102BC000F29E0F01550EA76EAA0EA76EA682A6B2A0
:102BD000FED7A6940050F2120A0E0301D96F00012D
:102BE00089EC0BF0BFBF03D0BF51090803E3BFBF9F
:102BF00001D01DD0BF6BAA6A070EA96EA86AA69C59
:102C0000A69EA684F250006EF29CF29E0F01550E15
:102C1000A76EAA0EA76EA682A6B2FED7A6940050F3
:102C2000F2120A0E0301D96F000189EC0BF00301C7
:102C30003B51860820E2860E3B6FAA6A080EA96EF9
:102C4000860EA86EA69CA69EA684F250006EF29CEC
:102C5000F29E0F01550EA76EAA0EA76EA682A6B20F
:102C6000FED7A6940050F2120A0E0301D96F00019C
:102C700089EC0BF003014A5303E14951060821E2B4
:102C80004A6B030E496FAA6A090EA96E030EA86E5D
:102C9000A69CA69EA684F250006EF29CF29E0F01A6
:102CA000550EA76EAA0EA76EA682A6B2FED7A69450
:102CB0000050F2120A0E0301D96F000189EC0BF0EB
:102CC000030159BF03D05951090803E359BF01D08B
:102CD0001ED0596BAA6A0A0EA96EA86AA69CA69E67
:102CE000A684F250006EF29CF29E0F01550EA76E64
:102CF000AA0EA76EA682A6B2FED7A6940050F21224
:102D00000A0E0301D96F000189EC0BF003015ABFD1
:102D100003D05A51090803E35ABF01D01ED05A6BA1
:102D2000AA6A0B0EA96EA86AA69CA69EA684F2505B
:102D3000006EF29CF29E0F01550EA76EAA0EA76EB2
:102D4000A682A6B2FED7A6940050F2120A0E030184
:102D5000D96F000189EC0BF003015BBF03D05B511D
:102D6000090803E35BBF01D01ED05B6BAA6A0C0E9F
:102D7000A96EA86AA69CA69EA684F250006EF29C3C
:102D8000F29E0F01550EA76EAA0EA76EA682A6B2DE
:102D9000FED7A6940050F2120A0E0301D96F00016B
:102DA00089EC0BF003015CBF03D05C51090803E31D
:102DB0005CBF01D01ED05C6BAA6A0D0EA96EA86A1A
:102DC000A69CA69EA684F250006EF29CF29E0F0175
:102DD000550EA76EAA0EA76EA682A6B2FED7A6941F
:102DE0000050F2120A0E0301D96F000189EC0BF0BA
:102DF0000301CB6BCA6B400EC96F820EC86FF5C260
:102E0000CFF3F4C2CEF3F3C2CDF3F2C2CCF30001A0
:102E100083DD24E30201F56BF46B400EF36F820E49
:102E2000F26FAA6A140EA96E0C0EA86EA69CA69E3E
:102E3000A684F250006EF29CF29E0F01550EA76E12
:102E4000AA0EA76EA682A6B2FED7A6940050F212D2
:102E50000A0E0301D96F000189EC0BF00201CA517F
:102E60000A081EE2CA6BAA6A150EA96EA86AA69C79
:102E7000A69EA684F250006EF29CF29E0F01550EA3
:102E8000A76EAA0EA76EA682A6B2FED7A694005081
:102E9000F2120A0E0301D96F000189EC0BF0020156
:102EA000CB510A081EE2CB6BAA6A160EA96EA86A5D
:102EB000A69CA69EA684F250006EF29CF29E0F0184
:102EC000550EA76EAA0EA76EA682A6B2FED7A6942E
:102ED0000050F2120A0E0301D96F000189EC0BF0C9
:102EE0000201CC5150081FE2500ECC6FAA6A180E96
:102EF000A96E500EA86EA69CA69EA684F250006EE7
:102F0000F29CF29E0F01550EA76EAA0EA76EA68226
:102F1000A6B2FED7A6940050F2120A0E0301D96F92
:102F2000000189EC0BF00301CB6BCA6B200EC96F5B
:102F3000820EC86FDDC2CFF3DCC2CEF3DBC2CDF3AD
:102F4000DAC2CCF30001E8DC24E30201DD6BDC6BC8
:102F5000200EDB6F820EDA6FAA6A190EA96E0A0EB6
:102F6000A86EA69CA69EA684F250006EF29CF29ECD
:102F70000F01550EA76EAA0EA76EA682A6B2FED7A7
:102F8000A6940050F2120A0E0301D96F000189ECD9
:102F90000BF00301DA6B26C3D9F300019DEC0BF0B3
:102FA0000301CB6BCA6BC96B800EC86F03C0CFF334
:102FB00002C0CEF301C0CDF300C0CCF30001ACDC05
:102FC00020E3010E0301266FAA6A1A0EA96E020EF3
:102FD000A86EA69CA69EA684F250006EF29CF29E5D
:102FE0000F01550EA76EAA0EA76EA682A6B2FED737
:102FF000A6940050F2120A0E0301D96F000189EC69
:103000000BF00301DA6B27C3D9F300019DEC0BF041
:103010000301CB6BCA6B200EC96F830EC86F03C050
:10302000CFF302C0CEF301C0CDF300C0CCF300015A
:1030300073DC20E30F0E0301276FAA6A1B0EA96E33
:103040000F0EA86EA69CA69EA684F250006EF29C5F
:10305000F29E0F01550EA76EAA0EA76EA682A6B20B
:10306000FED7A6940050F2120A0E0301D96F000198
:1030700089EC0BF00301CB6BCA6B480EC96F840E51
:10308000C86FA3C2CFF3A2C2CEF3A1C2CDF3A0C238
:10309000CCF3000141DC43E3CD0E0201A36FCC0E63
:1030A000A26F200EA16F840EA06FAA6A1C0EA96EDB
:1030B000280EA86EA69CA69EA684F250006EF29CD6
:1030C000F29E0F01550EA76EAA0EA76EA682A6B29B
:1030D000FED7A6940050F2120A0E0301D96F000128
:1030E00089EC0BF0AA6A1D0EA96E020EA86EA69CB2
:1030F000A69EA684F250006EF29CF29E0F01550E21
:10310000A76EAA0EA76EA682A6B2FED7A6940050FE
:10311000F2120A0E0301D96F000189EC0BF00301D2
:10312000CB6BCA6B480EC96F8B0EC86FAFC2CFF3A3
:10313000AEC2CEF3ADC2CDF3ACC2CCF300018CEC89
:1031400014F042E30201AF6BC00EAE6F410EAD6FE3
:103150008B0EAC6FAA6A1E0EA96E380EA86EA69CC6
:10316000A69EA684F250006EF29CF29E0F01550EB0
:10317000A76EAA0EA76EA682A6B2FED7A69400508E
:10318000F2120A0E0301D96F000189EC0BF0AA6A52
:103190001F0EA96E180EA86EA69CA69EA684F250BD
:1031A000006EF29CF29E0F01550EA76EAA0EA76E3E
:1031B000A682A6B2FED7A6940050F2120A0E030110
:1031C000D96F000189EC0BF00301CB6BCA6BC96BA3
:1031D000800EC86FA7C2CFF3A6C2CEF3A5C2CDF3AF
:1031E000A4C2CCF300018CEC14F03FE30201A76B06
:1031F000A66BA56B7E0EA46FAA6A200EA96EA86AA4
:10320000A69CA69EA684F250006EF29CF29E0F0130
:10321000550EA76EAA0EA76EA682A6B2FED7A694DA
:103220000050F2120A0E0301D96F000189EC0BF075
:10323000AA6A210EA96E050EA86EA69CA69EA6845B
:10324000F250006EF29CF29E0F01550EA76EAA0E70
:10325000A76EA682A6B2FED7A6940050F2120A0E5E
:103260000301D96F000189EC0BF003015251E90809
:103270003FE2FF0A03E1515160083AE2526B516BA1
:10328000AA6A250EA96EA86AA69CA69EA684F250DC
:10329000006EF29CF29E0F01550EA76EAA0EA76E4D
:1032A000A682A6B2FED7A6940050F2120A0E03011F
:1032B000D96F000189EC0BF0AA6A260EA96EA86AE4
:1032C000A69CA69EA684F250006EF29CF29E0F0170
:1032D000550EA76EAA0EA76EA682A6B2FED7A6941A
:1032E0000050F2120A0E0301D96F000189EC0BF0B5
:1032F0000201CD5164081FE2500ECD6FAA6A270E5D
:10330000A96E500EA86EA69CA69EA684F250006ED2
:10331000F29CF29E0F01550EA76EAA0EA76EA68212
:10332000A6B2FED7A6940050F2120A0E0301D96F7E
:10333000000189EC0BF003012D51010820E2010E80
:103340002D6FAA6A280EA96E010EA86EA69CA69ED5
:10335000A684F250006EF29CF29E0F01550EA76EED
:10336000AA0EA76EA682A6B2FED7A6940050F212AD
:103370000A0E0301D96F000189EC0BF003012E51F5
:103380001E0820E2020E2E6FAA6A290EA96E020EF6
:10339000A86EA69CA69EA684F250006EF29CF29E99
:1033A0000F01550EA76EAA0EA76EA682A6B2FED773
:1033B000A6940050F2120A0E0301D96F000189ECA5
:1033C0000BF003017C510A080AE17AC3C6F3FF0E31
:1033D000C76F0001C9EC14F001C07AF303017D51FD
:1033E0000A080AE17BC3C6F3FF0EC76F0001C9ECF0
:1033F00014F001C07BF303010001A0EF2BF00900E2
:10340000F55211E0F6CFC5F3F7CFC6F3F8CFC7F307
:10341000F5509EA8FED7AD6EC5C3F6FFC6C3F7FF35
:10342000C7C3F8FFECD7000C9EA8FED7AD6E000C0A
:10343000100E006E002EFED70000FF0EF5DF100EFE
:10344000006E002EFED70000FF0EEEDF100E006EA5
:10345000002EFED70000FF0EE7DF100E006E002EDC
:10346000FED70000000C8C9895988C9C959C8C9AAB
:10347000959A8C9095908B84949403012C6B000109
:10348000000C0301C535006E0036FC0E001600C0AE
:1034900001F0C250C30B0010C26E010ED96F0001C3
:1034A00089EC0BF0C282C2B2FED7C4CFDAF3C3CF2D
:1034B000D9F300019DEC0BF003C0C9F302C0C8F3BF
:1034C00001C0C7F300C0C6F3C6C300F0C7C301F014
:1034D000C8C302F0C9C303F0000C0301C551C70300
:1034E000F3CF01F0F4CF00F0C803F3500026C6512B
:1034F000C703F3500020026E0001000C0301DD51F0
:10350000D8B471D0006EE151D8B46DD0002604E378
:10351000810E002668E204D07F0E005E64E363E063
:10352000DEC3E5F3E251E51BDE8FE28FE051E403F9
:10353000F4CFE7F3DF51E303F4CF03F0F3CFE6F387
:10354000E403F350E727F450E623000E0322E05192
:10355000E303F350E727F450E623000E026A032248
:103560000222DE51E403F350E627F4500322000E5A
:103570000222DE51E303F3500326F4500222000E30
:10358000016A0122E051E203F350E627F4500322DE
:10359000000E02220122DF51E203F3500326F45011
:1035A0000222000E0122DE51E203F3500226F45003
:1035B0000122002A01BE05D0E63703360236013665
:1035C0000006000EE6AF0AD0032A022201220150B3
:1035D00005E1025003E1035001E1002AE5BF018E3D
:1035E000E5AF019E04D0006A016A026A036A000125
:1035F000000C0201E96BE86BE76BE66B0301C56B3E
:1036000000013FDF03C0D5F202C0D4F201C0D3F203
:1036100000C0D2F2D5C2CCF3D4C2CBF3D3C2CAF32A
:10362000D2C2C9F3EC0E0301D06FD10ECF6F590E89
:10363000CE6F850ECD6F0001B8EC0BF003C0D5F254
:1036400002C0D4F201C0D3F200C0D2F2D892D5C2E7
:10365000DCF3D4C2DBF3D3C2DAF3D2C2D9F35C0E0B
:103660000301E06F8F0EDF6F6E0EDE6F820EDD6F77
:10367000000167EC0CF003C0D5F202C0D4F201C027
:10368000D3F200C0D2F20301CC6BC00ECB6F7F0E21
:10369000CA6F880EC96FD5C2D0F3D4C2CFF3D3C2DC
:1036A000CEF3D2C2CDF30001B8EC0BF000C0C5F3ED
:1036B00001C0C6F302C0C7F303C0C8F3D88203C079
:1036C000DCF302C0DBF301C0DAF300C0D9F303017D
:1036D000E06BDF6BDE6B7F0EDD6F000167EC0CF0E3
:1036E000B3C2CCF3B2C2CBF3B1C2CAF3B0C2C9F316
:1036F00003C0D0F302C0CFF301C0CEF300C0CDF3BE
:10370000B8EC0BF003C0D9F202C0D8F201C0D7F276
:1037100000C0D6F2010E0301C45D0201C95D02E0E2
:1037200001E3C96B0301C66BC9C2C5F3C86B040EC4
:10373000C76F0001D2DE0150C00FE96E000E0220FB
:10374000EA6ED6C2EFFFD7C2ECFFD8C2ECFFD9C2F7
:10375000ECFF0201C92BC86B0301C4510201C85D13
:103760003FE20301C66BC8C2C5F3C86B040EC76F46
:103770000001B3DE02C003F00150C00FE96E000E7D
:103780000220EA6EEFCF00F0ECCF01F0ECCF02F0B8
:10379000ECCF03F0EACFC6F3E9CFC5F3D892E9C284
:1037A000DCF3E8C2DBF3E7C2DAF3E6C2D9F303C025
:1037B000E0F302C0DFF301C0DEF300C0DDF367EC2D
:1037C0000CF0C6C3EAFFC5C3E9FF03C0E9F202C0BB
:1037D000E8F201C0E7F200C0E6F20201C82BBCD754
:1037E0000301DA6BC4C3D9F300019DEC0BF0E9C20D
:1037F000CCF3E8C2CBF3E7C2CAF3E6C2C9F303C015
:10380000D0F302C0CFF301C0CEF300C0CDF3B8ECCB
:103810000BF003C0E9F202C0E8F201C0E7F200C019
:10382000E6F2E9C2E0F3E8C2DFF3E7C2DEF3E6C2A4
:10383000DDF3E9C2E4F3E8C2E3F3E7C2E2F3E6C290
:10384000E1F35CDE00C0C5F301C0C6F302C0C7F3FC
:1038500003C0C8F303C0E0F302C0DFF301C0DEF32E
:1038600000C0DDF31DC3E4F31CC3E3F31BC3E2F3A9
:103870001AC3E1F343DE00C0C5F301C0C6F302C0C2
:10388000C7F303C0C8F3E9C2E0F3E8C2DFF3E7C25D
:10389000DEF3E6C2DDF321C3E4F320C3E3F31FC389
:1038A000E2F31EC3E1F32ADED892C8C3DCF3C7C338
:1038B000DBF3C6C3DAF3C5C3D9F303C0E0F302C038
:1038C000DFF301C0DEF300C0DDF367EC0CF000C0F5
:1038D000C5F301C0C6F302C0C7F303C0C8F3D89252
:1038E00003C0DCF302C0DBF301C0DAF300C0D9F39C
:1038F00025C3E0F324C3DFF323C3DEF322C3DDF3E8
:1039000067EC0CF003C0EDF202C0ECF201C0EBF288
:1039100000C0EAF20301DA6BCAC2D9F300019DECE0
:103920000BF000C0C5F301C0C6F302C0C7F303C06B
:10393000C8F30301DA6BCBC2D9F300019DEC0BF0A5
:10394000D882C8C3DCF3C7C3DBF3C6C3DAF3C5C38D
:10395000D9F303C0E0F302C0DFF301C0DEF300C01F
:10396000DDF367EC0CF0D892EDC2DCF3ECC2DBF3D4
:10397000EBC2DAF3EAC2D9F303C0E0F302C0DFF32B
:1039800001C0DEF300C0DDF367EC0CF003C0EDF224
:1039900002C0ECF201C0EBF200C0EAF2EAC200F0B1
:1039A000EBC201F0ECC202F0EDC203F0000C030127
:1039B00031510508D8A4AFD03BC030F03CC031F045
:1039C0003DC032F03EC033F03FC034F040C035F06F
:1039D00041C036F042C037F043C038F044C039F03F
:1039E000332C07D0346B3451365D02E034C336F3E8
:1039F00091D03350020808E1010E346F3451365D26
:103A000002E034C336F386D03350030808E1020ED7
:103A1000346F3451365D02E034C336F37BD033501B
:103A2000040808E1030E346F3451365D02E034C3FC
:103A300036F370D03350050808E1040E346F34516A
:103A4000365D02E034C336F365D03350060808E132
:103A5000050E346F3451365D02E034C336F35AD06C
:103A60003350070808E1060E346F3451365D02E02A
:103A700034C336F34FD03350080808E1070E346FD3
:103A80003451365D02E034C336F344D03350090874
:103A900008E1080E346F3451365D02E034C336F36A
:103AA00039D033500F0801E135D033501A0808E1FE
:103AB000140E346F3451365D02E034C336F32AD02D
:103AC00033501B0808E10F0E346F3451365D02E0AD
:103AD00034C336F31FD033501C0808E1100E346F86
:103AE0003451365D02E034C336F314D033502C0821
:103AF00008E1640E346F3451365D02E034C336F3AE
:103B000009D03350CC0806E1F00E346F3651F0087E
:103B100001E0FF0006D0336B3351090802E3332B79
:103B2000FBD7000132EF2CF08E0E006E0301D9514D
:103B3000005EDAC302F0DBC301F0028E005209E03E
:103B4000D890025202E1015204E002320132002E0A
:103B5000F7D7DAAF05D0011E021E012AD8B4022A17
:103B60000001000C15C3DCF314C3DBF313C3DAF359
:103B700012C3D9F3D9DF01C064F015C3DCF314C359
:103B8000DBF313C3DAF312C3D9F3CEDF0301DA6B2D
:103B900001C0D9F300019DEC0BF0D88215C3DCF312
:103BA00014C3DBF313C3DAF312C3D9F303C0E0F396
:103BB00002C0DFF301C0DEF300C0DDF367EC0CF000
:103BC00000C0D9F301C0DAF302C0DBF303C0DCF3B9
:103BD00003C0E0F302C0DFF301C0DEF300C0DDF399
:103BE0000301E46BE36B200EE26F820EE16F0001D4
:103BF00085DC03C0DCF302C0DBF301C0DAF300C0F4
:103C0000D9F392DF01C065F04DC366F000014EC3E9
:103C100067F000014FC368F0000150C369F0000174
:103C2000E1C2DCF3E0C2DBF3DFC2DAF3DEC2D9F3D8
:103C30007BDF01500A0DF3CF6AF094806B6B82B08A
:103C40006B2B94826C6B82B26C2B938A6D6B81AA06
:103C50006D2B938C6E6B81AC6E2B938E6F6B81AEE4
:103C60006F2BE5C2DCF3E4C2DBF3E3C2DAF3E2C2BA
:103C7000D9F35ADF01C070F03AC371F078C372F023
:103C800073C373F072C374F071C375F074C376F0CC
:103C900075C377F076C378F079C379F0B9EF1EF089
:103CA000080E016E050E006E002EFED78B969496C0
:103CB000060E006E002EFED70301DD378B98D8B0BC
:103CC0009488D8A09498948682A6FED7012E01D01D
:103CD00002D00001E7D7050E006E002EFED78B96AE
:103CE000949600009488060E006E002EFED7060EF5
:103CF000006E002EFED7948682A6FED7016A060EBD
:103D0000006E002EFED782B801808B9694968B9819
:103D100094980001000C9488050E006E002EFED7CA
:103D20009486060E006E002EFED78B989498050E92
:103D3000006E002EFED78B969496DAC3DDF3B0DFCB
:103D4000DBC3DDF3ADDFDCC3DDF3AADF9498000055
:103D5000948682A6FED7050E006E002EFED700D0F8
:103D600000009488050E006E002EFED7D3EF1EF0E3
:103D7000F9D60301376B3751150818E3A00E00017F
:103D8000856F036A03013751640FE96E000E03204B
:103D9000EA6EEFCFD9F385C0DAF337C3DBF3D9C3CB
:103DA000DCF30001B8D70301372BE5D70001000C85
:103DB0000201BF6BBE6BBD6BBC6B020E0301C56F16
:103DC000000141EC1AF003C005F302C004F301C086
:103DD00003F300C002F305C3CCF304C3CBF303C366
:103DE000CAF302C3C9F30301D06BC00ECF6F7F0EBD
:103DF000CE6F880ECD6F0001B8EC0BF000C0C5F39C
:103E000001C0C6F302C0C7F303C0C8F3D88203C021
:103E1000DCF302C0DBF301C0DAF300C0D9F30A0E11
:103E20000301E06FD70EDF6F230EDE6F7A0EDD6FBA
:103E3000000167EC0CF000C0C5F301C0C6F302C07E
:103E4000C7F303C0C8F303C0CCF302C0CBF301C077
:103E5000CAF300C0C9F319C3D0F318C3CFF317C313
:103E6000CEF316C3CDF3B8EC0BF003C009F302C0D8
:103E700008F301C007F300C006F309C3CBF308C37E
:103E8000CAF307C3C9F306C3C8F30301CF6BCE6BF4
:103E9000CD6BCC6B00018CEC14F005E30301096BD6
:103EA000086B076B066B010E0301C45D5D5D02E0EC
:103EB00001E35D6B5D51040DF350036AE96E020E80
:103EC0000324EA6E06C3EFFF07C3ECFF08C3ECFF51
:103ED00009C3ECFF5D2B5E6B010EC45D5E5D01E00E
:103EE00037E25E51040DF350036AE96E020E0324BB
:103EF000EA6EEFCF00F0ECCF01F0ECCF02F0ECCFA8
:103F000003F0EACFC6F3E9CFC5F3D892BFC2DCF322
:103F1000BEC2DBF3BDC2DAF3BCC2D9F303C0E0F327
:103F200002C0DFF301C0DEF300C0DDF3000167EC87
:103F30000CF0C6C3EAFFC5C3E9FF03C0BFF202C06D
:103F4000BEF201C0BDF200C0BCF203015E2BC4D7BB
:103F5000DA6BC4C3D9F300019DEC0BF0BFC2CCF304
:103F6000BEC2CBF3BDC2CAF3BCC2C9F303C0D0F317
:103F700002C0CFF301C0CEF300C0CDF3B8EC0BF01C
:103F800003C0BFF202C0BEF201C0BDF200C0BCF26D
:103F9000BCC200F0BDC201F0BEC202F0BFC203F05D
:103FA0009DEF2CF00201C76BC66BC56BC46B030E93
:103FB0000301C56F000141EC1AF003C00DF302C00C
:103FC0000CF301C00BF300C00AF30DC3CCF30CC318
:103FD000CBF30BC3CAF30AC3C9F30301D06BC00E02
:103FE000CF6F7F0ECE6F880ECD6F0001B8EC0BF057
:103FF00000C0C5F301C0C6F302C0C7F303C0C8F3D5
:10400000D88203C0DCF302C0DBF301C0DAF300C0E6
:10401000D9F30A0E0301E06FD70EDF6F230EDE6FB8
:104020007A0EDD6F000167EC0CF000C0C5F301C033
:10403000C6F302C0C7F303C0C8F303C0CCF302C089
:10404000CBF301C0CAF300C0C9F319C3D0F318C33E
:10405000CFF317C3CEF316C3CDF3B8EC0BF003C008
:1040600011F302C010F301C00FF300C00EF311C32F
:10407000CBF310C3CAF30FC3C9F30EC3C8F30301D4
:10408000CF6BCE6BCD6BCC6B00018CEC14F005E3E9
:104090000301116B106B0F6B0E6B010E0301C45DFE
:1040A0005F5D02E001E35F6B5F51040DF350036A53
:1040B000500FE96E020E0320EA6E0EC3EFFF0FC32E
:1040C000ECFF10C3ECFF11C3ECFF5F2B606B010E24
:1040D000C45D605D01E038E26051040DF350036A95
:1040E000500FE96E020E0320EA6EEFCF00F0ECCF26
:1040F00001F0ECCF02F0ECCF03F0EACFC6F3E9CF4A
:10410000C5F3D892C7C2DCF3C6C2DBF3C5C2DAF38B
:10411000C4C2D9F303C0E0F302C0DFF301C0DEF391
:1041200000C0DDF3000167EC0CF0C6C3EAFFC5C3B5
:10413000E9FF03C0C7F202C0C6F201C0C5F200C069
:10414000C4F20301602BC3D7DA6BC4C3D9F30001F7
:104150009DEC0BF0C7C2CCF3C6C2CBF3C5C2CAF309
:10416000C4C2C9F303C0D0F302C0CFF301C0CEF381
:1041700000C0CDF3B8EC0BF003C0C7F202C0C6F22A
:1041800001C0C5F200C0C4F2C4C200F0C5C201F053
:10419000C6C202F0C7C203F0B1EF2CF0C9C3CAF324
:1041A0000301CA39006E0F0E001600500A0DF3CF3E
:1041B000C9F3CA39006EF00E00160050003A0F0E17
:1041C00000160050C927C9C301F00001000C03010B
:1041D00069512D080AE2FF0A03E16851E00805E28F
:1041E000696B686B0001A3910301C42D2AD09380F1
:1041F00081A009D0938281A206D0938481A403D0A8
:10420000938681B602D00001A3810001A3B115D02D
:10421000A28D0301675303E16651C8080CE2676B86
:10422000666B0001A27FA2AF03D08C80959002D074
:104230008C909590030104D000018C90959003011F
:104240002CD0C451020829E1938081A009D0938227
:1042500081A206D0938481A403D0938681B602D034
:10426000150E636F0001A28D03016351130813E360
:10427000675303E1665164080DE2676B666B0001EA
:10428000A27FA2AF03D08C80959002D08C909590A5
:104290000301632B02D08C9095900001000C306AD2
:1042A000316A326A336A346A356A366A376A386A1A
:1042B000396A3B6A3C6A3D6A3E6A3F6A406A416AC3
:1042C000426A436A446A53EF2DF00900F6CFC9F3FE
:1042D000F7CFCAF3F8CFCBF3F5509EA8FED7AD6E5B
:1042E000C9C3F6FFCAC3F7FFCBC3F8FF0301C82F4A
:1042F00001D002D00001E9D70001000C0301CF5129
:10430000016ACE5D03E2CEC300F00CD0006A080E55
:10431000D06FCE370036CF51005CD8B0006E01367A
:10432000D02FF7D70001000C0150C6C3CEF3640EA6
:104330000301CF6F0001E2DF00C0C6F30150300E71
:1043400008E10301C7A30ED0C7B70CD0C7B9200E30
:1043500004D00301C797C799C781012601509EA8C1
:10436000FED7AD6EC6C3CEF30A0ECF6F0001C6DF17
:1043700000C0C6F30150300E08E10301C7B70BD0EF
:10438000C7A109D0C7B9200E0001012601509EA87F
:10439000FED7AD6E0301300EC627C6519EA8FED7CC
:1043A000AD6E0001000CCEC3B3F0CFC3B4F0D0C3E8
:1043B000B5F0D1C3B6F0D2C3BCF0D3C3BDF0D4C303
:1043C000BEF0D5C3BFF0D8C33BF303013F6B000180
:1043D000A39D0301D6A103D00001A38D0301D7C380
:1043E0003AF32D2D0DD0050E796F0001C1DC640E5E
:1043F0000301D96F000189EC0BF00A0E0301796FFC
:10440000B3C0AEF0B4C0AFF0B5C0B0F0B6C0B1F05C
:10441000B7C0B2F0BCC0B8F0BDC0B9F0BEC0BAF011
:10442000BFC0BBF00001000CEACFD0F3E9CFCFF35F
:104430000301C939F009CB6FCB27E20FCC6F320FE4
:10444000CE6FC9510F0BCC27CC27CE27E90FCD6FEC
:10445000CD27CD27C8390F0BCD27CE27CD37CE3767
:10446000CE1FCE37C8510F0BCE27CB37070ECA6FE2
:104470000A0ECD07CE27FDE3CC07CD27FDE3CB0702
:10448000CC27FDE3CA07CB27FDE3030EEA6ECA0E75
:10449000E96E070ECF15CF9DE926CE0EE95CD8B4A4
:1044A000CF8DEF50006E08E1CFBD06D0CFB90CD054
:1044B000CFB702D0200E03D0CF87CF99300E002681
:1044C00000509EA8FED7AD6EEE50CFADE6D70001EE
:1044D000000C0301D551B608D56F036AD6C3D9F3D2
:1044E000D68FD890D633D733D83303320232013245
:1044F0000032D52FF6D7D9AF0BD0001E011E021EF9
:10450000031E002AD8B4012AD8B4022AD8B4032A38
:104510000001F7EF22F0006A016A026A036A0301F0
:10452000DD6BDE6BDF6BE06BDC51DB11DA11D91177
:104530002CE0200EE16FD890D537D637D737D83753
:10454000DD37DE37DF37E037DC51E05D08E1DB5196
:10455000DF5D05E1DA51DE5D02E1D951DD5D0FE39A
:10456000D951DD5FDA51D8A0DA3DDE5FDB51D8A04A
:10457000DB3DDF5FDC51D8A0DC3DE05FD88000365A
:10458000013602360336E12FD6D7030EEA6EDD0E72
:10459000E96E0001000CE9500301CD6FCC51CF6FE3
:1045A0001CE0CBC3E0F3CAC3DFF3C9C3DEF3C8C367
:1045B000DDF3E46BE36B200EE26F820EE16F00012E
:1045C0007EEC1AF003C0CBF302C0CAF301C0C9F3FA
:1045D00000C0C8F30301CF2FE4D7CBC3D8F3CAC3BD
:1045E000D7F3C9C3D6F3C8C3D5F3000172D703C04C
:1045F000CBF302C0CAF301C0C9F300C0C8F3030182
:10460000CBAF0DD0CD07CD8BC81FC91FCA1FCB1F85
:10461000C82BD8B4C92BD8B4CA2BD8B4CB2B3B0EDB
:10462000D46F9A0ED36FCA0ED26FD16B0A0ECF6FB2
:10463000CC51D8B4CD2BCBC3D8F3CAC3D7F3C9C39D
:10464000D6F3C8C3D5F3D4C3DCF3D3C3DBF3D2C3EF
:10465000DAF3D1C3D9F300015EDF0150EFCFC8F325
:10466000ECCFC9F3ECCFCAF3ECCFCBF3005213E19C
:104670000301CC29CF5DD8A402D000010CD0CD51CC
:104680000DE00F0BCF5D01E03CE2CDBF3AD0CDBDD8
:1046900005D0200E31D0200E0301CD17CDAB0DD0AB
:1046A000CD9BCC51D8A4CD070050CD6F2D0E9EA828
:1046B000FED7AD6ECD51006ECD6BCC51CF5D0BE111
:1046C0000050CD6F2E0E9EA8FED7AD6ECD51006E60
:1046D000200ECD17000E300ECDAB0ED0CD9BCC51A1
:1046E000D8A4CD070050CD6F2D0E9EA8FED7AD6E7D
:1046F000CD51006ECD6B300E002600509EA8FED727
:10470000AD6ED4C3D8F3D3C3D7F3D2C3D6F3D1C3DA
:10471000D5F3DC6BDB6BDA6B0A0ED96F0001FBDEC5
:1047200003C0D4F302C0D3F301C0D2F300C0D1F36D
:104730000301CF2F80D70001000C016A026A006AD2
:10474000036A0301C85102E1C75118E0100EC96F96
:10475000D890C537C63700360336C851035C02E12E
:10476000C751005C07E3C751005ED8A00306C851DB
:10477000035ED88001360236C92FEAD70001D7EF91
:1047800023F00301C451030B09E1C4C3CEF3640E4B
:10479000CF6F0001B3DD005218E10301C66BC4C343
:1047A000C5F3010EC86F900EC76F0001C6D700C0D9
:1047B000C5F3030103C0C6F3C55305E1C653D8A42E
:1047C00002D0000102D0000E02D0010E0301016EE2
:1047D0000001000CCAC3CEF30A0E0301CF6F000123
:1047E0008DDD01C0CBF30301CB510A0DF350CA5D3F
:1047F000CC6FCB39006EF00E00160050CC11016E5C
:104800000001000CC4C3CAF3E5DF01C0CAF3860E81
:104810000301CB6F01C0CCF300012DEC14F0C5C334
:10482000CAF3D8DF01C0CAF3880E0301CB6F01C001
:10483000CCF300012DEC14F0C6C3CAF3CBDF01C0EA
:10484000CAF38C0E0301CB6F01C0CCF300012DEC39
:1048500014F0C7C3CAF3BEDF01C0CAF38A0E030156
:10486000CB6F01C0CCF300012DEC14F0C8C3CAF328
:10487000B1DF01C0CAF3840E0301CB6F01C0CCF3DA
:1048800000012DEC14F0C9C3CAF3A4DF01C0CAF3C0
:10489000820E0301CB6F01C0CCF300012DEC14F0AC
:1048A0000301CA6B000196DF01C0CAF3800E030149
:1048B000CB6F01C0CCF300012DEC14F0ABEF42F054
:1048C000030172510C0802E20A0E726F73511F0845
:1048D00002E2100E736F7151630802E2120E716FE3
:1048E0007451180802E20B0E746F75513B0802E216
:1048F0001E0E756F7251020815E171C3C4F30001F9
:1049000040DF015208E0030173511D0802E21D0E51
:10491000736F07D00001030173511C0802E21C0EE3
:10492000736F15D07251070809E37251010B05E14D
:1049300073511E0802E21E0E736F09D07251010BF3
:10494000010805E173511E0802E21E0E736F00019B
:10495000F9EF43F00301CC6BCD6BCBC3CEF30A0E62
:10496000CF6F0001CBDC01C0CCF30301CC510A0DA9
:10497000F3CFCCF3CC51CB5DCD6FCDC301F00001B3
:10498000000C03016251040DF350036AB40FE96E89
:10499000020E0320EA6EEAC2EFFFEBC2ECFFECC2AC
:1049A000ECFFEDC2ECFF622B625101081EE2626B6C
:1049B000D882BBC2DCF3BAC2DBF3B9C2DAF3B8C245
:1049C000D9F3B7C2E0F3B6C2DFF3B5C2DEF3B4C2C7
:1049D000DDF3000167EC0CF003C0C3F202C0C2F2C9
:1049E00001C0C1F200C0C0F20301000134EF25F0A4
:1049F0000301DA6B27C3D9F300019DEC0BF003C070
:104A0000CCF302C0CBF301C0CAF300C0C9F3030169
:104A1000D06BCF6BCE6B800ECD6F0001B8EC0BF07E
:104A200000C0C4F301C0C5F302C0C6F303C0C7F39E
:104A30000301DA6B2BC3D9F300019DEC0BF0C7C364
:104A4000CBF3C6C3CAF3C5C3C9F3C4C3C8F303C019
:104A5000CFF302C0CEF301C0CDF300C0CCF38CEC99
:104A600014F001E203E18DD703012B6B0301DA6B34
:104A70003BC3D9F300019DEC0BF0D892FDC2DCF3EF
:104A8000FCC2DBF3FBC2DAF3FAC2D9F303C0E0F3F2
:104A900002C0DFF301C0DEF300C0DDF367EC0CF011
:104AA00000C0C4F301C0C5F302C0C6F303C0C7F31E
:104AB000D88203C0DCF302C0DBF301C0DAF300C02C
:104AC000D9F315C3E0F314C3DFF313C3DEF312C34A
:104AD000DDF367EC0CF003C0E5F202C0E4F201C0C4
:104AE000E3F200C0E2F20301CB6BCA6BC96B7F0E2D
:104AF000C86FE5C2CFF3E4C2CEF3E3C2CDF3E2C2A6
:104B0000CCF300018CEC14F0D8A013D1E5C2CBF3A8
:104B1000E4C2CAF3E3C2C9F3E2C2C8F30301CF6B34
:104B2000CE6B700ECD6F820ECC6F00018CEC14F04A
:104B3000D8A0FFD0C3C2CBF3C2C2CAF3C1C2C9F36B
:104B4000C0C2C8F39A0E0301CF6F990ECE6F190E33
:104B5000CD6F7D0ECC6F00018CEC14F0D8A0E9D0A5
:104B6000E1C2CBF3E0C2CAF3DFC2C9F3DEC2C8F3CD
:104B70000301CF6BCE6BCD6B810ECC6F00018CEC43
:104B800014F0D8A0D4D0030129852751615DD8A0A5
:104B9000CCD0616BC3C2CBF3C2C2CAF3C1C2C9F3EA
:104BA000C0C2C8F3CF6BCE6B800ECD6F7E0ECC6FC4
:104BB00000018CEC14F038E30301DA6B26C3D9F35F
:104BC00000019DEC0BF0D89203C0DCF302C0DBF3D4
:104BD00001C0DAF300C0D9F3CD0E0301E06FCC0EB3
:104BE000DF6F4C0EDE6F7C0EDD6F000167EC0CF0AA
:104BF000D892F5C2DCF3F4C2DBF3F3C2DAF3F2C20B
:104C0000D9F303C0E0F302C0DFF301C0DEF300C05C
:104C1000DDF367EC0CF003C0F5F202C0F4F201C062
:104C2000F3F200C0F2F280D0C3C2CBF3C2C2CAF327
:104C3000C1C2C9F3C0C2C8F3CD0E0301CF6FCC0E01
:104C4000CE6FCD6F7B0ECC6F00018CEC14F038E38F
:104C50000301DA6B26C3D9F300019DEC0BF0D88277
:104C600003C0DCF302C0DBF301C0DAF300C0D9F308
:104C7000CD0E0301E06FCC0EDF6F4C0EDE6F7C0EAD
:104C8000DD6F000167EC0CF0D892F5C2DCF3F4C2E2
:104C9000DBF3F3C2DAF3F2C2D9F303C0E0F302C0EC
:104CA000DFF301C0DEF300C0DDF367EC0CF003C0FE
:104CB000F5F202C0F4F201C0F3F200C0F2F234D017
:104CC0000301DA6B26C3D9F300019DEC0BF0D88207
:104CD00003C0DCF302C0DBF301C0DAF300C0D9F398
:104CE0000301E06BDF6BDE6B7E0EDD6F000167ECB6
:104CF0000CF0D892F5C2DCF3F4C2DBF3F3C2DAF3C2
:104D0000F2C2D9F303C0E0F302C0DFF301C0DEF367
:104D100000C0DDF367EC0CF003C0F5F202C0F4F262
:104D200001C0F3F200C0F2F2030103D0000103015D
:104D30002995E5C2CBF3E4C2CAF3E3C2C9F3E2C2E8
:104D4000C8F39A0E0301CF6F990ECE6FCD6F7D0E13
:104D5000CC6F00018CEC14F008E3F9C2F5F2F8C254
:104D6000F4F2F7C2F3F2F6C2F2F2F5C2CBF3F4C2F8
:104D7000CAF3F3C2C9F3F2C2C8F30301CF6BCE6B1F
:104D8000CD6B7F0ECC6F00018CEC14F006E30201BA
:104D9000F56BF46BF36B7F0EF26FE5C2CBF3E4C2FD
:104DA000CAF3E3C2C9F3E2C2C8F30301CF6BCE6B0F
:104DB000CD6BCC6B00018CEC14F006E30201E56BCB
:104DC000E46BE36BE26B0001E5C2E0F3E4C2DFF306
:104DD000E3C2DEF3E2C2DDF3F5C2E4F3F4C2E3F3CF
:104DE000F3C2E2F3F2C2E1F37EEC1AF003C0F1F297
:104DF00002C0F0F201C0EFF200C0EEF20301DA6B84
:104E00003BC3D9F300019DEC0BF003C0CBF302C010
:104E1000CAF301C0C9F300C0C8F3F1C2CFF3F0C2B6
:104E2000CEF3EFC2CDF3EEC2CCF38CEC14F00FE373
:104E30000301DA6B3BC3D9F300019DEC0BF003C017
:104E4000F1F202C0F0F201C0EFF200C0EEF2F1C2E6
:104E5000CBF3F0C2CAF3EFC2C9F3EEC2C8F3030149
:104E6000CF6BCE6BCD6BCC6B00018CEC14F005E3FB
:104E70000201F16BF06BEF6BEE6B0301DA6B3BC37E
:104E8000D9F300019DEC0BF0F1C2CCF3F0C2CBF3EF
:104E9000EFC2CAF3EEC2C9F303C0D0F302C0CFF32E
:104EA00001C0CEF300C0CDF3B8EC0BF003C001F3AA
:104EB00002C000F301C0FFF200C0FEF201C3E0F344
:104EC00000C3DFF3FFC2DEF3FEC2DDF3DDC2E4F3B5
:104ED000DCC2E3F3DBC2E2F3DAC2E1F37EEC1AF008
:104EE00003C0E1F202C0E0F201C0DFF200C0DEF276
:104EF000E1C2CCF3E0C2CBF3DFC2CAF3DEC2C9F336
:104F00000A0E0301D06FD70ECF6F230ECE6F770E30
:104F1000CD6F0001B8EC0BF003C0DCF302C0DBF393
:104F200001C0DAF300C0D9F394EC1DF002C0ABF07D
:104F300001C0AAF0DDC2CCF3DCC2CBF3DBC2CAF302
:104F4000DAC2C9F30A0E0301D06FD70ECF6F230E5A
:104F5000CE6F770ECD6F0001B8EC0BF003C0DCF321
:104F600002C0DBF301C0DAF300C0D9F394EC1DF00A
:104F700002C0ADF001C0ACF0010E03012C6F0001C6
:104F8000000CF86AF1949F909F8AD08E078EEA6A8F
:104F9000E96AB886080EAF6E020EB06EA60EAC6E51
:104FA000900EAB6E466A476A486A626B636B846BAD
:104FB000856B866B9F919F939F959F979F999F9BD2
:104FC0009F9D9F9FA091A093A095A097A099A09B23
:104FD000A09DA09FA191A193A195A197A199A19B0B
:104FE000A19DA19FA291A293A295A297A299A29BF3
:104FF000A29DA29FA391A393A395A397A399A39BDB
:10500000A56BA46BA76BA66BA96BA86BAB6BAA6B0C
:10501000AD6BAC6B9A0E0201A36F990EA26F0D0ED1
:10502000A16F860EA06FA76BA66BA56B7E0EA46FFB
:10503000AB6BAA6BA96BA86BAF6BAE6B480EAD6F79
:10504000850EAC6FB36BD00EB26F540EB16F8B0E7A
:10505000B06FBF6BBE6BBD6BBC6BC36BC26BC16B08
:10506000C06BC76BC66BC56BC46BC86BC96BCA6BB7
:10507000CB6B140ECC6FCD6BCE6BCF6BD06BD16B7B
:10508000D56BD46BD36BD26BDD6BDC6B200EDB6F1F
:10509000820EDA6FE16BE06BDF6BDE6BE56BE46B6E
:1050A000E36BE26BE96BE86BE76BE66BED6BEC6B6C
:1050B000EB6BEA6BF16BF06BEF6BEE6BF56BF46B1C
:1050C000480EF36F830EF26FF96BF86B200EF76FDB
:1050D000830EF66FFD6BFC6BFB6B7F0EFA6F0301AB
:1050E000016B006B0201FF6BFE6B0301056B046B30
:1050F000036B026B096B086B076B066B0D6B0C6B1C
:105100000B6B0A6B116B106B0F6B0E6B156B146BCB
:10511000136B126B4A0E196F880E186F280E176FDB
:10512000750E166FE00E1D6F2D0E1C6F100E1B6F8F
:10513000750E1A6FFF0E216F210E206F150E1F6F57
:10514000800E1E6F820E256F120E246FF40E236FD9
:10515000860E226F266B276B286B0001A39DA39FF1
:105160000301299129932995299729992A6B2B6B5A
:105170002C6B010E2D6F020E2E6F2F6B010E306FF8
:10518000316B326B336B346B356BF00E366F376BC4
:10519000386B396B3A6B3B6B010E3C6F3D6F3E6B6E
:1051A0003F6B406B426B416B446B436B466B456B93
:1051B000486B476B4A6B496B4C6B4B6B4E6B4D6B43
:1051C000506B4F6B526B516B546B536B5D6B5E6BE3
:1051D0005F6B606B616B626B636B656B646B676B62
:1051E000666B696B686B120E6A6F090E6B6F0D0E42
:1051F0006C6F6D6B6E6B6F6B706B716B726B736BD7
:10520000746B756B766B776B786B796B7A6B7B6B8A
:105210007C6B7D6BC150C00B0F09C16E070EB46E65
:105220002A6A2B6A0001876B030E886F896F060E4E
:105230008A6F010E8B6F040E8C6F060E8D6F020E3F
:105240008E6F050E8F6F906B030E916F050E926F30
:10525000936B030E946F040E956F966B020E976F0F
:10526000050E986F996B030E9A6F060E9B6F010ED9
:105270009C6F040E9D6F060E9E6FAE6BAF6BB06B96
:10528000B16BB26BB36BB46BB56BB66BB76BB86B22
:10529000B96BBA6BBB6BBC6BBD6BBE6BBF6BC06BD2
:1052A000C16BC26BC36BC46BC56BC66BC76BC86B82
:1052B000C96BCA6BCB6BCC6BCD6BCE6BCF6BD06B32
:1052C000D16BD26BD36BD46BD56BD66BD76BD86BE2
:1052D000D96BDA6BDB6BDC6BDD6BDE6BDF6BE06B92
:1052E000E16BE26BE36BE46BE56BE66BE76BE86B42
:1052F000E96BEA6BEB6BEC6BED6BEE6BEF6BF06BF2
:10530000F16BF26BF36BF46BF56BF66BF76BF86BA1
:10531000F96BFA6BFB6BFC6BFD6BFE6BFF6B0101BA
:10532000006B016B026B036B046B056B066B076B09
:10533000086B096B0A6B0B6B0C6B0D6B0E6B0F6BB9
:10534000106B116B126B136B146B156B166B176B69
:10535000186B196B1A6B1B6B1C6B1D6B1E6B1F6B19
:10536000206B216B226B236B246B256B266B276BC9
:10537000286B296B2A6B2B6B2C6B2D6B2E6B2F6B79
:10538000306B316B326B336B346B356B366B376B29
:10539000386B396B3A6B3B6B3C6B3D6B3E6B3F6BD9
:1053A000406B416B426B436B446B456B466B476B89
:1053B000486B496B4A6B4B6B4C6B4D6B4E6B4F6B39
:1053C000506B516B526B536B546B556B566B576BE9
:1053D000586B596B5A6B5B6B5C6B5D6B5E6B5F6B99
:1053E000606B616B626B636B646B656B666B676B49
:1053F000686B696B6A6B6B6B6C6B6D6B6E6B6F6BF9
:10540000706B716B726B736B746B756B766B776BA8
:10541000786B796B7A6B7B6B7C6B7D6B7E6B7F6B58
:10542000806B816B826B836B846B856B866B876B08
:10543000886B896B8A6B8B6B8C6B8D6B8E6B8F6BB8
:10544000906B916B926B936B946B956B966B976B68
:10545000986B996B9A6B9B6B9C6B9D6B9E6B9F6B18
:10546000A06BA16BA26BA36BA46BA56BA66BA76BC8
:10547000A86BA96BAA6BAB6BAC6BAD6BAE6BAF6B78
:10548000B06BB16BB26BB36BB46BB56BB66BB76B28
:10549000B86BB96BBA6BBB6BBC6BBD6BBE6BBF6BD8
:1054A000C06BC16BC26BC36BC46BC56BC66BC76B88
:1054B000C86BC96BCA6BCB6BCC6BCD6BCE6BCF6B38
:1054C000D06BD16BD26BD36BD46BD56BD66BD76BE8
:1054D000D86BD96BDA6BDB6BDC6BDD6BDE6BDF6B98
:1054E000E06BE16BE26BE36BE46BE56BE66BE76B48
:1054F000E86BE96BEA6BEB6BEC6BED6BEE6BEF6BF8
:10550000F06BF16BF26BF36BF46BF56BF66BF76BA7
:10551000F86BF96BFA6BFB6BFC6BFD6BFE6BFF6B57
:105520000201006B016B026B036B046B056B066B76
:10553000076B086B096B0A6B0B6B0C6B0D6B0E6BBF
:105540000F6B106B116B126B136B146B156B166B6F
:10555000176B186B196B1A6B1B6B1C6B1D6B1E6B1F
:105560001F6B206B216B226B236B246B256B266BCF
:10557000276B286B296B2A6B2B6B2C6B2D6B2E6B7F
:105580002F6B306B316B326B336B346B356B366B2F
:10559000376B386B396B3A6B3B6B3C6B3D6B3E6BDF
:1055A0003F6B406B416B426B436B446B456B466B8F
:1055B000476B486B496B4A6B4B6B4C6B4D6B4E6B3F
:1055C0004F6B506B516B526B536B546B556B566BEF
:1055D000576B586B596B5A6B5B6B5C6B5D6B5E6B9F
:1055E0005F6B606B616B626B636B646B656B666B4F
:1055F000676B686B696B6A6B6B6B6C6B6D6B6E6BFF
:105600006F6B706B716B726B736B746B756B766BAE
:10561000776B786B796B7A6B7B6B7C6B7D6B7E6B5E
:105620007F6B806B816B826B836B846B856B866B0E
:10563000876B886B896B8A6B8B6B8C6B8D6B8E6BBE
:105640008F6B906B916B926B936B946B956B966B6E
:10565000976B986B996B9A6B9B6B9C6B9D6B9E6B1E
:105660009F6BB46BB56BB66BB76BB86BB96BBA6B42
:10567000BB6B0301556B566B576B586B596B5A6B71
:105680005B6B5C6B190E7E6F100E7F6F160E806F5A
:10569000180E816F170E826F1C0E836F140E846FAD
:1056A0002E0E856F866B876B886B896B8A6B8B6B15
:1056B0008C6B220E8D6F240E8E6F120E8F6F210E4B
:1056C000906F200E916F260E926F130E936F110E36
:1056D000946F956B966B976B986B996B9A6B9B6BB2
:1056E0000001866B86510F080AE3036A8651640F36
:1056F000E96E000E0320EA6EEF6A862BF3D7C80E20
:10570000D56EF28A850ECD6E9D80C150C00B0B09FF
:10571000C16EC050C00B0209C06EC08EC280F19E27
:105720009D8AD180C00EF212A3EF0DF063EF14F04A
:10573000010E0301D96F000189EC0BF0F0EF14F0BA
:1057400003012E513C0DF3CF2FF3700EF66E040EB5
:10575000F76E000EF86E0001FFEC19F018EC1AF06D
:10576000800EF66E040EF76E000EF86EFFEC19F068
:1057700018EC1AF0060E0301C46FFA0ED96F00017F
:1057800089EC0BF00301C42FF8D7880EF66E040ED7
:10579000F76E000EF86E0001FFEC19F018EC1AF02D
:1057A00033EC1AF00301376B0201CC510301375D72
:1057B00010E2CCC2C4F30001F9EC1AF003C015F3F7
:1057C00002C014F301C013F300C012F30301372B1E
:1057D000EBD7938081B043D0938281B240D0938441
:1057E00081B43DD0938681B63AD0AA6A250EA96EBF
:1057F000A86AA69CA69EA684F250006EF29CF29E19
:105800000F01550EA76EAA0EA76EA682A6B2FED7EE
:10581000A6940050F212140E0301D96F000189EC16
:105820000BF0AA6A260EA96EA86AA69CA69EA6845C
:10583000F250006EF29CF29E0F01550EA76EAA0E5A
:10584000A76EA682A6B2FED7A6940050F212140E3E
:105850000301D96F000189EC0BF0FF000301000187
:10586000D7EF1CF0B8EC1EF0010E0301D96F000158
:1058700089EC0BF00400A1B52BD00301CB6BCA6BF4
:10588000700EC96F840EC86F15C3CFF314C3CEF367
:1058900013C3CDF312C3CCF300018CEC14F003E37B
:1058A0008C8A959A15D015C3CBF314C3CAF313C3CE
:1058B000C9F312C3C8F30301CF6BCE6B5C0ECD6F7F
:1058C000840ECC6F00018CEC14F002E38C9A959A54
:1058D000948282B209D0A96BA86B03012C6B0001E2
:1058E000A099A96BA86B09D0A089A95303E1A8517D
:1058F000020803E2A099A0819F9F03014451180868
:1059000003E22981446B436B465304E1455113087C
:10591000D8B09AD0CCC2C4F30001F9EC1AF003C09D
:1059200015F302C014F301C013F300C012F30A0E02
:105930000301C46F0001D8EF1EF003C0DCF302C006
:10594000DBF301C0DAF300C0D9F394EC1DF002C020
:105950004EF301C04DF30A0E0301C46F0001D2EFF4
:105960001FF003C0DCF302C0DBF301C0DAF300C0B8
:10597000D9F394EC1DF002C050F301C04FF3870E31
:105980000301C86F000138EC14F001C0C4F301C07A
:10599000C9F3CEEC20F001C06CF3890E0301C86F8F
:1059A000000138EC14F001C0C4F301C0C9F3CEEC1F
:1059B00020F001C06BF38D0E0301C86F000138ECBD
:1059C00014F001C0C4F301C0C9F3CEEC20F001C053
:1059D0006AF38B0E0301C86F000138EC14F001C0AC
:1059E000C4F301C0C9F3CEEC20F001C070F3850E02
:1059F0000301C86F000138EC14F001C0C4F301C00A
:105A0000C9F3CEEC20F001C06DF3830E0301C86F23
:105A1000000138EC14F001C0C4F301C0C9F3CEECAE
:105A200020F001C06EF3810E0301C86F000138EC55
:105A300014F001C0C4F301C0C9F3CEEC20F001C0E2
:105A40006FF30301466B456B938E81AE2ED0000140
:105A5000A0A302D0030129D0A1A502D0030125D023
:105A6000030129B30FD02983FF0E346F940EF66E15
:105A7000040EF76E000EF86E0001FFEC19F018EC42
:105A80001AF003012C6B8C8895988B8494948C9CD1
:105A9000959C0001A09D010E0301C46F0001E7EC7D
:105AA00020F04FEF21F004D0030129A301D0FF0023
:105AB00003013451F00824E1A40EF66E040EF76ED3
:105AC000000EF86E0001FFEC19F018EC1AF0060E4B
:105AD0000301C46FFA0ED96F000189EC0BF00301CA
