:0400000047EF0AF0CC
:08000800046ED8CF05F0E0CF33
:1000100006F00001E9CF0CF0EACF07F0E1CF08F0DD
:10002000E2CF09F0D9CF0AF0DACF0BF0F3CF12F01C
:10003000F4CF13F0FACF14F0FBCF15F000C00EF0A0
:1000400001C00FF002C010F003C011F09DA62CEF0C
:1000500000F09EB62EEF01F00EC000F00FC001F0D0
:1000600010C002F011C003F00CC0E9FF07C0EAFFA6
:10007000078E08C0E1FF09C0E2FF0AC0D9FF0BC02C
:10008000DAFF12C0F3FF13C0F4FF14C0FAFF15C06B
:10009000FBFF045006C0E0FF05C0D8FF100043413D
:1000A0004C454E54414D49454E544F000000000010
:1000B00000004E4F20454E5655454C544F5320316D
:1000C0003334000000004E4F20454E5655454C54E9
:1000D0004F532031323100000000454E5655454CFB
:1000E000544F532031333400000000000000454ECF
:1000F0005655454C544F532031323100000000001A
:100100000000454E5655454C544F20444F424C45F7
:10011000203100000000454E5655454C544F2044B8
:100120004F424C452032000000005052494F4E00D3
:100130000000000000000000000000000000424F2E
:100140005749452026204449434B00000000000049
:100150000000544553542044452046554741530020
:100160000000000000005445535420444520434FF4
:100170004D504F4E454E54455300484F5241205923
:10018000204645434841000041646D696E0000000F
:100190000000000000000000000000004F706572C9
:1001A00061646F7220310000000000000000000058
:1001B0004F70657261646F722032000000000000B1
:1001C000000000004F70657261646F7220330000A0
:1001D00000000000000000004F70657261646F72E3
:1001E0002034000000000000000000004F70657225
:1001F00061646F7220350000000000000000000004
:100200004F70657261646F7220360000000000005C
:10021000000000004F70657261646F72203700004B
:1002200000000000000000004F70657261646F7292
:100230002038000000000000000000005465636EDC
:1002400069636F00C95082C2C9FFC6889E96C7B055
:10025000FED7016AC6B8012A48EF01F0C7BA04D038
:100260000201656BC7B4658F02016551652B010101
:10027000F56FF55180080EE11B0E5524E96E020E54
:100280005620EA6EEFCF81F281C282F20001DAD706
:100290009DD00101C69C9EA6FED7C950C68802010A
:1002A000806F0101F52D03D080C21DF08ED0F55175
:1002B000020807E180C21EF01EC056F01DC055F0B6
:1002C00084D0F5510308D8A480D056520CE1555083
:1002D000270809E3400E5524E96E020E5620EA6E07
:1002E00080C2EFFF72D0565203E15550270816E244
:1002F000565214E15550880811E3280E555C02014E
:10030000816F000E5658826F650E8125E96E000ED2
:100310008221EA6E80C2EFFF57D00101565203E1FD
:100320005550880816E2565214E15550EB0811E377
:10033000890E555C0201816F000E5658826FC90EFE
:100340008125E96E000E8221EA6E80C2EFFF3CD06B
:100350000101565203E15550EB0818E256500108CE
:1003600015E303E155504F0811E3EC0E555C020113
:10037000816F000E5658826F2D0E8125E96E010E99
:100380008221EA6E80C2EFFF1FD0010156500008A3
:100390001CE2FF0A03E15550500817E256500108CD
:1003A00014E303E15550680810E3510E555C020157
:1003B000816F010E5658826F910E8125E96E010EF4
:1003C0008221EA6E80C2EFFF010100019E962CEFB0
:1003D00000F02020416A7573746F20466563686180
:1003E000207920686F7261200A00253032752D2532
:1003F0003032752D253032752020253032753A2562
:1004000030327520202530332E3166B04320202530
:1004100030334C756B5061200A00204155544F43D6
:100420004C415645204449474954414C20204A50AC
:1004300020494E474C4F42414C20200A0000204F9B
:1004400050455241444F523A5F5F5F5F5F5F5F5F6D
:100450005F5F5F5F5F5F5F5F5F5F5F5F5F5F0A0060
:1004600020204369636C6F20646520457374657256
:10047000696C697A6163696F6E202325303275205B
:100480000A00506572736F6E616C697A61646F20E7
:10049000253032750A004369636C6F20232530359F
:1004A0004C750A0046454348413A20253032752DA7
:1004B000253032752D25303275200A0020484F52E4
:1004C00041202054454D5020202020205043202002
:1004D00020202050502020200A00253032753A2557
:1004E000303275202530332E316625634320253088
:1004F000334C756B5061202530334C756B50612047
:100500000A00253032753A25303275202530332ED9
:100510003166256343202530334C756B50612025AF
:1005200030334C756B5061200A0020506172616459
:100530006120646520456D657267656E6369612041
:100540004163746976616461200A000020202020E4
:100550002020204369636C6F2043616E63656C618A
:10056000646F200A00002020205469656D706F20A0
:100570006465204C6C656E61646F2070726F6C6F87
:100580006E6761646F0A00002020202045413031F1
:10059000204369636C6F2043616E63656C61646FB7
:1005A000200A00002020202020205465726D6F73E7
:1005B0007461746F20416374697661646F0A00002E
:1005C0002020202045413032204369636C6F204356
:1005D000616E63656C61646F200A00005469656D2B
:1005E000706F2064652043616C656E74616D696530
:1005F0006E746F20457863657369766F0A002020FA
:10060000202045543031204369636C6F2043616E74
:1006100063656C61646F200A000020536F6272652D
:100620007061736F20656E206C612074656D7065FC
:100630007261747572610A002020202045543032A6
:10064000204369636C6F2043616E63656C61646F06
:10065000200A000020536F6272657061736F20651D
:100660006E206C612070726573696F6E0A002020C5
:10067000202045503031204369636C6F2043616E08
:1006800063656C61646F200A0000204572726F72AE
:1006900020656E20626F6D62612064652056616323
:1006A000696F0A00202020204556303120436963BD
:1006B0006C6F2043616E63656C61646F200A00009B
:1006C000205469656D706F20646520566163696FA1
:1006D00020457863657369766F0A0000202020202A
:1006E00045563032204369636C6F2043616E636509
:1006F0006C61646F200A00002020202020204369C4
:10070000636C6F2046696E616C697A61646F200A60
:10071000000020202020202020436F727265637427
:10072000616D656E7465200A0000202025303275E9
:100730003A2530327520202530332E3166B04320E3
:10074000202530334C756B506120200A000020209A
:1007500020204572726F7220456D70617175652041
:100760005075657274610A002020202045453031A3
:10077000204369636C6F2043616E63656C61646FD5
:10078000200A0000204155544F434C415645204417
:1007900049474954414C20204A5020494E474C4F2C
:1007A00042414C20200A0000204F50455241444F06
:1007B00052202025730A000020204369636C6F20BB
:1007C0006465204573746572696C697A6163696FE9
:1007D0006E202325303275200A00506572736F6ECB
:1007E000616C697A61646F20253032750A00436953
:1007F000636C6F20232530354C750A00464543480D
:10080000413A20253032752D253032752D25303274
:1008100075200A0020484F5241202054454D502059
:100820002020202050432020202020505020202015
:10083000416C0A00253032753A253032752025305A
:10084000332E3166256343202530334C756B506160
:10085000202530334C756B506120253032750A00ED
:10086000253032753A25303275202530332E3166E9
:10087000256343202530334C756B50612025303380
:100880004C756B506120253032750A002530327569
:100890003A25303275202530332E316625634320CA
:1008A0002530334C756B5061202530334C756B50BF
:1008B0006120253032750A00253032753A253032F4
:1008C00075202530332E3166256343202530334C87
:1008D000756B5061202530334C756B50612025308D
:1008E00032750A00496D70726573696F6E204669D2
:1008F0006E616C697A6164610A009EA8FED7AD6E74
:10090000000C020EEA6E670EE96EEF500DE0060E67
:10091000016E006A002EFED7012EFBD77B0E006E03
:10092000002EFED7EF2EF3D7000C8E0E006E6EC297
:1009300001F06DC202F0036A015209E102C001F048
:10094000026A080E005E015202E1006A08D0D890E7
:1009500001BE04D0023601360006F9D7019E000C14
:1009600002016D51D8B4A5D0796F7151D8B4A1D01E
:10097000795F05E37F0E7927D8B09BD006D0810E32
:10098000795FD8A096D0D8B494D079C200F0016A2B
:10099000026A036A786B6EC277F2778F6FC276F263
:1009A00070C275F2190E796F7451755F0DE2010E08
:1009B000765F0AE2775F08E2785F06E2782B772BB2
:1009C000762B7451752728D07351765F12E2010E91
:1009D000775F0FE2785F0DE2782B772B73517627E4
:1009E0007451752719E3762B17E1772B15E1782BD6
:1009F00013D072518009775F0EE2010E785F0BE22F
:100A0000782B72518009772773517627E9E3772B8A
:100A1000E7E1782BE5D70380792F01D00BD0D89070
:100A20007537763777377837D89003360236013600
:100A30007A37BAD77AA106D0D8900132023203327F
:100A40007A3302D0000635E07ABF1ED0D8907537D1
:100A50007637773778377451755F07E2010E765F26
:100A600004E2775F02E2785F1AE37351765F05E292
:100A7000010E775F02E2785F12E372518009775FBF
:100A800003E2010E785F0BE3032A09E1022A07E182
:100A9000012A05E1002A0DE00132023203326EC262
:100AA00079F27251791B79AF02D0018E06D0019E86
:100AB00004D0006A016A026A036A0001000C800E19
:100AC000D8A202D00201721B0201776B786B6EC252
:100AD00076F27251761B6D51D8B4DFD0756F006E0F
:100AE0007151D8B4E3D0755FD8B483D03EE372C2FD
:100AF0007BF27B8F73C27AF274C279F2786BD890F2
:100B00007B337A3379337833752FF8D776AF03D0C8
:100B10007781E0D0779175917789020EEA6E700E39
:100B2000E96EEBD0779976BF0AD075A113D07B33ED
:100B30007A3379337833002AD8B4C7D00BD07BBF4F
:100B40000CD0D890783779377A377B370006D8B40D
:100B5000BCD0F5D7778D6DD0779D6EC276F26EAF33
:100B600002D07B8FABD07B9FA9D071C275F271C2CE
:100B700000F06D51755F6EC27BF27B8F6FC27AF2AF
:100B800070C279F2786BD8907B337A3379337833CB
:100B9000752FF8D776AF03D077839CD07793759174
:100BA000778B020EEA6E740EE96EA7D0779B76BF44
:100BB0000AD075A113D07B337A3379337833002A86
:100BC000D8B483D00BD07BBF0CD0D890783779378E
:100BD0007A377B370006D8B478D0F5D7778F29D00D
:100BE000779F72C276F272AF02D07B8F67D07B9F05
:100BF00065D072C27BF27B8F73C27AF274C279F2D3
:100C000076AF04D07B9F778565D07795786B7591AB
:100C1000020EEA6E700EE96E70D076BF1CD06EC206
:100C200076F275A106D07B337A3379337833002A94
:100C30004CE078AF0BD0792B09E17A2B07E17B2BC5
:100C400005E17B337A337933002A3FE077BD84D7DF
:100C500077BFC6D71CD0800E7B1B7BAF04D03AD0A9
:100C600072C276F20AD06EC276F27B5306E17A53F4
:100C700004E1795302E1006A21D07BBF08D0D8900B
:100C8000783779377A377B37002EF7D71ED076AF93
:100C900002D07B8F13D07B9F11D071C200F072C243
:100CA0007BF273C27AF274C279F208D06DC200F09E
:100CB0006EC27BF26FC27AF270C279F27BC201F02F
:100CC0007AC202F079C203F034D0006A016A026A83
:100CD000036A2FD0786B791F7A1F7B1F781F782BC0
:100CE00005E1792B03E17A2B01E17B2B77B112D758
:100CF00077B354D777B589D7B3D7EF50792705E3C2
:100D00007A2B03E17B2BD8B47581ED52EF507A2713
:100D100003E37B2BD8B47581ED52EF50EFBE01D0C9
:100D2000800A7B27D8B0758177B9FCD677BB3ED7D0
:100D300074D70001000C02016E6B41C26DF200011C
:100D4000F4DD03C038F002C037F001C036F000C057
:100D500035F002016E6B40C26DF20001E6DD03C0AA
:100D600030F002C02FF001C02EF000C02DF038C0CE
:100D700070F237C06FF236C06EF235C06DF202010C
:100D8000746B736B200E726F820E716F0001E8DD61
:100D9000D89230C070F22FC06FF22EC06EF22DC00C
:100DA0006DF203C074F202C073F201C072F200C0AF
:100DB00071F285DE03C030F002C02FF001C02EF0CA
:100DC00000C02DF043C250F042C24FF045C252F075
:100DD00044C251F002016E6B46C26DF20001A5DD06
:100DE00003C024F002C023F001C022F000C021F0B3
:100DF00047C263F048C264F049C217F04AC218F013
:100E00004BC219F002016E6B4CC26DF200018DDD18
:100E100003C028F002C027F001C026F000C025F072
:100E20004DC240F04EC241F04FC244F050C243F0B8
:100E300051C242F052C245F053C246F054C247F08C
:100E400055C24AF056C24BF057C24CF04E980201C0
:100E500058B14E8859C257F05AC258F05BC259F087
:100E60005CC25AF05DC25BF05EC25CF05FC25DF0D6
:100E700060C25EF061C25FF062C260F063C261F0A6
:100E800064C262F04CC054F04BC053F0000133EF29
:100E90000BF03BC01BF21CC01CF239C01DF23CC061
:100EA0001EF23DC01FF23EC020F23FC021F23BC007
:100EB00022F22C0E0201236F20C024F200013AEF2F
:100EC0000BF00900F55211E0F6CF67F2F7CF68F2A8
:100ED000F8CF69F2F5509EA8FED7AD6E67C2F6FF57
:100EE00068C2F7FF69C2F8FFECD7000C02016A5133
:100EF000016A695D03E269C200F00CD0006A080E65
:100F00006B6F693700366A51005CD8B0006E0136ED
:100F10006B2FF7D70001000C015067C269F2640E15
:100F200002016A6F0001E2DF00C067F20150300E7B
:100F300008E1020168A30ED068B70CD068B9200E92
:100F400004D00201689768996881012601509EA823
:100F5000FED7AD6E67C269F20A0E6A6F0001C6DF86
:100F600000C067F20150300E08E1020168B70BD0F3
:100F700068A109D068B9200E0001012601509EA881
:100F8000FED7AD6E0201300E672767519EA8FED7CF
:100F9000AD6E0001000C02017351D8B471D0006E27
:100FA0007751D8B46DD0002604E3810E002668E2A4
:100FB00004D07F0E005E64E363E074C27BF278517C
:100FC0007B1B748F788F76517A03F4CF7DF2755145
:100FD0007903F4CF03F0F3CF7CF27A03F3507D274B
:100FE000F4507C23000E032276517903F3507D27C1
:100FF000F4507C23000E026A0322022274517A0309
:10100000F3507C27F4500322000E0222745179031E
:10101000F3500326F4500222000E016A0122765199
:101020007803F3507C27F4500322000E02220122A1
:1010300075517803F3500326F4500222000E01226A
:1010400074517803F3500226F4500122002A01BEA5
:1010500005D07C370336023601360006000E7CAF21
:101060000AD0032A02220122015005E1025003E1C5
:10107000035001E1002A7BBF018E7BAF019E04D0AB
:10108000006A016A026A036A0001BFEF08F0020108
:101090007351B608736F036A74C277F2748FD89075
:1010A0007433753376330332023201320032732FD8
:1010B000F6D777AF0BD0001E011E021E031E002ABA
:1010C000D8B4012AD8B4022AD8B4032A0001D4EF34
:1010D00008F0006A016A026A036A02017B6B7C6B9A
:1010E0007D6B7E6B7A517911781177112CE0200E8F
:1010F0007F6FD89073377437753776377B377C3787
:101100007D377E377A517E5D08E179517D5D05E15D
:1011100078517C5D02E177517B5D0FE377517B5F16
:101120007851D8A0783D7C5F7951D8A0793D7D5F1A
:101130007A51D8A07A3D7E5FD880003601360236DB
:1011400003367F2FD6D7020EEA6E7B0EE96E0001C2
:10115000000CE95002016B6F6A516D6F1BE069C2B0
:1011600076F268C275F267C274F266C273F27A6B85
:10117000796B200E786F820E776F00010CD703C059
:1011800069F202C068F201C067F200C066F20201B3
:101190006D2FE5D769C276F268C275F267C274F244
:1011A00066C273F2000173D703C069F202C068F22D
:1011B00001C067F200C066F2020169AF0DD06B0793
:1011C0006B8B661F671F681F691F662BD8B4672B60
:1011D000D8B4682BD8B4692B3B0E726F9A0E716F1E
:1011E000CA0E706F6F6B0A0E6D6F6A51D8B46B2B9D
:1011F00069C276F268C275F267C274F266C273F2AF
:1012000072C27AF271C279F270C278F26FC277F26A
:1012100000015FDF0150EFCF66F2ECCF67F2ECCF59
:1012200068F2ECCF69F2005213E102016A296D5DA8
:10123000D8A402D000010CD06B510DE00F0B6D5DF6
:1012400001E03CE26BBF3AD06BBD05D0200E31D03F
:10125000200E02016B176BAB0DD06B9B6A51D8A4AB
:101260006B0700506B6F2D0E9EA8FED7AD6E6B51B5
:10127000006E6B6B6A516D5D0BE100506B6F2E0E53
:101280009EA8FED7AD6E6B51006E200E6B17000E40
:10129000300E6BAB0ED06B9B6A51D8A46B0700501D
:1012A0006B6F2D0E9EA8FED7AD6E6B51006E6B6BF3
:1012B000300E002600509EA8FED7AD6E72C276F2A8
:1012C00071C275F270C274F26FC273F27A6B796B8D
:1012D000786B0A0E776F0001FCDE03C072F202C069
:1012E00071F201C070F200C06FF202016D2F80D761
:1012F0000001000C0900F6CF68F2F7CF69F2F8CFD1
:101300006AF2F5509EA8FED7AD6E68C2F6FF69C2BC
:10131000F7FF6AC2F8FF0201672F01D002D0000177
:10132000E9D70001000CEACF6EF2E9CF6DF20201BD
:101330006739F009696F6927E20F6A6F320F6C6FC6
:1013400067510F0B6A276A276C27E90F6B6F6B27B2
:101350006B2766390F0B6B276C276B376C376C1F4D
:101360006C3766510F0B6C276937070E686F0A0ED2
:101370006B076C27FDE36A076B27FDE369076A27A4
:10138000FDE368076927FDE3020EEA6E680EE96E69
:10139000070E6D156D9DE9266C0EE95CD8B46D8D58
:1013A000EF50006E08E16DBD06D06DB90CD06DB781
:1013B00002D0200E03D06D876D99300E00260050AC
:1013C0009EA8FED7AD6EEE506DADE6D70001000CC5
:1013D00002016E6B68C26DF2000195EC04F003C06F
:1013E0006CF202C06BF201C06AF200C069F26CC21A
:1013F00070F26BC26FF26AC26EF269C26DF20201E4
:10140000746B736B200E726F820E716F0001B0EC03
:1014100004F0000C67C26EF202016B516E1B6EAFDE
:1014200005D0D894D89067BFD8802FD067C26EF20D
:101430006AC26FF266516F5F06E06EAF26D0D85079
:10144000010AD86E22D06BC26FF267516F5F06E05F
:101450006EAF1BD0D850010AD86E17D06CC26FF295
:1014600068516F5F06E06EAF10D0D850010AD86E99
:101470000CD06DC26FF269516F5F06E06EAF05D0A0
:10148000D850010AD86E01D0D8900001000CF86A3B
:10149000D09E078EEA6AE96AB896400EAF6EA60E35
:1014A000AC6E900EAB6E94869488B00EC86E360EFD
:1014B000C66E176A186A196A1A6A1B6A1C6A1D6A5C
:1014C0001E6A1F6A206A246A236A226A216A286ABD
:1014D000276A266A256A2C6A2B6A2A6A296A306A70
:1014E0002F6A2E6A2D6A346A336A326A316A386A20
:1014F000376A366A356A396A3A6A3B6A3C6A3D6AD3
:101500003E6A3F6A406A416A426A436A446A456A7F
:10151000466A476A486A496A4A6A4B6A4C6A4D6A2F
:101520004E904E924E944E964E98506A4F6A526A22
:10153000516A546A536A566A556A576A586A596AB0
:101540005A6A5B6A5C6A5D6A5E6A5F6A606B616B5D
:10155000626B636B646BC150C00B0F09C16E070EE9
:10156000B46E030E0201656F000E956E936EFF0E52
:10157000926E8B8A949A8C8695968C8495948A9E8A
:10158000939E8A9C939C8A9A939A8A9893988A9617
:1015900093968A9493948A9293928A9093908C9E35
:1015A000959E8C9C959C8C9A959A8C9895988C82FB
:1015B00095928C8095909D86D180C00EF2128B847E
:1015C00094941B0E00017DEC04F0100E006E002EB2
:1015D000FED70000400E7DEC04F0100E006E002ED1
:1015E000FED700000A0E7DEC04F0020E0201666FC9
:1015F000FA0E676F000181EC04F00201662FF8D744
:101600008B9494948A9E939E8B8A949A8C869596BA
:101610008C8495948A9E939E8A9C939C8A9A939A92
:101620008A9893988A9693968A9493948A9293929E
:101630008A9093908C9E959E8C9C959C8C9A959A62
:101640008C9895988C8295928C809590140E666FEC
:10165000FA0E676F000181EC04F00201662FF8D7E3
:1016600000019BEF06F0010E0201676F000181ECA3
:1016700004F00FD40400632D03D08C92959202D015
:101680008C829592642D03D08C90959002D08C80A2
:101690009590582C03D08B9A949A02D08B8A949A66
:1016A000572C03D08C96959602D08C869596592C03
:1016B00003D08C94959402D08C8495945A2C03D0AA
:1016C0008A8E939E02D08A9E939E5B2C03D08A8C36
:1016D000939C02D08A9C939C5C2C05D08A8A939A16
:1016E0008A88939804D08A9A939A8A9893985D2CC2
:1016F00005D08A8693968A84939404D08A9693968A
:101700008A9493945E2C03D08A82939202D08A9218
:1017100093925F2C03D08A80939002D08A9093900A
:10172000602D03D08C8E959E02D08C9E959E612D4F
:1017300003D08C8C959C02D08C9C959C622D0BD0F8
:10174000505206E14F50630803E38C8A959A02D009
:101750008C9A959A02D08C9A959A41500508D8A4F3
:1017600097D04EB495D0200E9EA8FED7AD6E200E19
:101770009EA8FED7AD6E0A0E9EA8FED7AD6E100EC7
:10178000006E002EFED70000D20EF66E030EF76E2E
:10179000000EF86E61EC07F0100E006E002EFED702
:1017A000000044C067F2010E0201686F00018CEC7A
:1017B00007F02D0E9EA8FED7AD6E43C067F2010E56
:1017C0000201686F00018CEC07F02D0E9EA8FED779
:1017D000AD6E42C067F2010E0201686F00018CEC31
:1017E00007F0200E9EA8FED7AD6E200E9EA8FED755
:1017F000AD6E45C067F2010E0201686F00018CEC0E
:1018000007F03A0E9EA8FED7AD6E46C067F2010EF5
:101810000201686F00018CEC07F0200E9EA8FED735
:10182000AD6E200E9EA8FED7AD6E420EE96E30C0A2
:1018300069F22FC068F22EC067F22DC066F2010E69
:1018400002016A6F000185DC0B0EF66E040EF76E66
:10185000000EF86E040E0201676F00014BDD0A0EE8
:10186000E96E50C067F24FC066F25DDD140EF66E91
:10187000040EF76E000EF86E050E0201676F000190
:1018800039DD100E006E002EFED700004E8404D00D
:101890004150050801E04E944A500F08D8A448D1A1
:1018A0004EB246D14052D8B434D140501E08D8A0D0
:1018B00030D11A0EF66E040EF76E000EF86E61EC63
:1018C00007F0100E006E002EFED700003E0EF66EE2
:1018D000040EF76E000EF86E61EC07F0100E006E4D
:1018E000002EFED70000600EF66E040EF76E000E9E
:1018F000F86E1B0E0201676F0001FCDC40C067F24E
:10190000010E0201686F00018CEC07F0200E9EA80A
:10191000FED7AD6E0A0E9EA8FED7AD6E100E006EFD
:10192000002EFED7000040500A0819E3010E405C6B
:10193000140DF350036A0201666F9E0EF66E000EE0
:10194000F76E000EF86E6651F626000EF7220001C3
:1019500061EC07F00A0E9EA8FED7AD6E17D0820E7E
:10196000F66E040EF76E000EF86E0E0E0201676F33
:101970000001C0DC40C067F2010E0201686F000187
:101980008CEC07F00A0E9EA8FED7AD6E100E006E0E
:10199000002EFED70000960EF66E040EF76E000EB7
:1019A000F86E070E0201676F0001A4DC080EE96EF5
:1019B00054C067F253C066F2B6DC0A0E9EA8FED78A
:1019C000AD6E100E006E002EFED70000A40EF66E57
:1019D000040EF76E000EF86E070E0201676F00012D
:1019E00089DC44C067F2010E0201686F00018CECD3
:1019F00007F02D0E9EA8FED7AD6E43C067F2010E14
:101A00000201686F00018CEC07F02D0E9EA8FED736
:101A1000AD6E42C067F2010E0201686F00018CECEE
:101A200007F0200E9EA8FED7AD6E0A0E9EA8FED728
:101A3000AD6E100E006E002EFED70000BC0EF66ECE
:101A4000040EF76E000EF86E61EC07F0100E006EDB
:101A5000002EFED7000045C067F2010E0201686F3C
:101A600000018CEC07F03A0E9EA8FED7AD6E46C082
:101A700067F2010E0201686F00018CEC07F0200E86
:101A80009EA8FED7AD6E420EE96E30C069F22FC03F
:101A900068F22EC067F22DC066F2010E02016A6F75
:101AA0000001A9EC08F0DF0E9EA8FED7AD6E430E34
:101AB0009EA8FED7AD6E200E9EA8FED7AD6E0A0E74
:101AC000E96E50C067F24FC066F22DDCF30EF66E81
:101AD000040EF76E000EF86E040E0201676F00012F
:101AE00009DC0A0EE96E52C067F251C066F21BDCD7
:101AF000FC0EF66E040EF76E000EF86E050E020177
:101B0000676F00017AEC09F0100E006E002EFED710
:101B10000000040E0201666FFA0E676F000181EC8F
:101B200004F00201662FF8D74E824E804E960001D7
:101B30004A50050862E14EB060D04EB65ED045C056
:101B400067F2010E0201686F00018CEC07F03A0E9B
:101B50009EA8FED7AD6E46C067F2010E0201686F07
:101B600000018CEC07F0200E9EA8FED7AD6E420E51
:101B7000E96E30C069F22FC068F22EC067F22DC046
:101B800066F2010E02016A6F0001A9EC08F0DF0E97
:101B90009EA8FED7AD6E430E9EA8FED7AD6E200E5A
:101BA0009EA8FED7AD6E0A0EE96E50C067F24FC018
:101BB00066F293EC09F01B0EF66E050EF76E000E42
:101BC000F86E040E0201676F00017AEC09F00A0E4C
:101BD000E96E52C067F251C066F293EC09F0240E30
:101BE000F66E050EF76E000EF86E050E0201676FB9
:101BF00000017AEC09F04E80D5D24A5014083CE13D
:101C00004EB63AD02A0EF66E050EF76E000EF86E3E
:101C100061EC07F0100E006E002EFED700004C0E97
:101C2000F66E050EF76E000EF86E61EC07F0100E02
:101C3000006E002EFED70000200E9EA8FED7AD6ECF
:101C40000A0E9EA8FED7AD6E100E006E002EFED7B7
:101C50000000200E9EA8FED7AD6E200E9EA8FED7D7
:101C6000AD6E0A0E9EA8FED7AD6E100E006E002E51
:101C7000FED700004E8696D24A5015083CE14EB67B
:101C80003AD0660EF66E050EF76E000EF86E61EC39
:101C900007F0100E006E002EFED70000880EF66EC4
:101CA000050EF76E000EF86E61EC07F0100E006E78
:101CB000002EFED70000200E9EA8FED7AD6E0A0EA5
:101CC0009EA8FED7AD6E100E006E002EFED700004F
:101CD000200E9EA8FED7AD6E200E9EA8FED7AD6E3C
:101CE0000A0E9EA8FED7AD6E100E006E002EFED717
:101CF00000004E8657D24A5016083CE14EB63AD004
:101D0000A40EF66E050EF76E000EF86E61EC07F08D
:101D1000100E006E002EFED70000C00EF66E050EEF
:101D2000F76E000EF86E61EC07F0100E006E002EDC
:101D3000FED70000200E9EA8FED7AD6E0A0E9EA80C
:101D4000FED7AD6E100E006E002EFED70000200EE6
:101D50009EA8FED7AD6E200E9EA8FED7AD6E0A0ED1
:101D60009EA8FED7AD6E100E006E002EFED70000AE
:101D70004E8618D24A5018083CE14EB63AD0DC0ED6
:101D8000F66E050EF76E000EF86E61EC07F0100EA1
:101D9000006E002EFED70000FE0EF66E050EF76EEA
:101DA000000EF86E61EC07F0100E006E002EFED7EC
:101DB0000000200E9EA8FED7AD6E0A0E9EA8FED78C
:101DC000AD6E100E006E002EFED70000200E9EA8F5
:101DD000FED7AD6E200E9EA8FED7AD6E0A0E9EA851
:101DE000FED7AD6E100E006E002EFED700004E86A0
:101DF000D9D14A5017083CE14EB63AD01A0EF66EC9
:101E0000060EF76E000EF86E61EC07F0100E006E15
:101E1000002EFED70000380EF66E060EF76E000E8E
:101E2000F86E61EC07F0100E006E002EFED7000079
:101E3000200E9EA8FED7AD6E0A0E9EA8FED7AD6EF0
:101E4000100E006E002EFED70000200E9EA8FED7BA
:101E5000AD6E200E9EA8FED7AD6E0A0E9EA8FED7D0
:101E6000AD6E100E006E002EFED700004E869AD189
:101E70004A5019083CE14EB63AD0540EF66E060EA2
:101E8000F76E000EF86E61EC07F0100E006E002E7B
:101E9000FED700006E0EF66E060EF76E000EF86EA0
:101EA00061EC07F0100E006E002EFED70000200E31
:101EB0009EA8FED7AD6E0A0E9EA8FED7AD6E100E80
:101EC000006E002EFED70000200E9EA8FED7AD6E3D
:101ED000200E9EA8FED7AD6E0A0E9EA8FED7AD6E50
:101EE000100E006E002EFED700004E865BD14A50C9
:101EF0001A083CE14EB63AD08A0EF66E060EF76E20
:101F0000000EF86E61EC07F0100E006E002EFED78A
:101F10000000A40EF66E060EF76E000EF86E61EC71
:101F200007F0100E006E002EFED70000200E9EA8B7
:101F3000FED7AD6E0A0E9EA8FED7AD6E100E006ED7
:101F4000002EFED70000200E9EA8FED7AD6E200EFC
:101F50009EA8FED7AD6E0A0E9EA8FED7AD6E100EDF
:101F6000006E002EFED700004E861CD14A501B0882
:101F70003CE14EB63AD0C00EF66E060EF76E000E7D
:101F8000F86E61EC07F0100E006E002EFED7000018
:101F9000DC0EF66E060EF76E000EF86E61EC07F0C2
:101FA000100E006E002EFED70000200E9EA8FED759
:101FB000AD6E0A0E9EA8FED7AD6E100E006E002EFE
:101FC000FED70000200E9EA8FED7AD6E200E9EA864
:101FD000FED7AD6E0A0E9EA8FED7AD6E100E006E37
:101FE000002EFED700004E86DDD04A501C08D8A433
:101FF00095D04EB693D0F80EF66E060EF76E000E24
:10200000F86E61EC07F0100E006E002EFED7000097
:10201000120EF66E070EF76E000EF86E61EC07F00A
:10202000100E006E002EFED70000200E9EA8FED7D8
:10203000AD6E200E9EA8FED7AD6E45C067F2010EB4
:102040000201686F00018CEC07F03A0E9EA8FED7E3
:10205000AD6E46C067F2010E0201686F00018CECA4
:1020600007F0200E9EA8FED7AD6E200E9EA8FED7CC
:10207000AD6E420EE96E30C069F22FC068F22EC01C
:1020800067F22DC066F2010E02016A6F0001A9EC31
:1020900008F03D0EF66E070EF76E000EF86E040E99
:1020A0000201676F00017AEC09F00A0EE96E50C078
:1020B00067F24FC066F293EC09F0460EF66E070E1B
:1020C000F76E000EF86E060E0201676F00017AECE3
:1020D00009F0100E006E002EFED70000200E9EA804
:1020E000FED7AD6E0A0E9EA8FED7AD6E100E006E26
:1020F000002EFED70000200E9EA8FED7AD6E200E4B
:102100009EA8FED7AD6E0A0E9EA8FED7AD6E100E2D
:10211000006E002EFED700004E8644D04A501D08A7
:102120003CE14EB63AD04E0EF66E070EF76E000E3C
:10213000F86E61EC07F0100E006E002EFED7000066
:10214000680EF66E070EF76E000EF86E61EC07F083
:10215000100E006E002EFED70000200E9EA8FED7A7
:10216000AD6E0A0E9EA8FED7AD6E100E006E002E4C
:10217000FED70000200E9EA8FED7AD6E200E9EA8B2
:10218000FED7AD6E0A0E9EA8FED7AD6E100E006E85
:10219000002EFED700004E8605D04A500A0802E104
:1021A0004E904E924EA803D08B84949402D08B9480
:1021B0009494653D79EF17F0663D79EF17F0040EC2
:1021C0000201666FFA0E676F000181EC04F00201F4
:1021D000662FF8D7840EF66E070EF76E000EF86EB7
:1021E000000161EC07F0100E006E002EFED700001B
:1021F0006751140DF350036A0201666FA80EF66E64
:10220000070EF76E000EF86E0B0E676F00017AEC8A
:1022100009F0880EF66E010EF76E000EF86E0201E0
:102220006651F626000EF722000161EC07F00A0E57
:102230009EA8FED7AD6E100E006E002EFED70000D9
:10224000010E685D0201666FB80EF66E070EF76E3E
:10225000000EF86E1B0E676F00017AEC09F066C283
:1022600067F2010E0201686F00018CEC07F0200E8E
:102270009EA8FED7AD6E0A0E9EA8FED7AD6E100EBC
:10228000006E002EFED7000040500A0819E3010E30
:10229000685D140DF350036A0201666F9E0EF66EC0
:1022A000000EF76E000EF86E6651F626000EF7224D
:1022B000000161EC07F00A0E9EA8FED7AD6E18D0A3
:1022C000DA0EF66E070EF76E000EF86E0E0E0201B5
:1022D000676F00017AEC09F068C067F2010E020135
:1022E000686F00018CEC07F00A0E9EA8FED7AD6E59
:1022F000100E006E002EFED70000EE0EF66E070EDA
:10230000F76E000EF86E070E0201676F00017AEC9F
:1023100009F0080EE96E54C067F253C066F293EC00
:1023200009F00A0E9EA8FED7AD6E100E006E002EAC
:10233000FED70000FC0EF66E070EF76E000EF86E6C
:10234000070E0201676F00017AEC09F044C067F2E2
:10235000010E0201686F00018CEC07F02D0E9EA8A3
:10236000FED7AD6E43C067F2010E0201686F000137
:102370008CEC07F02D0E9EA8FED7AD6E42C067F222
:10238000010E0201686F00018CEC07F0200E9EA880
:10239000FED7AD6E0A0E9EA8FED7AD6E100E006E73
:1023A000002EFED70000140EF66E080EF76E000E1B
:1023B000F86E61EC07F0100E006E002EFED70000E4
:1023C0004D6A4D500908D8A056D14D50090DF35013
:1023D0000D0F036A650FE96E000E0320EA6EEFCF62
:1023E0003CF03C50190802E23C6A45D14D50090DC1
:1023F000F3500E0F036A650FE96E000E0320EA6EBC
:10240000EFCF3DF03D503B0802E23D6A34D14D50E4
:10241000090DF350090F036A650FE96E000E0320E2
:10242000EA6EEFCF66F24D50090DF3500A0F036AC2
:10243000650FE96E000E0320EA6EEFCF67F266C209
:1024400050F067C24FF05050000808E2FF0A03E165
:102450004F50900803E2506A4F6A0DD14D50090D5C
:10246000F3500B0F036A650FE96E000E0320EA6E4E
:10247000EFCF66F24D50090DF3500C0F036A650F54
:10248000E96E000E0320EA6EEFCF67F266C252F0EB
:1024900067C251F05250000808E2FF0A03E15150B0
:1024A000900803E2526A516AE6D04D50090DF3508C
:1024B000070F036A650FE96E000E0320EA6EEFCF87
:1024C00066F24D50090DF350080F036A650FE96E6F
:1024D000000E0320EA6EEFCF67F267C268F2E8EC05
:1024E00009F000C067F201C068F202C069F203C0DF
:1024F0006AF202016E6B66C26DF2000195EC04F0A7
:10250000EACF6CF2E9CF6BF2D89203C070F202C04E
:102510006FF201C06EF200C06DF26AC274F269C25D
:1025200073F268C272F267C271F25FEC05F06CC2BE
:10253000EAFF6BC2E9FF03C030F002C02FF001C018
:102540002EF000C02DF00201696B686B160E676FEC
:10255000860E666F30C06DF22FC06CF22EC06BF22B
:102560002DC06AF200010AEC0AF005E3306A2F6A16
:102570002E6A2D6A80D04D50090DF3500F0F036A5B
:10258000650FE96E000E0320EA6EEFCF1FF01F50BB
:10259000140802E21F6A6FD03CC067F2010E02010C
:1025A000686F00018CEC07F03A0E9EA8FED7AD6E66
:1025B0003DC067F2010E0201686F00018CEC07F06C
:1025C000200E9EA8FED7AD6E420EE96E30C069F2B5
:1025D0002FC068F22EC067F22DC066F2010E020114
:1025E0006A6F0001A9EC08F0DF0E9EA8FED7AD6E61
:1025F000430E9EA8FED7AD6E200E9EA8FED7AD6EF0
:102600000A0EE96E50C067F24FC066F293EC09F013
:102610004D0EF66E080EF76E000EF86E040E0201F7
:10262000676F00017AEC09F00A0EE96E52C067F29A
:1026300051C066F293EC09F0560EF66E080EF76E76
:10264000000EF86E040E0201676F00017AEC09F0CB
:102650001FC067F2010E0201686F00018CEC07F0E9
:102660000A0E9EA8FED7AD6E100E006E002EFED78D
:1026700000004D2AA6D64D6A4D500A08D8A055D163
:102680004D50090DF350060F036AC90FE96E000E95
:102690000320EA6EEFCF3CF03C50190802E23C6A9E
:1026A00044D14D50090DF350070F036AC90FE96E6D
:1026B000000E0320EA6EEFCF3DF03D503B0802E2F2
:1026C0003D6A33D14D50090DF350020F036AC90F13
:1026D000E96E000E0320EA6EEFCF66F24D50090D51
:1026E000F350030F036AC90FE96E000E0320EA6E70
:1026F000EFCF67F266C250F067C24FF0505000084B
:1027000008E2FF0A03E14F50900803E2506A4F6A63
:102710000CD14D50090DF350040F036AC90FE96E37
:10272000000E0320EA6EEFCF66F24D50090DF35014
:10273000050F036AC90FE96E000E0320EA6EEFCFA2
:1027400067F266C252F067C251F05250000808E2C8
:10275000FF0A03E15150900803E2526A516AE5D042
:102760004D50090DF350036AC90FE96E000E0320A6
:10277000EA6EEFCF66F24D50090DF350010F036A78
:10278000C90FE96E000E0320EA6EEFCF67F267C251
:1027900068F2E8EC09F000C067F201C068F202C01C
:1027A00069F203C06AF202016E6B66C26DF200014B
:1027B00095EC04F0EACF6CF2E9CF6BF2D89203C04B
:1027C00070F202C06FF201C06EF200C06DF26AC218
:1027D00074F269C273F268C272F267C271F25FEC9E
:1027E00005F06CC2EAFF6BC2E9FF03C030F002C023
:1027F0002FF001C02EF000C02DF00201696B686B54
:10280000160E676F860E666F30C06DF22FC06CF2C9
:102810002EC06BF22DC06AF200010AEC0AF005E34B
:10282000306A2F6A2E6A2D6A80D04D50090DF35000
:10283000080F036AC90FE96E000E0320EA6EEFCF9E
:102840001FF01F50140802E21F6A6FD03CC067F2ED
:10285000010E0201686F00018CEC07F03A0E9EA891
:10286000FED7AD6E3DC067F2010E0201686F000138
:102870008CEC07F0200E9EA8FED7AD6E420EE96EDE
:1028800030C069F22FC068F22EC067F22DC066F228
:10289000010E02016A6F0001A9EC08F0DF0E9EA88C
:1028A000FED7AD6E430E9EA8FED7AD6E200E9EA83D
:1028B000FED7AD6E0A0EE96E50C067F24FC066F2E9
:1028C00093EC09F0790EF66E080EF76E000EF86EB6
:1028D000040E0201676F00017AEC09F00A0EE96E3E
:1028E00052C067F251C066F293EC09F0820EF66EA8
:1028F000080EF76E000EF86E040E0201676F0001FD
:102900007AEC09F01FC067F2010E0201686F000146
:102910008CEC07F00A0E9EA8FED7AD6E100E006E6E
:10292000002EFED700004D2AA7D64D6A4D500A084A
:10293000D8A055D14D50090DF350060F036A2D0F45
:10294000E96E010E0320EA6EEFCF3CF03C5019080F
:1029500002E23C6A44D14D50090DF350070F036A5F
:102960002D0FE96E010E0320EA6EEFCF3DF03D50D2
:102970003B0802E23D6A33D14D50090DF350020F7E
:10298000036A2D0FE96E010E0320EA6EEFCF66F2A7
:102990004D50090DF350030F036A2D0FE96E010E20
:1029A0000320EA6EEFCF67F266C250F067C24FF0C5
:1029B0005050000808E2FF0A03E14F50900803E27C
:1029C000506A4F6A0CD14D50090DF350040F036A41
:1029D0002D0FE96E010E0320EA6EEFCF66F24D5027
:1029E000090DF350050F036A2D0FE96E010E032048
:1029F000EA6EEFCF67F266C252F067C251F05250F2
:102A0000000808E2FF0A03E15150900803E2526A0D
:102A1000516AE5D04D50090DF350036A2D0FE96E50
:102A2000010E0320EA6EEFCF66F24D50090DF35010
:102A3000010F036A2D0FE96E010E0320EA6EEFCF3E
:102A400067F267C268F2E8EC09F000C067F201C003
:102A500068F202C069F203C06AF202016E6B66C2DC
:102A60006DF2000195EC04F0EACF6CF2E9CF6BF265
:102A7000D89203C070F202C06FF201C06EF200C0C3
:102A80006DF26AC274F269C273F268C272F267C20E
:102A900071F25FEC05F06CC2EAFF6BC2E9FF03C0A4
:102AA00030F002C02FF001C02EF000C02DF0020166
:102AB000696B686B160E676F860E666F30C06DF2BD
:102AC0002FC06CF22EC06BF22DC06AF200010AEC2E
:102AD0000AF005E3306A2F6A2E6A2D6A80D04D50C5
:102AE000090DF350080F036A2D0FE96E010E032044
:102AF000EA6EEFCF1FF01F50140802E21F6A6FD07A
:102B00003CC067F2010E0201686F00018CEC07F017
:102B10003A0E9EA8FED7AD6E3DC067F2010E0201CF
:102B2000686F00018CEC07F0200E9EA8FED7AD6EFA
:102B3000420EE96E30C069F22FC068F22EC067F213
:102B40002DC066F2010E02016A6F0001A9EC08F0C7
:102B5000DF0E9EA8FED7AD6E430E9EA8FED7AD6ECB
:102B6000200E9EA8FED7AD6E0A0EE96E50C067F229
:102B70004FC066F293EC09F0A50EF66E080EF76EE4
:102B8000000EF86E040E0201676F00017AEC09F086
:102B90000A0EE96E52C067F251C066F293EC09F07A
:102BA000AE0EF66E080EF76E000EF86E040E020101
:102BB000676F00017AEC09F01FC067F2010E020195
:102BC000686F00018CEC07F00A0E9EA8FED7AD6E70
:102BD000100E006E002EFED700004D2AA7D64D6ABB
:102BE0004D500208D8A055D14D50090DF350060F95
:102BF000036A910FE96E010E0320EA6EEFCF3CF0FD
:102C00003C50190802E23C6A44D14D50090DF35082
:102C1000070F036A910FE96E010E0320EA6EEFCFF2
:102C20003DF03D503B0802E23D6A33D14D50090D65
:102C3000F350020F036A910FE96E010E0320EA6E52
:102C4000EFCF66F24D50090DF350030F036A910F59
:102C5000E96E010E0320EA6EEFCF67F266C250F014
:102C600067C24FF05050000808E2FF0A03E14F50DE
:102C7000900803E2506A4F6A0CD14D50090DF35091
:102C8000040F036A910FE96E010E0320EA6EEFCF85
:102C900066F24D50090DF350050F036A910FE96E6E
:102CA000010E0320EA6EEFCF67F266C252F067C2F0
:102CB00051F05250000808E2FF0A03E15150900819
:102CC00003E2526A516AE5D04D50090DF350036A90
:102CD000910FE96E010E0320EA6EEFCF66F24D50C0
:102CE000090DF350010F036A910FE96E010E0320E5
:102CF000EA6EEFCF67F267C268F2E8EC09F000C055
:102D000067F201C068F202C069F203C06AF2020110
:102D10006E6B66C26DF2000195EC04F0EACF6CF2C6
:102D2000E9CF6BF2D89203C070F202C06FF201C01B
:102D30006EF200C06DF26AC274F269C273F268C2C8
:102D400072F267C271F25FEC05F06CC2EAFF6BC20F
:102D5000E9FF03C030F002C02FF001C02EF000C028
:102D60002DF00201696B686B160E676F860E666F39
:102D700030C06DF22FC06CF22EC06BF22DC06AF223
:102D800000010AEC0AF005E3306A2F6A2E6A2D6A08
:102D900080D04D50090DF350080F036A910FE96E72
:102DA000010E0320EA6EEFCF1FF01F50140802E25D
:102DB0001F6A6FD03CC067F2010E0201686F00010C
:102DC0008CEC07F03A0E9EA8FED7AD6E3DC067F2C0
:102DD000010E0201686F00018CEC07F0200E9EA826
:102DE000FED7AD6E420EE96E30C069F22FC068F2B8
:102DF0002EC067F22DC066F2010E02016A6F00015B
:102E0000A9EC08F0DF0E9EA8FED7AD6E430E9EA87B
:102E1000FED7AD6E200E9EA8FED7AD6E0A0EE96EEF
:102E200050C067F24FC066F293EC09F0D10EF66E17
:102E3000080EF76E000EF86E040E0201676F0001B7
:102E40007AEC09F00A0EE96E52C067F251C066F2E0
:102E500093EC09F0DA0EF66E080EF76E000EF86EBF
:102E6000040E0201676F00017AEC09F01FC067F2DF
:102E7000010E0201686F00018CEC07F00A0E9EA89B
:102E8000FED7AD6E100E006E002EFED700004D2A4C
:102E9000A7D6E40EF66E080EF76E000EF86E61EC23
:102EA00007F0100E006E002EFED70000200E9EA828
:102EB000FED7AD6E0A0E9EA8FED7AD6E100E006E48
:102EC000002EFED70000200E9EA8FED7AD6E200E6D
:102ED0009EA8FED7AD6E0A0E9EA8FED7AD6E100E50
:102EE000006E002EFED70000050E206E656B666B2F
:0C2EF00002D00A0E206E31EF0BF0030040
:020000040030CA
:0E00000000021F1B0000B0003FC03FE03F4069
:00000001FF
;PIC18F4685
;CRC=8802  CREATED="14-sept.-20 09:38"
