:04000000A0EF15F068
:08000800046ED8CF05F0E0CF33
:1000100006F00001E9CF0CF0EACF07F0E1CF08F0DD
:10002000E2CF09F0D9CF0AF0DACF0BF0F3CF12F01C
:10003000F4CF13F0FACF14F000C00EF001C00FF0AF
:1000400002C010F003C011F09DA02AEF00F09EB096
:1000500011EF08F09DAA30EF00F09EBA9BEF07F079
:100060000EC000F00FC001F010C002F011C003F08C
:100070000CC0E9FF07C0EAFF078E08C0E1FF09C016
:10008000E2FF0AC0D9FF0BC0DAFF12C0F3FF13C0B2
:10009000F4FF14C0FAFF045006C0E0FF05C0D8FF0B
:1000A0001000F2CF0DF0F29EF76ABC0FF66E000E54
:1000B000F7220900F5500DBEF28E1200000000007C
:1000C0000000005F00000003000300143E143E1413
:1000D000242A7F2A1243330866613649552250008C
:1000E00005030000001C2241000041221C001408EE
:1000F0003E081408083E08080050300000080808B0
:100100000808006060000020100804023E514945C4
:100110003E0004027F00426151494622414949366E
:100120001814127F1027454545393E494949320187
:10013000017109073649494936264949493E003681
:100140003600000056360000081422410014141432
:100150001414004122140802015109063E41595568
:100160005E7E0909097E7F494949363E4141412267
:100170007F4141413E7F494949417F090909013E8B
:100180004141493A7F0808087F00417F41003040E3
:1001900040403F7F081422417F404040407F020C96
:1001A000027F7F0204087F3E4141413E7F090909E9
:1001B000061E2121215E7F0909097600F2CF0DF08C
:1001C000F29EF76AD60FF66E010EF7220900F5507F
:1001D0000DBEF28E1200264949493201017F01010C
:1001E0003F4040403F1F2040201F7F2010207F4184
:1001F000221C224107087008076151494543007FCE
:1002000041000002040810200000417F00040201A8
:100210000204404040404000010204002054545475
:10022000787F444444383844444444384444447F08
:10023000385454541804047E0505085454543C7F23
:100240000804047800447D40002040443D007F10B5
:1002500028440000417F40007C047804787C080436
:10026000047838444444387C1414140808141414D2
:100270007C007C080404485454542004043F444443
:100280003C4040207C1C2040201C3C4030403C44F2
:10029000281028440C5050503C4464544C440008EE
:1002A00036414100007F0000414136080002010252
:1002B0000402F2CF0DF0F29ECA0FF66E020EF72284
:1002C0000900F5500DBEF28E120000000000000083
:1002D000000000000000000000000000000000001E
:1002E000000000000000000000000000000000000E
:1002F00000000000000000000000000000000000FE
:1003000000000000000000000000000000000000ED
:1003100000000000000000000000000000000000DD
:1003200000000000000000000000000000000000CD
:1003300000000000000000000000000000000000BD
:1003400000000000000000000000000000000000AD
:10035000000000000000000000000000000000009D
:10036000000000000000000000000000000000008D
:10037000000000000000000000000000000000007D
:10038000000000000000000000000000000000006D
:10039000000000000000000000000000000000005D
:1003A000000000000000000000000000000000004D
:1003B0000000000000000000000008000000000035
:1003C000000000000000000000001C000000000011
:1003D000000000000000000000003E0000000000DF
:1003E0000000000000000000000008000000000005
:1003F00000000000000000000000080000000000F5
:1004000000000000000000000000080000000000E4
:100410000000000000000000000008000001FFFFD5
:10042000FE000000000000000000080000020000C4
:1004300001000000000000000000080000020000B1
:100440000080000000000000000008000004000020
:10045000004000000000000000000800000800004C
:10046000002000000000000000000800000800005C
:100470000010000000000000000008000010000054
:10048000000800000000000000000800001000004C
:10049000000800000000000000000800002000002C
:1004A0000004000000000000000008000040000000
:1004B00000020000000000000000080000400000F2
:1004C00000010000000000000000080000800000A3
:1004D0000000800000000000000008000100000093
:1004E00000004000000000000000080001000000C3
:1004F00000002000000000000000080002000000D2
:1005000000001000000000000000080002000000D1
:1005100000000000000000000000080004000000CF
:1005200000000000000000000000080008000000BB
:1005300000000000000000000000080008000000AB
:100540000000000000000000000008001000000093
:100550000000000000000000000008002000000073
:100560000000000000000000000008002000000063
:100570000000000000000000000008004000000033
:100580000000000000000000000008004000000023
:1005900000000000000000000000080080000000D3
:1005A0000000000000000000000008010000000042
:1005B0000000000000000000000008010000000032
:1005C000000000000000000000000FFE000000001E
:1005D0000000000000000000000008000000000013
:1005E0000000000000000000000008000000000003
:1005F00000000000000000000000080000000000F3
:1006000000000000000000000000080000000000E2
:1006100000000002000000000000080000000000D0
:10062000000000030000000000003FFFFFFFFFFF8D
:10063000FFFFFFFF8000000000000000000000003E
:1006400000000003000000000000000000000000A7
:100650000000000200000000000000000000000098
:10066000000000000000000000000000000000008A
:10067000000000000000000000000000000000007A
:10068000000000000000000000000000000000006A
:10069000000000000000000000000000000000005A
:1006A000000000000000000000000000000000004A
:1006B000000000000000000000000000000000003A
:1006C00000000000000000000000F2CF0DF0F29EDC
:1006D000F76AE40FF66E060EF7220900F5500DBE1C
:1006E000F28E12003A00F2CF0DF0F29EF76A000F80
:1006F000F66E070EF7220900F5500DBEF28E1200BD
:100700004A5020496E676C6F62616C00F2CF0DF049
:10071000F29EF76A260FF66E070EF7220900F550D3
:100720000DBEF28E12004175746F636C61766520A8
:10073000566572746963616C0000F2CF0DF0F29E31
:10074000F76A540FF66E070EF7220900F5500DBE3A
:10075000F28E120020313530204C6974726F732094
:100760002000F2CF0DF0F29EF76A7C0FF66E070EB6
:10077000F7220900F5500DBEF28E1200436C61762F
:100780006500F2CF0DF0F29EF76A9C0FF66E070E31
:10079000F7220900F5500DBEF28E1200436F7272FF
:1007A000656374610000F2CF0DF0F29EF76AC00F2E
:1007B000F66E070EF7220900F5500DBEF28E1200FC
:1007C000496E636F7272656374610000F2CF0DF061
:1007D000F29EF76AE60FF66E070EF7220900F55053
:1007E0000DBEF28E12004D656E75205072696E63FB
:1007F0006970616C0000F2CF0DF0F29EF76A100F85
:10080000F66E080EF7220900F5500DBEF28E1200AA
:100810005072656369636C6F0000F2CF0DF0F29E59
:10082000F76A340FF66E080EF7220900F5500DBE78
:10083000F28E12004C69717569646F730000F2CF1B
:100840000DF0F29EF76A580FF66E080EF7220900B7
:10085000F5500DBEF28E1200496E737472756D659F
:100860006E74616C2053756176650000F2CF0DF0F7
:10087000F29EF76A860FF66E080EF7220900F55011
:100880000DBEF28E120054657874696C20652049A3
:100890006E737472756D656E74616C00F2CF0DF0DD
:1008A000F29EF76AB60FF66E080EF7220900F550B1
:1008B0000DBEF28E1200506572736F6E616C697AB4
:1008C00061646F00F2CF0DF0F29EF76ADE0FF66EF4
:1008D000080EF7220900F5500DBEF28E120043619A
:1008E0006D62696F20436C6176650000F2CF0DF098
:1008F000F29EF76A060FF66E090EF7220900F55010
:100900000DBEF28E120054656D7065726174757261
:10091000613A313035204300F2CF0DF0F29EF76A94
:10092000320FF66E090EF7220900F5500DBEF28E59
:100930001200542E204573746572696C697A616384
:10094000696F6E3A356D0000F2CF0DF0F29EF76AD6
:10095000620FF66E090EF7220900F5500DBEF28EF9
:100960001200542E2053656361646F3D20356D0085
:10097000F2CF0DF0F29EF76A8A0FF66E090EF7229B
:100980000900F5500DBEF28E120043616C656E7465
:10099000616E646F0000F2CF0DF0F29EF76AB00F47
:1009A000F66E090EF7220900F5500DBEF28E120008
:1009B00054206573743A0000F2CF0DF0F29EF76A8E
:1009C000D20FF66E090EF7220900F5500DBEF28E19
:1009D000120054207365633A0000F2CF0DF0F29ECE
:1009E000F76AF40FF66E090EF7220900F5500DBEF6
:1009F000F28E12004300F2CF0DF0F29EF76A100F54
:100A0000F66E0A0EF7220900F5500DBEF28E1200A6
:100A100054656D70657261747572613A313231205E
:100A20004300F2CF0DF0F29EF76A3C0FF66E0A0E0D
:100A3000F7220900F5500DBEF28E1200542E20450B
:100A400073746572696C697A6163696F6E3A32308A
:100A50006D00F2CF0DF0F29EF76A6C0FF66E0A0E83
:100A6000F7220900F5500DBEF28E1200542E2053CD
:100A7000656361646F3D204E2F410000F2CF0DF0A1
:100A8000F29EF76A960FF66E0A0EF7220900F550ED
:100A90000DBEF28E1200496E732E2053756176657D
:100AA0000000F2CF0DF0F29EF76ABC0FF66E0A0E50
:100AB000F7220900F5500DBEF28E1200542E20458B
:100AC00073746572696C697A6163696F6E3A313506
:100AD0006D00F2CF0DF0F29EF76AEC0FF66E0A0E83
:100AE000F7220900F5500DBEF28E120054657820F1
:100AF0002620496E7300F2CF0DF0F29EF76A100FB8
:100B0000F66E0B0EF7220900F5500DBEF28E1200A4
:100B1000542E204573746572696C697A6163696FDC
:100B20006E3A32356D00F2CF0DF0F29EF76A400F4B
:100B3000F66E0B0EF7220900F5500DBEF28E120074
:100B4000542E2053656361646F3D2031306D000089
:100B5000F2CF0DF0F29EF76A6A0FF66E0B0EF722D7
:100B60000900F5500DBEF28E120050726F6365736E
:100B70006F20506572736F6E616C697A61646F008B
:100B8000F2CF0DF0F29EF76A9A0FF66E0B0EF72277
:100B90000900F5500DBEF28E1200542E20457374DC
:100BA0006572696C697A6163696F6E00F2CF0DF0EE
:100BB000F29EF76AC60FF66E0B0EF7220900F5508B
:100BC0000DBEF28E1200542E2053656361646F00D7
:100BD000F2CF0DF0F29EF76AEA0FF66E0B0EF722D7
:100BE0000900F5500DBEF28E120054656D706572ED
:100BF000617475726100F2CF0DF0F29EF76A100F0A
:100C0000F66E0C0EF7220900F5500DBEF28E1200A2
:100C10004E6976656C20646520646573666F6775E0
:100C20006500F2CF0DF0F29EF76A3C0FF66E0C0EE7
:100C3000F7220900F5500DBEF28E1200436F6E745C
:100C4000696E75617200F2CF0DF0F29EF76A600F67
:100C5000F66E0C0EF7220900F5500DBEF28E120052
:100C6000436C617665204E7565766100F2CF0DF0BC
:100C7000F29EF76A860FF66E0C0EF7220900F55009
:100C80000DBEF28E1200542E2045737465722E0034
:100C9000F2CF0DF0F29EF76AAA0FF66E0C0EF72255
:100CA0000900F5500DBEF28E120020536563616499
:100CB0006F00F2CF0DF0F29EF76ACC0FF66E0C0EBD
:100CC000F7220900F5500DBEF28E12002044657324
:100CD000666F67756500F2CF0DF0F29EF76AF00F50
:100CE000F66E0C0EF7220900F5500DBEF28E1200C2
:100CF00053490000F2CF0DF0F29EF76A0E0FF66E28
:100D00000D0EF7220900F5500DBEF28E12004E4F67
:100D10000000F2CF0DF0F29EF76A2C0FF66E0D0E6A
:100D2000F7220900F5500DBEF28E1200457374656E
:100D300072696C697A616E646F00F2CF0DF0F29E99
:100D4000F76A540FF66E0D0EF7220900F5500DBE2E
:100D5000F28E12004572726F723A455430310000C3
:100D6000F2CF0DF0F29EF76A7A0FF66E0D0EF722B3
:100D70000900F5500DBEF28E12004572726F723A84
:100D8000455430320000F2CF0DF0F29EF76AA00F0A
:100D9000F66E0D0EF7220900F5500DBEF28E120010
:100DA0004C6C656E616E646F0000F2CF0DF0F29EC8
:100DB000F76AC40FF66E0D0EF7220900F5500DBE4E
:100DC000F28E12004572726F723A45413031000066
:100DD000F2CF0DF0F29EF76AEA0FF66E0D0EF722D3
:100DE0000900F5500DBEF28E1200446573707265F5
:100DF000737572697A616E646F00F2CF0DF0F29EC6
:100E0000F76A140FF66E0E0EF7220900F5500DBEAC
:100E1000F28E1200536563616E646F00F2CF0DF0C5
:100E2000F29EF76A360FF66E0E0EF7220900F550A5
:100E30000DBEF28E120050756572746120416269B8
:100E4000657274610000F2CF0DF0F29EF76A600FD8
:100E5000F66E0E0EF7220900F5500DBEF28E12004E
:100E60004369636C6F2046696E616C697A61646F77
:100E70000000F2CF0DF0F29EF76A8C0FF66E0E0EA8
:100E8000F7220900F5500DBEF28E120020202150ED
:100E90006172616461210000F2CF0DF0F29EF76A89
:100EA000B20FF66E0E0EF7220900F5500DBEF28E4F
:100EB000120020214163746976616461210005019B
:100EC00071C5E9FF72C5EAFFEFCF75F574C503F090
:100ED00073C5E9FF74C5EAFFEF50755D15E172C592
:100EE00003F071C5E9FF03C0EAFFEF5203E1000E12
:100EF000016E1FD072C503F07151712BD8B4722BE3
:100F0000732BD8B4742BDCD772C503F071C5E9FF1D
:100F100072C5EAFFEFCF75F574C503F073C5E9FF3D
:100F200074C5EAFFEF50755D02E2FF0E01D0010EBD
:100F3000016E0001000C036A04018B51BC0FE96EC5
:100F4000040E0320EA6E9EAAFED7AECFEFFF8B51B0
:100F500009081AE3036A8B51BC0FE96E040E0320E3
:100F6000EA6EEFCF70F50501726B70C571F5746BA9
:100F70000D0E736F0001A3DF0152D8B402D004013B
:100F800003D004018B6B49D08B510A083FE1036AFF
:100F90008B51BC0FE96E040E0320EA6EEFCF70F5A3
:100FA0000501726B70C571F5746B0D0E736F0001E6
:100FB00086DF0152D8B402D0040128D08BC48CF44F
:100FC00004018B6B7D878D6B010E8C258D5D1DE281
:100FD000036A8D51D40F016E040E0322050103C074
:100FE00071F5036A04018D51BC0FE96E040E0320F4
:100FF000EA6EEFCF72F5050171C5EAFF01C0E9FFA6
:1010000072C5EFFF04018D2BDFD707D08B510A0883
:1010100002E28B6B02D07D978B2B9E9A000130EF02
:1010200000F0150ECF6EA00ECE6E0401942BD8B436
:10103000952B962BD8B4972B982BD8B4992B9753E4
:1010400003E19651270809E29351020806E1976BE4
:10105000966B7C8F9E2BD8B49F2B9451C80841E18E
:1010600095533FE1956B946B7C8D912D1CD0A42BF7
:10107000A4BF05D0A451090802E2A46BA52BA5BF0B
:1010800005D0A551050802E2A56BA62BA6BF05D089
:10109000A651090802E2A66BA72BA7BF04D0A7514F
:1010A000050801E2A76B922D1CD0AC2BACBF05D07C
:1010B000AC51090802E2AC6BAD2BADBF05D0AD5110
:1010C000050802E2AD6BAE2BAEBF05D0AE510908EC
:1010D00002E2AE6BAF2BAFBF04D0AF51050801E207
:1010E000AF6B9E90000130EF00F0050EEA6E3F0EF0
:1010F000E96EEF500EE00F0E016E006A002EFED773
:10110000012EFBD78F0E006E002EFED70000EF2EB3
:10111000F2D7000C8E0E006E40C501F03FC502F004
:10112000036A015209E102C001F0026A080E005E82
:10113000015202E1006A08D0D89001BE04D0023604
:1011400001360006F9D7019E000C05013A35006E04
:101150000036FC0E001600C001F0C250C30B001098
:10116000C26E0A0E3F6F0001C0DFC282C2B2FED75C
:10117000C4CF40F5C3CF3FF50001CCDF03C03EF53F
:1011800002C03DF501C03CF500C03BF53BC500F099
:101190003CC501F03DC502F03EC503F0C4EF16F0BA
:1011A0000501505303E095968C8602D095988C8863
:1011B000959C8C9C936A51C58AFF100E006E002E80
:1011C000FED70000959E8C8E540E006E002EFED72A
:1011D00000D0959E8C9E95988C9895968C96000143
:1011E000000C05013E6B1C0E3D6F020E406F1C0E85
:1011F0003F6F3B51FF0DF3CF3CF5426B416B4251CA
:1012000001081AE33EC503F03D513D2BD8B43E2BF7
:10121000E96E03C0EAFF3CC5EFFF40C503F03F5154
:101220003F2BD8B4402BE96E03C0EAFF3CC5EFFF6B
:10123000412BD8B4422BE3D70001000C05014C6BC5
:101240001C0E4B6F020E4E6F1C0E4D6F496B4951B9
:1012500007084EE3959A8C9A506B400E516F00012F
:101260009FDF010E0501506F400E516F000198DFA6
:1012700005014951B8094F6F506B516F000190DF64
:1012800005014951B8094F6F010E506F4FC551F517
:10129000000186DF959A8C8A05014A6B4A513F0806
:1012A00025E34CC503F04B514B2BD8B44C2BE96EC6
:1012B00003C0EAFFEFCF4FF5506B4FC551F500016A
:1012C0006FDF05014EC503F04D514D2BD8B44E2BA9
:1012D000E96E03C0EAFFEFCF4FF5010E506F4FC527
:1012E00051F500015DDF05014A2BD8D7492BAFD757
:1012F0000001000C95948C84959E8C9E95988C98FA
:1013000095968C96959A8C9A0501506BC00E516FEC
:10131000000146DF010E0501506FC00E516F000144
:101320003FDF0501506B400E516F000139DF010EA8
:101330000501506F400E516F000132DF0501506B07
:10134000B80E516F00012CDF010E0501506FB80E71
:10135000516F000125DF05013A2D0ED0506B3F0E75
:10136000516F00011DDF010E0501506F3F0E516FDF
:10137000000116DF0DD00501506B3E0E516F0001CC
:101380000FDF010E0501506F3E0E516F000108DFA7
:1013900005013B6B000125DF51DF92EF17F00501DE
:1013A0006D6B68316C6F6C336C331F0E6C176C3760
:1013B0006D376C376D376C376D376C376D376C3711
:1013C0006D376C376D37C00E6C1767516C27000E88
:1013D0006D2367513F080DE21C0E6C256E6F020EE7
:1013E0006D216F6F400E6E5D6A6F000E6F596B6FEF
:1013F00006D01C0E6C256A6F000E6D216B6F695351
:1014000015E06BC503F06AC5E9FF6BC5EAFF6851DB
:10141000070B6E6F010E006E6E51016E04E0D890E6
:101420000036012EFCD70050EF1215D06BC503F02B
:101430006AC5E9FF6BC5EAFF6851070B6E6F010EC5
:10144000006E6E51016E04E0D8900036012EFCD77C
:101450000050FF0AEF160001000C4EC503F0050115
:101460004DC5E9FF4EC5EAFFEF52D8B4D0D04EC506
:1014700003F04DC5E9FF4EC5EAFFEF50520827E3E0
:101480004EC503F04DC5E9FF4EC5EAFF200EEF5CE7
:10149000050DF350036A5A6F050EEA6E550EE96E9C
:1014A0005E6B5AC55DF5F2CF5BF5F29E050E016EDF
:1014B000F76A5A51000151EC00F00A000900F5CF1B
:1014C000EEFF012EFBD705015BBFF28E35D04EC576
:1014D00003F04DC5E9FF4EC5EAFFEF507E0827E354
:1014E0004EC503F04DC5E9FF4EC5EAFF530EEF5C54
:1014F000050DF350036A5A6F050EEA6E550EE96E3C
:101500005E6B5AC55DF5F2CF5BF5F29E050E016E7E
:10151000F76A5A510001DEEC00F00A000900F5CF2D
:10152000EEFF012EFBD705015BBFF28E05D0556B98
:10153000566B576B586B596B4EC503F04D51E96EA6
:1015400003C0EAFFEF500A0A000103E0070A09E0BE
:101550000BD005014F51070DF350010F4C2750D010
:10156000000105014B6B4CD005014F51050DF350A7
:101570004B257F0806E24B6B4F51070DF350010FCF
:101580004C27516B515104083BE3526B52510608F2
:1015900033E3036A5151550FE96E050E0320EA6EDD
:1015A000EFCF5AF55AC500F05251016E04E0D890C1
:1015B0000032012EFCD700A01DD0536B4F51535D5C
:1015C00019E2546B4F51545D13E254514B255A6F3D
:1015D00052514F03F3504C2553255B6F5AC567F5A5
:1015E000686F50C569F50001DADE0501542BEAD7B2
:1015F000532BE4D7522BCAD7512B4F514B27C2D76D
:101600004D2BD8B44E2B4B2B000127D705010001E1
:10161000000C010E0501606F616F666B5751595DDB
:10162000676F675167AF03D0000ED8806755036AB4
:101630005E6F03C05FF558515A5D676F675167AFC2
:1016400003D0000ED8806755036A5C6F03C05DF558
:101650005751595D02E2FF0E606F58515A5D02E228
:10166000FF0E616F5D515F5D3BE303E15C515E5DC9
:1016700037E3D8905C375D375E515C5D006E5F513B
:101680005D5900C062F5636F5E51625D646F5F51CA
:101690006359656F5F5303E166515E5D20E357C593
:1016A00067F558C568F55BC569F5000178DE050189
:1016B00063BF01D008D05C5162275D516323605144
:1016C0005725576F0AD064516227655163236051D3
:1016D0005725576F61515825586F662BDBD736D089
:1016E000D8905E375F375C515E5D006E5D515F592B
:1016F00000C062F5636F5C51625D646F5D51635958
:10170000656F5D5303E166515C5D20E357C567F586
:1017100058C568F55BC569F5000141DE050163BF89
:1017200001D008D05E5162275F5163236151582573
:10173000586F0AD064516227655163236051572561
:10174000576F61515825586F662BDBD70001000C8D
:10175000050150532EE04E514C5D05E24CC553F54A
:101760004EC554F504D04EC553F54CC554F54F51F4
:101770004D5D05E24DC555F54FC556F504D04FC535
:1017800055F54DC556F55351545D12E355C552F507
:101790005251565D0BE353C567F552C568F551C507
:1017A00069F50001FCDD0501522BF2D7532BEBD775
:1017B0002ED04CC557F54DC558F54EC559F54DC5FC
:1017C0005AF551C55BF5000124DF4CC557F54FC5EF
:1017D00058F54EC559F54FC55AF551C55BF519DF9A
:1017E0004CC557F54DC558F54CC559F54FC55AF57B
:1017F00051C55BF50EDF4EC557F54DC558F54EC5C5
:1018000059F54FC55AF551C55BF503DF05010001D8
:10181000000C05013AC501F03BC503F03AC540F59F
:101820003BC541F5050EEA6E1A0EE96E3BC5E2FFB7
:101830003AC5E1FFE752E6CFEEFFFCE13E51020878
:1018400014E1010E3C25406F010E3D25416F40C55E
:101850004BF54C6F050E4E6F1A0E4D6F3FC54FF591
:10186000010E506F0001F9DD05013E2D25D03F51DD
:10187000080DF3503D25406F4C6B3DC54DF57F0E77
:101880004E6F40C54FF5010E506F516F000160DF84
:10189000010E05013C25406F010E3D25416F40C5FD
:1018A0004BF54C6F050E4E6F1A0E4D6F3FC54FF541
:1018B000506B0001D2DD05013E5325E13F51080D7B
:1018C000F3503D25406F4C6B3DC54DF57F0E4E6F7F
:1018D00040C54FF5010E506F516B000139DF010E0D
:1018E00005013C25406F010E3D25416F40C54BF57C
:1018F0004C6F050E4E6F1A0E4D6F3FC54FF5010E22
:10190000506F0001AADD000199DC000C0501505167
:10191000016A4F5D03E24FC500F00CD0006A080E6B
:10192000516F4F3700365051005CD8B0006E013611
:10193000512FF7D70001000C39C5EAFF38C5E9FF80
:10194000050157C5EFFFE92AD8B4EA2AEF6A382B18
:10195000D8B4392B0001000C200E05014AA9300E25
:101960004B6F49C500F049AF07D0001E002A00C0E8
:1019700049F52D0E4B6F4A8F015049C54FF5640E46
:10198000506F0001C3DF00C049F5300E012405018E
:101990004C6F49C54FF50A0E506F0001B7DF300E8E
:1019A000002405014E6F300E01244D6F4BC500F031
:1019B0004AA702D04AAF4A954AB90BD04AAF22D0C3
:1019C0004AB520D000C04CF54AB31CD000C04DF53C
:1019D00019D0300E4C5D16E100C04CF5200E4B6F57
:1019E0004AA704D04A954A834AAF4A93300E4D5DC8
:1019F00009E100C04DF5200E4C6F4AA7F7D74A9376
:101A00004AAF4A914AA505D04BC557F5000194DF6E
:101A100005014AA305D04CC557F500018DDF05012E
:101A20004AA104D04DC557F5000186DF4EC557F5D4
:101A3000000182DF27EF0DF0050E0501396F400E22
:101A4000386F3CC549F51F0E4A6F000185D7050167
:101A50003F2D27D0120E3D25496F180E3E254A6FA7
:101A60003DC54CF53EC54DF549C54EF54F6F010ED0
:101A7000506F516F00016CDE020E05013D25496F6C
:101A8000010E3E254A6F49C54BF54C6F050E4E6F52
:101A9000400E4D6F020E4F6F506B0001DEDC26D002
:101AA0000501120E3D25496F180E3E254A6F3DC5B2
:101AB0004CF53EC54DF549C54EF54F6F506B516B1A
:101AC000000146DE020E05013D25496F010E3E254F
:101AD0004A6F49C54BF54C6F050E4E6F400E4D6F6A
:101AE000020E4F6F010E506F0001B7DC000C9EA874
:101AF000FED7AD6EB1EF0DF0300E04017F25C66F3D
:101B0000300E8025C76F300E8125C86F300E8225BC
:101B1000C96F300E8325CA6F300E8425CB6F300E0F
:101B20008525CC6F300E8625CD6F300E8725CE6F84
:101B3000300E9C25D26F300E8E25CF6F0D0ED36FD9
:101B40008D6B8D510D0816E3036A8D51C60FE96E3A
:101B5000040E0320EA6EEFCF3AF505013A51000179
:101B6000C6D70C0E05013F6F000175EC08F00401AB
:101B70008D2BE7D70001000C05013E51D8B4A5D04C
:101B80004A6F4251D8B4A1D04A5F05E37F0E4A277D
:101B9000D8B09BD006D0810E4A5FD8A096D0D8B4DA
:101BA00094D04AC500F0016A026A036A496B3FC5D6
:101BB00048F5488F40C547F541C546F5190E4A6FAF
:101BC0004551465F0DE2010E475F0AE2485F08E2B9
:101BD000495F06E2492B482B472B4551462728D021
:101BE0004451475F12E2010E485F0FE2495F0DE288
:101BF000492B482B445147274551462719E3472B8A
:101C000017E1482B15E1492B13D043518009485F58
:101C10000EE2010E495F0BE2492B43518009482730
:101C200044514727E9E3482BE7E1492BE5D70380F7
:101C30004A2F01D00BD0D89046374737483749371D
:101C4000D8900336023601364B37BAD74BA106D0AF
:101C5000D8900132023203324B3302D0000635E015
:101C60004BBF1ED0D8904637473748374937455184
:101C7000465F07E2010E475F04E2485F02E2495F08
:101C80001AE34451475F05E2010E485F02E2495FF3
:101C900012E343518009485F03E2010E495F0BE301
:101CA000032A09E1022A07E1012A05E1002A0DE0E1
:101CB0000132023203323FC54AF543514A1B4AAF53
:101CC00002D0018E06D0019E04D0006A016A026A29
:101CD000036A0001F2EF0FF0800ED8A202D00501D6
:101CE000431B0501486B496B3FC547F54351471BF3
:101CF0003E51D8B4DFD0466F006E4251D8B4E3D025
:101D0000465FD8B483D03EE343C54CF54C8F44C501
:101D10004BF545C54AF5496BD8904C334B334A33A4
:101D20004933462FF8D747AF03D04881E0D04891D8
:101D300046914889050EEA6E410EE96EEBD048994E
:101D400047BF0AD046A113D04C334B334A334933F3
:101D5000002AD8B4C7D00BD04CBF0CD0D89049378C
:101D60004A374B374C370006D8B4BCD0F5D7488D2E
:101D70006DD0489D3FC547F53FAF02D04C8FABD0EB
:101D80004C9FA9D042C546F542C500F03E51465F82
:101D90003FC54CF54C8F40C54BF541C54AF5496BE5
:101DA000D8904C334B334A334933462FF8D747AF9B
:101DB00003D048839CD048934691488B050EEA6E29
:101DC000450EE96EA7D0489B47BF0AD046A113D065
:101DD0004C334B334A334933002AD8B483D00BD029
:101DE0004CBF0CD0D89049374A374B374C37000698
:101DF000D8B478D0F5D7488F29D0489F43C547F548
:101E000043AF02D04C8F67D04C9F65D043C54CF593
:101E10004C8F44C54BF545C54AF547AF04D04C9FA0
:101E2000488565D04895496B4691050EEA6E410E8E
:101E3000E96E70D047BF1CD03FC547F546A106D01C
:101E40004C334B334A334933002A4CE049AF0BD073
:101E50004A2B09E14B2B07E14C2B05E14C334B336B
:101E60004A33002A3FE048BD84D748BFC6D71CD0BC
:101E7000800E4C1B4CAF04D03AD043C547F50AD076
:101E80003FC547F54C5306E14B5304E14A5302E189
:101E9000006A21D04CBF08D0D89049374A374B3719
:101EA0004C37002EF7D71ED047AF02D04C8F13D03F
:101EB0004C9F11D042C500F043C54CF544C54BF5CD
:101EC00045C54AF508D03EC500F03FC54CF540C5B4
:101ED0004BF541C54AF54CC501F04BC502F04AC56A
:101EE00003F034D0006A016A026A036A2FD0496B9A
:101EF0004A1F4B1F4C1F491F492B05E14A2B03E189
:101F00004B2B01E14C2B48B112D748B354D748B5FD
:101F100089D7B3D7EF504A2705E34B2B03E14C2B6E
:101F2000D8B44681ED52EF504B2703E34C2BD8B485
:101F30004681ED52EF50EFBE01D0800A4C27D8B059
:101F4000468148B9FCD648BB3ED774D70001000C87
:101F5000300E0401D45D706F300ED55D716F300EA0
:101F6000D65D726F300ED75D736F300ED85D746FB3
:101F7000300ED95D0501406B3F6F00018AEC08F01F
:101F800003C0A3F402C0A2F401C0A1F400C0A0F4F5
:101F9000300E0401DA5D7A6F300EDB5D7B6F300E40
:101FA000DD5D886F0501406B88C43FF500018AEC58
:101FB00008F000C03AF501C03BF502C03CF503C093
:101FC0003DF503C041F502C040F501C03FF500C03A
:101FD0003EF50501456B446B200E436F820E426F48
:101FE0000001CAD5D892A3C441F5A2C440F5A1C44A
:101FF0003FF5A0C43EF503C045F502C044F501C05D
:1020000043F500C042F568DE03C0A3F402C0A2F4A9
:1020100001C0A1F400C0A0F4000C05013E51400332
:10202000F3CF01F0F4CF00F04103F35000263F510D
:102030004003F3500020026E000139EF10F005015B
:102040003A51050851E13B6B3B513F084DE33C6B76
:102050003C510F0847E3070E3D6F3D51800A7F0852
:102060003FE23F6B3BC53EF5416B100E406F0001F8
:10207000D4D702C03FF501C03EF505013C51012413
:10208000016E000E0220036E0150F2CF3EF5F29E6B
:1020900003C0F7FF000159EC01F005013EBFF28ECD
:1020A0003E6F070ED8803D553F6F3EC500F03F5153
:1020B000016E04E0D8900032012EFCD700A00ED0B3
:1020C0003C51080DF3503D253E6F676F3BC568F5E9
:1020D000010E696F0001CFEC09F005013D07BDD786
:1020E0003C2BB6D73B2BB0D70001000C006A016A2D
:1020F00005014351D89044B100260032013244B367
:1021000000260032013244B500260032013244B7C5
:1021100000260032013244B900260032013244BBAD
:1021200000260032013244BD00260032013244BF95
:102130000026003201320001000C05013F6B3CC556
:1021400040F5010ED8803C55416F3D5365E03F514D
:102150003A5D426F40513B25436F3F513A25446FF2
:1021600040513B25456F42C557F543C558F544C519
:1021700059F55A6F3EC55BF5000109EC0BF00501FE
:102180003F513A5D426F40513B5D436F3F513A25AD
:10219000446F40513B5D456F42C557F543C558F507
:1021A00044C559F55A6F3EC55BF5000109EC0BF0CB
:1021B000050140513A5D426F3F513B25436F40510D
:1021C0003A25446F3F513B25456F42C557F543C5FE
:1021D00058F544C559F55A6F3EC55BF5000109EC49
:1021E0000BF0050140513A5D426F3F513B5D436F3B
:1021F00040513A25446F3F513B5D456F42C557F50D
:1022000043C558F544C559F55A6F3EC55BF5000105
:1022100009EC0BF078D005013A513F25426F3B5154
:102220004025436F42C567F5686F3EC569F50001FB
:10223000CFEC09F005013A514025426F3B513F2553
:10224000436F42C567F5686F3EC569F50001CFEC85
:1022500009F005013F513A5D426F3B514025436F04
:1022600042C567F5686F3EC569F50001CFEC09F01E
:10227000050140513A5D426F3B513F25436F42C5D6
:1022800067F5686F3EC569F50001CFEC09F00501FF
:102290003A514025426F3F513B5D436F42C567F560
:1022A000686F3EC569F50001CFEC09F005013A51B0
:1022B0003F25426F40513B5D436F42C567F5686FF4
:1022C0003EC569F50001CFEC09F005013F513A5DCB
:1022D000426F40513B5D436F42C567F5686F3EC535
:1022E00069F50001CFEC09F0050140513A5D426FFC
:1022F0003F513B5D436F42C567F5686F3EC569F569
:102300000001CFEC09F0050141BF01D00ED03F51D3
:102310003F2B426F020E436F42C544F50001E6DEDB
:102320000150030F0501412711D03F513F2B426F50
:1023300040514007425D426F020E436F42C544F573
:102340000001D4DE0150050F050141273F51800AED
:10235000006E4051800A005CD8B4F7D6D8A0F5D6FC
:102360000001000C015049C54FF5640E0501506F86
:10237000000186EC0CF000C049F50150300E08E178
:1023800005014AA310D04AB70ED04AB9200E04D096
:1023900005014A974A994A81012601C057F5000173
:1023A0009CEC0CF0050149C54FF50A0E506F000179
:1023B00086EC0CF000C049F50150300E08E1050133
:1023C0004AB70BD04AA109D04AB9200E0001012614
:1023D00001C057F59CEC0CF00501300E492749C5AA
:1023E00057F500019CEC0CF0000C05013E51020871
:1023F00038E1050E396F400E386F3BC549F5030EC5
:102400004A6F0001AFDF05013F51120DF3503C252B
:10241000496F3F51080DF3503D254A6F3CC54CF5BF
:102420003DC54DF549C54EF54F6F010E506F516FCB
:102430000001A8EC0BF0010E05013C25496F010ECF
:102440003D254A6F49C54BF54C6F050E4E6F400E4A
:102450004D6F3FC54FF5506B00012DEC0AF068D071
:102460000501050E396F400E386F3BC549F51B0E4F
:102470004A6F000177DF05013E2D2CD03F51050D3D
:10248000F3503C25496F3F51080DF3503D254A6FED
:102490003CC54CF53DC54DF549C54EF54F6F010E98
:1024A000506F516F0001A8EC0BF0010E05013C25A7
:1024B000496F010E3D254A6F49C54BF54C6F050E1E
:1024C0004E6F400E4D6F3FC54FF5506B00012DEC28
:1024D0000AF005013E532DE13F51050DF3503C2517
:1024E000496F3F51080DF3503D254A6F3CC54CF5EF
:1024F0003DC54DF549C54EF54F6F010E506F516BFF
:102500000001A8EC0BF0010E05013C25496F010EFE
:102510003D254A6F49C54BF54C6F050E4E6F400E79
:102520004D6F3FC54FF5010E506F00012DEC0AF0C5
:10253000050100011EEC09F0000CABC43BF5240EB4
:1025400005013C6F3D6B3E6B010E3F6F00014DDF9F
:10255000AAC43BF52A0E05013C6F3D6B3E6B010E94
:102560003F6F000142DF050EEA6E1A0EE96EF2CFF0
:102570003AF5F29E000E65EC03F00A000900F550F2
:10258000EE6E0009FBE105013ABFF28E050E3B6FCE
:102590001A0E3A6F310E3C6F3D6B020E3E6F010E0C
:1025A0003F6F000109EC0CF0A9C43BF5360E0501A4
:1025B0003C6F3D6B3E6B010E3F6F000116DFA8C400
:1025C0003BF53C0E05013C6F3D6B3E6B010E3F6FD2
:1025D00000010BDFB3C43BF5240E05013C6F080E70
:1025E0003D6F3E6B010E3F6F0001FFDEB2C43BF555
:1025F0002A0E05013C6F080E3D6F3E6B010E3F6FCA
:102600000001F3DE050EEA6E1A0EE96EF2CF3AF51E
:10261000F29E000E65EC03F00A000900F550EE6E24
:102620000009FBE105013ABFF28E050E3B6F1A0E61
:102630003A6F310E3C6F080E3D6F020E3E6F010E79
:102640003F6F000109EC0CF0B1C43BF5360E0501FB
:102650003C6F080E3D6F3E6B010E3F6F0001C5DE03
:10266000B0C43BF53C0E05013C6F080E3D6F3E6B60
:10267000010E3F6F0001B9DE000C070E05013C257D
:102680003D6F3AC54CF53CC54DF53BC54EF54F6F1A
:10269000010E506F516B0001A8EC0BF0000C05010E
:1026A0005751D8B471D0006E5B51D8B46DD00026AC
:1026B00004E3810E002668E204D07F0E005E64E32E
:1026C00063E058C55FF55C515F1B588F5C8F5A51B2
:1026D0005E03F4CF61F559515D03F4CF03F0F3CFFE
:1026E00060F55E03F3506127F4506023000E03226F
:1026F0005A515D03F3506127F4506023000E026AC3
:102700000322022258515E03F3506027F450032243
:10271000000E022258515D03F3500326F4500222AA
:10272000000E016A01225A515C03F3506027F450F5
:102730000322000E0222012259515C03F3500326AA
:10274000F4500222000E012258515C03F35002267D
:10275000F4500122002A01BE05D06037033602364C
:1027600001360006000E60AF0AD0032A02220122C1
:10277000015005E1025003E1035001E1002A5FBF6F
:10278000018E5FAF019E04D0006A016A026A036A8B
:10279000000143EF14F005015751B608576F036A63
:1027A00058C55BF5588FD890583359335A33033294
:1027B000023201320032572FF6D75BAF0BD0001E2A
:1027C000011E021E031E002AD8B4012AD8B4022A10
:1027D000D8B4032A000158EF14F0006A016A026AB3
:1027E000036A05015F6B606B616B626B5E515D112B
:1027F0005C115B112CE0200E636FD890573758376F
:1028000059375A375F376037613762375E51625DDB
:1028100008E15D51615D05E15C51605D02E15B5184
:102820005F5D0FE35B515F5F5C51D8A05C3D605F13
:102830005D51D8A05D3D615F5E51D8A05E3D625F95
:10284000D8800036013602360336632FD6D7050E00
:10285000EA6E5F0EE96E0001000CE95005014F6F52
:102860004E51516F1BE04DC55AF54CC559F54BC53E
:1028700058F54AC557F55E6B5D6B200E5C6F820E96
:102880005B6F00010CD703C04DF502C04CF501C0D1
:102890004BF500C04AF50501512FE5D74DC55AF556
:1028A0004CC559F54BC558F54AC557F5000173D7C6
:1028B00003C04DF502C04CF501C04BF500C04AF510
:1028C00005014DAF0DD04F074F8B4A1F4B1F4C1FBB
:1028D0004D1F4A2BD8B44B2BD8B44C2BD8B44D2B0E
:1028E0003B0E566F9A0E556FCA0E546F536B0A0EFD
:1028F000516F4E51D8B44F2B4DC55AF54CC559F5B3
:102900004BC558F54AC557F556C55EF555C55DF535
:1029100054C55CF553C55BF500015FDF0150EFCF97
:102920004AF5ECCF4BF5ECCF4CF5ECCF4DF5005222
:1029300013E105014E29515DD8A402D000010CD04D
:102940004F510DE00F0B515D01E044E24FBF42D00B
:102950004FBD05D0200E37D0200E05014F174FABCD
:102960000FD04F9B4E51D8A44F0700504F6F2D0EE4
:10297000576F00019CEC0CF005014F51006E4F6B3E
:102980004E51515D0DE100504F6F2E0E576F0001FB
:102990009CEC0CF005014F51006E200E4F17000EFD
:1029A000300E4FAB10D04F9B4E51D8A44F07005064
:1029B0004F6F2D0E576F00019CEC0CF005014F512D
:1029C000006E4F6B300E002600C057F500019CECE6
:1029D0000CF0050156C55AF555C559F554C558F5BD
:1029E00053C557F55E6B5D6B5C6B0A0E5B6F000148
:1029F000F4DE03C056F502C055F501C054F500C021
:102A000053F50501512F78D700011AEF15F0050E87
:102A10000501396F410E386F020EE96E3DC54DF567
:102A20003CC54CF53BC54BF53AC54AF5010E4E6F1A
:102A3000000113D7050140511B0DF3503E254A6F8D
:102A40004051080DF3503F254B6F3EC54CF53FC537
:102A50004DF54AC54EF54F6F010E506F516B000199
:102A6000A8EC0BF03EC54BF53FC54CF5050E050136
:102A70004E6F410E4D6F40C54FF5010E506F000176
:102A80002DEC0AF057EF32F08E0E006E05013A5130
:102A9000005E3BC502F03CC501F0028E005209E029
:102AA000D890025202E1015204E002320132002EBB
:102AB000F7D73BAF05D0011E021E012AD8B4022A67
:102AC0000001000C3BC542F505013F51421B42AFDE
:102AD00005D0D894D8903BBFD8802FD03BC542F5C5
:102AE0003EC543F53A51435F06E042AF26D0D85089
:102AF000010AD86E22D03FC543F53B51435F06E043
:102B000042AF1BD0D850010AD86E17D040C543F54C
:102B10003C51435F06E042AF10D0D850010AD86E56
:102B20000CD041C543F53D51435F06E042AF05D0AF
:102B3000D850010AD86E01D0D8900001F4EF33F0DC
:102B4000F86AD09E078EEA6AE96AB886E10EAF6E2F
:102B5000040EB06EA60EAC6E900EAB6E0401706BE0
:102B6000010E716F726B736B746B756B766B776B39
:102B7000786B796B7A6B7B6B7C917C937C957C9783
:102B80007C897C9B7C9D7C9F7D917D937D957D97B1
:102B90007D997D9B7D9D7D9F7E917E937E957E9789
:102BA0007E997E9B7E9D7F6B806B816B826B836B3E
:102BB000846B856B866B876B886B896B8A6F8B6B7D
:102BC0008C6B8D6B8E6B8F6B906F916B926B936B2D
:102BD000956B946B976B966B996B986B9B6B0F0EC9
:102BE0009A6F9D6B9C6B9F6B9E6BA36BA26BA16B93
:102BF000A06BE96BE86BE76BE66BED6B200EEC6F9F
:102C0000410EEB6F8B0EEA6FF56BF46B200EF36FDA
:102C1000820EF26FF96BF86BF76BF66BFD6BFC6B6A
:102C2000FB6BFA6B0501016B006B0401FF6BFE6B24
:102C30000501056B046B036B026B096B086B076B7B
:102C4000066B0D6B0C6B480E0B6F830E0A6F116BCE
:102C5000106B200E0F6F830E0E6F156B146B136BC2
:102C6000126B196B186B176B166BC150C00B0F09E9
:102C7000C16E070EB46E166A176A6B0E04011C6FE4
:102C8000500E1D6F610E1E6F1F6B206B216B226B30
:102C9000236B246B256B266B276B286B296B2A6BA8
:102CA0002B6B2C6B2D6B2E6B2F6B306B316B326B58
:102CB000336B346B356B366B376B386B396B3A6B08
:102CC0003B6B3C6B3D6B3E6B3F6B406B416B426BB8
:102CD000436B446B456B466B476B486B496B4A6B68
:102CE0004B6B4C6B4D6B4E6B4F6B506B516B526B18
:102CF000536B546B556B566B576B586B596B5A6BC8
:102D00005B6B5C6B5D6B5E6B5F6B606B616B626B77
:102D1000636B646B656B666B676B686B696B6A6B27
:102D20006B6B6C6B6D6B6E6B6F6BA46BA56BA66B3B
:102D3000A76BA86BA96BAA6BAB6BAC6BAD6BAE6BE7
:102D4000AF6BB06BB16BB26BB36BB46BB56BB66B97
:102D5000B76BB86BB96BBA6BBB6BE36BE46BE56BD2
:102D60000501386B396B9D8A850ECD6E9D80C150F3
:102D7000C00B0B09C16EC090C082C094C08EC280CF
:102D80003A6B0001A5EF08F0956A8C6AF2CF3AF52C
:102D9000F29EA96AA69CA69EA680A85005013ABFED
:102DA000F28E0401A86FF2CF3AF5F29E010EA96EE1
:102DB000A69CA69EA680A85005013ABFF28E0401EB
:102DC000A96FF2CF3AF5F29E020EA96EA69CA69EBE
:102DD000A680A85005013ABFF28E0401AA6FF2CF77
:102DE0003AF5F29E030EA96EA69CA69EA680A85058
:102DF00005013ABFF28E0401AB6FF2CF3AF5F29EB5
:102E0000040EA96EA69CA69EA680A85005013ABFF6
:102E1000F28E0401B06FF2CF3AF5F29E050EA96E64
:102E2000A69CA69EA680A85005013ABFF28E04017A
:102E3000B16FF2CF3AF5F29E060EA96EA69CA69E41
:102E4000A680A85005013ABFF28E0401B26FF2CFFE
:102E50003AF5F29E070EA96EA69CA69EA680A850E3
:102E600005013ABFF28E0401B36FF2CF3AF5F29E3C
:102E7000080EA96EA69CA69EA680A85005013ABF82
:102E8000F28E04018E6FF2CF3AF5F29E090EA96E12
:102E9000A69CA69EA680A85005013ABFF28E04010A
:102EA0009D6B9C6FF2CF3AF5F29E0A0EA96EA69C1E
:102EB000A69EA680A85005013ABFF28E0401B86F05
:102EC000F2CF3AF5F29E0B0EA96EA69CA69EA680A6
:102ED000A85005013ABFF28E0401B96FF2CF3AF55E
:102EE000F29E0C0EA96EA69CA69EA680A850050177
:102EF0003ABFF28E0401BA6FF2CF3AF5F29E0D0E90
:102F0000A96EA69CA69EA680A85005013ABFF28E87
:102F10000401BB6FC00EF212010E05013A6F0001F1
:102F20007AEF09F005013B6B0001F1EC08F0050EAA
:102F3000EA6E1A0EE96EF2CF3AF5F29E000E73ECCD
:102F400003F00A000900F550EE6E0009FBE10501EF
:102F50003ABFF28E050E3B6F1A0E3A6F3C6B3D6B1B
:102F60003E6B020E3F6F000109EC0CF0050EEA6E9D
:102F70001A0EE96EF2CF3AF5F29E000E86EC03F0DF
:102F80000A000900F550EE6E0009FBE105013ABFA9
:102F9000F28E050E3B6F1A0E3A6F3C6B140E3D6FAE
:102FA0003E6B010E3F6F000109EC0CF0050EEA6E5E
:102FB0001A0EE96EF2CF3AF5F29E000E9DEC03F088
:102FC0000A000900F550EE6E0009FBE105013ABF69
:102FD000F28E050E3B6F1A0E3A6F3C6B230E3D6F5F
:102FE0003E6B020E3F6F000109EC0CF0040E050170
:102FF0003A6FFA0E3F6F000175EC08F005013A2FA9
:10300000F8D7040E3A6FFA0E3F6F000175EC08F026
:1030100005013A2FF8D73B6B0001F1EC08F0B4C47E
:103020003CF5140E05013D6F1E0E3E6F010E3F6F05
:1030300000011CEC0DF0B5C43CF5280E05013D6FF8
:103040001E0E3E6F3F6B00011CEC0DF0B6C43CF54C
:103050003C0E05013D6F1E0E3E6F3F6B00011CECE8
:103060000DF0B7C43CF5500E05013D6F1E0E3E6FCE
:103070003F6B00011CEC0DF07CEC0DF0020E050125
:103080003A6FFA0E3F6F000175EC08F005013A2F18
:10309000F8D70001A8EC0FF0020E05013A6FFA0E06
:1030A0003F6F000175EC08F005013A2FF8D7010ECB
:1030B0000401716F00011EEC09F004017DA707D027
:1030C0000001A8EC0FF07CEC0DF004017D97895312
:1030D000D8A4CAD2050EEA6E1A0EE96EF2CF3AF5FE
:1030E000F29E000E0001B1EC03F00A000900F55059
:1030F000EE6E0009FBE105013ABFF28E050E3B6F53
:103100001A0E3A6F1E0E3C6F3D6B010E3E6F020EA3
:103110003F6F000109EC0CF0928A80AA6BD0040189
:103120007CB167D07C811E0E05013F6F000175ECFC
:1031300008F0010E04018D6F8D5104085AE38D5182
:103140008A5D3BE1010E8D5D036AB40FE96E040EEA
:103150000320EA6EEF2A010E8D5D036AB40FE96E5B
:10316000040E0320EA6EEFBE0CD0EF50090809E20E
:10317000010E8D5D036AB40FE96E040E0320EA6E42
:10318000EF6A010E8D5D036AB40FE96E040E032031
:10319000EA6EEFCF3AF58D51140DF3CF3BF50501F3
:1031A0003AC53CF53BC53DF51E0E3E6F010E3F6F27
:1031B00000011CEC0DF01AD00401010E8D5D036AB4
:1031C000B40FE96E040E0320EA6EEFCF3AF58D518D
:1031D000140DF3CF3BF505013AC53CF53BC53DF574
:1031E0001E0E3E6F3F6B00011CEC0DF004018D2B99
:1031F000A3D702D004017C91968084A069D07CB5CD
:1032000066D07C851E0E05013F6F000175EC08F04D
:10321000010E04018D6F8D51040859E38D518A5DB3
:103220003AE1010E8D5D036AB40FE96E040E0320CE
:10323000EA6EEF06010E8D5D036AB40FE96E040EAF
:103240000320EA6EEFBE01D00AD0010E8D5D036A45
:10325000B40FE96E040E0320EA6E090EEF6E010E44
:103260008D5D036AB40FE96E040E0320EA6EEFCFA2
:103270003AF58D51140DF3CF3BF505013AC53CF5F8
:103280003BC53DF51E0E3E6F010E3F6F00011CEC6D
:103290000DF01AD00401010E8D5D036AB40FE96EC2
:1032A000040E0320EA6EEFCF3AF58D51140DF3CFE3
:1032B0003BF505013AC53CF53BC53DF51E0E3E6F9D
:1032C0003F6B00011CEC0DF004018D2BA4D701D045
:1032D0007C95968284A24CD07CB349D07C831E0E10
:1032E00005013F6F000175EC08F004018A2B010E07
:1032F0008D6F8D5104083BE38D518A5D1CE1010EF9
:103300008D5D036AB40FE96E040E0320EA6EEFCF01
:103310003AF58D51140DF3CF3BF505013AC53CF557
:103320003BC53DF51E0E3E6F010E3F6F00011CECCC
:103330000DF01AD00401010E8D5D036AB40FE96E21
:10334000040E0320EA6EEFCF3AF58D51140DF3CF42
:103350003BF505013AC53CF53BC53DF51E0E3E6FFC
:103360003F6B00011CEC0DF004018D2BC2D701D086
:103370007C938A510408D8B077D105013B6B0001DA
:10338000F1EC08F0040E04018A6FB451030873E1F4
:10339000B551080870E1B65109086DE1B75102084E
:1033A0006AE10A0EA96EA86AA69CA69EA684F2509F
:1033B000006EF29E0F01550EA76EAA0EA76EA68292
:1033C000A6B2FED7A6940050F212140E05013F6F6C
:1033D000000175EC08F00B0EA96EA86AA69CA69ECB
:1033E000A684F250006EF29E0F01550EA76EAA0E33
:1033F000A76EA682A6B2FED7A6940050F212140EB3
:1034000005013F6F000175EC08F00C0EA96EA86A6B
:10341000A69CA69EA684F250006EF29E0F01550E49
:10342000A76EAA0EA76EA682A6B2FED7A6940050DB
:10343000F212140E05013F6F000175EC08F00D0E3D
:10344000A96EA86AA69CA69EA684F250006EF29E63
:103450000F01550EA76EAA0EA76EA682A6B2FED7C2
:10346000A6940050F212140E05013F6F000175EC96
:1034700008F0FF000401B851B45D68E1B951B55DD1
:1034800065E1BA51B65D62E1BB51B75D5FE105012F
:103490003B6B0001F1EC08F0050EEA6E1A0EE96EC6
:1034A000F2CF3AF5F29E000EB1EC03F00A000900EB
:1034B000F550EE6E0009FBE105013ABFF28E050EF4
:1034C0003B6F1A0E3A6F1E0E3C6F3D6B3E6B020E49
:1034D0003F6F000109EC0CF0050EEA6E1A0EE96E62
:1034E000F2CF3AF5F29E000EC1EC03F00A0009009B
:1034F000F550EE6E0009FBE105013ABFF28E050EB4
:103500003B6F1A0E3A6F0F0E3C6F1E0E3D6F3E6BF7
:10351000020E3F6F000109EC0CF0010E0401896FEF
:1035200000011EEC09F0040E05013A6FFA0E3F6F20
:10353000000175EC08F005013A2FF8D73B6B00014C
:10354000F1EC08F0010E04018A6F8ED005013B6B8F
:103550000001F1EC08F0050EEA6E1A0EE96EF2CFEA
:103560003AF5F29E000EB1EC03F00A000900F550A6
:10357000EE6E0009FBE105013ABFF28E050E3B6FCE
:103580001A0E3A6F1E0E3C6F3D6B3E6B020E3F6F84
:10359000000109EC0CF0050EEA6E1A0EE96EF2CF8E
:1035A0003AF5F29E000ED3EC03F00A000900F55044
:1035B000EE6E0009FBE105013ABFF28E050E3B6F8E
:1035C0001A0E3A6F3C6B1E0E3D6F3E6B020E3F6F44
:1035D000000109EC0CF00401896B00011EEC09F0FC
:1035E000040E05013A6FFA0E3F6F000175EC08F00A
:1035F00005013A2FF8D73B6B0001F1EC08F0010E02
:1036000004018A6FB46BB56BB66BB76BB4C43CF591
:10361000140E05013D6F1E0E3E6F010E3F6F00013F
:103620001CEC0DF0B5C43CF5280E05013D6F1E0ED7
:103630003E6F3F6B00011CEC0DF0B6C43CF53C0E38
:1036400005013D6F1E0E3E6F3F6B00011CEC0DF03F
:10365000B7C43CF5500E05013D6F1E0E3E6F3F6B2B
:1036600000011CEC0DF00401892D1AD27CA9DBD1DC
:103670009051060802E2010E906F905302E1060E8F
:10368000906F050EEA6E1A0EE96EF2CF3AF5F29ED1
:10369000000E0001E6EC03F00A000900F550EE6EA2
:1036A0000009FBE105013ABFF28E050E3B6F1A0ED1
:1036B0003A6F1E0E3C6F3D6B010E3E6F3F6F000177
:1036C00009EC0CF00401902D23D0050EEA6E1A0EC1
:1036D000E96EF2CF3AF5F29E000E0001FBEC03F02A
:1036E0000A000900F550EE6E0009FBE105013ABF42
:1036F000F28E050E3B6F1A0E3A6F3C6B0A0E3D6F51
:10370000010E3E6F3F6F000109EC0CF022D0040166
:10371000050EEA6E1A0EE96EF2CF3AF5F29E000E31
:103720000001FBEC03F00A000900F550EE6E000901
:10373000FBE105013ABFF28E050E3B6F1A0E3A6FA0
:103740003C6B0A0E3D6F3E6B010E3F6F000109ECB2
:103750000CF004019051020823E1050EEA6E1A0EE6
:10376000E96EF2CF3AF5F29E000E00010DEC04F086
:103770000A000900F550EE6E0009FBE105013ABFB1
:10378000F28E050E3B6F1A0E3A6F3C6B130E3D6FB7
:10379000010E3E6F3F6F000109EC0CF022D00401D6
:1037A000050EEA6E1A0EE96EF2CF3AF5F29E000EA1
:1037B00000010DEC04F00A000900F550EE6E00095E
:1037C000FBE105013ABFF28E050E3B6F1A0E3A6F10
:1037D0003C6B130E3D6F3E6B010E3F6F000109EC19
:1037E0000CF004019051030823E1050EEA6E1A0E55
:1037F000E96EF2CF3AF5F29E000E00011FEC04F0E4
:103800000A000900F550EE6E0009FBE105013ABF20
:10381000F28E050E3B6F1A0E3A6F3C6B1C0E3D6F1D
:10382000010E3E6F3F6F000109EC0CF022D0040145
:10383000050EEA6E1A0EE96EF2CF3AF5F29E000E10
:1038400000011FEC04F00A000900F550EE6E0009BB
:10385000FBE105013ABFF28E050E3B6F1A0E3A6F7F
:103860003C6B1C0E3D6F3E6B010E3F6F000109EC7F
:103870000CF004019051040823E1050EEA6E1A0EC3
:10388000E96EF2CF3AF5F29E000E000136EC04F03C
:103890000A000900F550EE6E0009FBE105013ABF90
:1038A000F28E050E3B6F1A0E3A6F3C6B250E3D6F84
:1038B000010E3E6F3F6F000109EC0CF022D00401B5
:1038C000050EEA6E1A0EE96EF2CF3AF5F29E000E80
:1038D000000136EC04F00A000900F550EE6E000914
:1038E000FBE105013ABFF28E050E3B6F1A0E3A6FEF
:1038F0003C6B250E3D6F3E6B010E3F6F000109ECE6
:103900000CF004019051050823E1050EEA6E1A0E31
:10391000E96EF2CF3AF5F29E000E00014EEC04F093
:103920000A000900F550EE6E0009FBE105013ABFFF
:10393000F28E050E3B6F1A0E3A6F3C6B2E0E3D6FEA
:10394000010E3E6F3F6F000109EC0CF022D0040124
:10395000050EEA6E1A0EE96EF2CF3AF5F29E000EEF
:1039600000014EEC04F00A000900F550EE6E00096B
:10397000FBE105013ABFF28E050E3B6F1A0E3A6F5E
:103980003C6B2E0E3D6F3E6B010E3F6F000109EC4C
:103990000CF004019051060823E1050EEA6E1A0EA0
:1039A000E96EF2CF3AF5F29E000E000162EC04F0EF
:1039B0000A000900F550EE6E0009FBE105013ABF6F
:1039C000F28E050E3B6F1A0E3A6F3C6B370E3D6F51
:1039D000010E3E6F3F6F000109EC0CF022D0040194
:1039E000050EEA6E1A0EE96EF2CF3AF5F29E000E5F
:1039F000000162EC04F00A000900F550EE6E0009C7
:103A0000FBE105013ABFF28E050E3B6F1A0E3A6FCD
:103A10003C6B370E3D6F3E6B010E3F6F000109ECB2
:103A20000CF004017C99928A80AA0DD07CB10AD056
:103A30007C811E0E05013F6F000175EC08F004014A
:103A400090077C8901D07C91968084A00DD07CB5B4
:103A50000AD07C851E0E05013F6F000175EC08F051
:103A60000401902B7C8901D07C95968284A217D08A
:103A70007CB314D07C831E0E05013F6F000175ECF2
:103A800008F0030E04019025896F010E906F050167
:103A90003B6B0001F1EC08F004017C8901D07C93C0
:103AA00089510408D8A492D17CA9A9D0020E05019D
:103AB0003A6F00011FEC10F0050EEA6E1A0EE96E67
:103AC000F2CF3AF5F29E000EFBEC03F00A0009007B
:103AD000F550EE6E0009FBE105013ABFF28E050ECE
:103AE0003B6F1A0E3A6F140E3C6F3D6B010E3E6F2A
:103AF000020E3F6F000109EC0CF0050EEA6E1A0E83
:103B0000E96EF2CF3AF5F29E000EFBEC03F00A00EC
:103B10000900F550EE6E0009FBE105013ABFF28E97
:103B2000050E3B6F1A0E3A6F070E3C6F370E3D6F56
:103B30003E6B010E3F6F000109EC0CF0050EEA6EC2
:103B40001A0EE96EF2CF3AF5F29E000E76EC04F012
:103B50000A000900F550EE6E0009FBE105013ABFCD
:103B6000F28E050E3B6F1A0E3A6F3C6B3D6F3E6B4B
:103B7000010E3F6F000109EC0CF0050EEA6E1A0E03
:103B8000E96EF2CF3AF5F29E000E8CEC04F00A00DA
:103B90000900F550EE6E0009FBE105013ABFF28E17
:103BA000050E3B6F1A0E3A6F3C6B240E3D6F3E6B59
:103BB000010E3F6F000109EC0CF0050EEA6E1A0EC3
:103BC000E96EF2CF3AF5F29E000EA4EC04F00A0082
:103BD0000900F550EE6E0009FBE105013ABFF28ED7
:103BE000050E3B6F1A0E3A6F3C6B2E0E3D6F3E6B0F
:103BF000010E3F6F000109EC0CF004017C999684E2
:103C000084A410D01E0E05013F6F000175EC08F072
:103C1000010E0401896F05013B6B0001F1EC08F016
:103C200004017C89968284A2D1D0A86BA96B050E71
:103C3000AA6FAB6B7C89B06BB16BB26FB36B9B6BD4
:103C40009A6B690E8E6F140E896F896F0F0E0501C6
:103C50004C6F120E4D6F1E0E4E6F350E4F6F506B28
:103C6000010E516F0001A8EC0BF00401926BC00E25
:103C7000F21205013B6B0001F1EC08F0050EEA6E53
:103C80001A0EE96EF2CF3AF5F29E000EB8EC04F08F
:103C90000A000900F550EE6E0009FBE105013ABF8C
:103CA000F28E050E3B6F1A0E3A6F3C6B370E3D6F6E
:103CB000020E3E6F010E3F6F000109EC0CF00F0E7B
:103CC00005014C6F120E4D6F1E0E4E6F350E4F6F6D
:103CD000506B010E516F0001A8EC0BF0050E0501B1
:103CE0003A6F00011FEC10F0050EEA6E1A0EE96E35
:103CF000F2CF3AF5F29E000ECBEC04F00A00090078
:103D0000F550EE6E0009FBE105013ABFF28E050E9B
:103D10003B6F1A0E3A6F3C6B3D6B020E3E6F010E0D
:103D20003F6F000109EC0CF0050EEA6E1A0EE96E09
:103D3000F2CF3AF5F29E000EDCEC04F00A00090026
:103D4000F550EE6E0009FBE105013ABFF28E050E5B
:103D50003B6F1A0E3A6F3C6B080E3D6F020E3E6FC2
:103D6000010E3F6F000109EC0CF05F0E05013A6F88
:103D7000280E3B6F020E3C6F3D6B010E3E6F000143
:103D80009DEC10F0050EEA6E1A0EE96EF2CF3AF5D0
:103D9000F29E000EEDEC04F00A000900F550EE6E04
:103DA0000009FBE105013ABFF28E050E3B6F1A0ECA
:103DB0003A6F660E3C6F280E3D6F020E3E6F3F6FEE
:103DC000000109EC0CF09DEC12F00401895105088A
:103DD000D8A4E1D07CA9AAD0040E05013A6F000155
:103DE0001FEC10F0050EEA6E1A0EE96EF2CF3AF5EE
:103DF000F29E000E0DEC04F00A000900F550EE6E84
:103E00000009FBE105013ABFF28E050E3B6F1A0E69
:103E10003A6F140E3C6F3D6B010E3E6F020E3F6F0A
:103E2000000109EC0CF0050EEA6E1A0EE96EF2CFF5
:103E30003AF5F29E000E0DEC04F00A000900F55070
:103E4000EE6E0009FBE105013ABFF28E050E3B6FF5
:103E50001A0E3A6F070E3C6F370E3D6F020E3E6F23
:103E6000010E3F6F000109EC0CF0050EEA6E1A0E10
:103E7000E96EF2CF3AF5F29E000EFBEC04F00A0078
:103E80000900F550EE6E0009FBE105013ABFF28E24
:103E9000050E3B6F1A0E3A6F3C6B3D6F3E6B010E89
:103EA0003F6F000109EC0CF0050EEA6E1A0EE96E88
:103EB000F2CF3AF5F29E000E11EC05F00A0009006F
:103EC000F550EE6E0009FBE105013ABFF28E050EDA
:103ED0003B6F1A0E3A6F3C6B240E3D6F3E6B010E2A
:103EE0003F6F000109EC0CF0050EEA6E1A0EE96E48
:103EF000F2CF3AF5F29E000E29EC05F00A00090017
:103F0000F550EE6E0009FBE105013ABFF28E050E99
:103F10003B6F1A0E3A6F3C6B2E0E3D6F3E6B010EDF
:103F20003F6F000109EC0CF004017C99968484A495
:103F300010D01E0E05013F6F000175EC08F0010E58
:103F40000401896F05013B6B0001F1EC08F00401ED
:103F50007C89968284A21FD0A86BA96BAA6B020EE3
:103F6000AB6F7C8B7C89B06BB16BB26BB36B790E32
:103F70008E6F0E0E896F040E05013A6FAF0E3F6F04
:103F8000000175EC08F005013A2FF8D73B6B0001F2
:103F9000F1EC08F0040189510608D8A4E1D07CA90D
:103FA000A9D0030E05013A6F00011FEC10F0050EB9
:103FB000EA6E1A0EE96EF2CF3AF5F29E000E3EEC72
:103FC00005F00A000900F550EE6E0009FBE105015D
:103FD0003ABFF28E050E3B6F1A0E3A6F3C6B3D6B8B
:103FE000010E3E6F020E3F6F000109EC0CF0050E52
:103FF000EA6E1A0EE96EF2CF3AF5F29E000E1FEC51
:1040000004F00A000900F550EE6E0009FBE105011D
:104010003ABFF28E050E3B6F1A0E3A6F070E3C6FD9
:10402000370E3D6F020E3E6F010E3F6F000109EC2F
:104030000CF0050EEA6E1A0EE96EF2CF3AF5F29E1A
:10404000000EFBEC04F00A000900F550EE6E0009CA
:10405000FBE105013ABFF28E050E3B6F1A0E3A6F77
:104060003C6B3D6F3E6B010E3F6F000109EC0CF0A5
:10407000050EEA6E1A0EE96EF2CF3AF5F29E000EC8
:1040800051EC05F00A000900F550EE6E0009FBE165
:1040900005013ABFF28E050E3B6F1A0E3A6F3C6B6C
:1040A000240E3D6F3E6B010E3F6F000109EC0CF0DA
:1040B000050EEA6E1A0EE96EF2CF3AF5F29E000E88
:1040C00029EC05F00A000900F550EE6E0009FBE14D
:1040D00005013ABFF28E050E3B6F1A0E3A6F3C6B2C
:1040E0002E0E3D6F3E6B010E3F6F000109EC0CF090
:1040F00004017C99968484A410D01E0E05013F6FA4
:10410000000175EC08F0010E0401896F05013B6B9D
:104110000001F1EC08F004017C89968284A220D091
:10412000A86BA96B050EAA6F010EAB6F7C8B7C8907
:10413000B06BB16BB26BB36B790E8E6F0E0E896F75
:10414000040E05013A6FAF0E3F6F000175EC08F0E9
:1041500005013A2FF8D73B6B0001F1EC08F00401A0
:1041600089510708D8A49ED17CA9A8D0010E0501C9
:104170003A6F00011FEC10F0050EEA6E1A0EE96EA0
:10418000F2CF3AF5F29E000E69EC05F00A00090044
:10419000F550EE6E0009FBE105013ABFF28E050E07
:1041A0003B6F1A0E3A6F3C6B3D6B010E3E6F020E79
:1041B0003F6F000109EC0CF0050EEA6E1A0EE96E75
:1041C000F2CF3AF5F29E000E36EC04F00A00090038
:1041D000F550EE6E0009FBE105013ABFF28E050EC7
:1041E0003B6F1A0E3A6F3C6B370E3D6F020E3E6FFF
:1041F000010E3F6F000109EC0CF0050EEA6E1A0E7D
:10420000E96EF2CF3AF5F29E000EFBEC04F00A00E4
:104210000900F550EE6E0009FBE105013ABFF28E90
:10422000050E3B6F1A0E3A6F3C6B3D6F3E6B010EF5
:104230003F6F000109EC0CF0050EEA6E1A0EE96EF4
:10424000F2CF3AF5F29E000E7BEC05F00A00090071
:10425000F550EE6E0009FBE105013ABFF28E050E46
:104260003B6F1A0E3A6F3C6B240E3D6F3E6B010E96
:104270003F6F000109EC0CF0050EEA6E1A0EE96EB4
:10428000F2CF3AF5F29E000E93EC05F00A00090019
:10429000F550EE6E0009FBE105013ABFF28E050E06
:1042A0003B6F1A0E3A6F3C6B2E0E3D6F3E6B010E4C
:1042B0003F6F000109EC0CF004017C99968484A402
:1042C00010D01E0E05013F6F000175EC08F0010EC5
:1042D0000401896F05013B6B0001F1EC08F004015A
:1042E0007C89968284A2DED0A86BA96B050EAA6F8A
:1042F000020EAB6F7C89B06BB16BB26B010EB36F0A
:10430000790E8E6F140E896F040E05013A6FAF0E91
:104310003F6F000175EC08F005013A2FF8D7140E35
:104320000401896F0F0E05014C6F120E4D6F1E0EAA
:104330004E6F350E4F6F506B010E516F0001A8ECA0
:104340000BF00401926BC00EF21205013B6B0001F1
:10435000F1EC08F0050EEA6E1A0EE96EF2CF3AF5AE
:10436000F29E000EB8EC04F00A000900F550EE6E63
:104370000009FBE105013ABFF28E050E3B6F1A0EF4
:104380003A6F3C6B370E3D6F020E3E6F010E3F6F72
:10439000000109EC0CF00F0E05014C6F120E4D6F71
:1043A0001E0E4E6F350E4F6F506B010E516F000198
:1043B000A8EC0BF0050E05013A6F00011FEC10F0A0
:1043C000050EEA6E1A0EE96EF2CF3AF5F29E000E75
:1043D000CBEC04F00A000900F550EE6E0009FBE199
:1043E00005013ABFF28E050E3B6F1A0E3A6F3C6B19
:1043F0003D6B020E3E6F010E3F6F000109EC0CF0A9
:10440000050EEA6E1A0EE96EF2CF3AF5F29E000E34
:10441000DCEC04F00A000900F550EE6E0009FBE147
:1044200005013ABFF28E050E3B6F1A0E3A6F3C6BD8
:10443000080E3D6F020E3E6F010E3F6F000109EC4A
:104440000CF05F0E05013A6F280E3B6F020E3C6FB9
:104450003D6B010E3E6F00019DEC10F0050EEA6E03
:104460001A0EE96EF2CF3AF5F29E000EEDEC04F072
:104470000A000900F550EE6E0009FBE105013ABFA4
:10448000F28E050E3B6F1A0E3A6F660E3C6F280EC9
:104490003D6F020E3E6F3F6F000109EC0CF09DEC8A
:1044A00012F0040189510808D8A4EED17CA992D158
:1044B0009051050802E2010E906F905302E1050E43
:1044C000906F050EEA6E1A0EE96EF2CF3AF5F29E83
:1044D000000E0001A8EC05F00A000900F550EE6E90
:1044E0000009FBE105013ABFF28E050E3B6F1A0E83
:1044F0003A6F3C6B3D6B010E3E6F3F6F000109EC64
:104500000CF00401902D23D0050EEA6E1A0EE96E10
:10451000F2CF3AF5F29E000E0001C0EC05F00A0061
:104520000900F550EE6E0009FBE105013ABFF28E7D
:10453000050E3B6F1A0E3A6F3C6B0A0E3D6F010E73
:104540003E6F3F6F000109EC0CF022D00401050E14
:10455000EA6E1A0EE96EF2CF3AF5F29E000E0001F5
:10456000C0EC05F00A000900F550EE6E0009FBE111
:1045700005013ABFF28E050E3B6F1A0E3A6F3C6B87
:104580000A0E3D6F3E6B010E3F6F000109EC0CF00F
:1045900004019051020823E1050EEA6E1A0EE96E3D
:1045A000F2CF3AF5F29E000E0001D6EC05F00A00BB
:1045B0000900F550EE6E0009FBE105013ABFF28EED
:1045C000050E3B6F1A0E3A6F3C6B140E3D6F010ED9
:1045D0003E6F3F6F000109EC0CF022D00401050E84
:1045E000EA6E1A0EE96EF2CF3AF5F29E000E000165
:1045F000D6EC05F00A000900F550EE6E0009FBE16B
:1046000005013ABFF28E050E3B6F1A0E3A6F3C6BF6
:10461000140E3D6F3E6B010E3F6F000109EC0CF074
:1046200004019051030823E1050EEA6E1A0EE96EAB
:10463000F2CF3AF5F29E000E0001E8EC05F00A0018
:104640000900F550EE6E0009FBE105013ABFF28E5C
:10465000050E3B6F1A0E3A6F3C6B1E0E3D6F010E3E
:104660003E6F3F6F000109EC0CF022D00401050EF3
:10467000EA6E1A0EE96EF2CF3AF5F29E000E0001D4
:10468000E8EC05F00A000900F550EE6E0009FBE1C8
:1046900005013ABFF28E050E3B6F1A0E3A6F3C6B66
:1046A0001E0E3D6F3E6B010E3F6F000109EC0CF0DA
:1046B00004019051040823E1050EEA6E1A0EE96E1A
:1046C000F2CF3AF5F29E000E0001FBEC05F00A0075
:1046D0000900F550EE6E0009FBE105013ABFF28ECC
:1046E000050E3B6F1A0E3A6F3C6B280E3D6F010EA4
:1046F0003E6F3F6F000109EC0CF022D00401050E63
:10470000EA6E1A0EE96EF2CF3AF5F29E000E000143
:10471000FBEC05F00A000900F550EE6E0009FBE124
:1047200005013ABFF28E050E3B6F1A0E3A6F3C6BD5
:10473000280E3D6F3E6B010E3F6F000109EC0CF03F
:1047400004019051050823E1050EEA6E1A0EE96E88
:10475000F2CF3AF5F29E000E000111EC06F00A00CD
:104760000900F550EE6E0009FBE105013ABFF28E3B
:10477000050E3B6F1A0E3A6F3C6B320E3D6F010E09
:104780003E6F3F6F000109EC0CF022D00401050ED2
:10479000EA6E1A0EE96EF2CF3AF5F29E000E0001B3
:1047A00011EC06F00A000900F550EE6E0009FBE17D
:1047B00005013ABFF28E050E3B6F1A0E3A6F3C6B45
:1047C000320E3D6F3E6B010E3F6F000109EC0CF0A5
:1047D00004017C99928A80AA0DD07CB10AD07C8198
:1047E0001E0E05013F6F000175EC08F004019007F3
:1047F0007C8901D07C91968084A00DD07CB50AD0B4
:104800007C851E0E05013F6F000175EC08F0040168
:10481000902B7C8901D07C95968284A21CD07CB39D
:1048200019D07C83020E05013A6F960E3F6F00018E
:1048300075EC08F005013A2FF8D70A0E040190250F
:10484000896F010E906F05013B6B0001F1EC08F0E0
:1048500004017C8901D07C93968484A415D0040E35
:1048600005013A6FAF0E3F6F000175EC08F00501CE
:104870003A2FF8D7010E0401896F05013B6B000147
:10488000F1EC08F004017C8989510908D8A45AD2B6
:10489000050EEA6E1A0EE96EF2CF3AF5F29E000EA0
:1048A0000001B1EC03F00A000900F550EE6E0009BA
:1048B000FBE105013ABFF28E050E3B6F1A0E3A6F0F
:1048C0001E0E3C6F3D6B010E3E6F020E3F6F0001EE
:1048D00009EC0CF004018A2D2FD0B4C43CF5140E61
:1048E00005013D6F1E0E3E6F010E3F6F00011CEC77
:1048F0000DF0B5C43CF5280E05013D6F1E0E3E6F50
:104900003F6B00011CEC0DF0B6C43CF53C0E0501FC
:104910003D6F1E0E3E6F3F6B00011CEC0DF0B7C4E7
:104920003CF5500E05013D6F1E0E3E6F3F6B0001C2
:104930001CEC0DF095D004018A5102082FE1B4C49B
:104940003CF5140E05013D6F1E0E3E6F3F6B0001DE
:104950001CEC0DF0B5C43CF5280E05013D6F1E0E94
:104960003E6F010E3F6F00011CEC0DF0B6C43CF52C
:104970003C0E05013D6F1E0E3E6F3F6B00011CECAF
:104980000DF0B7C43CF5500E05013D6F1E0E3E6F95
:104990003F6B00011CEC0DF063D004018A51030849
:1049A0002FE1B4C43CF5140E05013D6F1E0E3E6FA1
:1049B0003F6B00011CEC0DF0B5C43CF5280E050161
:1049C0003D6F1E0E3E6F3F6B00011CEC0DF0B6C438
:1049D0003CF53C0E05013D6F1E0E3E6F010E3F6F14
:1049E00000011CEC0DF0B7C43CF5500E05013D6F05
:1049F0001E0E3E6F3F6B00011CEC0DF031D0040128
:104A00008A5104082EE1B4C43CF5140E05013D6F33
:104A10001E0E3E6F3F6B00011CEC0DF0B5C43CF563
:104A2000280E05013D6F1E0E3E6F3F6B00011CEC12
:104A30000DF0B6C43CF53C0E05013D6F1E0E3E6FF9
:104A40003F6B00011CEC0DF0B7C43CF5500E0501A6
:104A50003D6F1E0E3E6F010E3F6F00011CEC0DF00E
:104A60000401928A80AA34D07CB131D07C811E0EA0
:104A700005013F6F000175EC08F0010E04018D6F18
:104A80008D51040824E38D518A5D1FE1010E8D5D77
:104A9000036AB40FE96E040E0320EA6EEF2A010EDA
:104AA0008D5D036AB40FE96E040E0320EA6EEFBE5B
:104AB0000CD0EF50090809E2010E8D5D036AB40FB6
:104AC000E96E040E0320EA6EEF6A8D2BD9D701D070
:104AD0007C91968084A033D07CB530D07C851E0E2E
:104AE00005013F6F000175EC08F0010E04018D6FA8
:104AF0008D51040823E38D518A5D1EE1010E8D5D09
:104B0000036AB40FE96E040E0320EA6EEF06010E8D
:104B10008D5D036AB40FE96E040E0320EA6EEFBEEA
:104B200001D00AD0010E8D5D036AB40FE96E040E48
:104B30000320EA6E090EEF6E8D2BDAD701D07C953B
:104B4000968284A211D07CB30ED07C83020E050124
:104B50003A6F960E3F6F000175EC08F005013A2F91
:104B6000F8D704018A2B01D07C93968484A414D0B6
:104B7000040E05013A6FAF0E3F6F000175EC08F0AF
:104B800005013A2FF8D7010E0401896F05013B6B2F
:104B90000001F1EC08F004018A510408D8B0D2D029
:104BA00005013B6B0001F1EC08F00401B851B45D64
:104BB00068E1B951B55D65E1BA51B65D62E1BB51DD
:104BC000B75D5FE105013B6B0001F1EC08F0050EFC
:104BD000EA6E1A0EE96EF2CF3AF5F29E000EB1ECD3
:104BE00003F00A000900F550EE6E0009FBE1050133
:104BF0003ABFF28E050E3B6F1A0E3A6F1E0E3C6FD7
:104C00003D6B3E6B020E3F6F000109EC0CF0050E90
:104C1000EA6E1A0EE96EF2CF3AF5F29E000EC1EC82
:104C200003F00A000900F550EE6E0009FBE10501F2
:104C30003ABFF28E050E3B6F1A0E3A6F0F0E3C6FA5
:104C40001E0E3D6F3E6B020E3F6F000109EC0CF033
:104C50005B0E0401896F00011EEC09F0040E0501D2
:104C60003A6FFA0E3F6F000175EC08F005013A2F1C
:104C7000F8D73B6B0001F1EC08F0010E04018A6FDC
:104C800061D005013B6B0001F1EC08F0050EEA6E06
:104C90001A0EE96EF2CF3AF5F29E000EB1EC03F077
:104CA0000A000900F550EE6E0009FBE105013ABF6C
:104CB000F28E050E3B6F1A0E3A6F1E0E3C6F3D6B67
:104CC0003E6B020E3F6F000109EC0CF0050EEA6E20
:104CD0001A0EE96EF2CF3AF5F29E000ED3EC03F015
:104CE0000A000900F550EE6E0009FBE105013ABF2C
:104CF000F28E050E3B6F1A0E3A6F3C6B1E0E3D6F27
:104D00003E6B020E3F6F000109EC0CF0010E040136
:104D1000896F00011EEC09F0040E05013A6FFA0ECE
:104D20003F6F000175EC08F005013A2FF8D73B6B97
:104D30000001F1EC08F0010E04018A6FB46BB56B51
:104D4000B66BB76B89515B08D8A4ECD1050EEA6E3F
:104D50001A0EE96EF2CF3AF5F29E000E000123EC36
:104D600006F00A000900F550EE6E0009FBE10501AE
:104D70003ABFF28E050E3B6F1A0E3A6F3C6B3D6BDD
:104D8000010E3E6F020E3F6F000109EC0CF00401B2
:104D90008A2D2FD0B8C43CF5140E05013D6F1E0EB0
:104DA0003E6F010E3F6F00011CEC0DF0B9C43CF5E5
:104DB000280E05013D6F1E0E3E6F3F6B00011CEC7F
:104DC0000DF0BAC43CF53C0E05013D6F1E0E3E6F62
:104DD0003F6B00011CEC0DF0BBC43CF5500E05010F
:104DE0003D6F1E0E3E6F3F6B00011CEC0DF095D029
:104DF00004018A5102082FE1B8C43CF5140E0501E4
:104E00003D6F1E0E3E6F3F6B00011CEC0DF0B9C4F0
:104E10003CF5280E05013D6F1E0E3E6F010E3F6FE3
:104E200000011CEC0DF0BAC43CF53C0E05013D6FD1
:104E30001E0E3E6F3F6B00011CEC0DF0BBC43CF539
:104E4000500E05013D6F1E0E3E6F3F6B00011CECC6
:104E50000DF063D004018A5103082FE1B8C43CF57A
:104E6000140E05013D6F1E0E3E6F3F6B00011CECE2
:104E70000DF0B9C43CF5280E05013D6F1E0E3E6FC6
:104E80003F6B00011CEC0DF0BAC43CF53C0E050173
:104E90003D6F1E0E3E6F010E3F6F00011CEC0DF0CA
:104EA000BBC43CF5500E05013D6F1E0E3E6F3F6BBF
:104EB00000011CEC0DF031D004018A5104082EE1F0
:104EC000B8C43CF5140E05013D6F1E0E3E6F3F6BDE
:104ED00000011CEC0DF0B9C43CF5280E05013D6F36
:104EE0001E0E3E6F3F6B00011CEC0DF0BAC43CF58A
:104EF0003C0E05013D6F1E0E3E6F3F6B00011CEC2A
:104F00000DF0BBC43CF5500E05013D6F1E0E3E6F0B
:104F1000010E3F6F00011CEC0DF00401928A80AA83
:104F200034D07CB131D07C811E0E05013F6F000171
:104F300075EC08F0010E04018D6F8D51040824E317
:104F40008D518A5D1FE1010E8D5D036AB80FE96E18
:104F5000040E0320EA6EEF2A010E8D5D036AB80F7E
:104F6000E96E040E0320EA6EEFBE0CD0EF50090884
:104F700009E2010E8D5D036AB80FE96E040E03208D
:104F8000EA6EEF6A8D2BD9D701D07C91968084A0F0
:104F900033D07CB530D07C851E0E05013F6F0001FB
:104FA00075EC08F0010E04018D6F8D51040823E3A8
:104FB0008D518A5D1EE1010E8D5D036AB80FE96EA9
:104FC000040E0320EA6EEF06010E8D5D036AB80F32
:104FD000E96E040E0320EA6EEFBE01D00AD0010E86
:104FE0008D5D036AB80FE96E040E0320EA6E090EA8
:104FF000EF6E8D2BDAD701D07C95968284A211D0EA
:105000007CB30ED07C83020E05013A6F960E3F6F83
:10501000000175EC08F005013A2FF8D704018A2B3E
:1050200001D07C93968484A414D0040E05013A6FB9
:10503000AF0E3F6F000175EC08F005013A2FF8D76D
:10504000010E0401896F05013B6B0001F1EC08F0D2
:1050500004018A51040866E2010E906F8A6F0A0EFD
:10506000A96EB8C4A8FFA69CA69EA684F250006EA6
:10507000F29E0F01550EA76EAA0EA76EA682A6B2CB
:10508000FED7A6940050F2120B0EA96EB9C4A8FF69
:10509000A69CA69EA684F250006EF29E550EA76EA8
:1050A000AA0EA76EA682A6B2FED7A6940050F21250
:1050B0000C0EA96EBAC4A8FFA69CA69EA684F250A8
:1050C000006EF29E550EA76EAA0EA76EA682A6B21D
:1050D000FED7A6940050F2120D0EA96EBBC4A8FF15
:1050E000A69CA69EA684F250006EF29E550EA76E58
:1050F000AA0EA76EA682A6B2FED7A6940050F21200
:10510000040E05013A6FFA0E3F6F000175EC08F0CE
:1051100005013A2FF8D73B6B0001F1EC08F0010EC6
:105120000401896F89510B08D8A480D17CA9C5D00E
:105130008A5302E1040E8A6F050EEA6E1A0EE96EBA
:10514000F2CF3AF5F29E000E000136EC06F00A00AE
:105150000900F550EE6E0009FBE105013ABFF28E41
:10516000050E3B6F1A0E3A6F3C6B3D6B010E3E6FA6
:10517000020E3F6F000109EC0CF004018A51040893
:105180000FE1ABC43BF5140E05013C6F280E3D6FDB
:10519000010E3E6F020E3F6F0001F5EC11F00DD0D5
:1051A000ABC43BF5140E05013C6F280E3D6F3E6B02
:1051B000020E3F6F0001F5EC11F004018A51030863
:1051C0000EE1AAC43BF5280E05013C6F3D6F010EB0
:1051D0003E6F020E3F6F0001F5EC11F00CD0AAC437
:1051E0003BF5280E05013C6F3D6F3E6B020E3F6F95
:1051F0000001F5EC11F004018A5102080FE1A9C485
:105200003BF5460E05013C6F280E3D6F010E3E6FCB
:10521000020E3F6F0001F5EC11F00DD0A9C43BF573
:10522000460E05013C6F280E3D6F3E6B020E3F6F30
:105230000001F5EC11F004018A2D0FD0A8C43BF554
:105240005A0E05013C6F280E3D6F010E3E6F020E97
:105250003F6F0001F5EC11F00DD0A8C43BF55A0EDC
:1052600005013C6F280E3D6F3E6B020E3F6F000143
:10527000F5EC11F0050EEA6E1A0EE96EF2CF3AF572
:10528000F29E000E65EC03F00A000900F550EE6E88
:105290000009FBE105013ABFF28E050E3B6F1A0EC5
:1052A0003A6F3C0E3C6F2A0E3D6F020E3E6F3F6F11
:1052B000000109EC0CF004017C99928A80AA1ED0AE
:1052C000010E8A5D036AA80FE96E040E0320EA6EE0
:1052D000EFBE03D0EF50080811E31E0E05013F6F2B
:1052E000000175EC08F0010E04018A5D036AA80F45
:1052F000E96E040E0320EA6EEF2A7C89968084A072
:105300001ED0010E8A5D036AA80FE96E040E032009
:10531000EA6EEFBE14D0EF50000811E21E0E050138
:105320003F6F000175EC08F0010E04018A5D036A0D
:10533000A80FE96E040E0320EA6EEF067C899682C0
:1053400084A209D01E0E05013F6F000175EC08F024
:1053500004018A077C89968484A468D0040E050120
:105360003A6FAF0E3F6F000175EC08F005013A2F60
:10537000F8D7080E0401896F05013B6B0001F1ECC1
:1053800008F0010E0401906F7C89A96AA8C4A8FFE7
:10539000A69CA69EA684F250006EF29E0F01550EAA
:1053A000A76EAA0EA76EA682A6B2FED7A69400503C
:1053B000F212010EA96EA9C4A8FFA69CA69EA684FF
:1053C000F250006EF29E550EA76EAA0EA76EA68230
:1053D000A6B2FED7A6940050F212020EA96EAAC47D
:1053E000A8FFA69CA69EA684F2CF00F0F29E550EC2
:1053F000A76EAA0EA76EA682A6B2FED7A6940050EC
:10540000F212030EA96EABC4A8FFA69CA69EA684AA
:10541000F2CF00F0F29E550EA76EAA0EA76EA682DE
:10542000A6B2FED7A6940050F212040189510C08CE
:10543000D8A481D17CA9C5D08A5302E1040E8A6F19
:10544000050EEA6E1A0EE96EF2CF3AF5F29E000EE4
:10545000000148EC06F00A000900F550EE6E000964
:10546000FBE105013ABFF28E050E3B6F1A0E3A6F53
:105470003C6B3D6B010E3E6F020E3F6F000109EC6D
:105480000CF004018A5104080FE1B3C43BF5140E7B
:1054900005013C6F280E3D6F010E3E6F020E3F6FFF
:1054A0000001F5EC11F00DD0B3C43BF5140E05016D
:1054B0003C6F280E3D6F3E6B020E3F6F0001F5EC16
:1054C00011F004018A5103080EE1B2C43BF5280E25
:1054D00005013C6F3D6F010E3E6F020E3F6F0001F4
:1054E000F5EC11F00CD0B2C43BF5280E05013C6F71
:1054F0003D6F3E6B020E3F6F0001F5EC11F00401B1
:105500008A5102080FE1B1C43BF5460E05013C6F1C
:10551000280E3D6F010E3E6F020E3F6F0001F5EC4D
:1055200011F00DD0B1C43BF5460E05013C6F280EBD
:105530003D6F3E6B020E3F6F0001F5EC11F0040170
:105540008A2D0FD0B0C43BF55A0E05013C6F280ED2
:105550003D6F010E3E6F020E3F6F0001F5EC11F042
:105560000DD0B0C43BF55A0E05013C6F280E3D6FBF
:105570003E6B020E3F6F0001F5EC11F0050EEA6E76
:105580001A0EE96EF2CF3AF5F29E000E65EC03F0CA
:105590000A000900F550EE6E0009FBE105013ABF73
:1055A000F28E050E3B6F1A0E3A6F3C0E3C6F2A0EC0
:1055B0003D6F020E3E6F3F6F000109EC0CF00401DD
:1055C0007C99928A80AA1ED0010E8A5D036AB00F70
:1055D000E96E040E0320EA6EEFBE03D0EF50080818
:1055E00011E31E0E05013F6F000175EC08F0010E7E
:1055F00004018A5D036AB00FE96E040E0320EA6EAF
:10560000EF2A7C89968084A01ED0010E8A5D036AF1
:10561000B00FE96E040E0320EA6EEFBE14D0EF5017
:10562000000811E21E0E05013F6F000175EC08F045
:10563000010E04018A5D036AB00FE96E040E0320B7
:10564000EA6EEF067C89968284A209D01E0E0501BF
:105650003F6F000175EC08F004018A077C8996848D
:1056600084A469D0040E05013A6FAF0E3F6F0001AC
:1056700075EC08F005013A2FF8D7080E0401896F80
:1056800005013B6B0001F1EC08F0010E0401906F85
:105690007C89040EA96EB0C4A8FFA69CA69EA68411
:1056A000F250006EF29E0F01550EA76EAA0EA76E65
:1056B000A682A6B2FED7A6940050F212050EA96EDD
:1056C000B1C4A8FFA69CA69EA684F250006EF29ECE
:1056D000550EA76EAA0EA76EA682A6B2FED7A694F6
:1056E0000050F212060EA96EB2C4A8FFA69CA69E98
:1056F000A684F2CF00F0F29E550EA76EAA0EA76EFA
:10570000A682A6B2FED7A6940050F212070EA96E8A
:10571000B3C4A8FFA69CA69EA684F2CF00F0F29E7A
:10572000550EA76EAA0EA76EA682A6B2FED7A694A5
:105730000050F212040189510D08D8A49BD07CA915
:1057400033D005013B6B0001F1EC08F0050EEA6E69
:105750001A0EE96EF2CF3AF5F29E000EE8EC05F073
:105760000A000900F550EE6E0009FBE105013ABFA1
:10577000F28E050E3B6F1A0E3A6F3C6B3D6B010EBD
:105780003E6F020E3F6F000109EC0CF08EC43BF53A
:105790001E0E05013C6F3D6F3E6B030E3F6F000117
:1057A000F5EC11F004017C99928A80AA19D08E51EF
:1057B000850816E38E5163080AE3640E8E6F0501B7
:1057C0003F6F000175EC08F004017C8909D01E0EC2
:1057D00005013F6F000175EC08F004018E2B7C89F8
:1057E000968084A00CD08E51690809E21E0E050136
:1057F0003F6F000175EC08F004018E077C899682EA
:1058000084A208D01E0E05013F6F000175EC08F060
:1058100004017C89968484A42DD0040E05013A6F7E
:10582000AF0E3F6F000175EC08F005013A2FF8D775
:10583000080E0401896F05013B6B0001F1EC08F0D3
:10584000010E0401906F7C89080EA96E8EC4A8FF1A
:10585000A69CA69EA684F250006EF29E0F01550EE5
:10586000A76EAA0EA76EA682A6B2FED7A694005077
:10587000F212040189510E08D8A471D17CA930D04C
:10588000050EEA6E1A0EE96EF2CF3AF5F29E000EA0
:10589000000159EC06F00A000900F550EE6E00090F
:1058A000FBE105013ABFF28E050E3B6F1A0E3A6F0F
:1058B0003C6B3D6B010E3E6F020E3F6F000109EC29
:1058C0000CF09CC43BF5320E05013C6F280E3D6F79
:1058D0003E6B020E3F6F0001F5EC11F004017C9964
:1058E000928A80AA10D09D530EE19C5105080BE3CB
:1058F0001E0E05013F6F000175EC08F004019C2BA2
:10590000D8B49D2B7C89968084A011D09D5303E14F
:105910009C5101080CE21E0E05013F6F000175EC61
:1059200008F004019C51D8B49D079C077C897CAB8E
:10593000DED0968284A2DAD0090EA96E9CC4A8FF9C
:10594000A69CA69EA684F250006EF29E0F01550EF4
:10595000A76EAA0EA76EA682A6B2FED7A694005086
:10596000F212140E0401896F0F0E05014C6F120E16
:105970004D6F1E0E4E6F350E4F6F506B010E516FF7
:105980000001A8EC0BF00401926BC00EF2120501AD
:105990003B6B0001F1EC08F0050EEA6E1A0EE96EA1
:1059A000F2CF3AF5F29E000EB8EC04F00A000900BE
:1059B000F550EE6E0009FBE105013ABFF28E050ECF
:1059C0003B6F1A0E3A6F3C6B370E3D6F020E3E6F07
:1059D000010E3F6F000109EC0CF00F0E05014C6F3A
:1059E000120E4D6F1E0E4E6F350E4F6F506B010E27
:1059F000516F0001A8EC0BF0050E05013A6F000194
:105A00001FEC10F0050EEA6E1A0EE96EF2CF3AF5B1
:105A1000F29E000ECBEC04F00A000900F550EE6E89
:105A20000009FBE105013ABFF28E050E3B6F1A0E2D
:105A30003A6F3C6B3D6B020E3E6F010E3F6F0001F3
:105A400009EC0CF0050EEA6E1A0EE96EF2CF3AF58B
:105A5000F29E000EDCEC04F00A000900F550EE6E38
:105A60000009FBE105013ABFF28E050E3B6F1A0EED
:105A70003A6F3C6B080E3D6F020E3E6F010E3F6F9A
:105A8000000109EC0CF05F0E05013A6F280E3B6F28
:105A9000020E3C6F3D6B010E3E6F00019DEC10F05D
:105AA000050EEA6E1A0EE96EF2CF3AF5F29E000E7E
:105AB000EDEC04F00A000900F550EE6E0009FBE180
:105AC00005013ABFF28E050E3B6F1A0E3A6F660E55
:105AD0003C6F280E3D6F020E3E6F3F6F000109ECD8
