:10000000EFEF10F06896000C046ED8CF05F0E0CF4B
:1000100006F00001E9CF0CF0EACF07F0E1CF08F0DD
:10002000E2CF09F0D9CF0AF0DACF0BF0F3CF12F01C
:10003000F4CF13F0FACF14F000C00EF001C00FF0AF
:1000400002C010F003C011F0F2AA2AEF00F0F2B4DF
:1000500010EF07F09DA030EF00F09EB055EF07F0D5
:100060009DA636EF00F09EB6C5EF06F0A0AA3CEFC5
:1000700000F0A1BA75EF06F00EC000F00FC001F05D
:1000800010C002F011C003F00CC0E9FF07C0EAFF86
:10009000078E08C0E1FF09C0E2FF0AC0D9FF0BC00C
:1000A000DAFF12C0F3FF13C0F4FF14C0FAFF0450CC
:1000B00006C0E0FF05C0D8FF1000F76ACA0FF66E51
:1000C000000EF7220900F55012000002FFFFFFFFAB
:1000D000FFFFFFFFFFFFFFFFFFFF07AE03D0F2CFE1
:1000E0000DF0F29EF76AFC0FF66E000EF722090083
:1000F000F55007AE02D00DBEF28E12004000200077
:1001000000000000000000000000000000000000EF
:10011000000000000000000000000000F76A2C0F43
:10012000F66E010EF7220900F550120009022000B8
:10013000010100C0320904000002FFFFFF000705B3
:10014000810220000107050102200001F76A5C0F0F
:10015000F66E010EF7220900F55012000100F76A51
:100160006E0FF66E010EF7220900F5501200120113
:10017000100100000040D8040B0001000102000142
:10018000F76A900FF66E010EF7220900F550120083
:1001900000041400F76AA40FF66E010EF72209009E
:1001A000F55012000403090410036A0050006900AE
:1001B000630055007300620022034C006500630079
:1001C00074006F007200200046004C0055004A0089
:1001D0004F0020004A0050002E006D92699468A4E0
:1001E00002D06894FCD781EF06F0400E0401016F45
:1001F000040E036F100E026F880E006F046B040E66
:10020000076F500E066F0001000C70A002D0EDDFEA
:100210007090689A8AEF06F06A6A689290EF06F02A
:100220000301349133BF3481339F3351100803E20B
:10023000000E016E25D034A112D0036A3351F2CFE3
:1002400035F3F29E000139DF030135BFF28EFF085E
:1002500002E1000E01D0010E016E12D011D0036A2E
:100260003351F2CF35F3F29E000127DF030135BF92
:10027000F28EFF0802E1000E01D0010E016E00D0E7
:100280000001000C036A03013251700FE96E0F0E7A
:100290000320EA6EEF6A32C333F30001C1DF01527B
:1002A00019E003013251080DF350346BE96E040E6E
:1002B0003425EA6EEF6A3251080DF350346B336F18
:1002C000040E3327000E342333C3E9FF040E342514
:1002D000EA6EEF6A0001000C010E0301316F31512B
:1002E0000F0807E331C332F30001CCDF0301312BE8
:1002F000F6D70001000C0301276B27530AE1036ABC
:100300002751210FE96E000E0320EA6EEF6A272BBA
:10031000F4D7186A010E196E176A0001000C6A6A98
:10032000686A9F0E6B6E3D0E696E6E6AD5DFE3DF05
:10033000160E706E68A602D065DEFCD76D9855DF8C
:10034000030E1C6E96EF06F0698468986D829CEF30
:1003500006F0689CA2EF06F02CC31DF0000CFF0E07
:100360001D6E000C03012A6B20523EE02A513F080B
:100370003BE31A50000A000105E0020A0FE0010AFF
:1003800019E024D0036A1F50F2CF2CF3F29EC6DE90
:1003900003012CBFF28E2B6F000118D0036A1F508F
:1003A000F2CF2CF3F29EF6DE03012CBFF28E2B6F00
:1003B00000010CD0036A1F50F2CF2CF3F29ECFDE67
:1003C00003012CBFF28E2B6F000100D01F2A2006E4
:1003D00003012A512A2B036A500FE96E040E0320F1
:1003E000EA6E2BC3EFFFC0D7205204E12A51400828
:1003F00001E0176A2AC32CF30001AEDF000C1F6A6C
:100400001A6A04011351010A000105E0030A08E019
:10041000010A09E023D0120E206E030E1A6E20D0BE
:10042000200E206E1DD0020E1A6E036A04011251B6
:10043000F2CF29F3F29E0001A3DE030129BFF28E61
:100440001F6E036A1F50F2CF29F3F29E0001A2DE55
:10045000030129BFF28E206E000102D080DF0CD094
:100460000401175305E12050165D02E216C420F086
:10047000010E176E000176DF81EF03F003012953AF
:1004800006E1040E1C6E000127DFDED00301050E1D
:100490001C6E040E2C6F900E2B6F010E2A6F2A51CA
:1004A0000F08D8A0D1D02AC332F30001EBDE03013C
:1004B0002D6B036A2A51F2CF31F3F29E0001FDDD6C
:1004C000030131BFF28EFF085BE0040E2D6FD89060
:1004D0002A35036AF2CF31F3F29E0001FEDD0900F6
:1004E000F5CF03F0030131BFF28E2E6F03C02FF35F
:1004F0002A51080DF350326B316F010E3125016E18
:10050000000E3221036E01C0E9FF040E0324EA6EDF
:100510002EC3EFFF2A51080DF350326B316F020EDC
:100520003125016E000E3221036E01C0E9FF040E79
:100530000324EA6E2CC3ECFFED522BC3EFFFD890DF
:100540002A35036AF2CF31F3F29E0001C6DD0900BD
:10055000F5CF03F0030131BFF28E2B2703502C237C
:10056000880E306F2FB130812FB330832A51080DA0
:10057000F350326BE96E040E3225EA6E30C3EFFFA2
:10058000036A2A51F2CF31F3F29E000196DD030196
:1005900031BFF28EFF083BE02D832A51080DF35046
:1005A000326B316F040E3127000E3223020E3125DB
:1005B000016E000E3221036E01C0E9FF040E032418
:1005C000EA6E2CC3ECFFED522BC3EFFFD8902A3517
:1005D000036AF2CF31F3F29E00017FDD0900F5CF0F
:1005E00003F0030131BFF28E2B2703502C232A5135
:1005F000080DF350326B316F040E3127000E322399
:1006000031C3E9FF040E3225EA6E400EEF6E2D5124
:10061000060802E10E0E2D6F036A2A51F2CF31F364
:10062000F29E00014ADD030131BFF28E0108D8A419
:100630002D89036A2A51700FE96E0F0E0320EA6EAE
:100640002DC3EFFF2A2B2BD7000179EF03F0040114
:100650001151000A00010DE0010A15E0020A20E034
:10066000060A2AE0030A31E00E0A31E0010A37E007
:1006700046D019C050F40401516B020E03012C6FD7
:1006800000016ADE3ED00401122D07D0010E1916BA
:1006900003012C6B000160DE02D0000160DE31D06E
:1006A0000401122D06D0198203012C6B000154DEC7
:1006B00002D0000154DE25D0020E176E12C41EF0C7
:1006C00003012C6B000148DE1CD099D61AD018C04B
:1006D00050F4010E03012C6F00013EDE12D0040124
:1006E000125101080AE312C418F012C429F30001E0
:1006F000C5D603012C6B00012FDE000102D02FDED6
:1007000000D097EF04F018C029F304011151000A3A
:10071000000105E00A0A0CE0010A31E045D00401BD
:10072000506B516B020E03012C6F000115DE3ED0A1
:100730000301295321E0010E295D036AF2CF2AF358
:10074000F29E000103DD03012ABFF28E016E040157
:10075000145DD8A002D003010FD0036A1451210FF9
:10076000E96E000E0320EA6EEFCF50F4010E030194
:100770002C6F0001F1DD02D00001F1DD17D0030183
:1007800029530FE0036A04011451210FE96E000E92
:100790000320EA6E12C4EFFF03012C6B0001DCDDC5
:1007A00002D00001DCDD02D0DADD00D097EF04F0EA
:1007B00003012A9129BF2A81299F2AA111D02951F9
:1007C000080DF3502C6B2B6F040E2B27000E2C23DF
:1007D0002BC3E9FF040E2C25EA6E880EEF6E09D0BC
:1007E0002951080DF3502C6BE96E040E2C25EA6E8E
:1007F000EF6A000160EF04F003012A9129BF2A810A
:10080000299F2AA111D02951080DF3502C6B2B6F71
:10081000040E2B27000E2C232BC3E9FF040E2C25DE
:10082000EA6E840EEF6E0AD02951080DF3502C6B3E
:10083000E96E040E2C25EA6E840EEF6E000168EF5F
:1008400004F003012A9129BF2A81299F2AA111D0EE
:100850002951080DF3502D6B2C6F040E2C27000E20
:100860002D232CC3E9FF040E2D25EA6EEFCF2BF3C9
:100870000AD02951080DF3502D6BE96E040E2D2579
:10088000EA6EEFCF2BF32BAF02D02BB502D0000EC8
:1008900001D0010E016E000174EF04F014C433F3B3
:1008A000BFDC01522EE004011151010A000105E0F4
:1008B000020A0BE0030A11E022D014C429F378D70E
:1008C00003012C6B000148DD1CD014C429F394D71C
:1008D00003012C6B000140DD14D00401506B516BFF
:1008E00014C429F30001ADD7015203E0010E040145
:1008F000506F020E03012C6F00012EDD02D02FDDA0
:1009000000D097EF04F0176A040110517F0B000A22
:10091000000105E0010A05E0030A05E006D097D6CC
:1009200006D0F1D604D0BAD702D019DD00D0D4EF6A
:1009300005F003012951080DF3502F6BE96E040EE9
:100940002F25EA6EEFCF2BF32A51020806E12BADDB
:1009500002D02A6B02D0010E2A6F2A51030813E13C
:10096000840E2B6F2951080DF3502F6B2E6F040E40
:100970002E27000E2F232EC3E9FF040E2F25EA6E2B
:10098000840EEF6E07D02A2D03D0C80E2B6F02D035
:10099000880E2B6FD8902935036AF2CF2EF3F29E82
:1009A00000016DEC00F00900F5CF03F003012EBF4C
:1009B000F28E2C6F03C02DF32951080DF3502F6BCD
:1009C0002E6F010E2E25016E000E2F21036E01C029
:1009D000E9FF040E0324EA6E2CC3EFFF2DB12B8137
:1009E0002DB32B832951080DF3502F6BE96E040EA4
:1009F0002F25EA6E2BC3EFFF0001000C036A0301F1
:100A00002E51700FE96E0F0E0320EA6EEF5212E0C6
:100A10002E51080DF350306B2F6F040E2F27000E50
:100A200030232FC3E9FF040E3025EA6EEFCF2FF3FA
:100A30002FAF02D0000E01D0010E016E0001000C9C
:100A400029C32EF3DBDF015264E003012951080DB5
:100A5000F3502F6B2E6F040E2E27000E2F23010E46
:100A60002E25016E000E2F21036E01C0E9FF040E3A
:100A70000324EA6E2AC3EFFF2C51020817E1295123
:100A8000080DF3502F6B2E6F040E2E27000E2F2310
:100A90002EC3E9FF040E2F25EA6EEFCF2DF32DAD07
:100AA00002D02C6B02D0010E2C6F13D02C510408F5
:100AB00010E12951080DF3502F6BE96E040E2F251C
:100AC000EA6EEFCF2DF32DAD03D0010E2C6F01D0C8
:100AD0002C6B2C2D03D0C80E2D6F02D0880E2D6FDD
:100AE0002BB12D812BB32D832951080DF3502F6B82
:100AF0002E6F040E2E27000E2F232EC3E9FF040EA7
:100B00002F25EA6E2DC3EFFF010E016E05D000D038
:100B10000001000E016E03010001000C03012953C6
:100B200000E10001000C2AC36EFF03012A5303E019
:100B3000040E1C6E02D0020E1C6E0001A5EF05F023
:100B4000186A176A1EC02AF3EED7B5EF05F0030145
:100B500029530CE1172C04D0000104DC06D003015A
:100B60001750020803E10001EBD703010001000C5C
:100B70001B300301276F273327331F0E27171B5204
:100B80004FE1040100513C0B0301286F430E0401A7
:100B9000001703012851340825E104010451800B9A
:100BA00001E0046B0001AFD66D981D3C07D0030136
:100BB000296B030E2A6F0001BCDE12D00301296BE2
:100BC000020E2A6F0001B5DE1D50FE0809E0030188
:100BD000296B2B6B1DC02AF3040E2C6F000130DF34
:100BE0001DD00301285104081AE1296B000196DF8A
:100BF0000301296B020E2A6F00019BDE1D50FE08C7
:100C00000CE01D3C01D009D00301296B2B6B1DC0EA
:100C10002AF3010E2C6F000113DF00D0030162D014
:100C20001B50040818E1430E04010417FF0E1D6E4B
:100C30000301296B00018BDF1D3C01D00AD00301A9
:100C4000296B2B6B1DC02AF3020E2C6F0001F8DEFE
:100C500000D047D003011BB41DD02751080DF3501D
:100C60002A6B016E040E2A25036E2751080DF350DE
:100C70002C6BE96E040E2C25EA6EEF50430B03C07B
:100C8000EAFF01C0E9FFEF6E27C329F3000146DF49
:100C900028D003012751080DF3502A6B296F040E49
:100CA0002927000E2A2329C301F0040E2A25036EEA
:100CB0002751080DF3502C6B2B6F040E2B27000EC1
:100CC0002C232BC3E9FF040E2C25EA6EEF50430BB7
:100CD00003C0EAFF29C3E9FFEF6E27C329F3000130
:100CE00036DF03010001AEEF06F0A19A1C5201E1CC
:100CF0003ED068523CE068A404D069A402D0EDEF75
:100D000000F06DA201D033D068AA04D069AA02D045
:100D100005EF01F068A204D069A202D00CEF01F047
:100D200068A004D069A002D08FEF01F068A804D0B9
:100D300069A802D0A4EF01F068AC04D069AC02D07D
:100D4000A9EF01F00301266B68A60AD069A608D0B6
:100D50006CCF1BF0000102EC00F00AD702D00301B7
:100D600005D003012651262B0308EEE200013CEFDB
:100D700000F0C95028C3C9FFC6889E96C7B0FED7E9
:100D8000016AC6B8012AE0EF06F0C7BA04D0030131
:100D90000C6BC7B40C8F03010C510C2B0201D56FE7
:100DA000D55180080FE1036AD651E70FE96E020EB4
:100DB0000320EA6EEFCF27F327C328F30001D9D72A
:100DC0001BD00201C69C9EA6FED7C950C68803014F
:100DD000266F0201D52D03D026C3D6F20CD0D551F3
:100DE000020809E1036AD651F80FE96E020E0320EA
:100DF000EA6E26C3EFFF00019E963CEF00F0030170
:100E000026512803F3CF01F0F4CF00F02903F3506B
:100E1000002627512803F3500020026E0001000C29
:100E2000D76AD66A02012C2BD8B42D2B0F51020899
:100E300038E11E51010835E28A9893988A96939674
:100E40008B9094908B9294922B5329E12A51050810
:100E500026E3270E0301276F060E266F2BC229F308
:100E60002AC228F30001CBDF02C003F001500201C7
:100E70002D51025C07E303E12C51015C03E38A84FA
:100E8000939402D08A9493942D51E90807E2FF0AC3
:100E900003E12C515F0802E22D6B2C6B02D08A8497
:100EA0009394F29400013CEF00F0150ECF6EA00E6B
:100EB000CE6E0201222BD8B4232B242BD8B4252BA1
:100EC000262BD8B4272B02AF03D0322BD8B4332B28
:100ED000255303E12451630803E2256B246B348717
:100EE000235303E12251C7080FE2236B226B3485A1
:100EF0000B2B1051000808E22E2BD8B42F2B02B96F
:100F000003D0302BD8B4312B9E9000013CEF00F081
:100F10006D6A696A080E6F6E945030090301946E11
:100F20001C6A166AF2BE168EF29E00017BEC01F07E
:100F300016BEF28E9DEF07F0EBD7C2EF07F0166AF0
:100F4000F2BE168EF29E7BEC01F016BEF28E6D6A3A
:100F5000140E6F6E696A6D86010E1C6EB3EF07F09A
:100F60006DB601D0ECD71C2C0BD06DBA09D0686AD5
:100F7000696AA08AC00EF212110E696E020E1C6E12
:100F8000000CDAD7EDDF1C500208FCE1BBEF13F0D8
:100F9000030EEA6E130EE96EEF500EE00F0E016EB7
:100FA000006A002EFED7012EFBD78F0E006E002E9A
:100FB000FED70000EF2EF2D7000C8E0E006E14C389
:100FC00001F013C302F0036A015209E102C001F00B
:100FD000026A080E005E015202E1006A08D0D89051
:100FE00001BE04D0023601360006F9D7019E000C7E
:100FF00003010E35006E0036FC0E001600C001F035
:10100000C250C30B0010C26E010E136F0001C0DF8F
:10101000C282C2B2FED7C4CF14F3C3CF13F3000110
:10102000CCDF03C012F302C011F301C010F300C003
:101030000FF30FC300F010C301F011C302F012C38D
:1010400003F0000C03011251D8B4A5D01E6F165145
:10105000D8B4A1D01E5F05E37F0E1E27D8B09BD069
:1010600006D0810E1E5FD8A096D0D8B494D01EC3EF
:1010700000F0016A026A036A1D6B13C31CF31C8F24
:1010800014C31BF315C31AF3190E1E6F19511A5FFF
:101090000DE2010E1B5F0AE21C5F08E21D5F06E223
:1010A0001D2B1C2B1B2B19511A2728D018511B5FE5
:1010B00012E2010E1C5F0FE21D5F0DE21D2B1C2BC7
:1010C00018511B2719511A2719E31B2B17E11C2B49
:1010D00015E11D2B13D0175180091C5F0EE2010E84
:1010E0001D5F0BE21D2B175180091C2718511B2770
:1010F000E9E31C2BE7E11D2BE5D703801E2F01D070
:101100000BD0D8901A371B371C371D37D8900336B1
:10111000023601361F37BAD71FA106D0D890013248
:10112000023203321F3302D0000635E01FBF1ED04B
:10113000D8901A371B371C371D3719511A5F07E231
:10114000010E1B5F04E21C5F02E21D5F1AE31851EF
:101150001B5F05E2010E1C5F02E21D5F12E31751E7
:1011600080091C5F03E2010E1D5F0BE3032A09E106
:10117000022A07E1012A05E1002A0DE001320232CC
:10118000033213C31EF317511E1B1EAF02D0018E74
:1011900006D0019E04D0006A016A026A036A000157
:1011A000000C800ED8A202D003011B1B0301206B90
:1011B000216B17C31FF31B511F1B1651D8B4DFD06F
:1011C0001E6F006E1A51D8B4E3D01E5FD8B483D01E
:1011D0003EE31BC324F3248F1CC323F31DC322F35C
:1011E000216BD89024332333223321331E2FF8D799
:1011F0001FAF03D02081E0D020911E912089030EE3
:10120000EA6E190EE96EEBD020991FBF0AD01EA11D
:1012100013D02433233322332133002AD8B4C7D048
:101220000BD024BF0CD0D890213722372337243756
:101230000006D8B4BCD0F5D7208D6DD0209D17C343
:101240001FF317AF02D0248FABD0249FA9D01AC3AD
:101250001EF31AC300F016511E5F17C324F3248F28
:1012600018C323F319C322F3216BD89024332333FB
:10127000223321331E2FF8D71FAF03D020839CD0F9
:1012800020931E91208B030EEA6E1D0EE96EA7D0EF
:10129000209B1FBF0AD01EA113D024332333223337
:1012A0002133002AD8B483D00BD024BF0CD0D890DF
:1012B00021372237233724370006D8B478D0F5D722
:1012C000208F29D0209F1BC31FF31BAF02D0248F78
:1012D00067D0249F65D01BC324F3248F1CC323F342
:1012E0001DC322F31FAF04D0249F208565D0209515
:1012F000216B1E91030EEA6E190EE96E70D01FBFAE
:101300001CD017C31FF31EA106D02433233322336E
:101310002133002A4CE021AF0BD0222B09E1232BF3
:1013200007E1242B05E1243323332233002A3FE055
:1013300020BD84D720BFC6D71CD0800E241B24AF6D
:1013400004D03AD01BC31FF30AD017C31FF3245392
:1013500006E1235304E1225302E1006A21D024BFB5
:1013600008D0D8902137223723372437002EF7D7DB
:101370001ED01FAF02D0248F13D0249F11D01AC3C8
:1013800000F01BC324F31CC323F31DC322F308D0B6
:1013900016C300F017C324F318C323F319C322F3B1
:1013A00024C301F023C302F022C303F034D0006A47
:1013B000016A026A036A2FD0216B221F231F241F98
:1013C000211F212B05E1222B03E1232B01E1242BFB
:1013D00020B112D720B354D720B589D7B3D7EF5057
:1013E000222705E3232B03E1242BD8B41E81ED52E1
:1013F000EF50232703E3242BD8B41E81ED52EF5086
:10140000EFBE01D0800A2427D8B01E8120B9FCD6B7
:1014100020BB3ED774D70001000C02012051040DFF
:10142000F350036AF20FE96E010E0320EA6E6DC2FB
:10143000EFFF6EC2ECFF6FC2ECFF70C2ECFF202B1F
:10144000205101081DE2206BD882F9C119F3F8C1BF
:1014500018F3F7C117F3F6C116F3F5C11DF3F4C184
:101460001CF3F3C11BF3F2C11AF300019ADE03C0AF
:1014700001F202C000F201C0FFF100C0FEF1020162
:101480000001F9EF0AF002016C6B6B6B6A6B696B20
:1014900003010E6B0001ACDD03C054F202C053F235
:1014A00001C052F200C051F254C215F353C214F3FA
:1014B00052C213F351C212F3A40E0301196F700E3E
:1014C000186F250E176F840E166F0001BBDD03C069
:1014D00054F202C053F201C052F200C051F20301B3
:1014E000146B49C213F3000168DDD89258C219F396
:1014F00057C218F356C217F355C216F303C01DF3B3
:1015000002C01CF301C01BF300C01AF34ADE00C086
:101510000EF301C00FF302C010F303C011F3030177
:10152000156BC00E146F7F0E136F880E126F54C2AE
:1015300019F353C218F352C217F351C216F3000144
:1015400081DD00C012F301C013F302C014F303C025
:1015500015F3D88203C019F302C018F301C017F3C2
:1015600000C016F303011D6B1C6B1B6B7F0E1A6F03
:10157000000117DE11C315F310C314F30FC313F3E7
:101580000EC312F303C019F302C018F301C017F31E
:1015900000C016F357DD03C05CF202C05BF201C06D
:1015A0005AF200C059F2D8825CC219F35BC218F338
:1015B0005AC217F359C216F39A0E03011D6F990E02
:1015C0001C6F190E1B6F7D0E1A6F0001EADD03C040
:1015D0005CF202C05BF201C05AF200C059F2010E87
:1015E00003010D5D0201465D05E004E3466B000169
:1015F00014D70201166AF2BE168EF29E0301276B03
:1016000046C226F3296B040E286F0001FFEC06F09A
:1016100016BEF28E0150620FE96E000E0220EA6ED5
:1016200059C2EFFF5AC2ECFF5BC2ECFF5CC2ECFF99
:101630000201462B456B03010D510201455D45E258
:10164000166AF2BE168EF29E0301276B45C226F380
:10165000296B040E286F0001FFEC06F016BEF28E17
:1016600002C003F00150620FE96E000E0220EA6E24
:10167000EFCF00F0ECCF01F0ECCF02F0ECCF03F0B5
:10168000EACF0FF3E9CF0EF3D8926CC219F36BC215
:1016900018F36AC217F369C216F303C01DF302C040
:1016A0001CF301C01BF300C01AF37BDD0FC3EAFF7C
:1016B0000EC3E9FF03C06CF202C06BF201C06AF214
:1016C00000C069F20201452BB6D70301146B0DC3AC
:1016D00013F3000172DC6CC215F36BC214F36AC21F
:1016E00013F369C212F303C019F302C018F301C067
:1016F00017F300C016F3A6DC03C06CF202C06BF255
:1017000001C06AF200C069F2D8826CC219F36BC2E0
:1017100018F36AC217F369C216F303011D6B1C6B41
:10172000480E1B6F850E1A6F00013BDD00C00EF3E3
:1017300001C00FF302C010F303C011F303C015F38F
:1017400002C014F301C013F300C012F3B80E03017A
:10175000196F1E0E186F450E176F7D0E166F000164
:1017600071DC03C070F202C06FF201C06EF200C003
:101770006DF20301146B47C213F300011EDC00C0BD
:101780000EF301C00FF302C010F303C011F3030105
:10179000146B48C213F3000110DCD88211C319F393
:1017A00010C318F30FC317F30EC316F303C01DF3D2
:1017B00002C01CF301C01BF300C01AF3F2DCD89284
:1017C00070C219F36FC218F36EC217F36DC216F32D
:1017D00003C01DF302C01CF301C01BF300C01AF3C9
:1017E000E0DC03C070F202C06FF201C06EF200C014
:1017F0006DF26DC200F06EC201F06FC202F070C2F5
:1018000003F0000C03011151D8B471D0006E1551D2
:10181000D8B46DD0002604E3810E002668E204D01F
:101820007F0E005E64E363E012C319F31651191BC7
:10183000128F168F14511803F4CF1BF31351170393
:10184000F4CF03F0F3CF1AF31803F3501B27F4502F
:101850001A23000E032214511703F3501B27F450D0
:101860001A23000E026A0322022212511803F350B7
:101870001A27F4500322000E022212511703F350CC
:101880000326F4500222000E016A012214511603AD
:10189000F3501A27F4500322000E022201221351A2
:1018A0001603F3500326F4500222000E01221251B7
:1018B0001603F3500226F4500122002A01BE05D07F
:1018C0001A370336023601360006000E1AAF0AD068
:1018D000032A02220122015005E1025003E10350D4
:1018E00001E1002A19BF018E19AF019E04D0006AE0
:1018F000016A026A036A0001000C0FC316F30301B8
:101900001351161B16AF05D0D894D8900FBFD880AE
:101910002FD00FC316F312C317F30E51175F06E053
:1019200016AF26D0D850010AD86E22D013C317F3B1
:101930000F51175F06E016AF1BD0D850010AD86EC2
:1019400017D014C317F31051175F06E016AF10D06D
:10195000D850010AD86E0CD015C317F31151175F78
:1019600006E016AF05D0D850010AD86E01D0D89045
:101970000001000C0101FD6BFC6BFB6BFA6B010EAF
:1019800003010E6F0001F8EC07F003C090F202C0F3
:101990008FF201C08EF200C08DF290C214F38FC29C
:1019A00013F38EC212F38DC211F30A0E0301186FE6
:1019B000280E176F200E166F770E156F000122DFAD
:1019C00003C090F202C08FF201C08EF200C08DF20F
:1019D000D88290C219F38FC218F38EC217F38DC24A
:1019E00016F3CD0E03011D6FCC0E1C6F4C0E1B6F3A
:1019F0007C0E1A6F0001D1EC08F000C00EF301C09C
:101A00000FF302C010F303C011F303C015F302C0BB
:101A100014F301C013F300C012F3B4C219F3B3C23C
:101A200018F3B2C217F3B1C216F322EC08F003C0E8
:101A300094F202C093F201C092F200C091F294C2FB
:101A400011F393C210F392C20FF391C20EF303018C
:101A5000156B146B136B126B00014FDF05E3020172
:101A6000946B936B926B916B010E03010D5D020100
:101A7000095D02E001E3096B0951040DF350036AAB
:101A8000A20FE96E010E0320EA6E91C2EFFF92C22F
:101A9000ECFF93C2ECFF94C2ECFF092B0A6B010E22
:101AA00003010D5D02010A5D01E038E20A51040DF7
:101AB000F350036AA20FE96E010E0320EA6EEFCF26
:101AC00000F0ECCF01F0ECCF02F0ECCF03F0EACF66
:101AD0000FF3E9CF0EF3D892FDC119F3FCC118F34F
:101AE000FBC117F3FAC116F303C01DF302C01CF3C8
:101AF00001C01BF300C01AF30001D1EC08F00FC3C2
:101B0000EAFF0EC3E9FF03C0FDF102C0FCF101C012
:101B1000FBF100C0FAF102010A2BC1D70301146BDB
:101B20000DC313F30001DDEC07F0FDC115F3FCC19B
:101B300014F3FBC113F3FAC112F303C019F302C08B
:101B400018F301C017F300C016F322EC08F003C02D
:101B5000FDF102C0FCF101C0FBF100C0FAF1FAC1D5
:101B600000F0FBC101F0FCC102F0FDC103F0000C6C
:101B70008E0E006E03010D51005E0EC302F00FC306
:101B800001F0028E005209E0D890025202E10152A7
:101B900004E002320132002EF7D70EAF05D0011E4D
:101BA000021E012AD8B4022A0001000CF8C20EF26B
:101BB000F9C20FF2FAC210F2FBC211F2FCC212F229
:101BC000FDC213F2FEC214F2FFC215F200C316F2F8
:101BD0000301146B01C313F30001DDEC07F003C034
:101BE000A4F202C0A3F201C0A2F200C0A1F202C39B
:101BF00021F202012B6B04C32AF20001000C1AC26D
:101C0000E7F21BC2E8F21CC2E9F20201EA6B02B57C
:101C1000EA2B1EC2EBF2A8C210F3A7C20FF3A6C2B2
:101C20000EF3A5C20DF30001A3DF01C0ECF217C251
:101C3000EDF218C2EEF221C2EFF284C210F383C2B9
:101C40000FF382C20EF381C20DF392DF01C0F0F2F6
:101C5000000C1850016ECEEF14F0036A03010D5111
:101C6000700FE96E0F0E0320EA6EEF520DE00D517A
:101C7000080DF3500F6B0E6FE96E040E0F25EA6E20
:101C8000EFCF0EF30EAF02D0000E01D0010E016EA9
:101C90000001D7EF14F003011251080DF3501D6B32
:101CA0001C6F020E1C25016E000E1D21036E01C06B
:101CB000E9FF040E0324EA6EECCF03F0ED52EFCF00
:101CC00017F303C018F31251080DF3501D6B1C6F6E
:101CD000010E1C25016E000E1D21036E01C0E9FFDF
:101CE000040E0324EA6EEF50036A1A6F03C01BF35D
:101CF0001251080DF3501D6BE96E040E1D25EA6E9E
:101D0000EFCF19F319B11B8119B31B831B51165D5A
:101D100008E303E115511A5D04E21BC316F31AC36D
:101D200015F314C3EAFF13C3E9FF18C3E2FF17C397
:101D3000E1FF16C302F015C301F0015202E0022ACE
:101D400002D0025206E0E6CFEEFF012EFCD7022EB3
:101D5000FAD715C301F016C302F00001BBEF0EF075
:101D60000DC312F30FC314F30EC313F311C316F311
:101D700010C315F390D702C011F301C010F3166A17
:101D8000F2BE168EF29E0DC329F3020E03012A6FD6
:101D9000000199EC04F016BEF28E030110C301F0AD
:101DA00011C302F00001E6EF14F0166AF2BE168EBF
:101DB000F29E0DC32EF3FEEC04F016BEF28E01521D
:101DC00048E003010D51080DF350166B156F040E1A
:101DD0001527000E1623020E1525016E000E162182
:101DE000036E01C0E9FF040E0324EA6EECCF03F09A
:101DF000ED52EFCF13F303C014F314C3EAFF13C380
:101E0000E9FF0FC3E2FF0EC3E1FF11C302F010C3ED
:101E100001F0015202E0022A02D0025206E0E6CFAF
:101E2000EEFF012EFCD7022EFAD7166AF2BE168EEE
:101E3000F29E0DC329F311C32BF310C32AF312C36F
:101E40002CF3000120EC05F016BEF28E015003D0F9
:101E500000D0000E016E6FEF18F0D89280C219F317
:101E60007FC218F37EC217F37DC216F3A4C21DF31E
:101E7000A3C21CF3A2C21BF3A1C21AF3D1EC08F057
:101E800000C00DF301C00EF302C00FF303C010F346
:101E9000D88203C019F302C018F301C017F300C0C1
:101EA00016F3A8C21DF3A7C21CF3A6C21BF3A5C25A
:101EB0001AF3D1EC08F003C068F202C067F201C067
:101EC00066F200C065F2660E0301116F106F0F6FAE
:101ED0007E0E0E6F68C215F367C214F366C213F369
:101EE00065C212F3000109DD57E368C211F367C24E
:101EF00010F366C20FF365C20EF30301156B146B8A
:101F0000700E136F820E126F0001F7DC45E301C201
:101F100011F300C210F3FFC10FF3FEC10EF39A0ECE
:101F20000301156F990E146F190E136F7D0E126F4A
:101F30000001E3DC31E364C211F363C210F362C257
:101F40000FF361C20EF30301156B146B100E136FC8
:101F5000820E126F0001D1DC1FE302010B51130846
:101F60001CE20B6BD89278C219F377C218F376C2D1
:101F700017F375C216F303011D6B1C6B1B6B800EF0
:101F80001A6F0001D1EC08F003C078F202C077F2BA
:101F900001C076F200C075F2020168C211F367C297
:101FA00010F366C20FF365C20EF39A0E0301156FAC
:101FB000990E146F136F7D0E126F00019EDC08E303
:101FC0007CC278F27BC277F27AC276F279C275F27D
:101FD00078C211F377C210F376C20FF375C20EF315
:101FE0000301156B146B136B7F0E126F000185DC00
:101FF00006E30201786B776B766B7F0E756F68C2B4
:1020000011F367C210F366C20FF365C20EF303014A
:10201000156B146B136B126B00016FDC06E302018E
:10202000686B676B666B656B000168C214F367C20F
:1020300013F366C212F365C211F378C218F377C2C4
:1020400017F376C216F375C215F302EC0CF003C059
:1020500074F202C073F201C072F200C071F2A4C245
:1020600011F3A3C210F3A2C20FF3A1C20EF374C204
:1020700015F373C214F372C213F371C212F33DDC91
:1020800008E3A4C274F2A3C273F2A2C272F2A1C2A4
:1020900071F274C211F373C210F372C20FF371C202
:1020A0000EF30301156B146B136B126B000125DC2F
:1020B00006E30201746B736B726B716B000174C287
:1020C00015F373C214F372C213F371C212F3A4C2F4
:1020D00019F3A3C218F3A2C217F3A1C216F322EC9C
:1020E00008F000C00DF301C00EF302C00FF303C0EF
:1020F00010F303C014F302C013F301C012F300C0C5
:1021000011F360C218F35FC217F35EC216F35DC22B
:1021100015F302EC0CF003C064F202C063F201C0DC
:1021200062F200C061F264C215F363C214F362C2CA
:1021300013F361C212F30A0E0301196FD70E186F61
:10214000230E176F770E166F000122EC08F003C004
:1021500010F302C00FF301C00EF300C00DF308DD51
:1021600002C003F0015002012751025C09E303E1C0
:102170002651015C05E38B8094908B82949204D06D
:102180008B9094908B92949260C215F35FC214F37B
:102190005EC213F35DC212F30A0E0301196FD70E6C
:1021A000186F230E176F770E166F000122EC08F0E0
:1021B00003C010F302C00FF301C00EF300C00DF313
:1021C000D7DC0250036E0201275D06E303E10150F4
:1021D000265D02E3276B266B00017AEF19F0F86A9F
:1021E000D09E078EEA6AE96A93829380A00EC86E39
:1021F000360EC66E1C6A206A0101FD6BFC6BFB6B20
:10220000FA6B0201016B006B0101FF6BFE6B0201B7
:1022100002910293029502970299029B029D029FEE
:102220000391010E046F056B066B076B086B096B5E
:102230000A6B0B6B0C6B0D6B0E6B0F6B106B116BDA
:10224000126B136B146B156B166B176B186B196B8A
:102250001A6B1B6B1C6B1D6B1E6B1F6B206B216B3A
:10226000236B226B256B246B276B266B296B0F0E60
:10227000286F2B6B2A6B2D6B2C6B2F6B2E6B316B9E
:10228000306B336B326B0393039503970399039B76
:10229000039D039F34913493349534973499349B40
:1022A000349D456B466B476B486B496B4A6B4B6B78
:1022B0004C6B4D6B4E6B4F6B020E506F546B536BF0
:1022C000526B516B586B100E576F420E566F8B0E40
:1022D000556F606B5F6B200E5E6F820E5D6F646B7F
:1022E000636B626B616B686B676B666B656B6C6B6A
:1022F0006B6B6A6B696B706B6F6B6E6B6D6B746B1A
:10230000736B726B716B786B776B480E766F830EA5
:10231000756F7C6B7B6B200E7A6F830E796F806B91
:102320007F6B7E6B7D6B846B836B826B816B886B49
:10233000876B866B856B8C6B8B6B8A6B896B906BF9
:102340008F6B8E6B8D6B946B936B926B916B986BA9
:10235000976B966B956B9C6B9B6B9A6B996BA06B59
:102360009F6B9E6B9D6BA46BA36BA26BA16BA86B09
:10237000A76BA66BA56BAC6BAB6BAA6BA96BB06BB9
:10238000AF6BAE6BAD6B5C0EB46FAA0EB36F520E3B
:10239000B26F770EB16F030109910A6B0B6BC150DD
:1023A000C00B0F09C16E070EB46E0001626B636B48
:1023B000646B656B666B676B686B696B6A6B6B6B89
:1023C0006C6B6D6B6E6B6F6B706B716B726B736B39
:1023D000746B756B766B776B786B796B7A6B7B6BE9
:1023E0007C6B7D6B7E6B7F6B806B816B826B836B99
:1023F000846B856B866B876B886B896B8A6B8B6B49
:102400008C6B8D6B8E6B8F6B906B916B926B936BF8
:10241000946B956B966B976B986B996B9A6B9B6BA8
:102420009C6B9D6B9E6B9F6BA06BA16BA26BA36B58
:10243000A46BA56BA66BA76BA86BA96BAA6BAB6B08
:10244000AC6BAD6BAE6BAF6BB06BB16BB26BB36BB8
:10245000B46BB56BB66BB76BB86BB96BBA6BBB6B68
:10246000BC6BBD6BBE6BBF6BC06BC16BC26BC36B18
:10247000C46BC56BC66BC76BC86BC96BCA6BCB6BC8
:10248000CC6BCD6BCE6BCF6BD06BD16BD26BD36B78
:10249000D46BD56BD66BD76BD86BD96BDA6BDB6B28
:1024A000DC6BDD6BDE6BDF6BE06BE16BE26BE36BD8
:1024B000E46BE56BE66BE76BE86BE96BEA6BEB6B88
:1024C000EC6BED6BEE6BEF6BF06BF16BF26BF36B38
:1024D000F46BF56BF66BF76BF86BF96BFA6BFB6BE8
:1024E000FC6BFD6BFE6BFF6B0101006B016B026B04
:1024F000036B046B056B066B076B086B096B0A6B50
:102500000B6B0C6B0D6B0E6B0F6B106B116B126BFF
:10251000136B146B156B166B176B186B196B1A6BAF
:102520001B6B1C6B1D6B1E6B1F6B206B216B226B5F
:10253000236B246B256B266B276B286B296B2A6B0F
:102540002B6B2C6B2D6B2E6B2F6B306B316B326BBF
:10255000336B346B356B366B376B386B396B3A6B6F
:102560003B6B3C6B3D6B3E6B3F6B406B416B426B1F
:10257000436B446B456B466B476B486B496B4A6BCF
:102580004B6B4C6B4D6B4E6B4F6B506B516B526B7F
:10259000536B546B556B566B576B586B596B5A6B2F
:1025A0005B6B5C6B5D6B5E6B5F6B606B616B626BDF
:1025B000636B646B656B666B676B686B696B6A6B8F
:1025C0006B6B6C6B6D6B6E6B6F6B706B716B726B3F
:1025D000736B746B756B766B776B786B796B7A6BEF
:1025E0007B6B7C6B7D6B7E6B7F6B806B816B826B9F
:1025F000836B846B856B866B876B886B896B8A6B4F
:102600008B6B8C6B8D6B8E6B8F6B906B916B926BFE
:10261000936B946B956B966B976B986B996B9A6BAE
:102620009B6B9C6B9D6B9E6B9F6BA06BA16BA26B5E
:10263000A36BA46BA56BA66BA76BA86BA96BAA6B0E
:10264000AB6BAC6BAD6BAE6BAF6BB06BB16BB26BBE
:10265000B36BB46BB56BB66BB76BB86BB96BBA6B6E
:10266000BB6BBC6BBD6BBE6BBF6BC06BC16BC26B1E
:10267000C36BC46BC56BC66BC76BC86BC96BCA6BCE
:10268000CB6BCC6BCD6BCE6BCF6BD06BD16BD26B7E
:10269000D36BD46BD56BD66BD76BD86BD96BDA6B2E
:1026A000DB6BDC6BDD6BDE6BDF6BE06BE16BE26BDE
:1026B000E36BE46BE56BE66BE76BE86BE96BEA6B8E
:1026C000EB6BEC6BED6BEE6BEF6BF06BF16BF26B3E
:1026D000F36BF46BF56BF66BF76BF86BF96B020150
:1026E000356B366B376B386B396B3A6B3B6B3C6BCE
:1026F0003D6B3E6B3F6B406B416B426B436B446B7E
:10270000D26BD36BD46B030E03010C6F0201D56B3C
:10271000D66BD6510F081AE3036AD651D70FE96E6C
:10272000020E0320EA6EEF6A036AD651E70FE96EE4
:10273000020E0320EA6EEF6A036AD651F80FE96EC3
:10274000020E0320EA6EEF6AD62BE3D79D86C80EF1
:10275000D56EF28A850ECD6E9D80C150C00B0D09DD
:10276000C16EC090C082C084C08EC280C00EF21202
:102770000001C1EF07F0B0EC07F050C20DF343ECDD
:102780000AF003C0A8F202C0A7F201C0A6F200C07E
:10279000A5F2050E03010D6F0001BAEC0CF003C0A9
:1027A000B0F202C0AFF201C0AEF200C0ADF2958847
:1027B00002011A6B83B81A2B958A1B6B83BA1B2BE9
:1027C00095801C6B83B01C2B95841D6B83B41D2BD3
:1027D000B0C210F3AFC20FF3AEC20EF3ADC20DF331
:1027E0000001B8EC0DF001C01EF2D6EC0DF0FFECCC
:1027F0000DF0F2CF0DF3F29E0A0EA96EA69CA69ED6
:10280000A680A85003010DBFF28E146B136F000158
:10281000DDEC07F003C078F202C077F201C076F277
:1028200000C075F2F2CF0DF3F29E0B0EA96EA69CBE
:10283000A69EA680A85003010DBFF28E146B136FE5
:102840000001DDEC07F003C080F202C07FF201C09E
:102850007EF200C07DF2F2CF0DF3F29E0C0EA96E57
:10286000A69CA69EA680A85003010DBFF28E146BF5
:10287000136F0001DDEC07F003C060F202C05FF2ED
:1028800001C05EF200C05DF2F2CF0DF3F29E0D0EBC
:10289000A96EA69CA69EA680A85003010DBFF28E2D
:1028A0000201476FF2CF0DF3F29E0E0EA96EA69CA9
:1028B000A69EA680A85003010DBFF28E0201486FAC
:1028C000F2CF0DF3F29E0F0EA96EA69CA69EA680D7
:1028D000A85003010DBFF28E146B136F0001DDECE5
:1028E00007F003C07CF202C07BF201C07AF200C0A4
:1028F00079F2F2CF0DF3F29E140EA96EA69CA69E5D
:10290000A680A85003010DBFF28E0201506F8A9875
:1029100093988A9693968A9493948B9094901A6B3A
:102920001B6B1C6B1D6B1E6B1F6B4C6B0D6B0D5172
:102930004F0810E350C20DF3000143EC0AF003C04E
:10294000A8F202C0A7F201C0A6F200C0A5F20201DF
:102950000D2BEDD78A989398958A83AA02D034AB31
:102960000CD002818A8493948A9893988B90949047
:102970008B9294920F6BF29A0ED002A10CD0060E9D
:1029800003010D6FFA0E136F0001C8EC07F003018D
:102990000D2FF8D70201000129EF0EF00152D8B433
:1029A0009ED3010E03010D6F00012DEF0EF00152B9
:1029B000D8B42BD1010E03010D6F0F6B420E0E6FB9
:1029C000116B200E106F0001B0EF0EF0422C44D0BE
:1029D0000301146B43C013F30001DDEC07F003C0E7
:1029E00078F202C077F201C076F200C075F20301FE
:1029F000146B44C013F30001DDEC07F003C080F258
:102A000002C07FF201C07EF200C07DF20301146BB0
:102A100045C013F30001DDEC07F003C060F202C013
:102A20005FF201C05EF200C05DF247C050F20301E8
:102A3000146B48C013F30001DDEC07F003C07CF217
:102A400002C07BF201C07AF200C079F249C047F2BD
:102A50004CC048F24DC049F24E2CC4D078C210F39D
:102A600077C20FF376C20EF375C20DF3B8EC0DF01A
:102A700001C00DF30A0EA96E0DC3A8FFA69CA69E69
:102A8000A684F250006EF29E0F01550EA76EAA0E9C
:102A9000A76EA682A6B2FED7A6940050F21280C2FC
:102AA00010F37FC20FF37EC20EF37DC20DF300015F
:102AB000B8EC0DF001C00DF30B0EA96E0DC3A8FF0D
:102AC000A69CA69EA684F250006EF29E0F01550EA3
:102AD000A76EAA0EA76EA682A6B2FED7A694005035
:102AE000F21260C210F35FC20FF35EC20EF35DC25A
:102AF0000DF30001B8EC0DF001C00DF30C0EA96E42
:102B00000DC3A8FFA69CA69EA684F250006EF29E5E
:102B10000F01550EA76EAA0EA76EA682A6B2FED70B
:102B2000A6940050F212140EA96E50C2A8FFA69CE3
:102B3000A69EA684F250006EF29E550EA76EAA0EB7
:102B4000A76EA682A6B2FED7A6940050F2120D0E72
:102B5000A96E47C2A8FFA69CA69EA684F250006E4E
:102B6000F29E550EA76EAA0EA76EA682A6B2FED73B
:102B7000A6940050F2120E0EA96E48C2A8FFA69CA1
:102B8000A69EA684F250006EF29E550EA76EAA0E67
:102B9000A76EA682A6B2FED7A6940050F2127CC2FF
:102BA00010F37BC20FF37AC20EF379C20DF300016A
:102BB000B8EC0DF001C00DF30F0EA96E0DC3A8FF08
:102BC000A69CA69EA684F250006EF29E0F01550EA2
:102BD000A76EAA0EA76EA682A6B2FED7A694005034
:102BE000F21200014F2C04D00201348B03D00001FB
:102BF0000201349B4A2C02D0028B01D0029B4B2C49
:102C000002D0028D01D0029D0001A8C2ACF2A7C281
:102C1000ABF2A6C2AAF2A5C2A9F2ACC210F3ABC233
:102C20000FF3AAC20EF3A9C20DF3B8EC0DF001C068
:102C300022F0780E236EACC210F3ABC20FF3AAC21F
:102C40000EF3A9C20DF3B8EC0DF00301146B01C033
:102C500013F30001DDEC07F0D882ACC219F3ABC26C
:102C600018F3AAC217F3A9C216F303C01DF302C0DA
:102C70001CF301C01BF300C01AF3D1EC08F003C031
:102C800084F202C083F201C082F200C081F284C2E9
:102C900014F383C213F382C212F381C211F303014E
:102CA000186B176B200E166F820E156F000102EC69
:102CB0000CF003C084F202C083F201C082F200C0B3
:102CC00081F284C210F383C20FF382C20EF381C279
:102CD0000DF3B8EC0DF001C024F05CC210F35BC240
:102CE0000FF35AC20EF359C20DF3B8EC0DF001C048
:102CF00025F0A4C210F3A3C20FF3A2C20EF3A1C227
:102D00000DF3B8EC0DF001C026F0B0C210F3AFC265
:102D10000FF3AEC20EF3ADC20DF3B8EC0DF001C06F
:102D200027F05CC210F35BC20FF35AC20EF359C214
:102D30000DF3B8EC0DF00301146B01C013F30001A7
:102D4000DDEC07F0D8825CC219F35BC218F35AC2FB
:102D500017F359C216F303C01DF302C01CF301C0E0
:102D60001BF300C01AF3D1EC08F003C088F202C0D4
:102D700087F201C086F200C085F288C214F387C2D0
:102D800013F386C212F385C211F30301186B176B9C
:102D9000200E166F820E156F000102EC0CF003C0BE
:102DA00088F202C087F201C086F200C085F288C2B4
:102DB00010F387C20FF386C20EF385C20DF3B8EC91
:102DC0000DF001C028F01DC229F01CC22AF064C217
:102DD00010F363C20FF362C20EF361C20DF3B8ECDD
:102DE0000DF001C02BF064C210F363C20FF362C296
:102DF0000EF361C20DF3B8EC0DF00301146B01C0CA
:102E000013F30001DDEC07F0D88264C219F363C24A
:102E100018F362C217F361C216F303C01DF302C0B8
:102E20001CF301C01BF300C01AF3D1EC08F003C07F
:102E30008CF202C08BF201C08AF200C089F28CC20F
:102E400014F38BC213F38AC212F389C211F3030184
:102E5000186B176B200E166F820E156F000102ECB7
:102E60000CF003C08CF202C08BF201C08AF200C0E9
:102E700089F28CC210F38BC20FF38AC20EF389C29F
:102E80000DF3B8EC0DF001C02CF068C210F367C26E
:102E90000FF366C20EF365C20DF3B8EC0DF001C07E
:102EA0002DF068C210F367C20FF366C20EF365C25D
:102EB0000DF3B8EC0DF00301146B01C013F3000126
:102EC000DDEC07F0D88268C219F367C218F366C256
:102ED00017F365C216F303C01DF302C01CF301C053
:102EE0001BF300C01AF3D1EC08F003C098F202C043
:102EF00097F201C096F200C095F298C214F397C2FF
:102F000013F396C212F395C211F30301186B176BFA
:102F1000200E166F820E156F000102EC0CF003C03C
:102F200098F202C097F201C096F200C095F298C2E2
:102F300010F397C20FF396C20EF395C20DF3B8ECDF
:102F40000DF001C02EF001C210F300C20FF3FFC15B
:102F50000EF3FEC10DF3B8EC0DF001C02FF001C26D
:102F600010F300C20FF3FFC10EF3FEC10DF3B8EC76
:102F70000DF00301146B01C013F30001DDEC07F049
:102F8000D88201C219F300C218F3FFC117F3FEC1C2
:102F900016F303C01DF302C01CF301C01BF300C0F5
:102FA0001AF3D1EC08F003C09CF202C09BF201C0FE
:102FB0009AF200C099F29CC214F39BC213F39AC216
:102FC00012F399C211F30301186B176B200E166FE1
:102FD000820E156F000102EC0CF003C09CF202C0DF
:102FE0009BF201C09AF200C099F29CC210F39BC2FE
:102FF0000FF39AC20EF399C20DF3B8EC0DF001C0B5
:1030000030F078C210F377C20FF376C20EF375C2B8
:103010000DF3B8EC0DF001C031F078C210F377C2B7
:103020000FF376C20EF375C20DF3B8EC0DF0030189
:10303000146B01C013F30001DDEC07F0D88278C2F5
:1030400019F377C218F376C217F375C216F303C0EB
:103050001DF302C01CF301C01BF300C01AF3D1EC36
:1030600008F003C0A0F202C09FF201C09EF200C0AF
:103070009DF2A0C214F39FC213F39EC212F39DC22D
:1030800011F30301186B176B200E166F820E156F6C
:10309000000102EC0CF003C0A0F202C09FF201C0DC
:1030A0009EF200C09DF2A0C210F39FC20FF39EC219
:1030B0000EF39DC20DF3B8EC0DF001C032F01AC250
:1030C00033F0010E03010D6F0F6B220E0E6F116BAB
:1030D000200E106F020E126F0001D5EF0EF00201EC
:1030E00034A785D050C20DF3000143EC0AF003C0B1
:1030F000A8F202C0A7F201C0A6F200C0A5F2A8C2C1
:1031000010F3A7C20FF3A6C20EF3A5C20DF3B8ECDD
:103110000DF00301146B01C013F30001DDEC07F0A7
:10312000D882A8C219F3A7C218F3A6C217F3A5C282
:1031300016F303C01DF302C01CF301C01BF300C053
:103140001AF3D1EC08F003C084F202C083F201C08C
:1031500082F200C081F284C214F383C213F382C2EC
:1031600012F381C211F30301186B176B200E166F57
:10317000820E156F000102EC0CF003C084F202C055
:1031800083F201C082F200C081F2050E03010D6FCF
:103190000001BAEC0CF003C0B0F202C0AFF201C003
:1031A000AEF200C0ADF2958802011A6B83B81A2BFB
:1031B000958A1B6B83BA1B2B95801C6B83B01C2BD1
:1031C00095841D6B83B41D2BB0C210F3AFC20FF3F7
:1031D000AEC20EF3ADC20DF30001B8EC0DF001C0AC
:1031E0001EF2D6EC0DF0FFEC0DF0020134972F51DA
:1031F0001B0827E2FF0A03E12E51200822E24C536C
:1032000020E10301116B106B0F6B800E0E6FB0C2CB
:1032100015F3AFC214F3AEC213F3ADC212F3000143
:103220007DEC0CF002E38A849394010E0201176F87
:103230008A9893988A9693968B9094908B92949276
:10324000E6D00F5336E14C2D34D0A8C211F3A7C2FB
:1032500010F3A6C20FF3A5C20EF30301156B146B96
:10326000480E136F850E126F00017DEC0CF016E214
:103270000301116B106B110E0F6F860E0E6FA8C23B
:1032800015F3A7C214F3A6C213F3A5C212F30001EB
:103290007DEC0CF0D8B002D002010BD0020E02017E
:1032A000176F8A9893988A9693968B9094908B92A6
:1032B0009492315303E130513C080AE2010E186F39
:1032C0008A9893988A9693968B9094908B929492E6
:1032D000162D1FD0958883A81CD0958A83AA19D053
:1032E000185317E1175315E1958C83AC05D00001F5
:1032F0002DEF0FF005D002018B9094908B92949259
:10330000020102AB03D08A84939402D08A949394EE
:1033100005D08B9094908B9294920391105322E05D
:1033200002B520D0958083B00CD0958A83AA09D0AD
:10333000029F336B326B8A8893984C6B029502998B
:1033400011D0335102080DE2FF0A03E132511F0888
:1033500008E28A989398029F0289030E4F6F0285B4
:1033600001D0028FD882A4C219F3A3C218F3A2C25B
:1033700017F3A1C216F303011D6B1C6B1B6B7F0EB1
:103380001A6F0001D1EC08F003C011F302C010F372
:1033900001C00FF300C00EF3A8C215F3A7C214F3C7
:1033A000A6C213F3A5C212F37DEC0CF001E20AE110
:1033B00002014F510308D8B402D0000103D0010E1E
:1033C0004C6F4F6F02010F2D0AD08A8493948A9814
:1033D00093988A9693968B9094908B9294920F5197
:1033E000030815E1958A83AA12D08A9693961E51F6
:1033F000010803E38A94939402D08A8493948B9077
:1034000094908B9294921651030801E1FF00ACEF67
:0434100014F00300B1
:020000040030CA
:0E00000020C23E1E000781000FC00FE00F401F
:00000001FF
;PIC18F4550
;CRC=8A57  CREATED="21-may.-18 12:27"
