:040000003CEF01F0E0
:08000800046ED8CF05F0E0CF33
:1000100006F00001E9CF0CF0EACF07F0E1CF08F0DD
:10002000E2CF09F0D9CF0AF0DACF0BF0F3CF12F01C
:10003000F4CF13F0FACF14F000C00EF001C00FF0AF
:1000400002C010F003C011F09DA02AEF00F09EB096
:1000500051EF00F09DA630EF00F09EB682EF00F069
:100060000EC000F00FC001F010C002F011C003F08C
:100070000CC0E9FF07C0EAFF078E08C0E1FF09C016
:10008000E2FF0AC0D9FF0BC0DAFF12C0F3FF13C0B2
:10009000F4FF14C0FAFF045006C0E0FF05C0D8FF0B
:1000A00010009E0ECF6E580ECE6E842BD8B4852BCA
:1000B000855303E18451C70816E27BA303D07C2B50
:1000C000D8B47D2B7BA703D07E2BD8B47F2B7BA508
:1000D00003D0802BD8B4812B7BA903D0822BD8B43A
:1000E000832B856B846B9E9030EF00F0C9508EC0DF
:1000F000C9FFC6889E96C7B0FED7016AC6B8012A56
:1001000099EF00F0C7BA03D0866BC7B4868F8651CB
:10011000862B166E165080080DE1036A1750380FB3
:10012000E96E000E0320EA6EEFCF8DF08DC08EF0E9
:10013000DDD717D0C69C9EA6FED7C950C6888C6F47
:10014000162C03D08CC017F00CD01650020809E111
:10015000036A1750580FE96E000E0320EA6E8CC038
:10016000EFFF9E9630EF00F059C079F058C078F05C
:10017000000C78C038F079C039F096EF01F0875163
:100180008903F3CF01F0F4CF00F08A03F350002687
:1001900088518903F3500020026E000C7D5303E167
:1001A0007C513C081DE28A9C939C8A9E939E8A9671
:1001B00093968A9493947B937B87886B090E876FC1
:1001C0007DC08AF07CC089F0DADF0250036E7F5D6B
:1001D00006E303E101507E5D02E37D6B7C6B0CD096
:1001E0008A8C939C8A9E939E8A8693968A949394F3
:1001F0007B837B977F6B7E6B9BEF01F0815303E1E9
:1002000080513C081DE28A9C939C8A9E939E8A960C
:1002100093968A9493947B957B89886B090E876F5C
:1002200081C08AF080C089F0AADF0250036E835D2E
:1002300006E303E10150825D02E3816B806B0CD029
:100240008A9C939C8A8E939E8A9693968A84939492
:100250007B857B99836B826BA0EF01F07B99816B2F
:10026000806B836B826B7B95000C7B977D6B7C6BCB
:100270007F6B7E6B7B93000CF86AD09E078EEA6AD8
:10028000E96A93829380C00EC86E360EC66E786B94
:10029000796B7A6B7B917B937B957B977B997D6B5D
:1002A0007C6B7F6B7E6B816B806B836B826B856BF2
:1002B000846BC150C00B0F09C16E070EB46E030EE4
:1002C000866F166A176A17500F081AE3036A1750E9
:1002D000180FE96E000E0320EA6EEF6A036A1750EA
:1002E000380FE96E000E0320EA6EEF6A036A1750BA
:1002F000580FE96E000E0320EA6EEF6A172AE3D763
:1003000033DF850ECD6E9D809D86D180C00EF212AA
:100310008A9C939C8A9E939E8A9693968A949394A1
:100320008A9893988A9A939A1FDF23D70400795169
:100330000A0802E133D74BD07951140802E15ED7A5
:1003400046D079511E080FE18A9C939C8A9E939E09
:100350008A9693968A9493948A9893988A9A939A71
:100360007DDF83DF34D07951280805E18A889398AE
:100370008A9A939A2CD07951320805E18A989398F9
:100380008A8A939A24D079513C0805E18A989398F7
:100390008A9A939A1CD0795146080BE18A9C939CC7
:1003A0008A9E939E8A9693968A94939457DF5DDFF4
:1003B0000ED08A9C939C8A9E939E8A9693968A944A
:1003C00093948A9893988A9A939A48DF4EDFACD791
:0203D000030028
:020000040030CA
:0E0000003FCC1E19000781000FC00FE00F401B
:00000001FF
;PIC18F2550
;CRC=379E  CREATED="12-jun.-20 15:54"
