:1000000045EF12F06896000C046ED8CF05F0E0CFF3
:1000100006F00001E9CF0CF0EACF07F0E1CF08F0DD
:10002000E2CF09F0D9CF0AF0DACF0BF0F3CF12F01C
:10003000F4CF13F0FACF14F000C00EF001C00FF0AF
:1000400002C010F003C011F0F2AA2AEF00F0F2B4DF
:100050000DEF07F09DA030EF00F09EB052EF07F0DB
:100060009DA636EF00F09EB6C5EF06F0A0AA3CEFC5
:1000700000F0A1BA75EF06F00EC000F00FC001F05D
:1000800010C002F011C003F00CC0E9FF07C0EAFF86
:10009000078E08C0E1FF09C0E2FF0AC0D9FF0BC00C
:1000A000DAFF12C0F3FF13C0F4FF14C0FAFF0450CC
:1000B00006C0E0FF05C0D8FF1000F76ACA0FF66E51
:1000C000000EF7220900F55012000002FFFFFFFFAB
:1000D000FFFFFFFFFFFFFFFFFFFF07AE03D0F2CFE1
:1000E0000DF0F29EF76AFC0FF66E000EF722090083
:1000F000F55007AE02D00DBEF28E12004000200077
:1001000000000000000000000000000000000000EF
:10011000000000000000000000000000F76A2C0F43
:10012000F66E010EF7220900F550120009022000B8
:10013000010100C0320904000002FFFFFF000705B3
:10014000810220000107050102200001F76A5C0F0F
:10015000F66E010EF7220900F55012000100F76A51
:100160006E0FF66E010EF7220900F5501200120113
:10017000100100000040D8040B0001000102000142
:10018000F76A900FF66E010EF7220900F550120083
:1001900000041400F76AA40FF66E010EF72209009E
:1001A000F55012000403090410036A0050006900AE
:1001B000630055007300620022034C006500630079
:1001C00074006F007200200046004C0055004A0089
:1001D0004F0020004A0050002E006D92699468A4E0
:1001E00002D06894FCD781EF06F0400E0401016F45
:1001F000040E036F100E026F880E006F046B040E66
:10020000076F500E066F0001000C70A002D0EDDFEA
:100210007090689A8AEF06F06A6A689290EF06F02A
:100220000301629161BF6281619F6151100803E225
:10023000000E016E25D062A112D0036A6151F2CF87
:1002400063F3F29E000139DF030163BFF28EFF0802
:1002500002E1000E01D0010E016E12D011D0036A2E
:100260006151F2CF63F3F29E000127DF030163BF08
:10027000F28EFF0802E1000E01D0010E016E00D0E7
:100280000001000C036A03016051700FE96E0F0E4C
:100290000320EA6EEF6A60C361F30001C1DF01521F
:1002A00019E003016051080DF350626BE96E040E12
:1002B0006225EA6EEF6A6051080DF350626B616F60
:1002C000040E6127000E622361C3E9FF040E62255C
:1002D000EA6EEF6A0001000C010E03015F6F5F51CF
:1002E0000F0807E35FC360F30001CCDF03015F2B5E
:1002F000F6D70001000C0301556B55530AE1036A60
:100300005551210FE96E000E0320EA6EEF6A552B5E
:10031000F4D7186A010E196E176A0001000C6A6A98
:10032000686A9F0E6B6E3D0E696E6E6AD5DFE3DF05
:10033000160E706E68A602D065DEFCD76D9855DF8C
:10034000030E1C6E96EF06F0698468986D829CEF30
:1003500006F0689CA2EF06F05AC31DF0000CFF0ED9
:100360001D6E000C0301586B20523EE058513F08AF
:100370003BE31A50000A000105E0020A0FE0010AFF
:1003800019E024D0036A1F50F2CF5AF3F29EC6DE62
:1003900003015ABFF28E596F000118D0036A1F5033
:1003A000F2CF5AF3F29EF6DE03015ABFF28E596F76
:1003B00000010CD0036A1F50F2CF5AF3F29ECFDE39
:1003C00003015ABFF28E596F000100D01F2A200688
:1003D00003015851582B036A500FE96E040E032095
:1003E000EA6E59C3EFFFC0D7205204E158514008CC
:1003F00001E0176A58C35AF30001AEDF000C1F6A10
:100400001A6A04011351010A000105E0030A08E019
:10041000010A09E023D0120E206E030E1A6E20D0BE
:10042000200E206E1DD0020E1A6E036A04011251B6
:10043000F2CF57F3F29E0001A3DE030157BFF28E05
:100440001F6E036A1F50F2CF57F3F29E0001A2DE27
:10045000030157BFF28E206E000102D080DF0CD066
:100460000401175305E12050165D02E216C420F086
:10047000010E176E000176DF81EF03F00301575381
:1004800006E1040E1C6E000127DFDED00301050E1D
:100490001C6E040E5A6F900E596F010E586F585112
:1004A0000F08D8A0D1D058C360F30001EBDE0301E0
:1004B0005B6B036A5851F2CF5FF3F29E0001FDDDE2
:1004C00003015FBFF28EFF085BE0040E5B6FD89004
:1004D0005835036AF2CF5FF3F29E0001FEDD09009A
:1004E000F5CF03F003015FBFF28E5C6F03C05DF3D5
:1004F0005851080DF350606B5F6F010E5F25016E60
:10050000000E6021036E01C0E9FF040E0324EA6EB1
:100510005CC3EFFF5851080DF350606B5F6F020E24
:100520005F25016E000E6021036E01C0E9FF040E1D
:100530000324EA6E5AC3ECFFED5259C3EFFFD89083
:100540005835036AF2CF5FF3F29E0001C6DD090061
:10055000F5CF03F003015FBFF28E592703505A23F2
:10056000880E5E6F5DB15E815DB35E835851080D8C
:10057000F350606BE96E040E6025EA6E5EC3EFFF18
:10058000036A5851F2CF5FF3F29E000196DD03013A
:100590005FBFF28EFF083BE05B835851080DF350BC
:1005A000606B5F6F040E5F27000E6023020E5F25F5
:1005B000016E000E6021036E01C0E9FF040E0324EA
:1005C000EA6E5AC3ECFFED5259C3EFFFD89058358D
:1005D000036AF2CF5FF3F29E00017FDD0900F5CFE1
:1005E00003F003015FBFF28E592703505A2358517D
:1005F000080DF350606B5F6F040E5F27000E6023E1
:100600005FC3E9FF040E6025EA6E400EEF6E5B519A
:10061000060802E10E0E5B6F036A5851F2CF5FF3DA
:10062000F29E00014ADD03015FBFF28E0108D8A4EB
:100630005B89036A5851700FE96E0F0E0320EA6E52
:100640005BC3EFFF582B2BD7000179EF03F00401B8
:100650001151000A00010DE0010A15E0020A20E034
:10066000060A2AE0030A31E00E0A31E0010A37E007
:1006700046D019C050F40401516B020E03015A6FA9
:1006800000016ADE3ED00401122D07D0010E1916BA
:1006900003015A6B000160DE02D0000160DE31D040
:1006A0000401122D06D0198203015A6B000154DE99
:1006B00002D0000154DE25D0020E176E12C41EF0C7
:1006C00003015A6B000148DE1CD099D61AD018C01D
:1006D00050F4010E03015A6F00013EDE12D00401F6
:1006E000125101080AE312C418F012C457F30001B2
:1006F000C5D603015A6B00012FDE000102D02FDEA8
:1007000000D097EF04F018C057F304011151000A0C
:10071000000105E00A0A0CE0010A31E045D00401BD
:10072000506B516B020E03015A6F000115DE3ED073
:100730000301575321E0010E575D036AF2CF58F3CE
:10074000F29E000103DD030158BFF28E016E040129
:10075000145DD8A002D003010FD0036A1451210FF9
:10076000E96E000E0320EA6EEFCF50F4010E030194
:100770005A6F0001F1DD02D00001F1DD17D0030155
:1007800057530FE0036A04011451210FE96E000E64
:100790000320EA6E12C4EFFF03015A6B0001DCDD97
:1007A00002D00001DCDD02D0DADD00D097EF04F0EA
:1007B0000301589157BF5881579F58A111D05751E5
:1007C000080DF3505A6B596F040E5927000E5A2327
:1007D00059C3E9FF040E5A25EA6E880EEF6E09D060
:1007E0005751080DF3505A6BE96E040E5A25EA6E04
:1007F000EF6A000160EF04F00301589157BF588180
:10080000579F58A111D05751080DF3505A6B596F8B
:10081000040E5927000E5A2359C3E9FF040E5A2526
:10082000EA6E840EEF6E0AD05751080DF3505A6BE2
:10083000E96E040E5A25EA6E840EEF6E000168EF31
:1008400004F00301589157BF5881579F58A111D008
:100850005751080DF3505B6B5A6F040E5A27000E68
:100860005B235AC3E9FF040E5B25EA6EEFCF59F311
:100870000AD05751080DF3505B6BE96E040E5B25EF
:10088000EA6EEFCF59F359AF02D059B502D0000E3E
:1008900001D0010E016E000174EF04F014C461F385
:1008A000BFDC01522EE004011151010A000105E0F4
:1008B000020A0BE0030A11E022D014C457F378D7E0
:1008C00003015A6B000148DD1CD014C457F394D7C0
:1008D00003015A6B000140DD14D00401506B516BD1
:1008E00014C457F30001ADD7015203E0010E040117
:1008F000506F020E03015A6F00012EDD02D02FDD72
:1009000000D097EF04F0176A040110517F0B000A22
:10091000000105E0010A05E0030A05E006D097D6CC
:1009200006D0F1D604D0BAD702D019DD00D0D4EF6A
:1009300005F003015751080DF3505D6BE96E040E8D
:100940005D25EA6EEFCF59F35851020806E159AD23
:1009500002D0586B02D0010E586F5851030813E1B2
:10096000840E596F5751080DF3505D6B5C6F040E88
:100970005C27000E5D235CC3E9FF040E5D25EA6E73
:10098000840EEF6E07D0582D03D0C80E596F02D0D9
:10099000880E596FD8905735036AF2CF5CF3F29EF8
:1009A00000016DEC00F00900F5CF03F003015CBF1E
:1009B000F28E5A6F03C05BF35751080DF3505D6B15
:1009C0005C6F010E5C25016E000E5D21036E01C09F
:1009D000E9FF040E0324EA6E5AC3EFFF5BB15981AD
:1009E0005BB359835751080DF3505D6BE96E040EEC
:1009F0005D25EA6E59C3EFFF0001000C036A030195
:100A00005C51700FE96E0F0E0320EA6EEF5212E098
:100A10005C51080DF3505E6B5D6F040E5D27000E98
:100A20005E235DC3E9FF040E5E25EA6EEFCF5DF342
:100A30005DAF02D0000E01D0010E016E0001000C6E
:100A400057C35CF3DBDF015264E003015751080D2B
:100A5000F3505D6B5C6F040E5C27000E5D23010E8E
:100A60005C25016E000E5D21036E01C0E9FF040EDE
:100A70000324EA6E58C3EFFF5A51020817E1575199
:100A8000080DF3505D6B5C6F040E5C27000E5D2358
:100A90005CC3E9FF040E5D25EA6EEFCF5BF35BAD4F
:100AA00002D05A6B02D0010E5A6F13D05A5104086B
:100AB00010E15751080DF3505D6BE96E040E5D2592
:100AC000EA6EEFCF5BF35BAD03D0010E5A6F01D03E
:100AD0005A6B5A2D03D0C80E5B6F02D0880E5B6F25
:100AE00059B15B8159B35B835751080DF3505D6B6E
:100AF0005C6F040E5C27000E5D235CC3E9FF040EEF
:100B00005D25EA6E5BC3EFFF010E016E05D000D0DC
:100B10000001000E016E03010001000C0301575398
:100B200000E10001000C58C36EFF0301585303E0BD
:100B3000040E1C6E02D0020E1C6E0001A5EF05F023
:100B4000186A176A1EC058F3EED7B5EF05F0030117
:100B500057530CE1172C04D0000104DC06D003012C
:100B60001750020803E10001EBD703010001000C5C
:100B70001B300301556F553355331F0E55171B524C
:100B80004FE1040100513C0B0301566F430E040179
:100B9000001703015651340825E104010451800B6C
:100BA00001E0046B0001AFD66D981D3C07D0030136
:100BB000576B030E586F0001BCDE12D00301576B58
:100BC000020E586F0001B5DE1D50FE0809E003015A
:100BD000576B596B1DC058F3040E5A6F000130DF7C
:100BE0001DD00301565104081AE1576B000196DF2E
:100BF0000301576B020E586F00019BDE1D50FE086B
:100C00000CE01D3C01D009D00301576B596B1DC08E
:100C100058F3010E5A6F000113DF00D0030162D0B8
:100C20001B50040818E1430E04010417FF0E1D6E4B
:100C30000301576B00018BDF1D3C01D00AD003017B
:100C4000576B596B1DC058F3020E5A6F0001F8DE46
:100C500000D047D003011BB41DD05551080DF350EF
:100C6000586B016E040E5825036E5551080DF35054
:100C70005A6BE96E040E5A25EA6EEF50430B03C01F
:100C8000EAFF01C0E9FFEF6E55C357F3000146DFED
:100C900028D003015551080DF350586B576F040EBF
:100CA0005727000E582357C301F0040E5825036E32
:100CB0005551080DF3505A6B596F040E5927000E09
:100CC0005A2359C3E9FF040E5A25EA6EEF50430B2D
:100CD00003C0EAFF57C3E9FFEF6E55C357F30001A6
:100CE00036DF03010001AEEF06F0A19A1C5201E1CC
:100CF0003ED068523CE068A404D069A402D0EDEF75
:100D000000F06DA201D033D068AA04D069AA02D045
:100D100005EF01F068A204D069A202D00CEF01F047
:100D200068A004D069A002D08FEF01F068A804D0B9
:100D300069A802D0A4EF01F068AC04D069AC02D07D
:100D4000A9EF01F00301546B68A60AD069A608D088
:100D50006CCF1BF0000102EC00F00AD702D00301B7
:100D600005D003015451542B0308EEE200013CEF7F
:100D700000F0C95056C3C9FFC6889E96C7B0FED7BB
:100D8000016AC6B8012ADFEF06F0C7BA04D0030132
:100D90003E6BC7B43E8F03013E513E2B0A6F0A5192
:100DA00080080FE1036A0B511C0FE96E030E03204C
:100DB000EA6EEFCF55F355C356F30001DAD719D0D9
:100DC0000301C69C9EA6FED7C950C688546F0A2D43
:100DD00003D054C30BF30CD00A51020809E1036A93
:100DE0000B512D0FE96E030E0320EA6E54C3EFFF83
:100DF00000019E963CEF00F0030154515603F3CFDF
:100E000001F0F4CF00F05703F3500026555156037C
:100E1000F3500020026E0001000CD76AD66A02016E
:100E20007A2BD8B47B2B6051020838E16E5101084F
:100E300035E28A9893988A9A939A8B9094908B92A1
:100E40009492795329E17851050826E3270E03018E
:100E5000556F060E546F79C257F378C256F30001EE
:100E6000CBDF02C003F0015002017B51025C07E3BB
:100E700003E17A51015C03E38A8C939C02D08A9C43
:100E8000939C7B51E90807E2FF0A03E17A515F086E
:100E900002E27B6B7A6B02D08A8C939CF294000105
:100EA0003CEF00F0150ECF6EA00ECE6E0201722B3D
:100EB000D8B4732B742BD8B4752B762BD8B4772B6E
:100EC00056AB03D0802BD8B4812B755303E17451FA
:100ED000630803E2756B746B8681735303E172518F
:100EE000C7080FE2736B726B568F5B2B6151000862
:100EF00008E27C2BD8B47D2B56B503D07E2BD8B41A
:100F00007F2B9E9000013CEF00F0030EEA6E450E31
:100F1000E96EEF500EE00F0E016E006A002EFED754
:100F2000012EFBD78F0E006E002EFED70000EF2E95
:100F3000F2D7000C8E0E006E46C301F045C302F0DE
:100F4000036A015209E102C001F0026A080E005E64
:100F5000015202E1006A08D0D89001BE04D00236E6
:100F600001360006F9D7019E000C03014035006EE2
:100F70000036FC0E001600C001F0C250C30B00107A
:100F8000C26E010E456F0001C0DFC282C2B2FED741
:100F9000C4CF46F3C3CF45F30001CCDF03C044F315
:100FA00002C043F301C042F300C041F341C300F06B
:100FB00042C301F043C302F044C303F0000C030139
:100FC0004451D8B4A5D0506F4851D8B4A1D0505F87
:100FD00005E37F0E5027D8B09BD006D0810E505F1E
:100FE000D8A096D0D8B494D050C300F0016A026A59
:100FF000036A4F6B45C34EF34E8F46C34DF347C351
:101000004CF3190E506F4B514C5F0DE2010E4D5FCA
:101010000AE24E5F08E24F5F06E24F2B4E2B4D2B4C
:101020004B514C2728D04A514D5F12E2010E4E5FC2
:101030000FE24F5F0DE24F2B4E2B4A514D274B5184
:101040004C2719E34D2B17E14E2B15E14F2B13D0F5
:10105000495180094E5F0EE2010E4F5F0BE24F2BAC
:10106000495180094E274A514D27E9E34E2BE7E1CC
:101070004F2BE5D70380502F01D00BD0D8904C37A1
:101080004D374E374F37D890033602360136513739
:10109000BAD751A106D0D89001320232033251336F
:1010A00002D0000635E051BF1ED0D8904C374D37E6
:1010B0004E374F374B514C5F07E2010E4D5F04E254
:1010C0004E5F02E24F5F1AE34A514D5F05E2010EA7
:1010D0004E5F02E24F5F12E3495180094E5F03E227
:1010E000010E4F5F0BE3032A09E1022A07E1012AFF
:1010F00005E1002A0DE001320232033245C350F30C
:101100004951501B50AF02D0018E06D0019E04D031
:10111000006A016A026A036A0001000C800ED8A20C
:1011200002D00301491B03014E6B4F6B45C34DF3C6
:1011300049514D1B4451D8B4DFD04C6F006E48511B
:10114000D8B4E3D04C5FD8B483D03EE349C352F364
:10115000528F4AC351F34BC350F34F6BD890523365
:10116000513350334F334C2FF8D74DAF03D04E810E
:10117000E0D04E914C914E89030EEA6E470EE96E17
:10118000EBD04E994DBF0AD04CA113D052335133FE
:1011900050334F33002AD8B4C7D00BD052BF0CD035
:1011A000D8904F375037513752370006D8B4BCD09B
:1011B000F5D74E8D6DD04E9D45C34DF345AF02D052
:1011C000528FABD0529FA9D048C34CF348C300F014
:1011D00044514C5F45C352F3528F46C351F347C34A
:1011E00050F34F6BD8905233513350334F334C2F11
:1011F000F8D74DAF03D04E839CD04E934C914E8B7D
:10120000030EEA6E4B0EE96EA7D04E9B4DBF0AD07F
:101210004CA113D05233513350334F33002AD8B43A
:1012200083D00BD052BF0CD0D8904F3750375137A6
:1012300052370006D8B478D0F5D74E8F29D04E9FBC
:1012400049C34DF349AF02D0528F67D0529F65D04A
:1012500049C352F3528F4AC351F34BC350F34DAFBE
:1012600004D0529F4E8565D04E954F6B4C91030E26
:10127000EA6E470EE96E70D04DBF1CD045C34DF3EA
:101280004CA106D05233513350334F33002A4CE037
:101290004FAF0BD0502B09E1512B07E1522B05E149
:1012A000523351335033002A3FE04EBD84D74EBFF6
:1012B000C6D71CD0800E521B52AF04D03AD049C3BF
:1012C0004DF30AD045C34DF3525306E1515304E1A7
:1012D000505302E1006A21D052BF08D0D8904F3756
:1012E000503751375237002EF7D71ED04DAF02D0AE
:1012F000528F13D0529F11D048C300F049C352F30C
:101300004AC351F34BC350F308D044C300F045C364
:1013100052F346C351F347C350F352C301F051C3D4
:1013200002F050C303F034D0006A016A026A036A13
:101330002FD04F6B501F511F521F4F1F4F2B05E1D6
:10134000502B03E1512B01E1522B4EB112D74EB37A
:1013500054D74EB589D7B3D7EF50502705E3512B5B
:1013600003E1522BD8B44C81ED52EF50512703E3E7
:10137000522BD8B44C81ED52EF50EFBE01D0800A11
:101380005227D8B04C814EB9FCD64EBB3ED774D74D
:101390000001000C02017051040DF350036A420F6A
:1013A000E96E020E0320EA6EAAC2EFFFABC2ECFFA9
:1013B000ACC2ECFFADC2ECFF702B705101081DE216
:1013C000706BD88249C247F348C246F347C245F31F
:1013D00046C244F345C24BF344C24AF343C249F305
:1013E00042C248F300019ADE03C051F202C050F23B
:1013F00001C04FF200C04EF20201000111EF0BF0EC
:1014000003014451D8B471D0006E4851D8B46DD0A6
:10141000002604E3810E002668E204D07F0E005E01
:1014200064E363E045C34CF349514C1B458F498F3E
:1014300047514B03F4CF4EF346514A03F4CF03F028
:10144000F3CF4DF34B03F3504E27F4504D23000ED2
:10145000032247514A03F3504E27F4504D23000E08
:10146000026A0322022245514B03F3504D27F450E8
:101470000322000E022245514A03F3500326F45082
:101480000222000E016A012247514903F3504D2701
:10149000F4500322000E0222012246514903F35068
:1014A0000326F4500222000E012245514903F35055
:1014B0000226F4500122002A01BE05D04D37033622
:1014C000023601360006000E4DAF0AD0032A022272
:1014D0000122015005E1025003E1035001E1002A1D
:1014E0004CBF018E4CAF019E04D0006A016A026AB3
:1014F000036A0001000C0201A96BA86BA76BA66B25
:101500000301406B000131DD03C091F202C090F293
:1015100001C08FF200C08EF291C247F390C246F331
:101520008FC245F38EC244F30A0E03014B6FD70EF0
:101530004A6F230E496F840E486F000140DD03C0DF
:1015400091F202C090F201C08FF200C08EF203014E
:10155000476BC00E466F7F0E456F880E446F91C279
:101560004BF390C24AF38FC249F38EC248F3000195
:1015700026DD00C040F301C041F302C042F303C0C6
:1015800043F3D88203C047F302C046F301C045F3DA
:1015900000C044F303014B6B4A6B496B7F0E486FED
:1015A0000001BCDD95C247F394C246F393C245F3F4
:1015B00092C244F303C04BF302C04AF301C049F3A3
:1015C00000C048F3FCDC03C099F202C098F201C0ED
:1015D00097F200C096F2D88299C247F398C246F3B8
:1015E00097C245F396C244F39A0E03014B6F990ECE
:1015F0004A6F190E496F7D0E486F00018FDD03C0E1
:1016000099F202C098F201C097F200C096F2010E62
:1016100003013F5D0201885D05E004E3886B000182
:10162000B9D60201166AF2BE168EF29E0301556B00
:1016300088C254F3576B040E566F0001FCEC06F0A1
:1016400016BEF28E0150620FE96E000E0220EA6EA5
:1016500096C2EFFF97C2ECFF98C2ECFF99C2ECFF75
:101660000201882B876B03013F510201875D45E230
:10167000166AF2BE168EF29E0301556B87C254F3B2
:10168000576B040E566F0001FCEC06F016BEF28E8E
:1016900002C003F00150620FE96E000E0220EA6EF4
:1016A000EFCF00F0ECCF01F0ECCF02F0ECCF03F085
:1016B000EACF41F3E9CF40F3D892A9C247F3A8C2D9
:1016C00046F3A7C245F3A6C244F303C04BF302C0DE
:1016D0004AF301C049F300C048F320DD41C3EAFFEB
:1016E00040C3E9FF03C0A9F202C0A8F201C0A7F2FB
:1016F00000C0A6F20201872BB6D70301466B3FC399
:1017000045F3000117DCA9C247F3A8C246F3A7C2FC
:1017100045F3A6C244F303C04BF302C04AF301C031
:1017200049F300C048F34BDC03C0A9F202C0A8F2A1
:1017300001C0A7F200C0A6F2A9C247F3A8C246F3AF
:10174000A7C245F3A6C244F3A9C24BF3A8C24AF309
:10175000A7C249F3A6C248F353DE00C040F301C05C
:1017600041F302C042F303C043F303C047F302C096
:1017700046F301C045F300C044F301C34BF300C37B
:101780004AF3FFC249F3FEC248F33ADE00C040F319
:1017900001C041F302C042F303C043F3A9C247F3BF
:1017A000A8C246F3A7C245F3A6C244F305C34BF350
:1017B00004C34AF303C349F302C348F321DED892BA
:1017C00043C347F342C346F341C345F340C344F325
:1017D00003C04BF302C04AF301C049F300C048F311
:1017E0009DDC00C040F301C041F302C042F303C0DE
:1017F00043F3D89203C047F302C046F301C045F358
:1018000000C044F309C34BF308C34AF307C349F3C9
:1018100006C348F383DC03C0ADF202C0ACF201C0E2
:10182000ABF200C0AAF20301466B89C245F3000186
:101830009AEC07F000C040F301C041F302C042F34C
:1018400003C043F30301466B8AC245F300019AECDF
:1018500007F0D88243C347F342C346F341C345F37D
:1018600040C344F303C04BF302C04AF301C049F341
:1018700000C048F353DCD892ADC247F3ACC246F384
:10188000ABC245F3AAC244F303C04BF302C04AF310
:1018900001C049F300C048F341DC03C0ADF202C00F
:1018A000ACF201C0ABF200C0AAF2AAC200F0ABC217
:1018B00001F0ACC202F0ADC203F0000C41C348F32A
:1018C00003014551481B48AF05D0D894D89041BF7B
:1018D000D8802FD041C348F344C349F34051495FF6
:1018E00006E048AF26D0D850010AD86E22D045C3B2
:1018F00049F34151495F06E048AF1BD0D850010A77
:10190000D86E17D046C349F34251495F06E048AF4D
:1019100010D0D850010AD86E0CD047C349F34351B8
:10192000495F06E048AF05D0D850010AD86E01D013
:10193000D8900001000C02014D6B4C6B4B6B4A6B55
:10194000010E0301406F0001B5EC07F003C0CDF2BA
:1019500002C0CCF201C0CBF200C0CAF2CDC247F344
:10196000CCC246F3CBC245F3CAC244F30A0E03010C
:101970004B6F280E4A6F200E496F770E486F00019B
:101980003FDD03C0CDF202C0CCF201C0CBF200C0FB
:10199000CAF2D882CDC247F3CCC246F3CBC245F3DC
:1019A000CAC244F3CD0E03014B6FCC0E4A6F4C0EEE
:1019B000496F7C0E486F00018EEC08F000C040F3C8
:1019C00001C041F302C042F303C043F303C047F335
:1019D00002C046F301C045F300C044F3FDC24BF31F
:1019E000FCC24AF3FBC249F3FAC248F3DFEC07F04A
:1019F00003C0D1F202C0D0F201C0CFF200C0CEF2DB
:101A0000D1C243F3D0C242F3CFC241F3CEC240F3BE
:101A10000301476B466B456B446B00014FDF05E3E9
:101A20000201D16BD06BCF6BCE6B010E03013F5D1A
:101A30000201575D02E001E3576B5751040DF3506B
:101A4000036AA20FE96E010E0320EA6ECEC2EFFF19
:101A5000CFC2ECFFD0C2ECFFD1C2ECFF572B586BCA
:101A6000010E03013F5D0201585D01E038E258516B
:101A7000040DF350036AA20FE96E010E0320EA6E13
:101A8000EFCF00F0ECCF01F0ECCF02F0ECCF03F0A1
:101A9000EACF41F3E9CF40F3D8924DC247F34CC2AD
:101AA00046F34BC245F34AC244F303C04BF302C0B2
:101AB0004AF301C049F300C048F300018EEC08F07E
:101AC00041C3EAFF40C3E9FF03C04DF202C04CF23C
:101AD00001C04BF200C04AF20201582BC1D70301EA
:101AE000466B3FC345F300019AEC07F04DC247F344
:101AF0004CC246F34BC245F34AC244F303C04BF316
:101B000002C04AF301C049F300C048F3DFEC07F01C
:101B100003C04DF202C04CF201C04BF200C04AF2C9
:101B20004AC200F04BC201F04CC202F04DC203F0B9
:101B3000000C0201556B546B536B526B020E030188
:101B4000406F0001B5EC07F003C0E1F202C0E0F223
:101B500001C0DFF200C0DEF2E1C247F3E0C246F3AB
:101B6000DFC245F3DEC244F30A0E03014B6F280EB9
:101B70004A6F200E496F770E486F000141DC03C0A9
:101B8000E1F202C0E0F201C0DFF200C0DEF2D88272
:101B9000E1C247F3E0C246F3DFC245F3DEC244F3DD
:101BA000CD0E03014B6FCC0E4A6F4C0E496F7C0E6D
:101BB000486F00018EEC08F000C040F301C041F313
:101BC00002C042F303C043F303C047F302C046F32D
:101BD00001C045F300C044F3FDC24BF3FCC24AF31D
:101BE000FBC249F3FAC248F3DFEC07F003C0E5F2A9
:101BF00002C0E4F201C0E3F200C0E2F2D882E5C222
:101C000047F3E4C246F3E3C245F3E2C244F39A0E5B
:101C100003014B6F990E4A6F590E496F810E486F41
:101C200000018EEC08F003C0E5F202C0E4F201C04E
:101C3000E3F200C0E2F2E5C243F3E4C242F3E3C2DE
:101C400041F3E2C240F30301476B466B456B446BC3
:101C5000000134DE05E30201E56BE46BE36BE26B4C
:101C6000010E03013F5D0201595D02E001E3596B82
:101C70005951040DF350036AF20FE96E010E03206F
:101C8000EA6EE2C2EFFFE3C2ECFFE4C2ECFFE5C2A2
:101C9000ECFF592B5A6B010E03013F5D02015A5DA7
:101CA00001E038E25A51040DF350036AF20FE96E75
:101CB000010E0320EA6EEFCF00F0ECCF01F0ECCF85
:101CC00002F0ECCF03F0EACF41F3E9CF40F3D89232
:101CD00055C247F354C246F353C245F352C244F3CC
:101CE00003C04BF302C04AF301C049F300C048F3FC
:101CF00000018EEC08F041C3EAFF40C3E9FF03C0D6
:101D000055F202C054F201C053F200C052F2020177
:101D10005A2BC1D70301466B3FC345F300019AEC30
:101D200007F055C247F354C246F353C245F352C2BB
:101D300044F303C04BF302C04AF301C049F300C0AF
:101D400048F3DFEC07F003C055F202C054F201C0C3
:101D500053F200C052F252C200F053C201F054C21A
:101D600002F055C203F0000C8E0E006E03013F51CD
:101D7000005E40C302F041C301F0028E005209E050
:101D8000D890025202E1015204E002320132002EE8
:101D9000F7D740AF05D0011E021E012AD8B4022A8F
:101DA0000001000C2DC35FF22EC360F22FC361F25D
:101DB00030C362F231C363F232C364F233C365F2FB
:101DC00034C366F235C367F20301466B36C345F38D
:101DD00000019AEC07F003C0E9F202C0E8F201C08A
:101DE000E7F200C0E6F237C371F20201796B39C342
:101DF00078F20001000C6AC21CF36BC21DF36CC2C6
:101E00001EF303011F6B020156A303D003011F2B16
:101E100002016EC220F3EDC242F3ECC241F3EBC209
:101E200040F3EAC23FF300019FDF01C021F368C223
:101E300022F369C223F371C224F3C1C242F3C0C2C8
:101E400041F3BFC240F3BEC23FF38EDF01C025F3B2
:101E500082C226F3030183C227F3030184C228F35D
:101E6000030185C229F303010001000C6D6A696A50
:101E7000080E6F6E945030090301946E1C6A166A46
:101E8000F2BE168EF29E00017BEC01F016BEF28EC1
:101E90004BEF0FF0EBD770EF0FF0166AF2BE168E15
:101EA000F29E7BEC01F016BEF28E6D6A140E6F6E20
:101EB000696A6D86010E1C6E61EF0FF06DB601D080
:101EC000ECD71C2C0BD06DBA09D0686A696AA08A5D
:101ED000C00EF212110E696E020E1C6E000CDAD7E3
:101EE000EDDF1C500208FCE142EF16F01850016EC5
:101EF0001DEF17F0036A03013F51700FE96E0F0EDB
:101F00000320EA6EEF520DE03F51080DF350416B94
:101F1000406FE96E040E4125EA6EEFCF40F340AF0B
:101F200002D0000E01D0010E016E000126EF17F065
:101F300003014451080DF3504F6B4E6F020E4E25B6
:101F4000016E000E4F21036E01C0E9FF040E032451
:101F5000EA6EECCF03F0ED52EFCF49F303C04AF342
:101F60004451080DF3504F6B4E6F010E4E25016E1C
:101F7000000E4F21036E01C0E9FF040E0324EA6E38
:101F8000EF50036A4C6F03C04DF34451080DF350FA
:101F90004F6BE96E040E4F25EA6EEFCF4BF34BB15A
:101FA0004D814BB34D834D51485D08E303E14751EB
:101FB0004C5D04E24DC348F34CC347F346C3EAFF0C
:101FC00045C3E9FF4AC3E2FF49C3E1FF48C302F04A
:101FD00047C301F0015202E0022A02D0025206E099
:101FE000E6CFEEFF012EFCD7022EFAD747C301F051
:101FF00048C302F0000108EF10F03FC344F341C3AF
:1020000046F340C345F343C348F342C347F390D775
:1020100002C043F301C042F3166AF2BE168EF29E6E
:102020003FC357F3020E0301586F000199EC04F00F
:1020300016BEF28E030142C301F043C302F0000159
:1020400035EF17F0166AF2BE168EF29E3FC35CF3B0
:10205000FEEC04F016BEF28E015248E003013F513F
:10206000080DF350486B476F040E4727000E4823B6
:10207000020E4725016E000E4821036E01C0E9FFE4
:10208000040E0324EA6EECCF03F0ED52EFCF45F3DC
:1020900003C046F346C3EAFF45C3E9FF41C3E2FF7D
:1020A00040C3E1FF43C302F042C301F0015202E02A
:1020B000022A02D0025206E0E6CFEEFF012EFCD744
:1020C000022EFAD7166AF2BE168EF29E3FC357F35F
:1020D00043C359F342C358F344C35AF3000120ECFD
:1020E00005F016BEF28E015003D000D0000E016E36
:1020F000C8EF1AF0D892BDC247F3BCC246F3BBC2C8
:1021000045F3BAC244F3E9C24BF3E8C24AF3E7C26B
:1021100049F3E6C248F38EEC08F000C03FF301C07B
:1021200040F302C041F303C042F3D88203C047F337
:1021300002C046F301C045F300C044F3EDC24BF3C7
:10214000ECC24AF3EBC249F3EAC248F38EEC08F062
:1021500003C0A5F202C0A4F201C0A3F200C0A2F223
:10216000660E0301436F426F416F7E0E406FA5C242
:1021700047F3A4C246F3A3C245F3A2C244F300014D
:102180005EEC0CF05AE3A5C243F3A4C242F3A3C22F
:1021900041F3A2C240F30301476B466B700E456FDB
:1021A000820E446F00015EEC0CF047E351C243F332
:1021B00050C242F34FC241F34EC240F39A0E0301A4
:1021C000476F990E466F190E456F7D0E446F0001E3
:1021D0005EEC0CF032E3A1C243F3A0C242F39FC213
:1021E00041F39EC240F30301476B466B100E456FEF
:1021F000820E446F00015EEC0CF01FE302015B51A4
:1022000013081CE25B6BD892B5C247F3B4C246F325
:10221000B3C245F3B2C244F303014B6B4A6B496B43
:10222000800E486F00018EEC08F003C0B5F202C0CA
:10223000B4F201C0B3F200C0B2F20201A5C243F38E
:10224000A4C242F3A3C241F3A2C240F39A0E030117
:10225000476F990E466F456F7D0E446F00015EEC2F
:102260000CF008E3B9C2B5F2B8C2B4F2B7C2B3F227
:10227000B6C2B2F2B5C243F3B4C242F3B3C241F341
:10228000B2C240F30301476B466B456B7F0E446F50
:1022900000015EEC0CF006E30201B56BB46BB36BAE
:1022A0007F0EB26FA5C243F3A4C242F3A3C241F3AF
:1022B000A2C240F30301476B466B456B446B0001C0
:1022C0005EEC0CF006E30201A56BA46BA36BA26BA2
:1022D0000001A5C247F3A4C246F3A3C245F3A2C2BC
:1022E00044F3B5C24BF3B4C24AF3B3C249F3B2C22A
:1022F00048F300EC0AF003C0B1F202C0B0F201C032
:10230000AFF200C0AEF2E9C243F3E8C242F3E7C263
:1023100041F3E6C240F3B1C247F3B0C246F3AFC2E5
:1023200045F3AEC244F35EEC0CF008E3E9C2B1F24F
:10233000E8C2B0F2E7C2AFF2E6C2AEF2B1C243F316
:10234000B0C242F3AFC241F3AEC240F30301476BE8
:10235000466B456B446B00015EEC0CF006E302013A
:10236000B16BB06BAF6BAE6B0001B1C247F3B0C2E3
:1023700046F3AFC245F3AEC244F3E9C24BF3E8C241
:102380004AF3E7C249F3E6C248F3DFEC07F000C0C6
:102390003FF301C040F302C041F303C042F303C066
:1023A00047F302C046F301C045F300C044F39DC2A9
:1023B0004BF39CC24AF39BC249F39AC248F300EC28
:1023C0000AF003C0A1F202C0A0F201C09FF200C057
:1023D0009EF2A1C247F3A0C246F39FC245F39EC23C
:1023E00044F30A0E03014B6FD70E4A6F230E496F59
:1023F000770E486F0001DFEC07F003C042F302C024
:1024000041F301C040F300C03FF3AEDC02C003F073
:10241000015002017751025C09E303E17651015C4E
:1024200005E38B8094908B82949204D08B9094904F
:102430008B9294929DC247F39CC246F39BC245F394
:102440009AC244F30A0E03014B6FD70E4A6F230E54
:10245000496F770E486F0001DFEC07F003C042F3CD
:1024600002C041F301C040F300C03FF37DDC0250E5
:10247000036E0201775D06E303E10150765D02E33E
:10248000776B766B000111EF1CF0F86AD09E078E17
:10249000EA6AE96A93829380A00EC86E360EC66E11
:1024A0001C6A206A02014D6B4C6B4B6B4A6B516B83
:1024B000506B4F6B4E6B556B546B536B526B56910D
:1024C0005693569556975699569B569D576B586BF3
:1024D000596B5A6B5B6B5C6B5D6B5E6B5F6B606BC0
:1024E000616B626B636B646B656B666B676B686B70
:1024F000696B6A6B6B6B6C6B6D6B6E6B6F6B706B20
:10250000716B736B726B756B746B776B766B796BCE
:10251000786B7B6B7A6B7D6B7C6B7F6B7E6B816B7F
:10252000806B836B826B856B846B569F86918693E1
:10253000876B886B896B8A6B8B6B8C6B020E8D6FD4
:10254000916B906B8F6B8E6B956B100E946F420E30
:10255000936F8B0E926F9D6B9C6B200E9B6F820E08
:102560009A6FA16BA06B9F6B9E6BA56BA46BA36B0B
:10257000A26BA96BA86BA76BA66BAD6BAC6BAB6BBF
:10258000AA6BB16BB06BAF6BAE6BB56BB46B480E37
:10259000B36F830EB26FB96BB86B200EB76F830E3B
:1025A000B66FBD6BBC6BBB6BBA6BC16BC06BBF6BEB
:1025B000BE6BC56BC46BC36BC26BC96BC86BC76B9F
:1025C000C66BCD6BCC6BCB6BCA6BD16BD06BCF6B4F
:1025D000CE6BD56BD46BD36BD26BD96BD86BD76BFF
:1025E000D66BDD6BDC6BDB6BDA6BE16BE06BDF6BAF
:1025F000DE6BE56BE46BE36BE26BE96BE86BE76B5F
:10260000E66BED6BEC6BEB6BEA6BF16BF06BEF6B0E
:10261000EE6BF56BF46BF36BF26BF96BF86BF76BBE
:10262000F66B5C0EFD6FAA0EFC6F520EFB6F770E01
:10263000FA6FE00E0301016F2D0E006F100E020104
:10264000FF6F750EFE6FFF0E0301056F210E046F05
:10265000150E036F800E026F820E096F120E086F47
:10266000F40E076F860E066FC150C00B0F09C16EC6
:10267000070EB46E0001626B636B646B656B666B17
:10268000676B686B696B6A6B6B6B6C6B6D6B6E6B9E
:102690006F6B706B716B726B736B746B756B766B4E
:1026A000776B786B796B7A6B7B6B7C6B7D6B7E6BFE
:1026B0007F6B806B816B826B836B846B856B866BAE
:1026C000876B886B896B8A6B8B6B8C6B8D6B8E6B5E
:1026D0008F6B906B916B926B936B946B956B966B0E
:1026E000976B986B996B9A6B9B6B9C6B9D6B9E6BBE
:1026F0009F6BA06BA16BA26BA36BA46BA56BA66B6E
:10270000A76BA86BA96BAA6BAB6BAC6BAD6BAE6B1D
:10271000AF6BB06BB16BB26BB36BB46BB56BB66BCD
:10272000B76BB86BB96BBA6BBB6BBC6BBD6BBE6B7D
:10273000BF6BC06BC16BC26BC36BC46BC56BC66B2D
:10274000C76BC86BC96BCA6BCB6BCC6BCD6BCE6BDD
:10275000CF6BD06BD16BD26BD36BD46BD56BD66B8D
:10276000D76BD86BD96BDA6BDB6BDC6BDD6BDE6B3D
:10277000DF6BE06BE16BE26BE36BE46BE56BE66BED
:10278000E76BE86BE96BEA6BEB6BEC6BED6BEE6B9D
:10279000EF6BF06BF16BF26BF36BF46BF56BF66B4D
:1027A000F76BF86BF96BFA6BFB6BFC6BFD6BFE6BFD
:1027B000FF6B0101006B016B026B036B046B056B1C
:1027C000066B076B086B096B0A6B0B6B0C6B0D6B65
:1027D0000E6B0F6B106B116B126B136B146B156B15
:1027E000166B176B186B196B1A6B1B6B1C6B1D6BC5
:1027F0001E6B1F6B206B216B226B236B246B256B75
:10280000266B276B286B296B2A6B2B6B2C6B2D6B24
:102810002E6B2F6B306B316B326B336B346B356BD4
:10282000366B376B386B396B3A6B3B6B3C6B3D6B84
:102830003E6B3F6B406B416B426B436B446B456B34
:10284000466B476B486B496B4A6B4B6B4C6B4D6BE4
:102850004E6B4F6B506B516B526B536B546B556B94
:10286000566B576B586B596B5A6B5B6B5C6B5D6B44
:102870005E6B5F6B606B616B626B636B646B656BF4
:10288000666B676B686B696B6A6B6B6B6C6B6D6BA4
:102890006E6B6F6B706B716B726B736B746B756B54
:1028A000766B776B786B796B7A6B7B6B7C6B7D6B04
:1028B0007E6B7F6B806B816B826B836B846B856BB4
:1028C000866B876B886B896B8A6B8B6B8C6B8D6B64
:1028D0008E6B8F6B906B916B926B936B946B956B14
:1028E000966B976B986B996B9A6B9B6B9C6B9D6BC4
:1028F0009E6B9F6BA06BA16BA26BA36BA46BA56B74
:10290000A66BA76BA86BA96BAA6BAB6BAC6BAD6B23
:10291000AE6BAF6BB06BB16BB26BB36BB46BB56BD3
:10292000B66BB76BB86BB96BBA6BBB6BBC6BBD6B83
:10293000BE6BBF6BC06BC16BC26BC36BC46BC56B33
:10294000C66BC76BC86BC96BCA6BCB6BCC6BCD6BE3
:10295000CE6BCF6BD06BD16BD26BD36BD46BD56B93
:10296000D66BD76BD86BD96BDA6BDB6BDC6BDD6B43
:10297000DE6BDF6BE06BE16BE26BE36BE46BE56BF3
:10298000E66BE76BE86BE96BEA6BEB6BEC6BED6BA3
:10299000EE6BEF6BF06BF16BF26BF36BF46BF56B53
:1029A000F66BF76BF86BF96BFA6BFB6BFC6BFD6B03
:1029B000FE6BFF6B0201006B016B026B036B046B20
:1029C000056B066B076B086B096B0A6B0B6B0C6B6B
:1029D0000D6B0E6B0F6B106B116B126B136B146B1B
:1029E000156B166B176B186B196B1A6B1B6B1C6BCB
:1029F0001D6B1E6B1F6B206B216B226B236B246B7B
:102A0000256B266B276B286B296B2A6B2B6B2C6B2A
:102A10002D6B2E6B2F6B306B316B326B336B346BDA
:102A2000356B366B376B386B396B3A6B3B6B3C6B8A
:102A30003D6B3E6B3F6B406B416B426B436B446B3A
:102A4000456B466B476B486B496B030E03013E6F4A
:102A50000A6B0B6B0B510F081AE3036A0B510C0F37
:102A6000E96E030E0320EA6EEF6A036A0B511C0F36
:102A7000E96E030E0320EA6EEF6A036A0B512D0F15
:102A8000E96E030E0320EA6EEF6A0B2BE3D78DC2CB
:102A90003FF300017BEC0AF003C0EDF202C0ECF260
:102AA00001C0EBF200C0EAF2050E03013F6F000126
:102AB0009BEC0CF003C0F5F202C0F4F201C0F3F29B
:102AC00000C0F2F2050E03013F6F000199EC0DF01A
:102AD00003C0F9F202C0F8F201C0F7F200C0F6F24A
:102AE000958802016A6B83B86A2B958A6B6B83BAEF
:102AF0006B2B95806C6B83B06C2B95846D6B83B462
:102B00006D2BF5C242F3F4C241F3F3C240F3F2C2BB
:102B10003FF30001B4EC0EF001C06EF2D2EC0EF007
:102B2000FBEC0EF09D86C80ED56EF28A850ECD6E3A
:102B30009D80C150C00B0D09C16EC090C082C09471
:102B4000C08EC280C00EF2120301406B0001B5ECD2
:102B500007F0F2CF3FF3F29E0A0EA96EA69CA69E46
:102B6000A680A85003013FBFF28E466B456F00015F
:102B70009AEC07F003C0B5F202C0B4F201C0B3F2A0
:102B800000C0B2F2F2CF3FF3F29E0B0EA96EA69CEC
:102B9000A69EA680A85003013FBFF28E466B456FEC
:102BA00000019AEC07F003C0BDF202C0BCF201C004
:102BB000BBF200C0BAF2F2CF3FF3F29E0C0EA96E48
:102BC000A69CA69EA680A85003013FBFF28E466B2E
:102BD000456F00019AEC07F003C09DF202C09CF221
:102BE00001C09BF200C09AF2F2CF3FF3F29E0D0EAD
:102BF000A96EA69CA69EA680A85003013FBFF28E98
:102C00000201896FF2CF3FF3F29E0E0EA96EA69CD1
:102C1000A69EA680A85003013FBFF28E02018A6FD4
:102C2000F2CF3FF3F29E0F0EA96EA69CA69EA68041
:102C3000A85003013FBFF28E466B456F00019AEC2E
:102C400007F003C0B9F202C0B8F201C0B7F200C089
:102C5000B6F2F2CF3FF3F29E140EA96EA69CA69E8A
:102C6000A680A85003013FBFF28E02018D6F8A98A3
:102C700093988A9A939A8A9C939C8B909490000143
:102C80006FEF0FF05EEC0FF002016A6B6B6B6C6B19
:102C90006D6B6E6B6F6B8B6B5C6B5C514F0810E3F5
:102CA0008DC23FF300017BEC0AF003C0EDF202C0DD
:102CB000ECF201C0EBF200C0EAF202015C2BEDD7AE
:102CC0008A9893980301436B426B700E416F840E98
:102CD000406FEDC247F3ECC246F3EBC245F3EAC2E4
:102CE00044F300015EEC0CF003E3050E02015D6F9E
:102CF0000301436B426B0C0E416F840E406FEDC2BB
:102D000047F3ECC246F3EBC245F3EAC244F30001D9
:102D10005EEC0CF016E3EDC243F3ECC242F3EBC2FF
:102D200041F3EAC240F30301476B466B700E456FF7
:102D3000840E446F00015EEC0CF003E30A0E020106
:102D40005D6F0301436B426B200E416F810E406F3C
:102D5000EDC247F3ECC246F3EBC245F3EAC244F3DB
:102D600000015EEC0CF017E3EDC243F3ECC242F35A
:102D7000EBC241F3EAC240F30301476B466B0C0E12
:102D8000456F840E446F00015EEC0CF004E30F0EFF
:102D900002015D6F0001958A83AA04D0020186A317
:102DA0000ED00001020156818A8C939C8A989398D8
:102DB0008B9094908B929492606BF29A0ED056A165
:102DC0000CD0060E03013F6FFA0E456F000185EC33
:102DD00007F003013F2FF8D70201958083B00DD093
:102DE000958A83AA0AD0569B816B806B8A889398B8
:102DF0008B9094908B9294921DD0958483A413D041
:102E0000958A83AA10D0815103080BE2FF0A03E1DF
:102E10008051AF0806E28A989398569B5683568550
:102E200001D0568B07D0816B806B569B615302E1BA
:102E30008A889398000176EF0FF00152D8B4A8D396
:102E4000010E03013F6F00017AEF0FF00152D8B479
:102E500029D1010E03013F6F416B420E406F436B5E
:102E6000200E426F0001FDEF0FF0422C42D0030113
:102E7000466B43C045F300019AEC07F003C0B5F27E
:102E800002C0B4F201C0B3F200C0B2F20301466B5B
:102E900044C045F300019AEC07F003C0BDF202C044
:102EA000BCF201C0BBF200C0BAF20301466B45C0E0
:102EB00045F300019AEC07F003C09DF202C09CF2BA
:102EC00001C09BF200C09AF247C08DF20301466B2D
:102ED00048C045F300019AEC07F003C0B9F202C004
:102EE000B8F201C0B7F200C0B6F249C089F24CC0D6
:102EF0008AF24E2CC4D0B5C242F3B4C241F3B3C27D
:102F000040F3B2C23FF3B4EC0EF001C03FF30A0E3F
:102F1000A96E3FC3A8FFA69CA69EA684F250006E91
:102F2000F29E0F01550EA76EAA0EA76EA682A6B23C
:102F3000FED7A6940050F212BDC242F3BCC241F3C8
:102F4000BBC240F3BAC23FF30001B4EC0EF001C0C3
:102F50003FF30B0EA96E3FC3A8FFA69CA69EA684B6
:102F6000F250006EF29E0F01550EA76EAA0EA76ECC
:102F7000A682A6B2FED7A6940050F2129DC242F3DA
:102F80009CC241F39BC240F39AC23FF30001B4ECF0
:102F90000EF001C03FF30C0EA96E3FC3A8FFA69C24
:102FA000A69EA684F250006EF29E0F01550EA76EEB
:102FB000AA0EA76EA682A6B2FED7A6940050F21261
:102FC000140EA96E8DC2A8FFA69CA69EA684F250E0
:102FD000006EF29E550EA76EAA0EA76EA682A6B22E
:102FE000FED7A6940050F2120D0EA96E89C2A8FF5A
:102FF000A69CA69EA684F250006EF29E550EA76E69
:10300000AA0EA76EA682A6B2FED7A6940050F21210
:103010000E0EA96E8AC2A8FFA69CA69EA684F25098
:10302000006EF29E550EA76EAA0EA76EA682A6B2DD
:10303000FED7A6940050F212B9C242F3B8C241F3CF
:10304000B7C240F3B6C23FF30001B4EC0EF001C0CA
:103050003FF30F0EA96E3FC3A8FFA69CA69EA684B1
:10306000F250006EF29E0F01550EA76EAA0EA76ECB
:10307000A682A6B2FED7A6940050F21200014F2CF1
:1030800004D00201868303D00001020186934A2CFA
:1030900002D0568701D056974B2C02D0568901D0CA
:1030A00056990001EDC2F1F2ECC2F0F2EBC2EFF280
:1030B000EAC2EEF2F1C242F3F0C241F3EFC240F3D2
:1030C000EEC23FF3B4EC0EF001C022F0780E236E96
:1030D000F1C242F3F0C241F3EFC240F3EEC23FF35C
:1030E000B4EC0EF00301466B01C045F300019AEC0D
:1030F00007F0D882F1C247F3F0C246F3EFC245F3BE
:10310000EEC244F303C04BF302C04AF301C049F3DB
:1031100000C048F38EEC08F003C0C1F202C0C0F258
:1031200001C0BFF200C0BEF2C1C247F3C0C246F345
:10313000BFC245F3BEC244F303014B6B4A6B200E82
:10314000496F820E486F000100EC0AF003C0C1F223
:1031500002C0C0F201C0BFF200C0BEF2C1C242F361
:10316000C0C241F3BFC240F3BEC23FF3B4EC0EF0A5
:1031700001C024F099C242F398C241F397C240F3D0
:1031800096C23FF3B4EC0EF001C025F0E9C242F361
:10319000E8C241F3E7C240F3E6C23FF3B4EC0EF0FD
:1031A00001C026F0F5C242F3F4C241F3F3C240F38A
:1031B000F2C23FF3B4EC0EF001C027F099C242F323
:1031C00098C241F397C240F396C23FF3B4EC0EF0BD
:1031D0000301466B01C045F300019AEC07F0D88269
:1031E00099C247F398C246F397C245F396C244F397
:1031F00003C04BF302C04AF301C049F300C048F3D7
:103200008EEC08F003C0C5F202C0C4F201C0C3F2E4
:1032100000C0C2F2C5C247F3C4C246F3C3C245F3FD
:10322000C2C244F303014B6B4A6B200E496F820EFE
:10323000486F000100EC0AF003C0C5F202C0C4F2FE
:1032400001C0C3F200C0C2F2C5C242F3C4C241F31E
:10325000C3C240F3C2C23FF3B4EC0EF001C028F089
:103260006DC229F06CC22AF0A1C242F3A0C241F3A0
:103270009FC240F39EC23FF3B4EC0EF001C02BF0AE
:10328000A1C242F3A0C241F39FC240F39EC23FF3EA
:10329000B4EC0EF00301466B01C045F300019AEC5B
:1032A00007F0D882A1C247F3A0C246F39FC245F3FC
:1032B0009EC244F303C04BF302C04AF301C049F37A
:1032C00000C048F38EEC08F003C0C9F202C0C8F297
:1032D00001C0C7F200C0C6F2C9C247F3C8C246F374
:1032E000C7C245F3C6C244F303014B6B4A6B200EC1
:1032F000496F820E486F000100EC0AF003C0C9F26A
:1033000002C0C8F201C0C7F200C0C6F2C9C242F38F
:10331000C8C241F3C7C240F3C6C23FF3B4EC0EF0DB
:1033200001C02CF0A5C242F3A4C241F3A3C240F3F2
:10333000A2C23FF3B4EC0EF001C02DF0A5C242F3DF
:10334000A4C241F3A3C240F3A2C23FF3B4EC0EF017
:103350000301466B01C045F300019AEC07F0D882E7
:10336000A5C247F3A4C246F3A3C245F3A2C244F3E5
:1033700003C04BF302C04AF301C049F300C048F355
:103380008EEC08F003C0D5F202C0D4F201C0D3F233
:1033900000C0D2F2D5C247F3D4C246F3D3C245F33C
:1033A000D2C244F303014B6B4A6B200E496F820E6D
:1033B000486F000100EC0AF003C0D5F202C0D4F25D
:1033C00001C0D3F200C0D2F2D5C242F3D4C241F35D
:1033D000D3C240F3D2C23FF3B4EC0EF001C02EF0E2
:1033E00051C242F350C241F34FC240F34EC23FF3C9
:1033F000B4EC0EF001C02FF051C242F350C241F3C1
:103400004FC240F34EC23FF3B4EC0EF00301466BE3
:1034100001C045F300019AEC07F0D88251C247F38E
:1034200050C246F34FC245F34EC244F303C04BF3C0
:1034300002C04AF301C049F300C048F38EEC08F023
:1034400003C0D9F202C0D8F201C0D7F200C0D6F250
:10345000D9C247F3D8C246F3D7C245F3D6C244F324
:1034600003014B6B4A6B200E496F820E486F0001BF
:1034700000EC0AF003C0D9F202C0D8F201C0D7F2C2
:1034800000C0D6F2D9C242F3D8C241F3D7C240F34A
:10349000D6C23FF3B4EC0EF001C030F0B5C242F337
:1034A000B4C241F3B3C240F3B2C23FF3B4EC0EF086
:1034B00001C031F0B5C242F3B4C241F3B3C240F32C
:1034C000B2C23FF3B4EC0EF00301466B01C045F30A
:1034D00000019AEC07F0D882B5C247F3B4C246F3B4
:1034E000B3C245F3B2C244F303C04BF302C04AF384
:1034F00001C049F300C048F38EEC08F003C0DDF2D0
:1035000002C0DCF201C0DBF200C0DAF2DDC247F338
:10351000DCC246F3DBC245F3DAC244F303014B6B72
:103520004A6B200E496F820E486F000100EC0AF0D2
:1035300003C0DDF202C0DCF201C0DBF200C0DAF24F
:10354000DDC242F3DCC241F3DBC240F3DAC23FF337
:10355000B4EC0EF001C032F06AC233F0F9C242F3AB
:10356000F8C241F3F7C240F3F6C23FF3B4EC0EF0F9
:1035700001C034F0010E03013F6F416B220E406F1A
:10358000436B200E426F020E446F000122EF10F0D9
:10359000020186A1BBD08DC23FF300017BEC0AF093
:1035A00003C0EDF202C0ECF201C0EBF200C0EAF29F
:1035B000EDC242F3ECC241F3EBC240F3EAC23FF387
:1035C000B4EC0EF00301466B01C045F300019AEC28
:1035D00007F0D882EDC247F3ECC246F3EBC245F3E5
:1035E000EAC244F303C04BF302C04AF301C049F3FB
:1035F00000C048F38EEC08F003C0C1F202C0C0F274
:1036000001C0BFF200C0BEF2C1C247F3C0C246F360
:10361000BFC245F3BEC244F303014B6B4A6B200E9D
:10362000496F820E486F000100EC0AF003C0C1F23E
:1036300002C0C0F201C0BFF200C0BEF2050E03011D
:103640003F6F00019BEC0CF003C0F5F202C0F4F2F6
:1036500001C0F3F200C0F2F2050E03013F6F00015A
:103660009BEC0CF003C042F302C041F301C040F3F5
:1036700000C03FF3B4EC0EF002C083F201C082F24E
:10368000050E03013F6F000199EC0DF003C0F9F244
:1036900002C0F8F201C0F7F200C0F6F2050E030115
:1036A0003F6F000199EC0DF003C042F302C041F3FB
:1036B00001C040F300C03FF3B4EC0EF002C085F24D
:1036C00001C084F2958802016A6B83B86A2B958ADF
:1036D0006B6B83BA6B2B95806C6B83B06C2B958472
:1036E0006D6B83B46D2BF5C242F3F4C241F3F3C2A8
:1036F00040F3F2C23FF30001B4EC0EF001C06EF2F1
:10370000D2EC0EF0FBEC0EF0020186917D511B080D
:1037100027E2FF0A03E17C51200822E28B5320E1DB
:103720000301436B426B416B800E406FF5C247F360
:10373000F4C246F3F3C245F3F2C244F300015EEC77
:103740000CF002E38A8C939C010E0201686F8A9848
:1037500093988A9A939A8B9094908B92949260D13A
:10376000605336E18B2D34D0EDC243F3ECC242F30B
:10377000EBC241F3EAC240F30301476B466B480ECC
:10378000456F850E446F00015EEC0CF016E20301FC
:10379000436B426B110E416F860E406FEDC247F3D3
:1037A000ECC246F3EBC245F3EAC244F300015EEC1F
:1037B0000CF0D8B002D002010BD0020E0201686FEB
:1037C0008A9893988A9A939A8B9094908B929492D9
:1037D0007F5101080FE2FF0A03E17E51D0080AE29F
:1037E000010E696F8A9893988A9A939A8B90949015
:1037F0008B929492672DBFD0958883A8BCD0958A70
:1038000083AAB9D06953D8A4B6D06853D8A4B3D08A
:10381000958C83BC08D0958083A005D000017AEFF9
:1038200010F005D002018B9094908B92949203013A
:10383000436B426B200E416F850E406FF9C247F318
:10384000F8C246F3F7C245F3F6C244F300015EEC5A
:103850000CF001E231E1020156BD2DD0020E030150
:103860003F6FFA0E456F000185EC07F003013F2F13
:10387000F8D7436B426B200E416F850E406FF9C243
:1038800047F3F8C246F3F7C245F3F6C244F300012A
:103890005EEC0CF001E210E18A8A939A040E0301B7
:1038A0003F6FFA0E456F000185EC07F003013F2FD3
:1038B000F8D70201568D0001020156AD59D08A8A0F
:1038C000939A5D510A0819E1EDC243F3ECC242F349
:1038D000EBC241F3EAC240F30301476B466B340E7F
:1038E000456F850E446F00015EEC0CF003E38A8C9B
:1038F000939C02D08A9C939C02015D5105081AE1B9
:10390000EDC243F3ECC242F3EBC241F3EAC240F32F
:103910000301476B466B3E0E456F850E446F0001F9
:103920005EEC0CF001E203E18A8C939C02D08A9C4D
:10393000939C02015D510F081AE1EDC243F3ECC202
:1039400042F3EBC241F3EAC240F30301476B466B1B
:103950002A0E456F850E446F00015EEC0CF001E20B
:1039600003E18A8C939C02D08A9C939C020102D032
:103970008A9C939C06D08B9094908B9294928A9A76
:10398000939AD882E9C247F3E8C246F3E7C245F307
:10399000E6C244F303014B6B4A6B496B7F0E486FE1
:1039A00000018EEC08F003C043F302C042F301C0F3
:1039B00041F300C040F3EDC247F3ECC246F3EBC263
:1039C00045F3EAC244F35EEC0CF001E20AE10201C5
:1039D0008C510308D8B402D0000103D0010E8B6FC4
:1039E0008C6F0201602D0AD08A8C939C8A989398E0
:1039F0008A9A939A8B9094908B9294926051030838
:103A00000FE1958A83AA0CD08A9A939A8A8C939C08
:103A10008B9094908B9294926751030801E1FF0080
:083A20000001CBEF16F00300DA
:020000040030CA
:0E00000020CE3E1E000781000FC00FE00F4013
:00000001FF
;PIC18F4550
;CRC=43D6  CREATED="15-may.-18 10:17"
