:04000000A4EF35F044
:080008005DEF00F000000000B4
:100010000000000000000000046ED8CF05F0E0CF23
:1000200006F00001E9CF0CF0EACF07F0E1CF08F0CD
:10003000E2CF09F0D9CF0AF0DACF0BF0F3CF12F00C
:10004000F4CF13F0FACF14F0FBCF15F000C00EF090
:1000500001C00FF002C010F003C011F0F2AA34EF9B
:1000600000F0F2B4D4EF01F09DA03AEF00F09EB0A2
:1000700000EF02F00EC000F00FC001F010C002F05F
:1000800011C003F00CC0E9FF07C0EAFF078E08C0EB
:10009000E1FF09C0E2FF0AC0D9FF0BC0DAFF12C0BE
:1000A000F3FF13C0F4FF14C0FAFF15C0FBFF0450A8
:1000B00006C0E0FF05C0D8FF1000176ED8CF18F0BB
:1000C000E0CF19F00001E9CF1FF0EACF1AF0E1CF3D
:1000D0001BF0E2CF1CF0D9CF1DF0DACF1EF0F3CF2A
:1000E00025F0F4CF26F0FACF27F0FBCF28F000C0A0
:1000F00021F001C022F002C023F003C024F09DAA29
:1001000085EF00F09EBA9DEF01F021C000F022C003
:1001100001F023C002F024C003F01FC0E9FF1AC0A1
:10012000EAFF1A8E1BC0E1FF1CC0E2FF1DC0D9FF11
:100130001EC0DAFF25C0F3FF26C0F4FF27C0FAFF78
:1001400028C0FBFF175019C0E0FF18C0D8FF1000EF
:100150004C49515549444F532041000000000000D4
:100160000000000043415543484F000000000000DC
:100170000000000000000000494E535452554D4508
:100180004E54414C00000000000000004C49515505
:1001900049444F53204200000000000000000000CE
:1001A0004C494252450000000000000000000000E1
:1001B00000000000544553540000000000000000FF
:1001C0000000000000000000484F52412059204626
:1001D000454348410000000000000000434C4156E8
:1001E00045000000000000000000000000000000CA
:1001F0004441544F53004125752E7478743D222D8F
:100200002D2D2D2200004125752E7478743D22502D
:1002100061726164612200004125752E7478743D1D
:10022000225075657274612200004125752E747824
:10023000743D225465726D6F737461746F22000097
:100240004125752E7478743D22536F627265542275
:1002500000004125752E7478743D225469656D70D7
:100260006F2200004125752E7478743D225072650E
:1002700073696F6E22004125752E7478743D224596
:100280005252204369636C6F22004125752E7478A9
:10029000743D224C6C656E61646F22004125752EA1
:1002A0007478743D2250726543616C656E74616E42
:1002B000646F22004125752E7478743D2256616367
:1002C000696F22004125752E7478743D2243616C5C
:1002D000656E22004125752E7478743D2244657345
:1002E000666F676122004125752E7478743D224641
:1002F000696E616C697A61646F2200004125752E18
:100300007478743D22536563616E646F22004125E9
:10031000752E7478743D224573746572696C697AC0
:10032000616E646F22004125752E7478743D2245FC
:100330006E667269616E646F22009EAAFED7AECFB0
:1003400061F303016151650803E1010E5F6F466AC5
:100350005F2D0AD0036A46503B0FE96E000E032062
:10036000EA6E61C3EFFF462A4650090802E2466A78
:100370005F6B465210E13B5065080BE13C3C09D0F5
:100380003D3C07D0435205E1443C03D0050E606F6D
:1003900002D00A0E606F6351140802E18C809590C0
:1003A0009E9A000185EF00F0D76AD66A0301952B6B
:1003B000D8B4962B0001A0AD20D003017B531AE1E5
:1003C0007A51050817E39651855D07E303E19551DE
:1003D000845D03E38C88959802D08C98959896510B
:1003E000E90807E2FF0A03E195515F0802E2966B14
:1003F000956B02D08C8895980001F2943AEF00F04A
:100400009E0ECF6E580ECE6E0301722BD8B4732B96
:10041000742BD8B4752B762BD8B4772B782BD8B413
:10042000792B0001A2AF05D00301972BD8B4982BEC
:100430000001A3A504D00301992BD8B49A2B030182
:100440005B2D1ED079510001AC5D0CE308E1AB518E
:100450000301785DD8A002D0000104D000018B9484
:10046000949402D08B849494AE510301795D08E397
:1004700005E10001AD510301785D02E3796B786B12
:10048000735304E17251C708D8B09DD00001A4AFE6
:1004900002D00301922B03015A2B0001A0A309D023
:1004A00003015E51715DD8A002D0000102D0712B12
:1004B00006D003015E51715D02E35881716B00014A
:1004C000A3AD05D003019D2BD8B49E2B0001A0A3A2
:1004D0000AD0A0B508D0A52BD8B4A62B03019B2B1E
:1004E000D8B49C2B00019FAF05D0A0B103D0A72B9F
:1004F000D8B4A82BA0A903D0A92BD8B4AA2BA4A503
:1005000003D0AF2BD8B4B02B0301736B726B000117
:10051000A48903017C2BD8B47D2B0001A0A529D090
:10052000A0BB27D0B1BF05D0B151000802E2B1078E
:1005300020D0B2BF07D0B251000804E2B207090EC2
:10054000B16F17D0B3BF09D0B351000806E2B307AB
:10055000050EB26F090EB16F0CD0B4BF0AD0B45102
:10056000000807E2B407090EB36F050EB26F090E5B
:10057000B16FA0A727D0BBBF05D0BB51000802E2D6
:10058000BB0720D0BCBF07D0BC51000804E2BC07A9
:10059000090EBB6F17D0BDBF09D0BD51000806E2E0
:1005A000BD07050EBC6F090EBB6F0CD0BEBF0AD0D5
:1005B000BE51000807E2BE07090EBD6F050EBC6FF5
:1005C000090EBB6F03019E9000013AEF00F07061CD
:1005D0006765204269656E76656E69646100626B6D
:1005E000636D643D30007061676520436C617665C2
:1005F00000007061676520456D657267656E6369AF
:100600006100626B636D643D30007061676520431B
:100610006C617665000074302E7478743D22257507
:1006200022007661302E76616C3D310074302E747C
:1006300078743D222575257522007661302E76610D
:100640006C3D320074302E7478743D22257525750A
:10065000257522007661302E76616C3D3300743052
:100660002E7478743D222575257525752575220013
:100670007661302E76616C3D340074302E7478745F
:100680003D2222007061676520436C617665436F8F
:1006900072726563746100007061676520436C610C
:1006A0007665426164007061676520436F6E6669BC
:1006B000670070616765204D656E755072696E6385
:1006C0006970616C00007061676520436C617665DC
:1006D0000000746974756C6F2E7478743D22436CDD
:1006E000617665204E7565766122000070616765F0
:1006F000204D656E755072696E636970616C0000A3
:10070000746974756C6F2E7478743D22436C6176D5
:1007100065204E7565766122000070616765204D29
:10072000656E755072696E636970616C000070610E
:100730006765204D656E755072696E636970616C96
:100740000000746974756C6F2E7478743D22436C6C
:10075000617665204E75657661220000646F65766E
:10076000656E74730000746974756C6F2E747874A0
:100770003D22436C6176652041637475616C220093
:10078000646F6576656E74730000746974756C6F60
:100790002E7478743D22436C617665205465636ED7
:1007A00069636F220000646F6576656E7473000084
:1007B000746974756C6F2E7478743D22496E67721B
:1007C00065736520436F6E7472617365F161220019
:1007D0007061676520436C617665436F7272656313
:1007E000746100007061676520436C6176654261E9
:1007F00064007061676520436F6E666967007061B1
:100800006765204D656E755072696E636970616CC5
:1008100000007061676520436C6176650000746953
:1008200074756C6F2E7478743D22436C617665200C
:100830004E7565766122000070616765204D656EBA
:10084000755072696E636970616C000074697475CB
:100850006C6F2E7478743D22436C617665204E7502
:1008600065766122000070616765204D656E755088
:1008700072696E636970616C000066656368612E01
:100880007478743D22543A25332E3166B0432046A5
:10089000656368613A253032752F253032752F3205
:1008A000302530327520486F72613A20253032751C
:1008B0003A253032753A253032752200706167650D
:1008C00020436C6176650000706167652043696351
:1008D0006C6F73007061676520436C617665000022
:1008E00070616765204665636861000070616765D7
:1008F00020546573740070616765204369636C6F91
:10090000506572736F6E610070616765204E697625
:10091000656C000070616765204E6976656C00004B
:10092000706167652046756E63696F6E616D69659C
:100930006E746F00706167652046756E63696F6ED7
:10094000616D69656E746F0062632E7069633D2529
:10095000750062642E7069633D25750062692E70B2
:1009600069633D25750062632E706963323D2575AC
:10097000000062642E706963323D25750000626973
:100980002E706963323D25750000746578746F7050
:100990002E7478743D222573220062632E70696381
:1009A0003D25750062642E7069633D25750062699E
:1009B0002E7069633D25750062632E706963323D58
:1009C0002575000062642E706963323D2575000054
:1009D00062692E706963323D257500007465787414
:1009E0006F702E7478743D222573220062632E701E
:1009F00069633D25750062642E7069633D2575004D
:100A000062692E7069633D25750062632E706963AB
:100A1000323D2575000062642E706963323D257594
:100A2000000062692E706963323D257500007465AF
:100A300078746F702E7478743D222573220074745C
:100A40006974756C6F2E7478743D2253454C454320
:100A500043494F4E45205355204349434C4F2200B4
:100A60007061676520436C61766500006665636848
:100A7000612E7478743D22543A25332E3166B0438A
:100A80002046656368613A253032752F253032750E
:100A90002F32302530327520486F72613A20253070
:100AA00032753A253032753A253032752200706140
:100AB0006765204369636C6F506572736F6E610088
:100AC000747365636573742E70636F3D36353533AB
:100AD0003500746D696E6573742E70636F3D300000
:100AE000747365636573742E70636F3D3000746D4D
:100AF000696E6573742E70636F3D3635353335001E
:100B0000746D696E6573742E7478743D222530326D
:100B100075220000747365636573742E7478743D78
:100B2000222530327522000066656368612E747874
:100B3000743D22543A25332E3166B0432046656316
:100B400068613A253032752F253032752F323025C5
:100B500030327520486F72613A20253032753A255F
:100B60003032753A25303275220070616765204356
:100B700069636C6F506572736F6E6100746D696E3E
:100B80007365632E70636F3D3000747365637365C6
:100B9000632E70636F3D363535333500746D696E85
:100BA0007365632E70636F3D36353533350074736E
:100BB00065637365632E70636F3D3000746D696E9D
:100BC0007365632E7478743D2225303275220000DF
:100BD000747365637365632E7478743D22253032B7
:100BE0007522000066656368612E7478743D224644
:100BF000656368613A253032752F253032752F32A2
:100C0000302530327520202020486F72613A20252F
:100C10003032753A253032752200706167652043A5
:100C200069636C6F506572736F6E61007473657485
:100C300074656D2E7478743D222530337522000062
:100C400066656368612E7478743D22543A25332EAC
:100C50003166B0432046656368613A253032752FAE
:100C6000253032752F32302530327520486F726151
:100C70003A20253032753A253032753A25303275B2
:100C8000220070616765204369636C6F5065727301
:100C90006F6E6100706167652046756E63696F6E87
:100CA000616D69656E746F00746E6976656C2E7423
:100CB00078743D22254C7522000062312E62636FEC
:100CC0003D323031360062312E62636F3D3633344F
:100CD0003838000062302E62636F3D3230313600AA
:100CE00062302E62636F3D36333438380000623232
:100CF0002E62636F3D323031360062322E62636F96
:100D00003D3633343838000062342E62636F3D3232
:100D10003031360062342E62636F3D3633343838FA
:100D2000000062332E62636F3D3230313600623331
:100D30002E62636F3D3633343838000062382E62DD
:100D4000636F3D323031360062382E62636F3D365C
:100D500033343838000062392E62636F3D323031EF
:100D6000360062392E62636F3D3633343838000006
:100D70006231302E62636F3D3230313600006231B5
:100D8000302E62636F3D3633343838006231322E94
:100D900062636F3D3230313600006231322E626361
:100DA0006F3D3633343838006231362E62636F3D22
:100DB0003230313600006231362E62636F3D363399
:100DC000343838006231372E62636F3D323031364D
:100DD00000006231372E62636F3D3633343838009D
:100DE0006231332E7478743D22414443303A2533C6
:100DF0002E30662200006231342E7478743D224118
:100E00004443313A25332E30662200006231352EBC
:100E10007478743D2241323A25332E3066202530D5
:100E2000334C752200006231382E7478743D2241B3
:100E3000333A25332E3066202530334C752200009E
:100E40006232302E7478743D2254313A25332E317B
:100E50006622000070616765204D656E755072698D
:100E60006E636970616C000070616765204D656E2E
:100E7000755072696E636970616C000074686F729E
:100E8000612E7478743D2225303275220000746D15
:100E9000696E75746F732E7478743D2225303275C7
:100EA0002200746469612E7478743D222530327595
:100EB0002200746D65732E7478743D22253032756E
:100EC000220074796561722E7478743D2225303267
:100ED0007522000066656368612E7478743D225443
:100EE0003A25332E3166B0432046656368613A2562
:100EF0003032752F253032752F3230253032752043
:100F0000486F72613A20253032753A253032753A91
:100F10002530327522006369636C6F2E7478743DDE
:100F2000224349434C4F20502530327522007465CE
:100F30006D702E7478743D2225752200746573746B
:100F40002E7478743D22253032753A253032752260
:100F50000000747365632E7478743D2225303275F9
:100F60003A25303275220000646573666F677565D7
:100F70002E7478743D22257522006369636C6F2E90
:100F80007478743D224349434C4F20502D2D22004C
:100F900074656D702E7478743D222D2D2200746559
:100FA00073742E7478743D222D2D3A2D2D2200005D
:100FB000747365632E7478743D222D2D3A2D2D2285
:100FC0000000646573666F6775652E7478743D22E2
:100FD0002D2D22006369636C6F2E7478743D22435B
:100FE00049434C4F205025303275220074656D7096
:100FF0002E7478743D2225752200746573742E74E6
:1010000078743D22253032753A2530327522000041
:10101000747365632E7478743D22253032753A25D9
:10102000303275220000646573666F6775652E74D3
:1010300078743D222575220070616765204D656ECC
:10104000755072696E636970616C000070616765EC
:101050002054656D70657261747572610000706115
:101060006765205469656D706F4573740000706129
:101070006765205469656D706F536563000070612A
:101080006765204E6976656C000070616765204673
:10109000756E63696F6E616D69656E746F00706106
:1010A0006765204D656E755072696E636970616C1D
:1010B000000068302E76616C3D25750068312E7613
:1010C000616C3D25750068312E76616C3D2575009B
:1010D00068302E76616C3D25750074302E747874FE
:1010E0003D2221494D5052494D49454E444F212200
:1010F000000066656368612E7478743D2225303285
:10110000752F253032752F25303275220000636926
:10111000636C6F2E7478743D222530327522000086
:1011200074302E7478743D224369636C6F202530CF
:10113000327522007573756172696F2E7478743D13
:10114000222D2D2D2200686F726125752E74787402
:101150003D22253032752E2020253032753A25303B
:10116000327522005425752E7478743D2225332E55
:101170003166B0432200506325752E7478743D2289
:101180002530334C756B5061220050706325752EED
:101190007478743D222530334C756B506122000009
:1011A00070616765204D656E755072696E63697018
:1011B000616C00007061676520436C6176650000BA
:1011C0007432662E7478743D2225752200007433C3
:1011D000662E7478743D2225732200007432662EC8
:1011E0007478743D2225752200007433662E74785D
:1011F000743D22506572736F6E616C697A61646FC1
:10120000220046756E63696F6E616D69656E746FFD
:101210002E7434662E7478743D222050617261649D
:101220006120646520456D657267656E6369612242
:10123000000046756E63696F6E616D69656E746FEF
:101240002E7435662E7478743D222043616E63657A
:101250006C61646F220046756E63696F6E616D69C3
:10126000656E746F2E7434662E7478743D2220502F
:101270007565727461204162696572746122000053
:1012800046756E63696F6E616D69656E746F2E74FD
:1012900035662E7478743D22205061757361646FD9
:1012A000220046756E63696F6E616D69656E746F5D
:1012B0002E7434662E7478743D22205469656D70E6
:1012C0006F204C6C656E61646F22000046756E6322
:1012D000696F6E616D69656E746F2E7435662E74FC
:1012E00078743D222043616E63656C61646F2200F7
:1012F00046756E63696F6E616D69656E746F2E748D
:1013000034662E7478743D22205465726D6F737448
:1013100061746F22000046756E63696F6E616D695E
:10132000656E746F2E7435662E7478743D2220437A
:10133000616E63656C61646F220046756E63696FF0
:101340006E616D69656E746F2E7434662E74787478
:101350003D2220536F62726574656D7065726174B1
:1013600075726122000046756E63696F6E616D690A
:10137000656E746F2E7435662E7478743D2220432A
:10138000616E63656C61646F220046756E63696FA0
:101390006E616D69656E746F2E7434662E74787428
:1013A0003D22205469656D706F2050726F6C6F6EB6
:1013B0006761646F220046756E63696F6E616D6967
:1013C000656E746F2E7435662E7478743D222043DA
:1013D000616E63656C61646F220046756E63696F50
:1013E0006E616D69656E746F2E7434662E747874D8
:1013F0003D2220536F62726550726573696F6E2271
:10140000000046756E63696F6E616D69656E746F1D
:101410002E7435662E7478743D222043616E6365A8
:101420006C61646F220046756E63696F6E616D69F1
:10143000656E746F2E7434662E7478743D22204568
:1014400072726F72204369636C6F220046756E631F
:10145000696F6E616D69656E746F2E7435662E747A
:1014600078743D222043616E63656C61646F220075
:1014700046756E63696F6E616D69656E746F2E740B
:1014800034662E7478743D22204E696E67756E61E5
:10149000220046756E63696F6E616D69656E746F6B
:1014A0002E7435662E7478743D2220507265436127
:1014B0006C656E74616E646F220046756E63696F51
:1014C0006E616D69656E746F2E7434662E747874F7
:1014D0003D22204E696E67756E61220046756E630F
:1014E000696F6E616D69656E746F2E7435662E74EA
:1014F00078743D222043616C656E74616E646F2266
:10150000000046756E63696F6E616D69656E746F1C
:101510002E7434662E7478743D22204E696E677581
:101520006E61220046756E63696F6E616D69656EEE
:10153000746F2E7435662E7478743D222046696E61
:10154000616C697A61646F22000046756E63696F31
:101550006E616D69656E746F2E7434662E74787466
:101560003D22204E696E67756E61220046756E637E
:10157000696F6E616D69656E746F2E7435662E7459
:1015800078743D2220446573707265737572697A50
:10159000616E646F220046756E63696F6E616D697E
:1015A000656E746F2E7434662E7478743D22204EEE
:1015B000696E67756E61220046756E63696F6E6154
:1015C0006D69656E746F2E7435662E7478743D2265
:1015D0002046696E616C697A61646F22000046750D
:1015E0006E63696F6E616D69656E746F2E743466BB
:1015F0002E7478743D22204E696E67756E612200EC
:1016000046756E63696F6E616D69656E746F2E7479
:1016100035662E7478743D2220536563616E646F65
:10162000220046756E63696F6E616D69656E746FD9
:101630002E7434662E7478743D22204E696E677560
:101640006E61220046756E63696F6E616D69656ECD
:10165000746F2E7435662E7478743D222044657341
:10166000707265737572697A616E646F2200467577
:101670006E63696F6E616D69656E746F2E7434662A
:101680002E7478743D22204E696E67756E6122005B
:1016900046756E63696F6E616D69656E746F2E74E9
:1016A00035662E7478743D22204573746572696CBA
:1016B000697A616E646F22006164642031342C3079
:1016C0002C25312E306600006164642031342C31C9
:1016D0002C25312E306600006164642031342C32B8
:1016E0002C25312E306600007436662E7478743DD9
:1016F0002225332E3166B043220046756E63696F32
:101700006E616D69656E746F2E7437662E747874B1
:101710003D222530334C756B5061220046756E6357
:10172000696F6E616D69656E746F2E743132662EED
:101730007478743D222530334C756B506122000063
:1017400046756E63696F6E616D69656E746F2E7438
:1017500039662E7478743D22253033752200467523
:101760006E63696F6E616D69656E746F2E74313072
:10177000662E7478743D222530327522000046753D
:101780006E63696F6E616D69656E746F2E7431334F
:10179000662E7478743D222530327522000046751D
:1017A0006E63696F6E616D69656E746F2E74313131
:1017B000662E7478743D22253032752200004675FD
:1017C0006E63696F6E616D69656E746F2E7431360C
:1017D000662E7478743D22253032752200006665CD
:1017E0006368612E7478743D22543A25322E316636
:1017F0002046656368613A253032752F2530327591
:101800002F32302530327520202020486F72613A07
:1018100020253032753A253032752200436F6E66CE
:1018200069672E7432632E7478743D22416A757331
:101830007465202B22007433632E7478743D222546
:1018400075220000436F6E6669672E7432632E74D2
:1018500078743D22416A75737465202D22007433BB
:10186000632E7478743D222575220000436F6E66E6
:1018700069672E7432632E7478743D224D656469F5
:10188000612200007433632E7478743D2225752222
:101890000000436F6E6669672E7432632E7478742D
:1018A0003D224369636C6F7322007433632E747836
:1018B000743D222530354C752200436F6E66696792
:1018C0002E7432632E7478743D2241746D6F73668A
:1018D00065726963612200007433632E7478743D0D
:1018E0002225303275220000436F6E6669672E74C0
:1018F00032632E7478743D22545472616D7061228B
:1019000000007433632E7478743D222530327522C2
:101910000000436F6E6669672E7432632E747874AC
:101920003D2244657376696F22007433632E7478A8
:10193000743D2225322E31662200436F6E66696740
:101940002E7432632E7478743D2248697374657204
:101950006573697322007433632E7478743D222595
:10196000322E31662200436F6E6669672E743263D1
:101970002E7478743D22542E2041706572747572F5
:10198000612200007433632E7478743D2225303355
:101990007522000070616765204D656E7550726933
:1019A0006E636970616C000066656368612E7478AF
:1019B000743D2246656368613A253032752F2530C3
:1019C00032752F32302530327520202020486F723A
:1019D000613A20253032753A253032752200040EE6
:1019E000EA6E550EE96EEF500DE0060E016E006ACC
:1019F000002EFED7012EFBD77B0E006E002EFED7E9
:101A0000EF2EF3D7000C8E0E006E56C401F055C4B5
:101A100002F0036A015209E102C001F0026A080EF5
:101A2000005E015202E1006A08D0D89001BE04D0E5
:101A3000023601360006F9D7019E000C0401495117
:101A4000D8B4A5D0556F4D51D8B4A1D0555F05E39A
:101A50007F0E5527D8B09BD006D0810E555FD8A0F9
:101A600096D0D8B494D055C400F0016A026A036AD3
:101A7000546B4AC453F4538F4BC452F44CC451F4C6
:101A8000190E556F5051515F0DE2010E525F0AE27F
:101A9000535F08E2545F06E2542B532B522B5051F4
:101AA000512728D04F51525F12E2010E535F0FE2CF
:101AB000545F0DE2542B532B4F5152275051512755
:101AC00019E3522B17E1532B15E1542B13D04E5130
:101AD0008009535F0EE2010E545F0BE2542B4E510E
:101AE000800953274F515227E9E3532BE7E1542B49
:101AF000E5D70380552F01D00BD0D89051375237FE
:101B000053375437D8900336023601365637BAD792
:101B100056A106D0D890013202320332563302D099
:101B2000000635E056BF1ED0D89051375237533794
:101B300054375051515F07E2010E525F04E2535F88
:101B400002E2545F1AE34F51525F05E2010E535F08
:101B500002E2545F12E34E518009535F03E2010E2B
:101B6000545F0BE3032A09E1022A07E1012A05E198
:101B7000002A0DE00132023203324AC455F44E51BC
:101B8000551B55AF02D0018E06D0019E04D0006ACD
:101B9000016A026A036A0001000C800ED8A202D01A
:101BA00004015A1B04015F6B606B56C45EF45A510A
:101BB0005E1B5551D8B4DFD05D6F006E5951D8B45B
:101BC000E3D05D5FD8B483D03EE35AC463F4638F3F
:101BD0005BC462F45CC461F4606BD89063336233BD
:101BE000613360335D2FF8D75EAF03D05F81E0D003
:101BF0005F915D915F89040EEA6E580EE96EEBD03D
:101C00005F995EBF0AD05DA113D063336233613345
:101C10006033002AD8B4C7D00BD063BF0CD0D890A3
:101C200060376137623763370006D8B4BCD0F5D768
:101C30005F8D6DD05F9D56C45EF456AF02D0638F4A
:101C4000ABD0639FA9D059C45DF459C400F055517D
:101C50005D5F56C463F4638F57C462F458C461F483
:101C6000606BD89063336233613360335D2FF8D794
:101C70005EAF03D05F839CD05F935D915F8B040E5A
:101C8000EA6E5C0EE96EA7D05F9B5EBF0AD05DA1D5
:101C900013D06333623361336033002AD8B483D006
:101CA0000BD063BF0CD0D890603761376237633791
:101CB0000006D8B478D0F5D75F8F29D05F9F5AC47B
:101CC0005EF45AAF02D0638F67D0639F65D05AC469
:101CD00063F4638F5BC462F45CC461F45EAF04D0F0
:101CE000639F5F8565D05F95606B5D91040EEA6EC2
:101CF000580EE96E70D05EBF1CD056C45EF45DA174
:101D000006D06333623361336033002A4CE060AF46
:101D10000BD0612B09E1622B07E1632B05E16333F3
:101D200062336133002A3FE05FBD84D75FBFC6D70F
:101D30001CD0800E631B63AF04D03AD05AC45EF44B
:101D40000AD056C45EF4635306E1625304E1615362
:101D500002E1006A21D063BF08D0D89060376137B4
:101D600062376337002EF7D71ED05EAF02D0638F85
:101D700013D0639F11D059C400F05AC463F45BC4FC
:101D800062F45CC461F408D055C400F056C463F436
:101D900057C462F458C461F463C401F062C402F031
:101DA00061C403F034D0006A016A026A036A2FD06A
:101DB000606B611F621F631F601F602B05E1612B59
:101DC00003E1622B01E1632B5FB112D75FB354D7FC
:101DD0005FB589D7B3D7EF50612705E3622B03E1E5
:101DE000632BD8B45D81ED52EF50622703E3632B80
:101DF000D8B45D81ED52EF50EFBE01D0800A632769
:101E0000D8B05D815FB9FCD65FBB3ED774D7000107
:101E1000000CF2CF40F4F29CF29EAA6AA96AA69C3A
:101E2000A69EA680A850040140BDF28C40BFF28E51
:101E30000001B66F0A0E0401556F0001D0DDF2CF2C
:101E400040F4F29CF29EAA6A010EA96EA69CA69E80
:101E5000A680A850040140BDF28C40BFF28E000164
:101E6000B76F0A0E0401556F0001B9DDF2CF40F4DF
:101E7000F29CF29EAA6A020EA96EA69CA69EA6805D
:101E8000A850040140BDF28C40BFF28E0001B86F33
:101E90000A0E0401556F0001A2DDF2CF40F4F29C5E
:101EA000F29EAA6A030EA96EA69CA69EA680A850C2
:101EB000040140BDF28C40BFF28E0001B96F0A0EE2
:101EC0000401556F00018BDDF2CF40F4F29CF29ECD
:101ED000AA6A040EA96EA69CA69EA680A85004011C
:101EE00040BDF28C40BFF28E0001BF6F0A0E0401AC
:101EF000556F000174DDF2CF40F4F29CF29EAA6AA5
:101F0000050EA96EA69CA69EA680A850040140BD01
:101F1000F28C40BFF28E0001C06F0A0E0401556FB3
:101F200000015DDDF2CF40F4F29CF29EAA6A060E3B
:101F3000A96EA69CA69EA680A850040140BDF28C66
:101F400040BFF28E0001C16F0A0E0401556F0001FF
:101F500046DDF2CF40F4F29CF29EAA6A070EA96E0B
:101F6000A69CA69EA680A850040140BDF28C40BF4E
:101F7000F28E0001C26F0A0E0401556F00012FDDC1
:101F8000F2CF40F4F29CF29EAA6A080EA96EA69CBB
:101F9000A69EA680A850040140BDF28C40BFF28EE0
:101FA00003016C6F0A0E0401556F000118DDF2CFBA
:101FB00040F4F29CF29EAA6A090EA96EA69CA69E07
:101FC000A680A850040140BDF28C40BFF28E0301F0
:101FD0007B6B7A6F0A0E0401556F000100DDF2CFB2
:101FE00040F4F29CF29EAA6A0A0EA96EA69CA69ED6
:101FF000A680A850040140BDF28C40BFF28E0301C0
:102000008A6F0A0E0401556F0001E9DCF2CF40F43B
:10201000F29CF29EAA6A0B0EA96EA69CA69EA680B2
:10202000A850040140BDF28C40BFF28E03018B6FBB
:102030000A0E0401556F0001D2DCF2CF40F4F29C8D
:10204000F29EAA6A0C0EA96EA69CA69EA680A85017
:10205000040140BDF28C40BFF28E03018C6F0A0E6A
:102060000401556F0001BBDCF2CF40F4F29CF29EFC
:10207000AA6A0D0EA96EA69CA69EA680A850040171
:1020800040BDF28C40BFF28E03018D6F0A0E040139
:10209000556F0001A4DCF2CF40F4F29CF29EAA6AD4
:1020A000140EA96EA69CA69EA680A850040140BD51
:1020B000F28C40BFF28E566B556F0001A4DC03C05A
:1020C0000CF302C00BF301C00AF300C009F30A0EBF
:1020D0000401556F000183DCF2CF40F4F29CF29EC4
:1020E000AA6A150EA96EA69CA69EA680A8500401F9
:1020F00040BDF28C40BFF28E0201D96F0A0E04017E
:10210000556F00016CDCF2CF40F4F29CF29EAA6A9B
:10211000160EA96EA69CA69EA680A850040140BDDE
:10212000F28C40BFF28E0201DA6F0A0E0401556F85
:10213000000155DCF2CF40F4F29CF29EAA6A180E20
:10214000A96EA69CA69EA680A850040140BDF28C54
:1021500040BFF28E0201DB6F0A0E0401556F0001D1
:102160003EDCF2CF40F4F29CF29EAA6A190EA96EF0
:10217000A69CA69EA680A850040140BDF28C40BF3C
:10218000F28E566B556F00013EDC03C0F4F202C0C4
:10219000F3F201C0F2F200C0F1F20A0E0401556F31
:1021A00000011DDCF2CF40F4F29CF29EAA6A1A0EE6
:1021B000A96EA69CA69EA680A850040140BDF28CE4
:1021C00040BFF28E0301416F0A0E0401556F0001FA
:1021D00006DCF2CF40F4F29CF29EAA6A1B0EA96EB6
:1021E000A69CA69EA680A850040140BDF28C40BFCC
:1021F000F28E0301426F0A0E0401556F0001EFECED
:102200000CF0F2CF40F4F29CF29EAA6A1D0EA96E69
:10221000A69CA69EA680A850040140BDF28C40BF9B
:10222000F28E566B556F000103EC0DF003C0AEF259
:1022300002C0ADF201C0ACF200C0ABF2AEC24CF4D1
:10224000ADC24BF4ACC24AF4ABC249F40401506BCA
:102250004F6B200E4E6F820E4D6F00011EEC0DF085
:1022600003C0AEF202C0ADF201C0ACF200C0ABF2EE
:102270000A0E0401556F0001EFEC0CF0F2CF40F4B0
:10228000F29CF29EAA6A1C0EA96EA69CA69EA6802F
:10229000A850040140BDF28C40BFF28E566B556FC2
:1022A000000103EC0DF0D89203C058F402C057F4BB
:1022B00001C056F400C055F4AEC25CF4ADC25BF48C
:1022C000ACC25AF4ABC259F468DC03C0A6F202C037
:1022D000A5F201C0A4F200C0A3F20A0E0401556FDA
:1022E0000001EFEC0CF0F2CF40F4F29CF29EAA6AEF
:1022F0001F0EA96EA69CA69EA680A850040140BDF4
:10230000F28C40BFF28E416FF2CF42F4F29CF29E0B
:10231000AA6A1E0EA96EA69CA69EA680A85042BDC3
:10232000F28C42BFF28E436F41C403F04351556FAC
:1023300003C056F4000103EC0DF003C0B2F202C07A
:10234000B1F201C0B0F200C0AFF20A0E0401556F45
:102350000001EFEC0CF0F2CF40F4F29CF29EAA6A7E
:10236000200EA96EA69CA69EA680A850040140BD82
:10237000F28C40BFF28E03016B6F0A0E0401556FA1
:102380000001EFEC0CF00401566B6BC355F4000137
:1023900003EC0DF003C034F302C033F301C032F399
:1023A00000C031F334C34CF433C34BF432C34AF4AA
:1023B00031C349F40401506B4F6B200E4E6F820EF7
:1023C0004D6F00011EEC0DF003C034F302C033F377
:1023D00001C032F300C031F3F2CF40F4F29CF29E20
:1023E000AA6A210EA96EA69CA69EA680A8500401EA
:1023F00040BDF28C40BFF28E03016A6F0A0E0401E9
:10240000556F0001EFEC0CF00401566B6AC355F4F4
:10241000000103EC0DF003C014F302C013F301C07C
:1024200012F300C011F314C34CF413C34BF412C3E2
:102430004AF411C349F40401506B4F6B200E4E6FE8
:10244000820E4D6F00011EEC0DF003C014F302C0AC
:1024500013F301C012F300C011F3F2CF40F4F29C69
:10246000F29EAA6A250EA96EA69CA69EA680A850DA
:10247000040140BDF28C40BFF28E0301676F0A0E6B
:102480000401556F0001EFEC0CF0F2CF40F4F29C28
:10249000F29EAA6A260EA96EA69CA69EA680A850A9
:1024A000040140BDF28C40BFF28E0301686F0A0E3A
:1024B0000401556F0001EFEC0CF068C383F367C3B0
:1024C00082F30A0E0401556F0001EFEC0CF0F2CF1D
:1024D00040F4F29CF29EAA6A270EA96EA69CA69EC4
:1024E000A680A850040140BDF28C40BFF28E0201CC
:1024F000DC6F0A0E0401556F0001EFEC0CF0F2CF17
:1025000040F4F29CF29EAA6A280EA96EA69CA69E92
:10251000A680A850040140BDF28C40BFF28E02019B
:10252000E86F0A0E0401556F0001EFEC0CF0F2CFDA
:1025300040F4F29CF29EAA6A290EA96EA69CA69E61
:10254000A680A850040140BDF28C40BFF28E03016A
:102550005D6F0A0E0401556F0001EFEC0CF0F2CF35
:1025600040F4F29CF29EAA6A2A0EA96EA69CA69E30
:10257000A680A850040140BDF28C40BFF28E03013A
:10258000B06F0A0E0401556F0001EFEC0CF0F2CFB2
:1025900040F4F29CF29EAA6A2B0EA96EA69CA69EFF
:1025A000A680A850040140BDF28C40BFF28E03010A
:1025B000B16F0A0E0401556F0001EFEC0CF0F2CF81
:1025C00040F4F29CF29EAA6A2C0EA96EA69CA69ECE
:1025D000A680A850040140BDF28C40BFF28E0301DA
:1025E000B26F0A0E0401556F0001EFEC0CF0F2CF50
:1025F00040F4F29CF29EAA6A2D0EA96EA69CA69E9D
:10260000A680A850040140BDF28C40BFF28E0301A9
:10261000B36F0A0E0401556F0001EFEC0CF0F2CF1E
:1026200040F4F29CF29EAA6A2E0EA96EA69CA69E6B
:10263000A680A850040140BDF28C40BFF28E030179
:10264000AF6F666B66510308D8A0E4D266510A0DDD
:10265000F3500401416B406F180E4025E96E040EE3
:102660004121EA6E03016651080DF350640F040125
:10267000426FF2CF43F4F29CF29EAA6A42C4A9FFD1
:10268000A69CA69EA680A85043BDF28C43BFF28EA6
:10269000EF6E030166510A0DF3500401416B406F68
:1026A000010E4025016E000E4121036E0150180FEE
:1026B000E96E040E0320EA6E03016651080DF35023
:1026C000650F0401426FF2CF43F4F29CF29EAA6AB6
:1026D00042C4A9FFA69CA69EA680A85043BDF28C2A
:1026E00043BFF28EEF6E030166510A0DF3500401F1
:1026F000416B406F090E4025016E000E4121036EB3
:102700000150180FE96E040E0320EA6E03016651B2
:10271000080DF350660F0401426FF2CF43F4F29CB0
:10272000F29EAA6A42C4A9FFA69CA69EA680A850B3
:1027300043BDF28C43BFF28EEF6E030166510A0D6A
:10274000F3500401416B406F030E4025016E000EF3
:102750004121036E0150180FE96E040E0320EA6E4A
:1027600003016651080DF350670F0401426FF2CF69
:1027700043F4F29CF29EAA6A42C4A9FFA69CA69EBC
:10278000A680A85043BDF28C43BFF28EEF6E0301CA
:1027900066510A0DF3500401416B406F040E402551
:1027A000016E000E4121036E0150180FE96E040EF8
:1027B0000320EA6E03016651080DF350680F04010F
:1027C000426FF2CF43F4F29CF29EAA6A42C4A9FF80
:1027D000A69CA69EA680A85043BDF28C43BFF28E55
:1027E000EF6E030166510A0DF3500401416B406F17
:1027F000050E4025016E000E4121036E0150180F99
:10280000E96E040E0320EA6E03016651080DF350D1
:10281000690F0401426FF2CF43F4F29CF29EAA6A60
:1028200042C4A9FFA69CA69EA680A85043BDF28CD8
:1028300043BFF28EEF6E030166510A0DF35004019F
:10284000416B406F060E4025016E000E4121036E64
:102850000150180FE96E040E0320EA6E0301665161
:10286000080DF3506A0F0401426FF2CF43F4F29C5B
:10287000F29EAA6A42C4A9FFA69CA69EA680A85062
:1028800043BDF28C43BFF28EEF6E030166510A0D19
:10289000F3500401416B406F080E4025016E000E9D
:1028A0004121036E0150180FE96E040E0320EA6EF9
:1028B00003016651080DF3506B0F0401426FF2CF14
:1028C00043F4F29CF29EAA6A42C4A9FFA69CA69E6B
:1028D000A680A85043BDF28C43BFF28EEF6E030179
:1028E00066510A0DF3500401416B406F180E4025EC
:1028F000E96E040E4121EA6EEF50800810E30301F7
:1029000066510A0DF3500401416B406F180E4025CB
:10291000E96E040E4121EA6EEF5068080FE30301EF
:1029200066510A0DF3500401416B406F180E4025AB
:10293000E96E040E4121EA6E790EEF6E03016651D5
:102940000A0DF3500401416B406F090E4025016EE2
:10295000000E4121036E0150180FE96E040E032092
:10296000EA6EEF503B0814E2030166510A0DF35082
:102970000401416B406F090E4025016E000E41219C
:10298000036E0150180FE96E040E0320EA6EEF6A21
:10299000030166510A0DF3500401416B406F030EB1
:1029A0004025016E000E4121036E0150180FE96EA3
:1029B000040E0320EA6EEF503B0814E20301665157
:1029C0000A0DF3500401416B406F030E4025016E68
:1029D000000E4121036E0150180FE96E040E032012
:1029E000EA6EEF6A030166510A0DF3500401416B70
:1029F000406F040E4025016E000E4121036E015010
:102A0000180FE96E040E0320EA6EEF503B0814E243
:102A1000030166510A0DF3500401416B406F040E2F
:102A20004025016E000E4121036E0150180FE96E22
:102A3000040E0320EA6EEF6A030166510A0DF3509B
:102A40000401416B406F030E4025016E000E4121D1
:102A5000036E0150180FE96E040E0320EA6EEF506A
:102A60003B0814E2030166510A0DF3500401416B67
:102A7000406F030E4025016E000E4121036E015090
:102A8000180FE96E040E0320EA6EEF6A0301665127
:102A90000A0DF3500401416B406F050E4025016E95
:102AA000000E4121036E0150180FE96E040E032041
:102AB000EA6EEF503B0814E2030166510A0DF35031
:102AC0000401416B406F050E4025016E000E41214F
:102AD000036E0150180FE96E040E0320EA6EEF6AD0
:102AE000030166510A0DF3500401416B406F060E5D
:102AF0004025016E000E4121036E0150180FE96E52
:102B0000040E0320EA6EEF500F0815E20301665130
:102B10000A0DF3500401416B406F060E4025016E13
:102B2000000E4121036E0150180FE96E040E0320C0
:102B3000EA6E040EEF6E030166510A0DF3500401B4
:102B4000416B406F070E4025016E000E4121036E60
:102B50000150180FE96E040E0320EA6EEF5064086E
:102B600016E3030166510A0DF3500401416B406FF7
:102B7000070E4025016E000E4121036E0150180F13
:102B8000E96E040E0320EA6EEF50090815E3030115
:102B900066510A0DF3500401416B406F070E40254A
:102BA000016E000E4121036E0150180FE96E040EF4
:102BB0000320EA6E190EEF6E030166510A0DF35001
:102BC0000401416B406F080E4025016E000E41214B
:102BD000036E0150180FE96E040E0320EA6EEF50E9
:102BE000060815E2030166510A0DF3500401416B1A
:102BF000406F080E4025016E000E4121036E01500A
:102C0000180FE96E040E0320EA6E060EEF6E030144
:102C1000662B18D50001C2EF39F004014A6B4A5106
:102C200007080DE3D890493302E28C9401D08C84DC
:102C3000959495928C8295928C924A2BF0D70001B4
:102C4000000C95968C8647C449F4E7DF48C449F4E4
:102C5000E4DF95968C96000C95968C8644C449F4D6
:102C6000DCDF9584100E006E002EFED700000401FC
:102C7000456B4551070815E3958483B402D0D8907D
:102C800001D0D880463395928C82210E006E002EA2
:102C9000FED795928C92210E006E002EFED7452B0A
:102CA000E8D795968C9646C401F00001000C9596E5
:102CB0008C96210E006E002EFED795928C928E0E71
:102CC0000401476F486B0001BCDF900E0401476FA1
:102CD000A40E486F0001B5DF810E0401446F0001AE
:102CE000BBDF01C040F404014051800B06E0800EC0
:102CF000476F486B0001A5DF04010001C4EF39F004
:102D000045C44CF4040149514C1B4CAF05D0D89438
:102D1000D89045BFD8802FD045C44CF448C44DF45A
:102D200044514D5F06E04CAF26D0D850010AD86E12
:102D300022D049C44DF445514D5F06E04CAF1BD045
:102D4000D850010AD86E17D04AC44DF446514D5F91
:102D500006E04CAF10D0D850010AD86E0CD04BC44E
:102D60004DF447514D5F06E04CAF05D0D850010AF5
:102D7000D86E01D0D8900001000C006A016A0401ED
:102D80004251D89043B100260032013243B30026AD
:102D90000032013243B500260032013243B700262B
:102DA0000032013243B900260032013243BB002613
:102DB0000032013243BD00260032013243BF0026FB
:102DC000003201320001000CB6BF03D0B651090831
:102DD00003E3B6BF01D01CD0B66BAA6AA96AA86A81
:102DE000A69CA69EA684F250006EF29CF29E0F0155
:102DF000550EA76EAA0EA76EA682A6B2FED7A694FF
:102E00000050F2120A0E0401556F0001EFEC0CF0B5
:102E1000B7BF03D0B751090803E3B7BF01D01DD036
:102E2000B76BAA6A010EA96EA86AA69CA69EA68484
:102E3000F250006EF29CF29E0F01550EA76EAA0E84
:102E4000A76EA682A6B2FED7A6940050F2120A0E72
:102E50000401556F0001EFEC0CF0B8BF03D0B8517E
:102E6000090803E3B8BF01D01DD0B86BAA6A020EEF
:102E7000A96EA86AA69CA69EA684F250006EF29C3B
:102E8000F29E0F01550EA76EAA0EA76EA682A6B2DD
:102E9000FED7A6940050F2120A0E0401556F0001ED
:102EA000EFEC0CF0B9BF03D0B951090803E3B9BF87
:102EB00001D01DD0B96BAA6A030EA96EA86AA69CA0
:102EC000A69EA684F250006EF29CF29E0F01550E53
:102ED000A76EAA0EA76EA682A6B2FED7A694005031
:102EE000F2120A0E0401556F0001EFEC0CF0BFBFA7
:102EF00003D0BF51090803E3BFBF01D01DD0BF6B92
:102F0000AA6A040EA96EA86AA69CA69EA684F25080
:102F1000006EF29CF29E0F01550EA76EAA0EA76ED0
:102F2000A682A6B2FED7A6940050F2120A0E0401A1
:102F3000556F0001EFEC0CF0C0BF03D0C051090881
:102F400003E3C0BF01D01DD0C06BAA6A050EA96EF5
:102F5000A86AA69CA69EA684F250006EF29CF29EE1
:102F60000F01550EA76EAA0EA76EA682A6B2FED7B7
:102F7000A6940050F2120A0E0401556F0001EFEC06
:102F80000CF0C1BF03D0C151090803E3C1BF01D098
:102F90001DD0C16BAA6A060EA96EA86AA69CA69E41
:102FA000A684F250006EF29CF29E0F01550EA76EA1
:102FB000AA0EA76EA682A6B2FED7A6940050F21261
:102FC0000A0E0401556F0001EFEC0CF0C2BF03D0F4
:102FD000C251090803E3C2BF01D01DD0C26BAA6A67
:102FE000070EA96EA86AA69CA69EA684F250006E43
:102FF000F29CF29E0F01550EA76EAA0EA76EA68236
:10300000A6B2FED7A6940050F2120A0E0401556F24
:103010000001EFEC0CF003016C51860820E2860EF3
:103020006C6FAA6A080EA96E860EA86EA69CA69E54
:10303000A684F250006EF29CF29E0F01550EA76E10
:10304000AA0EA76EA682A6B2FED7A6940050F212D0
:103050000A0E0401556F0001EFEC0CF003017B53E5
:1030600003E17A51060821E27B6B030E7A6FAA6AAC
:10307000090EA96E030EA86EA69CA69EA684F25009
:10308000006EF29CF29E0F01550EA76EAA0EA76E5F
:10309000A682A6B2FED7A6940050F2120A0E040130
:1030A000556F0001EFEC0CF003018ABF03D08A5189
:1030B000090803E38ABF01D01ED08A6BAA6A0A0EF0
:1030C000A96EA86AA69CA69EA684F250006EF29CE9
:1030D000F29E0F01550EA76EAA0EA76EA682A6B28B
:1030E000FED7A6940050F2120A0E0401556F00019B
:1030F000EFEC0CF003018BBF03D08B51090803E305
:103100008BBF01D01ED08B6BAA6A0B0EA96EA86A6A
:10311000A69CA69EA684F250006EF29CF29E0F0121
:10312000550EA76EAA0EA76EA682A6B2FED7A694CB
:103130000050F2120A0E0401556F0001EFEC0CF082
:1031400003018CBF03D08C51090803E38CBF01D06D
:103150001ED08C6BAA6A0C0EA96EA86AA69CA69EAD
:10316000A684F250006EF29CF29E0F01550EA76EDF
:10317000AA0EA76EA682A6B2FED7A6940050F2129F
:103180000A0E0401556F0001EFEC0CF003018DBF36
:1031900003D08D51090803E38DBF01D01DD08D6B85
:1031A000AA6A0D0EA96EA86AA69CA69EA684F250D5
:1031B000006EF29CF29E0F01550EA76EAA0EA76E2E
:1031C000A682A6B2FED7A6940050F2120A0E0401FF
:1031D000556F0001EFEC0CF00401476B466B400E9D
:1031E000456F820E446F0CC34BF40BC34AF40AC301
:1031F00049F409C348F4000183DD24E303010C6BA7
:103200000B6B400E0A6F820E096FAA6A140EA96E2C
:103210000C0EA86EA69CA69EA684F250006EF29C90
:10322000F29E0F01550EA76EAA0EA76EA682A6B239
:10323000FED7A6940050F2120A0E0401556F000149
:10324000EFEC0CF00201D95164081EE2D96BAA6AB6
:10325000150EA96EA86AA69CA69EA684F250006EC2
:10326000F29CF29E0F01550EA76EAA0EA76EA682C3
:10327000A6B2FED7A6940050F2120A0E0401556FB2
:103280000001EFEC0CF00201DA5164081EE2DA6B87
:10329000AA6A160EA96EA86AA69CA69EA684F250DB
:1032A000006EF29CF29E0F01550EA76EAA0EA76E3D
:1032B000A682A6B2FED7A6940050F2120A0E04010E
:1032C000556F0001EFEC0CF00201DB5150081FE2DA
:1032D000500EDB6FAA6A180EA96E500EA86EA69C3F
:1032E000A69EA684F250006EF29CF29E0F01550E2F
:1032F000A76EAA0EA76EA682A6B2FED7A69400500D
:10330000F2120A0E0401556F0001EFEC0CF00401FB
:10331000476B466B200E456F820E446FF4C24BF430
:10332000F3C24AF4F2C249F4F1C248F40001E8DC05
:1033300024E30201F46BF36B200EF26F820EF16F47
:10334000AA6A190EA96E0A0EA86EA69CA69EA6844D
:10335000F250006EF29CF29E0F01550EA76EAA0E5F
:10336000A76EA682A6B2FED7A6940050F2120A0E4D
:103370000401556F0001EFEC0CF00401566B41C3E2
:1033800055F4000103EC0DF00401476B466B456BEF
:10339000800E446F03C04BF402C04AF401C049F4EC
:1033A00000C048F40001ACDC20E3010E0301416FD2
:1033B000AA6A1A0EA96E010EA86EA69CA69EA684E5
:1033C000F250006EF29CF29E0F01550EA76EAA0EEF
:1033D000A76EA682A6B2FED7A6940050F2120A0EDD
:1033E0000401556F0001EFEC0CF00401566B42C371
:1033F00055F4000103EC0DF00401476B466B200E01
:10340000456F830E446F03C04BF402C04AF401C001
:1034100049F400C048F4000173DC20E30F0E0301FF
:10342000426FAA6A1B0EA96E0F0EA86EA69CA69EDE
:10343000A684F250006EF29CF29E0F01550EA76E0C
:10344000AA0EA76EA682A6B2FED7A6940050F212CC
:103450000A0E0401556F0001EFEC0CF00401476BFC
:10346000466B480E456F840E446FA6C24BF4A5C24E
:103470004AF4A4C249F4A3C248F4000141DC43E386
:10348000CD0E0201A66FCC0EA56F200EA46F840E88
:10349000A36FAA6A1C0EA96E280EA86EA69CA69EF3
:1034A000A684F250006EF29CF29E0F01550EA76E9C
:1034B000AA0EA76EA682A6B2FED7A6940050F2125C
:1034C0000A0E0401556F0001EFEC0CF0AA6A1D0E04
:1034D000A96E020EA86EA69CA69EA684F250006E4F
:1034E000F29CF29E0F01550EA76EAA0EA76EA68241
:1034F000A6B2FED7A6940050F2120A0E0401556F30
:103500000001EFEC0CF00401476B466B480E456F71
:103510008B0E446FB2C24BF4B1C24AF4B0C249F44C
:10352000AFC248F4000180EC16F042E30201B26B36
:10353000C00EB16F410EB06F8B0EAF6FAA6A1E0E38
:10354000A96E380EA86EA69CA69EA684F250006EA8
:10355000F29CF29E0F01550EA76EAA0EA76EA682D0
:10356000A6B2FED7A6940050F2120A0E0401556FBF
:103570000001EFEC0CF0AA6A1F0EA96E180EA86EDF
:10358000A69CA69EA684F250006EF29CF29E0F01AD
:10359000550EA76EAA0EA76EA682A6B2FED7A69457
:1035A0000050F2120A0E0401556F0001EFEC0CF00E
:1035B0000401476B466B456B800E446F14C34BF49C
:1035C00013C34AF412C349F411C348F4000180EC58
:1035D00016F023E30301146B136B126B7E0E116F55
:1035E000AA6A200EA96E050EA86EA69CA69EA684A9
:1035F000F250006EF29CF29E0F01550EA76EAA0EBD
:10360000A76EA682A6B2FED7A6940050F2120A0EAA
:103610000401556F0001EFEC0CF00401476B466BA1
:10362000400E456F800E446F34C34BF433C34AF4ED
:1036300032C349F431C348F4000180EC16F026E3AC
:10364000CD0E0301346FCC0E336F4C0E326F7B0EF8
:10365000316FAA6A210EA96E010EA86EA69CA69EC5
:10366000A684F250006EF29CF29E0F01550EA76EDA
:10367000AA0EA76EA682A6B2FED7A6940050F2129A
:103680000A0E0401556F0001EFEC0CF003018351A9
:10369000E9083FE2FF0A03E1825160083AE2836BE6
:1036A000826BAA6A250EA96EA86AA69CA69EA6840D
:1036B000F250006EF29CF29E0F01550EA76EAA0EFC
:1036C000A76EA682A6B2FED7A6940050F2120A0EEA
:1036D0000401556F0001EFEC0CF0AA6A260EA96EEA
:1036E000A86AA69CA69EA684F250006EF29CF29E4A
:1036F0000F01550EA76EAA0EA76EA682A6B2FED720
:10370000A6940050F2120A0E0401556F0001EFEC6E
:103710000CF00201DC51C80803E3DC511D0820E372
:10372000640EDC6FAA6A270EA96E640EA86EA69CB2
:10373000A69EA684F250006EF29CF29E0F01550EDA
:10374000A76EAA0EA76EA682A6B2FED7A6940050B8
:10375000F2120A0E0401556F0001EFEC0CF00201A9
:10376000E8514F0803E2E85164081FE25A0EE86F7F
:10377000AA6A280EA96E5A0EA86EA69CA69EA684BA
:10378000F250006EF29CF29E0F01550EA76EAA0E2B
:10379000A76EA682A6B2FED7A6940050F2120A0E19
:1037A0000401556F0001EFEC0CF003015D511E08A0
:1037B00020E2020E5D6FAA6A290EA96E020EA86EA3
:1037C000A69CA69EA684F250006EF29CF29E0F016B
:1037D000550EA76EAA0EA76EA682A6B2FED7A69415
:1037E0000050F2120A0E0401556F0001EFEC0CF0CC
:1037F0000301AF51640803E3AF51310820E3480EE1
:10380000AF6FAA6A2E0EA96E480EA86EA69CA69E41
:10381000A684F250006EF29CF29E0F01550EA76E28
:10382000AA0EA76EA682A6B2FED7A6940050F212E8
:103830000A0E0401556F0001EFEC0CF00301B251C8
:103840000A080BE1B0C342F4FF0E0401436F00010C
:10385000BDEC16F001C0B0F30301B3510A080BE14F
:10386000B1C342F4FF0E0401436F0001BDEC16F03A
:1038700001C0B1F303010001CCEF39F00900F552AA
:1038800011E0F6CF41F4F7CF42F4F8CF43F4F5500E
:103890009EA8FED7AD6E41C4F6FF42C4F7FF43C4F5
:1038A000F8FFECD7000C9EA8FED7AD6E000C100EF2
:1038B000006E002EFED70000FF0EF5DF100E006E2A
:1038C000002EFED70000FF0EEEDF100E006E002E61
:1038D000FED70000FF0EE7DF100E006E002EFED7B1
:1038E0000000000C8C9895988C9C959C8C9A959ACD
:1038F0008C9095908B849494A49103015B6B000150
:10390000000C04014935006E0036FC0E001600C0A4
:1039100001F0C250C30B0010C26E010E556F0001C2
:10392000EFEC0CF0C282C2B2FED7C4CF56F4C3CFC4
:1039300055F4000103EC0DF003C04DF402C04CF44B
:1039400001C04BF400C04AF44AC400F04BC401F07B
:103950004CC402F04DC403F0000C040149514B0368
:10396000F3CF01F0F4CF00F04C03F35000264A519E
:103970004B03F3500020026E0001000C040159516A
:10398000D8B471D0006E5D51D8B46DD0002604E378
:10399000810E002668E204D07F0E005E64E363E0DF
:1039A0005AC461F45E51611B5A8F5E8F5C51600393
:1039B000F4CF63F45B515F03F4CF03F0F3CF62F411
:1039C0006003F3506327F4506223000E03225C511E
:1039D0005F03F3506327F4506223000E026A032250
:1039E00002225A516003F3506227F4500322000E62
:1039F00002225A515F03F3500326F4500222000EB4
:103A0000016A01225C515E03F3506227F4500322E5
:103A1000000E022201225B515E03F3500326F45094
:103A20000222000E01225A515E03F3500226F45086
:103A30000122002A01BE05D0623703360236013664
:103A40000006000E62AF0AD0032A022201220150B2
:103A500005E1025003E1035001E1002A61BF018E3C
:103A600061AF019E04D0006A016A026A036A000124
:103A7000000C0401446B436B426B416B486B476B1A
:103A8000466B456B0301006B0201FF6BFE6BFD6B28
:103A90000401496B000135DF03C0ECF202C0EBF218
:103AA00001C0EAF200C0E9F2ECC24CF4EBC24BF404
:103AB000EAC24AF4E9C249F4290E0401506F5C0ECF
:103AC0004F6F540E4E6F850E4D6F00011EEC0DF0C2
:103AD00003C0ECF202C0EBF201C0EAF200C0E9F26E
:103AE000D892ECC258F4EBC257F4EAC256F4E9C2D9
:103AF00055F4B80E04015C6F1E0E5B6F6D0E5A6FAD
:103B0000820E596F0001CDEC0DF003C0ECF202C043
:103B1000EBF201C0EAF200C0E9F204014C6BC00E06
:103B20004B6F7F0E4A6F880E496FECC250F4EBC2A8
:103B30004FF4EAC24EF4E9C24DF400011EEC0DF060
:103B400000C049F401C04AF402C04BF403C04CF475
:103B5000D88203C058F402C057F401C056F400C024
:103B600055F404015C6B5B6B5A6B7F0E596F00015F
:103B7000CDEC0DF0B6C24CF4B5C24BF4B4C24AF46D
:103B8000B3C249F403C050F402C04FF401C04EF474
:103B900000C04DF41EEC0DF003C0F0F202C0EFF2D5
:103BA00001C0EEF200C0EDF2010E0401405D020121
:103BB000D85D02E001E3D86B04014A6BD8C249F436
:103BC0004C6B040E4B6F0001C8DE0150C30FE96E51
:103BD000000E0220EA6EEDC2EFFFEEC2ECFFEFC274
:103BE000ECFFF0C2ECFF0201D82BD76B040140516F
:103BF0000201D75D3FE204014A6BD7C249F44C6B26
:103C0000040E4B6F0001A9DE02C003F00150C30F88
:103C1000E96E000E0220EA6EEFCF00F0ECCF01F06B
:103C2000ECCF02F0ECCF03F0EACF4AF4E9CF49F44D
:103C3000D89200C358F4FFC257F4FEC256F4FDC236
:103C400055F403C05CF402C05BF401C05AF400C038
:103C500059F4CDEC0DF04AC4EAFF49C4E9FF03C0B2
:103C600000F302C0FFF201C0FEF200C0FDF202014B
:103C7000D72BBCD70401566B40C455F4000103ECAC
:103C80000DF000C34CF4FFC24BF4FEC24AF4FDC277
:103C900049F403C050F402C04FF401C04EF400C018
:103CA0004DF41EEC0DF003C000F302C0FFF201C0A2
:103CB000FEF200C0FDF200C35CF4FFC25BF4FEC282
:103CC0005AF4FDC259F400C360F4FFC25FF4FEC2AF
:103CD0005EF4FDC25DF452DE00C049F401C04AF456
:103CE00002C04BF403C04CF403C05CF402C05BF4AC
:103CF00001C05AF400C059F438C360F437C35FF40C
:103D000036C35EF435C35DF439DE00C049F401C04A
:103D10004AF402C04BF403C04CF400C35CF4FFC28D
:103D20005BF4FEC25AF4FDC259F43CC360F43BC3D9
:103D30005FF43AC35EF439C35DF420DED8924CC41C
:103D400058F44BC457F44AC456F449C455F403C05C
:103D50005CF402C05BF401C05AF400C059F4CDEC2D
:103D60000DF000C049F401C04AF402C04BF403C096
:103D70004CF4D89203C058F402C057F401C056F472
:103D800000C055F440C35CF43FC35BF43EC35AF437
:103D90003DC359F4CDEC0DF003C004F302C003F3AE
:103DA00001C002F300C001F30401566BD9C255F4FF
:103DB000000103EC0DF003C044F402C043F401C061
:103DC00042F400C041F444C44CF443C44BF442C434
:103DD0004AF441C449F40401506B4F6B200E4E6FFE
:103DE000820E4D6F00011EEC0DF003C044F402C0C2
:103DF00043F401C042F400C041F40401566BDAC23E
:103E000055F4000103EC0DF003C048F402C047F480
:103E100001C046F400C045F448C44CF447C44BF418
:103E200046C44AF445C449F40401506B4F6B200E5C
:103E30004E6F820E4D6F00011EEC0DF003C048F472
:103E400002C047F401C046F400C045F4D88244C41F
:103E500058F443C457F442C456F441C455F448C41A
:103E60005CF447C45BF446C45AF445C459F4CDEC41
:103E70000DF0D89204C358F403C357F402C356F4A8
:103E800001C355F403C05CF402C05BF401C05AF4F2
:103E900000C059F4CDEC0DF003C004F302C003F3ED
:103EA00001C002F300C001F301C300F002C301F03E
:103EB00003C302F004C303F0000C030160510508C2
:103EC000D8A4BAD03BC030F03CC031F03DC032F095
:103ED0003EC033F03FC034F040C035F041C036F052
:103EE00042C037F043C038F044C039F0332C07D01B
:103EF000636B6351655D02E063C365F39CD033502F
:103F0000020808E1010E636F6351655D02E063C35F
:103F100065F391D03350030808E1020E636F6351DB
:103F2000655D02E063C365F386D03350040808E1A1
:103F3000030E636F6351655D02E063C365F37BD07D
:103F40003350050808E1040E636F6351655D02E0BC
:103F500063C365F370D03350060808E1050E636F44
:103F60006351655D02E063C365F365D033500708B4
:103F700008E1060E636F6351655D02E063C365F39C
:103F80005AD03350080808E1070E636F6351655D2E
:103F900002E063C365F34FD03350090808E1080E0F
:103FA000636F6351655D02E063C365F344D03350D2
:103FB0000D0808E10C0E636F6351655D02E063C399
:103FC00065F339D033500F0801E135D033501A086A
:103FD00008E1140E636F6351655D02E063C365F32E
:103FE0002AD033501B0808E10F0E636F6351655DE3
:103FF00002E063C365F31FD033501C0808E1100EC4
:10400000636F6351655D02E063C365F314D03350A1
:104010002C0808E1640E636F6351655D02E063C3C1
:1040200065F309D03350CC0806E1F00E636F65519B
:10403000F00801E0FF0006D0626B6251090802E35C
:10404000622BFBD700015EEF3AF08E0E006E04018A
:104050005551005E56C402F057C401F0028E005262
:1040600009E0D890025202E1015204E0023201322A
:10407000002EF7D756AF05D0011E021E012AD8B474
:10408000022A0001000C2CC358F42BC357F42AC396
:1040900056F429C355F4D9DF01C064F02CC358F499
:1040A0002BC357F42AC356F429C355F4CEDF0401B9
:1040B000566B01C055F4000103EC0DF0D8822CC3FF
:1040C00058F42BC357F42AC356F429C355F403C03C
:1040D0005CF402C05BF401C05AF400C059F4CDECAA
:1040E0000DF000C055F401C056F402C057F403C0EF
:1040F00058F403C05CF402C05BF401C05AF400C081
:1041000059F40401606B5F6B200E5E6F820E5D6F71
:10411000000134DC03C058F402C057F401C056F467
:1041200000C055F492DF01C065F07EC366F0000167
:104130007FC367F0000180C368F0000181C369F0AC
:104140000001F8C258F4F7C257F4F6C256F4F5C2AB
:1041500055F47BDF01500A0DF3CF6AF094806B6B4E
:1041600082B06B2B94826C6B82B26C2B938A6D6BDA
:1041700081AA6D2B938C6E6B81AC6E2B938E6F6BC3
:1041800081AE6F2BFCC258F4FBC257F4FAC256F44E
:10419000F9C255F45ADF01C070F069C371F0ADC3C4
:1041A00072F0A1C373F0A0C374F09FC375F0A2C3F3
:1041B00076F0A3C377F0A4C378F0AEC379F07A6B3E
:1041C000A4B17A2B82C37BF0000183C37CF0000191
:1041D00053EF21F0080E016E050E006E002EFED783
:1041E0008B969496060E006E002EFED7040159376A
:1041F0008B98D8B09488D8A09498948682A6FED73D
:10420000012E01D002D00001E7D7050E006E002E6E
:10421000FED78B96949600009488060E006E002EB2
:10422000FED7060E006E002EFED7948682A6FED71D
:10423000016A060E006E002EFED782B801808B96B2
:1042400094968B9894980001000C9488050E006E4B
:10425000002EFED79486060E006E002EFED78B9899
:104260009498050E006E002EFED78B96949656C439
:1042700059F4B0DF57C459F4ADDF58C459F4AADF7C
:1042800094980000948682A6FED7050E006E002E3C
:10429000FED700D000009488050E006E002EFED7D9
:1042A0006DEF21F0F0D60301666B6651180818E334
:1042B000B00E0001856F036A03016651640FE96E59
:1042C000000E0320EA6EEFCF55F485C056F466C3A6
:1042D00057F455C458F40001B8D70301662BE5D74D
:1042E0000001000C0201CA6BC96BC86BC76B020EE0
:1042F0000401496F000181EC1CF003C01CF302C0F3
:104300001BF301C01AF300C019F31CC34CF41BC308
:104310004BF41AC34AF419C349F40401506BC00E9C
:104320004F6F7F0E4E6F880E4D6F00011EEC0DF02B
:1043300000C041F401C042F402C043F403C044F49D
:10434000D88203C058F402C057F401C056F400C02C
:1043500055F40A0E04015C6FD70E5B6F230E5A6F83
:104360007A0E596F0001CDEC0DF000C041F401C090
:1043700042F402C043F403C044F403C04CF402C04E
:104380004BF401C04AF400C049F430C350F42FC3C9
:104390004FF42EC34EF42DC34DF41EEC0DF003C0AC
:1043A00020F302C01FF301C01EF300C01DF320C3A1
:1043B00047F41FC346F41EC345F41DC344F404016F
:1043C0004B6B4A6B496B486B000180EC16F005E3C0
:1043D0000301206B1F6B1E6B1D6B010E0401405D02
:1043E00003018E5D02E001E38E6B8E51040DF350EC
:1043F000036A030FE96E020E0320EA6E1DC3EFFF8E
:104400001EC3ECFF1FC3ECFF20C3ECFF8E2B8F6B92
:10441000010E0401405D03018F5D01E038E28F5120
:10442000040DF350036A030FE96E020E0320EA6ED7
:10443000EFCF00F0ECCF01F0ECCF02F0ECCF03F0C7
:10444000EACF42F4E9CF41F4D892CAC258F4C9C2C3
:1044500057F4C8C256F4C7C255F403C05CF402C096
:104460005BF401C05AF400C059F40001CDEC0DF02A
:1044700042C4EAFF41C4E9FF03C0CAF202C0C9F264
:1044800001C0C8F200C0C7F203018F2BC1D70401DD
:10449000566B40C455F4000103EC0DF0CAC24CF455
:1044A000C9C24BF4C8C24AF4C7C249F403C050F4AD
:1044B00002C04FF401C04EF400C04DF41EEC0DF0EC
:1044C00003C0CAF202C0C9F201C0C8F200C0C7F2FC
:1044D000C7C200F0C8C201F0C9C202F0CAC203F0EC
:1044E00099EF3AF00201D66BD56BD46BD36B030E08
:1044F0000401496F000181EC1CF003C024F302C0E9
:1045000023F301C022F300C021F324C34CF423C3DE
:104510004BF422C34AF421C349F40401506BC00E8A
:104520004F6F7F0E4E6F880E4D6F00011EEC0DF029
:1045300000C041F401C042F402C043F403C044F49B
:10454000D88203C058F402C057F401C056F400C02A
:1045500055F40A0E04015C6FD70E5B6F230E5A6F81
:104560007A0E596F0001CDEC0DF000C041F401C08E
:1045700042F402C043F403C044F403C04CF402C04C
:104580004BF401C04AF400C049F430C350F42FC3C7
:104590004FF42EC34EF42DC34DF41EEC0DF003C0AA
:1045A00028F302C027F301C026F300C025F328C377
:1045B00047F427C346F426C345F425C344F4040155
:1045C0004B6B4A6B496B486B000180EC16F005E3BE
:1045D0000301286B276B266B256B010E0401405DE0
:1045E0000301905D02E001E3906B9051040DF350E4
:1045F000036A530FE96E020E0320EA6E25C3EFFF34
:1046000026C3ECFF27C3ECFF28C3ECFF902B916B74
:10461000010E0401405D0301915D01E038E291511A
:10462000040DF350036A530FE96E020E0320EA6E85
:10463000EFCF00F0ECCF01F0ECCF02F0ECCF03F0C5
:10464000EACF42F4E9CF41F4D892D6C258F4D5C2A9
:1046500057F4D4C256F4D3C255F403C05CF402C07C
:104660005BF401C05AF400C059F40001CDEC0DF028
:1046700042C4EAFF41C4E9FF03C0D6F202C0D5F24A
:1046800001C0D4F200C0D3F20301912BC1D70401C1
:10469000566B40C455F4000103EC0DF0D6C24CF447
:1046A000D5C24BF4D4C24AF4D3C249F403C050F487
:1046B00002C04FF401C04EF400C04DF41EEC0DF0EA
:1046C00003C0D6F202C0D5F201C0D4F200C0D3F2CA
:1046D000D3C200F0D4C201F0D5C202F0D6C203F0BA
:1046E000ADEF3AF045C446F404014639006E0F0EB2
:1046F000001600500A0DF3CF45F44639006EF00E57
:1047000000160050003A0F0E00160050452745C411
:1047100001F00001000C03019A512D0809E2FF0A83
:1047200003E19951E00804E29A6B996B0001A395AB
:104730000401402D2BD0938081A009D0938281A2C7
:1047400006D0938481A403D0938681B602D0000161
:10475000A3850001A3B515D0A28F0301985303E1EF
:104760009751C8080CE2986B976B0001A373A3A341
:1047700003D08C80959002D08C909590030104D04A
:1047800000018C90959003012ED004014051020845
:104790002BE1938081A009D0938281A206D09384DB
:1047A00081A403D0938681B603D0150E0301946FC4
:1047B0000001A28F03019451130813E3985303E1FE
:1047C000975164080DE2986B976B0001A373A3A344
:1047D00003D08C80959002D08C9095900301942BFF
:1047E00002D08C90959004010001000C306A316A6F
:1047F000326A336A346A356A366A376A386A396ABD
:104800003B6A3C6A3D6A3E6A3F6A406A416A426A64
:10481000436A446A51EF3BF00900F6CF46F4F7CF04
:1048200047F4F8CF48F4F5509EA8FED7AD6E46C4C5
:10483000F6FF47C4F7FF48C4F8FF0401452F01D035
:1048400002D00001E9D70001000C04014B51016ABC
:104850004A5D03E24AC400F00CD0006A080E4C6FB7
:104860004A3700364B51005CD8B0006E01364C2FF1
:10487000F7D70001000C015045C44AF4640E04014E
:104880004B6F0001E2DF00C045F40150300E08E13B
:10489000040146A30ED046B70CD046B9200E04D072
:1048A0000401469746994681012601509EA8FED7ED
:1048B000AD6E45C44AF40A0E4B6F0001C6DF00C05E
:1048C00045F40150300E08E1040146B70BD046A173
:1048D00009D046B9200E0001012601509EA8FED73E
:1048E000AD6E0401300E452745519EA8FED7AD6E32
:1048F0000001000C04015251B608526F036A53C400
:1049000056F4538FD8905333543355330332023215
:1049100001320032522FF6D756AF0BD0001E011EC7
:10492000021E031E002AD8B4012AD8B4022AD8B421
:10493000032A000108EF25F0006A016A026A036A8F
:1049400004015A6B5B6B5C6B5D6B595158115711CD
:1049500056112CE0200E5E6FD890523753375437E3
:1049600055375A375B375C375D3759515D5D08E124
:1049700058515C5D05E157515B5D02E156515A5D4E
:104980000FE356515A5F5751D8A0573D5B5F5851BE
:10499000D8A0583D5C5F5951D8A0593D5D5FD88083
:1049A00000360136023603365E2FD6D7040EEA6E85
:1049B0005A0EE96E0001000CE95004014A6F49519A
:1049C0004C6F1CE048C45CF447C45BF446C45AF422
:1049D00045C459F4606B5F6B200E5E6F820E5D6F95
:1049E0000001BEEC1CF003C048F402C047F401C053
:1049F00046F400C045F404014C2FE4D748C455F4F4
:104A000047C454F446C453F445C452F4000172D769
:104A100003C048F402C047F401C046F400C045F4A6
:104A2000040148AF0DD04A074A8B451F461F471F58
:104A3000481F452BD8B4462BD8B4472BD8B4482BA5
:104A40003B0E516F9A0E506FCA0E4F6F4E6B0A0E8F
:104A50004C6F4951D8B44A2B48C455F447C454F458
:104A600046C453F445C452F451C459F450C458F4E4
:104A70004FC457F44EC456F400015EDF0150EFCF2F
:104A800045F4ECCF46F4ECCF47F4ECCF48F40052B9
:104A900013E1040149294C5DD8A402D000010CD0D7
:104AA0004A510DE00F0B4C5D01E03CE24ABF3AD0A9
:104AB0004ABD05D0200E31D0200E04014A174AAB62
:104AC0000DD04A9B4951D8A44A0700504A6F2D0E79
:104AD0009EA8FED7AD6E4A51006E4A6B49514C5D9F
:104AE0000BE100504A6F2E0E9EA8FED7AD6E4A51C4
:104AF000006E200E4A17000E300E4AAB0ED04A9BB5
:104B00004951D8A44A0700504A6F2D0E9EA8FED7DF
:104B1000AD6E4A51006E4A6B300E002600509EA8C2
:104B2000FED7AD6E51C455F450C454F44FC453F481
:104B30004EC452F4596B586B576B0A0E566F0001F6
:104B4000FBDE03C051F402C050F401C04FF400C0BA
:104B50004EF404014C2F80D70001000C4AC4B6F07B
:104B60004BC4B7F04CC4B8F04DC4B9F04EC4BFF05C
:104B70004FC4C0F050C4C1F051C4C2F054C46CF36F
:104B80000301706B0001A497040152A103D000013E
:104B9000A487040153C469F3B6C0B1F0B7C0B2F042
:104BA000B8C0B3F0B9C0B4F0BAC0B5F0BFC0BBF084
:104BB000C0C0BCF0C1C0BDF0C2C0BEF00F0E03014A
:104BC000AE6F000152EC21F0640E0401556F00013C
:104BD000EFEC0CF00A0E0301AE6F0001000CEACFFF
:104BE0004CF4E9CF4BF404014539F009476F4727EE
:104BF000E20F486F320F4A6F45510F0B4827482785
:104C00004A27E90F496F4927492744390F0B49279C
:104C10004A2749374A374A1F4A3744510F0B4A2718
:104C20004737070E466F0A0E49074A27FDE3480734
:104C30004927FDE347074827FDE346074727FDE3EC
:104C4000040EEA6E460EE96E070E4B154B9DE926E3
:104C50004A0EE95CD8B44B8DEF50006E08E14BBDB5
:104C600006D04BB90CD04BB702D0200E03D04B87E7
:104C70004B99300E002600509EA8FED7AD6EEE5028
:104C80004BADE6D70001000C016A026A006A036AB4
:104C90000401475102E1465118E0100E486FD890C8
:104CA00044374537003603364751035C02E146512D
:104CB000005C07E34651005ED8A003064751035E3F
:104CC000D88001360236482FEAD70001000C0401D3
:104CD0004051030B09E140C44AF4640E4B6F0001DC
:104CE000B4DD005218E10401456B40C444F4010EE8
:104CF000476F900E466F0001C7DF00C041F404010A
:104D000003C042F4415305E14253D8A402D000014C
:104D100002D0000E02D0010E0401016E0001000C51
:104D200046C44AF40A0E04014B6F00018EDD01C037
:104D300047F4040147510A0DF350465D486F473967
:104D4000006EF00E001600504811016E0001000CBC
:104D500040C446F4E5DF01C046F4860E0401476F07
:104D600001C048F4000121EC16F041C446F4D8DF3C
:104D700001C046F4880E0401476F01C048F40001E9
:104D800021EC16F042C446F4CBDF01C046F48C0E91
:104D90000401476F01C048F4000121EC16F043C440
:104DA00046F4BEDF01C046F48A0E0401476F01C01D
:104DB00048F4000121EC16F044C446F4B1DF01C010
:104DC00046F4840E0401476F01C048F4000121EC51
:104DD00016F045C446F4A4DF01C046F4820E040177
:104DE000476F01C048F4000121EC16F00401466B46
:104DF000000196DF01C046F4800E0401476F01C038
:104E000048F4000121EC16F0AEEF51F00301A75178
:104E10000C0802E20A0EA76FA8511F0802E2100E4A
:104E2000A86FA651630802E2120EA66FA9511808D6
:104E300002E20B0EA96FAA513B0802E21E0EAA6FF6
:104E4000A751020815E1A6C340F4000140DF01525A
:104E500008E00301A8511D0802E21D0EA86F07D04B
:104E600000010301A8511C0802E21C0EA86F15D016
:104E7000A751070809E3A751010B05E1A8511E0836
:104E800002E21E0EA86F09D0A751010B010805E12F
:104E9000A8511E0802E21E0EA86F0001FDEF52F09D
:104EA0000401486B496B47C44AF40A0E4B6F00017A
:104EB000CCDC01C048F4040148510A0DF3CF48F49A
:104EC0004851475D496F49C401F00001000C080ECC
:104ED0000401496F00C04AF49488060E006E002E4B
:104EE000FED7948682A6FED782B8D88082A8D890B2
:104EF0000136050E006E002EFED794968B96492F34
:104F0000EBD79488060E006E002EFED78B984A5180
:104F1000D8A494980000948682A6FED7050E006E51
:104F2000002EFED78B969496060E006E002EFED7AE
:104F30008B9894980001DEEF27F09488050E006EA0
:104F4000002EFED79486060E006E002EFED78B989C
:104F50009498050E006E002EFED78B969496A00EA8
:104F60000401596F0001EAEC20F046C448F4040142
:104F7000496B46C459F40001EAEC20F045C459F4E9
:104F8000EAEC20F09488050E006E002EFED7948681
:104F9000060E006E002EFED782A6FED78B98949840
:104FA000050E006E002EFED78B969496A10E04017E
:104FB000596F0001EAEC20F0006A89D701C047F47C
:104FC00094980000948682A6FED7050E006E002EEF
:104FD000FED700D000009488050E006E002EFED78C
:104FE000040147C401F00001000C0401566B44C4E5
:104FF00055F4000103EC0DF003C048F402C047F47F
:1050000001C046F400C045F448C44CF447C44BF416
:1050100046C44AF445C449F40401506B4F6B200E5A
:105020004E6F820E4D6F00011EEC0DF0A6EF29F0C1
:1050300004014A6BE2C249F4010E4C6F400E4B6F03
:105040000001ADEC1CF002C003F00150020F04019E
:10505000406F000E0220416F466F40C445F40001CE
:105060006CDF01C0C6F30301C6511F0802E2010E46
:10507000C66F04014A6BE2C249F4010E4C6F400E48
:105080004B6F0001ADEC1CF002C003F00150030FA8
:105090000401406F000E0220416F466F40C445F48A
:1050A00000014BDF01C0C7F30301C7510C0802E246
:1050B000010EC76F04014A6BE2C249F4010E4C6F46
:1050C000400E4B6F0001ADEC1CF002C003F001502C
:1050D000040F0401406F000E0220416F466F40C470
:1050E00045F400012ADF01C0C8F30301C851630879
:1050F00002E2130EC86F04014A6BE2C249F4010ECA
:105100004C6F400E4B6F0001ADEC1CF002C003F081
:105110000150010F0401406F000E0220416F466FE5
:1051200040C445F4000109DF01C0CAF30301CA51BC
:10513000140802E2010ECA6F04014A6BE2C249F48C
:10514000010E4C6F400E4B6F0001ADEC1CF002C025
:1051500041F401C040F402C046F401C045F4EDDE64
:1051600001C0C9F30301C9510A0802E2010EC96F67
:10517000666B66510608D8A0A3D2036A6651030F76
:10518000016E040E032201C040F4040103C041F487
:105190004A6BE2C249F4010E4C6F400E4B6F0001A6
:1051A000ADEC1CF002C043F401C042F40B0E04014C
:1051B0004227000E4323030166510201E325090D36
:1051C000F35004014227000E432343C446F442C473
:1051D00045F40001B2DE41C4EAFF40C4E9FF01C06A
:1051E000EFFF036A03016651030FE96E040E03200B
:1051F000EA6EEF50180808E2036A6651030FE96E81
:10520000040E0320EA6EEF6A036A66510A0F016E0C
:10521000040E032201C040F4040103C041F44A6BB0
:10522000E2C249F4010E4C6F400E4B6F0001ADEC31
:105230001CF002C043F401C042F40C0E04014227EA
:10524000000E4323030166510201E325090DF350CB
:1052500004014227000E432343C446F442C445F4EC
:1052600000016BDE41C4EAFF40C4E9FF01C0EFFF6B
:10527000036A030166510A0FE96E040E0320EA6E09
:10528000EF503B0808E2036A66510A0FE96E040E0C
:105290000320EA6EEF6A6651040DF350036ACB0FE8
:1052A000016E030E032201C040F4040103C041F467
:1052B0004A6BE2C249F4010E4C6F400E4B6F000185
:1052C000ADEC1CF002C043F401C042F4050E040131
:1052D0004227000E4323030166510201E325090D15
:1052E000F35004014227000E432343C446F442C452
:1052F00045F4000122DE01C042F404014A6BE2C21F
:1053000049F4010E4C6F400E4B6F0001ADEC1CF0E8
:1053100002C044F401C043F4060E04014327000E0A
:105320004423030166510201E325090DF3500401F2
:105330004327000E442344C446F443C445F400010B
:10534000FCDD01C043F401C044F44FD600C043F477
:1053500001C044F402C045F403C046F40401566B96
:1053600042C455F4000103EC0DF0EACF48F4E9CF54
:1053700047F4D89203C058F402C057F401C056F461
:1053800000C055F446C45CF445C45BF444C45AF40C
:1053900043C459F4CDEC0DF048C4EAFF47C4E9FF1B
:1053A00041C4EAFF40C4E9FF00C0EFFF01C0ECFFC9
:1053B00002C0ECFF03C0ECFF03016651040DF35083
:1053C000036ACB0FE96E030E0320EA6EEFCF40F4C1
:1053D000ECCF41F4ECCF42F4ECCF43F40401476B43
:1053E000466B160E456F860E446F43C44BF442C4A1
:1053F0004AF441C449F440C448F4000180EC16F07A
:105400000FE303016651040DF350036ACB0FE96EFD
:10541000030E0320EA6EEF6AEC6AEC6AEC6A0001A4
:10542000D89003016635036AE70F016E030E03226D
:1054300001C040F4040103C041F44A6BE2C249F4E4
:10544000010E4C6F400E4B6F0001ADEC1CF002C022
:1054500043F401C042F4070E04014227000E432327
:10546000030166510201E325090DF35004014227AF
:10547000000E432343C446F442C445F400015DDDFD
:1054800001C042F404014A6BE2C249F4010E4C6FC0
:10549000400E4B6F0001ADEC1CF002C044F401C0A3
:1054A00043F4080E04014327000E44230301665110
:1054B0000201E325090DF35004014327000E4423A4
:1054C00044C446F443C445F4000137DD41C4EAFF57
:1054D00040C4E9FF42C4ECFFED5201C0EFFFD89099
:1054E00003016635036AE70FE96E030E0320EA6ED7
:1054F000ECCF41F4ED52EFCF40F4040141510008EC
:1055000012E2FF0A03E1405190080DE2D890030136
:105510006635036AE70FE96E030E0320EA6EEC6A54
:10552000ED52EF6A0401D89003016635036AF50F66
:10553000016E030E032201C040F4040103C041F4D4
:105540004A6BE2C249F4010E4C6F400E4B6F0001F2
:10555000ADEC1CF002C043F401C042F4090E04019A
:105560004227000E4323030166510201E325090D82
:10557000F35004014227000E432343C446F442C4BF
:1055800045F40001DADC01C042F404014A6BE2C2D6
:1055900049F4010E4C6F400E4B6F0001ADEC1CF056
:1055A00002C044F401C043F40A0E04014327000E74
:1055B0004423030166510201E325090DF350040160
:1055C0004327000E442344C446F443C445F4000179
:1055D000B4DC41C4EAFF40C4E9FF42C4ECFFED5231
:1055E00001C0EFFFD89003016635036AF50FE96E3D
:1055F000030E0320EA6EECCF41F4ED52EFCF40F4FE
:1056000004014151000812E2FF0A03E140519008F1
:105610000DE2D89003016635036AF50FE96E030EBB
:105620000320EA6EEC6AED52EF6A0401036A03019B
:105630006651110F016E040E032201C040F40401F3
:1056400003C041F44A6BE2C249F4010E4C6F400EB4
:105650004B6F0001ADEC1CF002C043F401C042F4FA
:105660000D0E04014227000E43230301665102017F
:10567000E325090DF35004014227000E432343C4E0
:1056800046F442C445F4000158DC41C4EAFF40C47A
:10569000E9FF01C0EFFF036A03016651110FE96ED4
:1056A000040E0320EA6EEF501E0808E2036A6651FA
:1056B000110FE96E040E0320EA6EEF6A662B59D5CE
:1056C0000001000C0401416B406B426B416B280EE2
:1056D000406FB00E0001856F9488050E006E002E9D
:1056E000FED79486060E006E002EFED78B989498F7
:1056F000050E006E002EFED78B96949685C059F449
:10570000EAEC20F040C443F440C459F4EAEC20F041
:1057100041C443F441C459F4EAEC20F0FF0E040103
:10572000596F0001EAEC20F094980000948682A65C
:10573000FED7050E006E002EFED700D00000948824
:10574000050E006E002EFED70401402BD8B4412B6D
:105750009488050E006E002EFED79486060E006E0D
:10576000002EFED78B989498050E006E002EFED763
:105770008B96949685C059F40001EAEC20F040C461
:1057800043F440C459F4EAEC20F041C443F441C46A
:1057900059F4EAEC20F0FF0E0401596F0001EAEC25
:1057A00020F094980000948682A6FED7050E006E25
:1057B000002EFED700D000009488050E006E002E4B
:1057C000FED70401402BD8B4412B0301666B665110
:1057D00004085BE304014A6BE2C249F4010E4C6F1A
:1057E000400E4B6F0001ADEC1CF002C044F401C050
:1057F00043F40301665104014327000E442344C4CB
:1058000046F443C445F400019DEC27F001C042F486
:105810009488050E006E002EFED79486060E006E4C
:10582000002EFED78B989498050E006E002EFED7A2
:105830008B96949685C059F4EAEC20F040C443F46A
:1058400040C459F4EAEC20F041C443F441C459F493
:10585000EAEC20F042C459F4EAEC20F094980000FD
:10586000948682A6FED7050E006E002EFED700D0CD
:1058700000009488050E006E002EFED70401402B18
:10588000D8B4412B0301662BA2D7666B6651220860
:105890006CE3050E0201E56FE5510D0863E30401B9
:1058A0004A6BE2C249F4010E4C6F400E4B6F00018F
:1058B000ADEC1CF002C044F401C043F40201E55118
:1058C00004014327000E442303016651090DF350E0
:1058D00004014327000E442344C446F443C445F462
:1058E00000019DEC27F001C042F49488050E006E83
:1058F000002EFED79486060E006E002EFED78B98E3
:105900009498050E006E002EFED78B96949685C057
:1059100059F4EAEC20F040C443F440C459F4EAECF2
:1059200020F041C443F441C459F4EAEC20F042C4ED
:1059300059F4EAEC20F094980000948682A6FED7F1
:10594000050E006E002EFED700D000009488050ED4
:10595000006E002EFED70401402BD8B4412B02016B
:10596000E52B9AD70301662B91D79488050E006E1C
:10597000002EFED79486060E006E002EFED78B9862
:105980009498050E006E002EFED78B96949685C0D7
:1059900059F40001EAEC20F040C443F440C459F447
:1059A000EAEC20F041C443F441C459F4EAEC20F09D
:1059B0001F0E0401596F0001EAEC20F094980000DA
:1059C000948682A6FED7050E006E002EFED700D06C
:1059D00000009488050E006E002EFED70401402BB7
:1059E000D8B4412B9488050E006E002EFED7948605
:1059F000060E006E002EFED78B989498050E006E52
:105A0000002EFED78B96949685C059F40001EAECDF
:105A100020F040C443F440C459F4EAEC20F041C4FF
:105A200043F441C459F4EAEC20F01F0E0401596F0D
:105A30000001EAEC20F094980000948682A6FED73C
:105A4000050E006E002EFED700D000009488050ED3
:105A5000006E002EFED70401402BD8B4412BC80E97
:105A6000556F0001EFEC0CF008EF5BF0036A0301E7
:105A70006651110FE96E040E0320EA6EEF521FE12A
:105A8000010E66250401406F410E9EA8FED7AD6E43
:105A900040C445F41B0E466F00013BEC24F0F90EA8
:105AA000F66E010EF76E000EF86E0B0E0401456FD8
:105AB00000010CEC24F057EC1CF08ED20301036AB9
:105AC0006651110FE96E040E0320EA6EEF2C1FD011
:105AD000010E66250401406F410E9EA8FED7AD6EF3
