:0400000001EF29F0F3
:080008005DEF00F000000000B4
:100010000000000000000000046ED8CF05F0E0CF23
:1000200006F00001E9CF0CF0EACF07F0E1CF08F0CD
:10003000E2CF09F0D9CF0AF0DACF0BF0F3CF12F00C
:10004000F4CF13F0FACF14F0FBCF15F000C00EF090
:1000500001C00FF002C010F003C011F0F2AA34EF9B
:1000600000F0F2B439EF01F09DA03AEF00F09EB03D
:1000700065EF01F00EC000F00FC001F010C002F0FB
:1000800011C003F00CC0E9FF07C0EAFF078E08C0EB
:10009000E1FF09C0E2FF0AC0D9FF0BC0DAFF12C0BE
:1000A000F3FF13C0F4FF14C0FAFF15C0FBFF0450A8
:1000B00006C0E0FF05C0D8FF1000176ED8CF18F0BB
:1000C000E0CF19F00001E9CF1FF0EACF1AF0E1CF3D
:1000D0001BF0E2CF1CF0D9CF1DF0DACF1EF0F3CF2A
:1000E00025F0F4CF26F0FACF27F0FBCF28F000C0A0
:1000F00021F001C022F002C023F003C024F09DAA29
:1001000085EF00F09EBA02EF01F021C000F022C09E
:1001100001F023C002F024C003F01FC0E9FF1AC0A1
:10012000EAFF1A8E1BC0E1FF1CC0E2FF1DC0D9FF11
:100130001EC0DAFF25C0F3FF26C0F4FF27C0FAFF78
:1001400028C0FBFF175019C0E0FF18C0D8FF1000EF
:100150004C49515549444F532041000000000000D4
:100160000000000043415543484F000000000000DC
:100170000000000000000000494E535452554D4508
:100180004E54414C00000000000000004C49515505
:1001900049444F53204200000000000000000000CE
:1001A0004C494252450000000000000000000000E1
:1001B00000000000544553540000000000000000FF
:1001C0000000000000000000484F52412059204626
:1001D000454348410000000000000000434C4156E8
:1001E00045000000000000000000000000000000CA
:1001F00000000000000000000000000000000000FF
:10020000000000009EAAFED7AECF53F30301535166
:10021000650803E1010E516F466A512D0AD0036A49
:1002200046503B0FE96E000E0320EA6E53C3EFFF0A
:10023000462A4650090802E2466A516B465210E1CE
:100240003B5065080BE13C3C09D03D3C07D0435294
:1002500005E1443C03D0050E526F02D00A0E526FE6
:100260005551140802E18C8095909E9A000185EF0B
:1002700000F0D76AD66A0301852BD8B4862B00011B
:10028000A0AD20D003016B531AE16A51050817E3B2
:100290008651755D07E303E18551745D03E38C8846
:1002A000959802D08C9895988651E90807E2FF0A44
:1002B00003E185515F0802E2866B856B02D08C8872
:1002C00095980001F2943AEF00F09E0ECF6E580E12
:1002D000CE6E0301622BD8B4632B642BD8B4652B8C
:1002E000662BD8B4672B682BD8B4692B0001A2AF5A
:1002F00005D00301872BD8B4882B0001A3A304D019
:100300000301892BD8B48A2B03014D2D1ED06951CE
:100310000001AB5D0CE308E1AA510301685DD8A0C0
:1003200002D0000104D000018B94949402D08B84FD
:100330009494AD510301695D08E305E10001AC51FE
:100340000301685D02E3696B686B635304E162510A
:10035000C708D8B08CD04AA901D0822B4C2B000101
:10036000A0A309D003015051615DD8A002D00001C3
:1003700002D0612B06D003015051615D02E34A8B2C
:10038000616B0001A0A30AD0A0B508D0A42BD8B4FB
:10039000A52B03018B2BD8B48C2B00019FAF05D06C
:1003A000A0B103D0A62BD8B4A72BA0A903D0A82B0B
:1003B000D8B4A92B0301636B626B4A836C2BD8B44E
:1003C0006D2B0001A0A529D0A0BB27D0AEBF05D0C2
:1003D000AE51000802E2AE0720D0AFBF07D0AF5148
:1003E000000804E2AF07090EAE6F17D0B0BF09D006
:1003F000B051000806E2B007050EAF6F090EAE6FF0
:100400000CD0B1BF0AD0B151000807E2B107090E04
:10041000B06F050EAF6F090EAE6FA0A727D0B8BFA3
:1004200005D0B851000802E2B80720D0B9BF07D004
:10043000B951000804E2B907090EB86F17D0BABF66
:1004400009D0BA51000806E2BA07050EB96F090EC5
:10045000B86F0CD0BBBF0AD0BB51000807E2BB0786
:10046000090EBA6F050EB96F090EB86F03019E90A1
:1004700000013AEF00F070616765204269656E76B1
:10048000656E69646100626B636D643D300070612C
:10049000676520436C617665000070616765204583
:1004A0006D657267656E63696100626B636D643D63
:1004B00030007061676520436C61766500007430C0
:1004C0002E7478743D22257522007661302E766177
:1004D0006C3D310074302E7478743D22257525757D
:1004E00022007661302E76616C3D320074302E74BD
:1004F00078743D2225752575257522007661302E8C
:1005000076616C3D330074302E7478743D2225750D
:1005100025752575257522007661302E76616C3D36
:10052000340074302E7478743D2222007061676547
:1005300020436C617665436F72726563746100007D
:100540007061676520436C6176654261640070612B
:10055000676520436F6E6669670070616765204D4F
:10056000656E755072696E636970616C00007061D0
:10057000676520436C6176650000746974756C6F03
:100580002E7478743D22436C617665204E756576D5
:100590006122000070616765204D656E755072695B
:1005A0006E636970616C0000746974756C6F2E7491
:1005B00078743D22436C617665204E7565766122C4
:1005C000000070616765204D656E755072696E63DD
:1005D0006970616C000070616765204D656E7550D3
:1005E00072696E636970616C0000746974756C6F18
:1005F0002E7478743D22436C617665204E75657665
:1006000061220000646F6576656E74730000746922
:1006100074756C6F2E7478743D22436C617665201E
:1006200041637475616C2200646F6576656E7473E6
:100630000000746974756C6F2E7478743D22436C7D
:10064000617665205465636E69636F220000646F94
:100650006576656E74730000746974756C6F2E74C2
:1006600078743D22496E677265736520436F6E74BE
:1006700072617365F16122007061676520436C618E
:100680007665436F727265637461000070616765BF
:1006900020436C6176654261640070616765204348
:1006A0006F6E6669670070616765204D656E755095
:1006B00072696E636970616C0000706167652043E8
:1006C0006C6176650000746974756C6F2E74787453
:1006D0003D22436C617665204E756576612200008F
:1006E00070616765204D656E755072696E636970E3
:1006F000616C0000746974756C6F2E7478743D229F
:10070000436C617665204E756576612200007061EC
:100710006765204D656E755072696E636970616CB6
:10072000000066656368612E7478743D22543A2532
:10073000332E3166B0432046656368613A25303216
:10074000752F253032752F32302530327520486FA5
:1007500072613A20253032753A253032753A2530AB
:10076000327522007061676520436C617665000018
:100770007061676520436C61766500007061676534
:100780002046656368610000706167652054657389
:10079000740070616765204369636C6F50657273A4
:1007A0006F6E610070616765204E6976656C000050
:1007B00070616765204E6976656C000070616765E1
:1007C0002046756E63696F6E616D69656E746F004A
:1007D000706167652046756E63696F6E616D6965EE
:1007E0006E746F0062632E7069633D2575006264EC
:1007F0002E7069633D25750062692E7069633D2521
:10080000750062632E706963323D25750000626475
:100810002E706963323D2575000062692E70696330
:10082000323D25750000746578746F702E7478748D
:100830003D222573220062632E7069633D25750099
:1008400062642E7069633D25750062692E7069636C
:100850003D25750062632E706963323D2575000089
:1008600062642E706963323D2575000062692E70E6
:100870006963323D25750000746578746F702E745D
:1008800078743D222573220062632E7069633D25D2
:10089000750062642E7069633D25750062692E7073
:1008A00069633D25750062632E706963323D25756D
:1008B000000062642E706963323D25750000626934
:1008C0002E706963323D25750000746578746F7011
:1008D0002E7478743D222573220074746974756CCB
:1008E0006F2E7478743D2253454C454343494F4E17
:1008F00045205355204349434C4F220070616765A2
:1009000020436C617665000066656368612E7478CB
:10091000743D22543A25332E3166B0432046656338
:1009200068613A253032752F253032752F323025E7
:1009300030327520486F72613A20253032753A2581
:100940003032753A25303275220070616765204378
:1009500069636C6F506572736F6E61007473656369
:100960006573742E70636F3D363535333500746DA5
:10097000696E6573742E70636F3D300074736563C8
:100980006573742E70636F3D3000746D696E6573AE
:10099000742E70636F3D363535333500746D696E76
:1009A0006573742E7478743D2225303275220000F0
:1009B000747365636573742E7478743D22253032C8
:1009C0007522000066656368612E7478743D225458
:1009D0003A25332E3166B0432046656368613A2577
:1009E0003032752F253032752F3230253032752058
:1009F000486F72613A20253032753A253032753AA7
:100A000025303275220070616765204369636C6F21
:100A1000506572736F6E6100746D696E7365632EDD
:100A200070636F3D3000747365637365632E70632C
:100A30006F3D363535333500746D696E7365632EE1
:100A400070636F3D36353533350074736563736598
:100A5000632E70636F3D3000746D696E7365632E35
:100A60007478743D222530327522000074736563FA
:100A70007365632E7478743D222530327522000030
:100A800066656368612E7478743D224665636861AB
:100A90003A253032752F253032752F3230253032DD
:100AA0007520202020486F72613A20253032753A37
:100AB00025303275220070616765204369636C6F71
:100AC000506572736F6E61007473657474656D2E1A
:100AD0007478743D222530337522000066656368A2
:100AE000612E7478743D22543A25332E3166B0431A
:100AF0002046656368613A253032752F253032759E
:100B00002F32302530327520486F72613A202530FF
:100B100032753A253032753A2530327522007061CF
:100B20006765204369636C6F506572736F6E610017
:100B3000706167652046756E63696F6E616D69658A
:100B40006E746F00746E6976656C2E7478743D22D5
:100B5000254C7522000062312E62636F3D323031C8
:100B6000360062312E62636F3D3633343838000010
:100B700062302E62636F3D323031360062302E6259
:100B8000636F3D3633343838000062322E62636F53
:100B90003D323031360062322E62636F3D3633347F
:100BA0003838000062342E62636F3D3230313600D7
:100BB00062342E62636F3D3633343838000062335E
:100BC0002E62636F3D323031360062332E62636FC6
:100BD0003D3633343838000062382E62636F3D3260
:100BE0003031360062382E62636F3D363334383828
:100BF000000062392E62636F3D3230313600623957
:100C00002E62636F3D363334383800006231302E47
:100C100062636F3D3230313600006231302E6263E4
:100C20006F3D3633343838006231322E62636F3DA7
:100C30003230313600006231322E62636F3D36331E
:100C4000343838006231362E62636F3D32303136CF
:100C500000006231362E62636F3D3633343838001F
:100C60006231372E62636F3D3230313600006231BF
:100C7000372E62636F3D3633343838006231332E9D
:100C80007478743D22414443303A25332E30662235
:100C900000006231342E7478743D22414443313A6D
:100CA00025332E30662200006231352E7478743D73
:100CB0002241323A25332E3066202530334C7522BE
:100CC00000006231382E7478743D2241333A253366
:100CD0002E3066202530334C752200006232302ED3
:100CE0007478743D2254313A25332E316622000047
:100CF00070616765204D656E755072696E636970CD
:100D0000616C000070616765204D656E7550726999
:100D10006E636970616C000074686F72612E747824
:100D2000743D2225303275220000746D696E757431
:100D30006F732E7478743D222530327522007464EE
:100D400069612E7478743D22253032752200746DED
:100D500065732E7478743D222530327522007479C3
:100D60006561722E7478743D222530327522000040
:100D700066656368612E7478743D22543A25332E7B
:100D80003166B0432046656368613A253032752F7D
:100D9000253032752F32302530327520486F726120
:100DA0003A20253032753A253032753A2530327581
:100DB00022006369636C6F2E7478743D224349434B
:100DC0004C4F205025303275220074656D702E74A2
:100DD00078743D2225752200746573742E747874BE
:100DE0003D22253032753A25303275220000747369
:100DF00065632E7478743D22253032753A25303281
:100E000075220000646573666F6775652E7478746B
:100E10003D22257522006369636C6F2E7478743DE2
:100E2000224349434C4F20502D2D220074656D7094
:100E30002E7478743D222D2D2200746573742E74E7
:100E400078743D222D2D3A2D2D2200007473656398
:100E50002E7478743D222D2D3A2D2D2200006465CC
:100E600073666F6775652E7478743D222D2D220090
:100E70006369636C6F2E7478743D224349434C4F11
:100E8000205025303275220074656D702E74787490
:100E90003D2225752200746573742E7478743D228A
:100EA000253032753A25303275220000747365633F
:100EB0002E7478743D22253032753A2530327522F1
:100EC0000000646573666F6775652E7478743D22E3
:100ED0002575220070616765204D656E75507269D9
:100EE0006E636970616C0000706167652054656DA8
:100EF000706572617475726100007061676520547D
:100F000069656D706F45737400007061676520548A
:100F100069656D706F536563000070616765204E91
:100F20006976656C0000706167652046756E63695F
:100F30006F6E616D69656E746F0070616765204DDD
:100F4000656E755072696E636970616C00007061E6
:100F5000676520436C61766500007432662E747894
:100F6000743D2225752200007433662E7478743D1A
:100F70002225732200007432662E7478743D222577
:100F8000752200007433662E7478743D22506572A9
:100F9000736F6E616C697A61646F220046756E636F
:100FA000696F6E616D69656E746F2E7434662E7430
:100FB00078743D222050617261646120646520452F
:100FC0006D657267656E63696122000046756E63C8
:100FD000696F6E616D69656E746F2E7435662E74FF
:100FE00078743D222043616E63656C61646F2200FA
:100FF00046756E63696F6E616D69656E746F2E7490
:1010000034662E7478743D222050756572746120A8
:101010004162696572746122000046756E63696F92
:101020006E616D69656E746F2E7435662E7478749A
:101030003D22205061757361646F220046756E63B6
:10104000696F6E616D69656E746F2E7434662E748F
:1010500078743D22205469656D706F204C6C656E0C
:1010600061646F22000046756E63696F6E616D6921
:10107000656E746F2E7435662E7478743D2220432D
:10108000616E63656C61646F220046756E63696FA3
:101090006E616D69656E746F2E7434662E7478742B
:1010A0003D22205465726D6F737461746F2200006D
:1010B00046756E63696F6E616D69656E746F2E74CF
:1010C00035662E7478743D222043616E63656C61D1
:1010D000646F220046756E63696F6E616D69656E3F
:1010E000746F2E7434662E7478743D2220536F62B0
:1010F000726574656D70657261747572612200004D
:1011000046756E63696F6E616D69656E746F2E747E
:1011100035662E7478743D222043616E63656C6180
:10112000646F220046756E63696F6E616D69656EEE
:10113000746F2E7434662E7478743D222054696561
:101140006D706F2050726F6C6F6E6761646F2200FC
:1011500046756E63696F6E616D69656E746F2E742E
:1011600035662E7478743D222043616E63656C6130
:10117000646F220046756E63696F6E616D69656E9E
:10118000746F2E7434662E7478743D2220536F620F
:1011900072655072657369F36E22000046756E6366
:1011A000696F6E616D69656E746F2E7435662E742D
:1011B00078743D222043616E63656C61646F220028
:1011C00046756E63696F6E616D69656E746F2E74BE
:1011D00034662E7478743D22204572726F722043FB
:1011E00069636C6F220046756E63696F6E616D692D
:1011F000656E746F2E7435662E7478743D222043AC
:10120000616E63656C61646F220046756E63696F21
:101210006E616D69656E746F2E7434662E747874A9
:101220003D22205265736572766F72696F202020AF
:101230002022000046756E63696F6E616D69656E90
:10124000746F2E7435662E7478743D22204C6C6554
:101250006E616E646F2043616D617261220046753C
:101260006E63696F6E616D69656E746F2E7434663E
:101270002E7478743D22204E696E67756E6122006F
:1012800046756E63696F6E616D69656E746F2E74FD
:1012900035662E7478743D22204C6C656E616E64E8
:1012A0006F2043616D617261220046756E63696FE4
:1012B0006E616D69656E746F2E7434662E74787409
:1012C0003D22204E696E67756E61220046756E6321
:1012D000696F6E616D69656E746F2E7435662E74FC
:1012E00078743D222043616C656E74616E646F2278
:1012F000000046756E63696F6E616D69656E746F2F
:101300002E7434662E7478743D22204E696E677593
:101310006E61220046756E63696F6E616D69656E00
:10132000746F2E7435662E7478743D222046696E73
:10133000616C697A61646F22000046756E63696F43
:101340006E616D69656E746F2E7434662E74787478
:101350003D22204E696E67756E61220046756E6390
:10136000696F6E616D69656E746F2E7435662E746B
:1013700078743D2220446573707265737572697A62
:10138000616E646F220046756E63696F6E616D6990
:10139000656E746F2E7434662E7478743D22204E00
:1013A000696E67756E61220046756E63696F6E6166
:1013B0006D69656E746F2E7435662E7478743D2277
:1013C0002046696E616C697A61646F22000046751F
:1013D0006E63696F6E616D69656E746F2E743466CD
:1013E0002E7478743D22204E696E67756E612200FE
:1013F00046756E63696F6E616D69656E746F2E748C
:1014000035662E7478743D2220536563616E646F77
:10141000220046756E63696F6E616D69656E746FEB
:101420002E7434662E7478743D22204E696E677572
:101430006E61220046756E63696F6E616D69656EDF
:10144000746F2E7435662E7478743D222044657353
:10145000707265737572697A616E646F2200467589
:101460006E63696F6E616D69656E746F2E7434663C
:101470002E7478743D22204E696E67756E6122006D
:1014800046756E63696F6E616D69656E746F2E74FB
:1014900035662E7478743D22204573746572696CCC
:1014A000697A616E646F22006164642031342C308B
:1014B0002C25312E306600007436662E7478743D0B
:1014C0002225332E3166B043220046756E63696F64
:1014D0006E616D69656E746F2E7437662E747874E4
:1014E0003D222530334C756B5061220046756E638A
:1014F000696F6E616D69656E746F2E743132662E20
:101500007478743D223030306B5061220000467593
:101510006E63696F6E616D69656E746F2E74396686
:101520002E7478743D2225303375220046756E6323
:10153000696F6E616D69656E746F2E743130662EE1
:101540007478743D222530327522000046756E6332
:10155000696F6E616D69656E746F2E743133662EBE
:101560007478743D222530327522000046756E6312
:10157000696F6E616D69656E746F2E743131662EA0
:101580007478743D222530327522000046756E63F2
:10159000696F6E616D69656E746F2E743136662E7B
:1015A0007478743D222530327522000066656368C8
:1015B000612E7478743D2246656368613A25303245
:1015C000752F253032752F3230253032752020208E
:1015D00020486F72613A20253032753A25303275D5
:1015E0002200436F6E6669672E7432632E747874BE
:1015F0003D2250726F706F7263696F6E616C220072
:101600007433632E7478743D2225322E30662200A6
:10161000436F6E6669672E7432632E7478743D2250
:101620004465726976617469766F22007433632E43
:101630007478743D222575220000436F6E666967D9
:101640002E7432632E7478743D22496E746567720D
:10165000616C22007433632E7478743D22257522E8
:101660000000436F6E6669672E7432632E7478745F
:101670003D22546369636C6F22007433632E747867
:10168000743D2225322E30662200436F6E666967F4
:101690002E7432632E7478743D22416A75737465BA
:1016A000202B22007433632E7478743D222575221A
:1016B0000000436F6E6669672E7432632E7478740F
:1016C0003D22416A75737465202D22007433632EA8
:1016D0007478743D222575220000436F6E66696739
:1016E0002E7432632E7478743D224D6564696122D4
:1016F00000007433632E7478743D22257522000037
:10170000436F6E6669672E7432632E7478743D225F
:10171000525054313030422200007433632E7478BA
:10172000743D2225322E31662200436F6E66696752
:101730002E7432632E7478743D22545472616D702D
:10174000612200007433632E7478743D2225303298
:1017500075220000436F6E6669672E7432632E74C3
:1017600078743D224369636C6F7322007433632E77
:101770007478743D222530354C752200436F6E66B7
:1017800069672E7432632E7478743D2241746D6FD4
:10179000736665726963612200007433632E747826
:1017A000743D222530327522000070616765204D3E
:1017B000656E755072696E636970616C0000666574
:1017C0006368612E7478743D2246656368613A25CA
:1017D0003032752F253032752F323025303275205A
:1017E000202020486F72613A20253032753A25302A
:1017F00032752200030EEA6EFD0EE96EEF500DE029
:10180000060E016E006A002EFED7012EFBD77B0E5E
:10181000006E002EFED7EF2EF3D7000C8E0E006E5A
:10182000FEC301F0FDC302F0036A015209E102C0E8
:1018300001F0026A080E005E015202E1006A08D05F
:10184000D89001BE04D0023601360006F9D7019EB9
:10185000000C0301F151D8B4A5D0FD6FF551D8B4F7
:10186000A1D0FD5F05E37F0EFD27D8B09BD006D049
:10187000810EFD5FD8A096D0D8B494D0FDC300F0FF
:10188000016A026A036AFC6BF2C3FBF3FB8FF3C3CA
:10189000FAF3F4C3F9F3190EFD6FF851F95F0DE295
:1018A000010EFA5F0AE2FB5F08E2FC5F06E2FC2B36
:1018B000FB2BFA2BF851F92728D0F751FA5F12E2E7
:1018C000010EFB5F0FE2FC5F0DE2FC2BFB2BF751DF
:1018D000FA27F851F92719E3FA2B17E1FB2B15E149
:1018E000FC2B13D0F6518009FB5F0EE2010EFC5F6A
:1018F0000BE2FC2BF6518009FB27F751FA27E9E3AD
:10190000FB2BE7E1FC2BE5D70380FD2F01D00BD0AB
:10191000D890F937FA37FB37FC37D89003360236C0
:101920000136FE37BAD7FEA106D0D8900132023276
:101930000332FE3302D0000635E0FEBF1ED0D89041
:10194000F937FA37FB37FC37F851F95F07E2010E38
:10195000FA5F04E2FB5F02E2FC5F1AE3F751FA5F11
:1019600005E2010EFB5F02E2FC5F12E3F651800923
:10197000FB5F03E2010EFC5F0BE3032A09E1022A8D
:1019800007E1012A05E1002A0DE0013202320332AB
:10199000F2C3FDF3F651FD1BFDAF02D0018E06D060
:1019A000019E04D0006A016A026A036A0001000C09
:1019B000800ED8A202D00401021B0401076B086B41
:1019C000FEC306F40251061B0301FD51D8B4DFD05B
:1019D0000401056F006E0151D8B4E3D0055FD8B49F
:1019E00083D03DE302C40BF40B8F03C40AF404C498
:1019F00009F4086BD8900B330A3309330833052FE9
:101A0000F8D706AF03D00781E0D007910591078989
:101A1000040EEA6EE96AECD0079906BF0AD005A168
:101A200013D00B330A3309330833002AD8B4C8D093
:101A30000BD00BBF0CD0D890083709370A370B37BB
:101A40000006D8B4BDD0F5D7078D6DD0079DFEC375
:101A500006F406AF02D00B8FACD00B9FAAD001C406
:101A600005F401C400F00301FD510401055FFEC34C
:101A70000BF40B8FFFC30AF400C409F4086BD89071
:101A80000B330A3309330833052FF8D706AF03D0D9
:101A900007839BD007930591078B040EEA6EE96ECE
:101AA000A7D0079B06BF0AD005A113D00B330A337A
:101AB00009330833002AD8B483D00BD00BBF0CD025
:101AC000D890083709370A370B370006D8B478D0D2
:101AD000F5D7078F28D0079F02C406F402AF02D0C3
:101AE0000B8F67D00B9F65D002C40BF40B8F03C420
:101AF0000AF404C409F406AF04D00B9F078565D02F
:101B00000795086B0591040EEA6EE96A71D006BF6D
:101B10001CD0FEC306F405A106D00B330A330933EB
:101B20000833002A4DE008AF0BD0092B09E10A2B3E
:101B300007E10B2B05E10B330A330933002A40E0A0
:101B400007BD84D707BFC7D71CD0800E0B1B0BAFB8
:101B500004D03BD002C406F40AD0FEC306F40B53F3
:101B600006E10A5304E1095302E1006A22D00BBFE7
:101B700008D0D890083709370A370B37002EF7D727
:101B80001FD006AF02D00B8F14D00B9F12D001C410
:101B900000F002C40BF403C40AF404C409F4040101
:101BA00008D0FDC300F0FEC30BF4FFC30AF400C469
:101BB00009F40BC401F00AC402F009C403F034D0E4
:101BC000006A016A026A036A2FD0086B091F0A1FA4
:101BD0000B1F081F082B05E1092B03E10A2B01E16C
:101BE0000B2B07B112D707B355D707B589D7B2D793
:101BF000EF50092705E30A2B03E10B2BD8B405812D
:101C0000ED52EF500A2703E30B2BD8B40581ED52B8
:101C1000EF50EFBE01D0800A0B27D8B0058107B97D
:101C2000FBD607BB3ED773D70001000CF2CFE8F319
:101C3000F29CF29EAA6AA96AA69CA69EA680A850BB
:101C40000301E8BDF28CE8BFF28E0001B36F0A0E0B
:101C50000301FD6F0001CEDDF2CFE8F3F29CF29EAE
:101C6000AA6A010EA96EA69CA69EA680A850030192
:101C7000E8BDF28CE8BFF28E0001B46F0A0E0301DA
:101C8000FD6F0001B7DDF2CFE8F3F29CF29EAA6A85
:101C9000020EA96EA69CA69EA680A8500301E8BDD0
:101CA000F28CE8BFF28E0001B56F0A0E0301FD6FE2
:101CB0000001A0DDF2CFE8F3F29CF29EAA6A030EC7
:101CC000A96EA69CA69EA680A8500301E8BDF28C32
:101CD000E8BFF28E0001B66F0A0E0301FD6F00012E
:101CE00089DDF2CFE8F3F29CF29EAA6A040EA96E97
:101CF000A69CA69EA680A8500301E8BDF28CE8BF72
:101D0000F28E0001BC6F0A0E0301FD6F000172DD4F
:101D1000F2CFE8F3F29CF29EAA6A050EA96EA69C89
:101D2000A69EA680A8500301E8BDF28CE8BFF28E03
:101D30000001BD6F0A0E0301FD6F00015BDDF2CFF4
:101D4000E8F3F29CF29EAA6A060EA96EA69CA69ED5
:101D5000A680A8500301E8BDF28CE8BFF28E000116
:101D6000BE6F0A0E0301FD6F000144DDF2CFE8F300
:101D7000F29CF29EAA6A070EA96EA69CA69EA68059
:101D8000A8500301E8BDF28CE8BFF28E0001BF6FDE
:101D90000A0E0301FD6F00012DDDF2CFE8F3F29C86
:101DA000F29EAA6A080EA96EA69CA69EA680A850BE
:101DB0000301E8BDF28CE8BFF28E5C6F0A0EFD6F86
:101DC000000118DDF2CFE8F3F29CF29EAA6A090E38
:101DD000A96EA69CA69EA680A8500301E8BDF28C21
:101DE000E8BFF28E6B6B6A6F0A0EFD6F000102DDB9
:101DF000F2CFE8F3F29CF29EAA6A0A0EA96EA69CA4
:101E0000A69EA680A8500301E8BDF28CE8BFF28E22
:101E10007A6F0A0EFD6F0001EDDCF2CFE8F3F29C61
:101E2000F29EAA6A0B0EA96EA69CA69EA680A8503A
:101E30000301E8BDF28CE8BFF28E7B6F0A0EFD6FE6
:101E40000001D8DCF2CFE8F3F29CF29EAA6A0C0EF5
:101E5000A96EA69CA69EA680A8500301E8BDF28CA0
:101E6000E8BFF28E7C6F0A0EFD6F0001C3DCF2CF7B
:101E7000E8F3F29CF29EAA6A0D0EA96EA69CA69E9D
:101E8000A680A8500301E8BDF28CE8BFF28E7D6FFA
:101E90000A0EFD6F0001AEDCF2CFE8F3F29CF29E79
:101EA000AA6A140EA96EA69CA69EA680A85003013D
:101EB000E8BDF28CE8BFF28EFE6BFD6F0001AEDC78
:101EC00003C002F302C001F301C000F300C0FFF23F
:101ED0000A0E0301FD6F00018DDCF2CFE8F3F29CE6
:101EE000F29EAA6A150EA96EA69CA69EA680A85070
:101EF0000301E8BDF28CE8BFF28E0201D66F0A0E34
:101F00000301FD6F000176DCF2CFE8F3F29CF29E54
:101F1000AA6A160EA96EA69CA69EA680A8500301CA
:101F2000E8BDF28CE8BFF28E0201D76F0A0E030102
:101F3000FD6F00015FDCF2CFE8F3F29CF29EAA6A2B
:101F4000180EA96EA69CA69EA680A8500301E8BD07
:101F5000F28CE8BFF28E0201D86F0A0E0301FD6F0A
:101F6000000148DCF2CFE8F3F29CF29EAA6A190E57
:101F7000A96EA69CA69EA680A8500301E8BDF28C7F
:101F8000E8BFF28EFE6BFD6F000148DC03C0EAF291
:101F900002C0E9F201C0E8F200C0E7F20A0E030154
:101FA000FD6F000127DCF2CFE8F3F29CF29EAA6AF3
:101FB0001A0EA96EA69CA69EA680A8500301E8BD95
:101FC000F28CE8BFF28E336F0A0EFD6F000112DC57
:101FD000F2CFE8F3F29CF29EAA6A1B0EA96EA69CB1
:101FE000A69EA680A8500301E8BDF28CE8BFF28E41
:101FF000346F0A0EFD6F0001FAEC0BF0F2CFE8F33C
:10200000F29CF29EAA6A1D0EA96EA69CA69EA680B0
:10201000A8500301E8BDF28CE8BFF28EFE6BFD6FA5
:1020200000010EEC0CF003C0ABF202C0AAF201C03A
:10203000A9F200C0A8F2ABC2F4F3AAC2F3F3A9C29A
:10204000F2F3A8C2F1F30301F86BF76B200EF66F01
:10205000820EF56F000129EC0CF003C0ABF202C058
:10206000AAF201C0A9F200C0A8F20A0E0301FD6F96
:102070000001FAEC0BF0F2CFE8F3F29CF29EAA6AB0
:102080001C0EA96EA69CA69EA680A8500301E8BDC2
:10209000F28CE8BFF28EFE6BFD6F00010EEC0CF0CF
:1020A000D89203C000F402C0FFF301C0FEF300C0E9
:1020B000FDF3ABC204F4AAC203F4A9C202F4A8C29D
:1020C00001F476DC03C0A3F202C0A2F201C0A1F2C7
:1020D00000C0A0F20A0E0301FD6F0001FAEC0BF044
:1020E000F2CFE8F3F29CF29EAA6A1F0EA96EA69C9C
:1020F000A69EA680A8500301E8BDF28CE8BFF28E30
:10210000E96FF2CFEAF3F29CF29EAA6A1E0EA96E64
:10211000A69CA69EA680A850EABDF28CEABFF28ECD
:10212000EB6FE9C303F0EB51FD6F03C0FEF3000159
:102130000EEC0CF003C0AFF202C0AEF201C0ADF283
:1021400000C0ACF20A0E0301FD6F0001FAEC0BF0C7
:10215000F2CFE8F3F29CF29EAA6A210EA96EA69C29
:10216000A69EA680A8500301E8BDF28CE8BFF28EBF
:10217000FE6BFD6F00010EEC0CF003C0ABF202C071
:10218000AAF201C0A9F200C0A8F2ABC2F4F3AAC23D
:10219000F3F3A9C2F2F3A8C2F1F30301F86BF76BF2
:1021A000200EF66F820EF56F000129EC0CF003C0D3
:1021B000ABF202C0AAF201C0A9F200C0A8F20A0E56
:1021C0000301FD6F0001FAEC0BF0F2CFE8F3F29C93
:1021D000F29EAA6A200EA96EA69CA69EA680A85072
:1021E0000301E8BDF28CE8BFF28EFE6BFD6F0001CB
:1021F0000EEC0CF0D89203C000F402C0FFF301C053
:10220000FEF300C0FDF3ABC204F4AAC203F4A9C2FA
:1022100002F4A8C201F4D8EC0CF003C0A7F202C08B
:10222000A6F201C0A5F200C0A4F20A0E0301FD6FE0
:102230000001FAEC0BF0F2CFE8F3F29CF29EAA6AEE
:10224000250EA96EA69CA69EA680A8500301E8BDF7
:10225000F28CE8BFF28E596F0A0EFD6F0001FAECA6
:102260000BF0F2CFE8F3F29CF29EAA6A260EA96E5A
:10227000A69CA69EA680A8500301E8BDF28CE8BFEC
:10228000F28E5A6F0A0EFD6F0001FAEC0BF05AC382
:1022900073F359C372F30A0E0301FD6F0001FAECE8
:1022A0000BF0F2CFE8F3F29CF29EAA6A270EA96E19
:1022B000A69CA69EA680A8500301E8BDF28CE8BFAC
:1022C000F28E0201D96F0A0E0301FD6F0001FAECD4
:1022D0000BF0F2CFE8F3F29CF29EAA6A280EA96EE8
:1022E000A69CA69EA680A8500301E8BDF28CE8BF7C
:1022F000F28E4E6F0A0EFD6F0001FAEC0BF0F2CF7A
:10230000E8F3F29CF29EAA6A290EA96EA69CA69EEC
:10231000A680A8500301E8BDF28CE8BFF28E4F6F93
:102320000A0EFD6F0001FAEC0BF0F2CFE8F3F29C1D
:10233000F29EAA6A2A0EA96EA69CA69EA680A85006
:102340000301E8BDF28CE8BFF28E9E6F0A0EFD6FAE
:102350000001FAEC0BF0F2CFE8F3F29CF29EAA6ACD
:102360002B0EA96EA69CA69EA680A8500301E8BDD0
:10237000F28CE8BFF28E9F6F0A0EFD6F0001FAEC3F
:102380000BF0F2CFE8F3F29CF29EAA6A2C0EA96E33
:10239000A69CA69EA680A8500301E8BDF28CE8BFCB
:1023A000F28EA06F0A0EFD6F0001FAEC0BF0F2CF77
:1023B000E8F3F29CF29EAA6A2D0EA96EA69CA69E38
:1023C000A680A8500301E8BDF28CE8BFF28EA16F91
:1023D0000A0EFD6F0001FAEC0BF0F2CFE8F3F29C6D
:1023E000F29EAA6A2E0EA96EA69CA69EA680A85052
:1023F0000301E8BDF28CE8BFF28E9D6F586B585117
:102400000308D8A09CD258510A0DF350E96BE86F2D
:10241000C00EE825E96E030EE921EA6E5851080D59
:10242000F350640FEA6FF2CFEBF3F29CF29EAA6ACC
:10243000EAC3A9FFA69CA69EA680A850EBBDF28C7D
:10244000EBBFF28EEF6E58510A0DF350E96BE86F57
:10245000010EE825016E000EE921036E0150C00F48
:10246000E96E030E0320EA6E5851080DF350650F14
:10247000EA6FF2CFEBF3F29CF29EAA6AEAC3A9FFDD
:10248000A69CA69EA680A850EBBDF28CEBBFF28E58
:10249000EF6E58510A0DF350E96BE86F090EE8250D
:1024A000016E000EE921036E0150C00FE96E030EAC
:1024B0000320EA6E5851080DF350660FEA6FF2CF11
:1024C000EBF3F29CF29EAA6AEAC3A9FFA69CA69E21
:1024D000A680A850EBBDF28CEBBFF28EEF6E585188
:1024E0000A0DF350E96BE86F030EE825016E000E4C
:1024F000E921036E0150C00FE96E030E0320EA6E5E
:102500005851080DF350670FEA6FF2CFEBF3F29CCE
:10251000F29EAA6AEAC3A9FFA69CA69EA680A8501E
:10252000EBBDF28CEBBFF28EEF6E58510A0DF350FB
:10253000E96BE86F040EE825016E000EE921036ED9
:102540000150C00FE96E030E0320EA6E5851080DCA
:10255000F350680FEA6FF2CFEBF3F29CF29EAA6A97
:10256000EAC3A9FFA69CA69EA680A850EBBDF28C4C
:10257000EBBFF28EEF6E58510A0DF350E96BE86F26
:10258000050EE825016E000EE921036E0150C00F13
:10259000E96E030E0320EA6E5851080DF350690FDF
:1025A000EA6FF2CFEBF3F29CF29EAA6AEAC3A9FFAC
:1025B000A69CA69EA680A850EBBDF28CEBBFF28E27
:1025C000EF6E58510A0DF350E96BE86F060EE825DF
:1025D000016E000EE921036E0150C00FE96E030E7B
:1025E0000320EA6E5851080DF3506A0FEA6FF2CFDC
:1025F000EBF3F29CF29EAA6AEAC3A9FFA69CA69EF0
:10260000A680A850EBBDF28CEBBFF28EEF6E585156
:102610000A0DF350E96BE86F080EE825016E000E15
:10262000E921036E0150C00FE96E030E0320EA6E2C
:102630005851080DF3506B0FEA6FF2CFEBF3F29C99
:10264000F29EAA6AEAC3A9FFA69CA69EA680A850ED
:10265000EBBDF28CEBBFF28EEF6E58510A0DF350CA
:10266000E96BE86FC00EE825E96E030EE921EA6E1A
:10267000EF5086080EE358510A0DF350E96BE86FEE
:10268000C00EE825E96E030EE921EA6EEF506808F6
:102690000DE358510A0DF350E96BE86FC00EE825C1
:1026A000E96E030EE921EA6E790EEF6E58510A0DBC
:1026B000F350E96BE86F090EE825016E000EE92181
:1026C000036E0150C00FE96E030E0320EA6EEF5057
:1026D0003B0812E258510A0DF350E96BE86F090EFE
:1026E000E825016E000EE921036E0150C00FE96E6E
:1026F000030E0320EA6EEF6A58510A0DF350E96B9E
:10270000E86F030EE825016E000EE921036E01500B
:10271000C00FE96E030E0320EA6EEF503B0812E291
:1027200058510A0DF350E96BE86F030EE825016E6E
:10273000000EE921036E0150C00FE96E030E032065
:10274000EA6EEF6A58510A0DF350E96BE86F040E18
:10275000E825016E000EE921036E0150C00FE96EFD
:10276000030E0320EA6EEF503B0812E258510A0DA7
:10277000F350E96BE86F040EE825016E000EE921C5
:10278000036E0150C00FE96E030E0320EA6EEF6A7C
:1027900058510A0DF350E96BE86F030EE825016EFE
:1027A000000EE921036E0150C00FE96E030E0320F5
:1027B000EA6EEF503B0812E258510A0DF350E96BF4
:1027C000E86F030EE825016E000EE921036E01504B
:1027D000C00FE96E030E0320EA6EEF6A58510A0D2E
:1027E000F350E96BE86F050EE825016E000EE92154
:1027F000036E0150C00FE96E030E0320EA6EEF5026
:102800003B0812E258510A0DF350E96BE86F050ED0
:10281000E825016E000EE921036E0150C00FE96E3C
:10282000030E0320EA6EEF6A58510A0DF350E96B6C
:10283000E86F060EE825016E000EE921036E0150D7
:10284000C00FE96E030E0320EA6EEF500F0813E28B
:1028500058510A0DF350E96BE86F060EE825016E3A
:10286000000EE921036E0150C00FE96E030E032034
:10287000EA6E040EEF6E58510A0DF350E96BE86FE3
:10288000070EE825016E000EE921036E0150C00F0E
:10289000E96E030E0320EA6EEF50640814E358510A
:1028A0000A0DF350E96BE86F070EE825016E000E84
:1028B000E921036E0150C00FE96E030E0320EA6E9A
:1028C000EF50090813E358510A0DF350E96BE86F14
:1028D000070EE825016E000EE921036E0150C00FBE
:1028E000E96E030E0320EA6E190EEF6E58510A0DC1
:1028F000F350E96BE86F080EE825016E000EE92140
:10290000036E0150C00FE96E030E0320EA6EEF5014
:10291000060813E258510A0DF350E96BE86F080EF0
:10292000E825016E000EE921036E0150C00FE96E2B
:10293000030E0320EA6E060EEF6E582B60D50001E1
:102940000EEF2DF00301F26BF25107080DE3D89062
:10295000F13302E28C9401D08C84959495928C8210
:1029600095928C92F22BF0D70001000C95968C86F4
:10297000EFC3F1F3E7DFF0C3F1F3E4DF95968C9654
:10298000000C95968C86ECC3F1F3DCDF9584100E79
:10299000006E002EFED700000301ED6BED5107081D
:1029A00015E3958483B402D0D89001D0D880EE335B
:1029B00095928C82210E006E002EFED795928C92FD
:1029C000210E006E002EFED7ED2BE8D795968C9643
:1029D000EEC301F00001000C95968C96210E006E5E
:1029E000002EFED795928C928E0E0301EF6FF06B46
:1029F0000001BCDF900E0301EF6FA40EF06F000129
:102A0000B5DF810E0301EC6F0001BBDF01C0E8F30D
:102A10000301E851800B06E0800EEF6FF06B0001C0
:102A2000A5DF0301000110EF2DF0EDC3F4F3030166
:102A3000F151F41BF4AF05D0D894D890EDBFD880F5
:102A40002FD0EDC3F4F3F0C3F5F3EC51F55F06E0DE
:102A5000F4AF26D0D850010AD86E22D0F1C3F5F3D6
:102A6000ED51F55F06E0F4AF1BD0D850010AD86EE7
:102A700017D0F2C3F5F3EE51F55F06E0F4AF10D0D6
:102A8000D850010AD86E0CD0F3C3F5F3EF51F55FBF
:102A900006E0F4AF05D0D850010AD86E01D0D89026
:102AA0000001000C006A016A0301EA51D890EBB101
:102AB000002600320132EBB3002600320132EBB5C2
:102AC000002600320132EBB7002600320132EBB9AA
:102AD000002600320132EBBB002600320132EBBD92
:102AE000002600320132EBBF002600320132000125
:102AF000000CB3BF03D0B351090803E3B3BF01D047
:102B00001CD0B36BAA6AA96AA86AA69CA69EA684D2
:102B1000F250006EF29CF29E0F01550EA76EAA0EA7
:102B2000A76EA682A6B2FED7A6940050F2120A0E95
:102B30000301FD6F0001FAEC0BF0B4BF03D0B451F8
:102B4000090803E3B4BF01D01DD0B46BAA6A010E1B
:102B5000A96EA86AA69CA69EA684F250006EF29C5E
:102B6000F29E0F01550EA76EAA0EA76EA682A6B200
:102B7000FED7A6940050F2120A0E0301FD6F000169
:102B8000FAEC0BF0B5BF03D0B551090803E3B5BFAC
:102B900001D01DD0B56BAA6A020EA96EA86AA69CC8
:102BA000A69EA684F250006EF29CF29E0F01550E76
:102BB000A76EAA0EA76EA682A6B2FED7A694005054
:102BC000F2120A0E0301FD6F0001FAEC0BF0B6BF22
:102BD00003D0B651090803E3B6BF01D01DD0B66BD0
:102BE000AA6A030EA96EA86AA69CA69EA684F250A5
:102BF000006EF29CF29E0F01550EA76EAA0EA76EF4
:102C0000A682A6B2FED7A6940050F2120A0E0301C5
:102C1000FD6F0001FAEC0BF0BCBF03D0BC510908FA
:102C200003E3BCBF01D01DD0BC6BAA6A040EA96E21
:102C3000A86AA69CA69EA684F250006EF29CF29E04
:102C40000F01550EA76EAA0EA76EA682A6B2FED7DA
:102C5000A6940050F2120A0E0301FD6F0001FAEC77
:102C60000BF0BDBF03D0BD51090803E3BDBF01D0C8
:102C70001DD0BD6BAA6A050EA96EA86AA69CA69E69
:102C8000A684F250006EF29CF29E0F01550EA76EC4
:102C9000AA0EA76EA682A6B2FED7A6940050F21284
:102CA0000A0E0301FD6F0001FAEC0BF0BEBF03D06A
:102CB000BE51090803E3BEBF01D01DD0BE6BAA6A96
:102CC000060EA96EA86AA69CA69EA684F250006E67
:102CD000F29CF29E0F01550EA76EAA0EA76EA68259
:102CE000A6B2FED7A6940050F2120A0E0301FD6FA1
:102CF0000001FAEC0BF0BFBF03D0BF51090803E39A
:102D0000BFBF01D01DD0BF6BAA6A070EA96EA86A0B
:102D1000A69CA69EA684F250006EF29CF29E0F0125
:102D2000550EA76EAA0EA76EA682A6B2FED7A694CF
:102D30000050F2120A0E0301FD6F0001FAEC0BF0D5
:102D400003015C51860820E2860E5C6FAA6A080EB9
:102D5000A96E860EA86EA69CA69EA684F250006E52
:102D6000F29CF29E0F01550EA76EAA0EA76EA682C8
:102D7000A6B2FED7A6940050F2120A0E0301FD6F10
:102D80000001FAEC0BF003016B5303E16A510608F2
:102D900021E26B6B030E6A6FAA6A090EA96E030E1D
:102DA000A86EA69CA69EA684F250006EF29CF29E8F
:102DB0000F01550EA76EAA0EA76EA682A6B2FED769
:102DC000A6940050F2120A0E0301FD6F0001FAEC06
:102DD0000BF003017ABF03D07A51090803E37ABFED
:102DE00001D01ED07A6BAA6A0A0EA96EA86AA69CA8
:102DF000A69EA684F250006EF29CF29E0F01550E24
:102E0000A76EAA0EA76EA682A6B2FED7A694005001
:102E1000F2120A0E0301FD6F0001FAEC0BF0030140
:102E20007BBF03D07B51090803E37BBF01D01ED0D9
:102E30007B6BAA6A0B0EA96EA86AA69CA69EA684A6
:102E4000F250006EF29CF29E0F01550EA76EAA0E74
:102E5000A76EA682A6B2FED7A6940050F2120A0E62
:102E60000301FD6F0001FAEC0BF003017CBF03D0FE
:102E70007C51090803E37CBF01D01ED07C6BAA6A99
:102E80000C0EA96EA86AA69CA69EA684F250006E9F
:102E9000F29CF29E0F01550EA76EAA0EA76EA68297
:102EA000A6B2FED7A6940050F2120A0E0301FD6FDF
:102EB0000001FAEC0BF003017DBF03D07D5109083E
:102EC00003E37DBF01D01ED07D6BAA6A0D0EA96EF3
:102ED000A86AA69CA69EA684F250006EF29CF29E62
:102EE0000F01550EA76EAA0EA76EA682A6B2FED738
:102EF000A6940050F2120A0E0301FD6F0001FAECD5
:102F00000BF00301EF6BEE6B400EED6F820EEC6F7A
:102F100002C3F3F301C3F2F300C3F1F3FFC2F0F312
:102F2000000183DD25E30301026B016B400E006F9E
:102F3000820E0201FF6FAA6A140EA96E0C0EA86E13
:102F4000A69CA69EA684F250006EF29CF29E0F01F3
:102F5000550EA76EAA0EA76EA682A6B2FED7A6949D
:102F60000050F2120A0E0301FD6F0001FAEC0BF0A3
:102F70000201D65164081EE2D66BAA6A150EA96E2C
:102F8000A86AA69CA69EA684F250006EF29CF29EB1
:102F90000F01550EA76EAA0EA76EA682A6B2FED787
:102FA000A6940050F2120A0E0301FD6F0001FAEC24
:102FB0000BF00201D75164081EE2D76BAA6A160E05
:102FC000A96EA86AA69CA69EA684F250006EF29CEA
:102FD000F29E0F01550EA76EAA0EA76EA682A6B28C
:102FE000FED7A6940050F2120A0E0301FD6F0001F5
:102FF000FAEC0BF00201D85150081FE2500ED86FC6
:10300000AA6A180EA96E500EA86EA69CA69EA6844B
:10301000F250006EF29CF29E0F01550EA76EAA0EA2
:10302000A76EA682A6B2FED7A6940050F2120A0E90
:103030000301FD6F0001FAEC0BF00301EF6BEE6B87
:10304000200EED6F820EEC6FEAC2F3F3E9C2F2F3E9
:10305000E8C2F1F3E7C2F0F30001E7DC24E3020188
:10306000EA6BE96B200EE86F820EE76FAA6A190E11
:10307000A96E0A0EA86EA69CA69EA684F250006EAB
:10308000F29CF29E0F01550EA76EAA0EA76EA682A5
:10309000A6B2FED7A6940050F2120A0E0301FD6FED
:1030A0000001FAEC0BF00301FE6B33C3FDF30001EA
:1030B0000EEC0CF00301EF6BEE6BED6B800EEC6F22
:1030C00003C0F3F302C0F2F301C0F1F300C0F0F368
:1030D0000001ABDC20E3010E0301336FAA6A1A0E74
:1030E000A96E010EA86EA69CA69EA684F250006E44
:1030F000F29CF29E0F01550EA76EAA0EA76EA68235
:10310000A6B2FED7A6940050F2120A0E0301FD6F7C
:103110000001FAEC0BF00301FE6B34C3FDF3000178
:103120000EEC0CF00301EF6BEE6B200EED6F830ED7
:10313000EC6F03C0F3F302C0F2F301C0F1F300C07F
:10314000F0F3000172DC20E30F0E0301346FAA6A72
:103150001B0EA96E0F0EA86EA69CA69EA684F2500A
:10316000006EF29CF29E0F01550EA76EAA0EA76E7E
:10317000A682A6B2FED7A6940050F2120A0E030150
:10318000FD6F0001FAEC0BF00301EF6BEE6B480EE4
:10319000ED6F840EEC6FA3C2F3F3A2C2F2F3A1C2EF
:1031A000F1F3A0C2F0F3000140DC43E3CD0E0201D5
:1031B000A36FCC0EA26F200EA16F840EA06FAA6A1F
:1031C0001C0EA96E280EA86EA69CA69EA684F25080
:1031D000006EF29CF29E0F01550EA76EAA0EA76E0E
:1031E000A682A6B2FED7A6940050F2120A0E0301E0
:1031F000FD6F0001FAEC0BF0AA6A1D0EA96E020E1B
:10320000A86EA69CA69EA684F250006EF29CF29E2A
:103210000F01550EA76EAA0EA76EA682A6B2FED704
:10322000A6940050F2120A0E0301FD6F0001FAECA1
:103230000BF00301EF6BEE6B480EED6F8B0EEC6F36
:10324000AFC2F3F3AEC2F2F3ADC2F1F3ACC2F0F32E
:10325000000115EC15F042E30201AF6BC00EAE6F3A
:10326000410EAD6F8B0EAC6FAA6A1E0EA96E380EA2
:10327000A86EA69CA69EA684F250006EF29CF29EBA
:103280000F01550EA76EAA0EA76EA682A6B2FED794
:10329000A6940050F2120A0E0301FD6F0001FAEC31
:1032A0000BF0AA6A1F0EA96E180EA86EA69CA69E09
:1032B000A684F250006EF29CF29E0F01550EA76E8E
:1032C000AA0EA76EA682A6B2FED7A6940050F2124E
:1032D0000A0E0301FD6F0001FAEC0BF00301EF6B26
:1032E000EE6BED6B800EEC6FA7C2F3F3A6C2F2F3A8
:1032F000A5C2F1F3A4C2F0F3000115EC15F03FE311
:103300000201A76BA66BA56B7E0EA46FAA6A200EA6
:10331000A96EA86AA69CA69EA684F250006EF29C96
:10332000F29E0F01550EA76EAA0EA76EA682A6B238
:10333000FED7A6940050F2120A0E0301FD6F0001A1
:10334000FAEC0BF0AA6A210EA96E050EA86EA69CD7
:10335000A69EA684F250006EF29CF29E0F01550EBE
:10336000A76EAA0EA76EA682A6B2FED7A69400509C
:10337000F2120A0E0301FD6F0001FAEC0BF00301DB
:103380007351E9083FE2FF0A03E1725160083AE233
:10339000736B726BAA6A250EA96EA86AA69CA69E7C
:1033A000A684F250006EF29CF29E0F01550EA76E9D
:1033B000AA0EA76EA682A6B2FED7A6940050F2125D
:1033C0000A0E0301FD6F0001FAEC0BF0AA6A260E4B
:1033D000A96EA86AA69CA69EA684F250006EF29CD6
:1033E000F29E0F01550EA76EAA0EA76EA682A6B278
:1033F000FED7A6940050F2120A0E0301FD6F0001E1
:10340000FAEC0BF00201D95164081FE2500ED96F9B
:10341000AA6A270EA96E500EA86EA69CA69EA68428
:10342000F250006EF29CF29E0F01550EA76EAA0E8E
:10343000A76EA682A6B2FED7A6940050F2120A0E7C
:103440000301FD6F0001FAEC0BF003014E5101087E
:1034500020E2010E4E6FAA6A280EA96E010EA86E18
:10346000A69CA69EA684F250006EF29CF29E0F01CE
:10347000550EA76EAA0EA76EA682A6B2FED7A69478
:103480000050F2120A0E0301FD6F0001FAEC0BF07E
:1034900003014F511E0820E2020E4F6FAA6A290E47
:1034A000A96E020EA86EA69CA69EA684F250006E7F
:1034B000F29CF29E0F01550EA76EAA0EA76EA68271
:1034C000A6B2FED7A6940050F2120A0E0301FD6FB9
:1034D0000001FAEC0BF003019D51640803E39D51D8
:1034E000310820E3480E9D6FAA6A2E0EA96E480E81
:1034F000A86EA69CA69EA684F250006EF29CF29E38
:103500000F01550EA76EAA0EA76EA682A6B2FED711
:10351000A6940050F2120A0E0301FD6F0001FAECAE
:103520000BF00301A0510A080AE19EC3EAF3FF0E63
:10353000EB6F000152EC15F001C09EF30301A151A5
:103540000A080AE19FC3EAF3FF0EEB6F000152EC99
:1035500015F001C09FF30301000118EF2DF00900E1
:10356000F55211E0F6CFE9F3F7CFEAF3F8CFEBF33A
:10357000F5509EA8FED7AD6EE9C3F6FFEAC3F7FF8C
:10358000EBC3F8FFECD7000C9EA8FED7AD6E000C85
:10359000100E006E002EFED70000FF0EF5DF100E9D
:1035A000006E002EFED70000FF0EEEDF100E006E44
:1035B000002EFED70000FF0EE7DF100E006E002E7B
:1035C000FED70000000C8C9895988C9C959C8C9054
:1035D00095908B849494A39F8C9A959A03014D6B3C
:1035E0000001000C0301F135006E0036FC0E0016E0
:1035F00000C001F0C250C30B0010C26E010EFD6F7F
:103600000001FAEC0BF0C282C2B2FED7C4CFFEF3C7
:10361000C3CFFDF300010EEC0CF003C0F5F302C0C4
:10362000F4F301C0F3F300C0F2F3F2C300F0F3C30C
:1036300001F0F4C302F0F5C303F0000C0301F151F3
:10364000F303F3CF01F0F4CF00F0F403F3500026BE
:10365000F251F303F3500020026E0001000C04014C
:103660000451D8B471D0006E0851D8B46DD0002682
:1036700004E3810E002668E204D07F0E005E64E35E
:1036800063E005C40CF409510C1B058F098F075129
:103690000B03F4CF0EF406510A03F4CF03F0F3CF7B
:1036A0000DF40B03F3500E27F4500D23000E0322EC
:1036B00007510A03F3500E27F4500D23000E026A3F
:1036C0000322022205510B03F3500D27F45003226D
:1036D000000E022205510A03F3500326F450022281
:1036E000000E016A012207510903F3500D27F4501F
:1036F0000322000E0222012206510903F350032681
:10370000F4500222000E012205510903F350022653
:10371000F4500122002A01BE05D00D3703360236CF
:1037200001360006000E0DAF0AD0032A0222012244
:10373000015005E1025003E1035001E1002A0CBFF2
:10374000018E0CAF019E04D0006A016A026A036A0E
:103750000001000C0301EC6BEB6BEA6BE96BF06BA7
:10376000EF6BEE6BED6B0201F66BF56BF46BF36BCD
:103770000301F16B000136DF03C0E2F202C0E1F2A7
:1037800001C0E0F200C0DFF2E2C2F4F3E1C2F3F301
:10379000E0C2F2F3DFC2F1F3290E0301F86F5C0E11
:1037A000F76F540EF66F850EF56F000129EC0CF0E3
:1037B00003C0E2F202C0E1F201C0E0F200C0DFF2B9
:1037C000D892E2C200F4E1C2FFF3E0C2FEF3DFC22E
:1037D000FDF3B80E0401046F1E0E036F6D0E026F31
:1037E000820E016F0001D8EC0CF003C0E2F202C0BF
:1037F000E1F201C0E0F200C0DFF20301F46BC00EA1
:10380000F36F7F0EF26F880EF16FE2C2F8F3E1C240
:10381000F7F3E0C2F6F3DFC2F5F3000129EC0CF098
:1038200000C0F1F301C0F2F302C0F3F303C0F4F3FC
:10383000D88203C000F402C0FFF301C0FEF300C051
:10384000FDF30401046B036B026B7F0E016F00013B
:10385000D8EC0CF0B3C2F4F3B2C2F3F3B1C2F2F39A
:10386000B0C2F1F303C0F8F302C0F7F301C0F6F3FE
:1038700000C0F5F329EC0CF003C0E6F202C0E5F25B
:1038800001C0E4F200C0E3F2010E0301E85D0201B1
:10389000D55D02E001E3D56B0301F26BD5C2F1F314
:1038A000F46B040EF36F0001C9DE0150C00FE96E26
:1038B000000E0220EA6EE3C2EFFFE4C2ECFFE5C2B5
:1038C000ECFFE6C2ECFF0201D52BD46B0301E851FB
:1038D0000201D45D3FE20301F26BD4C2F1F3F46B59
:1038E000040EF36F0001AADE02C003F00150C00F06
:1038F000E96E000E0220EA6EEFCF00F0ECCF01F08F
:10390000ECCF02F0ECCF03F0EACFF2F3E9CFF1F322
:10391000D892F6C200F4F5C2FFF3F4C2FEF3F3C28C
:10392000FDF303C004F402C003F401C002F400C0BC
:1039300001F4D8EC0CF0F2C3EAFFF1C3E9FF03C0D5
:10394000F6F202C0F5F201C0F4F200C0F3F2020197
:10395000D42BBCD70301FE6BE8C3FDF300010EECD2
:103960000CF0F6C2F4F3F5C2F3F3F4C2F2F3F3C2CF
:10397000F1F303C0F8F302C0F7F301C0F6F300C09F
:10398000F5F329EC0CF003C0F6F202C0F5F201C029
:10399000F4F200C0F3F2F6C207F4F5C206F4F4C282
:1039A00005F4F3C204F4F6C20BF4F5C20AF4F4C24F
:1039B00009F4F3C208F453DE00C0F1F301C0F2F3DE
:1039C00002C0F3F303C0F4F303C007F402C006F42B
:1039D00001C005F400C004F42AC30BF429C30AF49F
:1039E00028C309F427C308F43ADE00C0F1F301C08C
:1039F000F2F302C0F3F303C0F4F3F6C207F4F5C226
:103A000006F4F4C205F4F3C204F42EC30BF42DC380
:103A10000AF42CC309F42BC308F421DED892F4C3B2
:103A200000F4F3C3FFF3F2C3FEF3F1C3FDF303C0ED
:103A300004F402C003F401C002F400C001F4D8ECA5
:103A40000CF000C0F1F301C0F2F302C0F3F303C0C5
:103A5000F4F3D89203C000F402C0FFF301C0FEF3F8
:103A600000C0FDF332C304F431C303F430C302F4E5
:103A70002FC301F4D8EC0CF003C0FAF202C0F9F243
:103A800001C0F8F200C0F7F20301FE6BD6C2FDF3ED
:103A900000010EEC0CF003C0ECF302C0EBF301C02C
:103AA000EAF300C0E9F3ECC3F4F3EBC3F3F3EAC3C6
:103AB000F2F3E9C3F1F30301F86BF76B200EF66F35
:103AC000820EF56F000129EC0CF003C0ECF302C08C
:103AD000EBF301C0EAF300C0E9F30301FE6BD7C2C8
:103AE000FDF300010EEC0CF003C0F0F302C0EFF3A5
:103AF00001C0EEF300C0EDF3F0C3F4F3EFC3F3F352
:103B0000EEC3F2F3EDC3F1F30301F86BF76B200E94
:103B1000F66F820EF56F000129EC0CF003C0F0F394
:103B200002C0EFF301C0EEF300C0EDF3D882ECC3A6
:103B300000F4EBC3FFF3EAC3FEF3E9C3FDF3F0C304
:103B400004F4EFC303F4EEC302F4EDC301F4D8ECC4
:103B50000CF0D892FAC200F4F9C2FFF3F8C2FEF3F7
:103B6000F7C2FDF303C004F402C003F401C002F481
:103B700000C001F4D8EC0CF003C0FAF202C0F9F274
:103B800001C0F8F200C0F7F2F7C200F0F8C201F08D
:103B9000F9C202F0FAC203F0000C03015251050809
:103BA000D8A4AFD03BC030F03CC031F03DC032F0C3
:103BB0003EC033F03FC034F040C035F041C036F075
:103BC00042C037F043C038F044C039F0332C07D03E
:103BD000556B5551575D02E055C357F391D03350A3
:103BE000020808E1010E556F5551575D02E055C3BB
:103BF00057F386D03350030808E1020E556F555134
:103C0000575D02E055C357F37BD03350040808E1F9
:103C1000030E556F5551575D02E055C357F370D0F1
:103C20003350050808E1040E556F5551575D02E009
:103C300055C357F365D03350060808E1050E556F9C
:103C40005551575D02E055C357F35AD0335007081A
:103C500008E1060E556F5551575D02E055C357F305
:103C60004FD03350080808E1070E556F5551575D86
:103C700002E055C357F344D03350090808E1080E59
:103C8000556F5551575D02E055C357F339D0335046
:103C90000F0801E135D033501A0808E1140E556FB2
:103CA0005551575D02E055C357F32AD033501B08D6
:103CB00008E10F0E556F5551575D02E055C357F39C
:103CC0001FD033501C0808E1100E556F5551575D39
:103CD00002E055C357F314D033502C0808E1640EAA
:103CE000556F5551575D02E055C357F309D0335016
:103CF000CC0806E1F00E556F5751F00801E0FF00C7
:103D000006D0546B5451090802E3542BFBD7000131
:103D1000ABEF2DF08E0E006E0301FD51005EFEC371
:103D200002F0FFC301F0028E005209E0D890025267
:103D300002E1015204E002320132002EF7D7FEAF59
:103D400005D0011E021E012AD8B4022A0001000C6F
:103D500022C300F421C3FFF320C3FEF31FC3FDF30E
:103D6000D9DF01C064F022C300F421C3FFF320C3F4
:103D7000FEF31FC3FDF3CEDF0301FE6B01C0FDF3B5
:103D800000010EEC0CF0D88222C300F421C3FFF333
:103D900020C3FEF31FC3FDF303C004F402C003F409
:103DA00001C002F400C001F4D8EC0CF000C000F433
:103DB00001C001F402C002F403C003F403C007F41D
:103DC00002C006F401C005F400C004F404010B6B4A
:103DD0000A6B200E096F820E086F000140DC03C0E1
:103DE00000F402C0FFF301C0FEF300C0FDF392DF58
:103DF00001C065F06EC366F000016FC367F000019B
:103E000070C368F0000171C369F00001EEC200F4F4
:103E1000EDC2FFF3ECC2FEF3EBC2FDF37BDF01501A
:103E20000A0DF3CF6AF094806B6B82B06B2B948297
:103E30006C6B82B26C2B938A6D6B81AA6D2B938C09
:103E40006E6B81AC6E2B938E6F6B81AE6F2BF2C25B
:103E500000F4F1C2FFF3F0C2FEF3EFC2FDF35ADF4C
:103E600001C070F05BC371F09BC372F08FC373F03D
:103E70008EC374F08DC375F090C376F091C377F064
:103E800092C378F09CC379F07A6BA3BF7A2B72C38C
:103E90007BF0000173C37CF00001B8EF1FF0080E47
:103EA000016E050E006E002EFED78B969496060EC0
:103EB000006E002EFED7040101378B98D8B094888D
:103EC000D8A09498948682A6FED7012E01D002D065
:103ED0000001E7D7050E006E002EFED78B96949654
:103EE00000009488060E006E002EFED7060E006EAF
:103EF000002EFED7948682A6FED7016A060E006EBB
:103F0000002EFED782B801808B9694968B98949859
:103F10000001000C9488050E006E002EFED79486DA
:103F2000060E006E002EFED78B989498050E006E3C
:103F3000002EFED78B969496FEC301F4B0DFFFC32C
:103F400001F4ADDF00C401F4AADF94980000948668
:103F500082A6FED7050E006E002EFED700D0000010
:103F60009488050E006E002EFED7D2EF1FF0F0D61B
:103F70000301586B5851180818E3B00E0001856F03
:103F8000036A03015851640FE96E000E0320EA6EC4
:103F9000EFCFFDF385C0FEF358C3FFF3FDC300F47C
:103FA0000001B8D70301582BE5D70001000C02012E
:103FB000C76BC66BC56BC46B020E0301F16F0001CA
:103FC000F2EC1AF003C012F302C011F301C010F3B7
:103FD00000C00FF312C3F4F311C3F3F310C3F2F3F1
:103FE0000FC3F1F30301F86BC00EF76F7F0EF66F8E
:103FF000880EF56F000129EC0CF000C0E9F301C058
:10400000EAF302C0EBF303C0ECF3D88203C000F480
:1040100002C0FFF301C0FEF300C0FDF30A0E04016D
:10402000046FD70E036F230E026F7A0E016F00012B
:10403000D8EC0CF000C0E9F301C0EAF302C0EBF3E6
:1040400003C0ECF303C0F4F302C0F3F301C0F2F3D6
:1040500000C0F1F326C3F8F325C3F7F324C3F6F346
:1040600023C3F5F329EC0CF003C016F302C015F3DB
:1040700001C014F300C013F316C3EFF315C3EEF33E
:1040800014C3EDF313C3ECF30301F36BF26BF16BA9
:10409000F06B000115EC15F005E30301166B156BD1
:1040A000146B136B010E0301E85D7E5D02E001E31A
:1040B0007E6B7E51040DF350036AE96E020E0324F9
:1040C000EA6E13C3EFFF14C3ECFF15C3ECFF16C376
:1040D000ECFF7E2B7F6B010EE85D7F5D01E037E238
:1040E0007F51040DF350036AE96E020E0324EA6E59
:1040F000EFCF00F0ECCF01F0ECCF02F0ECCF03F00B
:10410000EACFEAF3E9CFE9F3D892C7C200F4C6C216
:10411000FFF3C5C2FEF3C4C2FDF303C004F402C042
:1041200003F401C002F400C001F40001D8EC0CF06B
:10413000EAC3EAFFE9C3E9FF03C0C7F202C0C6F25F
:1041400001C0C5F200C0C4F203017F2BC4D7FE6BCF
:10415000E8C3FDF300010EEC0CF0C7C2F4F3C6C2D5
:10416000F3F3C5C2F2F3C4C2F1F303C0F8F302C023
:10417000F7F301C0F6F300C0F5F329EC0CF003C02F
:10418000C7F202C0C6F201C0C5F200C0C4F2C4C288
:1041900000F0C5C201F0C6C202F0C7C203F001EFD1
:1041A0002EF00201D36BD26BD16BD06B030E0301E7
:1041B000F16F0001F2EC1AF003C01AF302C019F318
:1041C00001C018F300C017F31AC3F4F319C3F3F3D3
:1041D00018C3F2F317C3F1F30301F86BC00EF76FC6
:1041E0007F0EF66F880EF56F000129EC0CF000C011
:1041F000E9F301C0EAF302C0EBF303C0ECF3D882A9
:1042000003C000F402C0FFF301C0FEF300C0FDF3E1
:104210000A0E0401046FD70E036F230E026F7A0E8D
:10422000016F0001D8EC0CF000C0E9F301C0EAF323
:1042300002C0EBF303C0ECF303C0F4F302C0F3F3EA
:1042400001C0F2F300C0F1F326C3F8F325C3F7F37E
:1042500024C3F6F323C3F5F329EC0CF003C01EF3DB
:1042600002C01DF301C01CF300C01BF31EC3EFF31B
:104270001DC3EEF31CC3EDF31BC3ECF30301F36B9F
:10428000F26BF16BF06B000115EC15F005E3030127
:104290001E6B1D6B1C6B1B6B010E0301E85D805DCB
:1042A00002E001E3806B8051040DF350036A500F6C
:1042B000E96E020E0320EA6E1BC3EFFF1CC3ECFF86
:1042C0001DC3ECFF1EC3ECFF802B816B010EE85D6C
:1042D000815D01E038E28151040DF350036A500F13
:1042E000E96E020E0320EA6EEFCF00F0ECCF01F092
:1042F000ECCF02F0ECCF03F0EACFEAF3E9CFE9F339
:10430000D892D3C200F4D2C2FFF3D1C2FEF3D0C21E
:10431000FDF303C004F402C003F401C002F400C0C2
:1043200001F40001D8EC0CF0EAC3EAFFE9C3E9FFAD
:1043300003C0D3F202C0D2F201C0D1F200C0D0F269
:104340000301812BC3D7FE6BE8C3FDF300010EEC24
:104350000CF0D3C2F4F3D2C2F3F3D1C2F2F3D0C261
:10436000F1F303C0F8F302C0F7F301C0F6F300C0A5
:10437000F5F329EC0CF003C0D3F202C0D2F201C075
:10438000D1F200C0D0F2D0C200F0D1C201F0D2C24E
:1043900002F0D3C203F015EF2EF0EDC3EEF30301EC
:1043A000EE39006E0F0E001600500A0DF3CFEDF33C
:1043B000EE39006EF00E00160050003A0F0E001697
:1043C0000050ED27EDC301F00001000C03018A51FC
:1043D0002D080AE2FF0A03E18951E00805E28A6B31
:1043E000896B0001A3930301E82D2AD0938081A05B
:1043F00009D0938281A206D0938481A403D09386AE
:1044000081B602D00001A3830001A3B315D0A28F0F
:104410000301885303E18751C8080CE2886B876B5E
:104420000001A371A3A103D08C80959002D08C9041
:104430009590030104D000018C90959003012CD03D
:10444000E851020829E1938081A009D0938281A2DA
:1044500006D0938481A403D0938681B602D0150E32
:10446000846F0001A28F03018451130813E3885362
:1044700003E1875164080DE2886B876B0001A3712B
:10448000A3A103D08C80959002D08C9095900301CD
:10449000842B02D08C9095900001000C306A316A18
:1044A000326A336A346A356A366A376A386A396A10
:1044B0003B6A3C6A3D6A3E6A3F6A406A416A426AB8
:1044C000436A446AB9EF2EF00900F6CFEDF3F7CF57
:1044D000EEF3F8CFEFF3F5509EA8FED7AD6EEDC327
:1044E000F6FFEEC3F7FFEFC3F8FF0301EC2F01D097
:1044F00002D00001E9D70001000C0301F351016A69
:10450000F25D03E2F2C300F00CD0006A080EF46F13
:10451000F2370036F351005CD8B0006E0136F42F4C
:10452000F7D70001000C0150EAC3F2F3640E030157
:10453000F36F0001E2DF00C0EAF30150300E08E142
:104540000301EBA30ED0EBB70CD0EBB9200E04D0D7
:104550000301EB97EB99EB81012601509EA8FED752
:10456000AD6EEAC3F2F30A0EF36F0001C6DF00C0BE
:10457000EAF30150300E08E10301EBB70BD0EBA1D9
:1045800009D0EBB9200E0001012601509EA8FED7EC
:10459000AD6E0301300EEA27EA519EA8FED7AD6E3C
:1045A0000001000C0301F951B608F96F036AFAC360
:1045B000FDF3FA8FD890FA33FB33FC330332023227
:1045C00001320032F92FF6D7FDAF0BD0001E011ECD
:1045D000021E031E002AD8B4012AD8B4022AD8B475
:1045E000032A000178EF23F0006A016A026A036A75
:1045F0000401016B026B036B046B00510301FF119B
:10460000FE11FD1142E0200E0401056FD890030158
:10461000F937FA37FB37FC37040101370237033724
:1046200004370051045D0EE10301FF510401035DF5
:1046300009E10301FE510401025D04E10301FD51A2
:104640000401015D1BE30301FD510401015F03014E
:10465000FE51D8A0FE3D01D003D00401025F03014A
:10466000FF51D8A0FF3D01D003D00401035F030137
:1046700004010051D8A0003D045FD8800036013607
:1046800002360336052FC2D70301040EEA6E010E6F
:10469000E96E0001000CE9500301F16FF051F36F76
:1046A0001DE0EFC307F4EEC306F4EDC305F4ECC35D
:1046B00004F404010B6B0A6B200E096F820E086F65
:1046C00000012FEC1BF003C0EFF302C0EEF301C0BA
:1046D000EDF300C0ECF30301F32FE3D7EFC3FCF3DA
:1046E000EEC3FBF3EDC3FAF3ECC3F9F300015AD7C1
:1046F00003C0EFF302C0EEF301C0EDF300C0ECF332
:104700000301EFAF0DD0F107F18BEC1FED1FEE1F92
:10471000EF1FEC2BD8B4ED2BD8B4EE2BD8B4EF2B85
:104720003B0EF86F9A0EF76FCA0EF66FF56B0A0E16
:10473000F36FF051D8B4F12BEFC3FCF3EEC3FBF3EE
:10474000EDC3FAF3ECC3F9F3F8C300F4F7C3FFF3D6
:10475000F6C3FEF3F5C3FDF3000146DF0150EFCFD2
:10476000ECF3ECCFEDF3ECCFEEF3ECCFEFF3005244
:1047700013E10301F029F35DD8A402D000010CD0AD
:10478000F1510DE00F0BF35D01E03CE2F1BF3AD0D7
:10479000F1BD05D0200E31D0200E0301F117F1AB91
:1047A0000DD0F19BF051D8A4F1070050F16F2D0E00
:1047B0009EA8FED7AD6EF151006EF16BF051F35D26
:1047C0000BE10050F16F2E0E9EA8FED7AD6EF15199
:1047D000006E200EF117000E300EF1AB0ED0F19BE3
:1047E000F051D8A4F1070050F16F2D0E9EA8FED70E
:1047F000AD6EF151006EF16B300E002600509EA898
:10480000FED7AD6EF8C3FCF3F7C3FBF3F6C3FAF3C0
:10481000F5C3F9F30401006B0301FF6BFE6B0A0E95
:10482000FD6F0001E1DE03C0F8F302C0F7F301C041
:10483000F6F300C0F5F30301F32F7ED70001000C5F
:10484000F2C3B3F0F3C3B4F0F4C3B5F0F5C3B6F0FC
:10485000F6C3BCF0F7C3BDF0F8C3BEF0F9C3BFF0B8
:10486000FCC35CF30301606B4A91FAB14A81FBC35C
:104870005BF3B3C0AEF0B4C0AFF0B5C0B0F0B6C03B
:10488000B1F0B7C0B2F0BCC0B8F0BDC0B9F0BEC0A6
:10489000BAF0BFC0BBF00F0E9C6F0001B7EC1FF069
:1048A000640E0301FD6F0001FAEC0BF00A0E030128
:1048B0009C6F0001000CEACFF4F3E9CFF3F303019E
:1048C000ED39F009EF6FEF27E20FF06F320FF26F63
:1048D000ED510F0BF027F027F227E90FF16FF127C9
:1048E000F127EC390F0BF127F227F137F237F21FDE
:1048F000F237EC510F0BF227EF37070EEE6F0A0E6F
:10490000F107F227FDE3F007F127FDE3EF07F027BA
:10491000FDE3EE07EF27FDE3030EEA6EEE0EE96E10
:10492000070EF315F39DE926F20EE95CD8B4F38D7A
:10493000EF50006E08E1F3BD06D0F3B90CD0F3B729
:1049400002D0200E03D0F387F399300E00260050DA
:104950009EA8FED7AD6EEE50F3ADE6D70001000C79
:10496000016A026A006A036A0301EC5102E1EB5139
:1049700018E0100EED6FD890E937EA3700360336AD
:10498000EC51035C02E1EB51005C07E3EB51005E8C
:10499000D8A00306EC51035ED88001360236ED2F15
:1049A000EAD70001EAEF24F00301E851030B09E123
:1049B000E8C3F2F3640EF36F00019FDD005218E1CB
:1049C0000301EA6BE8C3E9F3010EEC6F900EEB6FA5
:1049D0000001C6D700C0E9F3030103C0EAF3E953BD
:1049E00005E1EA53D8A402D0000102D0000E02D0A3
:1049F000010E0301016E0001000CEEC3F2F30A0E7A
:104A00000301F36F000179DD01C0EFF30301EF5102
:104A10000A0DF350EE5DF06FEF39006EF00E0016E8
:104A20000050F011016E0001000CE8C3EEF3E5DF69
:104A300001C0EEF3860E0301EF6F01C0F0F3000139
:104A4000B6EC14F0E9C3EEF3D8DF01C0EEF3880E44
:104A50000301EF6F01C0F0F30001B6EC14F0EAC3FC
:104A6000EEF3CBDF01C0EEF38C0E0301EF6F01C05C
:104A7000F0F30001B6EC14F0EBC3EEF3BEDF01C0BF
:104A8000EEF38A0E0301EF6F01C0F0F30001B6EC04
:104A900014F0ECC3EEF3B1DF01C0EEF3840E0301BA
:104AA000EF6F01C0F0F30001B6EC14F0EDC3EEF3CC
:104AB000A4DF01C0EEF3820E0301EF6F01C0F0F33B
:104AC0000001B6EC14F00301EE6B000196DF01C0AB
:104AD000EEF3800E0301EF6F01C0F0F30001B6ECBE
:104AE00014F0D0EF44F0030195510C0802E20A0ED5
:104AF000956F96511F0802E2100E966F945163084D
:104B000002E2120E946F9751180802E20B0E976F93
:104B100098513B0802E21E0E986F9551020815E16C
:104B200094C3E8F3000140DF015208E0030196510D
:104B30001D0802E21D0E966F07D000010301965179
:104B40001C0802E21C0E966F15D09551070809E368
:104B50009551010B05E196511E0802E21E0E966F5B
:104B600009D09551010B010805E196511E0802E29A
:104B70001E0E966F00011EEF46F00301F06BF16B05
:104B8000EFC3F2F30A0EF36F0001B7DC01C0F0F3DC
:104B90000301F0510A0DF3CFF0F3F051EF5DF16F27
:104BA000F1C301F00001000C03018351040DF35027
:104BB000036AB40FE96E020E0320EA6EF7C2EFFF3C
:104BC000F8C2ECFFF9C2ECFFFAC2ECFF832B835171
:104BD00001081EE2836BD882BBC200F4BAC2FFF3A5
:104BE000B9C2FEF3B8C2FDF3B7C204F4B6C203F40F
:104BF000B5C202F4B4C201F40001D8EC0CF003C059
:104C0000CBF202C0CAF201C0C9F200C0C8F203016F
:104C1000000147EF26F00301FE6B34C3FDF30001F2
:104C20000EEC0CF003C0F4F302C0F3F301C0F2F396
:104C300000C0F1F30301F86BF76BF66B800EF56FB4
:104C4000000129EC0CF000C0E8F301C0E9F302C058
:104C5000EAF303C0EBF30301FE6B4CC3FDF3000169
:104C60000EEC0CF0EBC3EFF3EAC3EEF3E9C3EDF3A4
:104C7000E8C3ECF303C0F3F302C0F2F301C0F1F3B5
:104C800000C0F0F315EC15F001E203E18DD703014C
:104C90004C6B0301FE6B5CC3FDF300010EEC0CF0EA
:104CA000D8920AC300F409C3FFF308C3FEF307C395
:104CB000FDF303C004F402C003F401C002F400C019
:104CC00001F4D8EC0CF000C0E8F301C0E9F302C035
:104CD000EAF303C0EBF3D88203C000F402C0FFF391
:104CE00001C0FEF300C0FDF322C304F421C303F4AA
:104CF00020C302F41FC301F4D8EC0CF003C0F2F29D
:104D000002C0F1F201C0F0F200C0EFF20301EF6B5C
:104D1000EE6BED6B7F0EEC6FF2C2F3F3F1C2F2F3C8
:104D2000F0C2F1F3EFC2F0F3000115EC15F0D8A0DA
:104D300014D1F2C2EFF3F1C2EEF3F0C2EDF3EFC221
:104D4000ECF30301F36BF26B700EF16F820EF06FF8
:104D5000000115EC15F0D8A000D1CBC2EFF3CAC208
:104D6000EEF3C9C2EDF3C8C2ECF39A0E0301F36F80
:104D7000990EF26F190EF16F7D0EF06F000115ECB8
:104D800015F0D8A0EAD0EEC2EFF3EDC2EEF3ECC21C
:104D9000EDF3EBC2ECF30301F36BF26B400EF16F3A
:104DA000810EF06F000115EC15F0D8A0D4D00301EE
:104DB0004A893451825DD8A0CCD0826BCBC2EFF34C
:104DC000CAC2EEF3C9C2EDF3C8C2ECF3F36BF26BE7
:104DD000800EF16F7E0EF06F000115EC15F038E3D8
:104DE0000301FE6B33C3FDF300010EEC0CF0D8920F
:104DF00003C000F402C0FFF301C0FEF300C0FDF3E6
:104E0000CD0E0401046FCC0E036F4C0E026F7C0EAE
:104E1000016F0001D8EC0CF0D89202C300F401C37A
:104E2000FFF300C3FEF3FFC2FDF303C004F402C0AE
:104E300003F401C002F400C001F4D8EC0CF003C08C
:104E400002F302C001F301C000F300C0FFF280D002
:104E5000CBC2EFF3CAC2EEF3C9C2EDF3C8C2ECF3A2
:104E6000CD0E0301F36FCC0EF26FF16F7B0EF06F7E
:104E7000000115EC15F038E30301FE6B33C3FDF3BD
:104E800000010EEC0CF0D88203C000F402C0FFF366
:104E900001C0FEF300C0FDF3CD0E0401046FCC0E83
:104EA000036F4C0E026F7C0E016F0001D8EC0CF00A
:104EB000D89202C300F401C3FFF300C3FEF3FFC2A4
:104EC000FDF303C004F402C003F401C002F400C007
:104ED00001F4D8EC0CF003C002F302C001F301C0EE
:104EE00000F300C0FFF234D00301FE6B33C3FDF3C7
:104EF00000010EEC0CF0D88203C000F402C0FFF3F6
:104F000001C0FEF300C0FDF30401046B036B026BF0
:104F10007E0E016F0001D8EC0CF0D89202C300F4B1
:104F200001C3FFF300C3FEF3FFC2FDF303C004F4AB
:104F300002C003F401C002F400C001F4D8EC0CF08C
:104F400003C002F302C001F301C000F300C0FFF28E
:104F5000030103D0000103014A99F2C2EFF3F1C249
:104F6000EEF3F0C2EDF3EFC2ECF39A0E0301F36F30
:104F7000990EF26FF16F7D0EF06F000115EC15F0D8
:104F800008E306C302F305C301F304C300F303C33C
:104F9000FFF202C3EFF301C3EEF300C3EDF3FFC270
:104FA000ECF30301F36BF26BF16B7F0EF06F00011A
:104FB00015EC15F007E30301026B016B006B7F0E2C
:104FC0000201FF6FF2C2EFF3F1C2EEF3F0C2EDF3B4
:104FD000EFC2ECF30301F36BF26BF16BF06B0001CA
:104FE00015EC15F006E30201F26BF16BF06BEF6B61
:104FF0000001F2C207F4F1C206F4F0C205F4EFC2F8
:1050000004F402C30BF401C30AF400C309F4FFC2A1
:1050100008F42FEC1BF003C0FEF202C0FDF201C049
:10502000FCF200C0FBF20301FE6B5CC3FDF3000168
:105030000EEC0CF003C0EFF302C0EEF301C0EDF391
:1050400000C0ECF3FEC2F3F3FDC2F2F3FCC2F1F3D5
:10505000FBC2F0F315EC15F00FE30301FE6B5CC32C
:10506000FDF300010EEC0CF003C0FEF202C0FDF2F5
:1050700001C0FCF200C0FBF2FEC2EFF3FDC2EEF392
:10508000FCC2EDF3FBC2ECF30301F36BF26BF16BCB
:10509000F06B000115EC15F005E30201FE6BFD6BF2
:1050A000FC6BFB6B0301FE6B5CC3FDF300010EECBC
:1050B0000CF0FEC2F4F3FDC2F3F3FCC2F2F3FBC248
:1050C000F1F303C0F8F302C0F7F301C0F6F300C038
:1050D000F5F329EC0CF003C00EF302C00DF301C090
:1050E0000CF300C00BF30EC307F40DC306F40CC39E
:1050F00005F40BC304F4EAC20BF4E9C20AF4E8C2F3
:1051000009F4E7C208F42FEC1BF003C0EEF202C072
:10511000EDF201C0ECF200C0EBF2EEC2F4F3EDC22E
:10512000F3F3ECC2F2F3EBC2F1F30A0E0301F86FF2
:10513000D70EF76F230EF66F770EF56F000129EC8F
:105140000CF003C000F402C0FFF301C0FEF300C086
:10515000FDF38AEC1EF002C0ABF001C0AAF0EAC277
:10516000F4F3E9C2F3F3E8C2F2F3E7C2F1F30A0E93
:105170000301F86FD70EF76F230EF66F770EF56FFA
:10518000000129EC0CF003C000F402C0FFF301C0E1
:10519000FEF300C0FDF38AEC1EF002C0ADF001C0CA
:1051A000ACF0010E03014D6F0001000CAB6BC80E9B
:1051B000AA6FEAC2F4F3E9C2F3F3E8C2F2F3E7C27A
:1051C000F1F30A0E0301F86FD70EF76F230EF66F97
:1051D000770EF56F000129EC0CF003C000F402C05B
:1051E000FFF301C0FEF300C0FDF38AEC1EF002C025
:1051F000ADF001C0ACF0010E03014D6F0001FAEFFC
:1052000052F0F86AF1949F909F8AD08E078EEA6AD6
:10521000E96AB886080EAF6E020EB06EA60EAC6ECE
:10522000900EAB6E466A476A486A626B636B846B2A
:10523000856B866B9F919F939F959F979F999F9B4F
:105240009F9D9F9FA091A093A095A097A099A09BA0
:10525000A09DA09FA191A193A195A197A199A19B88
:10526000A19DA19FA291A293A295A297A299A29B70
:10527000A29DA29FA391A393A395A397A399A39B58
:10528000A39DA39FA56BA46BA76BA66BA96BA86B33
:10529000AB6BAA6BAD6BAC6B9A0E0201A36F990E50
:1052A000A26F0D0EA16F860EA06FA76BA66BA56BEC
:1052B0007E0EA46FAB6BAA6BA96BA86BAF6BAE6BCA
:1052C000480EAD6F850EAC6FB36B800EB26F540E8F
:1052D000B16F8B0EB06FC76BC66BC56BC46BCB6BFE
:1052E000CA6BC96BC86BCF6BCE6BCD6BCC6BD36B02
:1052F000D26BD16BD06BD46BD56BD66BD76B140ED6
:10530000D86FD96BDA6BDB6BDC6BDD6BDE6BE26B62
:10531000E16BE06BDF6BEA6BE96B200EE86F820EEE
:10532000E76FEE6BED6BEC6BEB6BF26BF16BF06BB5
:10533000EF6BF66BF56BF46BF36BFA6BF96BF86B69
:10534000F76BFE6BFD6BFC6BFB6B0301026B016B80
:10535000480E006F830E0201FF6F0301066B056BA1
:10536000200E046F830E036F9A0E0A6F990E096F59
:10537000190E086F7F0E076F0E6B0D6B0C6B0B6BAE
:10538000126B116B106B0F6B166B156B146B136B31
:105390001A6B196B186B176B1E6B1D6B1C6B1B6BE1
:1053A000226B216B206B1F6B4A0E266F880E256FB8
:1053B000280E246F750E236FE00E2A6F2D0E296FB5
:1053C000100E286F750E276FFF0E2E6F210E2D6F9A
:1053D000150E2C6F800E2B6F820E326F120E316FF6
:1053E000F40E306F860E2F6F336B346B356BB50E4A
:1053F000396FEB0E386F1B0E376F6B0E366FD00E9A
:105400003D6F9B0E3C6F8A0E3B6F750E3A6F1A0E06
:10541000416FDD0E406F610E3F6F7D0E3E6F040EDB
:10542000456F160E446F020E436F850E426F496B37
:10543000486B476B466B4A914A934A954A974A99FB
:105440004A9B4A9D4B6B4C6B4D6B010E4E6F020E8F
:105450004F6F506B010E516F526B536B546B556B0A
:10546000566BF00E576F586B596B5A6B5B6B5C6BDE
:10547000010E5D6F5E6F5F6B606B616B636B626B88
:10548000656B646B676B666B696B686B6B6B6A6B88
:105490006D6B6C6B6F6B6E6B716B706B736B726B38
:1054A000756B746B7E6B7F6B806B816B826B836BB8
:1054B000846B866B856B886B876B8A6B896B8C6B57
:1054C0008B6B120E8D6F090E8E6F0D0E8F6F906BA2
:1054D000916B926B936B946B956B966B976B986BD0
:1054E000996B9A6B9B6B9C6B480E9D6F9E6B9F6B31
:1054F000A06BA16BC150C00B0F09C16E070EB46E3B
:105500002A6A2B6A0001876B030E886F896F060E6B
:105510008A6F010E8B6F040E8C6F060E8D6F020E5C
:105520008E6F050E8F6F906B030E916F050E926F4D
:10553000936B030E946F040E956F966B020E976F2C
:10554000050E986F996B030E9A6F060E9B6F010EF6
:105550009C6F040E9D6F060E9E6FAE6BAF6BB06BB3
:10556000B16BB26BB36BB46BB56BB66BB76BB86B3F
:10557000B96BBA6BBB6BBC6BBD6BBE6BBF6BC06BEF
:10558000C16BC26BC36BC46BC56BC66BC76BC86B9F
:10559000C96BCA6BCB6BCC6BCD6BCE6BCF6BD06B4F
:1055A000D16BD26BD36BD46BD56BD66BD76BD86BFF
:1055B000D96BDA6BDB6BDC6BDD6BDE6BDF6BE06BAF
:1055C000E16BE26BE36BE46BE56BE66BE76BE86B5F
:1055D000E96BEA6BEB6BEC6BED6BEE6BEF6BF06B0F
:1055E000F16BF26BF36BF46BF56BF66BF76BF86BBF
:1055F000F96BFA6BFB6BFC6BFD6BFE6BFF6B0101D8
:10560000006B016B026B036B046B056B066B076B26
:10561000086B096B0A6B0B6B0C6B0D6B0E6B0F6BD6
:10562000106B116B126B136B146B156B166B176B86
:10563000186B196B1A6B1B6B1C6B1D6B1E6B1F6B36
:10564000206B216B226B236B246B256B266B276BE6
:10565000286B296B2A6B2B6B2C6B2D6B2E6B2F6B96
:10566000306B316B326B336B346B356B366B376B46
:10567000386B396B3A6B3B6B3C6B3D6B3E6B3F6BF6
:10568000406B416B426B436B446B456B466B476BA6
:10569000486B496B4A6B4B6B4C6B4D6B4E6B4F6B56
:1056A000506B516B526B536B546B556B566B576B06
:1056B000586B596B5A6B5B6B5C6B5D6B5E6B5F6BB6
:1056C000606B616B626B636B646B656B666B676B66
:1056D000686B696B6A6B6B6B6C6B6D6B6E6B6F6B16
:1056E000706B716B726B736B746B756B766B776BC6
:1056F000786B796B7A6B7B6B7C6B7D6B7E6B7F6B76
:10570000806B816B826B836B846B856B866B876B25
:10571000886B896B8A6B8B6B8C6B8D6B8E6B8F6BD5
:10572000906B916B926B936B946B956B966B976B85
:10573000986B996B9A6B9B6B9C6B9D6B9E6B9F6B35
:10574000A06BA16BA26BA36BA46BA56BA66BA76BE5
:10575000A86BA96BAA6BAB6BAC6BAD6BAE6BAF6B95
:10576000B06BB16BB26BB36BB46BB56BB66BB76B45
:10577000B86BB96BBA6BBB6BBC6BBD6BBE6BBF6BF5
:10578000C06BC16BC26BC36BC46BC56BC66BC76BA5
:10579000C86BC96BCA6BCB6BCC6BCD6BCE6BCF6B55
:1057A000D06BD16BD26BD36BD46BD56BD66BD76B05
:1057B000D86BD96BDA6BDB6BDC6BDD6BDE6BDF6BB5
:1057C000E06BE16BE26BE36BE46BE56BE66BE76B65
:1057D000E86BE96BEA6BEB6BEC6BED6BEE6BEF6B15
:1057E000F06BF16BF26BF36BF46BF56BF66BF76BC5
:1057F000F86BF96BFA6BFB6BFC6BFD6BFE6BFF6B75
:105800000201006B016B026B036B046B056B066B93
:10581000076B086B096B0A6B0B6B0C6B0D6B0E6BDC
:105820000F6B106B116B126B136B146B156B166B8C
:10583000176B186B196B1A6B1B6B1C6B1D6B1E6B3C
:105840001F6B206B216B226B236B246B256B266BEC
:10585000276B286B296B2A6B2B6B2C6B2D6B2E6B9C
:105860002F6B306B316B326B336B346B356B366B4C
:10587000376B386B396B3A6B3B6B3C6B3D6B3E6BFC
:105880003F6B406B416B426B436B446B456B466BAC
:10589000476B486B496B4A6B4B6B4C6B4D6B4E6B5C
:1058A0004F6B506B516B526B536B546B556B566B0C
:1058B000576B586B596B5A6B5B6B5C6B5D6B5E6BBC
:1058C0005F6B606B616B626B636B646B656B666B6C
:1058D000676B686B696B6A6B6B6B6C6B6D6B6E6B1C
:1058E0006F6B706B716B726B736B746B756B766BCC
:1058F000776B786B796B7A6B7B6B7C6B7D6B7E6B7C
:105900007F6B806B816B826B836B846B856B866B2B
:10591000876B886B896B8A6B8B6B8C6B8D6B8E6BDB
:105920008F6B906B916B926B936B946B956B966B8B
:10593000976B986B996B9A6B9B6B9C6B9D6B9E6B3B
:105940009F6BB46BB56BB66BB76BB86BB96BBA6B5F
:10595000BB6BBC6BBD6BBE6BBF6BC06BC16BC26BFB
:10596000C36B0301766B776B786B796B7A6B7B6BB0
:105970007C6B7D6B190EA26F100EA36F160EA46FB9
:10598000180EA56F170EA66F1C0EA76F140EA86F2A
:105990002E0EA96FAA6BAB6BAC6BAD6BAE6BAF6B26
:1059A000B06B220EB16F240EB26F120EB36F210EC8
:1059B000B46F200EB56F260EB66F130EB76F110EB3
:1059C000B86FB96BBA6BBB6BBC6BBD6BBE6BBF6B9F
:1059D0000001866B86510F080AE3036A8651640F43
:1059E000E96E000E0320EA6EEF6A862BF3D7C80E2D
:1059F000D56EF28A850ECD6E9D80C150C00B0B090D
:105A0000C16EC050C00B0209C06EC08EC280F19E34
:105A10009D8AD180C00EF21216EF0EF0ECEF14F05A
:105A2000010E0301FD6F0001FAEC0BF079EF15F0A8
:105A300003014F513C0DF3CF50F3760EF66E040E7A
:105A4000F76E000EF86E0001AFEC1AF0C8EC1AF019
:105A5000860EF66E040EF76E000EF86EAFEC1AF0BE
:105A6000C8EC1AF0060E0301E86FFA0EFD6F000194
:105A7000FAEC0BF00301E82FF8D78E0EF66E040E49
:105A8000F76E000EF86E0001AFEC1AF0C8EC1AF0D9
:105A9000E3EC1AF00301586B0201D8510301585D81
:105AA00010E2D8C2E8F30001AAEC1BF003C022F315
:105AB00002C021F301C020F300C01FF30301582BE3
:105AC000EBD7938081B043D0938281B240D093844E
:105AD00081B43DD0938681B63AD0AA6A250EA96ECC
