:1000000043EF3CF0F0EF2CF057EF00F00000000061
:100010000000000000000000046ED8CF05F0E0CF23
:1000200006F00001E9CF0CF0EACF07F0E1CF08F0CD
:10003000E2CF09F0D9CF0AF0DACF0BF0F3CF12F00C
:10004000F4CF13F0FACF14F0FBCF15F000C00EF090
:1000500001C00FF002C010F003C011F09DA034EFFA
:1000600000F09EB0E6EF02F00EC000F00FC001F00D
:1000700010C002F011C003F00CC0E9FF07C0EAFF96
:10008000078E08C0E1FF09C0E2FF0AC0D9FF0BC01C
:10009000DAFF12C0F3FF13C0F4FF14C0FAFF15C05B
:1000A000FBFF045006C0E0FF05C0D8FF1000176E2C
:1000B000D8CF18F0E0CF19F00001E9CF1FF0EACF58
:1000C0001AF0E1CF1BF0E2CF1CF0D9CF1DF0DACF50
:1000D0001EF0F3CF25F0F4CF26F0FACF27F0FBCFB8
:1000E00028F000C021F001C022F002C023F003C0BC
:1000F00024F09DAA7FEF00F09EBAB4EF02F021C079
:1001000000F022C001F023C002F024C003F01FC0A1
:10011000E9FF1AC0EAFF1A8E1BC0E1FF1CC0E2FF14
:100120001DC0D9FF1EC0DAFF25C0F3FF26C0F4FFB3
:1001300027C0FAFF28C0FBFF175019C0E0FF18C006
:10014000D8FF1000F2CF0DF0F29CF29EF76A680F14
:10015000F66E010EF722000EF86E0900F5500DBC88
:10016000F28C0DBEF28E120041646D696E00F2CF0A
:100170000DF0F29CF29EF76A920FF66E010EF722D6
:10018000000EF86E0900F5500DBCF28C0DBEF28E1B
:1001900012004F70657261646F7220310000F2CFFF
:1001A0000DF0F29CF29EF76AC20FF66E010EF72276
:1001B000000EF86E0900F5500DBCF28C0DBEF28EEB
:1001C00012004F70657261646F7220320000F2CFCE
:1001D0000DF0F29CF29EF76AF20FF66E010EF72216
:1001E000000EF86E0900F5500DBCF28C0DBEF28EBB
:1001F00012004F70657261646F7220330000F2CF9D
:100200000DF0F29CF29EF76A220FF66E020EF722B4
:10021000000EF86E0900F5500DBCF28C0DBEF28E8A
:1002200012004F70657261646F7220340000F2CF6B
:100230000DF0F29CF29EF76A520FF66E020EF72254
:10024000000EF86E0900F5500DBCF28C0DBEF28E5A
:1002500012004F70657261646F7220350000F2CF3A
:100260000DF0F29CF29EF76A820FF66E020EF722F4
:10027000000EF86E0900F5500DBCF28C0DBEF28E2A
:1002800012004F70657261646F7220360000F2CF09
:100290000DF0F29CF29EF76AB20FF66E020EF72294
:1002A000000EF86E0900F5500DBCF28C0DBEF28EFA
:1002B00012004F70657261646F7220370000F2CFD8
:1002C0000DF0F29CF29EF76AE20FF66E020EF72234
:1002D000000EF86E0900F5500DBCF28C0DBEF28ECA
:1002E00012004F70657261646F7220380000F2CFA7
:1002F0000DF0F29CF29EF76A120FF66E030EF722D3
:10030000000EF86E0900F5500DBCF28C0DBEF28E99
:1003100012005465636E69636F0043414C454E544F
:10032000414D49454E544F000000000000004E4F23
:1003300020454E5655454C544F5320313334000020
:1003400000004E4F20454E5655454C544F532031DA
:10035000323100000000454E5655454C544F532055
:1003600031333400000000000000454E5655454C26
:10037000544F532031323100000000000000454E40
:100380005655454C544F20444F424C4520310000B7
:100390000000454E5655454C544F20444F424C4565
:1003A0002032000000005052494F4E000000000073
:1003B00000000000000000000000424F57494520A7
:1003C00026204449434B0000000000000000544533
:1003D0005354204445204655474153000000000037
:1003E00000005445535420444520434F4D504F4E38
:1003F000454E54455300484F5241205920464543ED
:10040000484100004125752E7478743D222D2D2D14
:100410002D2200004125752E7478743D22506172A2
:100420006164612200004125752E7478743D22506C
:1004300075657274612200004125752E7478743DD3
:10044000225465726D6F737461746F2200004125D0
:10045000752E7478743D22536F62726554220000C9
:100460004125752E7478743D225469656D706F2234
:1004700000004125752E7478743D225072657369B1
:100480006F6E22004125752E7478743D22426F6D87
:10049000626122004125752E7478743D2245727286
:1004A0006F72566163696F2200004125752E747862
:1004B000743D2250726543616C6522004125752EA2
:1004C0007478743D22566163696F22004125752E50
:1004D0007478743D2243616C656E22004125752E4F
:1004E0007478743D22446573666F6761220041250C
:1004F000752E7478743D2246696E616C697A616408
:100500006F2200004125752E7478743D2253656377
:10051000616E646F22004125752E7478743D22450A
:1005200073746572696C697A616E646F22007061C0
:10053000676520456D657267656E6369610070610E
:100540006765205573756172696F730070616765C7
:10055000205573756172696F73007061676520550E
:1005600073756172696F73009EAAFED7AECF6EF28B
:1005700002016E51650803E1010E6C6F476A6C2D34
:100580000AD0036A47503C0FE96E000E0320EA6E62
:100590006EC2EFFF472A4750090802E2476A6C6BB8
:1005A000475210E13C5065080BE13D3C09D03E3C10
:1005B00007D0445205E1453C03D0050E6D6F02D0D3
:1005C0000A0E6D6F9E9A00017FEF00F09E0ECF6EB7
:1005D000580ECE6E0201852BD8B4862B872BD8B44B
:1005E000882B892BD8B48A2B8B2BD8B48C2B010168
:1005F00006AB05D00201AF2BD8B4B02B010106AF7A
:1006000004D00201B12BD8B4B22B0201865304E10D
:100610008551C708D8B0DCD001010AAF02D0020171
:10062000A72B0201682B010103AD10D002019C53DE
:10063000D8B402D001010AD06B519B5DD8A002D082
:10064000010104D09B2BD8B49C2B09D002019C53F0
:1006500003E16B519B5D03E366819C6B9B6B010126
:1006600003A304D0172BD8B4182B02D0186B176B28
:1006700003A504D0192BD8B41A2B02D01A6B196B0E
:1006800003A704D01B2BD8B41C2B02D01C6B1B6BF4
:1006900003A904D01D2BD8B41E2B02D01E6B1D6BDA
:1006A0000001FBAD05D00101012BD8B4022B03D012
:1006B0000101026B016B0001FBAF07D0FF2BD8A437
:1006C00003D00101002B000104D00101006B0001E7
:1006D000FF6B30AE07D030B005D002017C2BD8B410
:1006E0007D2B03D002017D6B7C6B0001F8A108D04B
:1006F000938681A605D002017A2BD8B47B2B03D038
:1007000002017B6B7A6B010103AB05D004B903D006
:100710001F2BD8B4202B04A303D00D2BD8B40E2B41
:100720000AA501D0FB2B0001FAAF04D00101132B65
:10073000D8B4142B010103AD0AD003BF08D09382B3
:1007400081B205D030A203D00B2BD8B40C2B04A35C
:1007500003D00D2BD8B40E2B08AF03D0152BD8B473
:10076000162B08A105D00201992BD8B49A2B0101B0
:1007700008A305D00201972BD8B4982B010105A935
:1007800004D002017E2BD8B47F2B0201866B856BCF
:1007900001010A8902018F2BD8B4902B010103AF0C
:1007A0000BD004B509D0215302E0210705D0225314
:1007B00003E022073B0E216F04A109D0235302E07E
:1007C000230705D0245303E024073B0E236F0201C7
:1007D0009E90000134EF00F070616765204269650A
:1007E0006E76656E69646100626B636D643D3000B6
:1007F00070616765205573756172696F7300626B14
:10080000636D643D3000706167652055737561727A
:10081000696F730070616765204D656E750074695E
:1008200074756C6F2E7478743D22436C617665200C
:100830004E75657661220000746974756C6F2E7454
:1008400078743D22436C6176652041637475616CF8
:100850002200746974756C6F2E7478743D22436C39
:10086000617665205465636E69636F220000746968
:1008700074756C6F2E7478743D222573220070613C
:10088000676520416A757374657300007061676500
:10089000205573756172696F7300706167652043DD
:1008A0006C617665436F727265637461000070619C
:1008B000676520436C6176654261640070616765BD
:1008C00020436F6E6669670070616765204D656ED5
:1008D00075007061676520436C617665000074691E
:1008E00074756C6F2E7478743D22436C617665204C
:1008F0004E7565766122000070616765204D656EFA
:100900007500746974756C6F2E7478743D22436C35
:10091000617665204E7565766122000070616765BD
:10092000204D656E750066656368612E7478743D50
:100930002246656368613A253032752F253032755D
:100940002F32302530327520486F72613A202530C1
:1009500032753A253032753A253032752200747579
:100960007365722E7478743D2225732200007061C5
:1009700067652046756E63696F6E616D69656E743B
:100980006F00706167652046756E63696F6E616D9B
:1009900069656E746F00706167652046756E636986
:1009A0006F6E616D69656E746F007061676520467A
:1009B000756E63696F6E616D69656E746F007061ED
:1009C00067652046756E63696F6E616D69656E74EB
:1009D0006F00706167652046756E63696F6E616D4B
:1009E00069656E746F00706167652046756E636936
:1009F0006F6E616D69656E746F007061676520462A
:100A0000756E63696F6E616D69656E746F0070619C
:100A100067652046756E63696F6E616D69656E749A
:100A20006F00706167652046756E63696F6E616DFA
:100A300069656E746F0070616765204D656E750045
:100A400070616765204369636C6F506572736F6E88
:100A500061007061676520416A7573746573000099
:100A600066656368612E7478743D224665636861CB
:100A70003A253032752F253032752F3230253032FD
:100A80007520486F72613A20253032753A25303230
:100A9000753A2530327522007061676520436963BD
:100AA0006C6F506572736F6E6100746D696E657303
:100AB000742E7478743D22253032752200007473D0
:100AC00065636573742E7478743D22253032752207
:100AD000000066656368612E7478743D2246656324
:100AE00068613A253032752F253032752F32302526
:100AF00030327520486F72613A20253032753A25C0
:100B00003032753A253032752200706167652043B6
:100B100069636C6F506572736F6E6100746D696E9E
:100B20007365632E7478743D22253032752200007F
:100B3000747365637365632E7478743D2225303257
:100B40007522000066656368612E7478743D2246E4
:100B5000656368613A253032752F253032752F3242
:100B6000302530327520486F72613A202530327559
:100B70003A253032753A253032752200706167654A
:100B8000204369636C6F506572736F6E610074739C
:100B9000657474656D2E7478743D2225303375222A
:100BA000000066656368612E7478743D2246656353
:100BB00068613A253032752F253032752F32302555
:100BC00030327520486F72613A20253032753A25EF
:100BD0003032753A253032752200706167652043E6
:100BE00069636C6F506572736F6E6100746E6976C5
:100BF000656C2E7478743D22254C7522000074308B
:100C00002E7478743D225465737420253032752219
:100C1000000062302E62636F3D3230313600623048
:100C20002E62636F3D3633343838000062312E62F5
:100C3000636F3D323031360062312E62636F3D3674
:100C400033343838000062322E62636F3D32303107
:100C5000360062322E62636F3D363334383800001E
:100C600062332E62636F3D323031360062332E6262
:100C7000636F3D3633343838000062342E62636F60
:100C80003D323031360062342E62636F3D3633348C
:100C90003838000062352E62636F3D3230313600E5
:100CA00062352E62636F3D36333438380000623768
:100CB0002E62636F3D323031360062372E62636FD1
:100CC0003D3633343838000062362E62636F3D3271
:100CD0003031360062362E62636F3D363334383839
:100CE00000006231322E62636F3D323031360000D7
:100CF0006231322E62636F3D3633343838006231F0
:100D0000362E62636F3D3230313600006231362E4E
:100D100062636F3D3633343838006231372E626398
:100D20006F3D3230313600006231372E62636F3DE5
:100D30003633343838006232352E62636F3D3230DC
:100D4000313600006232352E62636F3D36333438FF
:100D500038006232312E62636F3D3230313600002E
:100D60006232312E62636F3D36333438380062327E
:100D7000322E62636F3D3230313600006232322EE5
:100D800062636F3D3633343838006232382E626326
:100D90006F3D3230313600006232382E62636F3D73
:100DA00036333438380062382E62636F3D3230316A
:100DB000360062382E62636F3D36333438380000B7
:100DC0006232362E62636F3D32303136000062325D
:100DD000362E62636F3D36333438380062392E6206
:100DE000636F3D323031360062392E62636F3D36BB
:100DF0003334383800006231312E62636F3D323057
:100E0000313600006231312E62636F3D3633343843
:100E100038006231302E62636F3D3230313600006F
:100E20006231302E62636F3D3633343838006232BF
:100E3000332E62636F3D3230313600006232332E22
:100E400062636F3D3633343838006232342E626369
:100E50006F3D3230313600006232342E62636F3DB6
:100E60003633343838006232372E62636F3D3230A9
:100E7000313600006232372E62636F3D36333438CC
:100E800038006231332E7478743D22414443303A45
:100E900025332E30662200006231342E7478743D82
:100EA00022414443313A25332E306622000062311C
:100EB000352E7478743D2241343A25332E30662025
:100EC0002530334C752200006231382E7478743D21
:100ED0002241353A25332E3066202530334C752299
:100EE00000006231392E7478743D2254323A253331
:100EF0002E31662200006232302E7478743D225406
:100F0000313A25332E316622000070616765204D2D
:100F1000656E750070616765204D656E750074685B
:100F20006F72612E7478743D222530327522000074
:100F3000746D696E75746F732E7478743D222530EC
:100F400032752200746469612E7478743D222530F4
:100F500032752200746D65732E7478743D222530CD
:100F60003275220074796561722E7478743D222581
:100F700030327522000066656368612E7478743DB6
:100F80002246656368613A253032752F2530327507
:100F90002F32302530327520486F72613A2025306B
:100FA00032753A253032753A253032752200747523
:100FB0007365722E7478743D222573220000636974
:100FC000636C6F2E7478743D224349434C4F20501C
:100FD00025303275220074656D702E7478743D2250
:100FE00025752200746573742E7478743D22253043
:100FF00032753A25303275220000747365632E74A1
:1010000078743D22253032753A2530327522000041
:1010100070756C736F732E7478743D222530327541
:101020002200766163696F2E7478743D2225303317
:1010300075206B5061220000646573666F6775658B
:101040002E7478743D224E2F412200006369636C38
:101050006F2E7478743D224349434C4F20502D2D00
:10106000220074656D702E7478743D222D2D22003F
:10107000746573742E7478743D222D2D3A2D2D22B3
:101080000000747365632E7478743D222D2D3A2D03
:101090002D22000070756C736F732E7478743D226E
:1010A0002D2D2200766163696F2E7478743D222D98
:1010B0002D220000646573666F6775652E74787401
:1010C0003D222D2D22006369636C6F2E7478743D70
:1010D000224349434C4F205025303275220074651D
:1010E0006D702E7478743D222575220074657374BA
:1010F0002E7478743D22253032753A2530327522AF
:101100000000747365632E7478743D222530327547
:101110003A2530327522000070756C736F732E742F
:1011200078743D22253032752200766163696F2E16
:101130007478743D2225303375206B506122000095
:10114000646573666F6775652E7478743D224E2FE3
:101150004122000070616765204D656E7500706109
:101160006765204369636C6F506572736F6E6100D1
:101170007061676520416A75737465730000706102
:1011800067652054656D70657261747572610000E9
:1011900070616765205469656D706F4573740000F8
:1011A00070616765205469656D706F5365630000F9
:1011B000706167652050756C736F7300706167654F
:1011C000204E6976656C0000706167652046756E1B
:1011D00063696F6E616D69656E746F0066656368E3
:1011E000612E7478743D2246656368613A25303219
:1011F000752F253032752F32302530327520486FEB
:1012000072613A20253032753A253032753A2530F0
:101210003275220070616765204369636C6F5065A9
:1012200072736F6E6100746E6976656C2E7478747B
:101230003D222575220066656368612E7478743DD1
:101240002246656368613A253032752F2530327544
:101250002F32302530327520486F72613A202530A8
:1012600032753A253032753A253032752200706178
:10127000676520436C617665000070616765204397
:101280006C61766500007061676520436C6176650E
:1012900000007061676520436C61766500007061D5
:1012A000676520436C617665000070616765204367
:1012B0006C61766500007061676520436C617665DE
:1012C00000007061676520436C61766500007061A5
:1012D000676520436C617665000070616765204337
:1012E0006C61766500007061676520416A75737492
:1012F0006573000066656368612E7478743D2246EC
:10130000656368613A253032752F253032752F328A
:10131000302530327520486F72613A2025303275A1
:101320003A253032753A253032752200747573656E
:10133000722E7478743D22257322000070616765F7
:10134000204369636C6F7300706167652054657337
:10135000740070616765205573756172696F730001
:1013600070616765204163746976610070616765CB
:1013700020436C6176650000706167652046656397
:101380006861000070616765204D656E7500706171
:101390006765204369636C6F506572736F6E61009F
:1013A0007061676520416A757374657300006573C9
:1013B0007461646F2E7478743D224F7072696D6130
:1013C000204578706F72746172207061726120695B
:1013D0006D7072696D6972220000706167652041ED
:1013E0006A7573746573000065737461646F2E743D
:1013F00078743D2221496D7072696D69656E646F04
:101400002122000068302E76616C3D257500683120
:101410002E76616C3D25750066656368612E747873
:10142000743D22253032752F253032752F2530320C
:10143000752200006369636C6F2E7478743D2225F9
:1014400030327522000074302E7478743D22436966
:10145000636C6F2025303275220075737561726977
:101460006F2E7478743D2241646D696E220075732D
:10147000756172696F2E7478743D224F7065726168
:10148000646F7225752200007573756172696F2E25
:101490007478743D225465636E69636F2200686FCF
:1014A000726125752E7478743D22253032752E2098
:1014B00020253032753A2530327522005425752E9C
:1014C0007478743D2225332E3166B0432200506378
:1014D00025752E7478743D222530334C756B506120
:1014E000220050706325752E7478743D22253033A8
:1014F0004C756B506122000066656368612E7478DC
:10150000743D2246656368613A253032752F253077
:1015100032752F32302530327520486F72613A2093
:10152000253032753A253032753A25303275220031
:1015300070616765204369636C6F506572736F6E8D
:101540006100746E6976656C2E7478743D22257521
:10155000220066656368612E7478743D2246656377
:1015600068613A253032752F253032752F3230259B
:1015700030327520486F72613A20253032753A2535
:101580003032753A2530327522007061676520412E
:101590006A757374657300006225752E62636F3D12
:1015A0003230313600006225752E62636F3D36336E
:1015B0003438380070616765204D656E7500706164
:1015C000676520436C61766500007432662E74781E
:1015D000743D2225752200007433662E7478743DA4
:1015E0002225732200007432662E7478743D222501
:1015F000752200007433662E7478743D2250657233
:10160000736F6E616C697A61646F220062322E7052
:1016100069633D38360046756E63696F6E616D694A
:10162000656E746F2E7434662E7478743D2220506B
:10163000617261646120646520456D657267656EE5
:1016400063696122000046756E63696F6E616D6942
:10165000656E746F2E7435662E7478743D22204347
:10166000616E63656C61646F220046756E63696FBD
:101670006E616D69656E746F2E7434662E74787445
:101680003D222050756572746120416269657274F3
:101690006122000046756E63696F6E616D69656EEB
:1016A000746F2E7435662E7478743D2220506175E7
:1016B0007361646F220046756E63696F6E616D6958
:1016C000656E746F2E7434662E7478743D222054C7
:1016D00069656D706F204C6C656E61646F220000EF
:1016E00046756E63696F6E616D69656E746F2E7499
:1016F00035662E7478743D222043616E63656C619B
:10170000646F220046756E63696F6E616D69656E08
:10171000746F2E7434662E7478743D222054657272
:101720006D6F737461746F22000046756E63696F2C
:101730006E616D69656E746F2E7435662E74787483
:101740003D222043616E63656C61646F22004675C3
:101750006E63696F6E616D69656E746F2E74346649
:101760002E7478743D2220536F62726574656D70BB
:101770006572617475726122000046756E63696FEF
:101780006E616D69656E746F2E7435662E74787433
:101790003D222043616E63656C61646F2200467573
:1017A0006E63696F6E616D69656E746F2E743466F9
:1017B0002E7478743D22205469656D706F205072CC
:1017C0006F6C6F6E6761646F220046756E63696F40
:1017D0006E616D69656E746F2E7435662E747874E3
:1017E0003D222043616E63656C61646F2200467523
:1017F0006E63696F6E616D69656E746F2E743466A9
:101800002E7478743D2220536F6272655072657336
:10181000696F6E22000046756E63696F6E616D6957
:10182000656E746F2E7435662E7478743D22204375
:10183000616E63656C61646F220046756E63696FEB
:101840006E616D69656E746F2E7434662E74787473
:101850003D22204572726F7220426F6D62612200DC
:1018600046756E63696F6E616D69656E746F2E7417
:1018700035662E7478743D222043616E63656C6119
:10188000646F220046756E63696F6E616D69656E87
:10189000746F2E7434662E7478743D2220457272F3
:1018A0006F7220566163696F220046756E63696FBF
:1018B0006E616D69656E746F2E7435662E74787402
:1018C0003D222043616E63656C61646F2200467542
:1018D0006E63696F6E616D69656E746F2E743466C8
:1018E0002E7478743D22204572726F7220456D709F
:1018F00061717565220046756E63696F6E616D6911
:10190000656E746F2E7435662E7478743D22204394
:10191000616E63656C61646F220046756E63696F0A
:101920006E616D69656E746F2E7434662E74787492
:101930003D22204369636C6F206E6F20496E69639E
:101940006961646F220046756E63696F6E616D69CF
:10195000656E746F2E7435662E7478743D22205037
:1019600061757361646F220062322E7069633D3865
:10197000350046756E63696F6E616D69656E746F73
:101980002E7434662E7478743D22204E696E67750D
:101990006E61220046756E63696F6E616D69656E7A
:1019A000746F2E7435662E7478743D2220507265E3
:1019B00043616C656E74616E646F220046756E6380
:1019C000696F6E616D69656E746F2E7434662E7406
:1019D00078743D22204E696E67756E6122004675EF
:1019E0006E63696F6E616D69656E746F2E743566B6
:1019F0002E7478743D222050756C736F20646520BE
:101A0000566163696F202575220046756E63696FA4
:101A10006E616D69656E746F2E7435662E747874A0
:101A20003D222050756C736F20506F736974697616
:101A30006F202575220046756E63696F6E616D6952
:101A4000656E746F2E7434662E7478743D22204E49
:101A5000696E67756E61220046756E63696F6E61AF
:101A60006D69656E746F2E7435662E7478743D22C0
:101A70002043616C656E74616E646F220000467570
:101A80006E63696F6E616D69656E746F2E74346616
:101A90002E7478743D22204E696E67756E61220047
:101AA00046756E63696F6E616D69656E746F2E74D5
:101AB00035662E7478743D222046696E616C697AB1
:101AC00061646F22000046756E63696F6E616D69B7
:101AD000656E746F2E7434662E7478743D22204EB9
:101AE000696E67756E61220046756E63696F6E611F
:101AF0006D69656E746F2E7435662E7478743D2230
:101B000020446573707265737572697A616E646F73
:101B1000220046756E63696F6E616D69656E746FE4
:101B20002E7434662E7478743D22204E696E67756B
:101B30006E61220046756E63696F6E616D69656ED8
:101B4000746F2E7435662E7478743D222046696E4B
:101B5000616C697A61646F22000046756E63696F1B
:101B60006E616D69656E746F2E7434662E74787450
:101B70003D22204E696E67756E61220046756E6368
:101B8000696F6E616D69656E746F2E7435662E7443
:101B900078743D2220536563616E646F2200467540
:101BA0006E63696F6E616D69656E746F2E743466F5
:101BB0002E7478743D22204E696E67756E61220026
:101BC00046756E63696F6E616D69656E746F2E74B4
:101BD00035662E7478743D22204465737072657387
:101BE0007572697A616E646F220046756E63696F03
:101BF0006E616D69656E746F2E7434662E747874C0
:101C00003D22204E696E67756E61220046756E63D7
:101C1000696F6E616D69656E746F2E7435662E74B2
:101C200078743D22204573746572696C697A616EBF
:101C3000646F220046756E63696F6E616D69656ED3
:101C4000746F2E7434662E7478743D22204E696E43
:101C500067756E61220046756E63696F6E616D69AE
:101C6000656E746F2E7435662E7478743D2220561E
:101C70006163696F220046756E63696F6E616D699D
:101C8000656E746F2E7434662E7478743D22204510
:101C900072726F72204369636C6F220046756E63C7
:101CA000696F6E616D69656E746F2E7435662E7422
:101CB00078743D222046696E616C697A61646F2296
:101CC000000046756E63696F6E616D69656E746F55
:101CD0002E7434662E7478743D22204E696E6775BA
:101CE0006E61220046756E63696F6E616D69656E27
:101CF000746F2E7435662E7478743D22204D616E9B
:101D000074656E69656E646F20566163696F220049
:101D100046756E63696F6E616D69656E746F2E7462
:101D200034662E7478743D22204E696E67756E613C
:101D3000220046756E63696F6E616D69656E746FC2
:101D40002E7435662E7478743D222046696E616C5F
:101D5000697A61646F22000046756E63696F6E6117
:101D60006D69656E746F2E7434662E7478743D22BE
:101D7000204572726F72204369636C6F2200467552
:101D80006E63696F6E616D69656E746F2E74356612
:101D90002E7478743D222046696E616C697A6164A4
:101DA0006F2200006164642031322C302C25312EEA
:101DB000306600006164642031322C312C25312ED4
:101DC000306600006164642031322C322C25312EC3
:101DD000306600007436662E7478743D2225332EEA
:101DE0003166B043220046756E63696F6E616D693E
:101DF000656E746F2E7437662E7478743D222530AC
:101E0000334C756B5061220046756E63696F6E616D
:101E10006D69656E746F2E743132662E7478743D00
:101E2000222530334C756B506122000046756E637D
:101E3000696F6E616D69656E746F2E7439662E748C
:101E400078743D2225303375B043220046756E63A9
:101E5000696F6E616D69656E746F2E743130662EB8
:101E60007478743D22253032753A2530327522005F
:101E700046756E63696F6E616D69656E746F2E7401
:101E80003131662E7478743D22253032753A253012
:101E90003275220066656368612E7478743D222570
:101EA000732046656368613A253032752F253032DC
:101EB000752F3230253032752020486F72613A25F7
:101EC0003032753A253032752025322E3166B043D6
:101ED0002200436F6E6669672E7432632E747874C5
:101EE0003D2250726F706F7263696F6E616C220079
:101EF0007433632E7478743D2225322E30662200AE
:101F0000436F6E6669672E7432632E7478743D2257
:101F1000546369636C6F22007433632E7478743D6C
:101F20002225322E30662200436F6E6669672E745A
:101F300032632E7478743D22416A75737465202B68
:101F400022007433632E7478743D222575220000BC
:101F5000436F6E6669672E7432632E7478743D2207
:101F6000416A75737465202D22007433632E747872
:101F7000743D222575220000436F6E6669672E74DA
:101F800032632E7478743D22416A75737465322011
:101F90002B2200007433632E7478743D2225752241
:101FA0000000436F6E6669672E7432632E74787416
:101FB0003D22416A7573746532202D22000074330E
:101FC000632E7478743D222575220000436F6E667F
:101FD00069672E7432632E7478743D224D6564698E
:101FE000612200007433632E7478743D22257522BB
:101FF0000000436F6E6669672E7432632E747874C6
:102000003D22525054313030422200007433632E4E
:102010007478743D2225322E31662200436F6E663D
:1020200069672E7432632E7478743D225250543195
:1020300030304220322200007433632E7478743DB5
:102040002225322E31662200436F6E6669672E7438
:1020500032632E7478743D224369636C6F7322007F
:102060007433632E7478743D222530334C7522000E
:10207000436F6E6669672E7432632E7478743D22E6
:1020800041746D6F73666572696361220000743319
:10209000632E7478743D2225303375220000436F1F
:1020A0006E6669672E7432632E7478743D22542EE6
:1020B0002041706572747572612200007433632E62
:1020C0007478743D22253033752200007061676595
:1020D000204D656E750066656368612E7478743D89
:1020E0002246656368613A253032752F2530327596
:1020F0002F32302530327520202020486F72613A0F
:1021000020253032753A2530327522008E0E006E51
:10211000DDC601F0DCC602F0036A015209E102C02B
:1021200001F0026A080E005E015202E1006A08D066
:10213000D89001BE04D0023601360006F9D7019EC0
:10214000000C060EEA6EDC0EE96EEF500DE0060E96
:10215000016E006A002EFED7012EFBD77B0E006EAB
:10216000002EFED7EF2EF3D7000C0601D651D8B4BF
:10217000A5D0E26FDA51D8B4A1D0E25F05E37F0EBB
:10218000E227D8B09BD006D0810EE25FD8A096D0CF
:10219000D8B494D0E2C600F0016A026A036AE16B27
:1021A000D7C6E0F6E08FD8C6DFF6D9C6DEF6190E40
:1021B000E26FDD51DE5F0DE2010EDF5F0AE2E05FFC
:1021C00008E2E15F06E2E12BE02BDF2BDD51DE27A9
:1021D00028D0DC51DF5F12E2010EE05F0FE2E15F29
:1021E0000DE2E12BE02BDC51DF27DD51DE2719E387
:1021F000DF2B17E1E02B15E1E12B13D0DB51800938
:10220000E05F0EE2010EE15F0BE2E12BDB518009A2
:10221000E027DC51DF27E9E3E02BE7E1E12BE5D71D
:102220000380E22F01D00BD0D890DE37DF37E037C4
:10223000E137D890033602360136E337BAD7E3A147
:1022400006D0D890013202320332E33302D00006C6
:1022500035E0E3BF1ED0D890DE37DF37E037E13717
:10226000DD51DE5F07E2010EDF5F04E2E05F02E2C4
:10227000E15F1AE3DC51DF5F05E2010EE05F02E29D
:10228000E15F12E3DB518009E05F03E2010EE15FF1
:102290000BE3032A09E1022A07E1012A05E1002AEA
:1022A0000DE0013202320332D7C6E2F6DB51E21B07
:1022B000E2AF02D0018E06D0019E04D0006A016A0E
:1022C000026A036A0001000C800ED8A202D0060147
:1022D000E11B0601E66BE76BDDC6E5F6E151E51BA8
:1022E000DC51D8B4DFD0E46F006EE051D8B4E3D055
:1022F000E45FD8B483D03EE3E1C6EAF6EA8FE2C6F3
:10230000E9F6E3C6E8F6E76BD890EA33E933E83359
:10231000E733E42FF8D7E5AF03D0E681E0D0E691CC
:10232000E491E689060EEA6EDF0EE96EEBD0E699DF
:10233000E5BF0AD0E4A113D0EA33E933E833E73349
:10234000002AD8B4C7D00BD0EABF0CD0D890E7375A
:10235000E837E937EA370006D8B4BCD0F5D7E68DC0
:102360006DD0E69DDDC6E5F6DDAF02D0EA8FABD0DD
:10237000EA9FA9D0E0C6E4F6E0C600F0DC51E45FD5
:10238000DDC6EAF6EA8FDEC6E9F6DFC6E8F6E76BF9
:10239000D890EA33E933E833E733E42FF8D7E5AFF1
:1023A00003D0E6839CD0E693E491E68B060EEA6EBA
:1023B000E30EE96EA7D0E69BE5BF0AD0E4A113D0F7
:1023C000EA33E933E833E733002AD8B483D00BD0BB
:1023D000EABF0CD0D890E737E837E937EA3700068C
:1023E000D8B478D0F5D7E68F29D0E69FE1C6E5F6D8
:1023F000E1AF02D0EA8F67D0EA9F65D0E1C6EAF686
:10240000EA8FE2C6E9F6E3C6E8F6E5AF04D0EA9F54
:10241000E68565D0E695E76BE491060EEA6EDF0E81
:10242000E96E70D0E5BF1CD0DDC6E5F6E4A106D0AC
:10243000EA33E933E833E733002A4CE0E7AF0BD067
:10244000E82B09E1E92B07E1EA2B05E1EA33E9335F
:10245000E833002A3FE0E6BD84D7E6BFC6D71CD0EC
:10246000800EEA1BEAAF04D03AD0E1C6E5F60AD006
:10247000DDC6E5F6EA5306E1E95304E1E85302E17B
:10248000006A21D0EABF08D0D890E737E837E937AB
:10249000EA37002EF7D71ED0E5AF02D0EA8F13D06F
:1024A000EA9F11D0E0C600F0E1C6EAF6E2C6E9F61E
:1024B000E3C6E8F608D0DCC600F0DDC6EAF6DEC604
:1024C000E9F6DFC6E8F6EAC601F0E9C602F0E8C6BA
:1024D00003F034D0006A016A026A036A2FD0E76B06
:1024E000E81FE91FEA1FE71FE72B05E1E82B03E1DF
:1024F000E92B01E1EA2BE6B112D7E6B354D7E6B5F2
:1025000089D7B3D7EF50E82705E3E92B03E1EA2B9E
:10251000D8B4E481ED52EF50E92703E3EA2BD8B4B5
:10252000E481ED52EF50EFBE01D0800AEA27D8B027
:10253000E481E6B9FCD6E6BB3ED774D70001000CB7
:102540000601CC51070B006ECC31016E0132013215
:102550001F0E01160150CE25E96E000ECF21EA6E46
:10256000016A012A002A01D00136002EFDD7CD5381
:1025700003E00150EF1203D0011E0150EF160001DD
:10258000000C0601CB51070B006ECB31016E0132FE
:1025900001321F0E01160150CC25E96E000ECD212F
:1025A000EA6EEFCF01F0002A01D00132002EFDD7F4
:1025B0000001000C0601D451D603F3CF01F0F4CF93
:1025C00000F0D703F3500026D551D603F350002076
:1025D000026E0001000C080E016E050E006E002E4A
:1025E000FED78B969496060E006E002EFED706013F
:1025F000E0378B98D8B09488D8A09498948682A617
:10260000FED7012E01D002D00001E7D7050E006EE3
:10261000002EFED78B96949600009488060E006ECE
:10262000002EFED7060E006E002EFED7948682A6E0
:10263000FED7016A060E006E002EFED782B801801A
:102640008B9694968B9894980001000C080E0601C6
:10265000D36F00C0D4F69488060E006E002EFED70D
:10266000948682A6FED782B8D88082A8D8900136F8
:10267000050E006E002EFED794968B96D32FEBD7C7
:102680009488060E006E002EFED78B98D451D8A4E5
:1026900094980000948682A6FED7050E006E002E48
:1026A000FED78B969496060E006E002EFED78B9862
:1026B00094980001000C9488050E006E002EFED741
:1026C0009486060E006E002EFED78B989498050E09
:1026D000006E002EFED78B969496A00E0601E06F3A
:1026E000000179DFD0C6D2F60601D36BD0C6E0F682
:1026F000000171DFCFC6E0F66EDF9488050E006E34
:10270000002EFED79486060E006E002EFED782A6FF
:10271000FED78B989498050E006E002EFED78B96F0
:102720009496A10E0601E06F000155DF006A8EDF6E
:1027300001C0D1F694980000948682A6FED7050EBB
:10274000006E002EFED700D000009488050E006EAB
:10275000002EFED70601D1C601F00001000C0601D3
:10276000DD6BCEC6DCF60001D1DC03C0D2F602C0C0
:10277000D1F601C0D0F600C0CFF6D2C6D9F6D1C688
:10278000D8F6D0C6D7F6CFC6D6F60601DD6BDC6B21
:10279000200EDB6F820EDA6F0001E7DC000CCFC683
:1027A000D6F60601D351D61BD6AF05D0D894D89013
:1027B000CFBFD8802FD0CFC6D6F6D2C6D7F6CE514F
:1027C000D75F06E0D6AF26D0D850010AD86E22D007
:1027D000D3C6D7F6CF51D75F06E0D6AF1BD0D850BF
:1027E000010AD86E17D0D4C6D7F6D051D75F06E00D
:1027F000D6AF10D0D850010AD86E0CD0D5C6D7F6B7
:10280000D151D75F06E0D6AF05D0D850010AD86EB7
:1028100001D0D8900001000CF2CFCAF6F29CF29ED3
:10282000AA6A140EA96EA69CA69EA680A8500601B0
:10283000CABDF28CCABFF28EDD6BDC6F000166DCB4
:1028400003C022F202C021F201C020F200C01FF238
:102850000A0E0601DC6F000174DCF2CFCAF6F29CAE
:10286000F29EAA6A150EA96EA69CA69EA680A850E6
:102870000601CABDF28CCABFF28E0301586F0A0E60
:102880000601DC6F00015DDCF2CFCAF6F29CF29E1D
:10289000AA6A160EA96EA69CA69EA680A85006013E
:1028A000CABDF28CCABFF28E0301596F0A0E06012F
:1028B000DC6F000146DCF2CFCAF6F29CF29EAA6AF7
:1028C000170EA96EA69CA69EA680A8500601CABD9A
:1028D000F28CCABFF28E0401BC6F0A0E0601DC6FD7
:1028E00000012FDCF2CFCAF6F29CF29EAA6A180E03
:1028F000A96EA69CA69EA680A8500601CABDF28C11
:10290000CABFF28E0401BD6F0A0E0601DC6F000122
:1029100018DCF2CFCAF6F29CF29EAA6A190EA96ED2
:10292000A69CA69EA680A8500601CABDF28CCABF6E
:10293000F28E0101F76F0A0E0601DC6F000101DC67
:10294000F2CFCAF6F29CF29EAA6A1A0EA96EA69C53
:10295000A69EA680A8500601CABDF28CCABFF28E00
:10296000DD6BDC6F000186EC10F003C00AF202C0E0
:1029700009F201C008F200C007F20A0E0601DC6F7E
:102980000001A1EC10F0F2CFCAF6F29CF29EAA6A06
:102990001B0EA96EA69CA69EA680A8500601CABDC5
:1029A000F28CCABFF28EDD6BDC6F000186EC10F09A
:1029B00003C0CCF102C0CBF101C0CAF100C0C9F123
:1029C000CCC1D9F6CBC1D8F6CAC1D7F6C9C1D6F6A3
:1029D0000601DD6BDC6B200EDB6F820EDA6F00010F
:1029E000B5EC10F003C0CCF102C0CBF101C0CAF1CC
:1029F00000C0C9F10A0E0601DC6F0001A1EC10F065
:102A0000F2CFCAF6F29CF29EAA6A1C0EA96EA69C90
:102A1000A69EA680A8500601CABDF28CCABFF28E3F
:102A2000DD6BDC6F000186EC10F0D89203C0DFF69E
:102A300002C0DEF601C0DDF600C0DCF6CCC1E3F674
:102A4000CBC1E2F6CAC1E1F6C9C1E0F63DDC03C084
:102A50004DF302C04CF301C04BF300C04AF30A0E21
:102A60000601DC6F0001A1EC10F0F2CFCAF6F29C77
:102A7000F29EAA6A1D0EA96EA69CA69EA680A850CC
:102A80000601CABDF28CCABFF28EDD6BDC6F00019D
:102A900086EC10F003C0CCF102C0CBF101C0CAF14A
:102AA00000C0C9F1CCC1D9F6CBC1D8F6CAC1D7F69E
:102AB000C9C1D6F60601DD6BDC6B200EDB6F820E22
:102AC000DA6F0001B5EC10F003C0CCF102C0CBF11D
:102AD00001C0CAF100C0C9F10A0E0601DC6F000195
:102AE000A1EC10F0F2CFCAF6F29CF29EAA6A1E0E7A
:102AF000A96EA69CA69EA680A8500601CABDF28C0F
:102B0000CABFF28EDD6BDC6F000186EC10F0D8924C
:102B100003C0DFF602C0DEF601C0DDF600C0DCF661
:102B2000CCC1E3F6CBC1E2F6CAC1E1F6C9C1E0F619
:102B300064EC11F003C0B1F402C0B0F401C0AFF412
:102B400000C0AEF40A0E0601DC6F0001A1EC10F02B
:102B5000F2CFCAF6F29CF29EAA6A1F0EA96EA69C3C
:102B6000A69EA680A8500601CABDF28CCABFF28EEE
:102B70000201BD6F0A0E0601DC6F0001A1EC10F02E
:102B8000F2CFCAF6F29CF29EAA6A200EA96EA69C0B
:102B9000A69EA680A8500601CABDF28CCABFF28EBE
:102BA0000201776F0A0E0601DC6F0001A1EC10F044
:102BB000F2CFCAF6F29CF29EAA6A250EA96EA69CD6
:102BC000A69EA680A8500601CABDF28CCABFF28E8E
:102BD0000201746F0A0E0601DC6F0001A1EC10F017
:102BE000F2CFCAF6F29CF29EAA6A260EA96EA69CA5
:102BF000A69EA680A8500601CABDF28CCABFF28E5E
:102C00000201756F0A0E0601DC6F0001A1EC10F0E5
:102C100075C296F274C295F20A0E0601DC6F0001CD
:102C2000A1EC10F0F2CFCAF6F29CF29EAA6A2A0E2C
:102C3000A96EA69CA69EA680A8500601CABDF28CCD
:102C4000CABFF28E0201CC6F0A0E0601DC6F0001D2
:102C5000A1EC10F0F2CFCAF6F29CF29EAA6A2B0EFB
:102C6000A96EA69CA69EA680A8500601CABDF28C9D
:102C7000CABFF28E0201CD6F0A0E0601DC6F0001A1
:102C8000A1EC10F0F2CFCAF6F29CF29EAA6A2C0ECA
:102C9000A96EA69CA69EA680A8500601CABDF28C6D
:102CA000CABFF28E0201CE6F0A0E0601DC6F000170
:102CB000A1EC10F0F2CFCAF6F29CF29EAA6A2D0E99
:102CC000A96EA69CA69EA680A8500601CABDF28C3D
:102CD000CABFF28E0201CF6F0A0E0601DC6F00013F
:102CE000A1EC10F0F2CFCAF6F29CF29EAA6A2E0E68
:102CF000A96EA69CA69EA680A8500601CABDF28C0D
:102D0000CABFF28E0101FD6F0A0E0601DC6F0001E1
:102D1000A1EC10F0F2CFCAF6F29CF29EAA6A2F0E36
:102D2000A96EA69CA69EA680A8500601CABDF28CDC
:102D3000CABFF28E0101FE6F0A0E0601DC6F0001B0
:102D4000A1EC10F00201736B73511D083CE3320ECD
:102D500073250601CA6FF2CFCBF6F29CF29EAA6AE7
:102D6000CAC6A9FFA69CA69EA680A850CBBDF28C81
:102D7000CBBFF28E73C2CCF6CD6F030ECF6F360E83
:102D8000CE6F0001A0EC12F073C2CBF6030E060169
:102D9000CD6F360ECC6F0001C1EC12F0000E01B009
:102DA000010E010B01080CE273C2CCF6010E060104
:102DB000CD6F030ECF6F360ECE6F0001A0EC12F078
:102DC0000201732BC1D7736B73511308D8A0E6D2DD
:102DD0007351080DF3500601CB6BCA6F020ECA2562
:102DE000E96E060ECB21EA6E02017351080DF35015
:102DF000640F0601CC6FF2CFCDF6F29CF29EAA6A68
:102E0000CCC6A9FFA69CA69EA680A850CDBDF28CDC
:102E1000CDBFF28EEF6E02017351080DF350060123
:102E2000CB6BCA6F010ECA25016E000ECB21036E5B
:102E30000150020FE96E060E0320EA6E0201735183
:102E4000080DF350650F0601CC6FF2CFCDF6F29C62
:102E5000F29EAA6ACCC6A9FFA69CA69EA680A850F0
:102E6000CDBDF28CCDBFF28EEF6E02017351080D15
:102E7000F3500601CB6BCA6F020ECA25016E000E1D
:102E8000CB21036E0150020FE96E060E0320EA6E9D
:102E900002017351080DF350660F0601CC6FF2CF9B
:102EA000CDF6F29CF29EAA6ACCC6A9FFA69CA69E6D
:102EB000A680A850CDBDF28CCDBFF28EEF6E020180
:102EC0007351080DF3500601CB6BCA6F030ECA2570
:102ED000016E000ECB21036E0150020FE96E060E4B
:102EE0000320EA6E02017351080DF350670F0601CB
:102EF000CC6FF2CFCDF6F29CF29EAA6ACCC6A9FFA7
:102F0000A69CA69EA680A850CDBDF28CCDBFF28E09
:102F1000EF6E02017351080DF3500601CB6BCA6FBF
:102F2000040ECA25016E000ECB21036E0150020F64
:102F3000E96E060E0320EA6E02017351080DF3508C
:102F4000680F0601CC6FF2CFCDF6F29CF29EAA6A12
:102F5000CCC6A9FFA69CA69EA680A850CDBDF28C8B
:102F6000CDBFF28EEF6E02017351080DF3500601D2
:102F7000CB6BCA6F050ECA25016E000ECB21036E06
:102F80000150020FE96E060E0320EA6E0201735132
:102F9000080DF350690F0601CC6FF2CFCDF6F29C0D
:102FA000F29EAA6ACCC6A9FFA69CA69EA680A8509F
:102FB000CDBDF28CCDBFF28EEF6E02017351080DC4
:102FC000F3500601CB6BCA6F060ECA25016E000EC8
:102FD000CB21036E0150020FE96E060E0320EA6E4C
:102FE00002017351080DF3506A0F0601CC6FF2CF46
:102FF000CDF6F29CF29EAA6ACCC6A9FFA69CA69E1C
:10300000A680A850CDBDF28CCDBFF28EEF6E02012E
:103010007351080DF3500601CB6BCA6F070ECA251A
:10302000016E000ECB21036E0150020FE96E060EF9
:103030000320EA6E02017351080DF3506B0F060175
:10304000CC6FF2CFCDF6F29CF29EAA6ACCC6A9FF55
:10305000A69CA69EA680A850CDBDF28CCDBFF28EB8
:10306000EF6E02017351080DF3500601CB6BCA6F6E
:10307000020ECA25E96E060ECB21EA6EEF508A08D1
:1030800010E302017351080DF3500601CB6BCA6FB8
:10309000020ECA25E96E060ECB21EA6EEF506D08CE
:1030A0000FE302017351080DF3500601CB6BCA6F99
:1030B000020ECA25E96E060ECB21EA6E790EEF6E7E
:1030C00002017351080DF3500601CB6BCA6F010E5C
:1030D000CA25016E000ECB21036E0150020FE96E6E
:1030E000060E0320EA6EEF50630815E302017351E8
:1030F000080DF3500601CB6BCA6F010ECA25016E95
:10310000000ECB21036E0150020FE96E060E032064
:10311000EA6EEF5215E102017351080DF3500601FA
:10312000CB6BCA6F010ECA25016E000ECB21036E58
:103130000150020FE96E060E0320EA6E030EEF6ED9
:1031400002017351080DF3500601CB6BCA6F030ED9
:10315000CA25016E000ECB21036E0150020FE96EED
:10316000060E0320EA6EEF50630815E30201735167
:10317000080DF3500601CB6BCA6F030ECA25016E12
:10318000000ECB21036E0150020FE96E060E0320E4
:10319000EA6EEF5215E102017351080DF35006017A
:1031A000CB6BCA6F030ECA25016E000ECB21036ED6
:1031B0000150020FE96E060E0320EA6E010EEF6E5B
:1031C00002017351080DF3500601CB6BCA6F020E5A
:1031D000CA25016E000ECB21036E0150020FE96E6D
:1031E000060E0320EA6EEF503B0814E20201735111
:1031F000080DF3500601CB6BCA6F020ECA25016E93
:10320000000ECB21036E0150020FE96E060E032063
:10321000EA6EEF6A02017351080DF3500601CB6BA1
:10322000CA6F040ECA25016E000ECB21036E015039
:10323000020FE96E060E0320EA6EEF503B0814E21F
:1032400002017351080DF3500601CB6BCA6F040ED7
:10325000CA25016E000ECB21036E0150020FE96EEC
:10326000060E0320EA6EEF6A02017351080DF35057
:103270000601CB6BCA6F050ECA25016E000ECB216D
:10328000036E0150020FE96E060E0320EA6EEF5046
:103290000F0815E202017351080DF3500601CB6BC4
:1032A000CA6F050ECA25016E000ECB21036E0150B8
:1032B000020FE96E060E0320EA6E040EEF6E0201A5
:1032C0007351080DF3500601CB6BCA6F060ECA2569
:1032D000016E000ECB21036E0150020FE96E060E47
:1032E0000320EA6EEF50640816E302017351080DE3
:1032F000F3500601CB6BCA6F060ECA25016E000E95
:10330000CB21036E0150020FE96E060E0320EA6E18
:10331000EF50090815E302017351080DF35006013F
:10332000CB6BCA6F060ECA25016E000ECB21036E51
:103330000150020FE96E060E0320EA6E190EEF6EC1
:1033400002017351080DF3500601CB6BCA6F070ED3
:10335000CA25016E000ECB21036E0150020FE96EEB
:10336000060E0320EA6EEF50060815E202017351C3
:10337000080DF3500601CB6BCA6F070ECA25016E0C
:10338000000ECB21036E0150020FE96E060E0320E2
:10339000EA6E060EEF6E0201732B16D5736B735136
:1033A00009086DE3C96BC951030867E37351040D44
:1033B000F3500601CB6BCA6F036A0201C9510601C3
:1033C000CA25016ECB5103220150A20FE96E060EF1
:1033D0000320EA6E2C0E0201C9250601CC6F010EF6
:1033E000CD6FD8B0CD2B02017351040DF3500601FF
:1033F000CC27000ECD23F2CFCEF6F29CF29ECDC6A6
:10340000AAFFCCC6A9FFA69CA69EA680A850CEBDAA
:10341000F28CCEBFF28EEF6E02017351040DF350A9
:103420000601CB6BCA6F036A0201C9510601CA25A6
:10343000016ECB5103220150A20FE96E060E03204C
:10344000EA6EEF50090816E202017351040DF350C1
:103450000601CB6BCA6F036A0201C9510601CA2576
:10346000016ECB5103220150A20FE96E060E03201C
:10347000EA6EEF6A0201C92B96D7732B90D706012B
:10348000D56BBBC2D4F6010ED76F400ED66F0001CC
:10349000DAEC12F002C003F00150020F0601CA6F0D
:1034A000000E0220CB6FD06FCAC6CFF600015BECD6
:1034B00013F001C031F3030131511F0802E2010E84
:1034C000316F0601D56BBBC2D4F6010ED76F400E2B
:1034D000D66F0001DAEC12F002C003F00150030FC6
:1034E0000601CA6F000E0220CB6FD06FCAC6CFF69E
:1034F00000015BEC13F001C032F3030132510C0800
:1035000002E2010E326F0601D56BBBC2D4F6010E8A
:10351000D76F400ED66F0001DAEC12F002C003F054
:103520000150040F0601CA6F000E0220CB6FD06F4E
:10353000CAC6CFF600015BEC13F001C033F3030100
:103540003351630802E2130E336F0601D56BBBC221
:10355000D4F6010ED76F400ED66F0001DAEC12F0F0
:1035600002C003F00150010F0601CA6F000E0220D5
:10357000CB6FD06FCAC6CFF600015BEC13F001C071
:1035800035F303013551140802E2010E356F0601CF
:10359000D56BBBC2D4F6010ED76F400ED66F0001BB
:1035A000DAEC12F002C0CBF601C0CAF602C0D0F6C7
:1035B00001C0CFF65BEC13F001C034F303013451CA
:1035C0000A0802E2010E346F0201736B73510608A0
:1035D000D8A0A1D2036A73511C0F016E030E0322FF
:1035E00001C0CAF6060103C0CBF6D56BBBC2D4F648
:1035F000010ED76F400ED66F0001DAEC12F002C058
:10360000CDF601C0CCF60B0E0601CC27000ECD2363
:1036100002017351BA25090DF3500601CC27000EA3
:10362000CD23CDC6D0F6CCC6CFF600015BEC13F0AF
:10363000CBC6EAFFCAC6E9FF01C0EFFF036A020179
:1036400073511C0FE96E030E0320EA6EEF50180849
:1036500008E2036A73511C0FE96E030E0320EA6E41
:10366000EF6A036A7351230F016E030E032201C038
:10367000CAF6060103C0CBF6D56BBBC2D4F6010E69
:10368000D76F400ED66F0001DAEC12F002C0CDF613
:1036900001C0CCF60C0E0601CC27000ECD23020192
:1036A0007351BA25090DF3500601CC27000ECD2326
:1036B000CDC6D0F6CCC6CFF600015BEC13F0CBC67E
:1036C000EAFFCAC6E9FF01C0EFFF036A02017351B6
:1036D000230FE96E030E0320EA6EEF503B0808E269
:1036E000036A7351230FE96E030E0320EA6EEF6A3B
:1036F0007351040DF350036AE40F016E020E0322AE
:1037000001C0CAF6060103C0CBF6D56BBBC2D4F626
:10371000010ED76F400ED66F0001DAEC12F002C036
:10372000CDF601C0CCF6050E0601CC27000ECD2348
:1037300002017351BA25090DF3500601CC27000E82
:10374000CD23CDC6D0F6CCC6CFF600015BEC13F08E
:1037500001C0CCF60601D56BBBC2D4F6010ED76F03
:10376000400ED66F0001DAEC12F002C0CEF601C0B6
:10377000CDF6060E0601CD27000ECE2302017351B1
:10378000BA25090DF3500601CD27000ECE23CEC673
:10379000D0F6CDC6CFF600015BEC13F001C0CDF63C
:1037A00001C0CEF6AFEC13F000C0CDF601C0CEF6EE
:1037B00002C0CFF603C0D0F60601DD6BCCC6DCF646
:1037C000000186EC10F0EACFD2F6E9CFD1F6D8921C
:1037D00003C0DFF602C0DEF601C0DDF600C0DCF695
:1037E000D0C6E3F6CFC6E2F6CEC6E1F6CDC6E0F629
:1037F00064EC11F0D2C6EAFFD1C6E9FFCBC6EAFFFE
:10380000CAC6E9FF00C0EFFF01C0ECFF02C0ECFF39
:1038100003C0ECFF02017351040DF350036AE40F7F
:10382000E96E020E0320EA6EEFCFCAF6ECCFCBF6BC
:10383000ECCFCCF6ECCFCDF60601D16BD06B480EB9
:10384000CF6F860ECE6FCDC6D5F6CCC6D4F6CBC61E
:10385000D3F6CAC6D2F60001CFEC13F00FE3020193
:103860007351040DF350036AE40FE96E020E032056
:10387000EA6EEF6AEC6AEC6AEC6A0001D890020129
:103880007335036A016E030E032601C0CAF60601F2
:1038900003C0CBF6D56BBBC2D4F6010ED76F400E7A
:1038A000D66F0001DAEC12F002C0CDF601C0CCF602
:1038B000070E0601CC27000ECD2302017351BA2555
:1038C000090DF3500601CC27000ECD23CDC6D0F64E
:1038D000CCC6CFF600015BEC13F001C0CCF60601BC
:1038E000D56BBBC2D4F6010ED76F400ED66F000168
:1038F000DAEC12F002C0CEF601C0CDF6080E0601D9
:10390000CD27000ECE2302017351BA25090DF350C5
:103910000601CD27000ECE23CEC6D0F6CDC6CFF6FB
:1039200000015BEC13F0CBC6EAFFCAC6E9FFCCC6C8
:10393000ECFFED5201C0EFFFD89002017335036A2E
:10394000E96E030E0324EA6EECCFCBF6ED52EFCF17
:10395000CAF60601CB51000811E2FF0A03E1CA5181
:10396000F4080CE2D89002017335036AE96E030E85
:103970000324EA6EEC6AED52EF6A0601D890020168
:103980007335036A0E0F016E030E032201C0CAF6DF
:10399000060103C0CBF6D56BBBC2D4F6010ED76FC0
:1039A000400ED66F0001DAEC12F002C0CDF601C075
:1039B000CCF6090E0601CC27000ECD23020173516F
:1039C000BA25090DF3500601CC27000ECD23CDC634
:1039D000D0F6CCC6CFF600015BEC13F001C0CCF6FC
:1039E0000601D56BBBC2D4F6010ED76F400ED66F61
:1039F0000001DAEC12F002C0CEF601C0CDF60A0EDC
:103A00000601CD27000ECE2302017351BA25090D00
:103A1000F3500601CD27000ECE23CEC6D0F6CDC67C
:103A2000CFF600015BEC13F0CBC6EAFFCAC6E9FF94
:103A3000CCC6ECFFED5201C0EFFFD8900201733508
:103A4000036A0E0FE96E030E0320EA6EECCFCBF68D
:103A5000ED52EFCFCAF60601CB51000812E2FF0A81
:103A600003E1CA51F4080DE2D89002017335036AEC
:103A70000E0FE96E030E0320EA6EEC6AED52EF6A58
:103A80000601036A020173512A0F016E030E03221D
:103A900001C0CAF6060103C0CBF6D56BBBC2D4F693
:103AA000010ED76F400ED66F0001DAEC12F002C0A3
:103AB000CDF601C0CCF60D0E0601CC27000ECD23AD
:103AC00002017351BA25090DF3500601CC27000EEF
:103AD000CD23CDC6D0F6CCC6CFF600015BEC13F0FB
:103AE000CBC6EAFFCAC6E9FF01C0EFFF036A0201C5
:103AF00073512A0FE96E030E0320EA6EEF500A0895
:103B000008E2036A73512A0FE96E030E0320EA6E7E
:103B1000EF6A732B5BD5000121EF3FF00601D46BF8
:103B2000D45107080DE3D890D33302E28B9201D031
:103B30008B82949294908B8094908B90D42BF0D71E
:103B40000001000C94948B84D1C6D3F6E7DFD2C673
:103B5000D3F6E4DF94948B94000C94948B84CEC6BB
:103B6000D3F6DCDF9482100E006E002EFED700002C
:103B70000601CF6BCF51070815E3948282B202D0C1
:103B8000D89001D0D880D03394908B80210E006ED5
:103B9000002EFED794908B90210E006E002EFED743
:103BA000CF2BE8D794948B94D0C601F00001000C81
:103BB00094948B94210E006E002EFED794908B90DF
:103BC0008E0E0601D16FD26B0001BCDF900E060194
:103BD000D16FA40ED26F0001B5DF810E0601CE6F4A
:103BE0000001BBDF01C0CAF60601CA51800B06E026
:103BF000800ED16FD26B0001A5DF0601000123EF1B
:103C00003FF0006A016A0601CA51D890CBB1002684
:103C100000320132CBB3002600320132CBB5002690
:103C200000320132CBB7002600320132CBB9002678
:103C300000320132CBBB002600320132CBBD002660
:103C400000320132CBBF0026003201320001000CED
:103C50000601D16BD06B200ECF6F830ECE6F22C2C8
:103C6000D5F621C2D4F620C2D3F61FC2D2F6000187
:103C7000CFEC13F024E30201226B216B700E206F56
:103C8000820E1F6FAA6A140EA96E0F0EA86EA69C54
:103C9000A69EA684F250006EF29CF29E0F01550E75
:103CA000A76EAA0EA76EA682A6B2FED7A694005053
:103CB000F2120A0E0601DC6F0001A1EC10F0030104
:103CC000585114081EE2586BAA6A150EA96EA86A0C
:103CD000A69CA69EA684F250006EF29CF29E0F0156
:103CE000550EA76EAA0EA76EA682A6B2FED7A69400
:103CF0000050F2120A0E0601DC6F0001A1EC10F078
:103D00000301595114081DE2596BAA6A160EA96ED7
:103D1000A86AA69CA69EA684F250006EF29CF29E13
:103D20000F01550EA76EAA0EA76EA682A6B2FED7E9
:103D3000A6940050F2120A0E0601DC6F0001A1ECFD
:103D400010F00401BC5114081EE2BC6BAA6A170EE5
:103D5000A96EA86AA69CA69EA684F250006EF29C4C
:103D6000F29E0F01550EA76EAA0EA76EA682A6B2EE
:103D7000FED7A6940050F2120A0E0601DC6F000175
:103D8000A1EC10F00401BD5114081DE2BD6BAA6A3C
:103D9000180EA96EA86AA69CA69EA684F250006E74
:103DA000F29CF29E0F01550EA76EAA0EA76EA68278
:103DB000A6B2FED7A6940050F2120A0E0601DC6FDE
:103DC0000001A1EC10F00101F75150081FE2280E8C
:103DD000F76FAA6A190EA96E280EA86EA69CA69E59
:103DE000A684F250006EF29CF29E0F01550EA76E53
:103DF000AA0EA76EA682A6B2FED7A6940050F21213
:103E00000A0E0601DC6F0001A1EC10F00601D16B77
:103E1000D06B200ECF6F820ECE6F0AC2D5F609C2CC
:103E2000D4F608C2D3F607C2D2F60001CFEC13F0E5
:103E300024E302010A6B096B200E086F820E076FE4
:103E4000AA6A1A0EA96E0A0EA86EA69CA69EA68441
:103E5000F250006EF29CF29E0F01550EA76EAA0E54
:103E6000A76EA682A6B2FED7A6940050F2120A0E42
:103E70000601DC6F0001A1EC10F00601D16BD06BE4
:103E8000CF6B800ECE6F4DC3D5F64CC3D4F64BC36B
:103E9000D3F64AC3D2F60001CFEC13F03FE303019F
:103EA0004D6B4C6B4B6B7E0E4A6FAA6A1C0EA96E53
:103EB000A86AA69CA69EA684F250006EF29CF29E72
:103EC0000F01550EA76EAA0EA76EA682A6B2FED748
:103ED000A6940050F2120A0E0601DC6F0001A1EC5C
:103EE00010F0AA6A1B0EA96E050EA86EA69CA69ECF
:103EF000A684F250006EF29CF29E0F01550EA76E42
:103F0000AA0EA76EA682A6B2FED7A6940050F21201
:103F10000A0E0601DC6F0001A1EC10F00601D16B66
:103F2000D06BCF6B800ECE6FB1C4D5F6B0C4D4F6D3
:103F3000AFC4D3F6AEC4D2F60001CFEC13F03FE32A
:103F40000401B16BB06BAF6B7E0EAE6FAA6A1E0E32
:103F5000A96EA86AA69CA69EA684F250006EF29C4A
:103F6000F29E0F01550EA76EAA0EA76EA682A6B2EC
:103F7000FED7A6940050F2120A0E0601DC6F000173
:103F8000A1EC10F0AA6A1D0EA96E050EA86EA69CE3
:103F9000A69EA684F250006EF29CF29E0F01550E72
:103FA000A76EAA0EA76EA682A6B2FED7A694005050
:103FB000F2120A0E0601DC6F0001A1EC10F0020102
:103FC000BD51640820E2450EBD6FAA6A1F0EA96E9E
:103FD000450EA86EA69CA69EA684F250006EF29C8A
:103FE000F29E0F01550EA76EAA0EA76EA682A6B26C
:103FF000FED7A6940050F2120A0E0601DC6F0001F3
:10400000A1EC10F002017751640820E2550E776FA1
:10401000AA6A200EA96E550EA86EA69CA69EA6841E
:10402000F250006EF29CF29E0F01550EA76EAA0E82
:10403000A76EA682A6B2FED7A6940050F2120A0E70
:104040000601DC6F0001A1EC10F002019651E908B5
:1040500040E2FF0A03E1955160083BE2966B956BE5
:10406000AA6A250EA96EA86AA69CA69EA684F250EE
:10407000006EF29CF29E0F01550EA76EAA0EA76E5F
:10408000A682A6B2FED7A6940050F2120A0E06012E
:10409000DC6F0001A1EC10F0AA6A260EA96EA86AD6
:1040A000A69CA69EA684F250006EF29CF29E0F0182
:1040B000550EA76EAA0EA76EA682A6B2FED7A6942C
:1040C0000050F2120A0E0601DC6F0001A1EC10F0A4
:1040D0000201CE510A080AE1CCC2CAF6FF0E06015F
:1040E000CB6F00018EDD01C0CCF20201CF510A0876
:1040F00009E1CDC2CAF6FF0E0601CB6F000181DDDA
:1041000001C0CDF20101FD5101081FE2FD6BAA6A59
:104110002E0EA96EA86AA69CA69EA684F250006EDA
:10412000F29CF29E0F01550EA76EAA0EA76EA682F4
:10413000A6B2FED7A6940050F2120A0E0601DC6F5A
:104140000001A1EC10F0FB950101FE5101081FE2F6
:10415000FE6BAA6A2F0EA96EA86AA69CA69EA684CC
:10416000F250006EF29CF29E0F01550EA76EAA0E41
:10417000A76EA682A6B2FED7A6940050F2120A0E2F
:104180000601DC6F0001A1EC10F0FB970101FD2D91
:1041900003D00001FB850101FD5303E10001FB9504
:1041A0000101FE2D03D00001FB870101FE5303E155
:1041B0000001FB97010100012BEF3FF00900F552D0
:1041C00011E0F6CFCBF6F7CFCCF6F8CFCDF6F55021
:1041D0009EA8FED7AD6ECBC6F6FFCCC6F7FFCDC608
:1041E000F8FFECD7000C9EA8FED7AD6E000C100EA9
:1041F000006E002EFED70000FF0EF5DF100E006EE1
:10420000002EFED70000FF0EEEDF100E006E002E17
:10421000FED70000FF0EE7DF100E006E002EFED767
:104220000000000C0201696B0001000C0601D03592
:10423000006E0036FC0E001600C001F0C250C30B29
:104240000010C26E010EDC6F0001A1EC10F0C28202
:10425000C2B2FED7C4CFDDF6C3CFDCF6000186ECD8
:1042600010F003C0D4F602C0D3F601C0D2F600C0ED
:10427000D1F6D1C600F0D2C601F0D3C602F0D4C642
:1042800003F0000C0601E051D8B471D0006EE45187
:10429000D8B46DD0002604E3810E002668E204D075
:1042A0007F0E005E64E363E0E1C6E8F6E551E81BDB
:1042B000E18FE58FE351E703F4CFEAF6E251E6033D
:1042C000F4CF03F0F3CFE9F6E703F350EA27F45015
:1042D000E923000E0322E351E603F350EA27F450EA
:1042E000E923000E026A03220222E151E703F350A0
:1042F000E927F4500322000E0222E151E603F350B5
:104300000326F4500222000E016A0122E351E50364
:10431000F350E927F4500322000E02220122E25159
:10432000E503F3500326F4500222000E0122E1516E
:10433000E503F3500226F4500122002A01BE05D005
:10434000E9370336023601360006000EE9AF0AD01F
:10435000032A02220122015005E1025003E1035029
:1043600001E1002AE8BF018EE8AF019E04D0006A97
:10437000016A026A036A0001000C0201166B156BE8
:10438000146B136B0601D56BCCC6D4F6010ED76F38
:10439000640ED66F0001DAEC12F001C0CEF6080E02
:1043A00006010124016E000E0220036E01503A0F37
:1043B000016E030E032201C0CEF603C0CFF6CCC6B9
:1043C000D0F6000133DFCFC6EAFFCEC6E9FF00C05A
:1043D000EFFF01C0ECFF02C0ECFF03C0ECFF0601E1
:1043E000D56BCCC6D4F6010ED76F640ED66F000124
:1043F000DAEC12F001C0CEF6080E06010124016EBF
:10440000000E0220036E01503A0F016E030E0322CC
:1044100001C0CEF603C0CFF6D56BCCC6D4F6010EE4
:10442000D76F640ED66F0001DAEC12F001C0D0F63F
:10443000080E06010124016E000E0220036E0150D9
:104440003A0FE96E030E0320EA6EEFCFD0F6ECCF01
:10445000D1F6ECCFD2F6ECCFD3F6D56BCCC6D4F6F2
:10446000010ED76F640ED66F0001DAEC12F002C0B5
:10447000D5F601C0D4F6600E06010124016E010ECE
:104480000220036E01503A0FE96E030E0320EA6E1C
:10449000EFCF00F0ECCF01F0ECCF02F0ECCF03F067
:1044A000D3C6D9F6D2C6D8F6D1C6D7F6D0C6D6F678
:1044B00003C0DDF602C0DCF601C0DBF600C0DAF6B0
:1044C0000001B5EC10F0CFC6EAFFCEC6E9FF00C090
:1044D000EFFF01C0ECFF02C0ECFF03C0ECFF0601E0
:1044E000D56BCCC6D4F6010ED76F640ED66F000123
:1044F000DAEC12F001C0CEF6080E06010124016EBE
:10450000000E0220036E01503A0F016E030E0322CB
:1045100001C0CEF603C0CFF6D56BCCC6D4F6010EE3
:10452000D76F640ED66F0001DAEC12F001C0D0F63E
:10453000080E06010124016E000E0220036E0150D8
:104540003A0FE96E030E0320EA6EEFCFD0F6ECCF00
:10455000D1F6ECCFD2F6ECCFD3F6EACFD5F6E9CF51
:10456000D4F6D892D3C6DFF6D2C6DEF6D1C6DDF6D3
:10457000D0C6DCF6AE0EE36F470EE26F6D0EE16F54
:10458000820EE06F000164EC11F0D5C6EAFFD4C6DC
:10459000E9FFCFC6EAFFCEC6E9FF00C0EFFF01C0CA
:1045A000ECFF02C0ECFF03C0ECFF0601D56BCCC6EC
:1045B000D4F6010ED76F640ED66F0001DAEC12F05C
:1045C00001C0CEF60C0E06010124016E000E022081
:1045D000036E01503A0F016E030E032201C0CEF6A6
:1045E00003C0CFF6D56BCCC6D4F6010ED76F640EE0
:1045F000D66F0001DAEC12F002C0D1F601C0D0F69D
:10460000080E06010124016E000E0220036E015007
:104610003A0FE96E030E0320EA6EEFCF00F0ECCF05
:1046200001F0ECCF02F0ECCF03F0D96BC00ED86FE5
:104630007F0ED76F880ED66F03C0DDF602C0DCF6A2
:1046400001C0DBF600C0DAF60001B5EC10F000C0E6
:10465000D0F601C0D1F602C0D2F603C0D3F6EACF3D
:10466000D5F6E9CFD4F6D88203C0DFF602C0DEF675
:1046700001C0DDF600C0DCF60601E36BE26BE16B26
:104680007F0EE06F000164EC11F0D5C6EAFFD4C6DE
:10469000E9FFDCC1D9F6DBC1D8F6DAC1D7F6D9C15A
:1046A000D6F603C0DDF602C0DCF601C0DBF600C0C2
:1046B000DAF6B5EC10F0CFC6EAFFCEC6E9FF00C0CF
:1046C000EFFF01C0ECFF02C0ECFF03C0ECFF0601EE
:1046D000D56BCCC6D4F6010ED76F640ED66F000131
:1046E000DAEC12F002C0CFF601C0CEF6140E0601CD
:1046F0000124016E000E0220036E01503A0FE96E94
:10470000030E0320EA6EEFCFCEF6010ECD5DCE5D37
:104710001BE01AE3D56BCCC6D4F6010ED76F640E3E
:10472000D66F0001DAEC12F001C0CEF6140E0601CD
:104730000124016E000E0220036E01503A0FE96E53
:10474000030E0320EA6EEF6AD56BCCC6D4F6010ED9
:10475000D76F640ED66F0001DAEC12F002C0CFF60C
:1047600001C0CEF6200E0601CE27000ECF23D56B5A
:10477000CCC6D4F6010ED76F640ED66F0001DAEC0A
:1047800012F002C0D1F601C0D0F6140E06010124C9
:10479000016E000E0220036E01503A0FE96E030E07
:1047A0000320EA6ED56BEFCFD4F6D76B040ED66F2D
:1047B0000001DAEC12F002C003F001500601CE2530
:1047C000016ECF51032201503A0F016E030E0322F6
:1047D00001C0CEF603C0CFF6D56BCCC6D4F6010E21
:1047E000D76F640ED66F0001DAEC12F002C0D1F67A
:1047F00001C0D0F60C0E06010124016E000E02204D
:10480000036E01503A0FE96E030E0320EA6EEFCFFC
:1048100000F0ECCF01F0ECCF02F0ECCF03F0CFC60C
:10482000EAFFCEC6E9FF00C0EFFF01C0ECFF02C007
:10483000ECFF03C0ECFFD56BCCC6D4F6010ED76FEE
:10484000640ED66F0001DAEC12F001C0CEF6140E41
:1048500006010124016E000E0220036E01503A0F82
:10486000E96E030E0320EA6EEF2AD56BCCC6D4F6B0
:10487000010ED76F640ED66F0001DAEC12F002C0A1
:10488000CFF601C0CEF6150E06010124016E000E12
:104890000220036E01503A0FE96E030E0320EA6E08
:1048A000EF6AD56BCCC6D4F6010ED76F640ED66F07
:1048B0000001DAEC12F002C0CFF601C0CEF6150E00
:1048C00006010124016E000E0220036E01503A0F12
:1048D000E96E030E0320EA6ECD51EF5CD8B08FD0A5
:1048E000D56BCCC6D4F6010ED76F640ED66F00011F
:1048F000DAEC12F002C0CFF601C0CEF6200E0601AF
:10490000CE27000ECF23D56BCCC6D4F6010ED76FC1
:10491000640ED66F0001DAEC12F002C0D1F601C0CD
:10492000D0F6150E06010124016E000E0220036E62
:1049300001503A0FE96E030E0320EA6ED56BEFCFFC
:10494000D4F6D76B040ED66F0001DAEC12F002C079
:1049500003F001500601CE25016ECF510322015014
:104960003A0FE96E030E0320EA6EEFCF00F0ECCFB2
:1049700001F0ECCF02F0ECCF03F0EACFCFF6E9CFB5
:10498000CEF6D89216C2DFF615C2DEF614C2DDF6F8
:1049900013C2DCF603C0E3F602C0E2F601C0E1F6A2
:1049A00000C0E0F6000164EC11F0CFC6EAFFCEC60D
:1049B000E9FF03C016F202C015F201C014F200C0F4
:1049C00013F20601D56BCCC6D4F6010ED76F640E78
:1049D000D66F0001DAEC12F002C0CFF601C0CEF6BD
:1049E000150E06010124016E000E0220036E015017
:1049F0003A0FE96E030E0320EA6EEF2A52D7DD6B01
:104A0000CDC6DCF6000186EC10F016C2D9F615C250
:104A1000D8F614C2D7F613C2D6F603C0DDF602C02C
:104A2000DCF601C0DBF600C0DAF6B5EC10F003C02E
:104A300016F202C015F201C014F200C013F216C241
:104A4000E3F615C2E2F614C2E1F613C2E0F616C2AE
:104A5000E7F615C2E6F614C2E5F613C2E4F612DC78
:104A600000C0CEF601C0CFF602C0D0F603C0D1F62A
:104A700003C0E3F602C0E2F601C0E1F600C0E0F6D2
:104A800046C2E7F645C2E6F644C2E5F643C2E4F69E
:104A900042EC21F000C0CEF601C0CFF602C0D0F645
:104AA00003C0D1F616C2E3F615C2E2F614C2E1F66F
:104AB00013C2E0F64AC2E7F649C2E6F648C2E5F696
:104AC00047C2E4F642EC21F0D892D1C6DFF6D0C658
:104AD000DEF6CFC6DDF6CEC6DCF603C0E3F602C0D6
:104AE000E2F601C0E1F600C0E0F664EC11F000C0AF
:104AF000CEF601C0CFF602C0D0F603C0D1F6D892F0
:104B000003C0DFF602C0DEF601C0DDF600C0DCF651
:104B10004EC2E3F64DC2E2F64CC2E1F64BC2E0F6FD
:104B200064EC11F003C01AF202C019F201C018F2CD
:104B300000C017F20601D56BCCC6D4F6010ED76FB4
:104B4000640ED66F0001DAEC12F002C0CFF601C09D
:104B5000CEF61E0E06010124016E000E0220036E29
:104B600001503A0FE96E030E0320EA6EEF50DD6B41
:104B7000DC6F000186EC10F000C0CEF601C0CFF66D
:104B800002C0D0F603C0D1F60601D56BCCC6D4F670
:104B9000010ED76F640ED66F0001DAEC12F002C07E
:104BA000D3F601C0D2F61F0E06010124016E000EDD
:104BB0000220036E01503A0FE96E030E0320EA6EE5
:104BC000EF50DD6BDC6F000186EC10F0EACFD3F61E
:104BD000E9CFD2F6D882D1C6DFF6D0C6DEF6CFC690
:104BE000DDF6CEC6DCF603C0E3F602C0E2F601C095
:104BF000E1F600C0E0F664EC11F0D3C6EAFFD2C6DD
:104C0000E9FFEACFCFF6E9CFCEF6D8921AC2DFF6A7
:104C100019C2DEF618C2DDF617C2DCF603C0E3F6F1
:104C200002C0E2F601C0E1F600C0E0F664EC11F06B
:104C3000CFC6EAFFCEC6E9FF03C01AF202C019F2DE
:104C400001C018F200C017F217C200F018C201F03C
:104C500019C202F01AC203F0000C0101F06BEF6BF5
:104C6000EE6BED6B050E0601D06F000116EC21F026
:104C700003C02EF202C02DF201C02CF200C02BF2B4
:104C80002EC2D9F62DC2D8F62CC2D7F62BC2D6F634
:104C90000601DD6BC00EDC6F7F0EDB6F880EDA6FF6
:104CA0000001B5EC10F000C0CDF601C0CEF602C098
:104CB000CFF603C0D0F6D88203C0DFF602C0DEF61E
:104CC00001C0DDF600C0DCF60A0E0601E36FD70E68
:104CD000E26F230EE16F7A0EE06F000164EC11F0D9
:104CE00000C0CDF601C0CEF602C0CFF603C0D0F6AC
:104CF00003C0D9F602C0D8F601C0D7F600C0D6F678
:104D0000D8C1DDF6D7C1DCF6D6C1DBF6D5C1DAF6FF
:104D1000B5EC10F003C032F202C031F201C030F243
:104D200000C02FF232C2D1F631C2D0F630C2CFF677
:104D30002FC2CEF60601D56BD46BD36BD26B0001BC
:104D4000CFEC13F005E30201326B316B306B2F6B4C
:104D5000010E0601CC5D0201A35D02E001E3A36B3D
:104D6000A351040DF350036A290FE96E010E0320CD
:104D7000EA6E2FC2EFFF30C2ECFF31C2ECFF32C24D
:104D8000ECFFA32BA46B010E0601CC5D0201A45D18
:104D900001E038E2A451040DF350036A290FE96ED3
:104DA000010E0320EA6EEFCF00F0ECCF01F0ECCF64
:104DB00002F0ECCF03F0EACFCEF6E9CFCDF6D892F1
:104DC000F0C1DFF6EFC1DEF6EEC1DDF6EDC1DCF6D7
:104DD00003C0E3F602C0E2F601C0E1F600C0E0F66F
:104DE000000164EC11F0CEC6EAFFCDC6E9FF03C0B6
:104DF000F0F102C0EFF101C0EEF100C0EDF10201EF
:104E0000A42BC1D70601DD6BCCC6DCF6000186EC15
:104E100010F0F0C1D9F6EFC1D8F6EEC1D7F6EDC16A
:104E2000D6F603C0DDF602C0DCF601C0DBF600C03A
:104E3000DAF6B5EC10F003C0F0F102C0EFF101C0FA
:104E4000EEF100C0EDF1EDC100F0EEC101F0EFC1F7
:104E500002F0F0C103F0000C8E0E006E0601DC5172
:104E6000005EDDC602F0DEC601F0028E005209E0EF
:104E7000D890025202E1015204E002320132002EC7
:104E8000F7D7DDAF05D0011E021E012AD8B4022AD1
:104E90000001000C0101F46BF36BF26BF16B040E7B
:104EA0000601D06F000116EC21F003C036F202C0FB
:104EB00035F201C034F200C033F236C2D9F635C241
:104EC000D8F634C2D7F633C2D6F60601DD6BC00E73
:104ED000DC6F7F0EDB6F880EDA6F0001B5EC10F02F
:104EE00000C0CDF601C0CEF602C0CFF603C0D0F6AA
:104EF000D88203C0DFF602C0DEF601C0DDF600C0D6
:104F0000DCF60A0E0601E36FD70EE26F230EE16FA7
:104F10007A0EE06F000164EC11F000C0CDF601C024
:104F2000CEF602C0CFF603C0D0F603C0D9F602C059
:104F3000D8F601C0D7F600C0D6F6D8C1DDF6D7C185
:104F4000DCF6D6C1DBF6D5C1DAF6B5EC10F003C05D
:104F50003AF202C039F201C038F200C037F23AC268
:104F6000D1F639C2D0F638C2CFF637C2CEF6060136
:104F7000D56BD46BD36BD26B0001CFEC13F005E390
:104F800002013A6B396B386B376B010E0601CC5D51
:104F90000201A55D02E001E3A56BA551040DF350EC
:104FA000036A790FE96E010E0320EA6E37C2EFFF44
:104FB00038C2ECFF39C2ECFF3AC2ECFFA52BA66B5E
:104FC000010E0601CC5D0201A65D01E038E2A651AA
:104FD000040DF350036A790FE96E010E0320EA6EA7
:104FE000EFCF00F0ECCF01F0ECCF02F0ECCF03F00C
:104FF000EACFCEF6E9CFCDF6D892F4C1DFF6F3C111
:10500000DEF6F2C1DDF6F1C1DCF603C0E3F602C064
:10501000E2F601C0E1F600C0E0F6000164EC11F038
:10502000CEC6EAFFCDC6E9FF03C0F4F102C0F3F13A
:1050300001C0F2F100C0F1F10201A62BC1D70601B7
:10504000DD6BCCC6DCF6000186EC10F0F4C1D9F6BD
:10505000F3C1D8F6F2C1D7F6F1C1D6F603C0DDF63A
:1050600002C0DCF601C0DBF600C0DAF6B5EC10F0E9
:1050700003C0F4F102C0F3F101C0F2F100C0F1F19C
:10508000F1C100F0F2C101F0F3C102F0F4C103F08C
:10509000000CFC830F0E0201BD25925329E1915DA6
:1050A00001E026E20A0EBD5D925303E1915D20E02E
:1050B0001FE30001F891F983F995938281B211D031
:1050C0000101005305E10001FF51090807E2010158
:1050D0000001F88DFB95FB9F309C02D0308CFB8F3C
:1050E00006D0F88DFC9DFB95FB9F309CFC95020142
:1050F00030880101048F0001CDEF3FF0FC930101E6
:10510000006B0001FF6B30B409D0F89DFC8D9382D9
:1051100081B202D0F88101D0F89106D0938281A2A9
:1051200003D0F88DFC9DFB993088F993F995010126
:10513000048F0001D0EF3FF0FC910101026B016B85
:1051400030B60AD00001F89FFC8B30A202D0308E1E
:1051500001D0309E07D0010130B205D00001F88F98
:10516000FC9BFB9B01010001F995F993308801013B
:10517000048F0001000CFC810F0E0201BD2592532B
:1051800027E1915D01E024E20A0EBD5D925303E147
:10519000915D1EE01DE3309E0001F985F99330A278
:1051A00011D00101025303E10151090807E2000196
:1051B000F88FFB97FB9D309C04D00101308C0001DF
:1051C000FB8D05D0F88FFC9BFB97FB9D309C02016B
:1051D00030880101048F0001000CFBAB01D0ACDF73
:1051E0000101FC51050804E10001FB8B40D00101E5
:1051F000FC510A080BE10001FB9B30B204D030B037
:1052000002D0B9DF01D098DF32D00101FC510F0884
:1052100027E10001FB9B0601DD6B77C2DCF6000194
:1052200086EC10F03EC2D1F63DC2D0F63CC2CFF6BD
:105230003BC2CEF603C0D5F602C0D4F601C0D3F609
:1052400000C0D2F6CFEC13F009E3010107B102D0A0
:10525000000104D00001FBA501D08DDF08D00101C1
:1052600030B203D0000187DF02D0000165DFD4EF48
:105270003FF002016D510508D8A4F0D03CC031F0D8
:105280003DC032F03EC033F03FC034F040C035F096
:1052900041C036F042C037F043C038F044C039F066
:1052A00045C03AF0342C07D0706B7051725D02E04B
:1052B00070C272F2D3D03450020808E1010E706F50
:1052C0007051725D02E070C272F2C8D034500308AF
:1052D00008E1020E706F7051725D02E070C272F2EE
:1052E000BDD03450040808E1030E706F7051725D38
:1052F00002E070C272F2B2D03450050808E1040E28
:10530000706F7051725D02E070C272F2A7D03450BB
:10531000060808E1050E706F7051725D02E070C200
:1053200072F29CD03450070808E1060E706F70517D
:10533000725D02E070C272F291D03450080808E148
:10534000070E706F7051725D02E070C272F286D00B
:105350003450090808E1080E706F7051725D02E068
:1053600070C272F27BD034500A0808E1090E706FE7
:105370007051725D02E070C272F270D034500B084E
:1053800008E10A0E706F7051725D02E070C272F235
:1053900065D034500C0808E10B0E706F7051725DCF
:1053A00002E070C272F25AD034500D0808E10C0EBF
:1053B000706F7051725D02E070C272F24FD0345063
:1053C0000E0808E10E0E706F7051725D02E070C23F
:1053D00072F244D03450100808E10D0E706F705115
:1053E000725D02E070C272F239D034500F0801E1F0
:1053F00035D034501A0808E1140E706F7051725D88
:1054000002E070C272F22AD034501B0808E10F0E7D
:10541000706F7051725D02E070C272F21FD0345032
:105420001C0808E1100E706F7051725D02E070C2CE
:1054300072F214D034502C0808E1640E706F705171
:10544000725D02E070C272F209D03450CC0806E1FD
:10545000F00E706F7251F00801E0FF000001D9EF0B
:105460003FF03EC2DFF63DC2DEF63CC2DDF63BC297
:10547000DCF6F2DC01C06DF03EC2DFF63DC2DEF6C6
:105480003CC2DDF63BC2DCF6E7DC0601DD6B01C0A9
:10549000DCF6000186EC10F0D8823EC2DFF63DC299
:1054A000DEF63CC2DDF63BC2DCF603C0E3F602C02A
:1054B000E2F601C0E1F600C0E0F664EC11F000C0D5
:1054C000DCF601C0DDF602C0DEF603C0DFF603C085
:1054D000E3F602C0E2F601C0E1F600C0E0F6060124
:1054E000E76BE66B200EE56F820EE46F000142EC85
:1054F00021F003C0DFF602C0DEF601C0DDF600C019
:10550000DCF6AADC01C06EF091C26FF0000192C21D
:1055100070F0000193C271F0000194C272F00001BA
:105520000EC2DFF60DC2DEF60CC2DDF60BC2DCF6F3
:1055300093DC01500A0DF3CF73F0746BF9B3742B45
:10554000756BF9B5752B9380786B81A0782B12C29F
:10555000DFF611C2DEF610C2DDF60FC2DCF67CDC2F
:1055600001C079F076C27AF0C6C27BF0B5C27CF099
:10557000B4C27DF0B3C27EF0B6C27FF0B7C280F095
:10558000B8C281F0C7C282F095C283F0000196C212
:1055900084F00001856B010106A903D00001852B71
:1055A00001010001866B30B8862B876B30BA872BE0
:1055B000886B30BC882B896B30BE892B8A6BF8B125
:1055C0008A2B8B6BF8BD8B2B8C6BF8BF8C2B8D6B68
:1055D000F8B38D2B8E6BF8B58E2B8F6BF8B78F2BA6
:1055E000906BF8B9902B916BF8BB912B926BF9B142
:1055F000922B3EC2DFF63DC2DEF63CC2DDF63BC278
:10560000DCF62ADC01C093F03EC2DFF63DC2DEF6D6
:105610003CC2DDF63BC2DCF61FDC0601DD6B01C0DF
:10562000DCF6000186EC10F0D8823EC2DFF63DC207
:10563000DEF63CC2DDF63BC2DCF603C0E3F602C098
:10564000E2F601C0E1F600C0E0F664EC11F000C043
:10565000DCF601C0DDF602C0DEF603C0DFF603C0F3
:10566000E3F602C0E2F601C0E1F600C0E0F6060192
:10567000E76BE66B200EE56F820EE46F000142ECF3
:1056800021F003C0DFF602C0DEF601C0DDF600C087
:10569000DCF62CEC27F001C094F091C295F00001EB
:1056A00092C296F0000193C297F0000194C298F064
:1056B00000010EC2DFF60DC2DEF60CC2DDF60BC233
:1056C000DCF62CEC27F001500A0DF3CF99F0938013
:1056D0009E6B81A09E2B12C2DFF611C2DEF610C2B5
:1056E000DDF60FC2DCF62CEC27F001C09FF076C28D
:1056F000A0F0C6C2A1F0B5C2A2F0B4C2A3F0B3C27A
:10570000A4F0B6C2A5F0B7C2A6F0B8C2A7F022C1F5
:10571000A8F021C1A9F024C1AAF023C1ABF070C246
:10572000ACF080C2ADF0ACC2AEF0FF0EAF6F800E39
:10573000B06F320EB16FCEEF2BF09488050E006E75
:10574000002EFED79486060E006E002EFED78B9894
:105750009498050E006E002EFED78B969496DDC6AB
:10576000E0F6EBEC12F0DEC6E0F6EBEC12F0DFC692
:10577000E0F6EBEC12F094980000948682A6FED737
:10578000050E006E002EFED700D000009488050E96
:10579000006E002EFED730EF2CF063D60201736B43
:1057A0007351250844E3B00E0001DE6F9488050EA6
:1057B000006E002EFED79486060E006E002EFED7D9
:1057C0008B989498050E006E002EFED78B969496BB
:1057D000DEC0E0F6EBEC12F073C2E0F6EBEC12F098
:1057E0000601E06B0001EBEC12F0036A0201735159
:1057F0006D0FE96E000E0320EA6EEFCFDCF6DCC61B
:10580000E0F60001EBEC12F094980000948682A67A
:10581000FED7050E006E002EFED700D00000948843
:10582000050E006E002EFED70201732BB9D7736BE5
:1058300073511E0818E3C00E0001DE6F036A0201F7
:105840007351930FE96E000E0320EA6EEFCFDCF682
:10585000DEC0DDF673C2DEF6DCC6DFF600016DD712
:105860000201732BE5D70001000C0201736B735129
:10587000080860E3B00E0001DE6F73C2DFF0DEC027
:10588000CAF6DFC0CBF69488050E006E002EFED758
:105890009486060E006E002EFED78B989498050E07
:1058A000006E002EFED78B969496CAC6E0F6EBECFF
:1058B00012F0CBC6E0F6EBEC12F09488050E006E09
:1058C000002EFED79486060E006E002EFED782A60E
:1058D000FED78B989498050E006E002EFED78B96FF
:1058E0009496010E0601CA25CC6FE06F0001EBEC27
:1058F00012F0006A26EC13F001C0DDF0949800006D
:10590000948682A6FED7050E006E002EFED700D02C
:1059100000009488050E006E002EFED7036A020177
:105920007351480FE96E000E0320EA6EDDC0EFFFF1
:10593000732B9DD7C00E0601CA6FCB6B9488050EE2
:10594000006E002EFED79486060E006E002EFED747
:105950008B989498050E006E002EFED78B96949629
:10596000CAC6E0F60001EBEC12F0CBC6E0F6EBECB9
:1059700012F09488050E006E002EFED79486060E57
:10598000006E002EFED782A6FED78B989498050E47
:10599000006E002EFED78B969496010E0601CA2546
:1059A000CC6FE06F0001EBEC12F0006A26EC13F014
:1059B00001C0DDF094980000948682A6FED7050E03
:1059C000006E002EFED700D000009488050E006EF9
:1059D000002EFED7DDC0B8F0B8C0FCF102EF00F039
:1059E000E3EF3FF0CFC6D0F60601D039006E0F0EC0
:1059F000001600500A0DF3CFCFF6D039006EF00E2E
:105A000000160050003A0F0E00160050CF27CFC6E8
:105A100001F00001000C0601CB510201885D0BE38F
:105A200005E10601CA510201875D05E301010A8B08
:105A30000201886B876B00015BEF40F00601CB51E0
:105A400002018A5D50E305E10601CA510201895D48
:105A50004AE30601CC6BF7C1CDF60001BDEC21F0A5
:105A600003C03EF202C03DF201C03CF200C03BF276
:105A7000010E0601CC6FF7C1CDF60001BDEC21F09F
:105A800003C042F202C041F201C040F200C03FF246
:105A90000A0E0601CC6F00012DEC26F003C0DFF6E4
:105AA00002C0DEF601C0DDF600C0DCF62CEC27F00B
:105AB00002C092F201C091F2140E0601CC6F0001F7
:105AC0004AEC27F003C0DFF602C0DEF601C0DDF6C7
:105AD00000C0DCF62CEC27F002C094F201C093F277
